{
  "abi": [
    {
      "inputs": [
        {
          "internalType": "address",
          "name": "token_",
          "type": "address"
        },
        {
          "internalType": "uint256",
          "name": "splitDuration_",
          "type": "uint256"
        },
        {
          "internalType": "uint256",
          "name": "splitCounter_",
          "type": "uint256"
        }
      ],
      "stateMutability": "nonpayable",
      "type": "constructor"
    },
    {
      "anonymous": false,
      "inputs": [],
      "name": "Begin",
      "type": "event"
    },
    {
      "anonymous": false,
      "inputs": [
        {
          "indexed": true,
          "internalType": "address",
          "name": "previousOwner",
          "type": "address"
        },
        {
          "indexed": true,
          "internalType": "address",
          "name": "newOwner",
          "type": "address"
        }
      ],
      "name": "OwnershipTransferred",
      "type": "event"
    },
    {
      "anonymous": false,
      "inputs": [
        {
          "indexed": false,
          "internalType": "uint256",
          "name": "amount",
          "type": "uint256"
        }
      ],
      "name": "Released",
      "type": "event"
    },
    {
      "inputs": [
        {
          "internalType": "address",
          "name": "_beneficiary",
          "type": "address"
        }
      ],
      "name": "calculateWithdrawable",
      "outputs": [
        {
          "internalType": "uint256",
          "name": "",
          "type": "uint256"
        }
      ],
      "stateMutability": "view",
      "type": "function"
    },
    {
      "inputs": [
        {
          "internalType": "address",
          "name": "_beneficiary",
          "type": "address"
        },
        {
          "internalType": "uint256",
          "name": "_amount",
          "type": "uint256"
        }
      ],
      "name": "createVestingSchedule",
      "outputs": [],
      "stateMutability": "nonpayable",
      "type": "function"
    },
    {
      "inputs": [],
      "name": "getBalance",
      "outputs": [
        {
          "internalType": "uint256",
          "name": "",
          "type": "uint256"
        }
      ],
      "stateMutability": "view",
      "type": "function"
    },
    {
      "inputs": [],
      "name": "getCurrentTime",
      "outputs": [
        {
          "internalType": "uint256",
          "name": "",
          "type": "uint256"
        }
      ],
      "stateMutability": "view",
      "type": "function"
    },
    {
      "inputs": [],
      "name": "getToken",
      "outputs": [
        {
          "internalType": "address",
          "name": "",
          "type": "address"
        }
      ],
      "stateMutability": "view",
      "type": "function"
    },
    {
      "inputs": [],
      "name": "isStarted",
      "outputs": [
        {
          "internalType": "bool",
          "name": "",
          "type": "bool"
        }
      ],
      "stateMutability": "view",
      "type": "function"
    },
    {
      "inputs": [],
      "name": "owner",
      "outputs": [
        {
          "internalType": "address",
          "name": "",
          "type": "address"
        }
      ],
      "stateMutability": "view",
      "type": "function"
    },
    {
      "inputs": [
        {
          "internalType": "uint256",
          "name": "_amount",
          "type": "uint256"
        }
      ],
      "name": "release",
      "outputs": [],
      "stateMutability": "nonpayable",
      "type": "function"
    },
    {
      "inputs": [],
      "name": "renounceOwnership",
      "outputs": [],
      "stateMutability": "nonpayable",
      "type": "function"
    },
    {
      "inputs": [
        {
          "internalType": "uint256",
          "name": "_amount",
          "type": "uint256"
        }
      ],
      "name": "setInitTotalAmount",
      "outputs": [],
      "stateMutability": "nonpayable",
      "type": "function"
    },
    {
      "inputs": [],
      "name": "startAllSchedule",
      "outputs": [],
      "stateMutability": "nonpayable",
      "type": "function"
    },
    {
      "inputs": [],
      "name": "startTime",
      "outputs": [
        {
          "internalType": "uint256",
          "name": "",
          "type": "uint256"
        }
      ],
      "stateMutability": "view",
      "type": "function"
    },
    {
      "inputs": [
        {
          "internalType": "address",
          "name": "newOwner",
          "type": "address"
        }
      ],
      "name": "transferOwnership",
      "outputs": [],
      "stateMutability": "nonpayable",
      "type": "function"
    },
    {
      "inputs": [],
      "name": "vestingIdCounter",
      "outputs": [
        {
          "internalType": "uint256",
          "name": "",
          "type": "uint256"
        }
      ],
      "stateMutability": "view",
      "type": "function"
    },
    {
      "inputs": [
        {
          "internalType": "uint256",
          "name": "",
          "type": "uint256"
        }
      ],
      "name": "vestingSchedules",
      "outputs": [
        {
          "internalType": "uint256",
          "name": "id",
          "type": "uint256"
        },
        {
          "internalType": "address",
          "name": "beneficiary",
          "type": "address"
        },
        {
          "internalType": "uint256",
          "name": "totalAmountReleased",
          "type": "uint256"
        },
        {
          "internalType": "uint256",
          "name": "totalAmountHasBeenWithdrawn",
          "type": "uint256"
        }
      ],
      "stateMutability": "view",
      "type": "function"
    },
    {
      "inputs": [
        {
          "internalType": "uint256",
          "name": "_amount",
          "type": "uint256"
        }
      ],
      "name": "withdrawContractBalance",
      "outputs": [],
      "stateMutability": "nonpayable",
      "type": "function"
    }
  ],
  "bytecode": "60e060405234801561001057600080fd5b506040516117e23803806117e283398101604081905261002f916100ff565b610038336100af565b600180556001600160a01b0383166100965760405162461bcd60e51b815260206004820152601460248201527f546f6b656e20616464726573732077726f6e6721000000000000000000000000604482015260640160405180910390fd5b6001600160a01b0390921660c05260805260a052610142565b600080546001600160a01b038381166001600160a01b0319831681178455604051919092169283917f8be0079c531659141344cd1fd0a4f28419497f9722a3daafe3b4186f6b6457e09190a35050565b60008060006060848603121561011457600080fd5b83516001600160a01b038116811461012b57600080fd5b602085015160409095015190969495509392505050565b60805160a05160c0516116406101a260003960008181610122015281816102770152818161035d015281816106c601528181610d8a0152611006015260008181610bc201528181610bea0152610c1b01526000610b8701526116406000f3fe608060405234801561001057600080fd5b50600436106101005760003560e01c8063544736e6116100975780638da5cb5b116100665780638da5cb5b146102155780638dd996c314610226578063b5abe85a14610239578063f2fde38b1461024c57600080fd5b8063544736e6146101ac5780636d3cbe21146101c9578063715018a61461020457806378e979251461020c57600080fd5b806337bdc99b116100d357806337bdc99b1461016a57806340f1031e1461017d578063419544a0146101865780634c44124f1461019957600080fd5b806312065fe01461010557806321df0da714610120578063221abf341461015a57806329cb924d14610164575b600080fd5b61010d61025f565b6040519081526020015b60405180910390f35b7f00000000000000000000000000000000000000000000000000000000000000005b6040516001600160a01b039091168152602001610117565b6101626102ef565b005b4261010d565b6101626101783660046113c2565b610460565b61010d60045481565b6101626101943660046113f2565b61072b565b61010d6101a736600461141c565b610a40565b6002546101b99060ff1681565b6040519015158152602001610117565b6101dc6101d73660046113c2565b610c69565b604080519485526001600160a01b039093166020850152918301526060820152608001610117565b610162610cac565b61010d60035481565b6000546001600160a01b0316610142565b6101626102343660046113c2565b610ce2565b6101626102473660046113c2565b610ee3565b61016261025a36600461141c565b611034565b6040516370a0823160e01b81523060048201526000907f00000000000000000000000000000000000000000000000000000000000000006001600160a01b0316906370a0823190602401602060405180830381865afa1580156102c6573d6000803e3d6000fd5b505050506040513d601f19601f820116820180604052508101906102ea9190611437565b905090565b6000546001600160a01b031633146103225760405162461bcd60e51b815260040161031990611450565b60405180910390fd5b60025460ff16156103455760405162461bcd60e51b815260040161031990611485565b6005546040516370a0823160e01b81523060048201527f00000000000000000000000000000000000000000000000000000000000000006001600160a01b0316906370a0823190602401602060405180830381865afa1580156103ac573d6000803e3d6000fd5b505050506040513d601f19601f820116820180604052508101906103d09190611437565b101561041e5760405162461bcd60e51b815260206004820152601f60248201527f416d6f756e7420657863656564732062616c616e636520616e6420496e6974006044820152606401610319565b6002805460ff191660011790556104324290565b6003556040517ffd3415c24b2b4519f08b7935c13f86ea010c77b3ff9bf448a474ae3b2414fce090600090a1565b600260015414156104b35760405162461bcd60e51b815260206004820152601f60248201527f5265656e7472616e637947756172643a207265656e7472616e742063616c6c006044820152606401610319565b6002600155336000908152600960205260408120546007805490919081106104dd576104dd6114b2565b600091825260208220600160049290920201908101549154909250336001600160a01b039283168114929091161481806105145750805b6105915760405162461bcd60e51b815260206004820152604260248201527f546f6b656e56657374696e673a206f6e6c792062656e6566696369617279206160448201527f6e64206f776e65722063616e2072656c656173652076657374656420746f6b656064820152616e7360f01b608482015260a401610319565b3360009081526009602052604090206001015460ff166105f35760405162461bcd60e51b815260206004820152601760248201527f4e6f7420696e2056657374696e67205363686564756c650000000000000000006044820152606401610319565b600084116106385760405162461bcd60e51b81526020600482015260126024820152710416d6f756e74206d757374206265203e20360741b6044820152606401610319565b61064133610a40565b84111561069a5760405162461bcd60e51b815260206004820152602160248201527f416d6f756e7420776974686472617761626c6520696e737566666963656e74736044820152602160f81b6064820152608401610319565b8383600301546106aa91906114de565b600384015560018301546001600160a01b03908116906106ed907f00000000000000000000000000000000000000000000000000000000000000001682876110cf565b6040518581527ffb81f9b30d73d830c3544b34d827c08142579ee75710b490bab0b3995468c5659060200160405180910390a1505060018055505050565b6000546001600160a01b031633146107555760405162461bcd60e51b815260040161031990611450565b60025460ff16156107785760405162461bcd60e51b815260040161031990611485565b6006548111156108035760405162461bcd60e51b815260206004820152604a60248201527f546f6b656e56657374696e673a2063616e6e6f7420637265617465207665737460448201527f696e67207363686564756c652062656361757365206e6f742073756666696369606482015269656e7420746f6b656e7360b01b608482015260a401610319565b600081116108535760405162461bcd60e51b815260206004820181905260248201527f546f6b656e56657374696e673a20616d6f756e74206d757374206265203e20306044820152606401610319565b6001600160a01b03821660009081526009602052604090206001015460ff166109d6576001600160a01b0380831660008181526009602090815260408083206004805482556001808301805460ff191682179055600880548083019091557ff3f7a9fe364faab93b216da50a3214154f22a0a2b415b23a84c8169e8b636ee30180546001600160a01b0319908116891790915584516080810186528354815295860197885293850189815260608601878152600780549384018155885295519183027fa66cc928b5edb82af9bd49922954155ab7b0942694bea4ce44661d9a8736c68881019290925596517fa66cc928b5edb82af9bd49922954155ab7b0942694bea4ce44661d9a8736c689820180549190991694169390931790965593517fa66cc928b5edb82af9bd49922954155ab7b0942694bea4ce44661d9a8736c68a82015590517fa66cc928b5edb82af9bd49922954155ab7b0942694bea4ce44661d9a8736c68b9091015582549192906109cb836114f6565b919050555050610a2b565b6001600160a01b038216600090815260096020526040812054600780549091908110610a0457610a046114b2565b90600052602060002090600402019050818160020154610a2491906114de565b6002909101555b80600654610a399190611511565b6006555050565b60025460009060ff16610a955760405162461bcd60e51b815260206004820152601b60248201527f56657374696e67206973206e6f742053746172746564205965742100000000006044820152606401610319565b6001600160a01b0382166000908152600960209081526040918290208251808401909352805483526001015460ff161515908201819052610b185760405162461bcd60e51b815260206004820152601b60248201527f42656e656669636961727920646f6573206e6f742065786973742100000000006044820152606401610319565b60006007826000015181548110610b3157610b316114b2565b600091825260208083206040805160808101825260049094029091018054845260018101546001600160a01b0316928401929092526002820154908301526003015460608201529150610b814290565b905060007f000000000000000000000000000000000000000000000000000000000000000060035483610bb49190611511565b610bbe9190611528565b90507f00000000000000000000000000000000000000000000000000000000000000008110610c0a57507f00000000000000000000000000000000000000000000000000000000000000005b80610c13575060015b8260600151817f00000000000000000000000000000000000000000000000000000000000000008560400151610c499190611528565b610c53919061154a565b610c5d9190611511565b9450505050505b919050565b60078181548110610c7957600080fd5b600091825260209091206004909102018054600182015460028301546003909301549193506001600160a01b0316919084565b6000546001600160a01b03163314610cd65760405162461bcd60e51b815260040161031990611450565b610ce06000611126565b565b6000546001600160a01b03163314610d0c5760405162461bcd60e51b815260040161031990611450565b60025460ff1615610d2f5760405162461bcd60e51b815260040161031990611485565b60008111610d755760405162461bcd60e51b8152602060048201526013602482015272416d6f756e74206d757374206265203e20302160681b6044820152606401610319565b6040516370a0823160e01b81523060048201527f00000000000000000000000000000000000000000000000000000000000000006001600160a01b0316906370a0823190602401602060405180830381865afa158015610dd9573d6000803e3d6000fd5b505050506040513d601f19601f82011682018060405250810190610dfd9190611437565b811115610e4c5760405162461bcd60e51b815260206004820152601760248201527f416d6f756e7420657863656564732062616c616e6365210000000000000000006044820152606401610319565b600654600554610e5c9190611511565b811015610ec15760405162461bcd60e51b815260206004820152602d60248201527f416d6f756e74206d75737420626520626967676572207468616e20707265766960448201526c6f75732061737369676e65642160981b6064820152608401610319565b600654600554610ed19190611511565b610edb9082611511565b600655600555565b60026001541415610f365760405162461bcd60e51b815260206004820152601f60248201527f5265656e7472616e637947756172643a207265656e7472616e742063616c6c006044820152606401610319565b60026001556000546001600160a01b03163314610f655760405162461bcd60e51b815260040161031990611450565b60025460ff161580610f7957506006548111155b610fc55760405162461bcd60e51b815260206004820152601f60248201527f416d6f756e7420657863656564732062616c616e636520616e6420496e6974006044820152606401610319565b80600554610fd39190611511565b600555600654610fe4908290611511565b60065561102d610ffc6000546001600160a01b031690565b6001600160a01b037f00000000000000000000000000000000000000000000000000000000000000001690836110cf565b5060018055565b6000546001600160a01b0316331461105e5760405162461bcd60e51b815260040161031990611450565b6001600160a01b0381166110c35760405162461bcd60e51b815260206004820152602660248201527f4f776e61626c653a206e6577206f776e657220697320746865207a65726f206160448201526564647265737360d01b6064820152608401610319565b6110cc81611126565b50565b604080516001600160a01b038416602482015260448082018490528251808303909101815260649091019091526020810180516001600160e01b031663a9059cbb60e01b179052611121908490611176565b505050565b600080546001600160a01b038381166001600160a01b0319831681178455604051919092169283917f8be0079c531659141344cd1fd0a4f28419497f9722a3daafe3b4186f6b6457e09190a35050565b60006111cb826040518060400160405280602081526020017f5361666545524332303a206c6f772d6c6576656c2063616c6c206661696c6564815250856001600160a01b03166112489092919063ffffffff16565b80519091501561112157808060200190518101906111e99190611569565b6111215760405162461bcd60e51b815260206004820152602a60248201527f5361666545524332303a204552433230206f7065726174696f6e20646964206e6044820152691bdd081cdd58d8d9595960b21b6064820152608401610319565b60606112578484600085611261565b90505b9392505050565b6060824710156112c25760405162461bcd60e51b815260206004820152602660248201527f416464726573733a20696e73756666696369656e742062616c616e636520666f6044820152651c8818d85b1b60d21b6064820152608401610319565b843b6113105760405162461bcd60e51b815260206004820152601d60248201527f416464726573733a2063616c6c20746f206e6f6e2d636f6e74726163740000006044820152606401610319565b600080866001600160a01b0316858760405161132c91906115bb565b60006040518083038185875af1925050503d8060008114611369576040519150601f19603f3d011682016040523d82523d6000602084013e61136e565b606091505b509150915061137e828286611389565b979650505050505050565b6060831561139857508161125a565b8251156113a85782518084602001fd5b8160405162461bcd60e51b815260040161031991906115d7565b6000602082840312156113d457600080fd5b5035919050565b80356001600160a01b0381168114610c6457600080fd5b6000806040838503121561140557600080fd5b61140e836113db565b946020939093013593505050565b60006020828403121561142e57600080fd5b61125a826113db565b60006020828403121561144957600080fd5b5051919050565b6020808252818101527f4f776e61626c653a2063616c6c6572206973206e6f7420746865206f776e6572604082015260600190565b60208082526013908201527256657374696e6720697320537461727465642160681b604082015260600190565b634e487b7160e01b600052603260045260246000fd5b634e487b7160e01b600052601160045260246000fd5b600082198211156114f1576114f16114c8565b500190565b600060001982141561150a5761150a6114c8565b5060010190565b600082821015611523576115236114c8565b500390565b60008261154557634e487b7160e01b600052601260045260246000fd5b500490565b6000816000190483118215151615611564576115646114c8565b500290565b60006020828403121561157b57600080fd5b8151801515811461125a57600080fd5b60005b838110156115a657818101518382015260200161158e565b838111156115b5576000848401525b50505050565b600082516115cd81846020870161158b565b9190910192915050565b60208152600082518060208401526115f681604085016020870161158b565b601f01601f1916919091016040019291505056fea26469706673582212200e661082c70d51cc8150ecd94bf16c3a3047d3b1faa6d0a3c9aaa9e1b88b812464736f6c634300080a0033",
  "bytecodeSha1": "bec70e42b3438d289a32028605f958b82698b5f5",
  "compiler": {
    "evm_version": "istanbul",
    "optimizer": {
      "enabled": true,
      "runs": 200
    },
    "version": "0.8.10+commit.fc410830"
  },
  "contractName": "AniwarVesting",
  "language": "Solidity",
  "natspec": {
    "kind": "dev",
    "methods": {
      "owner()": {
        "details": "Returns the address of the current owner."
      },
      "renounceOwnership()": {
        "details": "Leaves the contract without owner. It will not be possible to call `onlyOwner` functions anymore. Can only be called by the current owner. NOTE: Renouncing ownership will leave the contract without an owner, thereby removing any functionality that is only available to the owner."
      },
      "transferOwnership(address)": {
        "details": "Transfers ownership of the contract to a new account (`newOwner`). Can only be called by the current owner."
      }
    },
    "title": "TokenVesting",
    "version": 1
  },
  "opcodes": "PUSH1 0x80 PUSH1 0x40 MSTORE CALLVALUE DUP1 ISZERO PUSH2 0x10 JUMPI PUSH1 0x0 DUP1 REVERT JUMPDEST POP PUSH1 0x4 CALLDATASIZE LT PUSH2 0x100 JUMPI PUSH1 0x0 CALLDATALOAD PUSH1 0xE0 SHR DUP1 PUSH4 0x544736E6 GT PUSH2 0x97 JUMPI DUP1 PUSH4 0x8DA5CB5B GT PUSH2 0x66 JUMPI DUP1 PUSH4 0x8DA5CB5B EQ PUSH2 0x215 JUMPI DUP1 PUSH4 0x8DD996C3 EQ PUSH2 0x226 JUMPI DUP1 PUSH4 0xB5ABE85A EQ PUSH2 0x239 JUMPI DUP1 PUSH4 0xF2FDE38B EQ PUSH2 0x24C JUMPI PUSH1 0x0 DUP1 REVERT JUMPDEST DUP1 PUSH4 0x544736E6 EQ PUSH2 0x1AC JUMPI DUP1 PUSH4 0x6D3CBE21 EQ PUSH2 0x1C9 JUMPI DUP1 PUSH4 0x715018A6 EQ PUSH2 0x204 JUMPI DUP1 PUSH4 0x78E97925 EQ PUSH2 0x20C JUMPI PUSH1 0x0 DUP1 REVERT JUMPDEST DUP1 PUSH4 0x37BDC99B GT PUSH2 0xD3 JUMPI DUP1 PUSH4 0x37BDC99B EQ PUSH2 0x16A JUMPI DUP1 PUSH4 0x40F1031E EQ PUSH2 0x17D JUMPI DUP1 PUSH4 0x419544A0 EQ PUSH2 0x186 JUMPI DUP1 PUSH4 0x4C44124F EQ PUSH2 0x199 JUMPI PUSH1 0x0 DUP1 REVERT JUMPDEST DUP1 PUSH4 0x12065FE0 EQ PUSH2 0x105 JUMPI DUP1 PUSH4 0x21DF0DA7 EQ PUSH2 0x120 JUMPI DUP1 PUSH4 0x221ABF34 EQ PUSH2 0x15A JUMPI DUP1 PUSH4 0x29CB924D EQ PUSH2 0x164 JUMPI JUMPDEST PUSH1 0x0 DUP1 REVERT JUMPDEST PUSH2 0x10D PUSH2 0x25F JUMP JUMPDEST PUSH1 0x40 MLOAD SWAP1 DUP2 MSTORE PUSH1 0x20 ADD JUMPDEST PUSH1 0x40 MLOAD DUP1 SWAP2 SUB SWAP1 RETURN JUMPDEST PUSH32 0x0 JUMPDEST PUSH1 0x40 MLOAD PUSH1 0x1 PUSH1 0x1 PUSH1 0xA0 SHL SUB SWAP1 SWAP2 AND DUP2 MSTORE PUSH1 0x20 ADD PUSH2 0x117 JUMP JUMPDEST PUSH2 0x162 PUSH2 0x2EF JUMP JUMPDEST STOP JUMPDEST TIMESTAMP PUSH2 0x10D JUMP JUMPDEST PUSH2 0x162 PUSH2 0x178 CALLDATASIZE PUSH1 0x4 PUSH2 0x13C2 JUMP JUMPDEST PUSH2 0x460 JUMP JUMPDEST PUSH2 0x10D PUSH1 0x4 SLOAD DUP2 JUMP JUMPDEST PUSH2 0x162 PUSH2 0x194 CALLDATASIZE PUSH1 0x4 PUSH2 0x13F2 JUMP JUMPDEST PUSH2 0x72B JUMP JUMPDEST PUSH2 0x10D PUSH2 0x1A7 CALLDATASIZE PUSH1 0x4 PUSH2 0x141C JUMP JUMPDEST PUSH2 0xA40 JUMP JUMPDEST PUSH1 0x2 SLOAD PUSH2 0x1B9 SWAP1 PUSH1 0xFF AND DUP2 JUMP JUMPDEST PUSH1 0x40 MLOAD SWAP1 ISZERO ISZERO DUP2 MSTORE PUSH1 0x20 ADD PUSH2 0x117 JUMP JUMPDEST PUSH2 0x1DC PUSH2 0x1D7 CALLDATASIZE PUSH1 0x4 PUSH2 0x13C2 JUMP JUMPDEST PUSH2 0xC69 JUMP JUMPDEST PUSH1 0x40 DUP1 MLOAD SWAP5 DUP6 MSTORE PUSH1 0x1 PUSH1 0x1 PUSH1 0xA0 SHL SUB SWAP1 SWAP4 AND PUSH1 0x20 DUP6 ADD MSTORE SWAP2 DUP4 ADD MSTORE PUSH1 0x60 DUP3 ADD MSTORE PUSH1 0x80 ADD PUSH2 0x117 JUMP JUMPDEST PUSH2 0x162 PUSH2 0xCAC JUMP JUMPDEST PUSH2 0x10D PUSH1 0x3 SLOAD DUP2 JUMP JUMPDEST PUSH1 0x0 SLOAD PUSH1 0x1 PUSH1 0x1 PUSH1 0xA0 SHL SUB AND PUSH2 0x142 JUMP JUMPDEST PUSH2 0x162 PUSH2 0x234 CALLDATASIZE PUSH1 0x4 PUSH2 0x13C2 JUMP JUMPDEST PUSH2 0xCE2 JUMP JUMPDEST PUSH2 0x162 PUSH2 0x247 CALLDATASIZE PUSH1 0x4 PUSH2 0x13C2 JUMP JUMPDEST PUSH2 0xEE3 JUMP JUMPDEST PUSH2 0x162 PUSH2 0x25A CALLDATASIZE PUSH1 0x4 PUSH2 0x141C JUMP JUMPDEST PUSH2 0x1034 JUMP JUMPDEST PUSH1 0x40 MLOAD PUSH4 0x70A08231 PUSH1 0xE0 SHL DUP2 MSTORE ADDRESS PUSH1 0x4 DUP3 ADD MSTORE PUSH1 0x0 SWAP1 PUSH32 0x0 PUSH1 0x1 PUSH1 0x1 PUSH1 0xA0 SHL SUB AND SWAP1 PUSH4 0x70A08231 SWAP1 PUSH1 0x24 ADD PUSH1 0x20 PUSH1 0x40 MLOAD DUP1 DUP4 SUB DUP2 DUP7 GAS STATICCALL ISZERO DUP1 ISZERO PUSH2 0x2C6 JUMPI RETURNDATASIZE PUSH1 0x0 DUP1 RETURNDATACOPY RETURNDATASIZE PUSH1 0x0 REVERT JUMPDEST POP POP POP POP PUSH1 0x40 MLOAD RETURNDATASIZE PUSH1 0x1F NOT PUSH1 0x1F DUP3 ADD AND DUP3 ADD DUP1 PUSH1 0x40 MSTORE POP DUP2 ADD SWAP1 PUSH2 0x2EA SWAP2 SWAP1 PUSH2 0x1437 JUMP JUMPDEST SWAP1 POP SWAP1 JUMP JUMPDEST PUSH1 0x0 SLOAD PUSH1 0x1 PUSH1 0x1 PUSH1 0xA0 SHL SUB AND CALLER EQ PUSH2 0x322 JUMPI PUSH1 0x40 MLOAD PUSH3 0x461BCD PUSH1 0xE5 SHL DUP2 MSTORE PUSH1 0x4 ADD PUSH2 0x319 SWAP1 PUSH2 0x1450 JUMP JUMPDEST PUSH1 0x40 MLOAD DUP1 SWAP2 SUB SWAP1 REVERT JUMPDEST PUSH1 0x2 SLOAD PUSH1 0xFF AND ISZERO PUSH2 0x345 JUMPI PUSH1 0x40 MLOAD PUSH3 0x461BCD PUSH1 0xE5 SHL DUP2 MSTORE PUSH1 0x4 ADD PUSH2 0x319 SWAP1 PUSH2 0x1485 JUMP JUMPDEST PUSH1 0x5 SLOAD PUSH1 0x40 MLOAD PUSH4 0x70A08231 PUSH1 0xE0 SHL DUP2 MSTORE ADDRESS PUSH1 0x4 DUP3 ADD MSTORE PUSH32 0x0 PUSH1 0x1 PUSH1 0x1 PUSH1 0xA0 SHL SUB AND SWAP1 PUSH4 0x70A08231 SWAP1 PUSH1 0x24 ADD PUSH1 0x20 PUSH1 0x40 MLOAD DUP1 DUP4 SUB DUP2 DUP7 GAS STATICCALL ISZERO DUP1 ISZERO PUSH2 0x3AC JUMPI RETURNDATASIZE PUSH1 0x0 DUP1 RETURNDATACOPY RETURNDATASIZE PUSH1 0x0 REVERT JUMPDEST POP POP POP POP PUSH1 0x40 MLOAD RETURNDATASIZE PUSH1 0x1F NOT PUSH1 0x1F DUP3 ADD AND DUP3 ADD DUP1 PUSH1 0x40 MSTORE POP DUP2 ADD SWAP1 PUSH2 0x3D0 SWAP2 SWAP1 PUSH2 0x1437 JUMP JUMPDEST LT ISZERO PUSH2 0x41E JUMPI PUSH1 0x40 MLOAD PUSH3 0x461BCD PUSH1 0xE5 SHL DUP2 MSTORE PUSH1 0x20 PUSH1 0x4 DUP3 ADD MSTORE PUSH1 0x1F PUSH1 0x24 DUP3 ADD MSTORE PUSH32 0x416D6F756E7420657863656564732062616C616E636520616E6420496E697400 PUSH1 0x44 DUP3 ADD MSTORE PUSH1 0x64 ADD PUSH2 0x319 JUMP JUMPDEST PUSH1 0x2 DUP1 SLOAD PUSH1 0xFF NOT AND PUSH1 0x1 OR SWAP1 SSTORE PUSH2 0x432 TIMESTAMP SWAP1 JUMP JUMPDEST PUSH1 0x3 SSTORE PUSH1 0x40 MLOAD PUSH32 0xFD3415C24B2B4519F08B7935C13F86EA010C77B3FF9BF448A474AE3B2414FCE0 SWAP1 PUSH1 0x0 SWAP1 LOG1 JUMP JUMPDEST PUSH1 0x2 PUSH1 0x1 SLOAD EQ ISZERO PUSH2 0x4B3 JUMPI PUSH1 0x40 MLOAD PUSH3 0x461BCD PUSH1 0xE5 SHL DUP2 MSTORE PUSH1 0x20 PUSH1 0x4 DUP3 ADD MSTORE PUSH1 0x1F PUSH1 0x24 DUP3 ADD MSTORE PUSH32 0x5265656E7472616E637947756172643A207265656E7472616E742063616C6C00 PUSH1 0x44 DUP3 ADD MSTORE PUSH1 0x64 ADD PUSH2 0x319 JUMP JUMPDEST PUSH1 0x2 PUSH1 0x1 SSTORE CALLER PUSH1 0x0 SWAP1 DUP2 MSTORE PUSH1 0x9 PUSH1 0x20 MSTORE PUSH1 0x40 DUP2 KECCAK256 SLOAD PUSH1 0x7 DUP1 SLOAD SWAP1 SWAP2 SWAP1 DUP2 LT PUSH2 0x4DD JUMPI PUSH2 0x4DD PUSH2 0x14B2 JUMP JUMPDEST PUSH1 0x0 SWAP2 DUP3 MSTORE PUSH1 0x20 DUP3 KECCAK256 PUSH1 0x1 PUSH1 0x4 SWAP3 SWAP1 SWAP3 MUL ADD SWAP1 DUP2 ADD SLOAD SWAP2 SLOAD SWAP1 SWAP3 POP CALLER PUSH1 0x1 PUSH1 0x1 PUSH1 0xA0 SHL SUB SWAP3 DUP4 AND DUP2 EQ SWAP3 SWAP1 SWAP2 AND EQ DUP2 DUP1 PUSH2 0x514 JUMPI POP DUP1 JUMPDEST PUSH2 0x591 JUMPI PUSH1 0x40 MLOAD PUSH3 0x461BCD PUSH1 0xE5 SHL DUP2 MSTORE PUSH1 0x20 PUSH1 0x4 DUP3 ADD MSTORE PUSH1 0x42 PUSH1 0x24 DUP3 ADD MSTORE PUSH32 0x546F6B656E56657374696E673A206F6E6C792062656E65666963696172792061 PUSH1 0x44 DUP3 ADD MSTORE PUSH32 0x6E64206F776E65722063616E2072656C656173652076657374656420746F6B65 PUSH1 0x64 DUP3 ADD MSTORE PUSH2 0x6E73 PUSH1 0xF0 SHL PUSH1 0x84 DUP3 ADD MSTORE PUSH1 0xA4 ADD PUSH2 0x319 JUMP JUMPDEST CALLER PUSH1 0x0 SWAP1 DUP2 MSTORE PUSH1 0x9 PUSH1 0x20 MSTORE PUSH1 0x40 SWAP1 KECCAK256 PUSH1 0x1 ADD SLOAD PUSH1 0xFF AND PUSH2 0x5F3 JUMPI PUSH1 0x40 MLOAD PUSH3 0x461BCD PUSH1 0xE5 SHL DUP2 MSTORE PUSH1 0x20 PUSH1 0x4 DUP3 ADD MSTORE PUSH1 0x17 PUSH1 0x24 DUP3 ADD MSTORE PUSH32 0x4E6F7420696E2056657374696E67205363686564756C65000000000000000000 PUSH1 0x44 DUP3 ADD MSTORE PUSH1 0x64 ADD PUSH2 0x319 JUMP JUMPDEST PUSH1 0x0 DUP5 GT PUSH2 0x638 JUMPI PUSH1 0x40 MLOAD PUSH3 0x461BCD PUSH1 0xE5 SHL DUP2 MSTORE PUSH1 0x20 PUSH1 0x4 DUP3 ADD MSTORE PUSH1 0x12 PUSH1 0x24 DUP3 ADD MSTORE PUSH18 0x416D6F756E74206D757374206265203E203 PUSH1 0x74 SHL PUSH1 0x44 DUP3 ADD MSTORE PUSH1 0x64 ADD PUSH2 0x319 JUMP JUMPDEST PUSH2 0x641 CALLER PUSH2 0xA40 JUMP JUMPDEST DUP5 GT ISZERO PUSH2 0x69A JUMPI PUSH1 0x40 MLOAD PUSH3 0x461BCD PUSH1 0xE5 SHL DUP2 MSTORE PUSH1 0x20 PUSH1 0x4 DUP3 ADD MSTORE PUSH1 0x21 PUSH1 0x24 DUP3 ADD MSTORE PUSH32 0x416D6F756E7420776974686472617761626C6520696E737566666963656E7473 PUSH1 0x44 DUP3 ADD MSTORE PUSH1 0x21 PUSH1 0xF8 SHL PUSH1 0x64 DUP3 ADD MSTORE PUSH1 0x84 ADD PUSH2 0x319 JUMP JUMPDEST DUP4 DUP4 PUSH1 0x3 ADD SLOAD PUSH2 0x6AA SWAP2 SWAP1 PUSH2 0x14DE JUMP JUMPDEST PUSH1 0x3 DUP5 ADD SSTORE PUSH1 0x1 DUP4 ADD SLOAD PUSH1 0x1 PUSH1 0x1 PUSH1 0xA0 SHL SUB SWAP1 DUP2 AND SWAP1 PUSH2 0x6ED SWAP1 PUSH32 0x0 AND DUP3 DUP8 PUSH2 0x10CF JUMP JUMPDEST PUSH1 0x40 MLOAD DUP6 DUP2 MSTORE PUSH32 0xFB81F9B30D73D830C3544B34D827C08142579EE75710B490BAB0B3995468C565 SWAP1 PUSH1 0x20 ADD PUSH1 0x40 MLOAD DUP1 SWAP2 SUB SWAP1 LOG1 POP POP PUSH1 0x1 DUP1 SSTORE POP POP POP JUMP JUMPDEST PUSH1 0x0 SLOAD PUSH1 0x1 PUSH1 0x1 PUSH1 0xA0 SHL SUB AND CALLER EQ PUSH2 0x755 JUMPI PUSH1 0x40 MLOAD PUSH3 0x461BCD PUSH1 0xE5 SHL DUP2 MSTORE PUSH1 0x4 ADD PUSH2 0x319 SWAP1 PUSH2 0x1450 JUMP JUMPDEST PUSH1 0x2 SLOAD PUSH1 0xFF AND ISZERO PUSH2 0x778 JUMPI PUSH1 0x40 MLOAD PUSH3 0x461BCD PUSH1 0xE5 SHL DUP2 MSTORE PUSH1 0x4 ADD PUSH2 0x319 SWAP1 PUSH2 0x1485 JUMP JUMPDEST PUSH1 0x6 SLOAD DUP2 GT ISZERO PUSH2 0x803 JUMPI PUSH1 0x40 MLOAD PUSH3 0x461BCD PUSH1 0xE5 SHL DUP2 MSTORE PUSH1 0x20 PUSH1 0x4 DUP3 ADD MSTORE PUSH1 0x4A PUSH1 0x24 DUP3 ADD MSTORE PUSH32 0x546F6B656E56657374696E673A2063616E6E6F74206372656174652076657374 PUSH1 0x44 DUP3 ADD MSTORE PUSH32 0x696E67207363686564756C652062656361757365206E6F742073756666696369 PUSH1 0x64 DUP3 ADD MSTORE PUSH10 0x656E7420746F6B656E73 PUSH1 0xB0 SHL PUSH1 0x84 DUP3 ADD MSTORE PUSH1 0xA4 ADD PUSH2 0x319 JUMP JUMPDEST PUSH1 0x0 DUP2 GT PUSH2 0x853 JUMPI PUSH1 0x40 MLOAD PUSH3 0x461BCD PUSH1 0xE5 SHL DUP2 MSTORE PUSH1 0x20 PUSH1 0x4 DUP3 ADD DUP2 SWAP1 MSTORE PUSH1 0x24 DUP3 ADD MSTORE PUSH32 0x546F6B656E56657374696E673A20616D6F756E74206D757374206265203E2030 PUSH1 0x44 DUP3 ADD MSTORE PUSH1 0x64 ADD PUSH2 0x319 JUMP JUMPDEST PUSH1 0x1 PUSH1 0x1 PUSH1 0xA0 SHL SUB DUP3 AND PUSH1 0x0 SWAP1 DUP2 MSTORE PUSH1 0x9 PUSH1 0x20 MSTORE PUSH1 0x40 SWAP1 KECCAK256 PUSH1 0x1 ADD SLOAD PUSH1 0xFF AND PUSH2 0x9D6 JUMPI PUSH1 0x1 PUSH1 0x1 PUSH1 0xA0 SHL SUB DUP1 DUP4 AND PUSH1 0x0 DUP2 DUP2 MSTORE PUSH1 0x9 PUSH1 0x20 SWAP1 DUP2 MSTORE PUSH1 0x40 DUP1 DUP4 KECCAK256 PUSH1 0x4 DUP1 SLOAD DUP3 SSTORE PUSH1 0x1 DUP1 DUP4 ADD DUP1 SLOAD PUSH1 0xFF NOT AND DUP3 OR SWAP1 SSTORE PUSH1 0x8 DUP1 SLOAD DUP1 DUP4 ADD SWAP1 SWAP2 SSTORE PUSH32 0xF3F7A9FE364FAAB93B216DA50A3214154F22A0A2B415B23A84C8169E8B636EE3 ADD DUP1 SLOAD PUSH1 0x1 PUSH1 0x1 PUSH1 0xA0 SHL SUB NOT SWAP1 DUP2 AND DUP10 OR SWAP1 SWAP2 SSTORE DUP5 MLOAD PUSH1 0x80 DUP2 ADD DUP7 MSTORE DUP4 SLOAD DUP2 MSTORE SWAP6 DUP7 ADD SWAP8 DUP9 MSTORE SWAP4 DUP6 ADD DUP10 DUP2 MSTORE PUSH1 0x60 DUP7 ADD DUP8 DUP2 MSTORE PUSH1 0x7 DUP1 SLOAD SWAP4 DUP5 ADD DUP2 SSTORE DUP9 MSTORE SWAP6 MLOAD SWAP2 DUP4 MUL PUSH32 0xA66CC928B5EDB82AF9BD49922954155AB7B0942694BEA4CE44661D9A8736C688 DUP2 ADD SWAP3 SWAP1 SWAP3 SSTORE SWAP7 MLOAD PUSH32 0xA66CC928B5EDB82AF9BD49922954155AB7B0942694BEA4CE44661D9A8736C689 DUP3 ADD DUP1 SLOAD SWAP2 SWAP1 SWAP10 AND SWAP5 AND SWAP4 SWAP1 SWAP4 OR SWAP1 SWAP7 SSTORE SWAP4 MLOAD PUSH32 0xA66CC928B5EDB82AF9BD49922954155AB7B0942694BEA4CE44661D9A8736C68A DUP3 ADD SSTORE SWAP1 MLOAD PUSH32 0xA66CC928B5EDB82AF9BD49922954155AB7B0942694BEA4CE44661D9A8736C68B SWAP1 SWAP2 ADD SSTORE DUP3 SLOAD SWAP2 SWAP3 SWAP1 PUSH2 0x9CB DUP4 PUSH2 0x14F6 JUMP JUMPDEST SWAP2 SWAP1 POP SSTORE POP POP PUSH2 0xA2B JUMP JUMPDEST PUSH1 0x1 PUSH1 0x1 PUSH1 0xA0 SHL SUB DUP3 AND PUSH1 0x0 SWAP1 DUP2 MSTORE PUSH1 0x9 PUSH1 0x20 MSTORE PUSH1 0x40 DUP2 KECCAK256 SLOAD PUSH1 0x7 DUP1 SLOAD SWAP1 SWAP2 SWAP1 DUP2 LT PUSH2 0xA04 JUMPI PUSH2 0xA04 PUSH2 0x14B2 JUMP JUMPDEST SWAP1 PUSH1 0x0 MSTORE PUSH1 0x20 PUSH1 0x0 KECCAK256 SWAP1 PUSH1 0x4 MUL ADD SWAP1 POP DUP2 DUP2 PUSH1 0x2 ADD SLOAD PUSH2 0xA24 SWAP2 SWAP1 PUSH2 0x14DE JUMP JUMPDEST PUSH1 0x2 SWAP1 SWAP2 ADD SSTORE JUMPDEST DUP1 PUSH1 0x6 SLOAD PUSH2 0xA39 SWAP2 SWAP1 PUSH2 0x1511 JUMP JUMPDEST PUSH1 0x6 SSTORE POP POP JUMP JUMPDEST PUSH1 0x2 SLOAD PUSH1 0x0 SWAP1 PUSH1 0xFF AND PUSH2 0xA95 JUMPI PUSH1 0x40 MLOAD PUSH3 0x461BCD PUSH1 0xE5 SHL DUP2 MSTORE PUSH1 0x20 PUSH1 0x4 DUP3 ADD MSTORE PUSH1 0x1B PUSH1 0x24 DUP3 ADD MSTORE PUSH32 0x56657374696E67206973206E6F74205374617274656420596574210000000000 PUSH1 0x44 DUP3 ADD MSTORE PUSH1 0x64 ADD PUSH2 0x319 JUMP JUMPDEST PUSH1 0x1 PUSH1 0x1 PUSH1 0xA0 SHL SUB DUP3 AND PUSH1 0x0 SWAP1 DUP2 MSTORE PUSH1 0x9 PUSH1 0x20 SWAP1 DUP2 MSTORE PUSH1 0x40 SWAP2 DUP3 SWAP1 KECCAK256 DUP3 MLOAD DUP1 DUP5 ADD SWAP1 SWAP4 MSTORE DUP1 SLOAD DUP4 MSTORE PUSH1 0x1 ADD SLOAD PUSH1 0xFF AND ISZERO ISZERO SWAP1 DUP3 ADD DUP2 SWAP1 MSTORE PUSH2 0xB18 JUMPI PUSH1 0x40 MLOAD PUSH3 0x461BCD PUSH1 0xE5 SHL DUP2 MSTORE PUSH1 0x20 PUSH1 0x4 DUP3 ADD MSTORE PUSH1 0x1B PUSH1 0x24 DUP3 ADD MSTORE PUSH32 0x42656E656669636961727920646F6573206E6F74206578697374210000000000 PUSH1 0x44 DUP3 ADD MSTORE PUSH1 0x64 ADD PUSH2 0x319 JUMP JUMPDEST PUSH1 0x0 PUSH1 0x7 DUP3 PUSH1 0x0 ADD MLOAD DUP2 SLOAD DUP2 LT PUSH2 0xB31 JUMPI PUSH2 0xB31 PUSH2 0x14B2 JUMP JUMPDEST PUSH1 0x0 SWAP2 DUP3 MSTORE PUSH1 0x20 DUP1 DUP4 KECCAK256 PUSH1 0x40 DUP1 MLOAD PUSH1 0x80 DUP2 ADD DUP3 MSTORE PUSH1 0x4 SWAP1 SWAP5 MUL SWAP1 SWAP2 ADD DUP1 SLOAD DUP5 MSTORE PUSH1 0x1 DUP2 ADD SLOAD PUSH1 0x1 PUSH1 0x1 PUSH1 0xA0 SHL SUB AND SWAP3 DUP5 ADD SWAP3 SWAP1 SWAP3 MSTORE PUSH1 0x2 DUP3 ADD SLOAD SWAP1 DUP4 ADD MSTORE PUSH1 0x3 ADD SLOAD PUSH1 0x60 DUP3 ADD MSTORE SWAP2 POP PUSH2 0xB81 TIMESTAMP SWAP1 JUMP JUMPDEST SWAP1 POP PUSH1 0x0 PUSH32 0x0 PUSH1 0x3 SLOAD DUP4 PUSH2 0xBB4 SWAP2 SWAP1 PUSH2 0x1511 JUMP JUMPDEST PUSH2 0xBBE SWAP2 SWAP1 PUSH2 0x1528 JUMP JUMPDEST SWAP1 POP PUSH32 0x0 DUP2 LT PUSH2 0xC0A JUMPI POP PUSH32 0x0 JUMPDEST DUP1 PUSH2 0xC13 JUMPI POP PUSH1 0x1 JUMPDEST DUP3 PUSH1 0x60 ADD MLOAD DUP2 PUSH32 0x0 DUP6 PUSH1 0x40 ADD MLOAD PUSH2 0xC49 SWAP2 SWAP1 PUSH2 0x1528 JUMP JUMPDEST PUSH2 0xC53 SWAP2 SWAP1 PUSH2 0x154A JUMP JUMPDEST PUSH2 0xC5D SWAP2 SWAP1 PUSH2 0x1511 JUMP JUMPDEST SWAP5 POP POP POP POP POP JUMPDEST SWAP2 SWAP1 POP JUMP JUMPDEST PUSH1 0x7 DUP2 DUP2 SLOAD DUP2 LT PUSH2 0xC79 JUMPI PUSH1 0x0 DUP1 REVERT JUMPDEST PUSH1 0x0 SWAP2 DUP3 MSTORE PUSH1 0x20 SWAP1 SWAP2 KECCAK256 PUSH1 0x4 SWAP1 SWAP2 MUL ADD DUP1 SLOAD PUSH1 0x1 DUP3 ADD SLOAD PUSH1 0x2 DUP4 ADD SLOAD PUSH1 0x3 SWAP1 SWAP4 ADD SLOAD SWAP2 SWAP4 POP PUSH1 0x1 PUSH1 0x1 PUSH1 0xA0 SHL SUB AND SWAP2 SWAP1 DUP5 JUMP JUMPDEST PUSH1 0x0 SLOAD PUSH1 0x1 PUSH1 0x1 PUSH1 0xA0 SHL SUB AND CALLER EQ PUSH2 0xCD6 JUMPI PUSH1 0x40 MLOAD PUSH3 0x461BCD PUSH1 0xE5 SHL DUP2 MSTORE PUSH1 0x4 ADD PUSH2 0x319 SWAP1 PUSH2 0x1450 JUMP JUMPDEST PUSH2 0xCE0 PUSH1 0x0 PUSH2 0x1126 JUMP JUMPDEST JUMP JUMPDEST PUSH1 0x0 SLOAD PUSH1 0x1 PUSH1 0x1 PUSH1 0xA0 SHL SUB AND CALLER EQ PUSH2 0xD0C JUMPI PUSH1 0x40 MLOAD PUSH3 0x461BCD PUSH1 0xE5 SHL DUP2 MSTORE PUSH1 0x4 ADD PUSH2 0x319 SWAP1 PUSH2 0x1450 JUMP JUMPDEST PUSH1 0x2 SLOAD PUSH1 0xFF AND ISZERO PUSH2 0xD2F JUMPI PUSH1 0x40 MLOAD PUSH3 0x461BCD PUSH1 0xE5 SHL DUP2 MSTORE PUSH1 0x4 ADD PUSH2 0x319 SWAP1 PUSH2 0x1485 JUMP JUMPDEST PUSH1 0x0 DUP2 GT PUSH2 0xD75 JUMPI PUSH1 0x40 MLOAD PUSH3 0x461BCD PUSH1 0xE5 SHL DUP2 MSTORE PUSH1 0x20 PUSH1 0x4 DUP3 ADD MSTORE PUSH1 0x13 PUSH1 0x24 DUP3 ADD MSTORE PUSH19 0x416D6F756E74206D757374206265203E203021 PUSH1 0x68 SHL PUSH1 0x44 DUP3 ADD MSTORE PUSH1 0x64 ADD PUSH2 0x319 JUMP JUMPDEST PUSH1 0x40 MLOAD PUSH4 0x70A08231 PUSH1 0xE0 SHL DUP2 MSTORE ADDRESS PUSH1 0x4 DUP3 ADD MSTORE PUSH32 0x0 PUSH1 0x1 PUSH1 0x1 PUSH1 0xA0 SHL SUB AND SWAP1 PUSH4 0x70A08231 SWAP1 PUSH1 0x24 ADD PUSH1 0x20 PUSH1 0x40 MLOAD DUP1 DUP4 SUB DUP2 DUP7 GAS STATICCALL ISZERO DUP1 ISZERO PUSH2 0xDD9 JUMPI RETURNDATASIZE PUSH1 0x0 DUP1 RETURNDATACOPY RETURNDATASIZE PUSH1 0x0 REVERT JUMPDEST POP POP POP POP PUSH1 0x40 MLOAD RETURNDATASIZE PUSH1 0x1F NOT PUSH1 0x1F DUP3 ADD AND DUP3 ADD DUP1 PUSH1 0x40 MSTORE POP DUP2 ADD SWAP1 PUSH2 0xDFD SWAP2 SWAP1 PUSH2 0x1437 JUMP JUMPDEST DUP2 GT ISZERO PUSH2 0xE4C JUMPI PUSH1 0x40 MLOAD PUSH3 0x461BCD PUSH1 0xE5 SHL DUP2 MSTORE PUSH1 0x20 PUSH1 0x4 DUP3 ADD MSTORE PUSH1 0x17 PUSH1 0x24 DUP3 ADD MSTORE PUSH32 0x416D6F756E7420657863656564732062616C616E636521000000000000000000 PUSH1 0x44 DUP3 ADD MSTORE PUSH1 0x64 ADD PUSH2 0x319 JUMP JUMPDEST PUSH1 0x6 SLOAD PUSH1 0x5 SLOAD PUSH2 0xE5C SWAP2 SWAP1 PUSH2 0x1511 JUMP JUMPDEST DUP2 LT ISZERO PUSH2 0xEC1 JUMPI PUSH1 0x40 MLOAD PUSH3 0x461BCD PUSH1 0xE5 SHL DUP2 MSTORE PUSH1 0x20 PUSH1 0x4 DUP3 ADD MSTORE PUSH1 0x2D PUSH1 0x24 DUP3 ADD MSTORE PUSH32 0x416D6F756E74206D75737420626520626967676572207468616E207072657669 PUSH1 0x44 DUP3 ADD MSTORE PUSH13 0x6F75732061737369676E656421 PUSH1 0x98 SHL PUSH1 0x64 DUP3 ADD MSTORE PUSH1 0x84 ADD PUSH2 0x319 JUMP JUMPDEST PUSH1 0x6 SLOAD PUSH1 0x5 SLOAD PUSH2 0xED1 SWAP2 SWAP1 PUSH2 0x1511 JUMP JUMPDEST PUSH2 0xEDB SWAP1 DUP3 PUSH2 0x1511 JUMP JUMPDEST PUSH1 0x6 SSTORE PUSH1 0x5 SSTORE JUMP JUMPDEST PUSH1 0x2 PUSH1 0x1 SLOAD EQ ISZERO PUSH2 0xF36 JUMPI PUSH1 0x40 MLOAD PUSH3 0x461BCD PUSH1 0xE5 SHL DUP2 MSTORE PUSH1 0x20 PUSH1 0x4 DUP3 ADD MSTORE PUSH1 0x1F PUSH1 0x24 DUP3 ADD MSTORE PUSH32 0x5265656E7472616E637947756172643A207265656E7472616E742063616C6C00 PUSH1 0x44 DUP3 ADD MSTORE PUSH1 0x64 ADD PUSH2 0x319 JUMP JUMPDEST PUSH1 0x2 PUSH1 0x1 SSTORE PUSH1 0x0 SLOAD PUSH1 0x1 PUSH1 0x1 PUSH1 0xA0 SHL SUB AND CALLER EQ PUSH2 0xF65 JUMPI PUSH1 0x40 MLOAD PUSH3 0x461BCD PUSH1 0xE5 SHL DUP2 MSTORE PUSH1 0x4 ADD PUSH2 0x319 SWAP1 PUSH2 0x1450 JUMP JUMPDEST PUSH1 0x2 SLOAD PUSH1 0xFF AND ISZERO DUP1 PUSH2 0xF79 JUMPI POP PUSH1 0x6 SLOAD DUP2 GT ISZERO JUMPDEST PUSH2 0xFC5 JUMPI PUSH1 0x40 MLOAD PUSH3 0x461BCD PUSH1 0xE5 SHL DUP2 MSTORE PUSH1 0x20 PUSH1 0x4 DUP3 ADD MSTORE PUSH1 0x1F PUSH1 0x24 DUP3 ADD MSTORE PUSH32 0x416D6F756E7420657863656564732062616C616E636520616E6420496E697400 PUSH1 0x44 DUP3 ADD MSTORE PUSH1 0x64 ADD PUSH2 0x319 JUMP JUMPDEST DUP1 PUSH1 0x5 SLOAD PUSH2 0xFD3 SWAP2 SWAP1 PUSH2 0x1511 JUMP JUMPDEST PUSH1 0x5 SSTORE PUSH1 0x6 SLOAD PUSH2 0xFE4 SWAP1 DUP3 SWAP1 PUSH2 0x1511 JUMP JUMPDEST PUSH1 0x6 SSTORE PUSH2 0x102D PUSH2 0xFFC PUSH1 0x0 SLOAD PUSH1 0x1 PUSH1 0x1 PUSH1 0xA0 SHL SUB AND SWAP1 JUMP JUMPDEST PUSH1 0x1 PUSH1 0x1 PUSH1 0xA0 SHL SUB PUSH32 0x0 AND SWAP1 DUP4 PUSH2 0x10CF JUMP JUMPDEST POP PUSH1 0x1 DUP1 SSTORE JUMP JUMPDEST PUSH1 0x0 SLOAD PUSH1 0x1 PUSH1 0x1 PUSH1 0xA0 SHL SUB AND CALLER EQ PUSH2 0x105E JUMPI PUSH1 0x40 MLOAD PUSH3 0x461BCD PUSH1 0xE5 SHL DUP2 MSTORE PUSH1 0x4 ADD PUSH2 0x319 SWAP1 PUSH2 0x1450 JUMP JUMPDEST PUSH1 0x1 PUSH1 0x1 PUSH1 0xA0 SHL SUB DUP2 AND PUSH2 0x10C3 JUMPI PUSH1 0x40 MLOAD PUSH3 0x461BCD PUSH1 0xE5 SHL DUP2 MSTORE PUSH1 0x20 PUSH1 0x4 DUP3 ADD MSTORE PUSH1 0x26 PUSH1 0x24 DUP3 ADD MSTORE PUSH32 0x4F776E61626C653A206E6577206F776E657220697320746865207A65726F2061 PUSH1 0x44 DUP3 ADD MSTORE PUSH6 0x646472657373 PUSH1 0xD0 SHL PUSH1 0x64 DUP3 ADD MSTORE PUSH1 0x84 ADD PUSH2 0x319 JUMP JUMPDEST PUSH2 0x10CC DUP2 PUSH2 0x1126 JUMP JUMPDEST POP JUMP JUMPDEST PUSH1 0x40 DUP1 MLOAD PUSH1 0x1 PUSH1 0x1 PUSH1 0xA0 SHL SUB DUP5 AND PUSH1 0x24 DUP3 ADD MSTORE PUSH1 0x44 DUP1 DUP3 ADD DUP5 SWAP1 MSTORE DUP3 MLOAD DUP1 DUP4 SUB SWAP1 SWAP2 ADD DUP2 MSTORE PUSH1 0x64 SWAP1 SWAP2 ADD SWAP1 SWAP2 MSTORE PUSH1 0x20 DUP2 ADD DUP1 MLOAD PUSH1 0x1 PUSH1 0x1 PUSH1 0xE0 SHL SUB AND PUSH4 0xA9059CBB PUSH1 0xE0 SHL OR SWAP1 MSTORE PUSH2 0x1121 SWAP1 DUP5 SWAP1 PUSH2 0x1176 JUMP JUMPDEST POP POP POP JUMP JUMPDEST PUSH1 0x0 DUP1 SLOAD PUSH1 0x1 PUSH1 0x1 PUSH1 0xA0 SHL SUB DUP4 DUP2 AND PUSH1 0x1 PUSH1 0x1 PUSH1 0xA0 SHL SUB NOT DUP4 AND DUP2 OR DUP5 SSTORE PUSH1 0x40 MLOAD SWAP2 SWAP1 SWAP3 AND SWAP3 DUP4 SWAP2 PUSH32 0x8BE0079C531659141344CD1FD0A4F28419497F9722A3DAAFE3B4186F6B6457E0 SWAP2 SWAP1 LOG3 POP POP JUMP JUMPDEST PUSH1 0x0 PUSH2 0x11CB DUP3 PUSH1 0x40 MLOAD DUP1 PUSH1 0x40 ADD PUSH1 0x40 MSTORE DUP1 PUSH1 0x20 DUP2 MSTORE PUSH1 0x20 ADD PUSH32 0x5361666545524332303A206C6F772D6C6576656C2063616C6C206661696C6564 DUP2 MSTORE POP DUP6 PUSH1 0x1 PUSH1 0x1 PUSH1 0xA0 SHL SUB AND PUSH2 0x1248 SWAP1 SWAP3 SWAP2 SWAP1 PUSH4 0xFFFFFFFF AND JUMP JUMPDEST DUP1 MLOAD SWAP1 SWAP2 POP ISZERO PUSH2 0x1121 JUMPI DUP1 DUP1 PUSH1 0x20 ADD SWAP1 MLOAD DUP2 ADD SWAP1 PUSH2 0x11E9 SWAP2 SWAP1 PUSH2 0x1569 JUMP JUMPDEST PUSH2 0x1121 JUMPI PUSH1 0x40 MLOAD PUSH3 0x461BCD PUSH1 0xE5 SHL DUP2 MSTORE PUSH1 0x20 PUSH1 0x4 DUP3 ADD MSTORE PUSH1 0x2A PUSH1 0x24 DUP3 ADD MSTORE PUSH32 0x5361666545524332303A204552433230206F7065726174696F6E20646964206E PUSH1 0x44 DUP3 ADD MSTORE PUSH10 0x1BDD081CDD58D8D95959 PUSH1 0xB2 SHL PUSH1 0x64 DUP3 ADD MSTORE PUSH1 0x84 ADD PUSH2 0x319 JUMP JUMPDEST PUSH1 0x60 PUSH2 0x1257 DUP5 DUP5 PUSH1 0x0 DUP6 PUSH2 0x1261 JUMP JUMPDEST SWAP1 POP JUMPDEST SWAP4 SWAP3 POP POP POP JUMP JUMPDEST PUSH1 0x60 DUP3 SELFBALANCE LT ISZERO PUSH2 0x12C2 JUMPI PUSH1 0x40 MLOAD PUSH3 0x461BCD PUSH1 0xE5 SHL DUP2 MSTORE PUSH1 0x20 PUSH1 0x4 DUP3 ADD MSTORE PUSH1 0x26 PUSH1 0x24 DUP3 ADD MSTORE PUSH32 0x416464726573733A20696E73756666696369656E742062616C616E636520666F PUSH1 0x44 DUP3 ADD MSTORE PUSH6 0x1C8818D85B1B PUSH1 0xD2 SHL PUSH1 0x64 DUP3 ADD MSTORE PUSH1 0x84 ADD PUSH2 0x319 JUMP JUMPDEST DUP5 EXTCODESIZE PUSH2 0x1310 JUMPI PUSH1 0x40 MLOAD PUSH3 0x461BCD PUSH1 0xE5 SHL DUP2 MSTORE PUSH1 0x20 PUSH1 0x4 DUP3 ADD MSTORE PUSH1 0x1D PUSH1 0x24 DUP3 ADD MSTORE PUSH32 0x416464726573733A2063616C6C20746F206E6F6E2D636F6E7472616374000000 PUSH1 0x44 DUP3 ADD MSTORE PUSH1 0x64 ADD PUSH2 0x319 JUMP JUMPDEST PUSH1 0x0 DUP1 DUP7 PUSH1 0x1 PUSH1 0x1 PUSH1 0xA0 SHL SUB AND DUP6 DUP8 PUSH1 0x40 MLOAD PUSH2 0x132C SWAP2 SWAP1 PUSH2 0x15BB JUMP JUMPDEST PUSH1 0x0 PUSH1 0x40 MLOAD DUP1 DUP4 SUB DUP2 DUP6 DUP8 GAS CALL SWAP3 POP POP POP RETURNDATASIZE DUP1 PUSH1 0x0 DUP2 EQ PUSH2 0x1369 JUMPI PUSH1 0x40 MLOAD SWAP2 POP PUSH1 0x1F NOT PUSH1 0x3F RETURNDATASIZE ADD AND DUP3 ADD PUSH1 0x40 MSTORE RETURNDATASIZE DUP3 MSTORE RETURNDATASIZE PUSH1 0x0 PUSH1 0x20 DUP5 ADD RETURNDATACOPY PUSH2 0x136E JUMP JUMPDEST PUSH1 0x60 SWAP2 POP JUMPDEST POP SWAP2 POP SWAP2 POP PUSH2 0x137E DUP3 DUP3 DUP7 PUSH2 0x1389 JUMP JUMPDEST SWAP8 SWAP7 POP POP POP POP POP POP POP JUMP JUMPDEST PUSH1 0x60 DUP4 ISZERO PUSH2 0x1398 JUMPI POP DUP2 PUSH2 0x125A JUMP JUMPDEST DUP3 MLOAD ISZERO PUSH2 0x13A8 JUMPI DUP3 MLOAD DUP1 DUP5 PUSH1 0x20 ADD REVERT JUMPDEST DUP2 PUSH1 0x40 MLOAD PUSH3 0x461BCD PUSH1 0xE5 SHL DUP2 MSTORE PUSH1 0x4 ADD PUSH2 0x319 SWAP2 SWAP1 PUSH2 0x15D7 JUMP JUMPDEST PUSH1 0x0 PUSH1 0x20 DUP3 DUP5 SUB SLT ISZERO PUSH2 0x13D4 JUMPI PUSH1 0x0 DUP1 REVERT JUMPDEST POP CALLDATALOAD SWAP2 SWAP1 POP JUMP JUMPDEST DUP1 CALLDATALOAD PUSH1 0x1 PUSH1 0x1 PUSH1 0xA0 SHL SUB DUP2 AND DUP2 EQ PUSH2 0xC64 JUMPI PUSH1 0x0 DUP1 REVERT JUMPDEST PUSH1 0x0 DUP1 PUSH1 0x40 DUP4 DUP6 SUB SLT ISZERO PUSH2 0x1405 JUMPI PUSH1 0x0 DUP1 REVERT JUMPDEST PUSH2 0x140E DUP4 PUSH2 0x13DB JUMP JUMPDEST SWAP5 PUSH1 0x20 SWAP4 SWAP1 SWAP4 ADD CALLDATALOAD SWAP4 POP POP POP JUMP JUMPDEST PUSH1 0x0 PUSH1 0x20 DUP3 DUP5 SUB SLT ISZERO PUSH2 0x142E JUMPI PUSH1 0x0 DUP1 REVERT JUMPDEST PUSH2 0x125A DUP3 PUSH2 0x13DB JUMP JUMPDEST PUSH1 0x0 PUSH1 0x20 DUP3 DUP5 SUB SLT ISZERO PUSH2 0x1449 JUMPI PUSH1 0x0 DUP1 REVERT JUMPDEST POP MLOAD SWAP2 SWAP1 POP JUMP JUMPDEST PUSH1 0x20 DUP1 DUP3 MSTORE DUP2 DUP2 ADD MSTORE PUSH32 0x4F776E61626C653A2063616C6C6572206973206E6F7420746865206F776E6572 PUSH1 0x40 DUP3 ADD MSTORE PUSH1 0x60 ADD SWAP1 JUMP JUMPDEST PUSH1 0x20 DUP1 DUP3 MSTORE PUSH1 0x13 SWAP1 DUP3 ADD MSTORE PUSH19 0x56657374696E67206973205374617274656421 PUSH1 0x68 SHL PUSH1 0x40 DUP3 ADD MSTORE PUSH1 0x60 ADD SWAP1 JUMP JUMPDEST PUSH4 0x4E487B71 PUSH1 0xE0 SHL PUSH1 0x0 MSTORE PUSH1 0x32 PUSH1 0x4 MSTORE PUSH1 0x24 PUSH1 0x0 REVERT JUMPDEST PUSH4 0x4E487B71 PUSH1 0xE0 SHL PUSH1 0x0 MSTORE PUSH1 0x11 PUSH1 0x4 MSTORE PUSH1 0x24 PUSH1 0x0 REVERT JUMPDEST PUSH1 0x0 DUP3 NOT DUP3 GT ISZERO PUSH2 0x14F1 JUMPI PUSH2 0x14F1 PUSH2 0x14C8 JUMP JUMPDEST POP ADD SWAP1 JUMP JUMPDEST PUSH1 0x0 PUSH1 0x0 NOT DUP3 EQ ISZERO PUSH2 0x150A JUMPI PUSH2 0x150A PUSH2 0x14C8 JUMP JUMPDEST POP PUSH1 0x1 ADD SWAP1 JUMP JUMPDEST PUSH1 0x0 DUP3 DUP3 LT ISZERO PUSH2 0x1523 JUMPI PUSH2 0x1523 PUSH2 0x14C8 JUMP JUMPDEST POP SUB SWAP1 JUMP JUMPDEST PUSH1 0x0 DUP3 PUSH2 0x1545 JUMPI PUSH4 0x4E487B71 PUSH1 0xE0 SHL PUSH1 0x0 MSTORE PUSH1 0x12 PUSH1 0x4 MSTORE PUSH1 0x24 PUSH1 0x0 REVERT JUMPDEST POP DIV SWAP1 JUMP JUMPDEST PUSH1 0x0 DUP2 PUSH1 0x0 NOT DIV DUP4 GT DUP3 ISZERO ISZERO AND ISZERO PUSH2 0x1564 JUMPI PUSH2 0x1564 PUSH2 0x14C8 JUMP JUMPDEST POP MUL SWAP1 JUMP JUMPDEST PUSH1 0x0 PUSH1 0x20 DUP3 DUP5 SUB SLT ISZERO PUSH2 0x157B JUMPI PUSH1 0x0 DUP1 REVERT JUMPDEST DUP2 MLOAD DUP1 ISZERO ISZERO DUP2 EQ PUSH2 0x125A JUMPI PUSH1 0x0 DUP1 REVERT JUMPDEST PUSH1 0x0 JUMPDEST DUP4 DUP2 LT ISZERO PUSH2 0x15A6 JUMPI DUP2 DUP2 ADD MLOAD DUP4 DUP3 ADD MSTORE PUSH1 0x20 ADD PUSH2 0x158E JUMP JUMPDEST DUP4 DUP2 GT ISZERO PUSH2 0x15B5 JUMPI PUSH1 0x0 DUP5 DUP5 ADD MSTORE JUMPDEST POP POP POP POP JUMP JUMPDEST PUSH1 0x0 DUP3 MLOAD PUSH2 0x15CD DUP2 DUP5 PUSH1 0x20 DUP8 ADD PUSH2 0x158B JUMP JUMPDEST SWAP2 SWAP1 SWAP2 ADD SWAP3 SWAP2 POP POP JUMP JUMPDEST PUSH1 0x20 DUP2 MSTORE PUSH1 0x0 DUP3 MLOAD DUP1 PUSH1 0x20 DUP5 ADD MSTORE PUSH2 0x15F6 DUP2 PUSH1 0x40 DUP6 ADD PUSH1 0x20 DUP8 ADD PUSH2 0x158B JUMP JUMPDEST PUSH1 0x1F ADD PUSH1 0x1F NOT AND SWAP2 SWAP1 SWAP2 ADD PUSH1 0x40 ADD SWAP3 SWAP2 POP POP JUMP INVALID LOG2 PUSH5 0x6970667358 0x22 SLT KECCAK256 0xE PUSH7 0x1082C70D51CC81 POP 0xEC 0xD9 0x4B CALL PUSH13 0x3A3047D3B1FAA6D0A3C9AAA9E1 0xB8 DUP12 DUP2 0x24 PUSH5 0x736F6C6343 STOP ADDMOD EXP STOP CALLER ",
  "sha1": "f37dac500566cad7238d6615c75e7d4425703de1",
  "source": "// SPDX-License-Identifier: MIT\npragma solidity 0.8.10;\n\nimport \"@openzeppelin/contracts/token/ERC20/IERC20.sol\";\nimport \"@openzeppelin/contracts/token/ERC20/utils/SafeERC20.sol\";\nimport \"@openzeppelin/contracts/security/ReentrancyGuard.sol\";\nimport \"@openzeppelin/contracts/access/Ownable.sol\";\n\n/**\n * @title TokenVesting\n */\ncontract AniwarVesting is Ownable, ReentrancyGuard {\n    using SafeERC20 for IERC20;\n    struct VestingSchedule {\n        // Vesting Schedule Id\n        uint256 id;\n        // beneficiary of tokens after they are released\n        address beneficiary;\n        // total amount of tokens to be released at the end of the vesting\n        uint256 totalAmountReleased;\n        // total amount of token has been withdrawn\n        uint256 totalAmountHasBeenWithdrawn;\n    }\n\n    struct Beneficiary {\n        uint256 vestingId;\n        // whether or not the vesting has been init\n        bool initialized;\n    }\n\n    bool public isStarted;\n    uint256 public startTime;\n    uint256 private immutable _splitDuration;\n    uint256 private immutable _splitCounter;\n\n    uint256 public vestingIdCounter;\n    uint256 private _vestingSchedulesTotalAmount;\n    uint256 private _vestingSchedulesTotalAmountLeft;\n\n    // address of the ERC20 token\n    IERC20 private immutable _token;\n\n    VestingSchedule[] public vestingSchedules;\n    address[] private _beneficiariesAddress;\n    mapping(address => Beneficiary) private _beneficiaries;\n\n    event Released(uint256 amount);\n    event Begin();\n\n    modifier onlyIfVestingScheduleStarted() {\n        require(isStarted, \"Vesting is not Started Yet!\");\n        _;\n    }\n    modifier onlyIfVestingScheduleNotStarted() {\n        require(!isStarted, \"Vesting is Started!\");\n        _;\n    }\n\n    constructor(\n        address token_,\n        uint256 splitDuration_,\n        uint256 splitCounter_\n    ) {\n        require(token_ != address(0x0), \"Token address wrong!\");\n        _token = IERC20(token_);\n        _splitDuration = splitDuration_;\n        _splitCounter = splitCounter_;\n    }\n\n    function getToken() public view returns (address) {\n        return address(_token);\n    }\n\n    function createVestingSchedule(address _beneficiary, uint256 _amount)\n        public\n        onlyOwner\n        onlyIfVestingScheduleNotStarted\n    {\n        require(\n            _amount <= _vestingSchedulesTotalAmountLeft,\n            \"TokenVesting: cannot create vesting schedule because not sufficient tokens\"\n        );\n        require(_amount > 0, \"TokenVesting: amount must be > 0\");\n        if (!_beneficiaries[_beneficiary].initialized) {\n            Beneficiary storage beneficiary = _beneficiaries[_beneficiary];\n            beneficiary.vestingId = vestingIdCounter;\n            beneficiary.initialized = true;\n            _beneficiariesAddress.push(_beneficiary);\n            vestingSchedules.push(\n                VestingSchedule(vestingIdCounter, _beneficiary, _amount, 0)\n            );\n            vestingIdCounter++;\n        } else {\n            VestingSchedule storage vestingSchedule = vestingSchedules[\n                _beneficiaries[_beneficiary].vestingId\n            ];\n            vestingSchedule.totalAmountReleased =\n                vestingSchedule.totalAmountReleased +\n                _amount;\n        }\n        _vestingSchedulesTotalAmountLeft =\n            _vestingSchedulesTotalAmountLeft -\n            _amount;\n    }\n\n    function startAllSchedule()\n        public\n        onlyOwner\n        onlyIfVestingScheduleNotStarted\n    {\n        require(\n            _token.balanceOf(address(this)) >= _vestingSchedulesTotalAmount,\n            \"Amount exceeds balance and Init\"\n        );\n        isStarted = true;\n        startTime = getCurrentTime();\n        emit Begin();\n    }\n\n    function setInitTotalAmount(uint256 _amount)\n        public\n        onlyOwner\n        onlyIfVestingScheduleNotStarted\n    {\n        require(_amount > 0, \"Amount must be > 0!\");\n        require(\n            _amount <= _token.balanceOf(address(this)),\n            \"Amount exceeds balance!\"\n        );\n        require(\n            _amount >=\n                _vestingSchedulesTotalAmount - _vestingSchedulesTotalAmountLeft,\n            \"Amount must be bigger than previous assigned!\"\n        );\n        _vestingSchedulesTotalAmountLeft =\n            _amount -\n            (_vestingSchedulesTotalAmount - _vestingSchedulesTotalAmountLeft);\n        _vestingSchedulesTotalAmount = _amount;\n    }\n\n    function release(uint256 _amount) public nonReentrant {\n        VestingSchedule storage vestingSchedule = vestingSchedules[\n            _beneficiaries[address(msg.sender)].vestingId\n        ];\n        bool isBeneficiary = msg.sender == vestingSchedule.beneficiary;\n        bool isOwner = msg.sender == owner();\n        require(\n            isBeneficiary || isOwner,\n            \"TokenVesting: only beneficiary and owner can release vested tokens\"\n        );\n        require(\n            _beneficiaries[address(msg.sender)].initialized,\n            \"Not in Vesting Schedule\"\n        );\n        require(_amount > 0, \"Amount must be > 0\");\n        require(\n            _amount <= calculateWithdrawable(address(msg.sender)),\n            \"Amount withdrawable insufficents!\"\n        );\n        vestingSchedule.totalAmountHasBeenWithdrawn =\n            vestingSchedule.totalAmountHasBeenWithdrawn +\n            _amount;\n        address payable beneficiaryPayable = payable(\n            vestingSchedule.beneficiary\n        );\n        _token.safeTransfer(beneficiaryPayable, _amount);\n        emit Released(_amount);\n    }\n\n    function calculateWithdrawable(address _beneficiary)\n        public\n        view\n        onlyIfVestingScheduleStarted\n        returns (uint256)\n    {\n        Beneficiary memory beneficiary = _beneficiaries[_beneficiary];\n        require(beneficiary.initialized, \"Beneficiary does not exist!\");\n        VestingSchedule memory vestingSchedule = vestingSchedules[\n            beneficiary.vestingId\n        ];\n        uint256 currentTime = getCurrentTime();\n        uint256 currentSplit = (currentTime - startTime) / _splitDuration;\n        if (currentSplit >= _splitCounter) {\n            currentSplit = _splitCounter;\n        }\n        if (currentSplit == 0) {\n            currentSplit = 1;\n        }\n        return\n            ((vestingSchedule.totalAmountReleased / _splitCounter) *\n                currentSplit) - vestingSchedule.totalAmountHasBeenWithdrawn;\n    }\n\n    function withdrawContractBalance(uint256 _amount)\n        public\n        nonReentrant\n        onlyOwner\n    {\n        require(\n            !isStarted || _amount <= _vestingSchedulesTotalAmountLeft,\n            \"Amount exceeds balance and Init\"\n        );\n        _vestingSchedulesTotalAmount = _vestingSchedulesTotalAmount - _amount;\n        _vestingSchedulesTotalAmountLeft =\n            _vestingSchedulesTotalAmountLeft -\n            _amount;\n        _token.safeTransfer(payable(owner()), _amount);\n    }\n\n    function getBalance() public view returns (uint256) {\n        return _token.balanceOf(address(this));\n    }\n\n    function getCurrentTime() public view returns (uint256) {\n        return block.timestamp;\n    }\n}\n",
  "sourcePath": "contracts/AniwarVesting.sol",
  "type": "contract"
}