{
  "abi": [
    {
      "inputs": [
        {
          "internalType": "contract IERC20",
          "name": "_aniToken",
          "type": "address"
        },
        {
          "internalType": "uint256",
          "name": "_apy",
          "type": "uint256"
        },
        {
          "internalType": "uint256",
          "name": "_startTime",
          "type": "uint256"
        }
      ],
      "stateMutability": "nonpayable",
      "type": "constructor"
    },
    {
      "anonymous": false,
      "inputs": [
        {
          "indexed": true,
          "internalType": "address",
          "name": "user",
          "type": "address"
        },
        {
          "indexed": false,
          "internalType": "uint256",
          "name": "amount",
          "type": "uint256"
        }
      ],
      "name": "ClaimReward",
      "type": "event"
    },
    {
      "anonymous": false,
      "inputs": [
        {
          "indexed": true,
          "internalType": "address",
          "name": "user",
          "type": "address"
        },
        {
          "indexed": false,
          "internalType": "uint256",
          "name": "amount",
          "type": "uint256"
        }
      ],
      "name": "EmergencyWithdraw",
      "type": "event"
    },
    {
      "anonymous": false,
      "inputs": [
        {
          "indexed": true,
          "internalType": "address",
          "name": "user",
          "type": "address"
        },
        {
          "indexed": false,
          "internalType": "uint256",
          "name": "amount",
          "type": "uint256"
        }
      ],
      "name": "EnterStaking",
      "type": "event"
    },
    {
      "anonymous": false,
      "inputs": [
        {
          "indexed": true,
          "internalType": "address",
          "name": "user",
          "type": "address"
        },
        {
          "indexed": false,
          "internalType": "uint256",
          "name": "amount",
          "type": "uint256"
        }
      ],
      "name": "LeaveStaking",
      "type": "event"
    },
    {
      "anonymous": false,
      "inputs": [
        {
          "indexed": true,
          "internalType": "address",
          "name": "previousOwner",
          "type": "address"
        },
        {
          "indexed": true,
          "internalType": "address",
          "name": "newOwner",
          "type": "address"
        }
      ],
      "name": "OwnershipTransferred",
      "type": "event"
    },
    {
      "anonymous": false,
      "inputs": [
        {
          "indexed": false,
          "internalType": "address",
          "name": "account",
          "type": "address"
        }
      ],
      "name": "Paused",
      "type": "event"
    },
    {
      "anonymous": false,
      "inputs": [
        {
          "indexed": false,
          "internalType": "address",
          "name": "account",
          "type": "address"
        }
      ],
      "name": "Unpaused",
      "type": "event"
    },
    {
      "inputs": [],
      "name": "BONUS_MULTIPLIER",
      "outputs": [
        {
          "internalType": "uint256",
          "name": "",
          "type": "uint256"
        }
      ],
      "stateMutability": "view",
      "type": "function"
    },
    {
      "inputs": [],
      "name": "PAUSER_ROLE",
      "outputs": [
        {
          "internalType": "bytes32",
          "name": "",
          "type": "bytes32"
        }
      ],
      "stateMutability": "view",
      "type": "function"
    },
    {
      "inputs": [
        {
          "internalType": "uint256",
          "name": "_from",
          "type": "uint256"
        },
        {
          "internalType": "uint256",
          "name": "_to",
          "type": "uint256"
        },
        {
          "internalType": "uint256",
          "name": "_userAmount",
          "type": "uint256"
        }
      ],
      "name": "calculateRewardDebt",
      "outputs": [
        {
          "internalType": "uint256",
          "name": "",
          "type": "uint256"
        }
      ],
      "stateMutability": "view",
      "type": "function"
    },
    {
      "inputs": [],
      "name": "claimReward",
      "outputs": [],
      "stateMutability": "nonpayable",
      "type": "function"
    },
    {
      "inputs": [],
      "name": "emergencyWithdraw",
      "outputs": [],
      "stateMutability": "nonpayable",
      "type": "function"
    },
    {
      "inputs": [
        {
          "internalType": "uint256",
          "name": "_amount",
          "type": "uint256"
        }
      ],
      "name": "enterStaking",
      "outputs": [],
      "stateMutability": "nonpayable",
      "type": "function"
    },
    {
      "inputs": [],
      "name": "getCurrentTime",
      "outputs": [
        {
          "internalType": "uint256",
          "name": "",
          "type": "uint256"
        }
      ],
      "stateMutability": "view",
      "type": "function"
    },
    {
      "inputs": [
        {
          "internalType": "uint256",
          "name": "_amount",
          "type": "uint256"
        }
      ],
      "name": "leaveStaking",
      "outputs": [],
      "stateMutability": "nonpayable",
      "type": "function"
    },
    {
      "inputs": [],
      "name": "owner",
      "outputs": [
        {
          "internalType": "address",
          "name": "",
          "type": "address"
        }
      ],
      "stateMutability": "view",
      "type": "function"
    },
    {
      "inputs": [],
      "name": "pause",
      "outputs": [],
      "stateMutability": "nonpayable",
      "type": "function"
    },
    {
      "inputs": [],
      "name": "paused",
      "outputs": [
        {
          "internalType": "bool",
          "name": "",
          "type": "bool"
        }
      ],
      "stateMutability": "view",
      "type": "function"
    },
    {
      "inputs": [],
      "name": "poolInfo",
      "outputs": [
        {
          "internalType": "contract IERC20",
          "name": "lpToken",
          "type": "address"
        },
        {
          "internalType": "uint256",
          "name": "apy",
          "type": "uint256"
        },
        {
          "internalType": "uint256",
          "name": "startTime",
          "type": "uint256"
        },
        {
          "internalType": "uint256",
          "name": "endTime",
          "type": "uint256"
        }
      ],
      "stateMutability": "view",
      "type": "function"
    },
    {
      "inputs": [],
      "name": "renounceOwnership",
      "outputs": [],
      "stateMutability": "nonpayable",
      "type": "function"
    },
    {
      "inputs": [
        {
          "internalType": "address",
          "name": "_to",
          "type": "address"
        },
        {
          "internalType": "uint256",
          "name": "_amount",
          "type": "uint256"
        }
      ],
      "name": "safeAniTransfer",
      "outputs": [],
      "stateMutability": "nonpayable",
      "type": "function"
    },
    {
      "inputs": [
        {
          "internalType": "uint256",
          "name": "_apy",
          "type": "uint256"
        }
      ],
      "name": "setApy",
      "outputs": [],
      "stateMutability": "nonpayable",
      "type": "function"
    },
    {
      "inputs": [
        {
          "internalType": "uint256",
          "name": "_endTime",
          "type": "uint256"
        }
      ],
      "name": "setEndTime",
      "outputs": [],
      "stateMutability": "nonpayable",
      "type": "function"
    },
    {
      "inputs": [
        {
          "internalType": "address",
          "name": "newOwner",
          "type": "address"
        }
      ],
      "name": "transferOwnership",
      "outputs": [],
      "stateMutability": "nonpayable",
      "type": "function"
    },
    {
      "inputs": [],
      "name": "unpause",
      "outputs": [],
      "stateMutability": "nonpayable",
      "type": "function"
    },
    {
      "inputs": [
        {
          "internalType": "uint256",
          "name": "multiplierNumber",
          "type": "uint256"
        }
      ],
      "name": "updateMultiplier",
      "outputs": [],
      "stateMutability": "nonpayable",
      "type": "function"
    },
    {
      "inputs": [
        {
          "internalType": "address",
          "name": "_userAddress",
          "type": "address"
        }
      ],
      "name": "updateUser",
      "outputs": [],
      "stateMutability": "nonpayable",
      "type": "function"
    },
    {
      "inputs": [
        {
          "internalType": "address",
          "name": "",
          "type": "address"
        }
      ],
      "name": "userInfo",
      "outputs": [
        {
          "internalType": "uint256",
          "name": "timeLastStaked",
          "type": "uint256"
        },
        {
          "internalType": "uint256",
          "name": "amount",
          "type": "uint256"
        },
        {
          "internalType": "uint256",
          "name": "rewardDebt",
          "type": "uint256"
        }
      ],
      "stateMutability": "view",
      "type": "function"
    }
  ],
  "bytecode": "608060405260016002553480156200001657600080fd5b506040516200144a3803806200144a833981016040819052620000399162000130565b6200004433620000e0565b6000805460ff60a01b191681556001805562000061824262000175565b90506040518060800160405280856001600160a01b03168152602001848152602001828152602001826301e1853e6200009b919062000175565b90528051600380546001600160a01b0319166001600160a01b039092169190911790556020810151600455604081015160055560600151600655506200019c92505050565b600080546001600160a01b038381166001600160a01b0319831681178455604051919092169283917f8be0079c531659141344cd1fd0a4f28419497f9722a3daafe3b4186f6b6457e09190a35050565b6000806000606084860312156200014657600080fd5b83516001600160a01b03811681146200015e57600080fd5b602085015160409095015190969495509392505050565b600082198211156200019757634e487b7160e01b600052601160045260246000fd5b500190565b61129e80620001ac6000396000f3fe608060405234801561001057600080fd5b50600436106101375760003560e01c8063715018a6116100b8578063b88a802f1161007c578063b88a802f146102b1578063ccb98ffc146102b9578063db2e21bc146102cc578063e63ab1e9146102d4578063ed03b336146102fb578063f2fde38b1461030e57600080fd5b8063715018a61461026a5780638456cb59146102725780638502b5ca1461027a5780638aa285501461028d5780638da5cb5b1461029657600080fd5b806341441d3b116100ff57806341441d3b146101cb5780635a2f3d09146101de5780635c975abb146102275780635ffe6146146102445780636780d2db1461025757600080fd5b80631058d2811461013c5780631959a0021461015157806329cb924d146101a05780633b3f5e36146101b05780633f4ba83a146101c3575b600080fd5b61014f61014a366004610ff0565b610321565b005b61018061015f366004611025565b60076020526000908152604090208054600182015460029092015490919083565b604080519384526020840192909252908201526060015b60405180910390f35b425b604051908152602001610197565b61014f6101be366004610ff0565b61044e565b61014f61047d565b61014f6101d9366004610ff0565b6104b1565b6003546004546005546006546101fd936001600160a01b031692919084565b604080516001600160a01b0390951685526020850193909352918301526060820152608001610197565b600054600160a01b900460ff166040519015158152602001610197565b61014f610252366004610ff0565b610664565b6101a2610265366004611040565b610693565b61014f610716565b61014f61074a565b61014f61028836600461106c565b61077c565b6101a260025481565b6000546040516001600160a01b039091168152602001610197565b61014f6108d9565b61014f6102c7366004610ff0565b6109f1565b61014f610a2c565b6101a27f65d7a28e3265b37a6474929f336521b332c1681b933f6cb9f3376673440d862a81565b61014f610309366004611025565b610acd565b61014f61031c366004611025565b610b1e565b600054600160a01b900460ff16156103545760405162461bcd60e51b815260040161034b90611096565b60405180910390fd5b600260015414156103775760405162461bcd60e51b815260040161034b906110c0565b6002600155600361038733610acd565b33600090815260076020526040902060018101548311156103df5760405162461bcd60e51b81526020600482015260126024820152711dda5d1a191c985dce881b9bdd0819dbdbd960721b604482015260640161034b565b8215610410578281600101546103f5919061110d565b60018201558154610410906001600160a01b03163385610bb9565b60405183815233907fbeeac20c93f16ecc5d2707dffeb3263a7f99053ac0aa548803e9e8b5a00074389060200160405180910390a250506001805550565b6000546001600160a01b031633146104785760405162461bcd60e51b815260040161034b90611124565b600455565b6000546001600160a01b031633146104a75760405162461bcd60e51b815260040161034b90611124565b6104af610c1c565b565b600260015414156104d45760405162461bcd60e51b815260040161034b906110c0565b600260015542600654116105215760405162461bcd60e51b8152602060048201526014602482015273151a5b594e8811985c9b481a185cc8195b99195960621b604482015260640161034b565b600354604051636eb1769f60e11b815233600482015230602482015282916001600160a01b03169063dd62ed3e90604401602060405180830381865afa15801561056f573d6000803e3d6000fd5b505050506040513d601f19601f820116820180604052508101906105939190611159565b10156105e15760405162461bcd60e51b815260206004820152601f60248201527f416c6c6f77616e63653a204e6f7420656e6f75676820416c6c6f77616e636500604482015260640161034b565b33600090815260076020526040902081156106245760035461060e906001600160a01b0316333085610cb9565b81816001015461061e9190611172565b60018201555b42815560405182815233907ff4202ce22960ada59aa4bb9f0e324d8f77576be8352767dfc0aca182a4bf8e459060200160405180910390a2505060018055565b6000546001600160a01b0316331461068e5760405162461bcd60e51b815260040161034b90611124565b600255565b60008060025485856106a5919061110d565b6106af919061118a565b905060006106c062015180836111a9565b9050600061016d6003600101546103e86106da919061118a565b6106e491906111a9565b9050620f4240816106f5848861118a565b6106ff919061118a565b61070991906111a9565b93505050505b9392505050565b6000546001600160a01b031633146107405760405162461bcd60e51b815260040161034b90611124565b6104af6000610cf1565b6000546001600160a01b031633146107745760405162461bcd60e51b815260040161034b90611124565b6104af610d41565b6000546001600160a01b031633146107a65760405162461bcd60e51b815260040161034b90611124565b6003546040516370a0823160e01b81523060048201526000916001600160a01b0316906370a0823190602401602060405180830381865afa1580156107ef573d6000803e3d6000fd5b505050506040513d601f19601f820116820180604052508101906108139190611159565b90508082111561089b5760035460405163a9059cbb60e01b81526001600160a01b038581166004830152602482018490529091169063a9059cbb906044015b6020604051808303816000875af1158015610871573d6000803e3d6000fd5b505050506040513d601f19601f8201168201806040525081019061089591906111cb565b50505050565b60035460405163a9059cbb60e01b81526001600160a01b038581166004830152602482018590529091169063a9059cbb90604401610852565b505050565b600054600160a01b900460ff16156109035760405162461bcd60e51b815260040161034b90611096565b600260015414156109265760405162461bcd60e51b815260040161034b906110c0565b600260015561093433610acd565b336000908152600760205260409020600281015461098a5760405162461bcd60e51b815260206004820152601360248201527252657761726420416d6f756e743a207775743f60681b604482015260640161034b565b60028101546003546109a9916001600160a01b03909116903390610bb9565b600281015460405190815233907fba8de60c3403ec381d1d484652ea1980e3c3e56359195c92525bff4ce47ad98e9060200160405180910390a2600060029091015560018055565b6000546001600160a01b03163314610a1b5760405162461bcd60e51b815260040161034b90611124565b428111610a2757600080fd5b600655565b600054600160a01b900460ff1615610a565760405162461bcd60e51b815260040161034b90611096565b33600081815260076020526040902060018101546003549192610a82926001600160a01b031691610bb9565b600181015460405190815233907f5fafa99d0643513820be26656b45130b01e1c03062e1266bf36f88cbd3bd96959060200160405180910390a2600060018201819055600290910155565b6006544210610ad95750565b6001600160a01b03811660009081526007602052604090208054610b0290428360010154610693565b816002016000828254610b159190611172565b90915550505050565b6000546001600160a01b03163314610b485760405162461bcd60e51b815260040161034b90611124565b6001600160a01b038116610bad5760405162461bcd60e51b815260206004820152602660248201527f4f776e61626c653a206e6577206f776e657220697320746865207a65726f206160448201526564647265737360d01b606482015260840161034b565b610bb681610cf1565b50565b6040516001600160a01b0383166024820152604481018290526108d490849063a9059cbb60e01b906064015b60408051601f198184030181529190526020810180516001600160e01b03166001600160e01b031990931692909217909152610da6565b600054600160a01b900460ff16610c6c5760405162461bcd60e51b815260206004820152601460248201527314185d5cd8589b194e881b9bdd081c185d5cd95960621b604482015260640161034b565b6000805460ff60a01b191690557f5db9ee0a495bf2e6ff9c91a7834c1ba4fdd244a5e8aa4e537bd38aeae4b073aa335b6040516001600160a01b03909116815260200160405180910390a1565b6040516001600160a01b03808516602483015283166044820152606481018290526108959085906323b872dd60e01b90608401610be5565b600080546001600160a01b038381166001600160a01b0319831681178455604051919092169283917f8be0079c531659141344cd1fd0a4f28419497f9722a3daafe3b4186f6b6457e09190a35050565b600054600160a01b900460ff1615610d6b5760405162461bcd60e51b815260040161034b90611096565b6000805460ff60a01b1916600160a01b1790557f62e78cea01bee320cd4e420270b5ea74000d11b0c9f74754ebdbfc544b05a258610c9c3390565b6000610dfb826040518060400160405280602081526020017f5361666545524332303a206c6f772d6c6576656c2063616c6c206661696c6564815250856001600160a01b0316610e789092919063ffffffff16565b8051909150156108d45780806020019051810190610e1991906111cb565b6108d45760405162461bcd60e51b815260206004820152602a60248201527f5361666545524332303a204552433230206f7065726174696f6e20646964206e6044820152691bdd081cdd58d8d9595960b21b606482015260840161034b565b6060610e878484600085610e8f565b949350505050565b606082471015610ef05760405162461bcd60e51b815260206004820152602660248201527f416464726573733a20696e73756666696369656e742062616c616e636520666f6044820152651c8818d85b1b60d21b606482015260840161034b565b843b610f3e5760405162461bcd60e51b815260206004820152601d60248201527f416464726573733a2063616c6c20746f206e6f6e2d636f6e7472616374000000604482015260640161034b565b600080866001600160a01b03168587604051610f5a9190611219565b60006040518083038185875af1925050503d8060008114610f97576040519150601f19603f3d011682016040523d82523d6000602084013e610f9c565b606091505b5091509150610fac828286610fb7565b979650505050505050565b60608315610fc657508161070f565b825115610fd65782518084602001fd5b8160405162461bcd60e51b815260040161034b9190611235565b60006020828403121561100257600080fd5b5035919050565b80356001600160a01b038116811461102057600080fd5b919050565b60006020828403121561103757600080fd5b61070f82611009565b60008060006060848603121561105557600080fd5b505081359360208301359350604090920135919050565b6000806040838503121561107f57600080fd5b61108883611009565b946020939093013593505050565b60208082526010908201526f14185d5cd8589b194e881c185d5cd95960821b604082015260600190565b6020808252601f908201527f5265656e7472616e637947756172643a207265656e7472616e742063616c6c00604082015260600190565b634e487b7160e01b600052601160045260246000fd5b60008282101561111f5761111f6110f7565b500390565b6020808252818101527f4f776e61626c653a2063616c6c6572206973206e6f7420746865206f776e6572604082015260600190565b60006020828403121561116b57600080fd5b5051919050565b60008219821115611185576111856110f7565b500190565b60008160001904831182151516156111a4576111a46110f7565b500290565b6000826111c657634e487b7160e01b600052601260045260246000fd5b500490565b6000602082840312156111dd57600080fd5b8151801515811461070f57600080fd5b60005b838110156112085781810151838201526020016111f0565b838111156108955750506000910152565b6000825161122b8184602087016111ed565b9190910192915050565b60208152600082518060208401526112548160408501602087016111ed565b601f01601f1916919091016040019291505056fea2646970667358221220069701ccb884b3fcd5ea23bebcd01f4026f908b4e53e858bc6cdd356ac38384264736f6c634300080b0033",
  "bytecodeSha1": "b9a63deef241073fde6b7156cc98d10d46648846",
  "compiler": {
    "evm_version": "istanbul",
    "optimizer": {
      "enabled": true,
      "runs": 200
    },
    "version": "0.8.11+commit.d7f03943"
  },
  "contractName": "AniwarPool",
  "language": "Solidity",
  "natspec": {
    "kind": "dev",
    "methods": {
      "owner()": {
        "details": "Returns the address of the current owner."
      },
      "paused()": {
        "details": "Returns true if the contract is paused, and false otherwise."
      },
      "renounceOwnership()": {
        "details": "Leaves the contract without owner. It will not be possible to call `onlyOwner` functions anymore. Can only be called by the current owner. NOTE: Renouncing ownership will leave the contract without an owner, thereby removing any functionality that is only available to the owner."
      },
      "transferOwnership(address)": {
        "details": "Transfers ownership of the contract to a new account (`newOwner`). Can only be called by the current owner."
      }
    },
    "version": 1
  },
  "opcodes": "PUSH1 0x80 PUSH1 0x40 MSTORE CALLVALUE DUP1 ISZERO PUSH2 0x10 JUMPI PUSH1 0x0 DUP1 REVERT JUMPDEST POP PUSH1 0x4 CALLDATASIZE LT PUSH2 0x137 JUMPI PUSH1 0x0 CALLDATALOAD PUSH1 0xE0 SHR DUP1 PUSH4 0x715018A6 GT PUSH2 0xB8 JUMPI DUP1 PUSH4 0xB88A802F GT PUSH2 0x7C JUMPI DUP1 PUSH4 0xB88A802F EQ PUSH2 0x2B1 JUMPI DUP1 PUSH4 0xCCB98FFC EQ PUSH2 0x2B9 JUMPI DUP1 PUSH4 0xDB2E21BC EQ PUSH2 0x2CC JUMPI DUP1 PUSH4 0xE63AB1E9 EQ PUSH2 0x2D4 JUMPI DUP1 PUSH4 0xED03B336 EQ PUSH2 0x2FB JUMPI DUP1 PUSH4 0xF2FDE38B EQ PUSH2 0x30E JUMPI PUSH1 0x0 DUP1 REVERT JUMPDEST DUP1 PUSH4 0x715018A6 EQ PUSH2 0x26A JUMPI DUP1 PUSH4 0x8456CB59 EQ PUSH2 0x272 JUMPI DUP1 PUSH4 0x8502B5CA EQ PUSH2 0x27A JUMPI DUP1 PUSH4 0x8AA28550 EQ PUSH2 0x28D JUMPI DUP1 PUSH4 0x8DA5CB5B EQ PUSH2 0x296 JUMPI PUSH1 0x0 DUP1 REVERT JUMPDEST DUP1 PUSH4 0x41441D3B GT PUSH2 0xFF JUMPI DUP1 PUSH4 0x41441D3B EQ PUSH2 0x1CB JUMPI DUP1 PUSH4 0x5A2F3D09 EQ PUSH2 0x1DE JUMPI DUP1 PUSH4 0x5C975ABB EQ PUSH2 0x227 JUMPI DUP1 PUSH4 0x5FFE6146 EQ PUSH2 0x244 JUMPI DUP1 PUSH4 0x6780D2DB EQ PUSH2 0x257 JUMPI PUSH1 0x0 DUP1 REVERT JUMPDEST DUP1 PUSH4 0x1058D281 EQ PUSH2 0x13C JUMPI DUP1 PUSH4 0x1959A002 EQ PUSH2 0x151 JUMPI DUP1 PUSH4 0x29CB924D EQ PUSH2 0x1A0 JUMPI DUP1 PUSH4 0x3B3F5E36 EQ PUSH2 0x1B0 JUMPI DUP1 PUSH4 0x3F4BA83A EQ PUSH2 0x1C3 JUMPI JUMPDEST PUSH1 0x0 DUP1 REVERT JUMPDEST PUSH2 0x14F PUSH2 0x14A CALLDATASIZE PUSH1 0x4 PUSH2 0xFF0 JUMP JUMPDEST PUSH2 0x321 JUMP JUMPDEST STOP JUMPDEST PUSH2 0x180 PUSH2 0x15F CALLDATASIZE PUSH1 0x4 PUSH2 0x1025 JUMP JUMPDEST PUSH1 0x7 PUSH1 0x20 MSTORE PUSH1 0x0 SWAP1 DUP2 MSTORE PUSH1 0x40 SWAP1 KECCAK256 DUP1 SLOAD PUSH1 0x1 DUP3 ADD SLOAD PUSH1 0x2 SWAP1 SWAP3 ADD SLOAD SWAP1 SWAP2 SWAP1 DUP4 JUMP JUMPDEST PUSH1 0x40 DUP1 MLOAD SWAP4 DUP5 MSTORE PUSH1 0x20 DUP5 ADD SWAP3 SWAP1 SWAP3 MSTORE SWAP1 DUP3 ADD MSTORE PUSH1 0x60 ADD JUMPDEST PUSH1 0x40 MLOAD DUP1 SWAP2 SUB SWAP1 RETURN JUMPDEST TIMESTAMP JUMPDEST PUSH1 0x40 MLOAD SWAP1 DUP2 MSTORE PUSH1 0x20 ADD PUSH2 0x197 JUMP JUMPDEST PUSH2 0x14F PUSH2 0x1BE CALLDATASIZE PUSH1 0x4 PUSH2 0xFF0 JUMP JUMPDEST PUSH2 0x44E JUMP JUMPDEST PUSH2 0x14F PUSH2 0x47D JUMP JUMPDEST PUSH2 0x14F PUSH2 0x1D9 CALLDATASIZE PUSH1 0x4 PUSH2 0xFF0 JUMP JUMPDEST PUSH2 0x4B1 JUMP JUMPDEST PUSH1 0x3 SLOAD PUSH1 0x4 SLOAD PUSH1 0x5 SLOAD PUSH1 0x6 SLOAD PUSH2 0x1FD SWAP4 PUSH1 0x1 PUSH1 0x1 PUSH1 0xA0 SHL SUB AND SWAP3 SWAP2 SWAP1 DUP5 JUMP JUMPDEST PUSH1 0x40 DUP1 MLOAD PUSH1 0x1 PUSH1 0x1 PUSH1 0xA0 SHL SUB SWAP1 SWAP6 AND DUP6 MSTORE PUSH1 0x20 DUP6 ADD SWAP4 SWAP1 SWAP4 MSTORE SWAP2 DUP4 ADD MSTORE PUSH1 0x60 DUP3 ADD MSTORE PUSH1 0x80 ADD PUSH2 0x197 JUMP JUMPDEST PUSH1 0x0 SLOAD PUSH1 0x1 PUSH1 0xA0 SHL SWAP1 DIV PUSH1 0xFF AND PUSH1 0x40 MLOAD SWAP1 ISZERO ISZERO DUP2 MSTORE PUSH1 0x20 ADD PUSH2 0x197 JUMP JUMPDEST PUSH2 0x14F PUSH2 0x252 CALLDATASIZE PUSH1 0x4 PUSH2 0xFF0 JUMP JUMPDEST PUSH2 0x664 JUMP JUMPDEST PUSH2 0x1A2 PUSH2 0x265 CALLDATASIZE PUSH1 0x4 PUSH2 0x1040 JUMP JUMPDEST PUSH2 0x693 JUMP JUMPDEST PUSH2 0x14F PUSH2 0x716 JUMP JUMPDEST PUSH2 0x14F PUSH2 0x74A JUMP JUMPDEST PUSH2 0x14F PUSH2 0x288 CALLDATASIZE PUSH1 0x4 PUSH2 0x106C JUMP JUMPDEST PUSH2 0x77C JUMP JUMPDEST PUSH2 0x1A2 PUSH1 0x2 SLOAD DUP2 JUMP JUMPDEST PUSH1 0x0 SLOAD PUSH1 0x40 MLOAD PUSH1 0x1 PUSH1 0x1 PUSH1 0xA0 SHL SUB SWAP1 SWAP2 AND DUP2 MSTORE PUSH1 0x20 ADD PUSH2 0x197 JUMP JUMPDEST PUSH2 0x14F PUSH2 0x8D9 JUMP JUMPDEST PUSH2 0x14F PUSH2 0x2C7 CALLDATASIZE PUSH1 0x4 PUSH2 0xFF0 JUMP JUMPDEST PUSH2 0x9F1 JUMP JUMPDEST PUSH2 0x14F PUSH2 0xA2C JUMP JUMPDEST PUSH2 0x1A2 PUSH32 0x65D7A28E3265B37A6474929F336521B332C1681B933F6CB9F3376673440D862A DUP2 JUMP JUMPDEST PUSH2 0x14F PUSH2 0x309 CALLDATASIZE PUSH1 0x4 PUSH2 0x1025 JUMP JUMPDEST PUSH2 0xACD JUMP JUMPDEST PUSH2 0x14F PUSH2 0x31C CALLDATASIZE PUSH1 0x4 PUSH2 0x1025 JUMP JUMPDEST PUSH2 0xB1E JUMP JUMPDEST PUSH1 0x0 SLOAD PUSH1 0x1 PUSH1 0xA0 SHL SWAP1 DIV PUSH1 0xFF AND ISZERO PUSH2 0x354 JUMPI PUSH1 0x40 MLOAD PUSH3 0x461BCD PUSH1 0xE5 SHL DUP2 MSTORE PUSH1 0x4 ADD PUSH2 0x34B SWAP1 PUSH2 0x1096 JUMP JUMPDEST PUSH1 0x40 MLOAD DUP1 SWAP2 SUB SWAP1 REVERT JUMPDEST PUSH1 0x2 PUSH1 0x1 SLOAD EQ ISZERO PUSH2 0x377 JUMPI PUSH1 0x40 MLOAD PUSH3 0x461BCD PUSH1 0xE5 SHL DUP2 MSTORE PUSH1 0x4 ADD PUSH2 0x34B SWAP1 PUSH2 0x10C0 JUMP JUMPDEST PUSH1 0x2 PUSH1 0x1 SSTORE PUSH1 0x3 PUSH2 0x387 CALLER PUSH2 0xACD JUMP JUMPDEST CALLER PUSH1 0x0 SWAP1 DUP2 MSTORE PUSH1 0x7 PUSH1 0x20 MSTORE PUSH1 0x40 SWAP1 KECCAK256 PUSH1 0x1 DUP2 ADD SLOAD DUP4 GT ISZERO PUSH2 0x3DF JUMPI PUSH1 0x40 MLOAD PUSH3 0x461BCD PUSH1 0xE5 SHL DUP2 MSTORE PUSH1 0x20 PUSH1 0x4 DUP3 ADD MSTORE PUSH1 0x12 PUSH1 0x24 DUP3 ADD MSTORE PUSH18 0x1DDA5D1A191C985DCE881B9BDD0819DBDBD9 PUSH1 0x72 SHL PUSH1 0x44 DUP3 ADD MSTORE PUSH1 0x64 ADD PUSH2 0x34B JUMP JUMPDEST DUP3 ISZERO PUSH2 0x410 JUMPI DUP3 DUP2 PUSH1 0x1 ADD SLOAD PUSH2 0x3F5 SWAP2 SWAP1 PUSH2 0x110D JUMP JUMPDEST PUSH1 0x1 DUP3 ADD SSTORE DUP2 SLOAD PUSH2 0x410 SWAP1 PUSH1 0x1 PUSH1 0x1 PUSH1 0xA0 SHL SUB AND CALLER DUP6 PUSH2 0xBB9 JUMP JUMPDEST PUSH1 0x40 MLOAD DUP4 DUP2 MSTORE CALLER SWAP1 PUSH32 0xBEEAC20C93F16ECC5D2707DFFEB3263A7F99053AC0AA548803E9E8B5A0007438 SWAP1 PUSH1 0x20 ADD PUSH1 0x40 MLOAD DUP1 SWAP2 SUB SWAP1 LOG2 POP POP PUSH1 0x1 DUP1 SSTORE POP JUMP JUMPDEST PUSH1 0x0 SLOAD PUSH1 0x1 PUSH1 0x1 PUSH1 0xA0 SHL SUB AND CALLER EQ PUSH2 0x478 JUMPI PUSH1 0x40 MLOAD PUSH3 0x461BCD PUSH1 0xE5 SHL DUP2 MSTORE PUSH1 0x4 ADD PUSH2 0x34B SWAP1 PUSH2 0x1124 JUMP JUMPDEST PUSH1 0x4 SSTORE JUMP JUMPDEST PUSH1 0x0 SLOAD PUSH1 0x1 PUSH1 0x1 PUSH1 0xA0 SHL SUB AND CALLER EQ PUSH2 0x4A7 JUMPI PUSH1 0x40 MLOAD PUSH3 0x461BCD PUSH1 0xE5 SHL DUP2 MSTORE PUSH1 0x4 ADD PUSH2 0x34B SWAP1 PUSH2 0x1124 JUMP JUMPDEST PUSH2 0x4AF PUSH2 0xC1C JUMP JUMPDEST JUMP JUMPDEST PUSH1 0x2 PUSH1 0x1 SLOAD EQ ISZERO PUSH2 0x4D4 JUMPI PUSH1 0x40 MLOAD PUSH3 0x461BCD PUSH1 0xE5 SHL DUP2 MSTORE PUSH1 0x4 ADD PUSH2 0x34B SWAP1 PUSH2 0x10C0 JUMP JUMPDEST PUSH1 0x2 PUSH1 0x1 SSTORE TIMESTAMP PUSH1 0x6 SLOAD GT PUSH2 0x521 JUMPI PUSH1 0x40 MLOAD PUSH3 0x461BCD PUSH1 0xE5 SHL DUP2 MSTORE PUSH1 0x20 PUSH1 0x4 DUP3 ADD MSTORE PUSH1 0x14 PUSH1 0x24 DUP3 ADD MSTORE PUSH20 0x151A5B594E8811985C9B481A185CC8195B991959 PUSH1 0x62 SHL PUSH1 0x44 DUP3 ADD MSTORE PUSH1 0x64 ADD PUSH2 0x34B JUMP JUMPDEST PUSH1 0x3 SLOAD PUSH1 0x40 MLOAD PUSH4 0x6EB1769F PUSH1 0xE1 SHL DUP2 MSTORE CALLER PUSH1 0x4 DUP3 ADD MSTORE ADDRESS PUSH1 0x24 DUP3 ADD MSTORE DUP3 SWAP2 PUSH1 0x1 PUSH1 0x1 PUSH1 0xA0 SHL SUB AND SWAP1 PUSH4 0xDD62ED3E SWAP1 PUSH1 0x44 ADD PUSH1 0x20 PUSH1 0x40 MLOAD DUP1 DUP4 SUB DUP2 DUP7 GAS STATICCALL ISZERO DUP1 ISZERO PUSH2 0x56F JUMPI RETURNDATASIZE PUSH1 0x0 DUP1 RETURNDATACOPY RETURNDATASIZE PUSH1 0x0 REVERT JUMPDEST POP POP POP POP PUSH1 0x40 MLOAD RETURNDATASIZE PUSH1 0x1F NOT PUSH1 0x1F DUP3 ADD AND DUP3 ADD DUP1 PUSH1 0x40 MSTORE POP DUP2 ADD SWAP1 PUSH2 0x593 SWAP2 SWAP1 PUSH2 0x1159 JUMP JUMPDEST LT ISZERO PUSH2 0x5E1 JUMPI PUSH1 0x40 MLOAD PUSH3 0x461BCD PUSH1 0xE5 SHL DUP2 MSTORE PUSH1 0x20 PUSH1 0x4 DUP3 ADD MSTORE PUSH1 0x1F PUSH1 0x24 DUP3 ADD MSTORE PUSH32 0x416C6C6F77616E63653A204E6F7420656E6F75676820416C6C6F77616E636500 PUSH1 0x44 DUP3 ADD MSTORE PUSH1 0x64 ADD PUSH2 0x34B JUMP JUMPDEST CALLER PUSH1 0x0 SWAP1 DUP2 MSTORE PUSH1 0x7 PUSH1 0x20 MSTORE PUSH1 0x40 SWAP1 KECCAK256 DUP2 ISZERO PUSH2 0x624 JUMPI PUSH1 0x3 SLOAD PUSH2 0x60E SWAP1 PUSH1 0x1 PUSH1 0x1 PUSH1 0xA0 SHL SUB AND CALLER ADDRESS DUP6 PUSH2 0xCB9 JUMP JUMPDEST DUP2 DUP2 PUSH1 0x1 ADD SLOAD PUSH2 0x61E SWAP2 SWAP1 PUSH2 0x1172 JUMP JUMPDEST PUSH1 0x1 DUP3 ADD SSTORE JUMPDEST TIMESTAMP DUP2 SSTORE PUSH1 0x40 MLOAD DUP3 DUP2 MSTORE CALLER SWAP1 PUSH32 0xF4202CE22960ADA59AA4BB9F0E324D8F77576BE8352767DFC0ACA182A4BF8E45 SWAP1 PUSH1 0x20 ADD PUSH1 0x40 MLOAD DUP1 SWAP2 SUB SWAP1 LOG2 POP POP PUSH1 0x1 DUP1 SSTORE JUMP JUMPDEST PUSH1 0x0 SLOAD PUSH1 0x1 PUSH1 0x1 PUSH1 0xA0 SHL SUB AND CALLER EQ PUSH2 0x68E JUMPI PUSH1 0x40 MLOAD PUSH3 0x461BCD PUSH1 0xE5 SHL DUP2 MSTORE PUSH1 0x4 ADD PUSH2 0x34B SWAP1 PUSH2 0x1124 JUMP JUMPDEST PUSH1 0x2 SSTORE JUMP JUMPDEST PUSH1 0x0 DUP1 PUSH1 0x2 SLOAD DUP6 DUP6 PUSH2 0x6A5 SWAP2 SWAP1 PUSH2 0x110D JUMP JUMPDEST PUSH2 0x6AF SWAP2 SWAP1 PUSH2 0x118A JUMP JUMPDEST SWAP1 POP PUSH1 0x0 PUSH2 0x6C0 PUSH3 0x15180 DUP4 PUSH2 0x11A9 JUMP JUMPDEST SWAP1 POP PUSH1 0x0 PUSH2 0x16D PUSH1 0x3 PUSH1 0x1 ADD SLOAD PUSH2 0x3E8 PUSH2 0x6DA SWAP2 SWAP1 PUSH2 0x118A JUMP JUMPDEST PUSH2 0x6E4 SWAP2 SWAP1 PUSH2 0x11A9 JUMP JUMPDEST SWAP1 POP PUSH3 0xF4240 DUP2 PUSH2 0x6F5 DUP5 DUP9 PUSH2 0x118A JUMP JUMPDEST PUSH2 0x6FF SWAP2 SWAP1 PUSH2 0x118A JUMP JUMPDEST PUSH2 0x709 SWAP2 SWAP1 PUSH2 0x11A9 JUMP JUMPDEST SWAP4 POP POP POP POP JUMPDEST SWAP4 SWAP3 POP POP POP JUMP JUMPDEST PUSH1 0x0 SLOAD PUSH1 0x1 PUSH1 0x1 PUSH1 0xA0 SHL SUB AND CALLER EQ PUSH2 0x740 JUMPI PUSH1 0x40 MLOAD PUSH3 0x461BCD PUSH1 0xE5 SHL DUP2 MSTORE PUSH1 0x4 ADD PUSH2 0x34B SWAP1 PUSH2 0x1124 JUMP JUMPDEST PUSH2 0x4AF PUSH1 0x0 PUSH2 0xCF1 JUMP JUMPDEST PUSH1 0x0 SLOAD PUSH1 0x1 PUSH1 0x1 PUSH1 0xA0 SHL SUB AND CALLER EQ PUSH2 0x774 JUMPI PUSH1 0x40 MLOAD PUSH3 0x461BCD PUSH1 0xE5 SHL DUP2 MSTORE PUSH1 0x4 ADD PUSH2 0x34B SWAP1 PUSH2 0x1124 JUMP JUMPDEST PUSH2 0x4AF PUSH2 0xD41 JUMP JUMPDEST PUSH1 0x0 SLOAD PUSH1 0x1 PUSH1 0x1 PUSH1 0xA0 SHL SUB AND CALLER EQ PUSH2 0x7A6 JUMPI PUSH1 0x40 MLOAD PUSH3 0x461BCD PUSH1 0xE5 SHL DUP2 MSTORE PUSH1 0x4 ADD PUSH2 0x34B SWAP1 PUSH2 0x1124 JUMP JUMPDEST PUSH1 0x3 SLOAD PUSH1 0x40 MLOAD PUSH4 0x70A08231 PUSH1 0xE0 SHL DUP2 MSTORE ADDRESS PUSH1 0x4 DUP3 ADD MSTORE PUSH1 0x0 SWAP2 PUSH1 0x1 PUSH1 0x1 PUSH1 0xA0 SHL SUB AND SWAP1 PUSH4 0x70A08231 SWAP1 PUSH1 0x24 ADD PUSH1 0x20 PUSH1 0x40 MLOAD DUP1 DUP4 SUB DUP2 DUP7 GAS STATICCALL ISZERO DUP1 ISZERO PUSH2 0x7EF JUMPI RETURNDATASIZE PUSH1 0x0 DUP1 RETURNDATACOPY RETURNDATASIZE PUSH1 0x0 REVERT JUMPDEST POP POP POP POP PUSH1 0x40 MLOAD RETURNDATASIZE PUSH1 0x1F NOT PUSH1 0x1F DUP3 ADD AND DUP3 ADD DUP1 PUSH1 0x40 MSTORE POP DUP2 ADD SWAP1 PUSH2 0x813 SWAP2 SWAP1 PUSH2 0x1159 JUMP JUMPDEST SWAP1 POP DUP1 DUP3 GT ISZERO PUSH2 0x89B JUMPI PUSH1 0x3 SLOAD PUSH1 0x40 MLOAD PUSH4 0xA9059CBB PUSH1 0xE0 SHL DUP2 MSTORE PUSH1 0x1 PUSH1 0x1 PUSH1 0xA0 SHL SUB DUP6 DUP2 AND PUSH1 0x4 DUP4 ADD MSTORE PUSH1 0x24 DUP3 ADD DUP5 SWAP1 MSTORE SWAP1 SWAP2 AND SWAP1 PUSH4 0xA9059CBB SWAP1 PUSH1 0x44 ADD JUMPDEST PUSH1 0x20 PUSH1 0x40 MLOAD DUP1 DUP4 SUB DUP2 PUSH1 0x0 DUP8 GAS CALL ISZERO DUP1 ISZERO PUSH2 0x871 JUMPI RETURNDATASIZE PUSH1 0x0 DUP1 RETURNDATACOPY RETURNDATASIZE PUSH1 0x0 REVERT JUMPDEST POP POP POP POP PUSH1 0x40 MLOAD RETURNDATASIZE PUSH1 0x1F NOT PUSH1 0x1F DUP3 ADD AND DUP3 ADD DUP1 PUSH1 0x40 MSTORE POP DUP2 ADD SWAP1 PUSH2 0x895 SWAP2 SWAP1 PUSH2 0x11CB JUMP JUMPDEST POP POP POP POP JUMP JUMPDEST PUSH1 0x3 SLOAD PUSH1 0x40 MLOAD PUSH4 0xA9059CBB PUSH1 0xE0 SHL DUP2 MSTORE PUSH1 0x1 PUSH1 0x1 PUSH1 0xA0 SHL SUB DUP6 DUP2 AND PUSH1 0x4 DUP4 ADD MSTORE PUSH1 0x24 DUP3 ADD DUP6 SWAP1 MSTORE SWAP1 SWAP2 AND SWAP1 PUSH4 0xA9059CBB SWAP1 PUSH1 0x44 ADD PUSH2 0x852 JUMP JUMPDEST POP POP POP JUMP JUMPDEST PUSH1 0x0 SLOAD PUSH1 0x1 PUSH1 0xA0 SHL SWAP1 DIV PUSH1 0xFF AND ISZERO PUSH2 0x903 JUMPI PUSH1 0x40 MLOAD PUSH3 0x461BCD PUSH1 0xE5 SHL DUP2 MSTORE PUSH1 0x4 ADD PUSH2 0x34B SWAP1 PUSH2 0x1096 JUMP JUMPDEST PUSH1 0x2 PUSH1 0x1 SLOAD EQ ISZERO PUSH2 0x926 JUMPI PUSH1 0x40 MLOAD PUSH3 0x461BCD PUSH1 0xE5 SHL DUP2 MSTORE PUSH1 0x4 ADD PUSH2 0x34B SWAP1 PUSH2 0x10C0 JUMP JUMPDEST PUSH1 0x2 PUSH1 0x1 SSTORE PUSH2 0x934 CALLER PUSH2 0xACD JUMP JUMPDEST CALLER PUSH1 0x0 SWAP1 DUP2 MSTORE PUSH1 0x7 PUSH1 0x20 MSTORE PUSH1 0x40 SWAP1 KECCAK256 PUSH1 0x2 DUP2 ADD SLOAD PUSH2 0x98A JUMPI PUSH1 0x40 MLOAD PUSH3 0x461BCD PUSH1 0xE5 SHL DUP2 MSTORE PUSH1 0x20 PUSH1 0x4 DUP3 ADD MSTORE PUSH1 0x13 PUSH1 0x24 DUP3 ADD MSTORE PUSH19 0x52657761726420416D6F756E743A207775743F PUSH1 0x68 SHL PUSH1 0x44 DUP3 ADD MSTORE PUSH1 0x64 ADD PUSH2 0x34B JUMP JUMPDEST PUSH1 0x2 DUP2 ADD SLOAD PUSH1 0x3 SLOAD PUSH2 0x9A9 SWAP2 PUSH1 0x1 PUSH1 0x1 PUSH1 0xA0 SHL SUB SWAP1 SWAP2 AND SWAP1 CALLER SWAP1 PUSH2 0xBB9 JUMP JUMPDEST PUSH1 0x2 DUP2 ADD SLOAD PUSH1 0x40 MLOAD SWAP1 DUP2 MSTORE CALLER SWAP1 PUSH32 0xBA8DE60C3403EC381D1D484652EA1980E3C3E56359195C92525BFF4CE47AD98E SWAP1 PUSH1 0x20 ADD PUSH1 0x40 MLOAD DUP1 SWAP2 SUB SWAP1 LOG2 PUSH1 0x0 PUSH1 0x2 SWAP1 SWAP2 ADD SSTORE PUSH1 0x1 DUP1 SSTORE JUMP JUMPDEST PUSH1 0x0 SLOAD PUSH1 0x1 PUSH1 0x1 PUSH1 0xA0 SHL SUB AND CALLER EQ PUSH2 0xA1B JUMPI PUSH1 0x40 MLOAD PUSH3 0x461BCD PUSH1 0xE5 SHL DUP2 MSTORE PUSH1 0x4 ADD PUSH2 0x34B SWAP1 PUSH2 0x1124 JUMP JUMPDEST TIMESTAMP DUP2 GT PUSH2 0xA27 JUMPI PUSH1 0x0 DUP1 REVERT JUMPDEST PUSH1 0x6 SSTORE JUMP JUMPDEST PUSH1 0x0 SLOAD PUSH1 0x1 PUSH1 0xA0 SHL SWAP1 DIV PUSH1 0xFF AND ISZERO PUSH2 0xA56 JUMPI PUSH1 0x40 MLOAD PUSH3 0x461BCD PUSH1 0xE5 SHL DUP2 MSTORE PUSH1 0x4 ADD PUSH2 0x34B SWAP1 PUSH2 0x1096 JUMP JUMPDEST CALLER PUSH1 0x0 DUP2 DUP2 MSTORE PUSH1 0x7 PUSH1 0x20 MSTORE PUSH1 0x40 SWAP1 KECCAK256 PUSH1 0x1 DUP2 ADD SLOAD PUSH1 0x3 SLOAD SWAP2 SWAP3 PUSH2 0xA82 SWAP3 PUSH1 0x1 PUSH1 0x1 PUSH1 0xA0 SHL SUB AND SWAP2 PUSH2 0xBB9 JUMP JUMPDEST PUSH1 0x1 DUP2 ADD SLOAD PUSH1 0x40 MLOAD SWAP1 DUP2 MSTORE CALLER SWAP1 PUSH32 0x5FAFA99D0643513820BE26656B45130B01E1C03062E1266BF36F88CBD3BD9695 SWAP1 PUSH1 0x20 ADD PUSH1 0x40 MLOAD DUP1 SWAP2 SUB SWAP1 LOG2 PUSH1 0x0 PUSH1 0x1 DUP3 ADD DUP2 SWAP1 SSTORE PUSH1 0x2 SWAP1 SWAP2 ADD SSTORE JUMP JUMPDEST PUSH1 0x6 SLOAD TIMESTAMP LT PUSH2 0xAD9 JUMPI POP JUMP JUMPDEST PUSH1 0x1 PUSH1 0x1 PUSH1 0xA0 SHL SUB DUP2 AND PUSH1 0x0 SWAP1 DUP2 MSTORE PUSH1 0x7 PUSH1 0x20 MSTORE PUSH1 0x40 SWAP1 KECCAK256 DUP1 SLOAD PUSH2 0xB02 SWAP1 TIMESTAMP DUP4 PUSH1 0x1 ADD SLOAD PUSH2 0x693 JUMP JUMPDEST DUP2 PUSH1 0x2 ADD PUSH1 0x0 DUP3 DUP3 SLOAD PUSH2 0xB15 SWAP2 SWAP1 PUSH2 0x1172 JUMP JUMPDEST SWAP1 SWAP2 SSTORE POP POP POP POP JUMP JUMPDEST PUSH1 0x0 SLOAD PUSH1 0x1 PUSH1 0x1 PUSH1 0xA0 SHL SUB AND CALLER EQ PUSH2 0xB48 JUMPI PUSH1 0x40 MLOAD PUSH3 0x461BCD PUSH1 0xE5 SHL DUP2 MSTORE PUSH1 0x4 ADD PUSH2 0x34B SWAP1 PUSH2 0x1124 JUMP JUMPDEST PUSH1 0x1 PUSH1 0x1 PUSH1 0xA0 SHL SUB DUP2 AND PUSH2 0xBAD JUMPI PUSH1 0x40 MLOAD PUSH3 0x461BCD PUSH1 0xE5 SHL DUP2 MSTORE PUSH1 0x20 PUSH1 0x4 DUP3 ADD MSTORE PUSH1 0x26 PUSH1 0x24 DUP3 ADD MSTORE PUSH32 0x4F776E61626C653A206E6577206F776E657220697320746865207A65726F2061 PUSH1 0x44 DUP3 ADD MSTORE PUSH6 0x646472657373 PUSH1 0xD0 SHL PUSH1 0x64 DUP3 ADD MSTORE PUSH1 0x84 ADD PUSH2 0x34B JUMP JUMPDEST PUSH2 0xBB6 DUP2 PUSH2 0xCF1 JUMP JUMPDEST POP JUMP JUMPDEST PUSH1 0x40 MLOAD PUSH1 0x1 PUSH1 0x1 PUSH1 0xA0 SHL SUB DUP4 AND PUSH1 0x24 DUP3 ADD MSTORE PUSH1 0x44 DUP2 ADD DUP3 SWAP1 MSTORE PUSH2 0x8D4 SWAP1 DUP5 SWAP1 PUSH4 0xA9059CBB PUSH1 0xE0 SHL SWAP1 PUSH1 0x64 ADD JUMPDEST PUSH1 0x40 DUP1 MLOAD PUSH1 0x1F NOT DUP2 DUP5 SUB ADD DUP2 MSTORE SWAP2 SWAP1 MSTORE PUSH1 0x20 DUP2 ADD DUP1 MLOAD PUSH1 0x1 PUSH1 0x1 PUSH1 0xE0 SHL SUB AND PUSH1 0x1 PUSH1 0x1 PUSH1 0xE0 SHL SUB NOT SWAP1 SWAP4 AND SWAP3 SWAP1 SWAP3 OR SWAP1 SWAP2 MSTORE PUSH2 0xDA6 JUMP JUMPDEST PUSH1 0x0 SLOAD PUSH1 0x1 PUSH1 0xA0 SHL SWAP1 DIV PUSH1 0xFF AND PUSH2 0xC6C JUMPI PUSH1 0x40 MLOAD PUSH3 0x461BCD PUSH1 0xE5 SHL DUP2 MSTORE PUSH1 0x20 PUSH1 0x4 DUP3 ADD MSTORE PUSH1 0x14 PUSH1 0x24 DUP3 ADD MSTORE PUSH20 0x14185D5CD8589B194E881B9BDD081C185D5CD959 PUSH1 0x62 SHL PUSH1 0x44 DUP3 ADD MSTORE PUSH1 0x64 ADD PUSH2 0x34B JUMP JUMPDEST PUSH1 0x0 DUP1 SLOAD PUSH1 0xFF PUSH1 0xA0 SHL NOT AND SWAP1 SSTORE PUSH32 0x5DB9EE0A495BF2E6FF9C91A7834C1BA4FDD244A5E8AA4E537BD38AEAE4B073AA CALLER JUMPDEST PUSH1 0x40 MLOAD PUSH1 0x1 PUSH1 0x1 PUSH1 0xA0 SHL SUB SWAP1 SWAP2 AND DUP2 MSTORE PUSH1 0x20 ADD PUSH1 0x40 MLOAD DUP1 SWAP2 SUB SWAP1 LOG1 JUMP JUMPDEST PUSH1 0x40 MLOAD PUSH1 0x1 PUSH1 0x1 PUSH1 0xA0 SHL SUB DUP1 DUP6 AND PUSH1 0x24 DUP4 ADD MSTORE DUP4 AND PUSH1 0x44 DUP3 ADD MSTORE PUSH1 0x64 DUP2 ADD DUP3 SWAP1 MSTORE PUSH2 0x895 SWAP1 DUP6 SWAP1 PUSH4 0x23B872DD PUSH1 0xE0 SHL SWAP1 PUSH1 0x84 ADD PUSH2 0xBE5 JUMP JUMPDEST PUSH1 0x0 DUP1 SLOAD PUSH1 0x1 PUSH1 0x1 PUSH1 0xA0 SHL SUB DUP4 DUP2 AND PUSH1 0x1 PUSH1 0x1 PUSH1 0xA0 SHL SUB NOT DUP4 AND DUP2 OR DUP5 SSTORE PUSH1 0x40 MLOAD SWAP2 SWAP1 SWAP3 AND SWAP3 DUP4 SWAP2 PUSH32 0x8BE0079C531659141344CD1FD0A4F28419497F9722A3DAAFE3B4186F6B6457E0 SWAP2 SWAP1 LOG3 POP POP JUMP JUMPDEST PUSH1 0x0 SLOAD PUSH1 0x1 PUSH1 0xA0 SHL SWAP1 DIV PUSH1 0xFF AND ISZERO PUSH2 0xD6B JUMPI PUSH1 0x40 MLOAD PUSH3 0x461BCD PUSH1 0xE5 SHL DUP2 MSTORE PUSH1 0x4 ADD PUSH2 0x34B SWAP1 PUSH2 0x1096 JUMP JUMPDEST PUSH1 0x0 DUP1 SLOAD PUSH1 0xFF PUSH1 0xA0 SHL NOT AND PUSH1 0x1 PUSH1 0xA0 SHL OR SWAP1 SSTORE PUSH32 0x62E78CEA01BEE320CD4E420270B5EA74000D11B0C9F74754EBDBFC544B05A258 PUSH2 0xC9C CALLER SWAP1 JUMP JUMPDEST PUSH1 0x0 PUSH2 0xDFB DUP3 PUSH1 0x40 MLOAD DUP1 PUSH1 0x40 ADD PUSH1 0x40 MSTORE DUP1 PUSH1 0x20 DUP2 MSTORE PUSH1 0x20 ADD PUSH32 0x5361666545524332303A206C6F772D6C6576656C2063616C6C206661696C6564 DUP2 MSTORE POP DUP6 PUSH1 0x1 PUSH1 0x1 PUSH1 0xA0 SHL SUB AND PUSH2 0xE78 SWAP1 SWAP3 SWAP2 SWAP1 PUSH4 0xFFFFFFFF AND JUMP JUMPDEST DUP1 MLOAD SWAP1 SWAP2 POP ISZERO PUSH2 0x8D4 JUMPI DUP1 DUP1 PUSH1 0x20 ADD SWAP1 MLOAD DUP2 ADD SWAP1 PUSH2 0xE19 SWAP2 SWAP1 PUSH2 0x11CB JUMP JUMPDEST PUSH2 0x8D4 JUMPI PUSH1 0x40 MLOAD PUSH3 0x461BCD PUSH1 0xE5 SHL DUP2 MSTORE PUSH1 0x20 PUSH1 0x4 DUP3 ADD MSTORE PUSH1 0x2A PUSH1 0x24 DUP3 ADD MSTORE PUSH32 0x5361666545524332303A204552433230206F7065726174696F6E20646964206E PUSH1 0x44 DUP3 ADD MSTORE PUSH10 0x1BDD081CDD58D8D95959 PUSH1 0xB2 SHL PUSH1 0x64 DUP3 ADD MSTORE PUSH1 0x84 ADD PUSH2 0x34B JUMP JUMPDEST PUSH1 0x60 PUSH2 0xE87 DUP5 DUP5 PUSH1 0x0 DUP6 PUSH2 0xE8F JUMP JUMPDEST SWAP5 SWAP4 POP POP POP POP JUMP JUMPDEST PUSH1 0x60 DUP3 SELFBALANCE LT ISZERO PUSH2 0xEF0 JUMPI PUSH1 0x40 MLOAD PUSH3 0x461BCD PUSH1 0xE5 SHL DUP2 MSTORE PUSH1 0x20 PUSH1 0x4 DUP3 ADD MSTORE PUSH1 0x26 PUSH1 0x24 DUP3 ADD MSTORE PUSH32 0x416464726573733A20696E73756666696369656E742062616C616E636520666F PUSH1 0x44 DUP3 ADD MSTORE PUSH6 0x1C8818D85B1B PUSH1 0xD2 SHL PUSH1 0x64 DUP3 ADD MSTORE PUSH1 0x84 ADD PUSH2 0x34B JUMP JUMPDEST DUP5 EXTCODESIZE PUSH2 0xF3E JUMPI PUSH1 0x40 MLOAD PUSH3 0x461BCD PUSH1 0xE5 SHL DUP2 MSTORE PUSH1 0x20 PUSH1 0x4 DUP3 ADD MSTORE PUSH1 0x1D PUSH1 0x24 DUP3 ADD MSTORE PUSH32 0x416464726573733A2063616C6C20746F206E6F6E2D636F6E7472616374000000 PUSH1 0x44 DUP3 ADD MSTORE PUSH1 0x64 ADD PUSH2 0x34B JUMP JUMPDEST PUSH1 0x0 DUP1 DUP7 PUSH1 0x1 PUSH1 0x1 PUSH1 0xA0 SHL SUB AND DUP6 DUP8 PUSH1 0x40 MLOAD PUSH2 0xF5A SWAP2 SWAP1 PUSH2 0x1219 JUMP JUMPDEST PUSH1 0x0 PUSH1 0x40 MLOAD DUP1 DUP4 SUB DUP2 DUP6 DUP8 GAS CALL SWAP3 POP POP POP RETURNDATASIZE DUP1 PUSH1 0x0 DUP2 EQ PUSH2 0xF97 JUMPI PUSH1 0x40 MLOAD SWAP2 POP PUSH1 0x1F NOT PUSH1 0x3F RETURNDATASIZE ADD AND DUP3 ADD PUSH1 0x40 MSTORE RETURNDATASIZE DUP3 MSTORE RETURNDATASIZE PUSH1 0x0 PUSH1 0x20 DUP5 ADD RETURNDATACOPY PUSH2 0xF9C JUMP JUMPDEST PUSH1 0x60 SWAP2 POP JUMPDEST POP SWAP2 POP SWAP2 POP PUSH2 0xFAC DUP3 DUP3 DUP7 PUSH2 0xFB7 JUMP JUMPDEST SWAP8 SWAP7 POP POP POP POP POP POP POP JUMP JUMPDEST PUSH1 0x60 DUP4 ISZERO PUSH2 0xFC6 JUMPI POP DUP2 PUSH2 0x70F JUMP JUMPDEST DUP3 MLOAD ISZERO PUSH2 0xFD6 JUMPI DUP3 MLOAD DUP1 DUP5 PUSH1 0x20 ADD REVERT JUMPDEST DUP2 PUSH1 0x40 MLOAD PUSH3 0x461BCD PUSH1 0xE5 SHL DUP2 MSTORE PUSH1 0x4 ADD PUSH2 0x34B SWAP2 SWAP1 PUSH2 0x1235 JUMP JUMPDEST PUSH1 0x0 PUSH1 0x20 DUP3 DUP5 SUB SLT ISZERO PUSH2 0x1002 JUMPI PUSH1 0x0 DUP1 REVERT JUMPDEST POP CALLDATALOAD SWAP2 SWAP1 POP JUMP JUMPDEST DUP1 CALLDATALOAD PUSH1 0x1 PUSH1 0x1 PUSH1 0xA0 SHL SUB DUP2 AND DUP2 EQ PUSH2 0x1020 JUMPI PUSH1 0x0 DUP1 REVERT JUMPDEST SWAP2 SWAP1 POP JUMP JUMPDEST PUSH1 0x0 PUSH1 0x20 DUP3 DUP5 SUB SLT ISZERO PUSH2 0x1037 JUMPI PUSH1 0x0 DUP1 REVERT JUMPDEST PUSH2 0x70F DUP3 PUSH2 0x1009 JUMP JUMPDEST PUSH1 0x0 DUP1 PUSH1 0x0 PUSH1 0x60 DUP5 DUP7 SUB SLT ISZERO PUSH2 0x1055 JUMPI PUSH1 0x0 DUP1 REVERT JUMPDEST POP POP DUP2 CALLDATALOAD SWAP4 PUSH1 0x20 DUP4 ADD CALLDATALOAD SWAP4 POP PUSH1 0x40 SWAP1 SWAP3 ADD CALLDATALOAD SWAP2 SWAP1 POP JUMP JUMPDEST PUSH1 0x0 DUP1 PUSH1 0x40 DUP4 DUP6 SUB SLT ISZERO PUSH2 0x107F JUMPI PUSH1 0x0 DUP1 REVERT JUMPDEST PUSH2 0x1088 DUP4 PUSH2 0x1009 JUMP JUMPDEST SWAP5 PUSH1 0x20 SWAP4 SWAP1 SWAP4 ADD CALLDATALOAD SWAP4 POP POP POP JUMP JUMPDEST PUSH1 0x20 DUP1 DUP3 MSTORE PUSH1 0x10 SWAP1 DUP3 ADD MSTORE PUSH16 0x14185D5CD8589B194E881C185D5CD959 PUSH1 0x82 SHL PUSH1 0x40 DUP3 ADD MSTORE PUSH1 0x60 ADD SWAP1 JUMP JUMPDEST PUSH1 0x20 DUP1 DUP3 MSTORE PUSH1 0x1F SWAP1 DUP3 ADD MSTORE PUSH32 0x5265656E7472616E637947756172643A207265656E7472616E742063616C6C00 PUSH1 0x40 DUP3 ADD MSTORE PUSH1 0x60 ADD SWAP1 JUMP JUMPDEST PUSH4 0x4E487B71 PUSH1 0xE0 SHL PUSH1 0x0 MSTORE PUSH1 0x11 PUSH1 0x4 MSTORE PUSH1 0x24 PUSH1 0x0 REVERT JUMPDEST PUSH1 0x0 DUP3 DUP3 LT ISZERO PUSH2 0x111F JUMPI PUSH2 0x111F PUSH2 0x10F7 JUMP JUMPDEST POP SUB SWAP1 JUMP JUMPDEST PUSH1 0x20 DUP1 DUP3 MSTORE DUP2 DUP2 ADD MSTORE PUSH32 0x4F776E61626C653A2063616C6C6572206973206E6F7420746865206F776E6572 PUSH1 0x40 DUP3 ADD MSTORE PUSH1 0x60 ADD SWAP1 JUMP JUMPDEST PUSH1 0x0 PUSH1 0x20 DUP3 DUP5 SUB SLT ISZERO PUSH2 0x116B JUMPI PUSH1 0x0 DUP1 REVERT JUMPDEST POP MLOAD SWAP2 SWAP1 POP JUMP JUMPDEST PUSH1 0x0 DUP3 NOT DUP3 GT ISZERO PUSH2 0x1185 JUMPI PUSH2 0x1185 PUSH2 0x10F7 JUMP JUMPDEST POP ADD SWAP1 JUMP JUMPDEST PUSH1 0x0 DUP2 PUSH1 0x0 NOT DIV DUP4 GT DUP3 ISZERO ISZERO AND ISZERO PUSH2 0x11A4 JUMPI PUSH2 0x11A4 PUSH2 0x10F7 JUMP JUMPDEST POP MUL SWAP1 JUMP JUMPDEST PUSH1 0x0 DUP3 PUSH2 0x11C6 JUMPI PUSH4 0x4E487B71 PUSH1 0xE0 SHL PUSH1 0x0 MSTORE PUSH1 0x12 PUSH1 0x4 MSTORE PUSH1 0x24 PUSH1 0x0 REVERT JUMPDEST POP DIV SWAP1 JUMP JUMPDEST PUSH1 0x0 PUSH1 0x20 DUP3 DUP5 SUB SLT ISZERO PUSH2 0x11DD JUMPI PUSH1 0x0 DUP1 REVERT JUMPDEST DUP2 MLOAD DUP1 ISZERO ISZERO DUP2 EQ PUSH2 0x70F JUMPI PUSH1 0x0 DUP1 REVERT JUMPDEST PUSH1 0x0 JUMPDEST DUP4 DUP2 LT ISZERO PUSH2 0x1208 JUMPI DUP2 DUP2 ADD MLOAD DUP4 DUP3 ADD MSTORE PUSH1 0x20 ADD PUSH2 0x11F0 JUMP JUMPDEST DUP4 DUP2 GT ISZERO PUSH2 0x895 JUMPI POP POP PUSH1 0x0 SWAP2 ADD MSTORE JUMP JUMPDEST PUSH1 0x0 DUP3 MLOAD PUSH2 0x122B DUP2 DUP5 PUSH1 0x20 DUP8 ADD PUSH2 0x11ED JUMP JUMPDEST SWAP2 SWAP1 SWAP2 ADD SWAP3 SWAP2 POP POP JUMP JUMPDEST PUSH1 0x20 DUP2 MSTORE PUSH1 0x0 DUP3 MLOAD DUP1 PUSH1 0x20 DUP5 ADD MSTORE PUSH2 0x1254 DUP2 PUSH1 0x40 DUP6 ADD PUSH1 0x20 DUP8 ADD PUSH2 0x11ED JUMP JUMPDEST PUSH1 0x1F ADD PUSH1 0x1F NOT AND SWAP2 SWAP1 SWAP2 ADD PUSH1 0x40 ADD SWAP3 SWAP2 POP POP JUMP INVALID LOG2 PUSH5 0x6970667358 0x22 SLT KECCAK256 MOD SWAP8 ADD 0xCC 0xB8 DUP5 0xB3 0xFC 0xD5 0xEA 0x23 0xBE 0xBC 0xD0 0x1F BLOCKHASH 0x26 0xF9 ADDMOD 0xB4 0xE5 RETURNDATACOPY DUP6 DUP12 0xC6 0xCD 0xD3 JUMP 0xAC CODESIZE CODESIZE TIMESTAMP PUSH5 0x736F6C6343 STOP ADDMOD SIGNEXTEND STOP CALLER ",
  "sha1": "6686abe8903537f7e8d074cc6bbc7596053ea558",
  "source": "// SPDX-License-Identifier: MIT\npragma solidity ^0.8.10;\n\nimport \"@openzeppelin/contracts/access/Ownable.sol\";\nimport \"@openzeppelin/contracts/token/ERC20/utils/SafeERC20.sol\";\nimport \"@openzeppelin/contracts/security/Pausable.sol\";\nimport \"@openzeppelin/contracts/security/ReentrancyGuard.sol\";\n\ncontract AniwarPool is Ownable, Pausable, ReentrancyGuard {\n    using SafeERC20 for IERC20;\n    bytes32 public constant PAUSER_ROLE = keccak256(\"PAUSER_ROLE\");\n    // Info of each user.\n    struct UserInfo {\n        uint256 timeLastStaked; // Last time Staked to calculate apy\n        uint256 amount; // How many LP tokens the user has provided.\n        uint256 rewardDebt; // Reward debt.\n    }\n\n    // Info of each pool.\n    struct PoolInfo {\n        IERC20 lpToken; // Address of LP token contract.\n        uint256 apy; // Rate of token per year apy/1000\n        uint256 startTime;\n        uint256 endTime;\n    }\n\n    // Bonus muliplier for early ani makers.\n    uint256 public BONUS_MULTIPLIER = 1;\n\n    // Info of each pool.\n    PoolInfo public poolInfo;\n    // Info of each user that stakes LP tokens.\n    mapping(address => UserInfo) public userInfo;\n\n    event EnterStaking(address indexed user, uint256 amount);\n    event LeaveStaking(address indexed user, uint256 amount);\n    event ClaimReward(address indexed user, uint256 amount);\n    event EmergencyWithdraw(address indexed user, uint256 amount);\n\n    constructor(\n        IERC20 _aniToken,\n        uint256 _apy,\n        uint256 _startTime\n    ) {\n        uint256 startTime = block.timestamp + _startTime;\n        // staking pool\n        poolInfo = PoolInfo({\n            lpToken: _aniToken,\n            apy: _apy,\n            startTime: startTime,\n            endTime: startTime + 31556926 // plus one year\n        });\n    }\n\n    function updateMultiplier(uint256 multiplierNumber) public onlyOwner {\n        BONUS_MULTIPLIER = multiplierNumber;\n    }\n\n    // Update the given pool's Ani Apy. Can only be called by the owner.\n    function setApy(uint256 _apy) public onlyOwner {\n        poolInfo.apy = _apy;\n    }\n\n    // Update the given pool's Ani Apy. Can only be called by the owner.\n    function setEndTime(uint256 _endTime) public onlyOwner {\n        require(_endTime > getCurrentTime());\n        poolInfo.endTime = _endTime;\n    }\n\n    // Stake Ani tokens to AniPool\n    function enterStaking(uint256 _amount) public nonReentrant {\n        require(poolInfo.endTime > getCurrentTime(), \"Time: Farm has ended\");\n        require(\n            poolInfo.lpToken.allowance(msg.sender, address(this)) >= _amount,\n            \"Allowance: Not enough Allowance\"\n        );\n        UserInfo storage user = userInfo[msg.sender];\n        if (_amount > 0) {\n            poolInfo.lpToken.safeTransferFrom(\n                address(msg.sender),\n                address(this),\n                _amount\n            );\n            user.amount = user.amount + _amount;\n        }\n        user.timeLastStaked = block.timestamp;\n\n        emit EnterStaking(msg.sender, _amount);\n    }\n\n    // Withdraw Ani tokens from STAKING.\n    function leaveStaking(uint256 _amount) public whenNotPaused nonReentrant {\n        PoolInfo storage pool = poolInfo;\n        updateUser(msg.sender);\n        UserInfo storage user = userInfo[msg.sender];\n        require(user.amount >= _amount, \"withdraw: not good\");\n        if (_amount > 0) {\n            user.amount = user.amount - _amount;\n            pool.lpToken.safeTransfer(msg.sender, _amount);\n        }\n        emit LeaveStaking(msg.sender, _amount);\n    }\n\n    function updateUser(address _userAddress) public {\n        if (getCurrentTime() >= poolInfo.endTime) {\n            return;\n        }\n        UserInfo storage user = userInfo[_userAddress];\n        user.rewardDebt += calculateRewardDebt(\n            user.timeLastStaked,\n            getCurrentTime(),\n            user.amount\n        );\n    }\n\n    // ClaimAllReward\n    function claimReward() public whenNotPaused nonReentrant {\n        updateUser(msg.sender);\n        UserInfo storage user = userInfo[msg.sender];\n        require(user.rewardDebt > 0, \"Reward Amount: wut?\");\n        poolInfo.lpToken.safeTransfer(msg.sender, user.rewardDebt);\n        emit ClaimReward(msg.sender, user.rewardDebt);\n        user.rewardDebt = 0;\n    }\n\n    // Withdraw without caring about rewards. EMERGENCY ONLY.\n    function emergencyWithdraw() public whenNotPaused {\n        UserInfo storage user = userInfo[msg.sender];\n        poolInfo.lpToken.safeTransfer(address(msg.sender), user.amount);\n        emit EmergencyWithdraw(msg.sender, user.amount);\n        user.amount = 0;\n        user.rewardDebt = 0;\n    }\n\n    // Get time by current Time\n    function calculateRewardDebt(\n        uint256 _from,\n        uint256 _to,\n        uint256 _userAmount\n    ) public view returns (uint256) {\n        uint256 multiplier = (_to - _from) * BONUS_MULTIPLIER;\n        uint256 numberOfDays = multiplier / 86400; // 1 Day = 86400 seconds\n        uint256 apyPerDay = (poolInfo.apy * 1000) / 365;\n        return (_userAmount * numberOfDays * apyPerDay) / (1000 * 1000);\n    }\n\n    // Safe ani transfer function, just in case if rounding error causes pool to not have enough CAKEs.\n    function safeAniTransfer(address _to, uint256 _amount) public onlyOwner {\n        uint256 aniBal = poolInfo.lpToken.balanceOf(address(this));\n        if (_amount > aniBal) {\n            poolInfo.lpToken.transfer(_to, aniBal);\n        } else {\n            poolInfo.lpToken.transfer(_to, _amount);\n        }\n    }\n\n    function getCurrentTime() public view returns (uint256) {\n        return block.timestamp;\n    }\n\n    function pause() public onlyOwner {\n        _pause();\n    }\n\n    function unpause() public onlyOwner {\n        _unpause();\n    }\n}\n",
  "sourcePath": "contracts/AniwarPool.sol",
  "type": "contract"
}