{
  "abi": [
    {
      "inputs": [
        {
          "internalType": "address",
          "name": "_tokenAddress",
          "type": "address"
        }
      ],
      "stateMutability": "nonpayable",
      "type": "constructor"
    },
    {
      "anonymous": false,
      "inputs": [
        {
          "indexed": true,
          "internalType": "address",
          "name": "previousOwner",
          "type": "address"
        },
        {
          "indexed": true,
          "internalType": "address",
          "name": "newOwner",
          "type": "address"
        }
      ],
      "name": "OwnershipTransferred",
      "type": "event"
    },
    {
      "inputs": [
        {
          "internalType": "address",
          "name": "_token",
          "type": "address"
        }
      ],
      "name": "addAllowedTokens",
      "outputs": [],
      "stateMutability": "nonpayable",
      "type": "function"
    },
    {
      "inputs": [
        {
          "internalType": "uint256",
          "name": "",
          "type": "uint256"
        }
      ],
      "name": "allowedTokens",
      "outputs": [
        {
          "internalType": "address",
          "name": "",
          "type": "address"
        }
      ],
      "stateMutability": "view",
      "type": "function"
    },
    {
      "inputs": [
        {
          "internalType": "address",
          "name": "_token",
          "type": "address"
        }
      ],
      "name": "getTokenValue",
      "outputs": [
        {
          "internalType": "uint256",
          "name": "",
          "type": "uint256"
        },
        {
          "internalType": "uint256",
          "name": "",
          "type": "uint256"
        }
      ],
      "stateMutability": "view",
      "type": "function"
    },
    {
      "inputs": [
        {
          "internalType": "address",
          "name": "_staker",
          "type": "address"
        },
        {
          "internalType": "address",
          "name": "_token",
          "type": "address"
        }
      ],
      "name": "getUserSingleTokenValue",
      "outputs": [
        {
          "internalType": "uint256",
          "name": "",
          "type": "uint256"
        }
      ],
      "stateMutability": "view",
      "type": "function"
    },
    {
      "inputs": [
        {
          "internalType": "address",
          "name": "_staker",
          "type": "address"
        }
      ],
      "name": "getUserTotalValue",
      "outputs": [
        {
          "internalType": "uint256",
          "name": "",
          "type": "uint256"
        }
      ],
      "stateMutability": "view",
      "type": "function"
    },
    {
      "inputs": [],
      "name": "issueTokens",
      "outputs": [],
      "stateMutability": "nonpayable",
      "type": "function"
    },
    {
      "inputs": [],
      "name": "owner",
      "outputs": [
        {
          "internalType": "address",
          "name": "",
          "type": "address"
        }
      ],
      "stateMutability": "view",
      "type": "function"
    },
    {
      "inputs": [],
      "name": "renounceOwnership",
      "outputs": [],
      "stateMutability": "nonpayable",
      "type": "function"
    },
    {
      "inputs": [
        {
          "internalType": "address",
          "name": "_token",
          "type": "address"
        },
        {
          "internalType": "address",
          "name": "_dataFeed",
          "type": "address"
        }
      ],
      "name": "setDataFeedContract",
      "outputs": [],
      "stateMutability": "nonpayable",
      "type": "function"
    },
    {
      "inputs": [],
      "name": "stakeBnb",
      "outputs": [],
      "stateMutability": "payable",
      "type": "function"
    },
    {
      "inputs": [
        {
          "internalType": "uint256",
          "name": "_amount",
          "type": "uint256"
        },
        {
          "internalType": "address",
          "name": "_token",
          "type": "address"
        }
      ],
      "name": "stakeTokens",
      "outputs": [],
      "stateMutability": "payable",
      "type": "function"
    },
    {
      "inputs": [
        {
          "internalType": "uint256",
          "name": "",
          "type": "uint256"
        }
      ],
      "name": "stakers",
      "outputs": [
        {
          "internalType": "address",
          "name": "",
          "type": "address"
        }
      ],
      "stateMutability": "view",
      "type": "function"
    },
    {
      "inputs": [
        {
          "internalType": "address",
          "name": "",
          "type": "address"
        },
        {
          "internalType": "address",
          "name": "",
          "type": "address"
        }
      ],
      "name": "stakingBalance",
      "outputs": [
        {
          "internalType": "uint256",
          "name": "",
          "type": "uint256"
        }
      ],
      "stateMutability": "view",
      "type": "function"
    },
    {
      "inputs": [
        {
          "internalType": "address",
          "name": "",
          "type": "address"
        }
      ],
      "name": "stakingBnbBalance",
      "outputs": [
        {
          "internalType": "uint256",
          "name": "",
          "type": "uint256"
        }
      ],
      "stateMutability": "view",
      "type": "function"
    },
    {
      "inputs": [],
      "name": "token",
      "outputs": [
        {
          "internalType": "contract IERC20",
          "name": "",
          "type": "address"
        }
      ],
      "stateMutability": "view",
      "type": "function"
    },
    {
      "inputs": [
        {
          "internalType": "address",
          "name": "",
          "type": "address"
        }
      ],
      "name": "tokenDataFeedMapping",
      "outputs": [
        {
          "internalType": "address",
          "name": "",
          "type": "address"
        }
      ],
      "stateMutability": "view",
      "type": "function"
    },
    {
      "inputs": [
        {
          "internalType": "address",
          "name": "_token",
          "type": "address"
        }
      ],
      "name": "tokenIsAllowed",
      "outputs": [
        {
          "internalType": "bool",
          "name": "",
          "type": "bool"
        }
      ],
      "stateMutability": "view",
      "type": "function"
    },
    {
      "inputs": [
        {
          "internalType": "address",
          "name": "newOwner",
          "type": "address"
        }
      ],
      "name": "transferOwnership",
      "outputs": [],
      "stateMutability": "nonpayable",
      "type": "function"
    },
    {
      "inputs": [
        {
          "internalType": "address",
          "name": "",
          "type": "address"
        }
      ],
      "name": "uniqueTokensStaked",
      "outputs": [
        {
          "internalType": "uint256",
          "name": "",
          "type": "uint256"
        }
      ],
      "stateMutability": "view",
      "type": "function"
    },
    {
      "inputs": [
        {
          "internalType": "address",
          "name": "_token",
          "type": "address"
        }
      ],
      "name": "unstakeTokens",
      "outputs": [],
      "stateMutability": "nonpayable",
      "type": "function"
    }
  ],
  "bytecode": "608060405234801561001057600080fd5b5060405161135038038061135083398101604081905261002f916100ad565b6100383361005d565b600780546001600160a01b0319166001600160a01b03929092169190911790556100dd565b600080546001600160a01b038381166001600160a01b0319831681178455604051919092169283917f8be0079c531659141344cd1fd0a4f28419497f9722a3daafe3b4186f6b6457e09190a35050565b6000602082840312156100bf57600080fd5b81516001600160a01b03811681146100d657600080fd5b9392505050565b611264806100ec6000396000f3fe60806040526004361061011f5760003560e01c80638da5cb5b116100a0578063e0cf2dab11610064578063e0cf2dab1461033f578063f1c5d6c21461036c578063f2fde38b146103a1578063fc0c546a146103c1578063fd5e6dd1146103e157600080fd5b80638da5cb5b1461026e578063af3f5e221461028c578063b83e0234146102ac578063c5e59ebe146102d9578063dd5b84671461030f57600080fd5b806329161a00116100e757806329161a00146101b45780632d1ad8b8146101ec5780635e5f2e261461020c57806360ab585214610244578063715018a61461025957600080fd5b806308c2423b146101245780630bea440d1461014657806315c22abb14610159578063171e44ea14610161578063276b11da14610181575b600080fd5b34801561013057600080fd5b5061014461013f366004610ef9565b610401565b005b610144610154366004610f2c565b610462565b6101446106f2565b34801561016d57600080fd5b5061014461017c366004610f4f565b6107c3565b34801561018d57600080fd5b506101a161019c366004610ef9565b61083f565b6040519081526020015b60405180910390f35b3480156101c057600080fd5b506101a16101cf366004610ef9565b600160209081526000928352604080842090915290825290205481565b3480156101f857600080fd5b50610144610207366004610f4f565b6108c6565b34801561021857600080fd5b5061022c610227366004610f71565b6109f6565b6040516001600160a01b0390911681526020016101ab565b34801561025057600080fd5b50610144610a20565b34801561026557600080fd5b50610144610b1d565b34801561027a57600080fd5b506000546001600160a01b031661022c565b34801561029857600080fd5b506101a16102a7366004610f4f565b610b51565b3480156102b857600080fd5b506101a16102c7366004610f4f565b60026020526000908152604090205481565b3480156102e557600080fd5b5061022c6102f4366004610f4f565b6003602052600090815260409020546001600160a01b031681565b34801561031b57600080fd5b5061032f61032a366004610f4f565b610c0f565b60405190151581526020016101ab565b34801561034b57600080fd5b506101a161035a366004610f4f565b60066020526000908152604090205481565b34801561037857600080fd5b5061038c610387366004610f4f565b610c79565b604080519283526020830191909152016101ab565b3480156103ad57600080fd5b506101446103bc366004610f4f565b610d7a565b3480156103cd57600080fd5b5060075461022c906001600160a01b031681565b3480156103ed57600080fd5b5061022c6103fc366004610f71565b610e12565b6000546001600160a01b031633146104345760405162461bcd60e51b815260040161042b90610f8a565b60405180910390fd5b6001600160a01b03918216600090815260036020526040902080546001600160a01b03191691909216179055565b600082116104b25760405162461bcd60e51b815260206004820152601b60248201527f616d6f756e74206d757374206265206d6f7265207468616e2030210000000000604482015260640161042b565b6104bb81610c0f565b6105075760405162461bcd60e51b815260206004820152601f60248201527f546f6b656e2069732063757272656e746c79206e6f7420616c6c6f7765642100604482015260640161042b565b604051636eb1769f60e11b815233600482015230602482015282906001600160a01b0383169063dd62ed3e90604401602060405180830381865afa158015610553573d6000803e3d6000fd5b505050506040513d601f19601f820116820180604052508101906105779190610fbf565b10156105c55760405162461bcd60e51b815260206004820152601860248201527f546f6b656e206578636565647320616c6c6f77616e6365210000000000000000604482015260640161042b565b6040516323b872dd60e01b8152336004820152306024820152604481018390526001600160a01b038216906323b872dd906064016020604051808303816000875af1158015610618573d6000803e3d6000fd5b505050506040513d601f19601f8201168201806040525081019061063c9190610fd8565b506106473382610e22565b6001600160a01b0381166000908152600160209081526040808320338452909152902054610676908390611010565b6001600160a01b0382166000908152600160208181526040808420338552825280842094909455600290529190205414156106ee57600480546001810182556000919091527f8a35acfbc15ff81a39ae7d344fd709f28e8600b4aa8c65c6b64bfe7fe36bd19b0180546001600160a01b031916331790555b5050565b600034116107425760405162461bcd60e51b815260206004820152601b60248201527f616d6f756e74206d757374206265206d6f7265207468616e2030210000000000604482015260640161042b565b3360009081526006602052604081208054349290610761908490611010565b909155505033600090815260026020526040902054600114156107c157600480546001810182556000919091527f8a35acfbc15ff81a39ae7d344fd709f28e8600b4aa8c65c6b64bfe7fe36bd19b0180546001600160a01b031916331790555b565b6000546001600160a01b031633146107ed5760405162461bcd60e51b815260040161042b90610f8a565b600580546001810182556000919091527f036b6384b5eca791c62761152d0c79bb0604c104a5fb6f4eb0703f3154bb3db00180546001600160a01b0319166001600160a01b0392909216919091179055565b6001600160a01b038216600090815260026020526040812054610864575060006108c0565b60008061087084610c79565b909250905061088081600a61110c565b6001600160a01b038086166000908152600160209081526040808320938a16835292905220546108b1908490611118565b6108bb9190611137565b925050505b92915050565b6001600160a01b0381166000908152600160209081526040808320338452909152902054806109375760405162461bcd60e51b815260206004820152601c60248201527f5374616b696e672062616c616e63652063616e6e6f7420626520302100000000604482015260640161042b565b60405163a9059cbb60e01b8152336004820152602481018290526001600160a01b0383169063a9059cbb906044016020604051808303816000875af1158015610984573d6000803e3d6000fd5b505050506040513d601f19601f820116820180604052508101906109a89190610fd8565b506001600160a01b038216600090815260016020818152604080842033855282528084208490556002909152909120546109e29190611159565b336000908152600260205260409020555050565b60058181548110610a0657600080fd5b6000918252602090912001546001600160a01b0316905081565b6000546001600160a01b03163314610a4a5760405162461bcd60e51b815260040161042b90610f8a565b60005b600454811015610b1a57600060048281548110610a6c57610a6c611170565b60009182526020822001546001600160a01b03169150610a8b82610b51565b60075460405163a9059cbb60e01b81526001600160a01b0385811660048301526024820184905292935091169063a9059cbb906044016020604051808303816000875af1158015610ae0573d6000803e3d6000fd5b505050506040513d601f19601f82011682018060405250810190610b049190610fd8565b5050508080610b1290611186565b915050610a4d565b50565b6000546001600160a01b03163314610b475760405162461bcd60e51b815260040161042b90610f8a565b6107c16000610e8d565b6001600160a01b0381166000908152600260205260408120548190610bac5760405162461bcd60e51b81526020600482015260116024820152704e6f20746f6b656e73207374616b65642160781b604482015260640161042b565b60005b600554811015610c0857610bea8460058381548110610bd057610bd0611170565b6000918252602090912001546001600160a01b031661083f565b610bf49083611010565b915080610c0081611186565b915050610baf565b5092915050565b6000805b600554811015610c7057826001600160a01b031660058281548110610c3a57610c3a611170565b6000918252602090912001546001600160a01b03161415610c5e5750600192915050565b80610c6881611186565b915050610c13565b50600092915050565b6001600160a01b03808216600090815260036020526040808220548151633fabe5a360e21b815291519293849391169182918491839163feaf968c9160048082019260a0929091908290030181865afa158015610cda573d6000803e3d6000fd5b505050506040513d601f19601f82011682018060405250810190610cfe91906111bb565b5050509150506000826001600160a01b031663313ce5676040518163ffffffff1660e01b8152600401602060405180830381865afa158015610d44573d6000803e3d6000fd5b505050506040513d601f19601f82011682018060405250810190610d68919061120b565b919760ff909216965090945050505050565b6000546001600160a01b03163314610da45760405162461bcd60e51b815260040161042b90610f8a565b6001600160a01b038116610e095760405162461bcd60e51b815260206004820152602660248201527f4f776e61626c653a206e6577206f776e657220697320746865207a65726f206160448201526564647265737360d01b606482015260840161042b565b610b1a81610e8d565b60048181548110610a0657600080fd5b6001600160a01b038082166000908152600160209081526040808320938616835292905220546106ee576001600160a01b038216600090815260026020526040902054610e70906001611010565b6001600160a01b0383166000908152600260205260409020555050565b600080546001600160a01b038381166001600160a01b0319831681178455604051919092169283917f8be0079c531659141344cd1fd0a4f28419497f9722a3daafe3b4186f6b6457e09190a35050565b80356001600160a01b0381168114610ef457600080fd5b919050565b60008060408385031215610f0c57600080fd5b610f1583610edd565b9150610f2360208401610edd565b90509250929050565b60008060408385031215610f3f57600080fd5b82359150610f2360208401610edd565b600060208284031215610f6157600080fd5b610f6a82610edd565b9392505050565b600060208284031215610f8357600080fd5b5035919050565b6020808252818101527f4f776e61626c653a2063616c6c6572206973206e6f7420746865206f776e6572604082015260600190565b600060208284031215610fd157600080fd5b5051919050565b600060208284031215610fea57600080fd5b81518015158114610f6a57600080fd5b634e487b7160e01b600052601160045260246000fd5b6000821982111561102357611023610ffa565b500190565b600181815b8085111561106357816000190482111561104957611049610ffa565b8085161561105657918102915b93841c939080029061102d565b509250929050565b60008261107a575060016108c0565b81611087575060006108c0565b816001811461109d57600281146110a7576110c3565b60019150506108c0565b60ff8411156110b8576110b8610ffa565b50506001821b6108c0565b5060208310610133831016604e8410600b84101617156110e6575081810a6108c0565b6110f08383611028565b806000190482111561110457611104610ffa565b029392505050565b6000610f6a838361106b565b600081600019048311821515161561113257611132610ffa565b500290565b60008261115457634e487b7160e01b600052601260045260246000fd5b500490565b60008282101561116b5761116b610ffa565b500390565b634e487b7160e01b600052603260045260246000fd5b600060001982141561119a5761119a610ffa565b5060010190565b805169ffffffffffffffffffff81168114610ef457600080fd5b600080600080600060a086880312156111d357600080fd5b6111dc866111a1565b94506020860151935060408601519250606086015191506111ff608087016111a1565b90509295509295909350565b60006020828403121561121d57600080fd5b815160ff81168114610f6a57600080fdfea2646970667358221220d0fb126992276f74f9ca52e7c2e71a996664fd2dd052abd7250d53501a1b5e4164736f6c634300080b0033",
  "bytecodeSha1": "42eb38fc14b1af45cb8b1fe9c7d4b65e58c5f957",
  "compiler": {
    "evm_version": "istanbul",
    "optimizer": {
      "enabled": true,
      "runs": 200
    },
    "version": "0.8.11+commit.d7f03943"
  },
  "contractName": "AniwarFarm",
  "language": "Solidity",
  "natspec": {
    "kind": "dev",
    "methods": {
      "owner()": {
        "details": "Returns the address of the current owner."
      },
      "renounceOwnership()": {
        "details": "Leaves the contract without owner. It will not be possible to call `onlyOwner` functions anymore. Can only be called by the current owner. NOTE: Renouncing ownership will leave the contract without an owner, thereby removing any functionality that is only available to the owner."
      },
      "transferOwnership(address)": {
        "details": "Transfers ownership of the contract to a new account (`newOwner`). Can only be called by the current owner."
      }
    },
    "version": 1
  },
  "opcodes": "PUSH1 0x80 PUSH1 0x40 MSTORE PUSH1 0x4 CALLDATASIZE LT PUSH2 0x11F JUMPI PUSH1 0x0 CALLDATALOAD PUSH1 0xE0 SHR DUP1 PUSH4 0x8DA5CB5B GT PUSH2 0xA0 JUMPI DUP1 PUSH4 0xE0CF2DAB GT PUSH2 0x64 JUMPI DUP1 PUSH4 0xE0CF2DAB EQ PUSH2 0x33F JUMPI DUP1 PUSH4 0xF1C5D6C2 EQ PUSH2 0x36C JUMPI DUP1 PUSH4 0xF2FDE38B EQ PUSH2 0x3A1 JUMPI DUP1 PUSH4 0xFC0C546A EQ PUSH2 0x3C1 JUMPI DUP1 PUSH4 0xFD5E6DD1 EQ PUSH2 0x3E1 JUMPI PUSH1 0x0 DUP1 REVERT JUMPDEST DUP1 PUSH4 0x8DA5CB5B EQ PUSH2 0x26E JUMPI DUP1 PUSH4 0xAF3F5E22 EQ PUSH2 0x28C JUMPI DUP1 PUSH4 0xB83E0234 EQ PUSH2 0x2AC JUMPI DUP1 PUSH4 0xC5E59EBE EQ PUSH2 0x2D9 JUMPI DUP1 PUSH4 0xDD5B8467 EQ PUSH2 0x30F JUMPI PUSH1 0x0 DUP1 REVERT JUMPDEST DUP1 PUSH4 0x29161A00 GT PUSH2 0xE7 JUMPI DUP1 PUSH4 0x29161A00 EQ PUSH2 0x1B4 JUMPI DUP1 PUSH4 0x2D1AD8B8 EQ PUSH2 0x1EC JUMPI DUP1 PUSH4 0x5E5F2E26 EQ PUSH2 0x20C JUMPI DUP1 PUSH4 0x60AB5852 EQ PUSH2 0x244 JUMPI DUP1 PUSH4 0x715018A6 EQ PUSH2 0x259 JUMPI PUSH1 0x0 DUP1 REVERT JUMPDEST DUP1 PUSH4 0x8C2423B EQ PUSH2 0x124 JUMPI DUP1 PUSH4 0xBEA440D EQ PUSH2 0x146 JUMPI DUP1 PUSH4 0x15C22ABB EQ PUSH2 0x159 JUMPI DUP1 PUSH4 0x171E44EA EQ PUSH2 0x161 JUMPI DUP1 PUSH4 0x276B11DA EQ PUSH2 0x181 JUMPI JUMPDEST PUSH1 0x0 DUP1 REVERT JUMPDEST CALLVALUE DUP1 ISZERO PUSH2 0x130 JUMPI PUSH1 0x0 DUP1 REVERT JUMPDEST POP PUSH2 0x144 PUSH2 0x13F CALLDATASIZE PUSH1 0x4 PUSH2 0xEF9 JUMP JUMPDEST PUSH2 0x401 JUMP JUMPDEST STOP JUMPDEST PUSH2 0x144 PUSH2 0x154 CALLDATASIZE PUSH1 0x4 PUSH2 0xF2C JUMP JUMPDEST PUSH2 0x462 JUMP JUMPDEST PUSH2 0x144 PUSH2 0x6F2 JUMP JUMPDEST CALLVALUE DUP1 ISZERO PUSH2 0x16D JUMPI PUSH1 0x0 DUP1 REVERT JUMPDEST POP PUSH2 0x144 PUSH2 0x17C CALLDATASIZE PUSH1 0x4 PUSH2 0xF4F JUMP JUMPDEST PUSH2 0x7C3 JUMP JUMPDEST CALLVALUE DUP1 ISZERO PUSH2 0x18D JUMPI PUSH1 0x0 DUP1 REVERT JUMPDEST POP PUSH2 0x1A1 PUSH2 0x19C CALLDATASIZE PUSH1 0x4 PUSH2 0xEF9 JUMP JUMPDEST PUSH2 0x83F JUMP JUMPDEST PUSH1 0x40 MLOAD SWAP1 DUP2 MSTORE PUSH1 0x20 ADD JUMPDEST PUSH1 0x40 MLOAD DUP1 SWAP2 SUB SWAP1 RETURN JUMPDEST CALLVALUE DUP1 ISZERO PUSH2 0x1C0 JUMPI PUSH1 0x0 DUP1 REVERT JUMPDEST POP PUSH2 0x1A1 PUSH2 0x1CF CALLDATASIZE PUSH1 0x4 PUSH2 0xEF9 JUMP JUMPDEST PUSH1 0x1 PUSH1 0x20 SWAP1 DUP2 MSTORE PUSH1 0x0 SWAP3 DUP4 MSTORE PUSH1 0x40 DUP1 DUP5 KECCAK256 SWAP1 SWAP2 MSTORE SWAP1 DUP3 MSTORE SWAP1 KECCAK256 SLOAD DUP2 JUMP JUMPDEST CALLVALUE DUP1 ISZERO PUSH2 0x1F8 JUMPI PUSH1 0x0 DUP1 REVERT JUMPDEST POP PUSH2 0x144 PUSH2 0x207 CALLDATASIZE PUSH1 0x4 PUSH2 0xF4F JUMP JUMPDEST PUSH2 0x8C6 JUMP JUMPDEST CALLVALUE DUP1 ISZERO PUSH2 0x218 JUMPI PUSH1 0x0 DUP1 REVERT JUMPDEST POP PUSH2 0x22C PUSH2 0x227 CALLDATASIZE PUSH1 0x4 PUSH2 0xF71 JUMP JUMPDEST PUSH2 0x9F6 JUMP JUMPDEST PUSH1 0x40 MLOAD PUSH1 0x1 PUSH1 0x1 PUSH1 0xA0 SHL SUB SWAP1 SWAP2 AND DUP2 MSTORE PUSH1 0x20 ADD PUSH2 0x1AB JUMP JUMPDEST CALLVALUE DUP1 ISZERO PUSH2 0x250 JUMPI PUSH1 0x0 DUP1 REVERT JUMPDEST POP PUSH2 0x144 PUSH2 0xA20 JUMP JUMPDEST CALLVALUE DUP1 ISZERO PUSH2 0x265 JUMPI PUSH1 0x0 DUP1 REVERT JUMPDEST POP PUSH2 0x144 PUSH2 0xB1D JUMP JUMPDEST CALLVALUE DUP1 ISZERO PUSH2 0x27A JUMPI PUSH1 0x0 DUP1 REVERT JUMPDEST POP PUSH1 0x0 SLOAD PUSH1 0x1 PUSH1 0x1 PUSH1 0xA0 SHL SUB AND PUSH2 0x22C JUMP JUMPDEST CALLVALUE DUP1 ISZERO PUSH2 0x298 JUMPI PUSH1 0x0 DUP1 REVERT JUMPDEST POP PUSH2 0x1A1 PUSH2 0x2A7 CALLDATASIZE PUSH1 0x4 PUSH2 0xF4F JUMP JUMPDEST PUSH2 0xB51 JUMP JUMPDEST CALLVALUE DUP1 ISZERO PUSH2 0x2B8 JUMPI PUSH1 0x0 DUP1 REVERT JUMPDEST POP PUSH2 0x1A1 PUSH2 0x2C7 CALLDATASIZE PUSH1 0x4 PUSH2 0xF4F JUMP JUMPDEST PUSH1 0x2 PUSH1 0x20 MSTORE PUSH1 0x0 SWAP1 DUP2 MSTORE PUSH1 0x40 SWAP1 KECCAK256 SLOAD DUP2 JUMP JUMPDEST CALLVALUE DUP1 ISZERO PUSH2 0x2E5 JUMPI PUSH1 0x0 DUP1 REVERT JUMPDEST POP PUSH2 0x22C PUSH2 0x2F4 CALLDATASIZE PUSH1 0x4 PUSH2 0xF4F JUMP JUMPDEST PUSH1 0x3 PUSH1 0x20 MSTORE PUSH1 0x0 SWAP1 DUP2 MSTORE PUSH1 0x40 SWAP1 KECCAK256 SLOAD PUSH1 0x1 PUSH1 0x1 PUSH1 0xA0 SHL SUB AND DUP2 JUMP JUMPDEST CALLVALUE DUP1 ISZERO PUSH2 0x31B JUMPI PUSH1 0x0 DUP1 REVERT JUMPDEST POP PUSH2 0x32F PUSH2 0x32A CALLDATASIZE PUSH1 0x4 PUSH2 0xF4F JUMP JUMPDEST PUSH2 0xC0F JUMP JUMPDEST PUSH1 0x40 MLOAD SWAP1 ISZERO ISZERO DUP2 MSTORE PUSH1 0x20 ADD PUSH2 0x1AB JUMP JUMPDEST CALLVALUE DUP1 ISZERO PUSH2 0x34B JUMPI PUSH1 0x0 DUP1 REVERT JUMPDEST POP PUSH2 0x1A1 PUSH2 0x35A CALLDATASIZE PUSH1 0x4 PUSH2 0xF4F JUMP JUMPDEST PUSH1 0x6 PUSH1 0x20 MSTORE PUSH1 0x0 SWAP1 DUP2 MSTORE PUSH1 0x40 SWAP1 KECCAK256 SLOAD DUP2 JUMP JUMPDEST CALLVALUE DUP1 ISZERO PUSH2 0x378 JUMPI PUSH1 0x0 DUP1 REVERT JUMPDEST POP PUSH2 0x38C PUSH2 0x387 CALLDATASIZE PUSH1 0x4 PUSH2 0xF4F JUMP JUMPDEST PUSH2 0xC79 JUMP JUMPDEST PUSH1 0x40 DUP1 MLOAD SWAP3 DUP4 MSTORE PUSH1 0x20 DUP4 ADD SWAP2 SWAP1 SWAP2 MSTORE ADD PUSH2 0x1AB JUMP JUMPDEST CALLVALUE DUP1 ISZERO PUSH2 0x3AD JUMPI PUSH1 0x0 DUP1 REVERT JUMPDEST POP PUSH2 0x144 PUSH2 0x3BC CALLDATASIZE PUSH1 0x4 PUSH2 0xF4F JUMP JUMPDEST PUSH2 0xD7A JUMP JUMPDEST CALLVALUE DUP1 ISZERO PUSH2 0x3CD JUMPI PUSH1 0x0 DUP1 REVERT JUMPDEST POP PUSH1 0x7 SLOAD PUSH2 0x22C SWAP1 PUSH1 0x1 PUSH1 0x1 PUSH1 0xA0 SHL SUB AND DUP2 JUMP JUMPDEST CALLVALUE DUP1 ISZERO PUSH2 0x3ED JUMPI PUSH1 0x0 DUP1 REVERT JUMPDEST POP PUSH2 0x22C PUSH2 0x3FC CALLDATASIZE PUSH1 0x4 PUSH2 0xF71 JUMP JUMPDEST PUSH2 0xE12 JUMP JUMPDEST PUSH1 0x0 SLOAD PUSH1 0x1 PUSH1 0x1 PUSH1 0xA0 SHL SUB AND CALLER EQ PUSH2 0x434 JUMPI PUSH1 0x40 MLOAD PUSH3 0x461BCD PUSH1 0xE5 SHL DUP2 MSTORE PUSH1 0x4 ADD PUSH2 0x42B SWAP1 PUSH2 0xF8A JUMP JUMPDEST PUSH1 0x40 MLOAD DUP1 SWAP2 SUB SWAP1 REVERT JUMPDEST PUSH1 0x1 PUSH1 0x1 PUSH1 0xA0 SHL SUB SWAP2 DUP3 AND PUSH1 0x0 SWAP1 DUP2 MSTORE PUSH1 0x3 PUSH1 0x20 MSTORE PUSH1 0x40 SWAP1 KECCAK256 DUP1 SLOAD PUSH1 0x1 PUSH1 0x1 PUSH1 0xA0 SHL SUB NOT AND SWAP2 SWAP1 SWAP3 AND OR SWAP1 SSTORE JUMP JUMPDEST PUSH1 0x0 DUP3 GT PUSH2 0x4B2 JUMPI PUSH1 0x40 MLOAD PUSH3 0x461BCD PUSH1 0xE5 SHL DUP2 MSTORE PUSH1 0x20 PUSH1 0x4 DUP3 ADD MSTORE PUSH1 0x1B PUSH1 0x24 DUP3 ADD MSTORE PUSH32 0x616D6F756E74206D757374206265206D6F7265207468616E2030210000000000 PUSH1 0x44 DUP3 ADD MSTORE PUSH1 0x64 ADD PUSH2 0x42B JUMP JUMPDEST PUSH2 0x4BB DUP2 PUSH2 0xC0F JUMP JUMPDEST PUSH2 0x507 JUMPI PUSH1 0x40 MLOAD PUSH3 0x461BCD PUSH1 0xE5 SHL DUP2 MSTORE PUSH1 0x20 PUSH1 0x4 DUP3 ADD MSTORE PUSH1 0x1F PUSH1 0x24 DUP3 ADD MSTORE PUSH32 0x546F6B656E2069732063757272656E746C79206E6F7420616C6C6F7765642100 PUSH1 0x44 DUP3 ADD MSTORE PUSH1 0x64 ADD PUSH2 0x42B JUMP JUMPDEST PUSH1 0x40 MLOAD PUSH4 0x6EB1769F PUSH1 0xE1 SHL DUP2 MSTORE CALLER PUSH1 0x4 DUP3 ADD MSTORE ADDRESS PUSH1 0x24 DUP3 ADD MSTORE DUP3 SWAP1 PUSH1 0x1 PUSH1 0x1 PUSH1 0xA0 SHL SUB DUP4 AND SWAP1 PUSH4 0xDD62ED3E SWAP1 PUSH1 0x44 ADD PUSH1 0x20 PUSH1 0x40 MLOAD DUP1 DUP4 SUB DUP2 DUP7 GAS STATICCALL ISZERO DUP1 ISZERO PUSH2 0x553 JUMPI RETURNDATASIZE PUSH1 0x0 DUP1 RETURNDATACOPY RETURNDATASIZE PUSH1 0x0 REVERT JUMPDEST POP POP POP POP PUSH1 0x40 MLOAD RETURNDATASIZE PUSH1 0x1F NOT PUSH1 0x1F DUP3 ADD AND DUP3 ADD DUP1 PUSH1 0x40 MSTORE POP DUP2 ADD SWAP1 PUSH2 0x577 SWAP2 SWAP1 PUSH2 0xFBF JUMP JUMPDEST LT ISZERO PUSH2 0x5C5 JUMPI PUSH1 0x40 MLOAD PUSH3 0x461BCD PUSH1 0xE5 SHL DUP2 MSTORE PUSH1 0x20 PUSH1 0x4 DUP3 ADD MSTORE PUSH1 0x18 PUSH1 0x24 DUP3 ADD MSTORE PUSH32 0x546F6B656E206578636565647320616C6C6F77616E6365210000000000000000 PUSH1 0x44 DUP3 ADD MSTORE PUSH1 0x64 ADD PUSH2 0x42B JUMP JUMPDEST PUSH1 0x40 MLOAD PUSH4 0x23B872DD PUSH1 0xE0 SHL DUP2 MSTORE CALLER PUSH1 0x4 DUP3 ADD MSTORE ADDRESS PUSH1 0x24 DUP3 ADD MSTORE PUSH1 0x44 DUP2 ADD DUP4 SWAP1 MSTORE PUSH1 0x1 PUSH1 0x1 PUSH1 0xA0 SHL SUB DUP3 AND SWAP1 PUSH4 0x23B872DD SWAP1 PUSH1 0x64 ADD PUSH1 0x20 PUSH1 0x40 MLOAD DUP1 DUP4 SUB DUP2 PUSH1 0x0 DUP8 GAS CALL ISZERO DUP1 ISZERO PUSH2 0x618 JUMPI RETURNDATASIZE PUSH1 0x0 DUP1 RETURNDATACOPY RETURNDATASIZE PUSH1 0x0 REVERT JUMPDEST POP POP POP POP PUSH1 0x40 MLOAD RETURNDATASIZE PUSH1 0x1F NOT PUSH1 0x1F DUP3 ADD AND DUP3 ADD DUP1 PUSH1 0x40 MSTORE POP DUP2 ADD SWAP1 PUSH2 0x63C SWAP2 SWAP1 PUSH2 0xFD8 JUMP JUMPDEST POP PUSH2 0x647 CALLER DUP3 PUSH2 0xE22 JUMP JUMPDEST PUSH1 0x1 PUSH1 0x1 PUSH1 0xA0 SHL SUB DUP2 AND PUSH1 0x0 SWAP1 DUP2 MSTORE PUSH1 0x1 PUSH1 0x20 SWAP1 DUP2 MSTORE PUSH1 0x40 DUP1 DUP4 KECCAK256 CALLER DUP5 MSTORE SWAP1 SWAP2 MSTORE SWAP1 KECCAK256 SLOAD PUSH2 0x676 SWAP1 DUP4 SWAP1 PUSH2 0x1010 JUMP JUMPDEST PUSH1 0x1 PUSH1 0x1 PUSH1 0xA0 SHL SUB DUP3 AND PUSH1 0x0 SWAP1 DUP2 MSTORE PUSH1 0x1 PUSH1 0x20 DUP2 DUP2 MSTORE PUSH1 0x40 DUP1 DUP5 KECCAK256 CALLER DUP6 MSTORE DUP3 MSTORE DUP1 DUP5 KECCAK256 SWAP5 SWAP1 SWAP5 SSTORE PUSH1 0x2 SWAP1 MSTORE SWAP2 SWAP1 KECCAK256 SLOAD EQ ISZERO PUSH2 0x6EE JUMPI PUSH1 0x4 DUP1 SLOAD PUSH1 0x1 DUP2 ADD DUP3 SSTORE PUSH1 0x0 SWAP2 SWAP1 SWAP2 MSTORE PUSH32 0x8A35ACFBC15FF81A39AE7D344FD709F28E8600B4AA8C65C6B64BFE7FE36BD19B ADD DUP1 SLOAD PUSH1 0x1 PUSH1 0x1 PUSH1 0xA0 SHL SUB NOT AND CALLER OR SWAP1 SSTORE JUMPDEST POP POP JUMP JUMPDEST PUSH1 0x0 CALLVALUE GT PUSH2 0x742 JUMPI PUSH1 0x40 MLOAD PUSH3 0x461BCD PUSH1 0xE5 SHL DUP2 MSTORE PUSH1 0x20 PUSH1 0x4 DUP3 ADD MSTORE PUSH1 0x1B PUSH1 0x24 DUP3 ADD MSTORE PUSH32 0x616D6F756E74206D757374206265206D6F7265207468616E2030210000000000 PUSH1 0x44 DUP3 ADD MSTORE PUSH1 0x64 ADD PUSH2 0x42B JUMP JUMPDEST CALLER PUSH1 0x0 SWAP1 DUP2 MSTORE PUSH1 0x6 PUSH1 0x20 MSTORE PUSH1 0x40 DUP2 KECCAK256 DUP1 SLOAD CALLVALUE SWAP3 SWAP1 PUSH2 0x761 SWAP1 DUP5 SWAP1 PUSH2 0x1010 JUMP JUMPDEST SWAP1 SWAP2 SSTORE POP POP CALLER PUSH1 0x0 SWAP1 DUP2 MSTORE PUSH1 0x2 PUSH1 0x20 MSTORE PUSH1 0x40 SWAP1 KECCAK256 SLOAD PUSH1 0x1 EQ ISZERO PUSH2 0x7C1 JUMPI PUSH1 0x4 DUP1 SLOAD PUSH1 0x1 DUP2 ADD DUP3 SSTORE PUSH1 0x0 SWAP2 SWAP1 SWAP2 MSTORE PUSH32 0x8A35ACFBC15FF81A39AE7D344FD709F28E8600B4AA8C65C6B64BFE7FE36BD19B ADD DUP1 SLOAD PUSH1 0x1 PUSH1 0x1 PUSH1 0xA0 SHL SUB NOT AND CALLER OR SWAP1 SSTORE JUMPDEST JUMP JUMPDEST PUSH1 0x0 SLOAD PUSH1 0x1 PUSH1 0x1 PUSH1 0xA0 SHL SUB AND CALLER EQ PUSH2 0x7ED JUMPI PUSH1 0x40 MLOAD PUSH3 0x461BCD PUSH1 0xE5 SHL DUP2 MSTORE PUSH1 0x4 ADD PUSH2 0x42B SWAP1 PUSH2 0xF8A JUMP JUMPDEST PUSH1 0x5 DUP1 SLOAD PUSH1 0x1 DUP2 ADD DUP3 SSTORE PUSH1 0x0 SWAP2 SWAP1 SWAP2 MSTORE PUSH32 0x36B6384B5ECA791C62761152D0C79BB0604C104A5FB6F4EB0703F3154BB3DB0 ADD DUP1 SLOAD PUSH1 0x1 PUSH1 0x1 PUSH1 0xA0 SHL SUB NOT AND PUSH1 0x1 PUSH1 0x1 PUSH1 0xA0 SHL SUB SWAP3 SWAP1 SWAP3 AND SWAP2 SWAP1 SWAP2 OR SWAP1 SSTORE JUMP JUMPDEST PUSH1 0x1 PUSH1 0x1 PUSH1 0xA0 SHL SUB DUP3 AND PUSH1 0x0 SWAP1 DUP2 MSTORE PUSH1 0x2 PUSH1 0x20 MSTORE PUSH1 0x40 DUP2 KECCAK256 SLOAD PUSH2 0x864 JUMPI POP PUSH1 0x0 PUSH2 0x8C0 JUMP JUMPDEST PUSH1 0x0 DUP1 PUSH2 0x870 DUP5 PUSH2 0xC79 JUMP JUMPDEST SWAP1 SWAP3 POP SWAP1 POP PUSH2 0x880 DUP2 PUSH1 0xA PUSH2 0x110C JUMP JUMPDEST PUSH1 0x1 PUSH1 0x1 PUSH1 0xA0 SHL SUB DUP1 DUP7 AND PUSH1 0x0 SWAP1 DUP2 MSTORE PUSH1 0x1 PUSH1 0x20 SWAP1 DUP2 MSTORE PUSH1 0x40 DUP1 DUP4 KECCAK256 SWAP4 DUP11 AND DUP4 MSTORE SWAP3 SWAP1 MSTORE KECCAK256 SLOAD PUSH2 0x8B1 SWAP1 DUP5 SWAP1 PUSH2 0x1118 JUMP JUMPDEST PUSH2 0x8BB SWAP2 SWAP1 PUSH2 0x1137 JUMP JUMPDEST SWAP3 POP POP POP JUMPDEST SWAP3 SWAP2 POP POP JUMP JUMPDEST PUSH1 0x1 PUSH1 0x1 PUSH1 0xA0 SHL SUB DUP2 AND PUSH1 0x0 SWAP1 DUP2 MSTORE PUSH1 0x1 PUSH1 0x20 SWAP1 DUP2 MSTORE PUSH1 0x40 DUP1 DUP4 KECCAK256 CALLER DUP5 MSTORE SWAP1 SWAP2 MSTORE SWAP1 KECCAK256 SLOAD DUP1 PUSH2 0x937 JUMPI PUSH1 0x40 MLOAD PUSH3 0x461BCD PUSH1 0xE5 SHL DUP2 MSTORE PUSH1 0x20 PUSH1 0x4 DUP3 ADD MSTORE PUSH1 0x1C PUSH1 0x24 DUP3 ADD MSTORE PUSH32 0x5374616B696E672062616C616E63652063616E6E6F7420626520302100000000 PUSH1 0x44 DUP3 ADD MSTORE PUSH1 0x64 ADD PUSH2 0x42B JUMP JUMPDEST PUSH1 0x40 MLOAD PUSH4 0xA9059CBB PUSH1 0xE0 SHL DUP2 MSTORE CALLER PUSH1 0x4 DUP3 ADD MSTORE PUSH1 0x24 DUP2 ADD DUP3 SWAP1 MSTORE PUSH1 0x1 PUSH1 0x1 PUSH1 0xA0 SHL SUB DUP4 AND SWAP1 PUSH4 0xA9059CBB SWAP1 PUSH1 0x44 ADD PUSH1 0x20 PUSH1 0x40 MLOAD DUP1 DUP4 SUB DUP2 PUSH1 0x0 DUP8 GAS CALL ISZERO DUP1 ISZERO PUSH2 0x984 JUMPI RETURNDATASIZE PUSH1 0x0 DUP1 RETURNDATACOPY RETURNDATASIZE PUSH1 0x0 REVERT JUMPDEST POP POP POP POP PUSH1 0x40 MLOAD RETURNDATASIZE PUSH1 0x1F NOT PUSH1 0x1F DUP3 ADD AND DUP3 ADD DUP1 PUSH1 0x40 MSTORE POP DUP2 ADD SWAP1 PUSH2 0x9A8 SWAP2 SWAP1 PUSH2 0xFD8 JUMP JUMPDEST POP PUSH1 0x1 PUSH1 0x1 PUSH1 0xA0 SHL SUB DUP3 AND PUSH1 0x0 SWAP1 DUP2 MSTORE PUSH1 0x1 PUSH1 0x20 DUP2 DUP2 MSTORE PUSH1 0x40 DUP1 DUP5 KECCAK256 CALLER DUP6 MSTORE DUP3 MSTORE DUP1 DUP5 KECCAK256 DUP5 SWAP1 SSTORE PUSH1 0x2 SWAP1 SWAP2 MSTORE SWAP1 SWAP2 KECCAK256 SLOAD PUSH2 0x9E2 SWAP2 SWAP1 PUSH2 0x1159 JUMP JUMPDEST CALLER PUSH1 0x0 SWAP1 DUP2 MSTORE PUSH1 0x2 PUSH1 0x20 MSTORE PUSH1 0x40 SWAP1 KECCAK256 SSTORE POP POP JUMP JUMPDEST PUSH1 0x5 DUP2 DUP2 SLOAD DUP2 LT PUSH2 0xA06 JUMPI PUSH1 0x0 DUP1 REVERT JUMPDEST PUSH1 0x0 SWAP2 DUP3 MSTORE PUSH1 0x20 SWAP1 SWAP2 KECCAK256 ADD SLOAD PUSH1 0x1 PUSH1 0x1 PUSH1 0xA0 SHL SUB AND SWAP1 POP DUP2 JUMP JUMPDEST PUSH1 0x0 SLOAD PUSH1 0x1 PUSH1 0x1 PUSH1 0xA0 SHL SUB AND CALLER EQ PUSH2 0xA4A JUMPI PUSH1 0x40 MLOAD PUSH3 0x461BCD PUSH1 0xE5 SHL DUP2 MSTORE PUSH1 0x4 ADD PUSH2 0x42B SWAP1 PUSH2 0xF8A JUMP JUMPDEST PUSH1 0x0 JUMPDEST PUSH1 0x4 SLOAD DUP2 LT ISZERO PUSH2 0xB1A JUMPI PUSH1 0x0 PUSH1 0x4 DUP3 DUP2 SLOAD DUP2 LT PUSH2 0xA6C JUMPI PUSH2 0xA6C PUSH2 0x1170 JUMP JUMPDEST PUSH1 0x0 SWAP2 DUP3 MSTORE PUSH1 0x20 DUP3 KECCAK256 ADD SLOAD PUSH1 0x1 PUSH1 0x1 PUSH1 0xA0 SHL SUB AND SWAP2 POP PUSH2 0xA8B DUP3 PUSH2 0xB51 JUMP JUMPDEST PUSH1 0x7 SLOAD PUSH1 0x40 MLOAD PUSH4 0xA9059CBB PUSH1 0xE0 SHL DUP2 MSTORE PUSH1 0x1 PUSH1 0x1 PUSH1 0xA0 SHL SUB DUP6 DUP2 AND PUSH1 0x4 DUP4 ADD MSTORE PUSH1 0x24 DUP3 ADD DUP5 SWAP1 MSTORE SWAP3 SWAP4 POP SWAP2 AND SWAP1 PUSH4 0xA9059CBB SWAP1 PUSH1 0x44 ADD PUSH1 0x20 PUSH1 0x40 MLOAD DUP1 DUP4 SUB DUP2 PUSH1 0x0 DUP8 GAS CALL ISZERO DUP1 ISZERO PUSH2 0xAE0 JUMPI RETURNDATASIZE PUSH1 0x0 DUP1 RETURNDATACOPY RETURNDATASIZE PUSH1 0x0 REVERT JUMPDEST POP POP POP POP PUSH1 0x40 MLOAD RETURNDATASIZE PUSH1 0x1F NOT PUSH1 0x1F DUP3 ADD AND DUP3 ADD DUP1 PUSH1 0x40 MSTORE POP DUP2 ADD SWAP1 PUSH2 0xB04 SWAP2 SWAP1 PUSH2 0xFD8 JUMP JUMPDEST POP POP POP DUP1 DUP1 PUSH2 0xB12 SWAP1 PUSH2 0x1186 JUMP JUMPDEST SWAP2 POP POP PUSH2 0xA4D JUMP JUMPDEST POP JUMP JUMPDEST PUSH1 0x0 SLOAD PUSH1 0x1 PUSH1 0x1 PUSH1 0xA0 SHL SUB AND CALLER EQ PUSH2 0xB47 JUMPI PUSH1 0x40 MLOAD PUSH3 0x461BCD PUSH1 0xE5 SHL DUP2 MSTORE PUSH1 0x4 ADD PUSH2 0x42B SWAP1 PUSH2 0xF8A JUMP JUMPDEST PUSH2 0x7C1 PUSH1 0x0 PUSH2 0xE8D JUMP JUMPDEST PUSH1 0x1 PUSH1 0x1 PUSH1 0xA0 SHL SUB DUP2 AND PUSH1 0x0 SWAP1 DUP2 MSTORE PUSH1 0x2 PUSH1 0x20 MSTORE PUSH1 0x40 DUP2 KECCAK256 SLOAD DUP2 SWAP1 PUSH2 0xBAC JUMPI PUSH1 0x40 MLOAD PUSH3 0x461BCD PUSH1 0xE5 SHL DUP2 MSTORE PUSH1 0x20 PUSH1 0x4 DUP3 ADD MSTORE PUSH1 0x11 PUSH1 0x24 DUP3 ADD MSTORE PUSH17 0x4E6F20746F6B656E73207374616B656421 PUSH1 0x78 SHL PUSH1 0x44 DUP3 ADD MSTORE PUSH1 0x64 ADD PUSH2 0x42B JUMP JUMPDEST PUSH1 0x0 JUMPDEST PUSH1 0x5 SLOAD DUP2 LT ISZERO PUSH2 0xC08 JUMPI PUSH2 0xBEA DUP5 PUSH1 0x5 DUP4 DUP2 SLOAD DUP2 LT PUSH2 0xBD0 JUMPI PUSH2 0xBD0 PUSH2 0x1170 JUMP JUMPDEST PUSH1 0x0 SWAP2 DUP3 MSTORE PUSH1 0x20 SWAP1 SWAP2 KECCAK256 ADD SLOAD PUSH1 0x1 PUSH1 0x1 PUSH1 0xA0 SHL SUB AND PUSH2 0x83F JUMP JUMPDEST PUSH2 0xBF4 SWAP1 DUP4 PUSH2 0x1010 JUMP JUMPDEST SWAP2 POP DUP1 PUSH2 0xC00 DUP2 PUSH2 0x1186 JUMP JUMPDEST SWAP2 POP POP PUSH2 0xBAF JUMP JUMPDEST POP SWAP3 SWAP2 POP POP JUMP JUMPDEST PUSH1 0x0 DUP1 JUMPDEST PUSH1 0x5 SLOAD DUP2 LT ISZERO PUSH2 0xC70 JUMPI DUP3 PUSH1 0x1 PUSH1 0x1 PUSH1 0xA0 SHL SUB AND PUSH1 0x5 DUP3 DUP2 SLOAD DUP2 LT PUSH2 0xC3A JUMPI PUSH2 0xC3A PUSH2 0x1170 JUMP JUMPDEST PUSH1 0x0 SWAP2 DUP3 MSTORE PUSH1 0x20 SWAP1 SWAP2 KECCAK256 ADD SLOAD PUSH1 0x1 PUSH1 0x1 PUSH1 0xA0 SHL SUB AND EQ ISZERO PUSH2 0xC5E JUMPI POP PUSH1 0x1 SWAP3 SWAP2 POP POP JUMP JUMPDEST DUP1 PUSH2 0xC68 DUP2 PUSH2 0x1186 JUMP JUMPDEST SWAP2 POP POP PUSH2 0xC13 JUMP JUMPDEST POP PUSH1 0x0 SWAP3 SWAP2 POP POP JUMP JUMPDEST PUSH1 0x1 PUSH1 0x1 PUSH1 0xA0 SHL SUB DUP1 DUP3 AND PUSH1 0x0 SWAP1 DUP2 MSTORE PUSH1 0x3 PUSH1 0x20 MSTORE PUSH1 0x40 DUP1 DUP3 KECCAK256 SLOAD DUP2 MLOAD PUSH4 0x3FABE5A3 PUSH1 0xE2 SHL DUP2 MSTORE SWAP2 MLOAD SWAP3 SWAP4 DUP5 SWAP4 SWAP2 AND SWAP2 DUP3 SWAP2 DUP5 SWAP2 DUP4 SWAP2 PUSH4 0xFEAF968C SWAP2 PUSH1 0x4 DUP1 DUP3 ADD SWAP3 PUSH1 0xA0 SWAP3 SWAP1 SWAP2 SWAP1 DUP3 SWAP1 SUB ADD DUP2 DUP7 GAS STATICCALL ISZERO DUP1 ISZERO PUSH2 0xCDA JUMPI RETURNDATASIZE PUSH1 0x0 DUP1 RETURNDATACOPY RETURNDATASIZE PUSH1 0x0 REVERT JUMPDEST POP POP POP POP PUSH1 0x40 MLOAD RETURNDATASIZE PUSH1 0x1F NOT PUSH1 0x1F DUP3 ADD AND DUP3 ADD DUP1 PUSH1 0x40 MSTORE POP DUP2 ADD SWAP1 PUSH2 0xCFE SWAP2 SWAP1 PUSH2 0x11BB JUMP JUMPDEST POP POP POP SWAP2 POP POP PUSH1 0x0 DUP3 PUSH1 0x1 PUSH1 0x1 PUSH1 0xA0 SHL SUB AND PUSH4 0x313CE567 PUSH1 0x40 MLOAD DUP2 PUSH4 0xFFFFFFFF AND PUSH1 0xE0 SHL DUP2 MSTORE PUSH1 0x4 ADD PUSH1 0x20 PUSH1 0x40 MLOAD DUP1 DUP4 SUB DUP2 DUP7 GAS STATICCALL ISZERO DUP1 ISZERO PUSH2 0xD44 JUMPI RETURNDATASIZE PUSH1 0x0 DUP1 RETURNDATACOPY RETURNDATASIZE PUSH1 0x0 REVERT JUMPDEST POP POP POP POP PUSH1 0x40 MLOAD RETURNDATASIZE PUSH1 0x1F NOT PUSH1 0x1F DUP3 ADD AND DUP3 ADD DUP1 PUSH1 0x40 MSTORE POP DUP2 ADD SWAP1 PUSH2 0xD68 SWAP2 SWAP1 PUSH2 0x120B JUMP JUMPDEST SWAP2 SWAP8 PUSH1 0xFF SWAP1 SWAP3 AND SWAP7 POP SWAP1 SWAP5 POP POP POP POP POP JUMP JUMPDEST PUSH1 0x0 SLOAD PUSH1 0x1 PUSH1 0x1 PUSH1 0xA0 SHL SUB AND CALLER EQ PUSH2 0xDA4 JUMPI PUSH1 0x40 MLOAD PUSH3 0x461BCD PUSH1 0xE5 SHL DUP2 MSTORE PUSH1 0x4 ADD PUSH2 0x42B SWAP1 PUSH2 0xF8A JUMP JUMPDEST PUSH1 0x1 PUSH1 0x1 PUSH1 0xA0 SHL SUB DUP2 AND PUSH2 0xE09 JUMPI PUSH1 0x40 MLOAD PUSH3 0x461BCD PUSH1 0xE5 SHL DUP2 MSTORE PUSH1 0x20 PUSH1 0x4 DUP3 ADD MSTORE PUSH1 0x26 PUSH1 0x24 DUP3 ADD MSTORE PUSH32 0x4F776E61626C653A206E6577206F776E657220697320746865207A65726F2061 PUSH1 0x44 DUP3 ADD MSTORE PUSH6 0x646472657373 PUSH1 0xD0 SHL PUSH1 0x64 DUP3 ADD MSTORE PUSH1 0x84 ADD PUSH2 0x42B JUMP JUMPDEST PUSH2 0xB1A DUP2 PUSH2 0xE8D JUMP JUMPDEST PUSH1 0x4 DUP2 DUP2 SLOAD DUP2 LT PUSH2 0xA06 JUMPI PUSH1 0x0 DUP1 REVERT JUMPDEST PUSH1 0x1 PUSH1 0x1 PUSH1 0xA0 SHL SUB DUP1 DUP3 AND PUSH1 0x0 SWAP1 DUP2 MSTORE PUSH1 0x1 PUSH1 0x20 SWAP1 DUP2 MSTORE PUSH1 0x40 DUP1 DUP4 KECCAK256 SWAP4 DUP7 AND DUP4 MSTORE SWAP3 SWAP1 MSTORE KECCAK256 SLOAD PUSH2 0x6EE JUMPI PUSH1 0x1 PUSH1 0x1 PUSH1 0xA0 SHL SUB DUP3 AND PUSH1 0x0 SWAP1 DUP2 MSTORE PUSH1 0x2 PUSH1 0x20 MSTORE PUSH1 0x40 SWAP1 KECCAK256 SLOAD PUSH2 0xE70 SWAP1 PUSH1 0x1 PUSH2 0x1010 JUMP JUMPDEST PUSH1 0x1 PUSH1 0x1 PUSH1 0xA0 SHL SUB DUP4 AND PUSH1 0x0 SWAP1 DUP2 MSTORE PUSH1 0x2 PUSH1 0x20 MSTORE PUSH1 0x40 SWAP1 KECCAK256 SSTORE POP POP JUMP JUMPDEST PUSH1 0x0 DUP1 SLOAD PUSH1 0x1 PUSH1 0x1 PUSH1 0xA0 SHL SUB DUP4 DUP2 AND PUSH1 0x1 PUSH1 0x1 PUSH1 0xA0 SHL SUB NOT DUP4 AND DUP2 OR DUP5 SSTORE PUSH1 0x40 MLOAD SWAP2 SWAP1 SWAP3 AND SWAP3 DUP4 SWAP2 PUSH32 0x8BE0079C531659141344CD1FD0A4F28419497F9722A3DAAFE3B4186F6B6457E0 SWAP2 SWAP1 LOG3 POP POP JUMP JUMPDEST DUP1 CALLDATALOAD PUSH1 0x1 PUSH1 0x1 PUSH1 0xA0 SHL SUB DUP2 AND DUP2 EQ PUSH2 0xEF4 JUMPI PUSH1 0x0 DUP1 REVERT JUMPDEST SWAP2 SWAP1 POP JUMP JUMPDEST PUSH1 0x0 DUP1 PUSH1 0x40 DUP4 DUP6 SUB SLT ISZERO PUSH2 0xF0C JUMPI PUSH1 0x0 DUP1 REVERT JUMPDEST PUSH2 0xF15 DUP4 PUSH2 0xEDD JUMP JUMPDEST SWAP2 POP PUSH2 0xF23 PUSH1 0x20 DUP5 ADD PUSH2 0xEDD JUMP JUMPDEST SWAP1 POP SWAP3 POP SWAP3 SWAP1 POP JUMP JUMPDEST PUSH1 0x0 DUP1 PUSH1 0x40 DUP4 DUP6 SUB SLT ISZERO PUSH2 0xF3F JUMPI PUSH1 0x0 DUP1 REVERT JUMPDEST DUP3 CALLDATALOAD SWAP2 POP PUSH2 0xF23 PUSH1 0x20 DUP5 ADD PUSH2 0xEDD JUMP JUMPDEST PUSH1 0x0 PUSH1 0x20 DUP3 DUP5 SUB SLT ISZERO PUSH2 0xF61 JUMPI PUSH1 0x0 DUP1 REVERT JUMPDEST PUSH2 0xF6A DUP3 PUSH2 0xEDD JUMP JUMPDEST SWAP4 SWAP3 POP POP POP JUMP JUMPDEST PUSH1 0x0 PUSH1 0x20 DUP3 DUP5 SUB SLT ISZERO PUSH2 0xF83 JUMPI PUSH1 0x0 DUP1 REVERT JUMPDEST POP CALLDATALOAD SWAP2 SWAP1 POP JUMP JUMPDEST PUSH1 0x20 DUP1 DUP3 MSTORE DUP2 DUP2 ADD MSTORE PUSH32 0x4F776E61626C653A2063616C6C6572206973206E6F7420746865206F776E6572 PUSH1 0x40 DUP3 ADD MSTORE PUSH1 0x60 ADD SWAP1 JUMP JUMPDEST PUSH1 0x0 PUSH1 0x20 DUP3 DUP5 SUB SLT ISZERO PUSH2 0xFD1 JUMPI PUSH1 0x0 DUP1 REVERT JUMPDEST POP MLOAD SWAP2 SWAP1 POP JUMP JUMPDEST PUSH1 0x0 PUSH1 0x20 DUP3 DUP5 SUB SLT ISZERO PUSH2 0xFEA JUMPI PUSH1 0x0 DUP1 REVERT JUMPDEST DUP2 MLOAD DUP1 ISZERO ISZERO DUP2 EQ PUSH2 0xF6A JUMPI PUSH1 0x0 DUP1 REVERT JUMPDEST PUSH4 0x4E487B71 PUSH1 0xE0 SHL PUSH1 0x0 MSTORE PUSH1 0x11 PUSH1 0x4 MSTORE PUSH1 0x24 PUSH1 0x0 REVERT JUMPDEST PUSH1 0x0 DUP3 NOT DUP3 GT ISZERO PUSH2 0x1023 JUMPI PUSH2 0x1023 PUSH2 0xFFA JUMP JUMPDEST POP ADD SWAP1 JUMP JUMPDEST PUSH1 0x1 DUP2 DUP2 JUMPDEST DUP1 DUP6 GT ISZERO PUSH2 0x1063 JUMPI DUP2 PUSH1 0x0 NOT DIV DUP3 GT ISZERO PUSH2 0x1049 JUMPI PUSH2 0x1049 PUSH2 0xFFA JUMP JUMPDEST DUP1 DUP6 AND ISZERO PUSH2 0x1056 JUMPI SWAP2 DUP2 MUL SWAP2 JUMPDEST SWAP4 DUP5 SHR SWAP4 SWAP1 DUP1 MUL SWAP1 PUSH2 0x102D JUMP JUMPDEST POP SWAP3 POP SWAP3 SWAP1 POP JUMP JUMPDEST PUSH1 0x0 DUP3 PUSH2 0x107A JUMPI POP PUSH1 0x1 PUSH2 0x8C0 JUMP JUMPDEST DUP2 PUSH2 0x1087 JUMPI POP PUSH1 0x0 PUSH2 0x8C0 JUMP JUMPDEST DUP2 PUSH1 0x1 DUP2 EQ PUSH2 0x109D JUMPI PUSH1 0x2 DUP2 EQ PUSH2 0x10A7 JUMPI PUSH2 0x10C3 JUMP JUMPDEST PUSH1 0x1 SWAP2 POP POP PUSH2 0x8C0 JUMP JUMPDEST PUSH1 0xFF DUP5 GT ISZERO PUSH2 0x10B8 JUMPI PUSH2 0x10B8 PUSH2 0xFFA JUMP JUMPDEST POP POP PUSH1 0x1 DUP3 SHL PUSH2 0x8C0 JUMP JUMPDEST POP PUSH1 0x20 DUP4 LT PUSH2 0x133 DUP4 LT AND PUSH1 0x4E DUP5 LT PUSH1 0xB DUP5 LT AND OR ISZERO PUSH2 0x10E6 JUMPI POP DUP2 DUP2 EXP PUSH2 0x8C0 JUMP JUMPDEST PUSH2 0x10F0 DUP4 DUP4 PUSH2 0x1028 JUMP JUMPDEST DUP1 PUSH1 0x0 NOT DIV DUP3 GT ISZERO PUSH2 0x1104 JUMPI PUSH2 0x1104 PUSH2 0xFFA JUMP JUMPDEST MUL SWAP4 SWAP3 POP POP POP JUMP JUMPDEST PUSH1 0x0 PUSH2 0xF6A DUP4 DUP4 PUSH2 0x106B JUMP JUMPDEST PUSH1 0x0 DUP2 PUSH1 0x0 NOT DIV DUP4 GT DUP3 ISZERO ISZERO AND ISZERO PUSH2 0x1132 JUMPI PUSH2 0x1132 PUSH2 0xFFA JUMP JUMPDEST POP MUL SWAP1 JUMP JUMPDEST PUSH1 0x0 DUP3 PUSH2 0x1154 JUMPI PUSH4 0x4E487B71 PUSH1 0xE0 SHL PUSH1 0x0 MSTORE PUSH1 0x12 PUSH1 0x4 MSTORE PUSH1 0x24 PUSH1 0x0 REVERT JUMPDEST POP DIV SWAP1 JUMP JUMPDEST PUSH1 0x0 DUP3 DUP3 LT ISZERO PUSH2 0x116B JUMPI PUSH2 0x116B PUSH2 0xFFA JUMP JUMPDEST POP SUB SWAP1 JUMP JUMPDEST PUSH4 0x4E487B71 PUSH1 0xE0 SHL PUSH1 0x0 MSTORE PUSH1 0x32 PUSH1 0x4 MSTORE PUSH1 0x24 PUSH1 0x0 REVERT JUMPDEST PUSH1 0x0 PUSH1 0x0 NOT DUP3 EQ ISZERO PUSH2 0x119A JUMPI PUSH2 0x119A PUSH2 0xFFA JUMP JUMPDEST POP PUSH1 0x1 ADD SWAP1 JUMP JUMPDEST DUP1 MLOAD PUSH10 0xFFFFFFFFFFFFFFFFFFFF DUP2 AND DUP2 EQ PUSH2 0xEF4 JUMPI PUSH1 0x0 DUP1 REVERT JUMPDEST PUSH1 0x0 DUP1 PUSH1 0x0 DUP1 PUSH1 0x0 PUSH1 0xA0 DUP7 DUP9 SUB SLT ISZERO PUSH2 0x11D3 JUMPI PUSH1 0x0 DUP1 REVERT JUMPDEST PUSH2 0x11DC DUP7 PUSH2 0x11A1 JUMP JUMPDEST SWAP5 POP PUSH1 0x20 DUP7 ADD MLOAD SWAP4 POP PUSH1 0x40 DUP7 ADD MLOAD SWAP3 POP PUSH1 0x60 DUP7 ADD MLOAD SWAP2 POP PUSH2 0x11FF PUSH1 0x80 DUP8 ADD PUSH2 0x11A1 JUMP JUMPDEST SWAP1 POP SWAP3 SWAP6 POP SWAP3 SWAP6 SWAP1 SWAP4 POP JUMP JUMPDEST PUSH1 0x0 PUSH1 0x20 DUP3 DUP5 SUB SLT ISZERO PUSH2 0x121D JUMPI PUSH1 0x0 DUP1 REVERT JUMPDEST DUP2 MLOAD PUSH1 0xFF DUP2 AND DUP2 EQ PUSH2 0xF6A JUMPI PUSH1 0x0 DUP1 REVERT INVALID LOG2 PUSH5 0x6970667358 0x22 SLT KECCAK256 0xD0 0xFB SLT PUSH10 0x92276F74F9CA52E7C2E7 BYTE SWAP10 PUSH7 0x64FD2DD052ABD7 0x25 0xD MSTORE8 POP BYTE SHL 0x5E COINBASE PUSH5 0x736F6C6343 STOP ADDMOD SIGNEXTEND STOP CALLER ",
  "sha1": "e4108aedfdb220509f561d0961b45f5f04f4d48b",
  "source": "// SPDX-License-Identifier: MIT\npragma solidity ^0.8.10;\n\nimport \"@openzeppelin/contracts/access/Ownable.sol\";\nimport \"@openzeppelin/contracts/token/ERC20/IERC20.sol\";\n\ninterface AggregatorV3Interface {\n    function decimals() external view returns (uint8);\n\n    function description() external view returns (string memory);\n\n    function version() external view returns (uint256);\n\n    // getRoundData and latestRoundData should both raise \"No data present\"\n    // if they do not have data to report, instead of returning unset values\n    // which could be misinterpreted as actual reported values.\n    function getRoundData(uint80 _roundId)\n        external\n        view\n        returns (\n            uint80 roundId,\n            int256 answer,\n            uint256 startedAt,\n            uint256 updatedAt,\n            uint80 answeredInRound\n        );\n\n    function latestRoundData()\n        external\n        view\n        returns (\n            uint80 roundId,\n            int256 answer,\n            uint256 startedAt,\n            uint256 updatedAt,\n            uint80 answeredInRound\n        );\n}\n\ncontract AniwarFarm is Ownable {\n    mapping(address => mapping(address => uint256)) public stakingBalance;\n    mapping(address => uint256) public uniqueTokensStaked;\n    mapping(address => address) public tokenDataFeedMapping;\n    address[] public stakers;\n    address[] public allowedTokens;\n    mapping(address => uint256) public stakingBnbBalance;\n    IERC20 public token;\n\n    constructor(address _tokenAddress) {\n        token = IERC20(_tokenAddress);\n    }\n\n    function setDataFeedContract(address _token, address _dataFeed)\n        public\n        onlyOwner\n    {\n        tokenDataFeedMapping[_token] = _dataFeed;\n    }\n\n    function issueTokens() public onlyOwner {\n        for (\n            uint256 stakersIndex = 0;\n            stakersIndex < stakers.length;\n            stakersIndex++\n        ) {\n            address recipient = stakers[stakersIndex];\n            uint256 userTotalValue = getUserTotalValue(recipient);\n            token.transfer(recipient, userTotalValue);\n        }\n    }\n\n    function getUserTotalValue(address _staker) public view returns (uint256) {\n        uint256 totalValue = 0;\n        require(uniqueTokensStaked[_staker] > 0, \"No tokens staked!\");\n        for (\n            uint256 allowedTokensIndex = 0;\n            allowedTokensIndex < allowedTokens.length;\n            allowedTokensIndex++\n        ) {\n            totalValue =\n                totalValue +\n                getUserSingleTokenValue(\n                    _staker,\n                    allowedTokens[allowedTokensIndex]\n                );\n        }\n        return totalValue;\n    }\n\n    function getUserSingleTokenValue(address _staker, address _token)\n        public\n        view\n        returns (uint256)\n    {\n        if (uniqueTokensStaked[_staker] <= 0) {\n            return 0;\n        }\n        (uint256 price, uint256 decimals) = getTokenValue(_token);\n        return ((stakingBalance[_token][_staker] * price) / 10**decimals);\n    }\n\n    function getTokenValue(address _token)\n        public\n        view\n        returns (uint256, uint256)\n    {\n        address dataFeedAddress = tokenDataFeedMapping[_token];\n        AggregatorV3Interface dataFeed = AggregatorV3Interface(dataFeedAddress);\n        (, int256 price, , , ) = dataFeed.latestRoundData();\n        uint256 decimals = dataFeed.decimals();\n        return (uint256(price), decimals);\n    }\n\n    function stakeTokens(uint256 _amount, address _token) public payable {\n        require(_amount > 0, \"amount must be more than 0!\");\n        require(tokenIsAllowed(_token), \"Token is currently not allowed!\");\n        require(\n            IERC20(_token).allowance(msg.sender, address(this)) >= _amount,\n            \"Token exceeds allowance!\"\n        );\n        IERC20(_token).transferFrom(msg.sender, address(this), _amount);\n        updateUniqueTokensStaked(msg.sender, _token);\n        stakingBalance[_token][msg.sender] =\n            stakingBalance[_token][msg.sender] +\n            _amount;\n        if (uniqueTokensStaked[msg.sender] == 1) {\n            stakers.push(msg.sender);\n        }\n    }\n\n    function stakeBnb() public payable {\n        require(msg.value > 0, \"amount must be more than 0!\");\n        stakingBnbBalance[msg.sender] += msg.value;\n        if (uniqueTokensStaked[msg.sender] == 1) {\n            stakers.push(msg.sender);\n        }\n    }\n\n    function unstakeTokens(address _token) public {\n        uint256 balance = stakingBalance[_token][msg.sender];\n        require(balance > 0, \"Staking balance cannot be 0!\");\n        IERC20(_token).transfer(msg.sender, balance);\n        stakingBalance[_token][msg.sender] = 0;\n        uniqueTokensStaked[msg.sender] = uniqueTokensStaked[msg.sender] - 1;\n    }\n\n    function updateUniqueTokensStaked(address _staker, address _token) private {\n        if (stakingBalance[_token][_staker] <= 0) {\n            uniqueTokensStaked[_staker] = uniqueTokensStaked[_staker] + 1;\n        }\n    }\n\n    function addAllowedTokens(address _token) public onlyOwner {\n        allowedTokens.push(_token);\n    }\n\n    function tokenIsAllowed(address _token) public view returns (bool) {\n        for (\n            uint256 allowedTokensIndex = 0;\n            allowedTokensIndex < allowedTokens.length;\n            allowedTokensIndex++\n        ) {\n            if (allowedTokens[allowedTokensIndex] == _token) {\n                return true;\n            }\n        }\n        return false;\n    }\n}\n",
  "sourcePath": "contracts/AniwarFarm.sol",
  "type": "contract"
}