{
  "abi": [
    {
      "inputs": [
        {
          "internalType": "address",
          "name": "token_",
          "type": "address"
        },
        {
          "internalType": "uint256",
          "name": "splitDuration_",
          "type": "uint256"
        },
        {
          "internalType": "uint256",
          "name": "price_",
          "type": "uint256"
        },
        {
          "internalType": "address[]",
          "name": "tokensAllowed_",
          "type": "address[]"
        },
        {
          "internalType": "uint256",
          "name": "_initTokenAmount",
          "type": "uint256"
        }
      ],
      "stateMutability": "nonpayable",
      "type": "constructor"
    },
    {
      "anonymous": false,
      "inputs": [
        {
          "indexed": true,
          "internalType": "address",
          "name": "previousOwner",
          "type": "address"
        },
        {
          "indexed": true,
          "internalType": "address",
          "name": "newOwner",
          "type": "address"
        }
      ],
      "name": "OwnershipTransferred",
      "type": "event"
    },
    {
      "anonymous": false,
      "inputs": [
        {
          "indexed": false,
          "internalType": "uint256",
          "name": "amount",
          "type": "uint256"
        }
      ],
      "name": "Released",
      "type": "event"
    },
    {
      "inputs": [
        {
          "internalType": "address",
          "name": "buyerAddress",
          "type": "address"
        },
        {
          "internalType": "uint256",
          "name": "amount",
          "type": "uint256"
        }
      ],
      "name": "addBuyer",
      "outputs": [],
      "stateMutability": "nonpayable",
      "type": "function"
    },
    {
      "inputs": [],
      "name": "burnAddress",
      "outputs": [
        {
          "internalType": "address",
          "name": "",
          "type": "address"
        }
      ],
      "stateMutability": "view",
      "type": "function"
    },
    {
      "inputs": [],
      "name": "burnContractBalanceLeft",
      "outputs": [],
      "stateMutability": "nonpayable",
      "type": "function"
    },
    {
      "inputs": [
        {
          "internalType": "address",
          "name": "_allowedToken",
          "type": "address"
        },
        {
          "internalType": "uint256",
          "name": "tokenAmount",
          "type": "uint256"
        }
      ],
      "name": "buyToken",
      "outputs": [],
      "stateMutability": "nonpayable",
      "type": "function"
    },
    {
      "inputs": [
        {
          "internalType": "address",
          "name": "",
          "type": "address"
        }
      ],
      "name": "buyers",
      "outputs": [
        {
          "internalType": "uint256",
          "name": "totalAllowedAmount",
          "type": "uint256"
        },
        {
          "internalType": "uint256",
          "name": "totalAmount",
          "type": "uint256"
        },
        {
          "internalType": "uint256",
          "name": "amountHasBeenWithdrawn",
          "type": "uint256"
        },
        {
          "internalType": "bool",
          "name": "initialized",
          "type": "bool"
        }
      ],
      "stateMutability": "view",
      "type": "function"
    },
    {
      "inputs": [
        {
          "internalType": "address",
          "name": "_buyerAddress",
          "type": "address"
        }
      ],
      "name": "calculateWithdrawableAmount",
      "outputs": [
        {
          "internalType": "uint256",
          "name": "",
          "type": "uint256"
        }
      ],
      "stateMutability": "view",
      "type": "function"
    },
    {
      "inputs": [],
      "name": "getBalance",
      "outputs": [
        {
          "internalType": "uint256",
          "name": "",
          "type": "uint256"
        }
      ],
      "stateMutability": "view",
      "type": "function"
    },
    {
      "inputs": [],
      "name": "getCurrentTime",
      "outputs": [
        {
          "internalType": "uint256",
          "name": "",
          "type": "uint256"
        }
      ],
      "stateMutability": "view",
      "type": "function"
    },
    {
      "inputs": [
        {
          "internalType": "uint256",
          "name": "_time",
          "type": "uint256"
        }
      ],
      "name": "getSplitByTime",
      "outputs": [
        {
          "internalType": "uint256",
          "name": "",
          "type": "uint256"
        }
      ],
      "stateMutability": "view",
      "type": "function"
    },
    {
      "inputs": [],
      "name": "getTimes",
      "outputs": [
        {
          "internalType": "uint256[12]",
          "name": "",
          "type": "uint256[12]"
        }
      ],
      "stateMutability": "view",
      "type": "function"
    },
    {
      "inputs": [],
      "name": "initTokenAmount",
      "outputs": [
        {
          "internalType": "uint256",
          "name": "",
          "type": "uint256"
        }
      ],
      "stateMutability": "view",
      "type": "function"
    },
    {
      "inputs": [],
      "name": "isStarted",
      "outputs": [
        {
          "internalType": "bool",
          "name": "",
          "type": "bool"
        }
      ],
      "stateMutability": "view",
      "type": "function"
    },
    {
      "inputs": [],
      "name": "owner",
      "outputs": [
        {
          "internalType": "address",
          "name": "",
          "type": "address"
        }
      ],
      "stateMutability": "view",
      "type": "function"
    },
    {
      "inputs": [],
      "name": "price",
      "outputs": [
        {
          "internalType": "uint256",
          "name": "",
          "type": "uint256"
        }
      ],
      "stateMutability": "view",
      "type": "function"
    },
    {
      "inputs": [],
      "name": "release",
      "outputs": [],
      "stateMutability": "nonpayable",
      "type": "function"
    },
    {
      "inputs": [],
      "name": "renounceOwnership",
      "outputs": [],
      "stateMutability": "nonpayable",
      "type": "function"
    },
    {
      "inputs": [],
      "name": "splitCount",
      "outputs": [
        {
          "internalType": "uint256",
          "name": "",
          "type": "uint256"
        }
      ],
      "stateMutability": "view",
      "type": "function"
    },
    {
      "inputs": [],
      "name": "splitDuration",
      "outputs": [
        {
          "internalType": "uint256",
          "name": "",
          "type": "uint256"
        }
      ],
      "stateMutability": "view",
      "type": "function"
    },
    {
      "inputs": [
        {
          "internalType": "uint256",
          "name": "_time",
          "type": "uint256"
        }
      ],
      "name": "startSaleSchedule",
      "outputs": [],
      "stateMutability": "nonpayable",
      "type": "function"
    },
    {
      "inputs": [],
      "name": "startedTime",
      "outputs": [
        {
          "internalType": "uint256",
          "name": "",
          "type": "uint256"
        }
      ],
      "stateMutability": "view",
      "type": "function"
    },
    {
      "inputs": [
        {
          "internalType": "uint256",
          "name": "",
          "type": "uint256"
        }
      ],
      "name": "tokensAllowed",
      "outputs": [
        {
          "internalType": "address",
          "name": "",
          "type": "address"
        }
      ],
      "stateMutability": "view",
      "type": "function"
    },
    {
      "inputs": [],
      "name": "totalSold",
      "outputs": [
        {
          "internalType": "uint256",
          "name": "",
          "type": "uint256"
        }
      ],
      "stateMutability": "view",
      "type": "function"
    },
    {
      "inputs": [
        {
          "internalType": "address",
          "name": "newOwner",
          "type": "address"
        }
      ],
      "name": "transferOwnership",
      "outputs": [],
      "stateMutability": "nonpayable",
      "type": "function"
    }
  ],
  "bytecode": "60a06040523480156200001157600080fd5b5060405162001666380380620016668339810160408190526200003491620001e3565b6200003f33620000df565b600180556001600160a01b0385166200009e5760405162461bcd60e51b815260206004820152601460248201527f546f6b656e20616464726573732077726f6e6721000000000000000000000000604482015260640160405180910390fd5b60068390558151620000b89060089060208501906200012f565b5060075550506001600160a01b039091166080526009805460ff19169055600555620002ea565b600080546001600160a01b038381166001600160a01b0319831681178455604051919092169283917f8be0079c531659141344cd1fd0a4f28419497f9722a3daafe3b4186f6b6457e09190a35050565b82805482825590600052602060002090810192821562000187579160200282015b828111156200018757825182546001600160a01b0319166001600160a01b0390911617825560209092019160019091019062000150565b506200019592915062000199565b5090565b5b808211156200019557600081556001016200019a565b80516001600160a01b0381168114620001c857600080fd5b919050565b634e487b7160e01b600052604160045260246000fd5b600080600080600060a08688031215620001fc57600080fd5b6200020786620001b0565b602087810151604089015160608a01519398509096509450906001600160401b03808211156200023657600080fd5b818901915089601f8301126200024b57600080fd5b815181811115620002605762000260620001cd565b8060051b604051601f19603f83011681018181108582111715620002885762000288620001cd565b60405291825284820192508381018501918c831115620002a757600080fd5b938501935b82851015620002d057620002c085620001b0565b84529385019392850192620002ac565b809750505050505050608086015190509295509295909350565b6080516113596200030d6000396000818161031f0152610b7201526113596000f3fe608060405234801561001057600080fd5b506004361061014d5760003560e01c806386d1a69f116100c3578063a0d4dfbd1161007c578063a0d4dfbd146102a7578063a7ccc0ed146102ba578063cebc6ad5146102c3578063e9ab77e5146102cc578063eb1e5825146102e1578063f2fde38b146102f457600080fd5b806386d1a69f146102175780638da5cb5b1461021f5780639106d7ba146102305780639752d61b1461023957806397a993aa14610242578063a035b1fe1461029e57600080fd5b80633088f6cc116101155780633088f6cc146101a35780634f601030146101b6578063544736e6146101be57806368f8fc10146101db57806370d5ae05146101ee578063715018a61461020f57600080fd5b806312065fe014610152578063268250561461016d57806326aa7c581461017557806329cb924d1461018a5780632db8c33114610190575b600080fd5b61015a610307565b6040519081526020015b60405180910390f35b61015a600c81565b6101886101833660046110ba565b610397565b005b4261015a565b61015a61019e3660046110e4565b610411565b6101886101b13660046110ff565b6104a1565b610188610524565b6009546101cb9060ff1681565b6040519015158152602001610164565b6101886101e93660046110ba565b6106c4565b6101f761dead81565b6040516001600160a01b039091168152602001610164565b610188610a0d565b610188610a43565b6000546001600160a01b03166101f7565b61015a60045481565b61015a60055481565b61027c6102503660046110e4565b600260208190526000918252604090912080546001820154928201546003909201549092919060ff1684565b6040805194855260208501939093529183015215156060820152608001610164565b61015a60065481565b61015a6102b53660046110ff565b610bea565b61015a60075481565b61015a60035481565b6102d4610c61565b6040516101649190611118565b6101f76102ef3660046110ff565b610cc7565b6101886103023660046110e4565b610cf1565b6040516370a0823160e01b81523060048201526000907f00000000000000000000000000000000000000000000000000000000000000006001600160a01b0316906370a0823190602401602060405180830381865afa15801561036e573d6000803e3d6000fd5b505050506040513d601f19601f82011682018060405250810190610392919061114a565b905090565b6000546001600160a01b031633146103ca5760405162461bcd60e51b81526004016103c190611163565b60405180910390fd5b6001600160a01b0382166000908152600260205260409020600381015460ff166103fe5760038101805460ff191660011790555b805461040b9083906111ae565b90555050565b6001600160a01b0381166000908152600260208181526040808420815160808101835281548152600182015493810193909352928301549082015260039091015460ff16151560608201528161046642610bea565b90506000600c82846020015161047c91906111c6565b61048691906111e5565b90508260400151816104989190611207565b95945050505050565b6000546001600160a01b031633146104cb5760405162461bcd60e51b81526004016103c190611163565b60095460ff16156105125760405162461bcd60e51b815260206004820152601160248201527053616c652068617320537461727465642160781b60448201526064016103c1565b6009805460ff19166001179055600355565b600260015414156105475760405162461bcd60e51b81526004016103c19061121e565b60026001556000546001600160a01b031633146105765760405162461bcd60e51b81526004016103c190611163565b60005b6008548110156106bd5760006008828154811061059857610598611255565b6000918252602090912001546040516370a0823160e01b81523060048201526001600160a01b03909116906370a0823190602401602060405180830381865afa1580156105e9573d6000803e3d6000fd5b505050506040513d601f19601f8201168201806040525081019061060d919061114a565b905080156106aa576008828154811061062857610628611255565b60009182526020909120015460405163a9059cbb60e01b815261dead6004820152602481018390526001600160a01b039091169063a9059cbb906044016020604051808303816000875af1158015610684573d6000803e3d6000fd5b505050506040513d601f19601f820116820180604052508101906106a8919061126b565b505b50806106b58161128d565b915050610579565b5060018055565b816000805b6008548110156109c557826001600160a01b0316600882815481106106f0576106f0611255565b6000918252602090912001546001600160a01b031614156109b3576002600154141561072e5760405162461bcd60e51b81526004016103c19061121e565b600260018190553360009081526020919091526040902080548511156107965760405162461bcd60e51b815260206004820152601b60248201527f416c6c6f77656420616d6f756e7420696e737566666963656e7421000000000060448201526064016103c1565b846004546007546107a79190611207565b10156107f55760405162461bcd60e51b815260206004820152601860248201527f416d6f756e74206c65667420696e737566666963656e7421000000000000000060448201526064016103c1565b60006006548661080591906111c6565b604051636eb1769f60e11b8152336004820152306024820152909150879082906001600160a01b0383169063dd62ed3e90604401602060405180830381865afa158015610856573d6000803e3d6000fd5b505050506040513d601f19601f8201168201806040525081019061087a919061114a565b10156108c85760405162461bcd60e51b815260206004820152601d60248201527f416c6c6f77616e636520616d6f756e7420696e737566666963656e742100000060448201526064016103c1565b6040516323b872dd60e01b8152336004820152306024820152604481018390526001600160a01b038216906323b872dd906064016020604051808303816000875af115801561091b573d6000803e3d6000fd5b505050506040513d601f19601f8201168201806040525081019061093f919061126b565b5061095287670de0b6b3a76400006111c6565b60045461095f91906111ae565b60045561097487670de0b6b3a76400006111c6565b836001015461098391906111ae565b600184015561099a87670de0b6b3a76400006111c6565b83546109a69190611207565b9092555050600180805591505b806109bd8161128d565b9150506106c9565b5080610a075760405162461bcd60e51b81526020600482015260116024820152702737ba1020b63637bbb2b2102a37b5b2b760791b60448201526064016103c1565b50505050565b6000546001600160a01b03163314610a375760405162461bcd60e51b81526004016103c190611163565b610a416000610d8c565b565b60095460ff161515600114610a9a5760405162461bcd60e51b815260206004820152601960248201527f53616c6520686173206e6f74205374617274656420596574210000000000000060448201526064016103c1565b60026001541415610abd5760405162461bcd60e51b81526004016103c19061121e565b60026001819055336000818152602092909252604082209190610adf90610411565b905060008111610b275760405162461bcd60e51b8152602060048201526013602482015272416d6f756e7420696e737566666963656e747360681b60448201526064016103c1565b600382015460ff16610b645760405162461bcd60e51b81526004016103c1906020808252600490820152635775743f60e01b604082015260600190565b33610b996001600160a01b037f0000000000000000000000000000000000000000000000000000000000000000168284610ddc565b818360020154610ba991906111ae565b60028401556040518281527ffb81f9b30d73d830c3544b34d827c08142579ee75710b490bab0b3995468c5659060200160405180910390a150506001805550565b6000600354821080610bff575060095460ff16155b15610c0c57506000919050565b600c60055460035484610c1f9190611207565b610c2991906111e5565b10610c365750600c919050565b600554600354610c469084611207565b610c5091906111e5565b610c5b9060016111ae565b92915050565b610c6961107f565b610c7161107f565b60005b600c811015610cc15780600554610c8b91906111c6565b600354610c9891906111ae565b8282600c8110610caa57610caa611255565b602002015280610cb98161128d565b915050610c74565b50919050565b60088181548110610cd757600080fd5b6000918252602090912001546001600160a01b0316905081565b6000546001600160a01b03163314610d1b5760405162461bcd60e51b81526004016103c190611163565b6001600160a01b038116610d805760405162461bcd60e51b815260206004820152602660248201527f4f776e61626c653a206e6577206f776e657220697320746865207a65726f206160448201526564647265737360d01b60648201526084016103c1565b610d8981610d8c565b50565b600080546001600160a01b038381166001600160a01b0319831681178455604051919092169283917f8be0079c531659141344cd1fd0a4f28419497f9722a3daafe3b4186f6b6457e09190a35050565b604080516001600160a01b038416602482015260448082018490528251808303909101815260649091019091526020810180516001600160e01b031663a9059cbb60e01b179052610e2e908490610e33565b505050565b6000610e88826040518060400160405280602081526020017f5361666545524332303a206c6f772d6c6576656c2063616c6c206661696c6564815250856001600160a01b0316610f059092919063ffffffff16565b805190915015610e2e5780806020019051810190610ea6919061126b565b610e2e5760405162461bcd60e51b815260206004820152602a60248201527f5361666545524332303a204552433230206f7065726174696f6e20646964206e6044820152691bdd081cdd58d8d9595960b21b60648201526084016103c1565b6060610f148484600085610f1e565b90505b9392505050565b606082471015610f7f5760405162461bcd60e51b815260206004820152602660248201527f416464726573733a20696e73756666696369656e742062616c616e636520666f6044820152651c8818d85b1b60d21b60648201526084016103c1565b843b610fcd5760405162461bcd60e51b815260206004820152601d60248201527f416464726573733a2063616c6c20746f206e6f6e2d636f6e747261637400000060448201526064016103c1565b600080866001600160a01b03168587604051610fe991906112d4565b60006040518083038185875af1925050503d8060008114611026576040519150601f19603f3d011682016040523d82523d6000602084013e61102b565b606091505b509150915061103b828286611046565b979650505050505050565b60608315611055575081610f17565b8251156110655782518084602001fd5b8160405162461bcd60e51b81526004016103c191906112f0565b604051806101800160405280600c906020820280368337509192915050565b80356001600160a01b03811681146110b557600080fd5b919050565b600080604083850312156110cd57600080fd5b6110d68361109e565b946020939093013593505050565b6000602082840312156110f657600080fd5b610f178261109e565b60006020828403121561111157600080fd5b5035919050565b6101808101818360005b600c811015611141578151835260209283019290910190600101611122565b50505092915050565b60006020828403121561115c57600080fd5b5051919050565b6020808252818101527f4f776e61626c653a2063616c6c6572206973206e6f7420746865206f776e6572604082015260600190565b634e487b7160e01b600052601160045260246000fd5b600082198211156111c1576111c1611198565b500190565b60008160001904831182151516156111e0576111e0611198565b500290565b60008261120257634e487b7160e01b600052601260045260246000fd5b500490565b60008282101561121957611219611198565b500390565b6020808252601f908201527f5265656e7472616e637947756172643a207265656e7472616e742063616c6c00604082015260600190565b634e487b7160e01b600052603260045260246000fd5b60006020828403121561127d57600080fd5b81518015158114610f1757600080fd5b60006000198214156112a1576112a1611198565b5060010190565b60005b838110156112c35781810151838201526020016112ab565b83811115610a075750506000910152565b600082516112e68184602087016112a8565b9190910192915050565b602081526000825180602084015261130f8160408501602087016112a8565b601f01601f1916919091016040019291505056fea26469706673582212200e3e4934b26603e7bc3337058cc98f396cb62cf8b0d230af59a319ecbfbe133464736f6c634300080a0033",
  "bytecodeSha1": "db659ff8a8df131e6046d3bf014341eb836eb386",
  "compiler": {
    "evm_version": "istanbul",
    "optimizer": {
      "enabled": true,
      "runs": 200
    },
    "version": "0.8.10+commit.fc410830"
  },
  "contractName": "AniwarTokenSale",
  "language": "Solidity",
  "natspec": {
    "kind": "dev",
    "methods": {
      "owner()": {
        "details": "Returns the address of the current owner."
      },
      "renounceOwnership()": {
        "details": "Leaves the contract without owner. It will not be possible to call `onlyOwner` functions anymore. Can only be called by the current owner. NOTE: Renouncing ownership will leave the contract without an owner, thereby removing any functionality that is only available to the owner."
      },
      "transferOwnership(address)": {
        "details": "Transfers ownership of the contract to a new account (`newOwner`). Can only be called by the current owner."
      }
    },
    "version": 1
  },
  "opcodes": "PUSH1 0x80 PUSH1 0x40 MSTORE CALLVALUE DUP1 ISZERO PUSH2 0x10 JUMPI PUSH1 0x0 DUP1 REVERT JUMPDEST POP PUSH1 0x4 CALLDATASIZE LT PUSH2 0x14D JUMPI PUSH1 0x0 CALLDATALOAD PUSH1 0xE0 SHR DUP1 PUSH4 0x86D1A69F GT PUSH2 0xC3 JUMPI DUP1 PUSH4 0xA0D4DFBD GT PUSH2 0x7C JUMPI DUP1 PUSH4 0xA0D4DFBD EQ PUSH2 0x2A7 JUMPI DUP1 PUSH4 0xA7CCC0ED EQ PUSH2 0x2BA JUMPI DUP1 PUSH4 0xCEBC6AD5 EQ PUSH2 0x2C3 JUMPI DUP1 PUSH4 0xE9AB77E5 EQ PUSH2 0x2CC JUMPI DUP1 PUSH4 0xEB1E5825 EQ PUSH2 0x2E1 JUMPI DUP1 PUSH4 0xF2FDE38B EQ PUSH2 0x2F4 JUMPI PUSH1 0x0 DUP1 REVERT JUMPDEST DUP1 PUSH4 0x86D1A69F EQ PUSH2 0x217 JUMPI DUP1 PUSH4 0x8DA5CB5B EQ PUSH2 0x21F JUMPI DUP1 PUSH4 0x9106D7BA EQ PUSH2 0x230 JUMPI DUP1 PUSH4 0x9752D61B EQ PUSH2 0x239 JUMPI DUP1 PUSH4 0x97A993AA EQ PUSH2 0x242 JUMPI DUP1 PUSH4 0xA035B1FE EQ PUSH2 0x29E JUMPI PUSH1 0x0 DUP1 REVERT JUMPDEST DUP1 PUSH4 0x3088F6CC GT PUSH2 0x115 JUMPI DUP1 PUSH4 0x3088F6CC EQ PUSH2 0x1A3 JUMPI DUP1 PUSH4 0x4F601030 EQ PUSH2 0x1B6 JUMPI DUP1 PUSH4 0x544736E6 EQ PUSH2 0x1BE JUMPI DUP1 PUSH4 0x68F8FC10 EQ PUSH2 0x1DB JUMPI DUP1 PUSH4 0x70D5AE05 EQ PUSH2 0x1EE JUMPI DUP1 PUSH4 0x715018A6 EQ PUSH2 0x20F JUMPI PUSH1 0x0 DUP1 REVERT JUMPDEST DUP1 PUSH4 0x12065FE0 EQ PUSH2 0x152 JUMPI DUP1 PUSH4 0x26825056 EQ PUSH2 0x16D JUMPI DUP1 PUSH4 0x26AA7C58 EQ PUSH2 0x175 JUMPI DUP1 PUSH4 0x29CB924D EQ PUSH2 0x18A JUMPI DUP1 PUSH4 0x2DB8C331 EQ PUSH2 0x190 JUMPI JUMPDEST PUSH1 0x0 DUP1 REVERT JUMPDEST PUSH2 0x15A PUSH2 0x307 JUMP JUMPDEST PUSH1 0x40 MLOAD SWAP1 DUP2 MSTORE PUSH1 0x20 ADD JUMPDEST PUSH1 0x40 MLOAD DUP1 SWAP2 SUB SWAP1 RETURN JUMPDEST PUSH2 0x15A PUSH1 0xC DUP2 JUMP JUMPDEST PUSH2 0x188 PUSH2 0x183 CALLDATASIZE PUSH1 0x4 PUSH2 0x10BA JUMP JUMPDEST PUSH2 0x397 JUMP JUMPDEST STOP JUMPDEST TIMESTAMP PUSH2 0x15A JUMP JUMPDEST PUSH2 0x15A PUSH2 0x19E CALLDATASIZE PUSH1 0x4 PUSH2 0x10E4 JUMP JUMPDEST PUSH2 0x411 JUMP JUMPDEST PUSH2 0x188 PUSH2 0x1B1 CALLDATASIZE PUSH1 0x4 PUSH2 0x10FF JUMP JUMPDEST PUSH2 0x4A1 JUMP JUMPDEST PUSH2 0x188 PUSH2 0x524 JUMP JUMPDEST PUSH1 0x9 SLOAD PUSH2 0x1CB SWAP1 PUSH1 0xFF AND DUP2 JUMP JUMPDEST PUSH1 0x40 MLOAD SWAP1 ISZERO ISZERO DUP2 MSTORE PUSH1 0x20 ADD PUSH2 0x164 JUMP JUMPDEST PUSH2 0x188 PUSH2 0x1E9 CALLDATASIZE PUSH1 0x4 PUSH2 0x10BA JUMP JUMPDEST PUSH2 0x6C4 JUMP JUMPDEST PUSH2 0x1F7 PUSH2 0xDEAD DUP2 JUMP JUMPDEST PUSH1 0x40 MLOAD PUSH1 0x1 PUSH1 0x1 PUSH1 0xA0 SHL SUB SWAP1 SWAP2 AND DUP2 MSTORE PUSH1 0x20 ADD PUSH2 0x164 JUMP JUMPDEST PUSH2 0x188 PUSH2 0xA0D JUMP JUMPDEST PUSH2 0x188 PUSH2 0xA43 JUMP JUMPDEST PUSH1 0x0 SLOAD PUSH1 0x1 PUSH1 0x1 PUSH1 0xA0 SHL SUB AND PUSH2 0x1F7 JUMP JUMPDEST PUSH2 0x15A PUSH1 0x4 SLOAD DUP2 JUMP JUMPDEST PUSH2 0x15A PUSH1 0x5 SLOAD DUP2 JUMP JUMPDEST PUSH2 0x27C PUSH2 0x250 CALLDATASIZE PUSH1 0x4 PUSH2 0x10E4 JUMP JUMPDEST PUSH1 0x2 PUSH1 0x20 DUP2 SWAP1 MSTORE PUSH1 0x0 SWAP2 DUP3 MSTORE PUSH1 0x40 SWAP1 SWAP2 KECCAK256 DUP1 SLOAD PUSH1 0x1 DUP3 ADD SLOAD SWAP3 DUP3 ADD SLOAD PUSH1 0x3 SWAP1 SWAP3 ADD SLOAD SWAP1 SWAP3 SWAP2 SWAP1 PUSH1 0xFF AND DUP5 JUMP JUMPDEST PUSH1 0x40 DUP1 MLOAD SWAP5 DUP6 MSTORE PUSH1 0x20 DUP6 ADD SWAP4 SWAP1 SWAP4 MSTORE SWAP2 DUP4 ADD MSTORE ISZERO ISZERO PUSH1 0x60 DUP3 ADD MSTORE PUSH1 0x80 ADD PUSH2 0x164 JUMP JUMPDEST PUSH2 0x15A PUSH1 0x6 SLOAD DUP2 JUMP JUMPDEST PUSH2 0x15A PUSH2 0x2B5 CALLDATASIZE PUSH1 0x4 PUSH2 0x10FF JUMP JUMPDEST PUSH2 0xBEA JUMP JUMPDEST PUSH2 0x15A PUSH1 0x7 SLOAD DUP2 JUMP JUMPDEST PUSH2 0x15A PUSH1 0x3 SLOAD DUP2 JUMP JUMPDEST PUSH2 0x2D4 PUSH2 0xC61 JUMP JUMPDEST PUSH1 0x40 MLOAD PUSH2 0x164 SWAP2 SWAP1 PUSH2 0x1118 JUMP JUMPDEST PUSH2 0x1F7 PUSH2 0x2EF CALLDATASIZE PUSH1 0x4 PUSH2 0x10FF JUMP JUMPDEST PUSH2 0xCC7 JUMP JUMPDEST PUSH2 0x188 PUSH2 0x302 CALLDATASIZE PUSH1 0x4 PUSH2 0x10E4 JUMP JUMPDEST PUSH2 0xCF1 JUMP JUMPDEST PUSH1 0x40 MLOAD PUSH4 0x70A08231 PUSH1 0xE0 SHL DUP2 MSTORE ADDRESS PUSH1 0x4 DUP3 ADD MSTORE PUSH1 0x0 SWAP1 PUSH32 0x0 PUSH1 0x1 PUSH1 0x1 PUSH1 0xA0 SHL SUB AND SWAP1 PUSH4 0x70A08231 SWAP1 PUSH1 0x24 ADD PUSH1 0x20 PUSH1 0x40 MLOAD DUP1 DUP4 SUB DUP2 DUP7 GAS STATICCALL ISZERO DUP1 ISZERO PUSH2 0x36E JUMPI RETURNDATASIZE PUSH1 0x0 DUP1 RETURNDATACOPY RETURNDATASIZE PUSH1 0x0 REVERT JUMPDEST POP POP POP POP PUSH1 0x40 MLOAD RETURNDATASIZE PUSH1 0x1F NOT PUSH1 0x1F DUP3 ADD AND DUP3 ADD DUP1 PUSH1 0x40 MSTORE POP DUP2 ADD SWAP1 PUSH2 0x392 SWAP2 SWAP1 PUSH2 0x114A JUMP JUMPDEST SWAP1 POP SWAP1 JUMP JUMPDEST PUSH1 0x0 SLOAD PUSH1 0x1 PUSH1 0x1 PUSH1 0xA0 SHL SUB AND CALLER EQ PUSH2 0x3CA JUMPI PUSH1 0x40 MLOAD PUSH3 0x461BCD PUSH1 0xE5 SHL DUP2 MSTORE PUSH1 0x4 ADD PUSH2 0x3C1 SWAP1 PUSH2 0x1163 JUMP JUMPDEST PUSH1 0x40 MLOAD DUP1 SWAP2 SUB SWAP1 REVERT JUMPDEST PUSH1 0x1 PUSH1 0x1 PUSH1 0xA0 SHL SUB DUP3 AND PUSH1 0x0 SWAP1 DUP2 MSTORE PUSH1 0x2 PUSH1 0x20 MSTORE PUSH1 0x40 SWAP1 KECCAK256 PUSH1 0x3 DUP2 ADD SLOAD PUSH1 0xFF AND PUSH2 0x3FE JUMPI PUSH1 0x3 DUP2 ADD DUP1 SLOAD PUSH1 0xFF NOT AND PUSH1 0x1 OR SWAP1 SSTORE JUMPDEST DUP1 SLOAD PUSH2 0x40B SWAP1 DUP4 SWAP1 PUSH2 0x11AE JUMP JUMPDEST SWAP1 SSTORE POP POP JUMP JUMPDEST PUSH1 0x1 PUSH1 0x1 PUSH1 0xA0 SHL SUB DUP2 AND PUSH1 0x0 SWAP1 DUP2 MSTORE PUSH1 0x2 PUSH1 0x20 DUP2 DUP2 MSTORE PUSH1 0x40 DUP1 DUP5 KECCAK256 DUP2 MLOAD PUSH1 0x80 DUP2 ADD DUP4 MSTORE DUP2 SLOAD DUP2 MSTORE PUSH1 0x1 DUP3 ADD SLOAD SWAP4 DUP2 ADD SWAP4 SWAP1 SWAP4 MSTORE SWAP3 DUP4 ADD SLOAD SWAP1 DUP3 ADD MSTORE PUSH1 0x3 SWAP1 SWAP2 ADD SLOAD PUSH1 0xFF AND ISZERO ISZERO PUSH1 0x60 DUP3 ADD MSTORE DUP2 PUSH2 0x466 TIMESTAMP PUSH2 0xBEA JUMP JUMPDEST SWAP1 POP PUSH1 0x0 PUSH1 0xC DUP3 DUP5 PUSH1 0x20 ADD MLOAD PUSH2 0x47C SWAP2 SWAP1 PUSH2 0x11C6 JUMP JUMPDEST PUSH2 0x486 SWAP2 SWAP1 PUSH2 0x11E5 JUMP JUMPDEST SWAP1 POP DUP3 PUSH1 0x40 ADD MLOAD DUP2 PUSH2 0x498 SWAP2 SWAP1 PUSH2 0x1207 JUMP JUMPDEST SWAP6 SWAP5 POP POP POP POP POP JUMP JUMPDEST PUSH1 0x0 SLOAD PUSH1 0x1 PUSH1 0x1 PUSH1 0xA0 SHL SUB AND CALLER EQ PUSH2 0x4CB JUMPI PUSH1 0x40 MLOAD PUSH3 0x461BCD PUSH1 0xE5 SHL DUP2 MSTORE PUSH1 0x4 ADD PUSH2 0x3C1 SWAP1 PUSH2 0x1163 JUMP JUMPDEST PUSH1 0x9 SLOAD PUSH1 0xFF AND ISZERO PUSH2 0x512 JUMPI PUSH1 0x40 MLOAD PUSH3 0x461BCD PUSH1 0xE5 SHL DUP2 MSTORE PUSH1 0x20 PUSH1 0x4 DUP3 ADD MSTORE PUSH1 0x11 PUSH1 0x24 DUP3 ADD MSTORE PUSH17 0x53616C6520686173205374617274656421 PUSH1 0x78 SHL PUSH1 0x44 DUP3 ADD MSTORE PUSH1 0x64 ADD PUSH2 0x3C1 JUMP JUMPDEST PUSH1 0x9 DUP1 SLOAD PUSH1 0xFF NOT AND PUSH1 0x1 OR SWAP1 SSTORE PUSH1 0x3 SSTORE JUMP JUMPDEST PUSH1 0x2 PUSH1 0x1 SLOAD EQ ISZERO PUSH2 0x547 JUMPI PUSH1 0x40 MLOAD PUSH3 0x461BCD PUSH1 0xE5 SHL DUP2 MSTORE PUSH1 0x4 ADD PUSH2 0x3C1 SWAP1 PUSH2 0x121E JUMP JUMPDEST PUSH1 0x2 PUSH1 0x1 SSTORE PUSH1 0x0 SLOAD PUSH1 0x1 PUSH1 0x1 PUSH1 0xA0 SHL SUB AND CALLER EQ PUSH2 0x576 JUMPI PUSH1 0x40 MLOAD PUSH3 0x461BCD PUSH1 0xE5 SHL DUP2 MSTORE PUSH1 0x4 ADD PUSH2 0x3C1 SWAP1 PUSH2 0x1163 JUMP JUMPDEST PUSH1 0x0 JUMPDEST PUSH1 0x8 SLOAD DUP2 LT ISZERO PUSH2 0x6BD JUMPI PUSH1 0x0 PUSH1 0x8 DUP3 DUP2 SLOAD DUP2 LT PUSH2 0x598 JUMPI PUSH2 0x598 PUSH2 0x1255 JUMP JUMPDEST PUSH1 0x0 SWAP2 DUP3 MSTORE PUSH1 0x20 SWAP1 SWAP2 KECCAK256 ADD SLOAD PUSH1 0x40 MLOAD PUSH4 0x70A08231 PUSH1 0xE0 SHL DUP2 MSTORE ADDRESS PUSH1 0x4 DUP3 ADD MSTORE PUSH1 0x1 PUSH1 0x1 PUSH1 0xA0 SHL SUB SWAP1 SWAP2 AND SWAP1 PUSH4 0x70A08231 SWAP1 PUSH1 0x24 ADD PUSH1 0x20 PUSH1 0x40 MLOAD DUP1 DUP4 SUB DUP2 DUP7 GAS STATICCALL ISZERO DUP1 ISZERO PUSH2 0x5E9 JUMPI RETURNDATASIZE PUSH1 0x0 DUP1 RETURNDATACOPY RETURNDATASIZE PUSH1 0x0 REVERT JUMPDEST POP POP POP POP PUSH1 0x40 MLOAD RETURNDATASIZE PUSH1 0x1F NOT PUSH1 0x1F DUP3 ADD AND DUP3 ADD DUP1 PUSH1 0x40 MSTORE POP DUP2 ADD SWAP1 PUSH2 0x60D SWAP2 SWAP1 PUSH2 0x114A JUMP JUMPDEST SWAP1 POP DUP1 ISZERO PUSH2 0x6AA JUMPI PUSH1 0x8 DUP3 DUP2 SLOAD DUP2 LT PUSH2 0x628 JUMPI PUSH2 0x628 PUSH2 0x1255 JUMP JUMPDEST PUSH1 0x0 SWAP2 DUP3 MSTORE PUSH1 0x20 SWAP1 SWAP2 KECCAK256 ADD SLOAD PUSH1 0x40 MLOAD PUSH4 0xA9059CBB PUSH1 0xE0 SHL DUP2 MSTORE PUSH2 0xDEAD PUSH1 0x4 DUP3 ADD MSTORE PUSH1 0x24 DUP2 ADD DUP4 SWAP1 MSTORE PUSH1 0x1 PUSH1 0x1 PUSH1 0xA0 SHL SUB SWAP1 SWAP2 AND SWAP1 PUSH4 0xA9059CBB SWAP1 PUSH1 0x44 ADD PUSH1 0x20 PUSH1 0x40 MLOAD DUP1 DUP4 SUB DUP2 PUSH1 0x0 DUP8 GAS CALL ISZERO DUP1 ISZERO PUSH2 0x684 JUMPI RETURNDATASIZE PUSH1 0x0 DUP1 RETURNDATACOPY RETURNDATASIZE PUSH1 0x0 REVERT JUMPDEST POP POP POP POP PUSH1 0x40 MLOAD RETURNDATASIZE PUSH1 0x1F NOT PUSH1 0x1F DUP3 ADD AND DUP3 ADD DUP1 PUSH1 0x40 MSTORE POP DUP2 ADD SWAP1 PUSH2 0x6A8 SWAP2 SWAP1 PUSH2 0x126B JUMP JUMPDEST POP JUMPDEST POP DUP1 PUSH2 0x6B5 DUP2 PUSH2 0x128D JUMP JUMPDEST SWAP2 POP POP PUSH2 0x579 JUMP JUMPDEST POP PUSH1 0x1 DUP1 SSTORE JUMP JUMPDEST DUP2 PUSH1 0x0 DUP1 JUMPDEST PUSH1 0x8 SLOAD DUP2 LT ISZERO PUSH2 0x9C5 JUMPI DUP3 PUSH1 0x1 PUSH1 0x1 PUSH1 0xA0 SHL SUB AND PUSH1 0x8 DUP3 DUP2 SLOAD DUP2 LT PUSH2 0x6F0 JUMPI PUSH2 0x6F0 PUSH2 0x1255 JUMP JUMPDEST PUSH1 0x0 SWAP2 DUP3 MSTORE PUSH1 0x20 SWAP1 SWAP2 KECCAK256 ADD SLOAD PUSH1 0x1 PUSH1 0x1 PUSH1 0xA0 SHL SUB AND EQ ISZERO PUSH2 0x9B3 JUMPI PUSH1 0x2 PUSH1 0x1 SLOAD EQ ISZERO PUSH2 0x72E JUMPI PUSH1 0x40 MLOAD PUSH3 0x461BCD PUSH1 0xE5 SHL DUP2 MSTORE PUSH1 0x4 ADD PUSH2 0x3C1 SWAP1 PUSH2 0x121E JUMP JUMPDEST PUSH1 0x2 PUSH1 0x1 DUP2 SWAP1 SSTORE CALLER PUSH1 0x0 SWAP1 DUP2 MSTORE PUSH1 0x20 SWAP2 SWAP1 SWAP2 MSTORE PUSH1 0x40 SWAP1 KECCAK256 DUP1 SLOAD DUP6 GT ISZERO PUSH2 0x796 JUMPI PUSH1 0x40 MLOAD PUSH3 0x461BCD PUSH1 0xE5 SHL DUP2 MSTORE PUSH1 0x20 PUSH1 0x4 DUP3 ADD MSTORE PUSH1 0x1B PUSH1 0x24 DUP3 ADD MSTORE PUSH32 0x416C6C6F77656420616D6F756E7420696E737566666963656E74210000000000 PUSH1 0x44 DUP3 ADD MSTORE PUSH1 0x64 ADD PUSH2 0x3C1 JUMP JUMPDEST DUP5 PUSH1 0x4 SLOAD PUSH1 0x7 SLOAD PUSH2 0x7A7 SWAP2 SWAP1 PUSH2 0x1207 JUMP JUMPDEST LT ISZERO PUSH2 0x7F5 JUMPI PUSH1 0x40 MLOAD PUSH3 0x461BCD PUSH1 0xE5 SHL DUP2 MSTORE PUSH1 0x20 PUSH1 0x4 DUP3 ADD MSTORE PUSH1 0x18 PUSH1 0x24 DUP3 ADD MSTORE PUSH32 0x416D6F756E74206C65667420696E737566666963656E74210000000000000000 PUSH1 0x44 DUP3 ADD MSTORE PUSH1 0x64 ADD PUSH2 0x3C1 JUMP JUMPDEST PUSH1 0x0 PUSH1 0x6 SLOAD DUP7 PUSH2 0x805 SWAP2 SWAP1 PUSH2 0x11C6 JUMP JUMPDEST PUSH1 0x40 MLOAD PUSH4 0x6EB1769F PUSH1 0xE1 SHL DUP2 MSTORE CALLER PUSH1 0x4 DUP3 ADD MSTORE ADDRESS PUSH1 0x24 DUP3 ADD MSTORE SWAP1 SWAP2 POP DUP8 SWAP1 DUP3 SWAP1 PUSH1 0x1 PUSH1 0x1 PUSH1 0xA0 SHL SUB DUP4 AND SWAP1 PUSH4 0xDD62ED3E SWAP1 PUSH1 0x44 ADD PUSH1 0x20 PUSH1 0x40 MLOAD DUP1 DUP4 SUB DUP2 DUP7 GAS STATICCALL ISZERO DUP1 ISZERO PUSH2 0x856 JUMPI RETURNDATASIZE PUSH1 0x0 DUP1 RETURNDATACOPY RETURNDATASIZE PUSH1 0x0 REVERT JUMPDEST POP POP POP POP PUSH1 0x40 MLOAD RETURNDATASIZE PUSH1 0x1F NOT PUSH1 0x1F DUP3 ADD AND DUP3 ADD DUP1 PUSH1 0x40 MSTORE POP DUP2 ADD SWAP1 PUSH2 0x87A SWAP2 SWAP1 PUSH2 0x114A JUMP JUMPDEST LT ISZERO PUSH2 0x8C8 JUMPI PUSH1 0x40 MLOAD PUSH3 0x461BCD PUSH1 0xE5 SHL DUP2 MSTORE PUSH1 0x20 PUSH1 0x4 DUP3 ADD MSTORE PUSH1 0x1D PUSH1 0x24 DUP3 ADD MSTORE PUSH32 0x416C6C6F77616E636520616D6F756E7420696E737566666963656E7421000000 PUSH1 0x44 DUP3 ADD MSTORE PUSH1 0x64 ADD PUSH2 0x3C1 JUMP JUMPDEST PUSH1 0x40 MLOAD PUSH4 0x23B872DD PUSH1 0xE0 SHL DUP2 MSTORE CALLER PUSH1 0x4 DUP3 ADD MSTORE ADDRESS PUSH1 0x24 DUP3 ADD MSTORE PUSH1 0x44 DUP2 ADD DUP4 SWAP1 MSTORE PUSH1 0x1 PUSH1 0x1 PUSH1 0xA0 SHL SUB DUP3 AND SWAP1 PUSH4 0x23B872DD SWAP1 PUSH1 0x64 ADD PUSH1 0x20 PUSH1 0x40 MLOAD DUP1 DUP4 SUB DUP2 PUSH1 0x0 DUP8 GAS CALL ISZERO DUP1 ISZERO PUSH2 0x91B JUMPI RETURNDATASIZE PUSH1 0x0 DUP1 RETURNDATACOPY RETURNDATASIZE PUSH1 0x0 REVERT JUMPDEST POP POP POP POP PUSH1 0x40 MLOAD RETURNDATASIZE PUSH1 0x1F NOT PUSH1 0x1F DUP3 ADD AND DUP3 ADD DUP1 PUSH1 0x40 MSTORE POP DUP2 ADD SWAP1 PUSH2 0x93F SWAP2 SWAP1 PUSH2 0x126B JUMP JUMPDEST POP PUSH2 0x952 DUP8 PUSH8 0xDE0B6B3A7640000 PUSH2 0x11C6 JUMP JUMPDEST PUSH1 0x4 SLOAD PUSH2 0x95F SWAP2 SWAP1 PUSH2 0x11AE JUMP JUMPDEST PUSH1 0x4 SSTORE PUSH2 0x974 DUP8 PUSH8 0xDE0B6B3A7640000 PUSH2 0x11C6 JUMP JUMPDEST DUP4 PUSH1 0x1 ADD SLOAD PUSH2 0x983 SWAP2 SWAP1 PUSH2 0x11AE JUMP JUMPDEST PUSH1 0x1 DUP5 ADD SSTORE PUSH2 0x99A DUP8 PUSH8 0xDE0B6B3A7640000 PUSH2 0x11C6 JUMP JUMPDEST DUP4 SLOAD PUSH2 0x9A6 SWAP2 SWAP1 PUSH2 0x1207 JUMP JUMPDEST SWAP1 SWAP3 SSTORE POP POP PUSH1 0x1 DUP1 DUP1 SSTORE SWAP2 POP JUMPDEST DUP1 PUSH2 0x9BD DUP2 PUSH2 0x128D JUMP JUMPDEST SWAP2 POP POP PUSH2 0x6C9 JUMP JUMPDEST POP DUP1 PUSH2 0xA07 JUMPI PUSH1 0x40 MLOAD PUSH3 0x461BCD PUSH1 0xE5 SHL DUP2 MSTORE PUSH1 0x20 PUSH1 0x4 DUP3 ADD MSTORE PUSH1 0x11 PUSH1 0x24 DUP3 ADD MSTORE PUSH17 0x2737BA1020B63637BBB2B2102A37B5B2B7 PUSH1 0x79 SHL PUSH1 0x44 DUP3 ADD MSTORE PUSH1 0x64 ADD PUSH2 0x3C1 JUMP JUMPDEST POP POP POP POP JUMP JUMPDEST PUSH1 0x0 SLOAD PUSH1 0x1 PUSH1 0x1 PUSH1 0xA0 SHL SUB AND CALLER EQ PUSH2 0xA37 JUMPI PUSH1 0x40 MLOAD PUSH3 0x461BCD PUSH1 0xE5 SHL DUP2 MSTORE PUSH1 0x4 ADD PUSH2 0x3C1 SWAP1 PUSH2 0x1163 JUMP JUMPDEST PUSH2 0xA41 PUSH1 0x0 PUSH2 0xD8C JUMP JUMPDEST JUMP JUMPDEST PUSH1 0x9 SLOAD PUSH1 0xFF AND ISZERO ISZERO PUSH1 0x1 EQ PUSH2 0xA9A JUMPI PUSH1 0x40 MLOAD PUSH3 0x461BCD PUSH1 0xE5 SHL DUP2 MSTORE PUSH1 0x20 PUSH1 0x4 DUP3 ADD MSTORE PUSH1 0x19 PUSH1 0x24 DUP3 ADD MSTORE PUSH32 0x53616C6520686173206E6F742053746172746564205965742100000000000000 PUSH1 0x44 DUP3 ADD MSTORE PUSH1 0x64 ADD PUSH2 0x3C1 JUMP JUMPDEST PUSH1 0x2 PUSH1 0x1 SLOAD EQ ISZERO PUSH2 0xABD JUMPI PUSH1 0x40 MLOAD PUSH3 0x461BCD PUSH1 0xE5 SHL DUP2 MSTORE PUSH1 0x4 ADD PUSH2 0x3C1 SWAP1 PUSH2 0x121E JUMP JUMPDEST PUSH1 0x2 PUSH1 0x1 DUP2 SWAP1 SSTORE CALLER PUSH1 0x0 DUP2 DUP2 MSTORE PUSH1 0x20 SWAP3 SWAP1 SWAP3 MSTORE PUSH1 0x40 DUP3 KECCAK256 SWAP2 SWAP1 PUSH2 0xADF SWAP1 PUSH2 0x411 JUMP JUMPDEST SWAP1 POP PUSH1 0x0 DUP2 GT PUSH2 0xB27 JUMPI PUSH1 0x40 MLOAD PUSH3 0x461BCD PUSH1 0xE5 SHL DUP2 MSTORE PUSH1 0x20 PUSH1 0x4 DUP3 ADD MSTORE PUSH1 0x13 PUSH1 0x24 DUP3 ADD MSTORE PUSH19 0x416D6F756E7420696E737566666963656E7473 PUSH1 0x68 SHL PUSH1 0x44 DUP3 ADD MSTORE PUSH1 0x64 ADD PUSH2 0x3C1 JUMP JUMPDEST PUSH1 0x3 DUP3 ADD SLOAD PUSH1 0xFF AND PUSH2 0xB64 JUMPI PUSH1 0x40 MLOAD PUSH3 0x461BCD PUSH1 0xE5 SHL DUP2 MSTORE PUSH1 0x4 ADD PUSH2 0x3C1 SWAP1 PUSH1 0x20 DUP1 DUP3 MSTORE PUSH1 0x4 SWAP1 DUP3 ADD MSTORE PUSH4 0x5775743F PUSH1 0xE0 SHL PUSH1 0x40 DUP3 ADD MSTORE PUSH1 0x60 ADD SWAP1 JUMP JUMPDEST CALLER PUSH2 0xB99 PUSH1 0x1 PUSH1 0x1 PUSH1 0xA0 SHL SUB PUSH32 0x0 AND DUP3 DUP5 PUSH2 0xDDC JUMP JUMPDEST DUP2 DUP4 PUSH1 0x2 ADD SLOAD PUSH2 0xBA9 SWAP2 SWAP1 PUSH2 0x11AE JUMP JUMPDEST PUSH1 0x2 DUP5 ADD SSTORE PUSH1 0x40 MLOAD DUP3 DUP2 MSTORE PUSH32 0xFB81F9B30D73D830C3544B34D827C08142579EE75710B490BAB0B3995468C565 SWAP1 PUSH1 0x20 ADD PUSH1 0x40 MLOAD DUP1 SWAP2 SUB SWAP1 LOG1 POP POP PUSH1 0x1 DUP1 SSTORE POP JUMP JUMPDEST PUSH1 0x0 PUSH1 0x3 SLOAD DUP3 LT DUP1 PUSH2 0xBFF JUMPI POP PUSH1 0x9 SLOAD PUSH1 0xFF AND ISZERO JUMPDEST ISZERO PUSH2 0xC0C JUMPI POP PUSH1 0x0 SWAP2 SWAP1 POP JUMP JUMPDEST PUSH1 0xC PUSH1 0x5 SLOAD PUSH1 0x3 SLOAD DUP5 PUSH2 0xC1F SWAP2 SWAP1 PUSH2 0x1207 JUMP JUMPDEST PUSH2 0xC29 SWAP2 SWAP1 PUSH2 0x11E5 JUMP JUMPDEST LT PUSH2 0xC36 JUMPI POP PUSH1 0xC SWAP2 SWAP1 POP JUMP JUMPDEST PUSH1 0x5 SLOAD PUSH1 0x3 SLOAD PUSH2 0xC46 SWAP1 DUP5 PUSH2 0x1207 JUMP JUMPDEST PUSH2 0xC50 SWAP2 SWAP1 PUSH2 0x11E5 JUMP JUMPDEST PUSH2 0xC5B SWAP1 PUSH1 0x1 PUSH2 0x11AE JUMP JUMPDEST SWAP3 SWAP2 POP POP JUMP JUMPDEST PUSH2 0xC69 PUSH2 0x107F JUMP JUMPDEST PUSH2 0xC71 PUSH2 0x107F JUMP JUMPDEST PUSH1 0x0 JUMPDEST PUSH1 0xC DUP2 LT ISZERO PUSH2 0xCC1 JUMPI DUP1 PUSH1 0x5 SLOAD PUSH2 0xC8B SWAP2 SWAP1 PUSH2 0x11C6 JUMP JUMPDEST PUSH1 0x3 SLOAD PUSH2 0xC98 SWAP2 SWAP1 PUSH2 0x11AE JUMP JUMPDEST DUP3 DUP3 PUSH1 0xC DUP2 LT PUSH2 0xCAA JUMPI PUSH2 0xCAA PUSH2 0x1255 JUMP JUMPDEST PUSH1 0x20 MUL ADD MSTORE DUP1 PUSH2 0xCB9 DUP2 PUSH2 0x128D JUMP JUMPDEST SWAP2 POP POP PUSH2 0xC74 JUMP JUMPDEST POP SWAP2 SWAP1 POP JUMP JUMPDEST PUSH1 0x8 DUP2 DUP2 SLOAD DUP2 LT PUSH2 0xCD7 JUMPI PUSH1 0x0 DUP1 REVERT JUMPDEST PUSH1 0x0 SWAP2 DUP3 MSTORE PUSH1 0x20 SWAP1 SWAP2 KECCAK256 ADD SLOAD PUSH1 0x1 PUSH1 0x1 PUSH1 0xA0 SHL SUB AND SWAP1 POP DUP2 JUMP JUMPDEST PUSH1 0x0 SLOAD PUSH1 0x1 PUSH1 0x1 PUSH1 0xA0 SHL SUB AND CALLER EQ PUSH2 0xD1B JUMPI PUSH1 0x40 MLOAD PUSH3 0x461BCD PUSH1 0xE5 SHL DUP2 MSTORE PUSH1 0x4 ADD PUSH2 0x3C1 SWAP1 PUSH2 0x1163 JUMP JUMPDEST PUSH1 0x1 PUSH1 0x1 PUSH1 0xA0 SHL SUB DUP2 AND PUSH2 0xD80 JUMPI PUSH1 0x40 MLOAD PUSH3 0x461BCD PUSH1 0xE5 SHL DUP2 MSTORE PUSH1 0x20 PUSH1 0x4 DUP3 ADD MSTORE PUSH1 0x26 PUSH1 0x24 DUP3 ADD MSTORE PUSH32 0x4F776E61626C653A206E6577206F776E657220697320746865207A65726F2061 PUSH1 0x44 DUP3 ADD MSTORE PUSH6 0x646472657373 PUSH1 0xD0 SHL PUSH1 0x64 DUP3 ADD MSTORE PUSH1 0x84 ADD PUSH2 0x3C1 JUMP JUMPDEST PUSH2 0xD89 DUP2 PUSH2 0xD8C JUMP JUMPDEST POP JUMP JUMPDEST PUSH1 0x0 DUP1 SLOAD PUSH1 0x1 PUSH1 0x1 PUSH1 0xA0 SHL SUB DUP4 DUP2 AND PUSH1 0x1 PUSH1 0x1 PUSH1 0xA0 SHL SUB NOT DUP4 AND DUP2 OR DUP5 SSTORE PUSH1 0x40 MLOAD SWAP2 SWAP1 SWAP3 AND SWAP3 DUP4 SWAP2 PUSH32 0x8BE0079C531659141344CD1FD0A4F28419497F9722A3DAAFE3B4186F6B6457E0 SWAP2 SWAP1 LOG3 POP POP JUMP JUMPDEST PUSH1 0x40 DUP1 MLOAD PUSH1 0x1 PUSH1 0x1 PUSH1 0xA0 SHL SUB DUP5 AND PUSH1 0x24 DUP3 ADD MSTORE PUSH1 0x44 DUP1 DUP3 ADD DUP5 SWAP1 MSTORE DUP3 MLOAD DUP1 DUP4 SUB SWAP1 SWAP2 ADD DUP2 MSTORE PUSH1 0x64 SWAP1 SWAP2 ADD SWAP1 SWAP2 MSTORE PUSH1 0x20 DUP2 ADD DUP1 MLOAD PUSH1 0x1 PUSH1 0x1 PUSH1 0xE0 SHL SUB AND PUSH4 0xA9059CBB PUSH1 0xE0 SHL OR SWAP1 MSTORE PUSH2 0xE2E SWAP1 DUP5 SWAP1 PUSH2 0xE33 JUMP JUMPDEST POP POP POP JUMP JUMPDEST PUSH1 0x0 PUSH2 0xE88 DUP3 PUSH1 0x40 MLOAD DUP1 PUSH1 0x40 ADD PUSH1 0x40 MSTORE DUP1 PUSH1 0x20 DUP2 MSTORE PUSH1 0x20 ADD PUSH32 0x5361666545524332303A206C6F772D6C6576656C2063616C6C206661696C6564 DUP2 MSTORE POP DUP6 PUSH1 0x1 PUSH1 0x1 PUSH1 0xA0 SHL SUB AND PUSH2 0xF05 SWAP1 SWAP3 SWAP2 SWAP1 PUSH4 0xFFFFFFFF AND JUMP JUMPDEST DUP1 MLOAD SWAP1 SWAP2 POP ISZERO PUSH2 0xE2E JUMPI DUP1 DUP1 PUSH1 0x20 ADD SWAP1 MLOAD DUP2 ADD SWAP1 PUSH2 0xEA6 SWAP2 SWAP1 PUSH2 0x126B JUMP JUMPDEST PUSH2 0xE2E JUMPI PUSH1 0x40 MLOAD PUSH3 0x461BCD PUSH1 0xE5 SHL DUP2 MSTORE PUSH1 0x20 PUSH1 0x4 DUP3 ADD MSTORE PUSH1 0x2A PUSH1 0x24 DUP3 ADD MSTORE PUSH32 0x5361666545524332303A204552433230206F7065726174696F6E20646964206E PUSH1 0x44 DUP3 ADD MSTORE PUSH10 0x1BDD081CDD58D8D95959 PUSH1 0xB2 SHL PUSH1 0x64 DUP3 ADD MSTORE PUSH1 0x84 ADD PUSH2 0x3C1 JUMP JUMPDEST PUSH1 0x60 PUSH2 0xF14 DUP5 DUP5 PUSH1 0x0 DUP6 PUSH2 0xF1E JUMP JUMPDEST SWAP1 POP JUMPDEST SWAP4 SWAP3 POP POP POP JUMP JUMPDEST PUSH1 0x60 DUP3 SELFBALANCE LT ISZERO PUSH2 0xF7F JUMPI PUSH1 0x40 MLOAD PUSH3 0x461BCD PUSH1 0xE5 SHL DUP2 MSTORE PUSH1 0x20 PUSH1 0x4 DUP3 ADD MSTORE PUSH1 0x26 PUSH1 0x24 DUP3 ADD MSTORE PUSH32 0x416464726573733A20696E73756666696369656E742062616C616E636520666F PUSH1 0x44 DUP3 ADD MSTORE PUSH6 0x1C8818D85B1B PUSH1 0xD2 SHL PUSH1 0x64 DUP3 ADD MSTORE PUSH1 0x84 ADD PUSH2 0x3C1 JUMP JUMPDEST DUP5 EXTCODESIZE PUSH2 0xFCD JUMPI PUSH1 0x40 MLOAD PUSH3 0x461BCD PUSH1 0xE5 SHL DUP2 MSTORE PUSH1 0x20 PUSH1 0x4 DUP3 ADD MSTORE PUSH1 0x1D PUSH1 0x24 DUP3 ADD MSTORE PUSH32 0x416464726573733A2063616C6C20746F206E6F6E2D636F6E7472616374000000 PUSH1 0x44 DUP3 ADD MSTORE PUSH1 0x64 ADD PUSH2 0x3C1 JUMP JUMPDEST PUSH1 0x0 DUP1 DUP7 PUSH1 0x1 PUSH1 0x1 PUSH1 0xA0 SHL SUB AND DUP6 DUP8 PUSH1 0x40 MLOAD PUSH2 0xFE9 SWAP2 SWAP1 PUSH2 0x12D4 JUMP JUMPDEST PUSH1 0x0 PUSH1 0x40 MLOAD DUP1 DUP4 SUB DUP2 DUP6 DUP8 GAS CALL SWAP3 POP POP POP RETURNDATASIZE DUP1 PUSH1 0x0 DUP2 EQ PUSH2 0x1026 JUMPI PUSH1 0x40 MLOAD SWAP2 POP PUSH1 0x1F NOT PUSH1 0x3F RETURNDATASIZE ADD AND DUP3 ADD PUSH1 0x40 MSTORE RETURNDATASIZE DUP3 MSTORE RETURNDATASIZE PUSH1 0x0 PUSH1 0x20 DUP5 ADD RETURNDATACOPY PUSH2 0x102B JUMP JUMPDEST PUSH1 0x60 SWAP2 POP JUMPDEST POP SWAP2 POP SWAP2 POP PUSH2 0x103B DUP3 DUP3 DUP7 PUSH2 0x1046 JUMP JUMPDEST SWAP8 SWAP7 POP POP POP POP POP POP POP JUMP JUMPDEST PUSH1 0x60 DUP4 ISZERO PUSH2 0x1055 JUMPI POP DUP2 PUSH2 0xF17 JUMP JUMPDEST DUP3 MLOAD ISZERO PUSH2 0x1065 JUMPI DUP3 MLOAD DUP1 DUP5 PUSH1 0x20 ADD REVERT JUMPDEST DUP2 PUSH1 0x40 MLOAD PUSH3 0x461BCD PUSH1 0xE5 SHL DUP2 MSTORE PUSH1 0x4 ADD PUSH2 0x3C1 SWAP2 SWAP1 PUSH2 0x12F0 JUMP JUMPDEST PUSH1 0x40 MLOAD DUP1 PUSH2 0x180 ADD PUSH1 0x40 MSTORE DUP1 PUSH1 0xC SWAP1 PUSH1 0x20 DUP3 MUL DUP1 CALLDATASIZE DUP4 CALLDATACOPY POP SWAP2 SWAP3 SWAP2 POP POP JUMP JUMPDEST DUP1 CALLDATALOAD PUSH1 0x1 PUSH1 0x1 PUSH1 0xA0 SHL SUB DUP2 AND DUP2 EQ PUSH2 0x10B5 JUMPI PUSH1 0x0 DUP1 REVERT JUMPDEST SWAP2 SWAP1 POP JUMP JUMPDEST PUSH1 0x0 DUP1 PUSH1 0x40 DUP4 DUP6 SUB SLT ISZERO PUSH2 0x10CD JUMPI PUSH1 0x0 DUP1 REVERT JUMPDEST PUSH2 0x10D6 DUP4 PUSH2 0x109E JUMP JUMPDEST SWAP5 PUSH1 0x20 SWAP4 SWAP1 SWAP4 ADD CALLDATALOAD SWAP4 POP POP POP JUMP JUMPDEST PUSH1 0x0 PUSH1 0x20 DUP3 DUP5 SUB SLT ISZERO PUSH2 0x10F6 JUMPI PUSH1 0x0 DUP1 REVERT JUMPDEST PUSH2 0xF17 DUP3 PUSH2 0x109E JUMP JUMPDEST PUSH1 0x0 PUSH1 0x20 DUP3 DUP5 SUB SLT ISZERO PUSH2 0x1111 JUMPI PUSH1 0x0 DUP1 REVERT JUMPDEST POP CALLDATALOAD SWAP2 SWAP1 POP JUMP JUMPDEST PUSH2 0x180 DUP2 ADD DUP2 DUP4 PUSH1 0x0 JUMPDEST PUSH1 0xC DUP2 LT ISZERO PUSH2 0x1141 JUMPI DUP2 MLOAD DUP4 MSTORE PUSH1 0x20 SWAP3 DUP4 ADD SWAP3 SWAP1 SWAP2 ADD SWAP1 PUSH1 0x1 ADD PUSH2 0x1122 JUMP JUMPDEST POP POP POP SWAP3 SWAP2 POP POP JUMP JUMPDEST PUSH1 0x0 PUSH1 0x20 DUP3 DUP5 SUB SLT ISZERO PUSH2 0x115C JUMPI PUSH1 0x0 DUP1 REVERT JUMPDEST POP MLOAD SWAP2 SWAP1 POP JUMP JUMPDEST PUSH1 0x20 DUP1 DUP3 MSTORE DUP2 DUP2 ADD MSTORE PUSH32 0x4F776E61626C653A2063616C6C6572206973206E6F7420746865206F776E6572 PUSH1 0x40 DUP3 ADD MSTORE PUSH1 0x60 ADD SWAP1 JUMP JUMPDEST PUSH4 0x4E487B71 PUSH1 0xE0 SHL PUSH1 0x0 MSTORE PUSH1 0x11 PUSH1 0x4 MSTORE PUSH1 0x24 PUSH1 0x0 REVERT JUMPDEST PUSH1 0x0 DUP3 NOT DUP3 GT ISZERO PUSH2 0x11C1 JUMPI PUSH2 0x11C1 PUSH2 0x1198 JUMP JUMPDEST POP ADD SWAP1 JUMP JUMPDEST PUSH1 0x0 DUP2 PUSH1 0x0 NOT DIV DUP4 GT DUP3 ISZERO ISZERO AND ISZERO PUSH2 0x11E0 JUMPI PUSH2 0x11E0 PUSH2 0x1198 JUMP JUMPDEST POP MUL SWAP1 JUMP JUMPDEST PUSH1 0x0 DUP3 PUSH2 0x1202 JUMPI PUSH4 0x4E487B71 PUSH1 0xE0 SHL PUSH1 0x0 MSTORE PUSH1 0x12 PUSH1 0x4 MSTORE PUSH1 0x24 PUSH1 0x0 REVERT JUMPDEST POP DIV SWAP1 JUMP JUMPDEST PUSH1 0x0 DUP3 DUP3 LT ISZERO PUSH2 0x1219 JUMPI PUSH2 0x1219 PUSH2 0x1198 JUMP JUMPDEST POP SUB SWAP1 JUMP JUMPDEST PUSH1 0x20 DUP1 DUP3 MSTORE PUSH1 0x1F SWAP1 DUP3 ADD MSTORE PUSH32 0x5265656E7472616E637947756172643A207265656E7472616E742063616C6C00 PUSH1 0x40 DUP3 ADD MSTORE PUSH1 0x60 ADD SWAP1 JUMP JUMPDEST PUSH4 0x4E487B71 PUSH1 0xE0 SHL PUSH1 0x0 MSTORE PUSH1 0x32 PUSH1 0x4 MSTORE PUSH1 0x24 PUSH1 0x0 REVERT JUMPDEST PUSH1 0x0 PUSH1 0x20 DUP3 DUP5 SUB SLT ISZERO PUSH2 0x127D JUMPI PUSH1 0x0 DUP1 REVERT JUMPDEST DUP2 MLOAD DUP1 ISZERO ISZERO DUP2 EQ PUSH2 0xF17 JUMPI PUSH1 0x0 DUP1 REVERT JUMPDEST PUSH1 0x0 PUSH1 0x0 NOT DUP3 EQ ISZERO PUSH2 0x12A1 JUMPI PUSH2 0x12A1 PUSH2 0x1198 JUMP JUMPDEST POP PUSH1 0x1 ADD SWAP1 JUMP JUMPDEST PUSH1 0x0 JUMPDEST DUP4 DUP2 LT ISZERO PUSH2 0x12C3 JUMPI DUP2 DUP2 ADD MLOAD DUP4 DUP3 ADD MSTORE PUSH1 0x20 ADD PUSH2 0x12AB JUMP JUMPDEST DUP4 DUP2 GT ISZERO PUSH2 0xA07 JUMPI POP POP PUSH1 0x0 SWAP2 ADD MSTORE JUMP JUMPDEST PUSH1 0x0 DUP3 MLOAD PUSH2 0x12E6 DUP2 DUP5 PUSH1 0x20 DUP8 ADD PUSH2 0x12A8 JUMP JUMPDEST SWAP2 SWAP1 SWAP2 ADD SWAP3 SWAP2 POP POP JUMP JUMPDEST PUSH1 0x20 DUP2 MSTORE PUSH1 0x0 DUP3 MLOAD DUP1 PUSH1 0x20 DUP5 ADD MSTORE PUSH2 0x130F DUP2 PUSH1 0x40 DUP6 ADD PUSH1 0x20 DUP8 ADD PUSH2 0x12A8 JUMP JUMPDEST PUSH1 0x1F ADD PUSH1 0x1F NOT AND SWAP2 SWAP1 SWAP2 ADD PUSH1 0x40 ADD SWAP3 SWAP2 POP POP JUMP INVALID LOG2 PUSH5 0x6970667358 0x22 SLT KECCAK256 0xE RETURNDATACOPY 0x49 CALLVALUE 0xB2 PUSH7 0x3E7BC3337058C 0xC9 DUP16 CODECOPY PUSH13 0xB62CF8B0D230AF59A319ECBFBE SGT CALLVALUE PUSH5 0x736F6C6343 STOP ADDMOD EXP STOP CALLER ",
  "sha1": "af8be4d4bda7dd40bb8bc3450cfe0801a09f6af4",
  "source": "// SPDX-License-Identifier: MIT\npragma solidity 0.8.10;\n\nimport \"@openzeppelin/contracts/token/ERC20/IERC20.sol\";\nimport \"@openzeppelin/contracts/token/ERC20/utils/SafeERC20.sol\";\nimport \"@openzeppelin/contracts/security/ReentrancyGuard.sol\";\nimport \"@openzeppelin/contracts/access/Ownable.sol\";\n\n/*\n * @title TokenVesting\n */\ncontract AniwarTokenSale is Ownable, ReentrancyGuard {\n    using SafeERC20 for IERC20;\n    IERC20 private immutable _token;\n    address public constant burnAddress =\n        0x000000000000000000000000000000000000dEaD;\n\n    struct Buyer {\n        uint256 totalAllowedAmount;\n        uint256 totalAmount;\n        // total amount of tokens has been withdrawn at the current time\n        uint256 amountHasBeenWithdrawn;\n        // Initiliazed\n        bool initialized;\n    }\n\n    mapping(address => Buyer) public buyers;\n    uint256 public startedTime;\n    uint256 public totalSold;\n    uint256 public splitDuration;\n    uint256 public price;\n    uint256 public constant splitCount = 12;\n    uint256 public initTokenAmount;\n    address[] public tokensAllowed;\n    // started when true\n    bool public isStarted;\n\n    event Released(uint256 amount);\n\n    modifier onlyIfSaleScheduleStarted() {\n        require(isStarted == true, \"Sale has not Started Yet!\");\n        _;\n    }\n\n    modifier onlyIfSaleScheduleNotStarted() {\n        require(isStarted == false, \"Sale has Started!\");\n        _;\n    }\n\n    modifier tokenAllowed(address tokenAddress_) {\n        bool isAllowed = false;\n        for (uint256 i = 0; i < tokensAllowed.length; i++) {\n            if (tokensAllowed[i] == tokenAddress_) {\n                _;\n                isAllowed = true;\n            }\n        }\n        require(isAllowed, \"Not Allowed Token\");\n    }\n\n    /*\n     * @dev Creates a vesting contract.\n     * @param token_ address of the ERC20 token contract\n     * @param splitDuration_ time for end split\n     */\n\n    constructor(\n        address token_,\n        uint256 splitDuration_,\n        uint256 price_,\n        address[] memory tokensAllowed_,\n        uint256 _initTokenAmount\n    ) {\n        require(token_ != address(0x0), \"Token address wrong!\");\n        price = price_;\n        tokensAllowed = tokensAllowed_;\n        initTokenAmount = _initTokenAmount;\n        _token = IERC20(token_);\n        isStarted = false;\n        splitDuration = splitDuration_;\n    }\n\n    function startSaleSchedule(uint256 _time)\n        public\n        onlyOwner\n        onlyIfSaleScheduleNotStarted\n    {\n        isStarted = true;\n        startedTime = _time;\n    }\n\n    function addBuyer(address buyerAddress, uint256 amount) public onlyOwner {\n        Buyer storage buyer = buyers[buyerAddress];\n        if (!buyer.initialized) {\n            buyer.initialized = true;\n        }\n        buyer.totalAllowedAmount = buyer.totalAllowedAmount + amount;\n    }\n\n    function buyToken(address _allowedToken, uint256 tokenAmount)\n        public\n        tokenAllowed(_allowedToken)\n        nonReentrant\n    {\n        Buyer storage buyer = buyers[msg.sender];\n        require(\n            buyer.totalAllowedAmount >= tokenAmount,\n            \"Allowed amount insufficent!\"\n        );\n        require(\n            initTokenAmount - totalSold >= tokenAmount,\n            \"Amount left insufficent!\"\n        );\n        uint256 allowedTokenAmount = tokenAmount * price;\n        IERC20 token = IERC20(_allowedToken);\n        require(\n            token.allowance(msg.sender, address(this)) >= allowedTokenAmount,\n            \"Allowance amount insufficent!\"\n        );\n        token.transferFrom(msg.sender, address(this), allowedTokenAmount);\n        totalSold = totalSold + tokenAmount * 1 ether;\n        buyer.totalAmount = buyer.totalAmount + tokenAmount * 1 ether;\n        buyer.totalAllowedAmount =\n            buyer.totalAllowedAmount -\n            tokenAmount *\n            1 ether;\n    }\n\n    function release() public onlyIfSaleScheduleStarted nonReentrant {\n        Buyer storage buyer = buyers[msg.sender];\n        uint256 _amount = calculateWithdrawableAmount(msg.sender);\n        require(_amount > 0, \"Amount insufficents\");\n        require(buyer.initialized, \"Wut?\");\n        address payable beneficiaryPayable = payable(msg.sender);\n        _token.safeTransfer(beneficiaryPayable, _amount);\n        buyer.amountHasBeenWithdrawn = buyer.amountHasBeenWithdrawn + _amount;\n        emit Released(_amount);\n    }\n\n    function calculateWithdrawableAmount(address _buyerAddress)\n        public\n        view\n        returns (uint256)\n    {\n        Buyer memory _buyer = buyers[_buyerAddress];\n        uint256 currentSplit = getSplitByTime(getCurrentTime());\n        uint256 totalWithdrawable = (_buyer.totalAmount * currentSplit) /\n            splitCount;\n        return totalWithdrawable - _buyer.amountHasBeenWithdrawn;\n    }\n\n    function burnContractBalanceLeft() public nonReentrant onlyOwner {\n        for (uint256 i = 0; i < tokensAllowed.length; i++) {\n            uint256 balance = IERC20(tokensAllowed[i]).balanceOf(\n                (address(this))\n            );\n            if (balance > 0) {\n                IERC20(tokensAllowed[i]).transfer(burnAddress, balance);\n            }\n        }\n    }\n\n    function getSplitByTime(uint256 _time) public view returns (uint256) {\n        if (_time < startedTime || !isStarted) {\n            return 0;\n        }\n        if ((_time - startedTime) / splitDuration >= splitCount) {\n            return splitCount;\n        }\n        return 1 + (_time - startedTime) / splitDuration;\n    }\n\n    function getBalance() public view returns (uint256) {\n        return _token.balanceOf(address(this));\n    }\n\n    function getCurrentTime() public view returns (uint256) {\n        return block.timestamp;\n    }\n\n    function getTimes() public view returns (uint256[splitCount] memory) {\n        uint256[splitCount] memory times;\n        for (uint256 i = 0; i < splitCount; i++) {\n            times[i] = startedTime + (splitDuration * i);\n        }\n        return times;\n    }\n}\n",
  "sourcePath": "contracts/AniwarTokenSale.sol",
  "type": "contract"
}