{
  "abi": [
    {
      "inputs": [
        {
          "internalType": "address",
          "name": "token_",
          "type": "address"
        },
        {
          "internalType": "uint256",
          "name": "splitDuration_",
          "type": "uint256"
        },
        {
          "internalType": "uint256",
          "name": "splitCount_",
          "type": "uint256"
        },
        {
          "internalType": "uint256",
          "name": "initializedAmount_",
          "type": "uint256"
        }
      ],
      "stateMutability": "nonpayable",
      "type": "constructor"
    },
    {
      "anonymous": false,
      "inputs": [],
      "name": "Begin",
      "type": "event"
    },
    {
      "anonymous": false,
      "inputs": [
        {
          "indexed": true,
          "internalType": "address",
          "name": "previousOwner",
          "type": "address"
        },
        {
          "indexed": true,
          "internalType": "address",
          "name": "newOwner",
          "type": "address"
        }
      ],
      "name": "OwnershipTransferred",
      "type": "event"
    },
    {
      "anonymous": false,
      "inputs": [
        {
          "indexed": false,
          "internalType": "uint256",
          "name": "amount",
          "type": "uint256"
        }
      ],
      "name": "Released",
      "type": "event"
    },
    {
      "inputs": [
        {
          "internalType": "address",
          "name": "_beneficiary",
          "type": "address"
        },
        {
          "internalType": "uint256",
          "name": "_cliff",
          "type": "uint256"
        },
        {
          "internalType": "uint256",
          "name": "_amount",
          "type": "uint256"
        },
        {
          "internalType": "uint256",
          "name": "_TGERatio",
          "type": "uint256"
        }
      ],
      "name": "addBeneficiary",
      "outputs": [],
      "stateMutability": "nonpayable",
      "type": "function"
    },
    {
      "inputs": [
        {
          "internalType": "address",
          "name": "",
          "type": "address"
        }
      ],
      "name": "beneficiaries",
      "outputs": [
        {
          "internalType": "uint256",
          "name": "totalAmount",
          "type": "uint256"
        },
        {
          "internalType": "uint256",
          "name": "TGEAmount",
          "type": "uint256"
        },
        {
          "internalType": "uint256",
          "name": "cliff",
          "type": "uint256"
        },
        {
          "internalType": "uint256",
          "name": "totalAmountHasBeenWithdrawn",
          "type": "uint256"
        },
        {
          "internalType": "bool",
          "name": "isInitialized",
          "type": "bool"
        }
      ],
      "stateMutability": "view",
      "type": "function"
    },
    {
      "inputs": [
        {
          "internalType": "address",
          "name": "_beneficiary",
          "type": "address"
        }
      ],
      "name": "calculateWithdrawableAmount",
      "outputs": [
        {
          "internalType": "uint256",
          "name": "",
          "type": "uint256"
        }
      ],
      "stateMutability": "view",
      "type": "function"
    },
    {
      "inputs": [],
      "name": "getBalance",
      "outputs": [
        {
          "internalType": "uint256",
          "name": "",
          "type": "uint256"
        }
      ],
      "stateMutability": "view",
      "type": "function"
    },
    {
      "inputs": [],
      "name": "getContractInfo",
      "outputs": [
        {
          "internalType": "bool",
          "name": "",
          "type": "bool"
        },
        {
          "internalType": "uint256",
          "name": "",
          "type": "uint256"
        },
        {
          "internalType": "uint256",
          "name": "",
          "type": "uint256"
        },
        {
          "internalType": "uint256",
          "name": "",
          "type": "uint256"
        },
        {
          "internalType": "uint256",
          "name": "",
          "type": "uint256"
        },
        {
          "internalType": "uint256",
          "name": "",
          "type": "uint256"
        }
      ],
      "stateMutability": "view",
      "type": "function"
    },
    {
      "inputs": [],
      "name": "getCurrentTime",
      "outputs": [
        {
          "internalType": "uint256",
          "name": "",
          "type": "uint256"
        }
      ],
      "stateMutability": "view",
      "type": "function"
    },
    {
      "inputs": [],
      "name": "getToken",
      "outputs": [
        {
          "internalType": "address",
          "name": "",
          "type": "address"
        }
      ],
      "stateMutability": "view",
      "type": "function"
    },
    {
      "inputs": [],
      "name": "owner",
      "outputs": [
        {
          "internalType": "address",
          "name": "",
          "type": "address"
        }
      ],
      "stateMutability": "view",
      "type": "function"
    },
    {
      "inputs": [],
      "name": "releaseAll",
      "outputs": [],
      "stateMutability": "nonpayable",
      "type": "function"
    },
    {
      "inputs": [],
      "name": "releaseOne",
      "outputs": [],
      "stateMutability": "nonpayable",
      "type": "function"
    },
    {
      "inputs": [],
      "name": "renounceOwnership",
      "outputs": [],
      "stateMutability": "nonpayable",
      "type": "function"
    },
    {
      "inputs": [
        {
          "internalType": "uint256",
          "name": "_time",
          "type": "uint256"
        }
      ],
      "name": "startSchedule",
      "outputs": [],
      "stateMutability": "nonpayable",
      "type": "function"
    },
    {
      "inputs": [
        {
          "internalType": "address",
          "name": "newOwner",
          "type": "address"
        }
      ],
      "name": "transferOwnership",
      "outputs": [],
      "stateMutability": "nonpayable",
      "type": "function"
    }
  ],
  "bytecode": "60e060405234801561001057600080fd5b506040516115b03803806115b083398101604081905261002f9161015c565b6100383361010c565b600180556001600160a01b0384166100975760405162461bcd60e51b815260206004820152601460248201527f546f6b656e20616464726573732077726f6e672100000000000000000000000060448201526064015b60405180910390fd5b6001600160a01b03841660805260a0839052816100f65760405162461bcd60e51b815260206004820152601960248201527f53706c697420636f756e746572206d757374206265203e203000000000000000604482015260640161008e565b60c0919091526004819055600555506101a79050565b600080546001600160a01b038381166001600160a01b0319831681178455604051919092169283917f8be0079c531659141344cd1fd0a4f28419497f9722a3daafe3b4186f6b6457e09190a35050565b6000806000806080858703121561017257600080fd5b84516001600160a01b038116811461018957600080fd5b60208601516040870151606090970151919890975090945092505050565b60805160a05160c05161139b6102156000396000818161021c015281816104060152818161042e0152818161047d01526109d80152600081816101f401526103cb01526000818161015b015281816102a901528181610652015281816107980152610d12015261139b6000f3fe608060405234801561001057600080fd5b50600436106100cf5760003560e01c8063715018a61161008c5780638da5cb5b116100665780638da5cb5b14610252578063b095e12914610263578063e014decf14610276578063f2fde38b1461027e57600080fd5b8063715018a6146101b6578063746c7c3c146101be5780637cc1f867146101d157600080fd5b806301567739146100d457806312065fe01461014357806321df0da71461015957806329cb924d146101935780632db8c331146101995780635be7fde8146101ac575b600080fd5b6101146100e236600461111b565b600760205260009081526040902080546001820154600283015460038401546004909401549293919290919060ff1685565b6040805195865260208601949094529284019190915260608301521515608082015260a0015b60405180910390f35b61014b610291565b60405190815260200161013a565b7f00000000000000000000000000000000000000000000000000000000000000005b6040516001600160a01b03909116815260200161013a565b4261014b565b61014b6101a736600461111b565b610321565b6101b4610518565b005b6101b46106cb565b6101b46101cc366004611136565b610701565b6002546003546004546005546040805160ff9095161515855260208501939093527f0000000000000000000000000000000000000000000000000000000000000000928401929092527f00000000000000000000000000000000000000000000000000000000000000006060840152608083015260a082015260c00161013a565b6000546001600160a01b031661017b565b6101b461027136600461114f565b61088f565b6101b4610b8d565b6101b461028c36600461111b565b610d76565b6040516370a0823160e01b81523060048201526000907f00000000000000000000000000000000000000000000000000000000000000006001600160a01b0316906370a0823190602401602060405180830381865afa1580156102f8573d6000803e3d6000fd5b505050506040513d601f19601f8201168201806040525081019061031c9190611188565b905090565b60025460009060ff1661034f5760405162461bcd60e51b8152600401610346906111a1565b60405180910390fd5b6001600160a01b038216600090815260076020908152604091829020825160a081018452815481526001820154928101929092526002810154928201929092526003820154606082015260049091015460ff1615801560808301524290806103b8575060035481105b156103c7575060009392505050565b60007f0000000000000000000000000000000000000000000000000000000000000000600354836103f891906111ee565b6104029190611205565b90507f0000000000000000000000000000000000000000000000000000000000000000811061044e57507f00000000000000000000000000000000000000000000000000000000000000005b80610457575060015b826040015181101561046e57506000949350505050565b60408301516000906104a160017f00000000000000000000000000000000000000000000000000000000000000006111ee565b6104ab91906111ee565b602085015185516104bc91906111ee565b6104c69190611205565b90508360600151846020015185604001516001856104e491906111ee565b6104ee91906111ee565b6104f89084611227565b6105029190611246565b61050c91906111ee565b9450505050505b919050565b6000546001600160a01b031633146105425760405162461bcd60e51b81526004016103469061125e565b60025460ff166105645760405162461bcd60e51b8152600401610346906111a1565b600260015414156105b75760405162461bcd60e51b815260206004820152601f60248201527f5265656e7472616e637947756172643a207265656e7472616e742063616c6c006044820152606401610346565b600260015560005b6006548110156106c4576000600682815481106105de576105de611293565b60009182526020808320909101546001600160a01b03168083526007909152604082209092509061060e83610321565b600483015490915060ff1680156106255750600081115b156106ae578082600301600082825461063e9190611246565b909155508390506106796001600160a01b037f0000000000000000000000000000000000000000000000000000000000000000168284610e11565b6040518281527ffb81f9b30d73d830c3544b34d827c08142579ee75710b490bab0b3995468c5659060200160405180910390a1505b50505080806106bc906112a9565b9150506105bf565b5060018055565b6000546001600160a01b031633146106f55760405162461bcd60e51b81526004016103469061125e565b6106ff6000610e68565b565b6000546001600160a01b0316331461072b5760405162461bcd60e51b81526004016103469061125e565b60025460ff16156107745760405162461bcd60e51b815260206004820152601360248201527256657374696e6720697320537461727465642160681b6044820152606401610346565b600480546040516370a0823160e01b81523092810192909252906001600160a01b037f000000000000000000000000000000000000000000000000000000000000000016906370a0823190602401602060405180830381865afa1580156107df573d6000803e3d6000fd5b505050506040513d601f19601f820116820180604052508101906108039190611188565b10156108515760405162461bcd60e51b815260206004820152601f60248201527f416d6f756e7420657863656564732062616c616e636520616e6420496e6974006044820152606401610346565b6002805460ff1916600117905560038190556040517ffd3415c24b2b4519f08b7935c13f86ea010c77b3ff9bf448a474ae3b2414fce090600090a150565b6000546001600160a01b031633146108b95760405162461bcd60e51b81526004016103469061125e565b60025460ff16156109025760405162461bcd60e51b815260206004820152601360248201527256657374696e6720697320537461727465642160681b6044820152606401610346565b6005548211156109865760405162461bcd60e51b815260206004820152604360248201527f546f6b656e56657374696e673a2063616e6e6f74206164642062656e6566696360448201527f69617279202062656361757365206e6f742073756666696369656e7420746f6b606482015262656e7360e81b608482015260a401610346565b600082116109d65760405162461bcd60e51b815260206004820181905260248201527f546f6b656e56657374696e673a20616d6f756e74206d757374206265203e20306044820152606401610346565b7f00000000000000000000000000000000000000000000000000000000000000008310610a4f5760405162461bcd60e51b815260206004820152602160248201527f636c696666206d757374206c657373207468616e2073756d206f662073706c696044820152601d60fa1b6064820152608401610346565b60648110610a9f5760405162461bcd60e51b815260206004820152601860248201527f52617465206d757374206c657373207468616e203130302500000000000000006044820152606401610346565b6001600160a01b0384166000908152600760205260409020600481015460ff16610b1e57600481018054600160ff1990911681179091556006805491820181556000527ff652222313e28459528d920b65115c16c04f3efc82aaedc97be59f3f377c0d3f0180546001600160a01b0319166001600160a01b0387161790555b60028101849055805483908290600090610b39908490611246565b9091555060649050610b4b8385611227565b610b559190611205565b816001016000828254610b689190611246565b925050819055508260056000828254610b8191906111ee565b90915550505050505050565b60025460ff16610baf5760405162461bcd60e51b8152600401610346906111a1565b60026001541415610c025760405162461bcd60e51b815260206004820152601f60248201527f5265656e7472616e637947756172643a207265656e7472616e742063616c6c006044820152606401610346565b6002600155336000610c1382610321565b6001600160a01b038316600090815260076020526040902060048101549192509060ff16610ca95760405162461bcd60e51b815260206004820152603860248201527f546f6b656e56657374696e673a206f6e6c792062656e6566696369617279206360448201527f616e2072656c656173652076657374656420746f6b656e7300000000000000006064820152608401610346565b60008211610d045760405162461bcd60e51b815260206004820152602260248201527f416d6f756e742063616e2062652052656c6561736564206d757374206265203e604482015261020360f41b6064820152608401610346565b82610d396001600160a01b037f0000000000000000000000000000000000000000000000000000000000000000168285610e11565b6040518381527ffb81f9b30d73d830c3544b34d827c08142579ee75710b490bab0b3995468c5659060200160405180910390a15050600180555050565b6000546001600160a01b03163314610da05760405162461bcd60e51b81526004016103469061125e565b6001600160a01b038116610e055760405162461bcd60e51b815260206004820152602660248201527f4f776e61626c653a206e6577206f776e657220697320746865207a65726f206160448201526564647265737360d01b6064820152608401610346565b610e0e81610e68565b50565b604080516001600160a01b038416602482015260448082018490528251808303909101815260649091019091526020810180516001600160e01b031663a9059cbb60e01b179052610e63908490610eb8565b505050565b600080546001600160a01b038381166001600160a01b0319831681178455604051919092169283917f8be0079c531659141344cd1fd0a4f28419497f9722a3daafe3b4186f6b6457e09190a35050565b6000610f0d826040518060400160405280602081526020017f5361666545524332303a206c6f772d6c6576656c2063616c6c206661696c6564815250856001600160a01b0316610f8a9092919063ffffffff16565b805190915015610e635780806020019051810190610f2b91906112c4565b610e635760405162461bcd60e51b815260206004820152602a60248201527f5361666545524332303a204552433230206f7065726174696f6e20646964206e6044820152691bdd081cdd58d8d9595960b21b6064820152608401610346565b6060610f998484600085610fa3565b90505b9392505050565b6060824710156110045760405162461bcd60e51b815260206004820152602660248201527f416464726573733a20696e73756666696369656e742062616c616e636520666f6044820152651c8818d85b1b60d21b6064820152608401610346565b843b6110525760405162461bcd60e51b815260206004820152601d60248201527f416464726573733a2063616c6c20746f206e6f6e2d636f6e74726163740000006044820152606401610346565b600080866001600160a01b0316858760405161106e9190611316565b60006040518083038185875af1925050503d80600081146110ab576040519150601f19603f3d011682016040523d82523d6000602084013e6110b0565b606091505b50915091506110c08282866110cb565b979650505050505050565b606083156110da575081610f9c565b8251156110ea5782518084602001fd5b8160405162461bcd60e51b81526004016103469190611332565b80356001600160a01b038116811461051357600080fd5b60006020828403121561112d57600080fd5b610f9c82611104565b60006020828403121561114857600080fd5b5035919050565b6000806000806080858703121561116557600080fd5b61116e85611104565b966020860135965060408601359560600135945092505050565b60006020828403121561119a57600080fd5b5051919050565b6020808252601b908201527f56657374696e67206973206e6f74205374617274656420596574210000000000604082015260600190565b634e487b7160e01b600052601160045260246000fd5b600082821015611200576112006111d8565b500390565b60008261122257634e487b7160e01b600052601260045260246000fd5b500490565b6000816000190483118215151615611241576112416111d8565b500290565b60008219821115611259576112596111d8565b500190565b6020808252818101527f4f776e61626c653a2063616c6c6572206973206e6f7420746865206f776e6572604082015260600190565b634e487b7160e01b600052603260045260246000fd5b60006000198214156112bd576112bd6111d8565b5060010190565b6000602082840312156112d657600080fd5b81518015158114610f9c57600080fd5b60005b838110156113015781810151838201526020016112e9565b83811115611310576000848401525b50505050565b600082516113288184602087016112e6565b9190910192915050565b60208152600082518060208401526113518160408501602087016112e6565b601f01601f1916919091016040019291505056fea2646970667358221220da80e8705c5322c73cb7b3317876008709fa4a01d03cfcda0794ec7648c3212f64736f6c634300080a0033",
  "bytecodeSha1": "6760062101ca7017fb79fc47c88f8b1d55381ac7",
  "compiler": {
    "evm_version": "istanbul",
    "optimizer": {
      "enabled": true,
      "runs": 200
    },
    "version": "0.8.10+commit.fc410830"
  },
  "contractName": "AniwarVestingV2",
  "language": "Solidity",
  "natspec": {
    "kind": "dev",
    "methods": {
      "owner()": {
        "details": "Returns the address of the current owner."
      },
      "renounceOwnership()": {
        "details": "Leaves the contract without owner. It will not be possible to call `onlyOwner` functions anymore. Can only be called by the current owner. NOTE: Renouncing ownership will leave the contract without an owner, thereby removing any functionality that is only available to the owner."
      },
      "transferOwnership(address)": {
        "details": "Transfers ownership of the contract to a new account (`newOwner`). Can only be called by the current owner."
      }
    },
    "title": "TokenVesting",
    "version": 1
  },
  "opcodes": "PUSH1 0x80 PUSH1 0x40 MSTORE CALLVALUE DUP1 ISZERO PUSH2 0x10 JUMPI PUSH1 0x0 DUP1 REVERT JUMPDEST POP PUSH1 0x4 CALLDATASIZE LT PUSH2 0xCF JUMPI PUSH1 0x0 CALLDATALOAD PUSH1 0xE0 SHR DUP1 PUSH4 0x715018A6 GT PUSH2 0x8C JUMPI DUP1 PUSH4 0x8DA5CB5B GT PUSH2 0x66 JUMPI DUP1 PUSH4 0x8DA5CB5B EQ PUSH2 0x252 JUMPI DUP1 PUSH4 0xB095E129 EQ PUSH2 0x263 JUMPI DUP1 PUSH4 0xE014DECF EQ PUSH2 0x276 JUMPI DUP1 PUSH4 0xF2FDE38B EQ PUSH2 0x27E JUMPI PUSH1 0x0 DUP1 REVERT JUMPDEST DUP1 PUSH4 0x715018A6 EQ PUSH2 0x1B6 JUMPI DUP1 PUSH4 0x746C7C3C EQ PUSH2 0x1BE JUMPI DUP1 PUSH4 0x7CC1F867 EQ PUSH2 0x1D1 JUMPI PUSH1 0x0 DUP1 REVERT JUMPDEST DUP1 PUSH4 0x1567739 EQ PUSH2 0xD4 JUMPI DUP1 PUSH4 0x12065FE0 EQ PUSH2 0x143 JUMPI DUP1 PUSH4 0x21DF0DA7 EQ PUSH2 0x159 JUMPI DUP1 PUSH4 0x29CB924D EQ PUSH2 0x193 JUMPI DUP1 PUSH4 0x2DB8C331 EQ PUSH2 0x199 JUMPI DUP1 PUSH4 0x5BE7FDE8 EQ PUSH2 0x1AC JUMPI JUMPDEST PUSH1 0x0 DUP1 REVERT JUMPDEST PUSH2 0x114 PUSH2 0xE2 CALLDATASIZE PUSH1 0x4 PUSH2 0x111B JUMP JUMPDEST PUSH1 0x7 PUSH1 0x20 MSTORE PUSH1 0x0 SWAP1 DUP2 MSTORE PUSH1 0x40 SWAP1 KECCAK256 DUP1 SLOAD PUSH1 0x1 DUP3 ADD SLOAD PUSH1 0x2 DUP4 ADD SLOAD PUSH1 0x3 DUP5 ADD SLOAD PUSH1 0x4 SWAP1 SWAP5 ADD SLOAD SWAP3 SWAP4 SWAP2 SWAP3 SWAP1 SWAP2 SWAP1 PUSH1 0xFF AND DUP6 JUMP JUMPDEST PUSH1 0x40 DUP1 MLOAD SWAP6 DUP7 MSTORE PUSH1 0x20 DUP7 ADD SWAP5 SWAP1 SWAP5 MSTORE SWAP3 DUP5 ADD SWAP2 SWAP1 SWAP2 MSTORE PUSH1 0x60 DUP4 ADD MSTORE ISZERO ISZERO PUSH1 0x80 DUP3 ADD MSTORE PUSH1 0xA0 ADD JUMPDEST PUSH1 0x40 MLOAD DUP1 SWAP2 SUB SWAP1 RETURN JUMPDEST PUSH2 0x14B PUSH2 0x291 JUMP JUMPDEST PUSH1 0x40 MLOAD SWAP1 DUP2 MSTORE PUSH1 0x20 ADD PUSH2 0x13A JUMP JUMPDEST PUSH32 0x0 JUMPDEST PUSH1 0x40 MLOAD PUSH1 0x1 PUSH1 0x1 PUSH1 0xA0 SHL SUB SWAP1 SWAP2 AND DUP2 MSTORE PUSH1 0x20 ADD PUSH2 0x13A JUMP JUMPDEST TIMESTAMP PUSH2 0x14B JUMP JUMPDEST PUSH2 0x14B PUSH2 0x1A7 CALLDATASIZE PUSH1 0x4 PUSH2 0x111B JUMP JUMPDEST PUSH2 0x321 JUMP JUMPDEST PUSH2 0x1B4 PUSH2 0x518 JUMP JUMPDEST STOP JUMPDEST PUSH2 0x1B4 PUSH2 0x6CB JUMP JUMPDEST PUSH2 0x1B4 PUSH2 0x1CC CALLDATASIZE PUSH1 0x4 PUSH2 0x1136 JUMP JUMPDEST PUSH2 0x701 JUMP JUMPDEST PUSH1 0x2 SLOAD PUSH1 0x3 SLOAD PUSH1 0x4 SLOAD PUSH1 0x5 SLOAD PUSH1 0x40 DUP1 MLOAD PUSH1 0xFF SWAP1 SWAP6 AND ISZERO ISZERO DUP6 MSTORE PUSH1 0x20 DUP6 ADD SWAP4 SWAP1 SWAP4 MSTORE PUSH32 0x0 SWAP3 DUP5 ADD SWAP3 SWAP1 SWAP3 MSTORE PUSH32 0x0 PUSH1 0x60 DUP5 ADD MSTORE PUSH1 0x80 DUP4 ADD MSTORE PUSH1 0xA0 DUP3 ADD MSTORE PUSH1 0xC0 ADD PUSH2 0x13A JUMP JUMPDEST PUSH1 0x0 SLOAD PUSH1 0x1 PUSH1 0x1 PUSH1 0xA0 SHL SUB AND PUSH2 0x17B JUMP JUMPDEST PUSH2 0x1B4 PUSH2 0x271 CALLDATASIZE PUSH1 0x4 PUSH2 0x114F JUMP JUMPDEST PUSH2 0x88F JUMP JUMPDEST PUSH2 0x1B4 PUSH2 0xB8D JUMP JUMPDEST PUSH2 0x1B4 PUSH2 0x28C CALLDATASIZE PUSH1 0x4 PUSH2 0x111B JUMP JUMPDEST PUSH2 0xD76 JUMP JUMPDEST PUSH1 0x40 MLOAD PUSH4 0x70A08231 PUSH1 0xE0 SHL DUP2 MSTORE ADDRESS PUSH1 0x4 DUP3 ADD MSTORE PUSH1 0x0 SWAP1 PUSH32 0x0 PUSH1 0x1 PUSH1 0x1 PUSH1 0xA0 SHL SUB AND SWAP1 PUSH4 0x70A08231 SWAP1 PUSH1 0x24 ADD PUSH1 0x20 PUSH1 0x40 MLOAD DUP1 DUP4 SUB DUP2 DUP7 GAS STATICCALL ISZERO DUP1 ISZERO PUSH2 0x2F8 JUMPI RETURNDATASIZE PUSH1 0x0 DUP1 RETURNDATACOPY RETURNDATASIZE PUSH1 0x0 REVERT JUMPDEST POP POP POP POP PUSH1 0x40 MLOAD RETURNDATASIZE PUSH1 0x1F NOT PUSH1 0x1F DUP3 ADD AND DUP3 ADD DUP1 PUSH1 0x40 MSTORE POP DUP2 ADD SWAP1 PUSH2 0x31C SWAP2 SWAP1 PUSH2 0x1188 JUMP JUMPDEST SWAP1 POP SWAP1 JUMP JUMPDEST PUSH1 0x2 SLOAD PUSH1 0x0 SWAP1 PUSH1 0xFF AND PUSH2 0x34F JUMPI PUSH1 0x40 MLOAD PUSH3 0x461BCD PUSH1 0xE5 SHL DUP2 MSTORE PUSH1 0x4 ADD PUSH2 0x346 SWAP1 PUSH2 0x11A1 JUMP JUMPDEST PUSH1 0x40 MLOAD DUP1 SWAP2 SUB SWAP1 REVERT JUMPDEST PUSH1 0x1 PUSH1 0x1 PUSH1 0xA0 SHL SUB DUP3 AND PUSH1 0x0 SWAP1 DUP2 MSTORE PUSH1 0x7 PUSH1 0x20 SWAP1 DUP2 MSTORE PUSH1 0x40 SWAP2 DUP3 SWAP1 KECCAK256 DUP3 MLOAD PUSH1 0xA0 DUP2 ADD DUP5 MSTORE DUP2 SLOAD DUP2 MSTORE PUSH1 0x1 DUP3 ADD SLOAD SWAP3 DUP2 ADD SWAP3 SWAP1 SWAP3 MSTORE PUSH1 0x2 DUP2 ADD SLOAD SWAP3 DUP3 ADD SWAP3 SWAP1 SWAP3 MSTORE PUSH1 0x3 DUP3 ADD SLOAD PUSH1 0x60 DUP3 ADD MSTORE PUSH1 0x4 SWAP1 SWAP2 ADD SLOAD PUSH1 0xFF AND ISZERO DUP1 ISZERO PUSH1 0x80 DUP4 ADD MSTORE TIMESTAMP SWAP1 DUP1 PUSH2 0x3B8 JUMPI POP PUSH1 0x3 SLOAD DUP2 LT JUMPDEST ISZERO PUSH2 0x3C7 JUMPI POP PUSH1 0x0 SWAP4 SWAP3 POP POP POP JUMP JUMPDEST PUSH1 0x0 PUSH32 0x0 PUSH1 0x3 SLOAD DUP4 PUSH2 0x3F8 SWAP2 SWAP1 PUSH2 0x11EE JUMP JUMPDEST PUSH2 0x402 SWAP2 SWAP1 PUSH2 0x1205 JUMP JUMPDEST SWAP1 POP PUSH32 0x0 DUP2 LT PUSH2 0x44E JUMPI POP PUSH32 0x0 JUMPDEST DUP1 PUSH2 0x457 JUMPI POP PUSH1 0x1 JUMPDEST DUP3 PUSH1 0x40 ADD MLOAD DUP2 LT ISZERO PUSH2 0x46E JUMPI POP PUSH1 0x0 SWAP5 SWAP4 POP POP POP POP JUMP JUMPDEST PUSH1 0x40 DUP4 ADD MLOAD PUSH1 0x0 SWAP1 PUSH2 0x4A1 PUSH1 0x1 PUSH32 0x0 PUSH2 0x11EE JUMP JUMPDEST PUSH2 0x4AB SWAP2 SWAP1 PUSH2 0x11EE JUMP JUMPDEST PUSH1 0x20 DUP6 ADD MLOAD DUP6 MLOAD PUSH2 0x4BC SWAP2 SWAP1 PUSH2 0x11EE JUMP JUMPDEST PUSH2 0x4C6 SWAP2 SWAP1 PUSH2 0x1205 JUMP JUMPDEST SWAP1 POP DUP4 PUSH1 0x60 ADD MLOAD DUP5 PUSH1 0x20 ADD MLOAD DUP6 PUSH1 0x40 ADD MLOAD PUSH1 0x1 DUP6 PUSH2 0x4E4 SWAP2 SWAP1 PUSH2 0x11EE JUMP JUMPDEST PUSH2 0x4EE SWAP2 SWAP1 PUSH2 0x11EE JUMP JUMPDEST PUSH2 0x4F8 SWAP1 DUP5 PUSH2 0x1227 JUMP JUMPDEST PUSH2 0x502 SWAP2 SWAP1 PUSH2 0x1246 JUMP JUMPDEST PUSH2 0x50C SWAP2 SWAP1 PUSH2 0x11EE JUMP JUMPDEST SWAP5 POP POP POP POP POP JUMPDEST SWAP2 SWAP1 POP JUMP JUMPDEST PUSH1 0x0 SLOAD PUSH1 0x1 PUSH1 0x1 PUSH1 0xA0 SHL SUB AND CALLER EQ PUSH2 0x542 JUMPI PUSH1 0x40 MLOAD PUSH3 0x461BCD PUSH1 0xE5 SHL DUP2 MSTORE PUSH1 0x4 ADD PUSH2 0x346 SWAP1 PUSH2 0x125E JUMP JUMPDEST PUSH1 0x2 SLOAD PUSH1 0xFF AND PUSH2 0x564 JUMPI PUSH1 0x40 MLOAD PUSH3 0x461BCD PUSH1 0xE5 SHL DUP2 MSTORE PUSH1 0x4 ADD PUSH2 0x346 SWAP1 PUSH2 0x11A1 JUMP JUMPDEST PUSH1 0x2 PUSH1 0x1 SLOAD EQ ISZERO PUSH2 0x5B7 JUMPI PUSH1 0x40 MLOAD PUSH3 0x461BCD PUSH1 0xE5 SHL DUP2 MSTORE PUSH1 0x20 PUSH1 0x4 DUP3 ADD MSTORE PUSH1 0x1F PUSH1 0x24 DUP3 ADD MSTORE PUSH32 0x5265656E7472616E637947756172643A207265656E7472616E742063616C6C00 PUSH1 0x44 DUP3 ADD MSTORE PUSH1 0x64 ADD PUSH2 0x346 JUMP JUMPDEST PUSH1 0x2 PUSH1 0x1 SSTORE PUSH1 0x0 JUMPDEST PUSH1 0x6 SLOAD DUP2 LT ISZERO PUSH2 0x6C4 JUMPI PUSH1 0x0 PUSH1 0x6 DUP3 DUP2 SLOAD DUP2 LT PUSH2 0x5DE JUMPI PUSH2 0x5DE PUSH2 0x1293 JUMP JUMPDEST PUSH1 0x0 SWAP2 DUP3 MSTORE PUSH1 0x20 DUP1 DUP4 KECCAK256 SWAP1 SWAP2 ADD SLOAD PUSH1 0x1 PUSH1 0x1 PUSH1 0xA0 SHL SUB AND DUP1 DUP4 MSTORE PUSH1 0x7 SWAP1 SWAP2 MSTORE PUSH1 0x40 DUP3 KECCAK256 SWAP1 SWAP3 POP SWAP1 PUSH2 0x60E DUP4 PUSH2 0x321 JUMP JUMPDEST PUSH1 0x4 DUP4 ADD SLOAD SWAP1 SWAP2 POP PUSH1 0xFF AND DUP1 ISZERO PUSH2 0x625 JUMPI POP PUSH1 0x0 DUP2 GT JUMPDEST ISZERO PUSH2 0x6AE JUMPI DUP1 DUP3 PUSH1 0x3 ADD PUSH1 0x0 DUP3 DUP3 SLOAD PUSH2 0x63E SWAP2 SWAP1 PUSH2 0x1246 JUMP JUMPDEST SWAP1 SWAP2 SSTORE POP DUP4 SWAP1 POP PUSH2 0x679 PUSH1 0x1 PUSH1 0x1 PUSH1 0xA0 SHL SUB PUSH32 0x0 AND DUP3 DUP5 PUSH2 0xE11 JUMP JUMPDEST PUSH1 0x40 MLOAD DUP3 DUP2 MSTORE PUSH32 0xFB81F9B30D73D830C3544B34D827C08142579EE75710B490BAB0B3995468C565 SWAP1 PUSH1 0x20 ADD PUSH1 0x40 MLOAD DUP1 SWAP2 SUB SWAP1 LOG1 POP JUMPDEST POP POP POP DUP1 DUP1 PUSH2 0x6BC SWAP1 PUSH2 0x12A9 JUMP JUMPDEST SWAP2 POP POP PUSH2 0x5BF JUMP JUMPDEST POP PUSH1 0x1 DUP1 SSTORE JUMP JUMPDEST PUSH1 0x0 SLOAD PUSH1 0x1 PUSH1 0x1 PUSH1 0xA0 SHL SUB AND CALLER EQ PUSH2 0x6F5 JUMPI PUSH1 0x40 MLOAD PUSH3 0x461BCD PUSH1 0xE5 SHL DUP2 MSTORE PUSH1 0x4 ADD PUSH2 0x346 SWAP1 PUSH2 0x125E JUMP JUMPDEST PUSH2 0x6FF PUSH1 0x0 PUSH2 0xE68 JUMP JUMPDEST JUMP JUMPDEST PUSH1 0x0 SLOAD PUSH1 0x1 PUSH1 0x1 PUSH1 0xA0 SHL SUB AND CALLER EQ PUSH2 0x72B JUMPI PUSH1 0x40 MLOAD PUSH3 0x461BCD PUSH1 0xE5 SHL DUP2 MSTORE PUSH1 0x4 ADD PUSH2 0x346 SWAP1 PUSH2 0x125E JUMP JUMPDEST PUSH1 0x2 SLOAD PUSH1 0xFF AND ISZERO PUSH2 0x774 JUMPI PUSH1 0x40 MLOAD PUSH3 0x461BCD PUSH1 0xE5 SHL DUP2 MSTORE PUSH1 0x20 PUSH1 0x4 DUP3 ADD MSTORE PUSH1 0x13 PUSH1 0x24 DUP3 ADD MSTORE PUSH19 0x56657374696E67206973205374617274656421 PUSH1 0x68 SHL PUSH1 0x44 DUP3 ADD MSTORE PUSH1 0x64 ADD PUSH2 0x346 JUMP JUMPDEST PUSH1 0x4 DUP1 SLOAD PUSH1 0x40 MLOAD PUSH4 0x70A08231 PUSH1 0xE0 SHL DUP2 MSTORE ADDRESS SWAP3 DUP2 ADD SWAP3 SWAP1 SWAP3 MSTORE SWAP1 PUSH1 0x1 PUSH1 0x1 PUSH1 0xA0 SHL SUB PUSH32 0x0 AND SWAP1 PUSH4 0x70A08231 SWAP1 PUSH1 0x24 ADD PUSH1 0x20 PUSH1 0x40 MLOAD DUP1 DUP4 SUB DUP2 DUP7 GAS STATICCALL ISZERO DUP1 ISZERO PUSH2 0x7DF JUMPI RETURNDATASIZE PUSH1 0x0 DUP1 RETURNDATACOPY RETURNDATASIZE PUSH1 0x0 REVERT JUMPDEST POP POP POP POP PUSH1 0x40 MLOAD RETURNDATASIZE PUSH1 0x1F NOT PUSH1 0x1F DUP3 ADD AND DUP3 ADD DUP1 PUSH1 0x40 MSTORE POP DUP2 ADD SWAP1 PUSH2 0x803 SWAP2 SWAP1 PUSH2 0x1188 JUMP JUMPDEST LT ISZERO PUSH2 0x851 JUMPI PUSH1 0x40 MLOAD PUSH3 0x461BCD PUSH1 0xE5 SHL DUP2 MSTORE PUSH1 0x20 PUSH1 0x4 DUP3 ADD MSTORE PUSH1 0x1F PUSH1 0x24 DUP3 ADD MSTORE PUSH32 0x416D6F756E7420657863656564732062616C616E636520616E6420496E697400 PUSH1 0x44 DUP3 ADD MSTORE PUSH1 0x64 ADD PUSH2 0x346 JUMP JUMPDEST PUSH1 0x2 DUP1 SLOAD PUSH1 0xFF NOT AND PUSH1 0x1 OR SWAP1 SSTORE PUSH1 0x3 DUP2 SWAP1 SSTORE PUSH1 0x40 MLOAD PUSH32 0xFD3415C24B2B4519F08B7935C13F86EA010C77B3FF9BF448A474AE3B2414FCE0 SWAP1 PUSH1 0x0 SWAP1 LOG1 POP JUMP JUMPDEST PUSH1 0x0 SLOAD PUSH1 0x1 PUSH1 0x1 PUSH1 0xA0 SHL SUB AND CALLER EQ PUSH2 0x8B9 JUMPI PUSH1 0x40 MLOAD PUSH3 0x461BCD PUSH1 0xE5 SHL DUP2 MSTORE PUSH1 0x4 ADD PUSH2 0x346 SWAP1 PUSH2 0x125E JUMP JUMPDEST PUSH1 0x2 SLOAD PUSH1 0xFF AND ISZERO PUSH2 0x902 JUMPI PUSH1 0x40 MLOAD PUSH3 0x461BCD PUSH1 0xE5 SHL DUP2 MSTORE PUSH1 0x20 PUSH1 0x4 DUP3 ADD MSTORE PUSH1 0x13 PUSH1 0x24 DUP3 ADD MSTORE PUSH19 0x56657374696E67206973205374617274656421 PUSH1 0x68 SHL PUSH1 0x44 DUP3 ADD MSTORE PUSH1 0x64 ADD PUSH2 0x346 JUMP JUMPDEST PUSH1 0x5 SLOAD DUP3 GT ISZERO PUSH2 0x986 JUMPI PUSH1 0x40 MLOAD PUSH3 0x461BCD PUSH1 0xE5 SHL DUP2 MSTORE PUSH1 0x20 PUSH1 0x4 DUP3 ADD MSTORE PUSH1 0x43 PUSH1 0x24 DUP3 ADD MSTORE PUSH32 0x546F6B656E56657374696E673A2063616E6E6F74206164642062656E65666963 PUSH1 0x44 DUP3 ADD MSTORE PUSH32 0x69617279202062656361757365206E6F742073756666696369656E7420746F6B PUSH1 0x64 DUP3 ADD MSTORE PUSH3 0x656E73 PUSH1 0xE8 SHL PUSH1 0x84 DUP3 ADD MSTORE PUSH1 0xA4 ADD PUSH2 0x346 JUMP JUMPDEST PUSH1 0x0 DUP3 GT PUSH2 0x9D6 JUMPI PUSH1 0x40 MLOAD PUSH3 0x461BCD PUSH1 0xE5 SHL DUP2 MSTORE PUSH1 0x20 PUSH1 0x4 DUP3 ADD DUP2 SWAP1 MSTORE PUSH1 0x24 DUP3 ADD MSTORE PUSH32 0x546F6B656E56657374696E673A20616D6F756E74206D757374206265203E2030 PUSH1 0x44 DUP3 ADD MSTORE PUSH1 0x64 ADD PUSH2 0x346 JUMP JUMPDEST PUSH32 0x0 DUP4 LT PUSH2 0xA4F JUMPI PUSH1 0x40 MLOAD PUSH3 0x461BCD PUSH1 0xE5 SHL DUP2 MSTORE PUSH1 0x20 PUSH1 0x4 DUP3 ADD MSTORE PUSH1 0x21 PUSH1 0x24 DUP3 ADD MSTORE PUSH32 0x636C696666206D757374206C657373207468616E2073756D206F662073706C69 PUSH1 0x44 DUP3 ADD MSTORE PUSH1 0x1D PUSH1 0xFA SHL PUSH1 0x64 DUP3 ADD MSTORE PUSH1 0x84 ADD PUSH2 0x346 JUMP JUMPDEST PUSH1 0x64 DUP2 LT PUSH2 0xA9F JUMPI PUSH1 0x40 MLOAD PUSH3 0x461BCD PUSH1 0xE5 SHL DUP2 MSTORE PUSH1 0x20 PUSH1 0x4 DUP3 ADD MSTORE PUSH1 0x18 PUSH1 0x24 DUP3 ADD MSTORE PUSH32 0x52617465206D757374206C657373207468616E20313030250000000000000000 PUSH1 0x44 DUP3 ADD MSTORE PUSH1 0x64 ADD PUSH2 0x346 JUMP JUMPDEST PUSH1 0x1 PUSH1 0x1 PUSH1 0xA0 SHL SUB DUP5 AND PUSH1 0x0 SWAP1 DUP2 MSTORE PUSH1 0x7 PUSH1 0x20 MSTORE PUSH1 0x40 SWAP1 KECCAK256 PUSH1 0x4 DUP2 ADD SLOAD PUSH1 0xFF AND PUSH2 0xB1E JUMPI PUSH1 0x4 DUP2 ADD DUP1 SLOAD PUSH1 0x1 PUSH1 0xFF NOT SWAP1 SWAP2 AND DUP2 OR SWAP1 SWAP2 SSTORE PUSH1 0x6 DUP1 SLOAD SWAP2 DUP3 ADD DUP2 SSTORE PUSH1 0x0 MSTORE PUSH32 0xF652222313E28459528D920B65115C16C04F3EFC82AAEDC97BE59F3F377C0D3F ADD DUP1 SLOAD PUSH1 0x1 PUSH1 0x1 PUSH1 0xA0 SHL SUB NOT AND PUSH1 0x1 PUSH1 0x1 PUSH1 0xA0 SHL SUB DUP8 AND OR SWAP1 SSTORE JUMPDEST PUSH1 0x2 DUP2 ADD DUP5 SWAP1 SSTORE DUP1 SLOAD DUP4 SWAP1 DUP3 SWAP1 PUSH1 0x0 SWAP1 PUSH2 0xB39 SWAP1 DUP5 SWAP1 PUSH2 0x1246 JUMP JUMPDEST SWAP1 SWAP2 SSTORE POP PUSH1 0x64 SWAP1 POP PUSH2 0xB4B DUP4 DUP6 PUSH2 0x1227 JUMP JUMPDEST PUSH2 0xB55 SWAP2 SWAP1 PUSH2 0x1205 JUMP JUMPDEST DUP2 PUSH1 0x1 ADD PUSH1 0x0 DUP3 DUP3 SLOAD PUSH2 0xB68 SWAP2 SWAP1 PUSH2 0x1246 JUMP JUMPDEST SWAP3 POP POP DUP2 SWAP1 SSTORE POP DUP3 PUSH1 0x5 PUSH1 0x0 DUP3 DUP3 SLOAD PUSH2 0xB81 SWAP2 SWAP1 PUSH2 0x11EE JUMP JUMPDEST SWAP1 SWAP2 SSTORE POP POP POP POP POP POP POP JUMP JUMPDEST PUSH1 0x2 SLOAD PUSH1 0xFF AND PUSH2 0xBAF JUMPI PUSH1 0x40 MLOAD PUSH3 0x461BCD PUSH1 0xE5 SHL DUP2 MSTORE PUSH1 0x4 ADD PUSH2 0x346 SWAP1 PUSH2 0x11A1 JUMP JUMPDEST PUSH1 0x2 PUSH1 0x1 SLOAD EQ ISZERO PUSH2 0xC02 JUMPI PUSH1 0x40 MLOAD PUSH3 0x461BCD PUSH1 0xE5 SHL DUP2 MSTORE PUSH1 0x20 PUSH1 0x4 DUP3 ADD MSTORE PUSH1 0x1F PUSH1 0x24 DUP3 ADD MSTORE PUSH32 0x5265656E7472616E637947756172643A207265656E7472616E742063616C6C00 PUSH1 0x44 DUP3 ADD MSTORE PUSH1 0x64 ADD PUSH2 0x346 JUMP JUMPDEST PUSH1 0x2 PUSH1 0x1 SSTORE CALLER PUSH1 0x0 PUSH2 0xC13 DUP3 PUSH2 0x321 JUMP JUMPDEST PUSH1 0x1 PUSH1 0x1 PUSH1 0xA0 SHL SUB DUP4 AND PUSH1 0x0 SWAP1 DUP2 MSTORE PUSH1 0x7 PUSH1 0x20 MSTORE PUSH1 0x40 SWAP1 KECCAK256 PUSH1 0x4 DUP2 ADD SLOAD SWAP2 SWAP3 POP SWAP1 PUSH1 0xFF AND PUSH2 0xCA9 JUMPI PUSH1 0x40 MLOAD PUSH3 0x461BCD PUSH1 0xE5 SHL DUP2 MSTORE PUSH1 0x20 PUSH1 0x4 DUP3 ADD MSTORE PUSH1 0x38 PUSH1 0x24 DUP3 ADD MSTORE PUSH32 0x546F6B656E56657374696E673A206F6E6C792062656E65666963696172792063 PUSH1 0x44 DUP3 ADD MSTORE PUSH32 0x616E2072656C656173652076657374656420746F6B656E730000000000000000 PUSH1 0x64 DUP3 ADD MSTORE PUSH1 0x84 ADD PUSH2 0x346 JUMP JUMPDEST PUSH1 0x0 DUP3 GT PUSH2 0xD04 JUMPI PUSH1 0x40 MLOAD PUSH3 0x461BCD PUSH1 0xE5 SHL DUP2 MSTORE PUSH1 0x20 PUSH1 0x4 DUP3 ADD MSTORE PUSH1 0x22 PUSH1 0x24 DUP3 ADD MSTORE PUSH32 0x416D6F756E742063616E2062652052656C6561736564206D757374206265203E PUSH1 0x44 DUP3 ADD MSTORE PUSH2 0x203 PUSH1 0xF4 SHL PUSH1 0x64 DUP3 ADD MSTORE PUSH1 0x84 ADD PUSH2 0x346 JUMP JUMPDEST DUP3 PUSH2 0xD39 PUSH1 0x1 PUSH1 0x1 PUSH1 0xA0 SHL SUB PUSH32 0x0 AND DUP3 DUP6 PUSH2 0xE11 JUMP JUMPDEST PUSH1 0x40 MLOAD DUP4 DUP2 MSTORE PUSH32 0xFB81F9B30D73D830C3544B34D827C08142579EE75710B490BAB0B3995468C565 SWAP1 PUSH1 0x20 ADD PUSH1 0x40 MLOAD DUP1 SWAP2 SUB SWAP1 LOG1 POP POP PUSH1 0x1 DUP1 SSTORE POP POP JUMP JUMPDEST PUSH1 0x0 SLOAD PUSH1 0x1 PUSH1 0x1 PUSH1 0xA0 SHL SUB AND CALLER EQ PUSH2 0xDA0 JUMPI PUSH1 0x40 MLOAD PUSH3 0x461BCD PUSH1 0xE5 SHL DUP2 MSTORE PUSH1 0x4 ADD PUSH2 0x346 SWAP1 PUSH2 0x125E JUMP JUMPDEST PUSH1 0x1 PUSH1 0x1 PUSH1 0xA0 SHL SUB DUP2 AND PUSH2 0xE05 JUMPI PUSH1 0x40 MLOAD PUSH3 0x461BCD PUSH1 0xE5 SHL DUP2 MSTORE PUSH1 0x20 PUSH1 0x4 DUP3 ADD MSTORE PUSH1 0x26 PUSH1 0x24 DUP3 ADD MSTORE PUSH32 0x4F776E61626C653A206E6577206F776E657220697320746865207A65726F2061 PUSH1 0x44 DUP3 ADD MSTORE PUSH6 0x646472657373 PUSH1 0xD0 SHL PUSH1 0x64 DUP3 ADD MSTORE PUSH1 0x84 ADD PUSH2 0x346 JUMP JUMPDEST PUSH2 0xE0E DUP2 PUSH2 0xE68 JUMP JUMPDEST POP JUMP JUMPDEST PUSH1 0x40 DUP1 MLOAD PUSH1 0x1 PUSH1 0x1 PUSH1 0xA0 SHL SUB DUP5 AND PUSH1 0x24 DUP3 ADD MSTORE PUSH1 0x44 DUP1 DUP3 ADD DUP5 SWAP1 MSTORE DUP3 MLOAD DUP1 DUP4 SUB SWAP1 SWAP2 ADD DUP2 MSTORE PUSH1 0x64 SWAP1 SWAP2 ADD SWAP1 SWAP2 MSTORE PUSH1 0x20 DUP2 ADD DUP1 MLOAD PUSH1 0x1 PUSH1 0x1 PUSH1 0xE0 SHL SUB AND PUSH4 0xA9059CBB PUSH1 0xE0 SHL OR SWAP1 MSTORE PUSH2 0xE63 SWAP1 DUP5 SWAP1 PUSH2 0xEB8 JUMP JUMPDEST POP POP POP JUMP JUMPDEST PUSH1 0x0 DUP1 SLOAD PUSH1 0x1 PUSH1 0x1 PUSH1 0xA0 SHL SUB DUP4 DUP2 AND PUSH1 0x1 PUSH1 0x1 PUSH1 0xA0 SHL SUB NOT DUP4 AND DUP2 OR DUP5 SSTORE PUSH1 0x40 MLOAD SWAP2 SWAP1 SWAP3 AND SWAP3 DUP4 SWAP2 PUSH32 0x8BE0079C531659141344CD1FD0A4F28419497F9722A3DAAFE3B4186F6B6457E0 SWAP2 SWAP1 LOG3 POP POP JUMP JUMPDEST PUSH1 0x0 PUSH2 0xF0D DUP3 PUSH1 0x40 MLOAD DUP1 PUSH1 0x40 ADD PUSH1 0x40 MSTORE DUP1 PUSH1 0x20 DUP2 MSTORE PUSH1 0x20 ADD PUSH32 0x5361666545524332303A206C6F772D6C6576656C2063616C6C206661696C6564 DUP2 MSTORE POP DUP6 PUSH1 0x1 PUSH1 0x1 PUSH1 0xA0 SHL SUB AND PUSH2 0xF8A SWAP1 SWAP3 SWAP2 SWAP1 PUSH4 0xFFFFFFFF AND JUMP JUMPDEST DUP1 MLOAD SWAP1 SWAP2 POP ISZERO PUSH2 0xE63 JUMPI DUP1 DUP1 PUSH1 0x20 ADD SWAP1 MLOAD DUP2 ADD SWAP1 PUSH2 0xF2B SWAP2 SWAP1 PUSH2 0x12C4 JUMP JUMPDEST PUSH2 0xE63 JUMPI PUSH1 0x40 MLOAD PUSH3 0x461BCD PUSH1 0xE5 SHL DUP2 MSTORE PUSH1 0x20 PUSH1 0x4 DUP3 ADD MSTORE PUSH1 0x2A PUSH1 0x24 DUP3 ADD MSTORE PUSH32 0x5361666545524332303A204552433230206F7065726174696F6E20646964206E PUSH1 0x44 DUP3 ADD MSTORE PUSH10 0x1BDD081CDD58D8D95959 PUSH1 0xB2 SHL PUSH1 0x64 DUP3 ADD MSTORE PUSH1 0x84 ADD PUSH2 0x346 JUMP JUMPDEST PUSH1 0x60 PUSH2 0xF99 DUP5 DUP5 PUSH1 0x0 DUP6 PUSH2 0xFA3 JUMP JUMPDEST SWAP1 POP JUMPDEST SWAP4 SWAP3 POP POP POP JUMP JUMPDEST PUSH1 0x60 DUP3 SELFBALANCE LT ISZERO PUSH2 0x1004 JUMPI PUSH1 0x40 MLOAD PUSH3 0x461BCD PUSH1 0xE5 SHL DUP2 MSTORE PUSH1 0x20 PUSH1 0x4 DUP3 ADD MSTORE PUSH1 0x26 PUSH1 0x24 DUP3 ADD MSTORE PUSH32 0x416464726573733A20696E73756666696369656E742062616C616E636520666F PUSH1 0x44 DUP3 ADD MSTORE PUSH6 0x1C8818D85B1B PUSH1 0xD2 SHL PUSH1 0x64 DUP3 ADD MSTORE PUSH1 0x84 ADD PUSH2 0x346 JUMP JUMPDEST DUP5 EXTCODESIZE PUSH2 0x1052 JUMPI PUSH1 0x40 MLOAD PUSH3 0x461BCD PUSH1 0xE5 SHL DUP2 MSTORE PUSH1 0x20 PUSH1 0x4 DUP3 ADD MSTORE PUSH1 0x1D PUSH1 0x24 DUP3 ADD MSTORE PUSH32 0x416464726573733A2063616C6C20746F206E6F6E2D636F6E7472616374000000 PUSH1 0x44 DUP3 ADD MSTORE PUSH1 0x64 ADD PUSH2 0x346 JUMP JUMPDEST PUSH1 0x0 DUP1 DUP7 PUSH1 0x1 PUSH1 0x1 PUSH1 0xA0 SHL SUB AND DUP6 DUP8 PUSH1 0x40 MLOAD PUSH2 0x106E SWAP2 SWAP1 PUSH2 0x1316 JUMP JUMPDEST PUSH1 0x0 PUSH1 0x40 MLOAD DUP1 DUP4 SUB DUP2 DUP6 DUP8 GAS CALL SWAP3 POP POP POP RETURNDATASIZE DUP1 PUSH1 0x0 DUP2 EQ PUSH2 0x10AB JUMPI PUSH1 0x40 MLOAD SWAP2 POP PUSH1 0x1F NOT PUSH1 0x3F RETURNDATASIZE ADD AND DUP3 ADD PUSH1 0x40 MSTORE RETURNDATASIZE DUP3 MSTORE RETURNDATASIZE PUSH1 0x0 PUSH1 0x20 DUP5 ADD RETURNDATACOPY PUSH2 0x10B0 JUMP JUMPDEST PUSH1 0x60 SWAP2 POP JUMPDEST POP SWAP2 POP SWAP2 POP PUSH2 0x10C0 DUP3 DUP3 DUP7 PUSH2 0x10CB JUMP JUMPDEST SWAP8 SWAP7 POP POP POP POP POP POP POP JUMP JUMPDEST PUSH1 0x60 DUP4 ISZERO PUSH2 0x10DA JUMPI POP DUP2 PUSH2 0xF9C JUMP JUMPDEST DUP3 MLOAD ISZERO PUSH2 0x10EA JUMPI DUP3 MLOAD DUP1 DUP5 PUSH1 0x20 ADD REVERT JUMPDEST DUP2 PUSH1 0x40 MLOAD PUSH3 0x461BCD PUSH1 0xE5 SHL DUP2 MSTORE PUSH1 0x4 ADD PUSH2 0x346 SWAP2 SWAP1 PUSH2 0x1332 JUMP JUMPDEST DUP1 CALLDATALOAD PUSH1 0x1 PUSH1 0x1 PUSH1 0xA0 SHL SUB DUP2 AND DUP2 EQ PUSH2 0x513 JUMPI PUSH1 0x0 DUP1 REVERT JUMPDEST PUSH1 0x0 PUSH1 0x20 DUP3 DUP5 SUB SLT ISZERO PUSH2 0x112D JUMPI PUSH1 0x0 DUP1 REVERT JUMPDEST PUSH2 0xF9C DUP3 PUSH2 0x1104 JUMP JUMPDEST PUSH1 0x0 PUSH1 0x20 DUP3 DUP5 SUB SLT ISZERO PUSH2 0x1148 JUMPI PUSH1 0x0 DUP1 REVERT JUMPDEST POP CALLDATALOAD SWAP2 SWAP1 POP JUMP JUMPDEST PUSH1 0x0 DUP1 PUSH1 0x0 DUP1 PUSH1 0x80 DUP6 DUP8 SUB SLT ISZERO PUSH2 0x1165 JUMPI PUSH1 0x0 DUP1 REVERT JUMPDEST PUSH2 0x116E DUP6 PUSH2 0x1104 JUMP JUMPDEST SWAP7 PUSH1 0x20 DUP7 ADD CALLDATALOAD SWAP7 POP PUSH1 0x40 DUP7 ADD CALLDATALOAD SWAP6 PUSH1 0x60 ADD CALLDATALOAD SWAP5 POP SWAP3 POP POP POP JUMP JUMPDEST PUSH1 0x0 PUSH1 0x20 DUP3 DUP5 SUB SLT ISZERO PUSH2 0x119A JUMPI PUSH1 0x0 DUP1 REVERT JUMPDEST POP MLOAD SWAP2 SWAP1 POP JUMP JUMPDEST PUSH1 0x20 DUP1 DUP3 MSTORE PUSH1 0x1B SWAP1 DUP3 ADD MSTORE PUSH32 0x56657374696E67206973206E6F74205374617274656420596574210000000000 PUSH1 0x40 DUP3 ADD MSTORE PUSH1 0x60 ADD SWAP1 JUMP JUMPDEST PUSH4 0x4E487B71 PUSH1 0xE0 SHL PUSH1 0x0 MSTORE PUSH1 0x11 PUSH1 0x4 MSTORE PUSH1 0x24 PUSH1 0x0 REVERT JUMPDEST PUSH1 0x0 DUP3 DUP3 LT ISZERO PUSH2 0x1200 JUMPI PUSH2 0x1200 PUSH2 0x11D8 JUMP JUMPDEST POP SUB SWAP1 JUMP JUMPDEST PUSH1 0x0 DUP3 PUSH2 0x1222 JUMPI PUSH4 0x4E487B71 PUSH1 0xE0 SHL PUSH1 0x0 MSTORE PUSH1 0x12 PUSH1 0x4 MSTORE PUSH1 0x24 PUSH1 0x0 REVERT JUMPDEST POP DIV SWAP1 JUMP JUMPDEST PUSH1 0x0 DUP2 PUSH1 0x0 NOT DIV DUP4 GT DUP3 ISZERO ISZERO AND ISZERO PUSH2 0x1241 JUMPI PUSH2 0x1241 PUSH2 0x11D8 JUMP JUMPDEST POP MUL SWAP1 JUMP JUMPDEST PUSH1 0x0 DUP3 NOT DUP3 GT ISZERO PUSH2 0x1259 JUMPI PUSH2 0x1259 PUSH2 0x11D8 JUMP JUMPDEST POP ADD SWAP1 JUMP JUMPDEST PUSH1 0x20 DUP1 DUP3 MSTORE DUP2 DUP2 ADD MSTORE PUSH32 0x4F776E61626C653A2063616C6C6572206973206E6F7420746865206F776E6572 PUSH1 0x40 DUP3 ADD MSTORE PUSH1 0x60 ADD SWAP1 JUMP JUMPDEST PUSH4 0x4E487B71 PUSH1 0xE0 SHL PUSH1 0x0 MSTORE PUSH1 0x32 PUSH1 0x4 MSTORE PUSH1 0x24 PUSH1 0x0 REVERT JUMPDEST PUSH1 0x0 PUSH1 0x0 NOT DUP3 EQ ISZERO PUSH2 0x12BD JUMPI PUSH2 0x12BD PUSH2 0x11D8 JUMP JUMPDEST POP PUSH1 0x1 ADD SWAP1 JUMP JUMPDEST PUSH1 0x0 PUSH1 0x20 DUP3 DUP5 SUB SLT ISZERO PUSH2 0x12D6 JUMPI PUSH1 0x0 DUP1 REVERT JUMPDEST DUP2 MLOAD DUP1 ISZERO ISZERO DUP2 EQ PUSH2 0xF9C JUMPI PUSH1 0x0 DUP1 REVERT JUMPDEST PUSH1 0x0 JUMPDEST DUP4 DUP2 LT ISZERO PUSH2 0x1301 JUMPI DUP2 DUP2 ADD MLOAD DUP4 DUP3 ADD MSTORE PUSH1 0x20 ADD PUSH2 0x12E9 JUMP JUMPDEST DUP4 DUP2 GT ISZERO PUSH2 0x1310 JUMPI PUSH1 0x0 DUP5 DUP5 ADD MSTORE JUMPDEST POP POP POP POP JUMP JUMPDEST PUSH1 0x0 DUP3 MLOAD PUSH2 0x1328 DUP2 DUP5 PUSH1 0x20 DUP8 ADD PUSH2 0x12E6 JUMP JUMPDEST SWAP2 SWAP1 SWAP2 ADD SWAP3 SWAP2 POP POP JUMP JUMPDEST PUSH1 0x20 DUP2 MSTORE PUSH1 0x0 DUP3 MLOAD DUP1 PUSH1 0x20 DUP5 ADD MSTORE PUSH2 0x1351 DUP2 PUSH1 0x40 DUP6 ADD PUSH1 0x20 DUP8 ADD PUSH2 0x12E6 JUMP JUMPDEST PUSH1 0x1F ADD PUSH1 0x1F NOT AND SWAP2 SWAP1 SWAP2 ADD PUSH1 0x40 ADD SWAP3 SWAP2 POP POP JUMP INVALID LOG2 PUSH5 0x6970667358 0x22 SLT KECCAK256 0xDA DUP1 0xE8 PUSH17 0x5C5322C73CB7B3317876008709FA4A01D0 EXTCODECOPY 0xFC 0xDA SMOD SWAP5 0xEC PUSH23 0x48C3212F64736F6C634300080A00330000000000000000 ",
  "sha1": "16ddc9bd480c93b7e4af34bfad4214b88988a970",
  "source": "// SPDX-License-Identifier: MIT\npragma solidity 0.8.10;\n\nimport \"@openzeppelin/contracts/token/ERC20/IERC20.sol\";\nimport \"@openzeppelin/contracts/token/ERC20/utils/SafeERC20.sol\";\nimport \"@openzeppelin/contracts/security/ReentrancyGuard.sol\";\nimport \"@openzeppelin/contracts/access/Ownable.sol\";\n\n/**\n * @title TokenVesting\n */\ncontract AniwarVestingV2 is Ownable, ReentrancyGuard {\n    using SafeERC20 for IERC20;\n    // address of the ERC20 token\n    IERC20 private immutable _token;\n\n    struct Beneficiary {\n        uint256 totalAmount;\n        uint256 TGEAmount;\n        uint256 cliff;\n        uint256 totalAmountHasBeenWithdrawn;\n        bool isInitialized;\n    }\n\n    bool private _isStarted;\n    uint256 private _startedTime;\n    uint256 private immutable _splitDuration;\n    uint256 private immutable _splitCount;\n    uint256 private _vestingSchedulesInitializedAmount;\n    uint256 private _vestingSchedulesInitializedAmountLeft;\n\n    address[] private _beneficiariesAddress;\n    mapping(address => Beneficiary) public beneficiaries;\n\n    event Released(uint256 amount);\n    event Begin();\n\n    modifier onlyIfVestingScheduleStarted() {\n        require(_isStarted, \"Vesting is not Started Yet!\");\n        _;\n    }\n    modifier onlyIfVestingScheduleNotStarted() {\n        require(!_isStarted, \"Vesting is Started!\");\n        _;\n    }\n\n    constructor(\n        address token_,\n        uint256 splitDuration_,\n        uint256 splitCount_,\n        uint256 initializedAmount_\n    ) {\n        require(token_ != address(0x0), \"Token address wrong!\");\n        _token = IERC20(token_);\n        _splitDuration = splitDuration_;\n        require(splitCount_ > 0, \"Split counter must be > 0\");\n        _splitCount = splitCount_;\n        _vestingSchedulesInitializedAmount = initializedAmount_;\n        _vestingSchedulesInitializedAmountLeft = initializedAmount_;\n    }\n\n    // _TGERatio is a First release when schedule started: _TGERatio = %\n    function addBeneficiary(\n        address _beneficiary,\n        uint256 _cliff,\n        uint256 _amount,\n        uint256 _TGERatio\n    ) public onlyOwner onlyIfVestingScheduleNotStarted {\n        require(\n            _amount <= _vestingSchedulesInitializedAmountLeft,\n            \"TokenVesting: cannot add beneficiary  because not sufficient tokens\"\n        );\n        require(_amount > 0, \"TokenVesting: amount must be > 0\");\n        require(_cliff < _splitCount, \"cliff must less than sum of split\");\n        require(_TGERatio < 100, \"Rate must less than 100%\");\n        Beneficiary storage beneficiary = beneficiaries[_beneficiary];\n        if (!beneficiary.isInitialized) {\n            beneficiary.isInitialized = true;\n            _beneficiariesAddress.push(_beneficiary);\n        }\n        beneficiary.cliff = _cliff;\n        beneficiary.totalAmount += _amount;\n        beneficiary.TGEAmount += (_amount * _TGERatio) / 100;\n        _vestingSchedulesInitializedAmountLeft -= _amount;\n    }\n\n    function startSchedule(uint256 _time)\n        public\n        onlyOwner\n        onlyIfVestingScheduleNotStarted\n    {\n        require(\n            _token.balanceOf(address(this)) >=\n                _vestingSchedulesInitializedAmount,\n            \"Amount exceeds balance and Init\"\n        );\n        _isStarted = true;\n        _startedTime = _time;\n        emit Begin();\n    }\n\n    function releaseAll()\n        public\n        onlyOwner\n        onlyIfVestingScheduleStarted\n        nonReentrant\n    {\n        for (\n            uint256 beneficiaryIndex = 0;\n            beneficiaryIndex < _beneficiariesAddress.length;\n            beneficiaryIndex++\n        ) {\n            address beneficiaryAddress = _beneficiariesAddress[\n                beneficiaryIndex\n            ];\n            Beneficiary storage beneficiary = beneficiaries[beneficiaryAddress];\n            uint256 amount = calculateWithdrawableAmount(beneficiaryAddress);\n            if (beneficiary.isInitialized && amount > 0) {\n                beneficiary.totalAmountHasBeenWithdrawn += amount;\n                address payable beneficiaryPayable = payable(\n                    beneficiaryAddress\n                );\n                _token.safeTransfer(beneficiaryPayable, amount);\n                emit Released(amount);\n            }\n        }\n    }\n\n    function releaseOne() public onlyIfVestingScheduleStarted nonReentrant {\n        address senderAddress = msg.sender;\n        uint256 amount = calculateWithdrawableAmount(senderAddress);\n        Beneficiary storage beneficiary = beneficiaries[senderAddress];\n        require(\n            beneficiary.isInitialized,\n            \"TokenVesting: only beneficiary can release vested tokens\"\n        );\n        require(amount > 0, \"Amount can be Released must be > 0\");\n        address payable beneficiaryPayable = payable(senderAddress);\n        _token.safeTransfer(beneficiaryPayable, amount);\n        emit Released(amount);\n    }\n\n    function calculateWithdrawableAmount(address _beneficiary)\n        public\n        view\n        onlyIfVestingScheduleStarted\n        returns (uint256)\n    {\n        Beneficiary memory beneficiary = beneficiaries[_beneficiary];\n        uint256 currentTime = getCurrentTime();\n        if (!beneficiary.isInitialized || currentTime < _startedTime) {\n            return 0;\n        }\n        uint256 currentSplit = (currentTime - _startedTime) / _splitDuration;\n        if (currentSplit >= _splitCount) {\n            currentSplit = _splitCount;\n        }\n        if (currentSplit == 0) {\n            currentSplit = 1;\n        }\n        if (currentSplit < beneficiary.cliff) {\n            return 0;\n        }\n        uint256 singleSplitAmount = (beneficiary.totalAmount -\n            beneficiary.TGEAmount) / (_splitCount - 1 - beneficiary.cliff);\n        return\n            singleSplitAmount *\n            (currentSplit - 1 - beneficiary.cliff) +\n            beneficiary.TGEAmount -\n            beneficiary.totalAmountHasBeenWithdrawn;\n    }\n\n    function getContractInfo()\n        public\n        view\n        returns (\n            bool,\n            uint256,\n            uint256,\n            uint256,\n            uint256,\n            uint256\n        )\n    {\n        return (\n            _isStarted,\n            _startedTime,\n            _splitDuration,\n            _splitCount,\n            _vestingSchedulesInitializedAmount,\n            _vestingSchedulesInitializedAmountLeft\n        );\n    }\n\n    function getBalance() public view returns (uint256) {\n        return _token.balanceOf(address(this));\n    }\n\n    function getCurrentTime() public view returns (uint256) {\n        return block.timestamp;\n    }\n\n    function getToken() public view returns (address) {\n        return address(_token);\n    }\n}\n",
  "sourcePath": "contracts/AniwarVestingV2.sol",
  "type": "contract"
}