{
    "contractName": "AniWorldToken",
    "abi": [
        {
            "inputs": [],
            "stateMutability": "nonpayable",
            "type": "constructor"
        },
        {
            "anonymous": false,
            "inputs": [
                {
                    "indexed": true,
                    "internalType": "address",
                    "name": "owner",
                    "type": "address"
                },
                {
                    "indexed": true,
                    "internalType": "address",
                    "name": "spender",
                    "type": "address"
                },
                {
                    "indexed": false,
                    "internalType": "uint256",
                    "name": "value",
                    "type": "uint256"
                }
            ],
            "name": "Approval",
            "type": "event"
        },
        {
            "anonymous": false,
            "inputs": [
                {
                    "indexed": false,
                    "internalType": "address",
                    "name": "account",
                    "type": "address"
                }
            ],
            "name": "Paused",
            "type": "event"
        },
        {
            "anonymous": false,
            "inputs": [
                {
                    "indexed": true,
                    "internalType": "bytes32",
                    "name": "role",
                    "type": "bytes32"
                },
                {
                    "indexed": true,
                    "internalType": "bytes32",
                    "name": "previousAdminRole",
                    "type": "bytes32"
                },
                {
                    "indexed": true,
                    "internalType": "bytes32",
                    "name": "newAdminRole",
                    "type": "bytes32"
                }
            ],
            "name": "RoleAdminChanged",
            "type": "event"
        },
        {
            "anonymous": false,
            "inputs": [
                {
                    "indexed": true,
                    "internalType": "bytes32",
                    "name": "role",
                    "type": "bytes32"
                },
                {
                    "indexed": true,
                    "internalType": "address",
                    "name": "account",
                    "type": "address"
                },
                {
                    "indexed": true,
                    "internalType": "address",
                    "name": "sender",
                    "type": "address"
                }
            ],
            "name": "RoleGranted",
            "type": "event"
        },
        {
            "anonymous": false,
            "inputs": [
                {
                    "indexed": true,
                    "internalType": "bytes32",
                    "name": "role",
                    "type": "bytes32"
                },
                {
                    "indexed": true,
                    "internalType": "address",
                    "name": "account",
                    "type": "address"
                },
                {
                    "indexed": true,
                    "internalType": "address",
                    "name": "sender",
                    "type": "address"
                }
            ],
            "name": "RoleRevoked",
            "type": "event"
        },
        {
            "anonymous": false,
            "inputs": [
                {
                    "indexed": true,
                    "internalType": "address",
                    "name": "from",
                    "type": "address"
                },
                {
                    "indexed": true,
                    "internalType": "address",
                    "name": "to",
                    "type": "address"
                },
                {
                    "indexed": false,
                    "internalType": "uint256",
                    "name": "value",
                    "type": "uint256"
                }
            ],
            "name": "Transfer",
            "type": "event"
        },
        {
            "anonymous": false,
            "inputs": [
                {
                    "indexed": false,
                    "internalType": "address",
                    "name": "account",
                    "type": "address"
                }
            ],
            "name": "Unpaused",
            "type": "event"
        },
        {
            "inputs": [],
            "name": "DEFAULT_ADMIN_ROLE",
            "outputs": [
                {
                    "internalType": "bytes32",
                    "name": "",
                    "type": "bytes32"
                }
            ],
            "stateMutability": "view",
            "type": "function"
        },
        {
            "inputs": [],
            "name": "PAUSER_ROLE",
            "outputs": [
                {
                    "internalType": "bytes32",
                    "name": "",
                    "type": "bytes32"
                }
            ],
            "stateMutability": "view",
            "type": "function"
        },
        {
            "inputs": [
                {
                    "internalType": "address",
                    "name": "owner",
                    "type": "address"
                },
                {
                    "internalType": "address",
                    "name": "spender",
                    "type": "address"
                }
            ],
            "name": "allowance",
            "outputs": [
                {
                    "internalType": "uint256",
                    "name": "",
                    "type": "uint256"
                }
            ],
            "stateMutability": "view",
            "type": "function"
        },
        {
            "inputs": [
                {
                    "internalType": "address",
                    "name": "spender",
                    "type": "address"
                },
                {
                    "internalType": "uint256",
                    "name": "amount",
                    "type": "uint256"
                }
            ],
            "name": "approve",
            "outputs": [
                {
                    "internalType": "bool",
                    "name": "",
                    "type": "bool"
                }
            ],
            "stateMutability": "nonpayable",
            "type": "function"
        },
        {
            "inputs": [
                {
                    "internalType": "address",
                    "name": "account",
                    "type": "address"
                }
            ],
            "name": "balanceOf",
            "outputs": [
                {
                    "internalType": "uint256",
                    "name": "",
                    "type": "uint256"
                }
            ],
            "stateMutability": "view",
            "type": "function"
        },
        {
            "inputs": [],
            "name": "decimals",
            "outputs": [
                {
                    "internalType": "uint8",
                    "name": "",
                    "type": "uint8"
                }
            ],
            "stateMutability": "view",
            "type": "function"
        },
        {
            "inputs": [
                {
                    "internalType": "address",
                    "name": "spender",
                    "type": "address"
                },
                {
                    "internalType": "uint256",
                    "name": "subtractedValue",
                    "type": "uint256"
                }
            ],
            "name": "decreaseAllowance",
            "outputs": [
                {
                    "internalType": "bool",
                    "name": "",
                    "type": "bool"
                }
            ],
            "stateMutability": "nonpayable",
            "type": "function"
        },
        {
            "inputs": [
                {
                    "internalType": "bytes32",
                    "name": "role",
                    "type": "bytes32"
                }
            ],
            "name": "getRoleAdmin",
            "outputs": [
                {
                    "internalType": "bytes32",
                    "name": "",
                    "type": "bytes32"
                }
            ],
            "stateMutability": "view",
            "type": "function"
        },
        {
            "inputs": [
                {
                    "internalType": "bytes32",
                    "name": "role",
                    "type": "bytes32"
                },
                {
                    "internalType": "address",
                    "name": "account",
                    "type": "address"
                }
            ],
            "name": "grantRole",
            "outputs": [],
            "stateMutability": "nonpayable",
            "type": "function"
        },
        {
            "inputs": [
                {
                    "internalType": "bytes32",
                    "name": "role",
                    "type": "bytes32"
                },
                {
                    "internalType": "address",
                    "name": "account",
                    "type": "address"
                }
            ],
            "name": "hasRole",
            "outputs": [
                {
                    "internalType": "bool",
                    "name": "",
                    "type": "bool"
                }
            ],
            "stateMutability": "view",
            "type": "function"
        },
        {
            "inputs": [
                {
                    "internalType": "address",
                    "name": "spender",
                    "type": "address"
                },
                {
                    "internalType": "uint256",
                    "name": "addedValue",
                    "type": "uint256"
                }
            ],
            "name": "increaseAllowance",
            "outputs": [
                {
                    "internalType": "bool",
                    "name": "",
                    "type": "bool"
                }
            ],
            "stateMutability": "nonpayable",
            "type": "function"
        },
        {
            "inputs": [],
            "name": "name",
            "outputs": [
                {
                    "internalType": "string",
                    "name": "",
                    "type": "string"
                }
            ],
            "stateMutability": "view",
            "type": "function"
        },
        {
            "inputs": [],
            "name": "pause",
            "outputs": [],
            "stateMutability": "nonpayable",
            "type": "function"
        },
        {
            "inputs": [],
            "name": "paused",
            "outputs": [
                {
                    "internalType": "bool",
                    "name": "",
                    "type": "bool"
                }
            ],
            "stateMutability": "view",
            "type": "function"
        },
        {
            "inputs": [
                {
                    "internalType": "bytes32",
                    "name": "role",
                    "type": "bytes32"
                },
                {
                    "internalType": "address",
                    "name": "account",
                    "type": "address"
                }
            ],
            "name": "renounceRole",
            "outputs": [],
            "stateMutability": "nonpayable",
            "type": "function"
        },
        {
            "inputs": [
                {
                    "internalType": "bytes32",
                    "name": "role",
                    "type": "bytes32"
                },
                {
                    "internalType": "address",
                    "name": "account",
                    "type": "address"
                }
            ],
            "name": "revokeRole",
            "outputs": [],
            "stateMutability": "nonpayable",
            "type": "function"
        },
        {
            "inputs": [
                {
                    "internalType": "bytes4",
                    "name": "interfaceId",
                    "type": "bytes4"
                }
            ],
            "name": "supportsInterface",
            "outputs": [
                {
                    "internalType": "bool",
                    "name": "",
                    "type": "bool"
                }
            ],
            "stateMutability": "view",
            "type": "function"
        },
        {
            "inputs": [],
            "name": "symbol",
            "outputs": [
                {
                    "internalType": "string",
                    "name": "",
                    "type": "string"
                }
            ],
            "stateMutability": "view",
            "type": "function"
        },
        {
            "inputs": [],
            "name": "totalSupply",
            "outputs": [
                {
                    "internalType": "uint256",
                    "name": "",
                    "type": "uint256"
                }
            ],
            "stateMutability": "view",
            "type": "function"
        },
        {
            "inputs": [
                {
                    "internalType": "address",
                    "name": "recipient",
                    "type": "address"
                },
                {
                    "internalType": "uint256",
                    "name": "amount",
                    "type": "uint256"
                }
            ],
            "name": "transfer",
            "outputs": [
                {
                    "internalType": "bool",
                    "name": "",
                    "type": "bool"
                }
            ],
            "stateMutability": "nonpayable",
            "type": "function"
        },
        {
            "inputs": [
                {
                    "internalType": "address",
                    "name": "sender",
                    "type": "address"
                },
                {
                    "internalType": "address",
                    "name": "recipient",
                    "type": "address"
                },
                {
                    "internalType": "uint256",
                    "name": "amount",
                    "type": "uint256"
                }
            ],
            "name": "transferFrom",
            "outputs": [
                {
                    "internalType": "bool",
                    "name": "",
                    "type": "bool"
                }
            ],
            "stateMutability": "nonpayable",
            "type": "function"
        },
        {
            "inputs": [],
            "name": "unpause",
            "outputs": [],
            "stateMutability": "nonpayable",
            "type": "function"
        }
    ],
    "bytecode": "60806040523480156200001157600080fd5b506040518060400160405280600981526020016820a724902a37b5b2b760b91b81525060405180604001604052806003815260200162414e4960e81b815250816003908051906020019062000068929190620002f0565b5080516200007e906004906020840190620002f0565b50506005805460ff1916905550620000b77f65d7a28e3265b37a6474929f336521b332c1681b933f6cb9f3376673440d862a33620000e0565b620000c4600033620000e0565b620000da3369d3c21bcecceda1000000620000f0565b620003fa565b620000ec8282620001e7565b5050565b6001600160a01b0382166200014c5760405162461bcd60e51b815260206004820152601f60248201527f45524332303a206d696e7420746f20746865207a65726f20616464726573730060448201526064015b60405180910390fd5b6200015a600083836200028b565b80600260008282546200016e919062000396565b90915550506001600160a01b038216600090815260208190526040812080548392906200019d90849062000396565b90915550506040518181526001600160a01b038316906000907fddf252ad1be2c89b69c2b068fc378daa952ba7f163c4a11628f55a4df523b3ef9060200160405180910390a35050565b60008281526006602090815260408083206001600160a01b038516845290915290205460ff16620000ec5760008281526006602090815260408083206001600160a01b03851684529091529020805460ff19166001179055620002473390565b6001600160a01b0316816001600160a01b0316837f2f8788117e7eff1d82e926ec794901d17c78024a50270940304540a733656f0d60405160405180910390a45050565b60055460ff1615620002d35760405162461bcd60e51b815260206004820152601060248201526f14185d5cd8589b194e881c185d5cd95960821b604482015260640162000143565b620002eb838383620002eb60201b620004dd1760201c565b505050565b828054620002fe90620003bd565b90600052602060002090601f0160209004810192826200032257600085556200036d565b82601f106200033d57805160ff19168380011785556200036d565b828001600101855582156200036d579182015b828111156200036d57825182559160200191906001019062000350565b506200037b9291506200037f565b5090565b5b808211156200037b576000815560010162000380565b60008219821115620003b857634e487b7160e01b600052601160045260246000fd5b500190565b600181811c90821680620003d257607f821691505b60208210811415620003f457634e487b7160e01b600052602260045260246000fd5b50919050565b61115d806200040a6000396000f3fe608060405234801561001057600080fd5b50600436106101425760003560e01c80635c975abb116100b8578063a217fddf1161007c578063a217fddf14610288578063a457c2d714610290578063a9059cbb146102a3578063d547741f146102b6578063dd62ed3e146102c9578063e63ab1e91461030257600080fd5b80635c975abb1461023157806370a082311461023c5780638456cb591461026557806391d148541461026d57806395d89b411461028057600080fd5b8063248a9ca31161010a578063248a9ca3146101bc5780632f2ff15d146101df578063313ce567146101f457806336568abe1461020357806339509351146102165780633f4ba83a1461022957600080fd5b806301ffc9a71461014757806306fdde031461016f578063095ea7b31461018457806318160ddd1461019757806323b872dd146101a9575b600080fd5b61015a610155366004610e52565b610329565b60405190151581526020015b60405180910390f35b610177610360565b6040516101669190610ea8565b61015a610192366004610ef7565b6103f2565b6002545b604051908152602001610166565b61015a6101b7366004610f21565b610408565b61019b6101ca366004610f5d565b60009081526006602052604090206001015490565b6101f26101ed366004610f76565b6104b7565b005b60405160128152602001610166565b6101f2610211366004610f76565b6104e2565b61015a610224366004610ef7565b610560565b6101f261059c565b60055460ff1661015a565b61019b61024a366004610fa2565b6001600160a01b031660009081526020819052604090205490565b6101f26105d2565b61015a61027b366004610f76565b610605565b610177610630565b61019b600081565b61015a61029e366004610ef7565b61063f565b61015a6102b1366004610ef7565b6106d8565b6101f26102c4366004610f76565b6106e5565b61019b6102d7366004610fbd565b6001600160a01b03918216600090815260016020908152604080832093909416825291909152205490565b61019b7f65d7a28e3265b37a6474929f336521b332c1681b933f6cb9f3376673440d862a81565b60006001600160e01b03198216637965db0b60e01b148061035a57506301ffc9a760e01b6001600160e01b03198316145b92915050565b60606003805461036f90610fe7565b80601f016020809104026020016040519081016040528092919081815260200182805461039b90610fe7565b80156103e85780601f106103bd576101008083540402835291602001916103e8565b820191906000526020600020905b8154815290600101906020018083116103cb57829003601f168201915b5050505050905090565b60006103ff33848461070b565b50600192915050565b600061041584848461082f565b6001600160a01b03841660009081526001602090815260408083203384529091529020548281101561049f5760405162461bcd60e51b815260206004820152602860248201527f45524332303a207472616e7366657220616d6f756e74206578636565647320616044820152676c6c6f77616e636560c01b60648201526084015b60405180910390fd5b6104ac853385840361070b565b506001949350505050565b6000828152600660205260409020600101546104d38133610a0a565b6104dd8383610a6e565b505050565b6001600160a01b03811633146105525760405162461bcd60e51b815260206004820152602f60248201527f416363657373436f6e74726f6c3a2063616e206f6e6c792072656e6f756e636560448201526e103937b632b9903337b91039b2b63360891b6064820152608401610496565b61055c8282610af4565b5050565b3360008181526001602090815260408083206001600160a01b038716845290915281205490916103ff918590610597908690611038565b61070b565b7f65d7a28e3265b37a6474929f336521b332c1681b933f6cb9f3376673440d862a6105c78133610a0a565b6105cf610b5b565b50565b7f65d7a28e3265b37a6474929f336521b332c1681b933f6cb9f3376673440d862a6105fd8133610a0a565b6105cf610bee565b60009182526006602090815260408084206001600160a01b0393909316845291905290205460ff1690565b60606004805461036f90610fe7565b3360009081526001602090815260408083206001600160a01b0386168452909152812054828110156106c15760405162461bcd60e51b815260206004820152602560248201527f45524332303a2064656372656173656420616c6c6f77616e63652062656c6f77604482015264207a65726f60d81b6064820152608401610496565b6106ce338585840361070b565b5060019392505050565b60006103ff33848461082f565b6000828152600660205260409020600101546107018133610a0a565b6104dd8383610af4565b6001600160a01b03831661076d5760405162461bcd60e51b8152602060048201526024808201527f45524332303a20617070726f76652066726f6d20746865207a65726f206164646044820152637265737360e01b6064820152608401610496565b6001600160a01b0382166107ce5760405162461bcd60e51b815260206004820152602260248201527f45524332303a20617070726f766520746f20746865207a65726f206164647265604482015261737360f01b6064820152608401610496565b6001600160a01b0383811660008181526001602090815260408083209487168084529482529182902085905590518481527f8c5be1e5ebec7d5bd14f71427d1e84f3dd0314c0f7b2291e5b200ac8c7c3b925910160405180910390a3505050565b6001600160a01b0383166108935760405162461bcd60e51b815260206004820152602560248201527f45524332303a207472616e736665722066726f6d20746865207a65726f206164604482015264647265737360d81b6064820152608401610496565b6001600160a01b0382166108f55760405162461bcd60e51b815260206004820152602360248201527f45524332303a207472616e7366657220746f20746865207a65726f206164647260448201526265737360e81b6064820152608401610496565b610900838383610c69565b6001600160a01b038316600090815260208190526040902054818110156109785760405162461bcd60e51b815260206004820152602660248201527f45524332303a207472616e7366657220616d6f756e7420657863656564732062604482015265616c616e636560d01b6064820152608401610496565b6001600160a01b038085166000908152602081905260408082208585039055918516815290812080548492906109af908490611038565b92505081905550826001600160a01b0316846001600160a01b03167fddf252ad1be2c89b69c2b068fc378daa952ba7f163c4a11628f55a4df523b3ef846040516109fb91815260200190565b60405180910390a35b50505050565b610a148282610605565b61055c57610a2c816001600160a01b03166014610caf565b610a37836020610caf565b604051602001610a48929190611050565b60408051601f198184030181529082905262461bcd60e51b825261049691600401610ea8565b610a788282610605565b61055c5760008281526006602090815260408083206001600160a01b03851684529091529020805460ff19166001179055610ab03390565b6001600160a01b0316816001600160a01b0316837f2f8788117e7eff1d82e926ec794901d17c78024a50270940304540a733656f0d60405160405180910390a45050565b610afe8282610605565b1561055c5760008281526006602090815260408083206001600160a01b0385168085529252808320805460ff1916905551339285917ff6391f5c32d9c69d2a47ea670b442974b53935d1edc7fd64eb21e047a839171b9190a45050565b60055460ff16610ba45760405162461bcd60e51b815260206004820152601460248201527314185d5cd8589b194e881b9bdd081c185d5cd95960621b6044820152606401610496565b6005805460ff191690557f5db9ee0a495bf2e6ff9c91a7834c1ba4fdd244a5e8aa4e537bd38aeae4b073aa335b6040516001600160a01b03909116815260200160405180910390a1565b60055460ff1615610c345760405162461bcd60e51b815260206004820152601060248201526f14185d5cd8589b194e881c185d5cd95960821b6044820152606401610496565b6005805460ff191660011790557f62e78cea01bee320cd4e420270b5ea74000d11b0c9f74754ebdbfc544b05a258610bd13390565b60055460ff16156104dd5760405162461bcd60e51b815260206004820152601060248201526f14185d5cd8589b194e881c185d5cd95960821b6044820152606401610496565b60606000610cbe8360026110c5565b610cc9906002611038565b67ffffffffffffffff811115610ce157610ce16110e4565b6040519080825280601f01601f191660200182016040528015610d0b576020820181803683370190505b509050600360fc1b81600081518110610d2657610d266110fa565b60200101906001600160f81b031916908160001a905350600f60fb1b81600181518110610d5557610d556110fa565b60200101906001600160f81b031916908160001a9053506000610d798460026110c5565b610d84906001611038565b90505b6001811115610dfc576f181899199a1a9b1b9c1cb0b131b232b360811b85600f1660108110610db857610db86110fa565b1a60f81b828281518110610dce57610dce6110fa565b60200101906001600160f81b031916908160001a90535060049490941c93610df581611110565b9050610d87565b508315610e4b5760405162461bcd60e51b815260206004820181905260248201527f537472696e67733a20686578206c656e67746820696e73756666696369656e746044820152606401610496565b9392505050565b600060208284031215610e6457600080fd5b81356001600160e01b031981168114610e4b57600080fd5b60005b83811015610e97578181015183820152602001610e7f565b83811115610a045750506000910152565b6020815260008251806020840152610ec7816040850160208701610e7c565b601f01601f19169190910160400192915050565b80356001600160a01b0381168114610ef257600080fd5b919050565b60008060408385031215610f0a57600080fd5b610f1383610edb565b946020939093013593505050565b600080600060608486031215610f3657600080fd5b610f3f84610edb565b9250610f4d60208501610edb565b9150604084013590509250925092565b600060208284031215610f6f57600080fd5b5035919050565b60008060408385031215610f8957600080fd5b82359150610f9960208401610edb565b90509250929050565b600060208284031215610fb457600080fd5b610e4b82610edb565b60008060408385031215610fd057600080fd5b610fd983610edb565b9150610f9960208401610edb565b600181811c90821680610ffb57607f821691505b6020821081141561101c57634e487b7160e01b600052602260045260246000fd5b50919050565b634e487b7160e01b600052601160045260246000fd5b6000821982111561104b5761104b611022565b500190565b7f416363657373436f6e74726f6c3a206163636f756e7420000000000000000000815260008351611088816017850160208801610e7c565b7001034b99036b4b9b9b4b733903937b6329607d1b60179184019182015283516110b9816028840160208801610e7c565b01602801949350505050565b60008160001904831182151516156110df576110df611022565b500290565b634e487b7160e01b600052604160045260246000fd5b634e487b7160e01b600052603260045260246000fd5b60008161111f5761111f611022565b50600019019056fea264697066735822122008bfb331005d898a26d0dde78dfeed693dddaa1cea8f2c9bcaf0aaddd197efd064736f6c634300080a0033",
    "sourcePath": "d:/Github/new_token/contracts/AniWorld.sol",
    "compiler": {
        "name": "solc",
        "version": "0.8.10+commit.fc410830"
    },
    "functionHashes": {
        "DEFAULT_ADMIN_ROLE()": "a217fddf",
        "PAUSER_ROLE()": "e63ab1e9",
        "allowance(address,address)": "dd62ed3e",
        "approve(address,uint256)": "095ea7b3",
        "balanceOf(address)": "70a08231",
        "decimals()": "313ce567",
        "decreaseAllowance(address,uint256)": "a457c2d7",
        "getRoleAdmin(bytes32)": "248a9ca3",
        "grantRole(bytes32,address)": "2f2ff15d",
        "hasRole(bytes32,address)": "91d14854",
        "increaseAllowance(address,uint256)": "39509351",
        "name()": "06fdde03",
        "pause()": "8456cb59",
        "paused()": "5c975abb",
        "renounceRole(bytes32,address)": "36568abe",
        "revokeRole(bytes32,address)": "d547741f",
        "supportsInterface(bytes4)": "01ffc9a7",
        "symbol()": "95d89b41",
        "totalSupply()": "18160ddd",
        "transfer(address,uint256)": "a9059cbb",
        "transferFrom(address,address,uint256)": "23b872dd",
        "unpause()": "3f4ba83a"
    },
    "gasEstimates": {
        "creation": {
            "codeDepositCost": "889000",
            "executionCost": "infinite",
            "totalCost": "infinite"
        },
        "external": {
            "DEFAULT_ADMIN_ROLE()": "217",
            "PAUSER_ROLE()": "327",
            "allowance(address,address)": "infinite",
            "approve(address,uint256)": "24653",
            "balanceOf(address)": "2585",
            "decimals()": "244",
            "decreaseAllowance(address,uint256)": "26921",
            "getRoleAdmin(bytes32)": "2467",
            "grantRole(bytes32,address)": "infinite",
            "hasRole(bytes32,address)": "2743",
            "increaseAllowance(address,uint256)": "27034",
            "name()": "infinite",
            "pause()": "infinite",
            "paused()": "2316",
            "renounceRole(bytes32,address)": "29090",
            "revokeRole(bytes32,address)": "infinite",
            "supportsInterface(bytes4)": "450",
            "symbol()": "infinite",
            "totalSupply()": "2371",
            "transfer(address,uint256)": "53386",
            "transferFrom(address,address,uint256)": "infinite",
            "unpause()": "infinite"
        },
        "internal": {
            "_beforeTokenTransfer(address,address,uint256)": "infinite"
        }
    }
}