{
    "contractName": "AniWorldFarm",
    "abi": [
        {
            "inputs": [
                {
                    "internalType": "address",
                    "name": "_tokenAddress",
                    "type": "address"
                }
            ],
            "stateMutability": "nonpayable",
            "type": "constructor"
        },
        {
            "anonymous": false,
            "inputs": [
                {
                    "indexed": true,
                    "internalType": "address",
                    "name": "previousOwner",
                    "type": "address"
                },
                {
                    "indexed": true,
                    "internalType": "address",
                    "name": "newOwner",
                    "type": "address"
                }
            ],
            "name": "OwnershipTransferred",
            "type": "event"
        },
        {
            "inputs": [
                {
                    "internalType": "address",
                    "name": "_token",
                    "type": "address"
                }
            ],
            "name": "addAllowedTokens",
            "outputs": [],
            "stateMutability": "nonpayable",
            "type": "function"
        },
        {
            "inputs": [
                {
                    "internalType": "uint256",
                    "name": "",
                    "type": "uint256"
                }
            ],
            "name": "allowedTokens",
            "outputs": [
                {
                    "internalType": "address",
                    "name": "",
                    "type": "address"
                }
            ],
            "stateMutability": "view",
            "type": "function"
        },
        {
            "inputs": [
                {
                    "internalType": "address",
                    "name": "_token",
                    "type": "address"
                }
            ],
            "name": "getTokenValue",
            "outputs": [
                {
                    "internalType": "uint256",
                    "name": "",
                    "type": "uint256"
                },
                {
                    "internalType": "uint256",
                    "name": "",
                    "type": "uint256"
                }
            ],
            "stateMutability": "view",
            "type": "function"
        },
        {
            "inputs": [
                {
                    "internalType": "address",
                    "name": "_staker",
                    "type": "address"
                },
                {
                    "internalType": "address",
                    "name": "_token",
                    "type": "address"
                }
            ],
            "name": "getUserSingleTokenValue",
            "outputs": [
                {
                    "internalType": "uint256",
                    "name": "",
                    "type": "uint256"
                }
            ],
            "stateMutability": "view",
            "type": "function"
        },
        {
            "inputs": [
                {
                    "internalType": "address",
                    "name": "_staker",
                    "type": "address"
                }
            ],
            "name": "getUserTotalValue",
            "outputs": [
                {
                    "internalType": "uint256",
                    "name": "",
                    "type": "uint256"
                }
            ],
            "stateMutability": "view",
            "type": "function"
        },
        {
            "inputs": [],
            "name": "issueTokens",
            "outputs": [],
            "stateMutability": "nonpayable",
            "type": "function"
        },
        {
            "inputs": [],
            "name": "owner",
            "outputs": [
                {
                    "internalType": "address",
                    "name": "",
                    "type": "address"
                }
            ],
            "stateMutability": "view",
            "type": "function"
        },
        {
            "inputs": [],
            "name": "renounceOwnership",
            "outputs": [],
            "stateMutability": "nonpayable",
            "type": "function"
        },
        {
            "inputs": [
                {
                    "internalType": "address",
                    "name": "_token",
                    "type": "address"
                },
                {
                    "internalType": "address",
                    "name": "_dataFeed",
                    "type": "address"
                }
            ],
            "name": "setDataFeedContract",
            "outputs": [],
            "stateMutability": "nonpayable",
            "type": "function"
        },
        {
            "inputs": [
                {
                    "internalType": "uint256",
                    "name": "_amount",
                    "type": "uint256"
                },
                {
                    "internalType": "address",
                    "name": "_token",
                    "type": "address"
                }
            ],
            "name": "stakeTokens",
            "outputs": [],
            "stateMutability": "nonpayable",
            "type": "function"
        },
        {
            "inputs": [
                {
                    "internalType": "uint256",
                    "name": "",
                    "type": "uint256"
                }
            ],
            "name": "stakers",
            "outputs": [
                {
                    "internalType": "address",
                    "name": "",
                    "type": "address"
                }
            ],
            "stateMutability": "view",
            "type": "function"
        },
        {
            "inputs": [
                {
                    "internalType": "address",
                    "name": "",
                    "type": "address"
                },
                {
                    "internalType": "address",
                    "name": "",
                    "type": "address"
                }
            ],
            "name": "stakingBalance",
            "outputs": [
                {
                    "internalType": "uint256",
                    "name": "",
                    "type": "uint256"
                }
            ],
            "stateMutability": "view",
            "type": "function"
        },
        {
            "inputs": [],
            "name": "token",
            "outputs": [
                {
                    "internalType": "contract IERC20",
                    "name": "",
                    "type": "address"
                }
            ],
            "stateMutability": "view",
            "type": "function"
        },
        {
            "inputs": [
                {
                    "internalType": "address",
                    "name": "",
                    "type": "address"
                }
            ],
            "name": "tokenDataFeedMapping",
            "outputs": [
                {
                    "internalType": "address",
                    "name": "",
                    "type": "address"
                }
            ],
            "stateMutability": "view",
            "type": "function"
        },
        {
            "inputs": [
                {
                    "internalType": "address",
                    "name": "_token",
                    "type": "address"
                }
            ],
            "name": "tokenIsAllowed",
            "outputs": [
                {
                    "internalType": "bool",
                    "name": "",
                    "type": "bool"
                }
            ],
            "stateMutability": "view",
            "type": "function"
        },
        {
            "inputs": [
                {
                    "internalType": "address",
                    "name": "newOwner",
                    "type": "address"
                }
            ],
            "name": "transferOwnership",
            "outputs": [],
            "stateMutability": "nonpayable",
            "type": "function"
        },
        {
            "inputs": [
                {
                    "internalType": "address",
                    "name": "",
                    "type": "address"
                }
            ],
            "name": "uniqueTokensStaked",
            "outputs": [
                {
                    "internalType": "uint256",
                    "name": "",
                    "type": "uint256"
                }
            ],
            "stateMutability": "view",
            "type": "function"
        },
        {
            "inputs": [
                {
                    "internalType": "address",
                    "name": "_token",
                    "type": "address"
                }
            ],
            "name": "unstakeTokens",
            "outputs": [],
            "stateMutability": "nonpayable",
            "type": "function"
        }
    ],
    "bytecode": "608060405234801561001057600080fd5b5060405161108f38038061108f83398101604081905261002f916100ad565b6100383361005d565b600680546001600160a01b0319166001600160a01b03929092169190911790556100dd565b600080546001600160a01b038381166001600160a01b0319831681178455604051919092169283917f8be0079c531659141344cd1fd0a4f28419497f9722a3daafe3b4186f6b6457e09190a35050565b6000602082840312156100bf57600080fd5b81516001600160a01b03811681146100d657600080fd5b9392505050565b610fa3806100ec6000396000f3fe608060405234801561001057600080fd5b50600436106101165760003560e01c80638da5cb5b116100a2578063dd5b846711610071578063dd5b846714610262578063f1c5d6c214610285578063f2fde38b146102ad578063fc0c546a146102c0578063fd5e6dd1146102d357600080fd5b80638da5cb5b146101f5578063af3f5e2214610206578063b83e023414610219578063c5e59ebe1461023957600080fd5b806329161a00116100e957806329161a001461017c5780632d1ad8b8146101a75780635e5f2e26146101ba57806360ab5852146101e5578063715018a6146101ed57600080fd5b806308c2423b1461011b5780630bea440d14610130578063171e44ea14610143578063276b11da14610156575b600080fd5b61012e610129366004610c51565b6102e6565b005b61012e61013e366004610c84565b610347565b61012e610151366004610ca7565b610519565b610169610164366004610c51565b610595565b6040519081526020015b60405180910390f35b61016961018a366004610c51565b600160209081526000928352604080842090915290825290205481565b61012e6101b5366004610ca7565b61061c565b6101cd6101c8366004610cc9565b61074c565b6040516001600160a01b039091168152602001610173565b61012e610776565b61012e610873565b6000546001600160a01b03166101cd565b610169610214366004610ca7565b6108a9565b610169610227366004610ca7565b60026020526000908152604090205481565b6101cd610247366004610ca7565b6003602052600090815260409020546001600160a01b031681565b610275610270366004610ca7565b610967565b6040519015158152602001610173565b610298610293366004610ca7565b6109d1565b60408051928352602083019190915201610173565b61012e6102bb366004610ca7565b610ad2565b6006546101cd906001600160a01b031681565b6101cd6102e1366004610cc9565b610b6a565b6000546001600160a01b031633146103195760405162461bcd60e51b815260040161031090610ce2565b60405180910390fd5b6001600160a01b03918216600090815260036020526040902080546001600160a01b03191691909216179055565b600082116103975760405162461bcd60e51b815260206004820152601b60248201527f616d6f756e74206d757374206265206d6f7265207468616e20302100000000006044820152606401610310565b6103a081610967565b6103ec5760405162461bcd60e51b815260206004820152601f60248201527f546f6b656e2069732063757272656e746c79206e6f7420616c6c6f77656421006044820152606401610310565b6040516323b872dd60e01b8152336004820152306024820152604481018390526001600160a01b038216906323b872dd906064016020604051808303816000875af115801561043f573d6000803e3d6000fd5b505050506040513d601f19601f820116820180604052508101906104639190610d17565b5061046e3382610b7a565b6001600160a01b038116600090815260016020908152604080832033845290915290205461049d908390610d4f565b6001600160a01b03821660009081526001602081815260408084203385528252808420949094556002905291902054141561051557600480546001810182556000919091527f8a35acfbc15ff81a39ae7d344fd709f28e8600b4aa8c65c6b64bfe7fe36bd19b0180546001600160a01b031916331790555b5050565b6000546001600160a01b031633146105435760405162461bcd60e51b815260040161031090610ce2565b600580546001810182556000919091527f036b6384b5eca791c62761152d0c79bb0604c104a5fb6f4eb0703f3154bb3db00180546001600160a01b0319166001600160a01b0392909216919091179055565b6001600160a01b0382166000908152600260205260408120546105ba57506000610616565b6000806105c6846109d1565b90925090506105d681600a610e4b565b6001600160a01b038086166000908152600160209081526040808320938a1683529290522054610607908490610e57565b6106119190610e76565b925050505b92915050565b6001600160a01b03811660009081526001602090815260408083203384529091529020548061068d5760405162461bcd60e51b815260206004820152601c60248201527f5374616b696e672062616c616e63652063616e6e6f74206265203021000000006044820152606401610310565b60405163a9059cbb60e01b8152336004820152602481018290526001600160a01b0383169063a9059cbb906044016020604051808303816000875af11580156106da573d6000803e3d6000fd5b505050506040513d601f19601f820116820180604052508101906106fe9190610d17565b506001600160a01b038216600090815260016020818152604080842033855282528084208490556002909152909120546107389190610e98565b336000908152600260205260409020555050565b6005818154811061075c57600080fd5b6000918252602090912001546001600160a01b0316905081565b6000546001600160a01b031633146107a05760405162461bcd60e51b815260040161031090610ce2565b60005b600454811015610870576000600482815481106107c2576107c2610eaf565b60009182526020822001546001600160a01b031691506107e1826108a9565b60065460405163a9059cbb60e01b81526001600160a01b0385811660048301526024820184905292935091169063a9059cbb906044016020604051808303816000875af1158015610836573d6000803e3d6000fd5b505050506040513d601f19601f8201168201806040525081019061085a9190610d17565b505050808061086890610ec5565b9150506107a3565b50565b6000546001600160a01b0316331461089d5760405162461bcd60e51b815260040161031090610ce2565b6108a76000610be5565b565b6001600160a01b03811660009081526002602052604081205481906109045760405162461bcd60e51b81526020600482015260116024820152704e6f20746f6b656e73207374616b65642160781b6044820152606401610310565b60005b60055481101561096057610942846005838154811061092857610928610eaf565b6000918252602090912001546001600160a01b0316610595565b61094c9083610d4f565b91508061095881610ec5565b915050610907565b5092915050565b6000805b6005548110156109c857826001600160a01b03166005828154811061099257610992610eaf565b6000918252602090912001546001600160a01b031614156109b65750600192915050565b806109c081610ec5565b91505061096b565b50600092915050565b6001600160a01b03808216600090815260036020526040808220548151633fabe5a360e21b815291519293849391169182918491839163feaf968c9160048082019260a0929091908290030181865afa158015610a32573d6000803e3d6000fd5b505050506040513d601f19601f82011682018060405250810190610a569190610efa565b5050509150506000826001600160a01b031663313ce5676040518163ffffffff1660e01b8152600401602060405180830381865afa158015610a9c573d6000803e3d6000fd5b505050506040513d601f19601f82011682018060405250810190610ac09190610f4a565b919760ff909216965090945050505050565b6000546001600160a01b03163314610afc5760405162461bcd60e51b815260040161031090610ce2565b6001600160a01b038116610b615760405162461bcd60e51b815260206004820152602660248201527f4f776e61626c653a206e6577206f776e657220697320746865207a65726f206160448201526564647265737360d01b6064820152608401610310565b61087081610be5565b6004818154811061075c57600080fd5b6001600160a01b03808216600090815260016020908152604080832093861683529290522054610515576001600160a01b038216600090815260026020526040902054610bc8906001610d4f565b6001600160a01b0383166000908152600260205260409020555050565b600080546001600160a01b038381166001600160a01b0319831681178455604051919092169283917f8be0079c531659141344cd1fd0a4f28419497f9722a3daafe3b4186f6b6457e09190a35050565b80356001600160a01b0381168114610c4c57600080fd5b919050565b60008060408385031215610c6457600080fd5b610c6d83610c35565b9150610c7b60208401610c35565b90509250929050565b60008060408385031215610c9757600080fd5b82359150610c7b60208401610c35565b600060208284031215610cb957600080fd5b610cc282610c35565b9392505050565b600060208284031215610cdb57600080fd5b5035919050565b6020808252818101527f4f776e61626c653a2063616c6c6572206973206e6f7420746865206f776e6572604082015260600190565b600060208284031215610d2957600080fd5b81518015158114610cc257600080fd5b634e487b7160e01b600052601160045260246000fd5b60008219821115610d6257610d62610d39565b500190565b600181815b80851115610da2578160001904821115610d8857610d88610d39565b80851615610d9557918102915b93841c9390800290610d6c565b509250929050565b600082610db957506001610616565b81610dc657506000610616565b8160018114610ddc5760028114610de657610e02565b6001915050610616565b60ff841115610df757610df7610d39565b50506001821b610616565b5060208310610133831016604e8410600b8410161715610e25575081810a610616565b610e2f8383610d67565b8060001904821115610e4357610e43610d39565b029392505050565b6000610cc28383610daa565b6000816000190483118215151615610e7157610e71610d39565b500290565b600082610e9357634e487b7160e01b600052601260045260246000fd5b500490565b600082821015610eaa57610eaa610d39565b500390565b634e487b7160e01b600052603260045260246000fd5b6000600019821415610ed957610ed9610d39565b5060010190565b805169ffffffffffffffffffff81168114610c4c57600080fd5b600080600080600060a08688031215610f1257600080fd5b610f1b86610ee0565b9450602086015193506040860151925060608601519150610f3e60808701610ee0565b90509295509295909350565b600060208284031215610f5c57600080fd5b815160ff81168114610cc257600080fdfea2646970667358221220ad363f722ec63a755222c0c55c32b8638189375e35e3847601921abe3425ed5b64736f6c634300080a0033",
    "sourcePath": "d:/Github/new_token/contracts/AniWorldFarm.sol",
    "compiler": {
        "name": "solc",
        "version": "0.8.10+commit.fc410830"
    },
    "functionHashes": {
        "addAllowedTokens(address)": "171e44ea",
        "allowedTokens(uint256)": "5e5f2e26",
        "getTokenValue(address)": "f1c5d6c2",
        "getUserSingleTokenValue(address,address)": "276b11da",
        "getUserTotalValue(address)": "af3f5e22",
        "issueTokens()": "60ab5852",
        "owner()": "8da5cb5b",
        "renounceOwnership()": "715018a6",
        "setDataFeedContract(address,address)": "08c2423b",
        "stakeTokens(uint256,address)": "0bea440d",
        "stakers(uint256)": "fd5e6dd1",
        "stakingBalance(address,address)": "29161a00",
        "token()": "fc0c546a",
        "tokenDataFeedMapping(address)": "c5e59ebe",
        "tokenIsAllowed(address)": "dd5b8467",
        "transferOwnership(address)": "f2fde38b",
        "uniqueTokensStaked(address)": "b83e0234",
        "unstakeTokens(address)": "2d1ad8b8"
    },
    "gasEstimates": {
        "creation": {
            "codeDepositCost": "800600",
            "executionCost": "infinite",
            "totalCost": "infinite"
        },
        "external": {
            "addAllowedTokens(address)": "51015",
            "allowedTokens(uint256)": "4681",
            "getTokenValue(address)": "infinite",
            "getUserSingleTokenValue(address,address)": "infinite",
            "getUserTotalValue(address)": "infinite",
            "issueTokens()": "infinite",
            "owner()": "2354",
            "renounceOwnership()": "28225",
            "setDataFeedContract(address,address)": "infinite",
            "stakeTokens(uint256,address)": "infinite",
            "stakers(uint256)": "4724",
            "stakingBalance(address,address)": "infinite",
            "token()": "2425",
            "tokenDataFeedMapping(address)": "2647",
            "tokenIsAllowed(address)": "infinite",
            "transferOwnership(address)": "28375",
            "uniqueTokensStaked(address)": "2575",
            "unstakeTokens(address)": "infinite"
        },
        "internal": {
            "updateUniqueTokensStaked(address,address)": "26750"
        }
    }
}