{
    "contractName": "SpendAni",
    "abi": [
        {
            "inputs": [
                {
                    "internalType": "address",
                    "name": "minter",
                    "type": "address"
                },
                {
                    "internalType": "address",
                    "name": "_aniToken",
                    "type": "address"
                }
            ],
            "stateMutability": "nonpayable",
            "type": "constructor"
        },
        {
            "anonymous": false,
            "inputs": [
                {
                    "indexed": false,
                    "internalType": "address",
                    "name": "Owner",
                    "type": "address"
                },
                {
                    "indexed": false,
                    "internalType": "uint256",
                    "name": "fee",
                    "type": "uint256"
                },
                {
                    "indexed": false,
                    "internalType": "string",
                    "name": "itemName",
                    "type": "string"
                },
                {
                    "indexed": false,
                    "internalType": "uint256",
                    "name": "timePurchaseItem",
                    "type": "uint256"
                }
            ],
            "name": "PurchaseItem",
            "type": "event"
        },
        {
            "anonymous": false,
            "inputs": [
                {
                    "indexed": true,
                    "internalType": "bytes32",
                    "name": "role",
                    "type": "bytes32"
                },
                {
                    "indexed": true,
                    "internalType": "bytes32",
                    "name": "previousAdminRole",
                    "type": "bytes32"
                },
                {
                    "indexed": true,
                    "internalType": "bytes32",
                    "name": "newAdminRole",
                    "type": "bytes32"
                }
            ],
            "name": "RoleAdminChanged",
            "type": "event"
        },
        {
            "anonymous": false,
            "inputs": [
                {
                    "indexed": true,
                    "internalType": "bytes32",
                    "name": "role",
                    "type": "bytes32"
                },
                {
                    "indexed": true,
                    "internalType": "address",
                    "name": "account",
                    "type": "address"
                },
                {
                    "indexed": true,
                    "internalType": "address",
                    "name": "sender",
                    "type": "address"
                }
            ],
            "name": "RoleGranted",
            "type": "event"
        },
        {
            "anonymous": false,
            "inputs": [
                {
                    "indexed": true,
                    "internalType": "bytes32",
                    "name": "role",
                    "type": "bytes32"
                },
                {
                    "indexed": true,
                    "internalType": "address",
                    "name": "account",
                    "type": "address"
                },
                {
                    "indexed": true,
                    "internalType": "address",
                    "name": "sender",
                    "type": "address"
                }
            ],
            "name": "RoleRevoked",
            "type": "event"
        },
        {
            "inputs": [],
            "name": "CREATOR_ADMIN_SERVER",
            "outputs": [
                {
                    "internalType": "bytes32",
                    "name": "",
                    "type": "bytes32"
                }
            ],
            "stateMutability": "view",
            "type": "function"
        },
        {
            "inputs": [],
            "name": "DEFAULT_ADMIN_ROLE",
            "outputs": [
                {
                    "internalType": "bytes32",
                    "name": "",
                    "type": "bytes32"
                }
            ],
            "stateMutability": "view",
            "type": "function"
        },
        {
            "inputs": [
                {
                    "internalType": "string",
                    "name": "_itemName",
                    "type": "string"
                },
                {
                    "internalType": "uint256",
                    "name": "_amount",
                    "type": "uint256"
                }
            ],
            "name": "addItemShop",
            "outputs": [],
            "stateMutability": "nonpayable",
            "type": "function"
        },
        {
            "inputs": [],
            "name": "aniToken",
            "outputs": [
                {
                    "internalType": "contract IBEP20",
                    "name": "",
                    "type": "address"
                }
            ],
            "stateMutability": "view",
            "type": "function"
        },
        {
            "inputs": [],
            "name": "getAllShopInfo",
            "outputs": [
                {
                    "internalType": "string[]",
                    "name": "",
                    "type": "string[]"
                },
                {
                    "internalType": "uint256[]",
                    "name": "",
                    "type": "uint256[]"
                }
            ],
            "stateMutability": "view",
            "type": "function"
        },
        {
            "inputs": [
                {
                    "internalType": "bytes32",
                    "name": "role",
                    "type": "bytes32"
                }
            ],
            "name": "getRoleAdmin",
            "outputs": [
                {
                    "internalType": "bytes32",
                    "name": "",
                    "type": "bytes32"
                }
            ],
            "stateMutability": "view",
            "type": "function"
        },
        {
            "inputs": [
                {
                    "internalType": "bytes32",
                    "name": "role",
                    "type": "bytes32"
                },
                {
                    "internalType": "address",
                    "name": "account",
                    "type": "address"
                }
            ],
            "name": "grantRole",
            "outputs": [],
            "stateMutability": "nonpayable",
            "type": "function"
        },
        {
            "inputs": [
                {
                    "internalType": "bytes32",
                    "name": "role",
                    "type": "bytes32"
                },
                {
                    "internalType": "address",
                    "name": "account",
                    "type": "address"
                }
            ],
            "name": "hasRole",
            "outputs": [
                {
                    "internalType": "bool",
                    "name": "",
                    "type": "bool"
                }
            ],
            "stateMutability": "view",
            "type": "function"
        },
        {
            "inputs": [
                {
                    "internalType": "string",
                    "name": "_itemName",
                    "type": "string"
                }
            ],
            "name": "purchaseItem",
            "outputs": [],
            "stateMutability": "nonpayable",
            "type": "function"
        },
        {
            "inputs": [],
            "name": "recipient",
            "outputs": [
                {
                    "internalType": "address",
                    "name": "",
                    "type": "address"
                }
            ],
            "stateMutability": "view",
            "type": "function"
        },
        {
            "inputs": [
                {
                    "internalType": "string",
                    "name": "_itemName",
                    "type": "string"
                }
            ],
            "name": "removeItemShop",
            "outputs": [],
            "stateMutability": "nonpayable",
            "type": "function"
        },
        {
            "inputs": [
                {
                    "internalType": "bytes32",
                    "name": "role",
                    "type": "bytes32"
                },
                {
                    "internalType": "address",
                    "name": "account",
                    "type": "address"
                }
            ],
            "name": "renounceRole",
            "outputs": [],
            "stateMutability": "nonpayable",
            "type": "function"
        },
        {
            "inputs": [
                {
                    "internalType": "bytes32",
                    "name": "role",
                    "type": "bytes32"
                },
                {
                    "internalType": "address",
                    "name": "account",
                    "type": "address"
                }
            ],
            "name": "revokeRole",
            "outputs": [],
            "stateMutability": "nonpayable",
            "type": "function"
        },
        {
            "inputs": [
                {
                    "internalType": "bytes4",
                    "name": "interfaceId",
                    "type": "bytes4"
                }
            ],
            "name": "supportsInterface",
            "outputs": [
                {
                    "internalType": "bool",
                    "name": "",
                    "type": "bool"
                }
            ],
            "stateMutability": "view",
            "type": "function"
        }
    ],
    "bytecode": "6080604052600280546001600160a01b0319167335af6b31a61ec9f030849a3953394a69a1f9f9ec1790553480156200003757600080fd5b5060405162001437380380620014378339810160408190526200005a9162000187565b62000067600033620000ba565b620000937f20c3b784c1251fbb97fe6db3cfa63383dd3aa172d2b3a79bcdb8ea8c7a384afc83620000ba565b600180546001600160a01b0319166001600160a01b039290921691909117905550620001bf565b620000c68282620000ca565b5050565b6000828152602081815260408083206001600160a01b038516845290915290205460ff16620000c6576000828152602081815260408083206001600160a01b03851684529091529020805460ff19166001179055620001263390565b6001600160a01b0316816001600160a01b0316837f2f8788117e7eff1d82e926ec794901d17c78024a50270940304540a733656f0d60405160405180910390a45050565b80516001600160a01b03811681146200018257600080fd5b919050565b600080604083850312156200019b57600080fd5b620001a6836200016a565b9150620001b6602084016200016a565b90509250929050565b61126880620001cf6000396000f3fe608060405234801561001057600080fd5b50600436106100ea5760003560e01c806372f45bcd1161008c578063a217fddf11610066578063a217fddf1461020e578063a88cd1f514610216578063d547741f14610229578063f8eb8be71461023c57600080fd5b806372f45bcd146101d55780638b2ecc19146101e857806391d14854146101fb57600080fd5b80632f2ff15d116100c85780632f2ff15d1461015d578063339e9c241461017057806336568abe1461019757806366d003ac146101aa57600080fd5b806301ffc9a7146100ef5780630d0ab43314610117578063248a9ca31461012c575b600080fd5b6101026100fd366004610dd0565b610252565b60405190151581526020015b60405180910390f35b61012a610125366004610ea4565b610289565b005b61014f61013a366004610ee1565b60009081526020819052604090206001015490565b60405190815260200161010e565b61012a61016b366004610efa565b6103df565b61014f7f20c3b784c1251fbb97fe6db3cfa63383dd3aa172d2b3a79bcdb8ea8c7a384afc81565b61012a6101a5366004610efa565b61046e565b6002546101bd906001600160a01b031681565b6040516001600160a01b03909116815260200161010e565b61012a6101e3366004610ea4565b6104e8565b6001546101bd906001600160a01b031681565b610102610209366004610efa565b610687565b61014f600081565b61012a610224366004610f36565b6106b0565b61012a610237366004610efa565b61080b565b61024461088b565b60405161010e929190610fd3565b60006001600160e01b03198216637965db0b60e01b148061028357506301ffc9a760e01b6001600160e01b03198316145b92915050565b6102b37f20c3b784c1251fbb97fe6db3cfa63383dd3aa172d2b3a79bcdb8ea8c7a384afc33610687565b6102fb5760405162461bcd60e51b81526020600482015260146024820152732cb7ba9030b932903737ba1030b71027bbb732b960611b60448201526064015b60405180910390fd5b60008160405160200161030e919061106e565b6040516020818303038152906040528051906020012090506000600483604051610338919061106e565b9081526040519081900360200190205560005b6003548110156103c85781600382815481106103695761036961108a565b9060005260206000200160405160200161038391906110db565b6040516020818303038152906040528051906020012014156103cd57600381815481106103b2576103b261108a565b9060005260206000200160006103c89190610cfa565b505050565b806103d78161118d565b91505061034b565b6000828152602081905260409020600101546103fc905b33610687565b6104605760405162461bcd60e51b815260206004820152602f60248201527f416363657373436f6e74726f6c3a2073656e646572206d75737420626520616e60448201526e0818591b5a5b881d1bc819dc985b9d608a1b60648201526084016102f2565b61046a8282610a31565b5050565b6001600160a01b03811633146104de5760405162461bcd60e51b815260206004820152602f60248201527f416363657373436f6e74726f6c3a2063616e206f6e6c792072656e6f756e636560448201526e103937b632b9903337b91039b2b63360891b60648201526084016102f2565b61046a8282610ab5565b6001546040516370a0823160e01b81523360048201526000916001600160a01b0316906370a0823190602401602060405180830381865afa158015610531573d6000803e3d6000fd5b505050506040513d601f19601f8201168201806040525081019061055591906111a8565b116105945760405162461bcd60e51b815260206004820152600f60248201526e06e65656420616d6f756e74203e203608c1b60448201526064016102f2565b60006004826040516105a6919061106e565b908152602001604051809103902054116106025760405162461bcd60e51b815260206004820152601f60248201527f546865207370656369666963206e616d6520646f206e6f74206578697374730060448201526064016102f2565b6000600482604051610614919061106e565b90815260405190819003602001902054600254600154919250610646916001600160a01b039081169133911684610b1a565b7f69ec3b2c43f9da70638f3435e944f114714b8e8a35e884ecd00f96166e08e59a3382844260405161067b94939291906111c1565b60405180910390a15050565b6000918252602082815260408084206001600160a01b0393909316845291905290205460ff1690565b6106da7f20c3b784c1251fbb97fe6db3cfa63383dd3aa172d2b3a79bcdb8ea8c7a384afc33610687565b61071d5760405162461bcd60e51b81526020600482015260146024820152732cb7ba9030b932903737ba1030b71027bbb732b960611b60448201526064016102f2565b600081116107775760405162461bcd60e51b815260206004820152602160248201527f416d6f756e74206e65656420746f2062652067726561746572207468616e20306044820152601760f91b60648201526084016102f2565b6003805460018101825560009190915282516107ba917fc2575a0e9e593c00f959f8c92f12db2869c3395a3b0502d05e2516446f71f85b01906020850190610d37565b506003805482916004916107d0906001906111f9565b815481106107e0576107e061108a565b906000526020600020016040516107f791906110db565b908152604051908190036020019020555050565b600082815260208190526040902060010154610826906103f6565b6104de5760405162461bcd60e51b815260206004820152603060248201527f416363657373436f6e74726f6c3a2073656e646572206d75737420626520616e60448201526f2061646d696e20746f207265766f6b6560801b60648201526084016102f2565b606080600060038054905067ffffffffffffffff8111156108ae576108ae610e01565b6040519080825280602002602001820160405280156108d7578160200160208202803683370190505b50905060005b600354811015610951576004600382815481106108fc576108fc61108a565b9060005260206000200160405161091391906110db565b9081526020016040518091039020548282815181106109345761093461108a565b6020908102919091010152806109498161118d565b9150506108dd565b5060038181805480602002602001604051908101604052809291908181526020016000905b82821015610a22578382906000526020600020018054610995906110a0565b80601f01602080910402602001604051908101604052809291908181526020018280546109c1906110a0565b8015610a0e5780601f106109e357610100808354040283529160200191610a0e565b820191906000526020600020905b8154815290600101906020018083116109f157829003601f168201915b505050505081526020019060010190610976565b50505050915092509250509091565b610a3b8282610687565b61046a576000828152602081815260408083206001600160a01b03851684529091529020805460ff19166001179055610a713390565b6001600160a01b0316816001600160a01b0316837f2f8788117e7eff1d82e926ec794901d17c78024a50270940304540a733656f0d60405160405180910390a45050565b610abf8282610687565b1561046a576000828152602081815260408083206001600160a01b0385168085529252808320805460ff1916905551339285917ff6391f5c32d9c69d2a47ea670b442974b53935d1edc7fd64eb21e047a839171b9190a45050565b604080516001600160a01b0385811660248301528416604482015260648082018490528251808303909101815260849091019091526020810180516001600160e01b03166323b872dd60e01b179052610b74908590610b7a565b50505050565b6001600160a01b0382163b610bd15760405162461bcd60e51b815260206004820152601f60248201527f5361666542455032303a2063616c6c20746f206e6f6e2d636f6e74726163740060448201526064016102f2565b600080836001600160a01b031683604051610bec919061106e565b6000604051808303816000865af19150503d8060008114610c29576040519150601f19603f3d011682016040523d82523d6000602084013e610c2e565b606091505b509150915081610c805760405162461bcd60e51b815260206004820181905260248201527f5361666542455032303a206c6f772d6c6576656c2063616c6c206661696c656460448201526064016102f2565b805115610b745780806020019051810190610c9b9190611210565b610b745760405162461bcd60e51b815260206004820152602a60248201527f5361666542455032303a204552433230206f7065726174696f6e20646964206e6044820152691bdd081cdd58d8d9595960b21b60648201526084016102f2565b508054610d06906110a0565b6000825580601f10610d16575050565b601f016020900490600052602060002090810190610d349190610dbb565b50565b828054610d43906110a0565b90600052602060002090601f016020900481019282610d655760008555610dab565b82601f10610d7e57805160ff1916838001178555610dab565b82800160010185558215610dab579182015b82811115610dab578251825591602001919060010190610d90565b50610db7929150610dbb565b5090565b5b80821115610db75760008155600101610dbc565b600060208284031215610de257600080fd5b81356001600160e01b031981168114610dfa57600080fd5b9392505050565b634e487b7160e01b600052604160045260246000fd5b600082601f830112610e2857600080fd5b813567ffffffffffffffff80821115610e4357610e43610e01565b604051601f8301601f19908116603f01168101908282118183101715610e6b57610e6b610e01565b81604052838152866020858801011115610e8457600080fd5b836020870160208301376000602085830101528094505050505092915050565b600060208284031215610eb657600080fd5b813567ffffffffffffffff811115610ecd57600080fd5b610ed984828501610e17565b949350505050565b600060208284031215610ef357600080fd5b5035919050565b60008060408385031215610f0d57600080fd5b8235915060208301356001600160a01b0381168114610f2b57600080fd5b809150509250929050565b60008060408385031215610f4957600080fd5b823567ffffffffffffffff811115610f6057600080fd5b610f6c85828601610e17565b95602094909401359450505050565b60005b83811015610f96578181015183820152602001610f7e565b83811115610b745750506000910152565b60008151808452610fbf816020860160208601610f7b565b601f01601f19169290920160200192915050565b6000604082016040835280855180835260608501915060608160051b8601019250602080880160005b8381101561102a57605f19888703018552611018868351610fa7565b95509382019390820190600101610ffc565b50508584038187015286518085528782019482019350915060005b8281101561106157845184529381019392810192600101611045565b5091979650505050505050565b60008251611080818460208701610f7b565b9190910192915050565b634e487b7160e01b600052603260045260246000fd5b600181811c908216806110b457607f821691505b602082108114156110d557634e487b7160e01b600052602260045260246000fd5b50919050565b600080835481600182811c9150808316806110f757607f831692505b602080841082141561111757634e487b7160e01b86526022600452602486fd5b81801561112b576001811461113c57611169565b60ff19861689528489019650611169565b60008a81526020902060005b868110156111615781548b820152908501908301611148565b505084890196505b509498975050505050505050565b634e487b7160e01b600052601160045260246000fd5b60006000198214156111a1576111a1611177565b5060010190565b6000602082840312156111ba57600080fd5b5051919050565b60018060a01b03851681528360208201526080604082015260006111e86080830185610fa7565b905082606083015295945050505050565b60008282101561120b5761120b611177565b500390565b60006020828403121561122257600080fd5b81518015158114610dfa57600080fdfea26469706673582212205f6eeea71be7a81a67a8b242dfa2e16e050d85fe48b0c4a10124640fc4ba721164736f6c634300080a0033",
    "sourcePath": "d:/Github/new_token/contracts/SpendAni.sol",
    "compiler": {
        "name": "solc",
        "version": "0.8.10+commit.fc410830"
    },
    "functionHashes": {
        "CREATOR_ADMIN_SERVER()": "339e9c24",
        "DEFAULT_ADMIN_ROLE()": "a217fddf",
        "addItemShop(string,uint256)": "a88cd1f5",
        "aniToken()": "8b2ecc19",
        "getAllShopInfo()": "f8eb8be7",
        "getRoleAdmin(bytes32)": "248a9ca3",
        "grantRole(bytes32,address)": "2f2ff15d",
        "hasRole(bytes32,address)": "91d14854",
        "purchaseItem(string)": "72f45bcd",
        "recipient()": "66d003ac",
        "removeItemShop(string)": "0d0ab433",
        "renounceRole(bytes32,address)": "36568abe",
        "revokeRole(bytes32,address)": "d547741f",
        "supportsInterface(bytes4)": "01ffc9a7"
    },
    "gasEstimates": {
        "creation": {
            "codeDepositCost": "942400",
            "executionCost": "infinite",
            "totalCost": "infinite"
        },
        "external": {
            "CREATOR_ADMIN_SERVER()": "240",
            "DEFAULT_ADMIN_ROLE()": "217",
            "addItemShop(string,uint256)": "infinite",
            "aniToken()": "2382",
            "getAllShopInfo()": "infinite",
            "getRoleAdmin(bytes32)": "2515",
            "grantRole(bytes32,address)": "infinite",
            "hasRole(bytes32,address)": "2688",
            "purchaseItem(string)": "infinite",
            "recipient()": "2426",
            "removeItemShop(string)": "infinite",
            "renounceRole(bytes32,address)": "29032",
            "revokeRole(bytes32,address)": "infinite",
            "supportsInterface(bytes4)": "450"
        }
    }
}