{
    "contractName": "TokenVesting",
    "abi": [
        {
            "inputs": [
                {
                    "internalType": "address",
                    "name": "token_",
                    "type": "address"
                }
            ],
            "stateMutability": "nonpayable",
            "type": "constructor"
        },
        {
            "anonymous": false,
            "inputs": [
                {
                    "indexed": true,
                    "internalType": "address",
                    "name": "previousOwner",
                    "type": "address"
                },
                {
                    "indexed": true,
                    "internalType": "address",
                    "name": "newOwner",
                    "type": "address"
                }
            ],
            "name": "OwnershipTransferred",
            "type": "event"
        },
        {
            "anonymous": false,
            "inputs": [
                {
                    "indexed": false,
                    "internalType": "uint256",
                    "name": "amount",
                    "type": "uint256"
                }
            ],
            "name": "Released",
            "type": "event"
        },
        {
            "anonymous": false,
            "inputs": [],
            "name": "Revoked",
            "type": "event"
        },
        {
            "stateMutability": "payable",
            "type": "fallback"
        },
        {
            "inputs": [
                {
                    "internalType": "address",
                    "name": "_beneficiary",
                    "type": "address"
                }
            ],
            "name": "computeNextVestingScheduleIdForBeneficiary",
            "outputs": [
                {
                    "internalType": "bytes32",
                    "name": "",
                    "type": "bytes32"
                }
            ],
            "stateMutability": "view",
            "type": "function"
        },
        {
            "inputs": [
                {
                    "internalType": "bytes32",
                    "name": "vestingScheduleId",
                    "type": "bytes32"
                }
            ],
            "name": "computeReleasableAmount",
            "outputs": [
                {
                    "internalType": "uint256",
                    "name": "",
                    "type": "uint256"
                }
            ],
            "stateMutability": "view",
            "type": "function"
        },
        {
            "inputs": [
                {
                    "internalType": "address",
                    "name": "_beneficiary",
                    "type": "address"
                },
                {
                    "internalType": "uint256",
                    "name": "_index",
                    "type": "uint256"
                }
            ],
            "name": "computeVestingScheduleIdForAddressAndIndex",
            "outputs": [
                {
                    "internalType": "bytes32",
                    "name": "",
                    "type": "bytes32"
                }
            ],
            "stateMutability": "pure",
            "type": "function"
        },
        {
            "inputs": [
                {
                    "internalType": "address",
                    "name": "_beneficiary",
                    "type": "address"
                },
                {
                    "internalType": "uint256",
                    "name": "_start",
                    "type": "uint256"
                },
                {
                    "internalType": "uint256",
                    "name": "_duration",
                    "type": "uint256"
                },
                {
                    "internalType": "bool",
                    "name": "_revocable",
                    "type": "bool"
                },
                {
                    "internalType": "uint256",
                    "name": "_amount",
                    "type": "uint256"
                }
            ],
            "name": "createVestingSchedule",
            "outputs": [],
            "stateMutability": "nonpayable",
            "type": "function"
        },
        {
            "inputs": [],
            "name": "getToken",
            "outputs": [
                {
                    "internalType": "address",
                    "name": "",
                    "type": "address"
                }
            ],
            "stateMutability": "view",
            "type": "function"
        },
        {
            "inputs": [
                {
                    "internalType": "uint256",
                    "name": "_index",
                    "type": "uint256"
                }
            ],
            "name": "getVestingIdAtIndex",
            "outputs": [
                {
                    "internalType": "bytes32",
                    "name": "",
                    "type": "bytes32"
                }
            ],
            "stateMutability": "view",
            "type": "function"
        },
        {
            "inputs": [
                {
                    "internalType": "address",
                    "name": "_beneficiary",
                    "type": "address"
                }
            ],
            "name": "getVestingScheduleByAddress",
            "outputs": [
                {
                    "components": [
                        {
                            "internalType": "bool",
                            "name": "isInitialized",
                            "type": "bool"
                        },
                        {
                            "internalType": "address",
                            "name": "beneficiary",
                            "type": "address"
                        },
                        {
                            "internalType": "uint256",
                            "name": "start",
                            "type": "uint256"
                        },
                        {
                            "internalType": "uint256",
                            "name": "end",
                            "type": "uint256"
                        },
                        {
                            "internalType": "uint256",
                            "name": "duration",
                            "type": "uint256"
                        },
                        {
                            "internalType": "bool",
                            "name": "revocable",
                            "type": "bool"
                        },
                        {
                            "internalType": "uint256",
                            "name": "amountTotal",
                            "type": "uint256"
                        },
                        {
                            "internalType": "uint256",
                            "name": "amountReleased",
                            "type": "uint256"
                        },
                        {
                            "internalType": "bool",
                            "name": "revoked",
                            "type": "bool"
                        }
                    ],
                    "internalType": "struct TokenVesting.VestingSchedule",
                    "name": "",
                    "type": "tuple"
                }
            ],
            "stateMutability": "view",
            "type": "function"
        },
        {
            "inputs": [],
            "name": "getVestingSchedulesCount",
            "outputs": [
                {
                    "internalType": "uint256",
                    "name": "",
                    "type": "uint256"
                }
            ],
            "stateMutability": "view",
            "type": "function"
        },
        {
            "inputs": [
                {
                    "internalType": "address",
                    "name": "_beneficiary",
                    "type": "address"
                }
            ],
            "name": "getVestingSchedulesCountByBeneficiary",
            "outputs": [
                {
                    "internalType": "uint256",
                    "name": "",
                    "type": "uint256"
                }
            ],
            "stateMutability": "view",
            "type": "function"
        },
        {
            "inputs": [],
            "name": "getVestingSchedulesTotalAmount",
            "outputs": [
                {
                    "internalType": "uint256",
                    "name": "",
                    "type": "uint256"
                }
            ],
            "stateMutability": "view",
            "type": "function"
        },
        {
            "inputs": [],
            "name": "getWithdrawableAmount",
            "outputs": [
                {
                    "internalType": "uint256",
                    "name": "",
                    "type": "uint256"
                }
            ],
            "stateMutability": "view",
            "type": "function"
        },
        {
            "inputs": [],
            "name": "owner",
            "outputs": [
                {
                    "internalType": "address",
                    "name": "",
                    "type": "address"
                }
            ],
            "stateMutability": "view",
            "type": "function"
        },
        {
            "inputs": [
                {
                    "internalType": "bytes32",
                    "name": "vestingScheduleId",
                    "type": "bytes32"
                },
                {
                    "internalType": "uint256",
                    "name": "amount",
                    "type": "uint256"
                }
            ],
            "name": "release",
            "outputs": [],
            "stateMutability": "nonpayable",
            "type": "function"
        },
        {
            "inputs": [],
            "name": "renounceOwnership",
            "outputs": [],
            "stateMutability": "nonpayable",
            "type": "function"
        },
        {
            "inputs": [
                {
                    "internalType": "bytes32",
                    "name": "vestingScheduleId",
                    "type": "bytes32"
                }
            ],
            "name": "revoke",
            "outputs": [],
            "stateMutability": "nonpayable",
            "type": "function"
        },
        {
            "inputs": [
                {
                    "internalType": "address",
                    "name": "newOwner",
                    "type": "address"
                }
            ],
            "name": "transferOwnership",
            "outputs": [],
            "stateMutability": "nonpayable",
            "type": "function"
        },
        {
            "inputs": [
                {
                    "internalType": "uint256",
                    "name": "amount",
                    "type": "uint256"
                }
            ],
            "name": "withdraw",
            "outputs": [],
            "stateMutability": "nonpayable",
            "type": "function"
        },
        {
            "stateMutability": "payable",
            "type": "receive"
        }
    ],
    "bytecode": "60a060405234801561001057600080fd5b506040516200188a3803806200188a833981016040819052610031916100b2565b61003a33610062565b600180556001600160a01b03811661005157600080fd5b6001600160a01b03166080526100e2565b600080546001600160a01b038381166001600160a01b0319831681178455604051919092169283917f8be0079c531659141344cd1fd0a4f28419497f9722a3daafe3b4186f6b6457e09190a35050565b6000602082840312156100c457600080fd5b81516001600160a01b03811681146100db57600080fd5b9392505050565b6080516117776200011360003960008181610132015281816104b501528181610c8d0152610d5d01526117776000f3fe6080604052600436106100f65760003560e01c806366afd8ef1161008f57806390be10cc1161006157806390be10cc146102b5578063b75c7dc6146102ca578063ea1bb3d5146102ea578063f2fde38b1461030a578063f9079b371461032a57005b806366afd8ef14610242578063715018a6146102625780638af104da146102775780638da5cb5b1461029757005b80633bedde7d116100c85780633bedde7d146101aa57806348deb471146101d75780634ffc5ded146101ec5780635a7bb69a1461020c57005b806313083617146100ff57806321df0da7146101235780632e1a7d4d1461016a57806338f5e76f1461018a57005b366100fd57005b005b34801561010b57600080fd5b506002545b6040519081526020015b60405180910390f35b34801561012f57600080fd5b507f00000000000000000000000000000000000000000000000000000000000000005b6040516001600160a01b03909116815260200161011a565b34801561017657600080fd5b506100fd610185366004611481565b61034a565b34801561019657600080fd5b506100fd6101a53660046114c4565b6104e3565b3480156101b657600080fd5b506101ca6101c5366004611514565b6108ce565b60405161011a919061152f565b3480156101e357600080fd5b50600454610110565b3480156101f857600080fd5b50610110610207366004611514565b6109ce565b34801561021857600080fd5b50610110610227366004611514565b6001600160a01b031660009081526005602052604090205490565b34801561024e57600080fd5b506100fd61025d3660046115b0565b6109f8565b34801561026e57600080fd5b506100fd610cc2565b34801561028357600080fd5b506101106102923660046115d2565b610cf8565b3480156102a357600080fd5b506000546001600160a01b0316610152565b3480156102c157600080fd5b50610110610d3f565b3480156102d657600080fd5b506100fd6102e5366004611481565b610ddf565b3480156102f657600080fd5b50610110610305366004611481565b610f99565b34801561031657600080fd5b506100fd610325366004611514565b61107a565b34801561033657600080fd5b50610110610345366004611481565b611115565b600260015414156103a25760405162461bcd60e51b815260206004820152601f60248201527f5265656e7472616e637947756172643a207265656e7472616e742063616c6c0060448201526064015b60405180910390fd5b60026001556000546001600160a01b031633146103d15760405162461bcd60e51b8152600401610399906115fc565b80306001600160a01b03166390be10cc6040518163ffffffff1660e01b8152600401602060405180830381865afa158015610410573d6000803e3d6000fd5b505050506040513d601f19601f820116820180604052508101906104349190611631565b10156104965760405162461bcd60e51b815260206004820152602b60248201527f546f6b656e56657374696e673a206e6f7420656e6f756768207769746864726160448201526a7761626c652066756e647360a81b6064820152608401610399565b6104dc6104ab6000546001600160a01b031690565b6001600160a01b037f0000000000000000000000000000000000000000000000000000000000000000169083611193565b5060018055565b6000546001600160a01b0316331461050d5760405162461bcd60e51b8152600401610399906115fc565b80306001600160a01b03166390be10cc6040518163ffffffff1660e01b8152600401602060405180830381865afa15801561054c573d6000803e3d6000fd5b505050506040513d601f19601f820116820180604052508101906105709190611631565b10156105f75760405162461bcd60e51b815260206004820152604a60248201527f546f6b656e56657374696e673a2063616e6e6f7420637265617465207665737460448201527f696e67207363686564756c652062656361757365206e6f742073756666696369606482015269656e7420746f6b656e7360b01b608482015260a401610399565b600083116106525760405162461bcd60e51b815260206004820152602260248201527f546f6b656e56657374696e673a206475726174696f6e206d757374206265203e604482015261020360f41b6064820152608401610399565b600081116106a25760405162461bcd60e51b815260206004820181905260248201527f546f6b656e56657374696e673a20616d6f756e74206d757374206265203e20306044820152606401610399565b604051634ffc5ded60e01b81526001600160a01b03861660048201526000903090634ffc5ded90602401602060405180830381865afa1580156106e9573d6000803e3d6000fd5b505050506040513d601f19601f8201168201806040525081019061070d9190611631565b9050600061071b8587611660565b9050604051806101200160405280600115158152602001886001600160a01b03168152602001878152602001828152602001868152602001851515815260200184815260200160008152602001600015158152506003600084815260200190815260200160002060008201518160000160006101000a81548160ff02191690831515021790555060208201518160000160016101000a8154816001600160a01b0302191690836001600160a01b0316021790555060408201518160010155606082015181600201556080820151816003015560a08201518160040160006101000a81548160ff02191690831515021790555060c0820151816005015560e082015181600601556101008201518160070160006101000a81548160ff021916908315150217905550905050826004546108539190611660565b6004556002805460018181019092557f405787fa12a823e0f2b7631cc41b3ba8828b3321ca811111fa75cd3aa3bb5ace018390556001600160a01b0388166000908152600560205260409020546108a991611660565b6001600160a01b03909716600090815260056020526040902096909655505050505050565b61092c60405180610120016040528060001515815260200160006001600160a01b0316815260200160008152602001600081526020016000815260200160001515815260200160008152602001600081526020016000151581525090565b60036000610939846109ce565b81526020808201929092526040908101600020815161012081018352815460ff808216151583526001600160a01b03610100928390041695830195909552600183015493820193909352600282015460608201526003820154608082015260048201548416151560a0820152600582015460c0820152600682015460e082015260079091015490921615159082015292915050565b6001600160a01b0381166000908152600560205260408120546109f2908390610cf8565b92915050565b60026001541415610a4b5760405162461bcd60e51b815260206004820152601f60248201527f5265656e7472616e637947756172643a207265656e7472616e742063616c6c006044820152606401610399565b60026001908155600083815260036020526040902054839160ff909116151514610a7457600080fd5b60008181526003602052604090206007015460ff1615610a9357600080fd5b6000838152600360205260408120805491549091336001600160a01b03610100909204821681149291909116148180610ac95750805b610b465760405162461bcd60e51b815260206004820152604260248201527f546f6b656e56657374696e673a206f6e6c792062656e6566696369617279206160448201527f6e64206f776e65722063616e2072656c656173652076657374656420746f6b656064820152616e7360f01b608482015260a401610399565b6040805161012081018252845460ff808216151583526001600160a01b0361010092839004166020840152600187015493830193909352600286015460608301526003860154608083015260048601548316151560a0830152600586015460c0830152600686015460e08301526007860154909216151591810191909152600090610bd0906111ea565b905085811015610c485760405162461bcd60e51b815260206004820152603d60248201527f546f6b656e56657374696e673a2063616e6e6f742072656c6561736520746f6b60448201527f656e732c206e6f7420656e6f7567682076657374656420746f6b656e730000006064820152608401610399565b858460060154610c589190611660565b600685015583546004546101009091046001600160a01b031690610c7d908890611678565b600455610cb46001600160a01b037f0000000000000000000000000000000000000000000000000000000000000000168289611193565b505060018055505050505050565b6000546001600160a01b03163314610cec5760405162461bcd60e51b8152600401610399906115fc565b610cf66000611254565b565b6040516bffffffffffffffffffffffff19606084901b1660208201526034810182905260009060540160405160208183030381529060405280519060200120905092915050565b600480546040516370a0823160e01b815230928101929092526000917f00000000000000000000000000000000000000000000000000000000000000006001600160a01b0316906370a0823190602401602060405180830381865afa158015610dac573d6000803e3d6000fd5b505050506040513d601f19601f82011682018060405250810190610dd09190611631565b610dda9190611678565b905090565b6000546001600160a01b03163314610e095760405162461bcd60e51b8152600401610399906115fc565b600081815260036020526040902054819060ff161515600114610e2b57600080fd5b60008181526003602052604090206007015460ff1615610e4a57600080fd5b6000828152600360205260409020600481015460ff161515600114610ec05760405162461bcd60e51b815260206004820152602660248201527f546f6b656e56657374696e673a2076657374696e67206973206e6f74207265766044820152656f6361626c6560d01b6064820152608401610399565b6040805161012081018252825460ff808216151583526001600160a01b0361010092839004166020840152600185015493830193909352600284015460608301526003840154608083015260048401548316151560a0830152600584015460c0830152600684015460e08301526007840154909216151591810191909152600090610f4a906111ea565b90508015610f5c57610f5c84826109f8565b600082600601548360050154610f729190611678565b905080600454610f829190611678565b6004555050600701805460ff191660011790555050565b600081815260036020526040812054829060ff161515600114610fbb57600080fd5b60008181526003602052604090206007015460ff1615610fda57600080fd5b600083815260036020818152604092839020835161012081018552815460ff808216151583526001600160a01b036101009283900416948301949094526001830154958201959095526002820154606082015292810154608084015260048101548216151560a0840152600581015460c0840152600681015460e08401526007810154909116151592820192909252611072906111ea565b949350505050565b6000546001600160a01b031633146110a45760405162461bcd60e51b8152600401610399906115fc565b6001600160a01b0381166111095760405162461bcd60e51b815260206004820152602660248201527f4f776e61626c653a206e6577206f776e657220697320746865207a65726f206160448201526564647265737360d01b6064820152608401610399565b61111281611254565b50565b600061112060025490565b821061116e5760405162461bcd60e51b815260206004820181905260248201527f546f6b656e56657374696e673a20696e646578206f7574206f662072616e67656044820152606401610399565b600282815481106111815761118161168f565b90600052602060002001549050919050565b604080516001600160a01b038416602482015260448082018490528251808303909101815260649091019091526020810180516001600160e01b031663a9059cbb60e01b1790526111e59084906112a4565b505050565b60608101516000904290811080611208575061010083015115156001145b156112165750600092915050565b8260800151836040015161122a9190611660565b811061124b578260e001518360c001516112449190611678565b9392505050565b505060e0015190565b600080546001600160a01b038381166001600160a01b0319831681178455604051919092169283917f8be0079c531659141344cd1fd0a4f28419497f9722a3daafe3b4186f6b6457e09190a35050565b60006112f9826040518060400160405280602081526020017f5361666545524332303a206c6f772d6c6576656c2063616c6c206661696c6564815250856001600160a01b03166113769092919063ffffffff16565b8051909150156111e5578080602001905181019061131791906116a5565b6111e55760405162461bcd60e51b815260206004820152602a60248201527f5361666545524332303a204552433230206f7065726174696f6e20646964206e6044820152691bdd081cdd58d8d9595960b21b6064820152608401610399565b6060611072848460008585843b6113cf5760405162461bcd60e51b815260206004820152601d60248201527f416464726573733a2063616c6c20746f206e6f6e2d636f6e74726163740000006044820152606401610399565b600080866001600160a01b031685876040516113eb91906116f2565b60006040518083038185875af1925050503d8060008114611428576040519150601f19603f3d011682016040523d82523d6000602084013e61142d565b606091505b509150915061143d828286611448565b979650505050505050565b60608315611457575081611244565b8251156114675782518084602001fd5b8160405162461bcd60e51b8152600401610399919061170e565b60006020828403121561149357600080fd5b5035919050565b80356001600160a01b03811681146114b157600080fd5b919050565b801515811461111257600080fd5b600080600080600060a086880312156114dc57600080fd5b6114e58661149a565b945060208601359350604086013592506060860135611503816114b6565b949793965091946080013592915050565b60006020828403121561152657600080fd5b6112448261149a565b8151151581526020808301516001600160a01b03169082015260408083015190820152606080830151908201526080808301519082015260a08083015161012083019161157f9084018215159052565b5060c083015160c083015260e083015160e0830152610100808401516115a88285018215159052565b505092915050565b600080604083850312156115c357600080fd5b50508035926020909101359150565b600080604083850312156115e557600080fd5b6115ee8361149a565b946020939093013593505050565b6020808252818101527f4f776e61626c653a2063616c6c6572206973206e6f7420746865206f776e6572604082015260600190565b60006020828403121561164357600080fd5b5051919050565b634e487b7160e01b600052601160045260246000fd5b600082198211156116735761167361164a565b500190565b60008282101561168a5761168a61164a565b500390565b634e487b7160e01b600052603260045260246000fd5b6000602082840312156116b757600080fd5b8151611244816114b6565b60005b838110156116dd5781810151838201526020016116c5565b838111156116ec576000848401525b50505050565b600082516117048184602087016116c2565b9190910192915050565b602081526000825180602084015261172d8160408501602087016116c2565b601f01601f1916919091016040019291505056fea2646970667358221220318562d01ddfbf60bd80c0bf78471628b320e1184994370f648e59c171835c7b64736f6c634300080a0033",
    "sourcePath": "d:/Github/new_token/contracts/VestingToken.sol",
    "compiler": {
        "name": "solc",
        "version": "0.8.10+commit.fc410830"
    },
    "functionHashes": {
        "computeNextVestingScheduleIdForBeneficiary(address)": "4ffc5ded",
        "computeReleasableAmount(bytes32)": "ea1bb3d5",
        "computeVestingScheduleIdForAddressAndIndex(address,uint256)": "8af104da",
        "createVestingSchedule(address,uint256,uint256,bool,uint256)": "38f5e76f",
        "getToken()": "21df0da7",
        "getVestingIdAtIndex(uint256)": "f9079b37",
        "getVestingScheduleByAddress(address)": "3bedde7d",
        "getVestingSchedulesCount()": "13083617",
        "getVestingSchedulesCountByBeneficiary(address)": "5a7bb69a",
        "getVestingSchedulesTotalAmount()": "48deb471",
        "getWithdrawableAmount()": "90be10cc",
        "owner()": "8da5cb5b",
        "release(bytes32,uint256)": "66afd8ef",
        "renounceOwnership()": "715018a6",
        "revoke(bytes32)": "b75c7dc6",
        "transferOwnership(address)": "f2fde38b",
        "withdraw(uint256)": "2e1a7d4d"
    },
    "gasEstimates": {
        "creation": {
            "codeDepositCost": "1201400",
            "executionCost": "infinite",
            "totalCost": "infinite"
        },
        "external": {
            "": "185",
            "computeNextVestingScheduleIdForBeneficiary(address)": "2834",
            "computeReleasableAmount(bytes32)": "22288",
            "computeVestingScheduleIdForAddressAndIndex(address,uint256)": "622",
            "createVestingSchedule(address,uint256,uint256,bool,uint256)": "infinite",
            "getToken()": "infinite",
            "getVestingIdAtIndex(uint256)": "6814",
            "getVestingScheduleByAddress(address)": "20632",
            "getVestingSchedulesCount()": "2294",
            "getVestingSchedulesCountByBeneficiary(address)": "2615",
            "getVestingSchedulesTotalAmount()": "2326",
            "getWithdrawableAmount()": "infinite",
            "owner()": "2420",
            "release(bytes32,uint256)": "infinite",
            "renounceOwnership()": "28159",
            "revoke(bytes32)": "infinite",
            "transferOwnership(address)": "28397",
            "withdraw(uint256)": "infinite"
        },
        "internal": {
            "_computeReleasableAmount(struct TokenVesting.VestingSchedule memory)": "infinite",
            "getCurrentTime()": "infinite"
        }
    }
}