{
    "contractName": "AccessControlEnumerableMock",
    "abi": [
        {
            "inputs": [],
            "stateMutability": "nonpayable",
            "type": "constructor"
        },
        {
            "anonymous": false,
            "inputs": [
                {
                    "indexed": true,
                    "internalType": "bytes32",
                    "name": "role",
                    "type": "bytes32"
                },
                {
                    "indexed": true,
                    "internalType": "bytes32",
                    "name": "previousAdminRole",
                    "type": "bytes32"
                },
                {
                    "indexed": true,
                    "internalType": "bytes32",
                    "name": "newAdminRole",
                    "type": "bytes32"
                }
            ],
            "name": "RoleAdminChanged",
            "type": "event"
        },
        {
            "anonymous": false,
            "inputs": [
                {
                    "indexed": true,
                    "internalType": "bytes32",
                    "name": "role",
                    "type": "bytes32"
                },
                {
                    "indexed": true,
                    "internalType": "address",
                    "name": "account",
                    "type": "address"
                },
                {
                    "indexed": true,
                    "internalType": "address",
                    "name": "sender",
                    "type": "address"
                }
            ],
            "name": "RoleGranted",
            "type": "event"
        },
        {
            "anonymous": false,
            "inputs": [
                {
                    "indexed": true,
                    "internalType": "bytes32",
                    "name": "role",
                    "type": "bytes32"
                },
                {
                    "indexed": true,
                    "internalType": "address",
                    "name": "account",
                    "type": "address"
                },
                {
                    "indexed": true,
                    "internalType": "address",
                    "name": "sender",
                    "type": "address"
                }
            ],
            "name": "RoleRevoked",
            "type": "event"
        },
        {
            "inputs": [],
            "name": "DEFAULT_ADMIN_ROLE",
            "outputs": [
                {
                    "internalType": "bytes32",
                    "name": "",
                    "type": "bytes32"
                }
            ],
            "stateMutability": "view",
            "type": "function"
        },
        {
            "inputs": [
                {
                    "internalType": "bytes32",
                    "name": "role",
                    "type": "bytes32"
                }
            ],
            "name": "getRoleAdmin",
            "outputs": [
                {
                    "internalType": "bytes32",
                    "name": "",
                    "type": "bytes32"
                }
            ],
            "stateMutability": "view",
            "type": "function"
        },
        {
            "inputs": [
                {
                    "internalType": "bytes32",
                    "name": "role",
                    "type": "bytes32"
                },
                {
                    "internalType": "uint256",
                    "name": "index",
                    "type": "uint256"
                }
            ],
            "name": "getRoleMember",
            "outputs": [
                {
                    "internalType": "address",
                    "name": "",
                    "type": "address"
                }
            ],
            "stateMutability": "view",
            "type": "function"
        },
        {
            "inputs": [
                {
                    "internalType": "bytes32",
                    "name": "role",
                    "type": "bytes32"
                }
            ],
            "name": "getRoleMemberCount",
            "outputs": [
                {
                    "internalType": "uint256",
                    "name": "",
                    "type": "uint256"
                }
            ],
            "stateMutability": "view",
            "type": "function"
        },
        {
            "inputs": [
                {
                    "internalType": "bytes32",
                    "name": "role",
                    "type": "bytes32"
                },
                {
                    "internalType": "address",
                    "name": "account",
                    "type": "address"
                }
            ],
            "name": "grantRole",
            "outputs": [],
            "stateMutability": "nonpayable",
            "type": "function"
        },
        {
            "inputs": [
                {
                    "internalType": "bytes32",
                    "name": "role",
                    "type": "bytes32"
                },
                {
                    "internalType": "address",
                    "name": "account",
                    "type": "address"
                }
            ],
            "name": "hasRole",
            "outputs": [
                {
                    "internalType": "bool",
                    "name": "",
                    "type": "bool"
                }
            ],
            "stateMutability": "view",
            "type": "function"
        },
        {
            "inputs": [
                {
                    "internalType": "bytes32",
                    "name": "role",
                    "type": "bytes32"
                },
                {
                    "internalType": "address",
                    "name": "account",
                    "type": "address"
                }
            ],
            "name": "renounceRole",
            "outputs": [],
            "stateMutability": "nonpayable",
            "type": "function"
        },
        {
            "inputs": [
                {
                    "internalType": "bytes32",
                    "name": "role",
                    "type": "bytes32"
                },
                {
                    "internalType": "address",
                    "name": "account",
                    "type": "address"
                }
            ],
            "name": "revokeRole",
            "outputs": [],
            "stateMutability": "nonpayable",
            "type": "function"
        },
        {
            "inputs": [
                {
                    "internalType": "bytes32",
                    "name": "roleId",
                    "type": "bytes32"
                }
            ],
            "name": "senderProtected",
            "outputs": [],
            "stateMutability": "nonpayable",
            "type": "function"
        },
        {
            "inputs": [
                {
                    "internalType": "bytes32",
                    "name": "roleId",
                    "type": "bytes32"
                },
                {
                    "internalType": "bytes32",
                    "name": "adminRoleId",
                    "type": "bytes32"
                }
            ],
            "name": "setRoleAdmin",
            "outputs": [],
            "stateMutability": "nonpayable",
            "type": "function"
        },
        {
            "inputs": [
                {
                    "internalType": "bytes4",
                    "name": "interfaceId",
                    "type": "bytes4"
                }
            ],
            "name": "supportsInterface",
            "outputs": [
                {
                    "internalType": "bool",
                    "name": "",
                    "type": "bool"
                }
            ],
            "stateMutability": "view",
            "type": "function"
        }
    ],
    "bytecode": "608060405234801561001057600080fd5b5061001c600033610021565b610177565b61002b828261002f565b5050565b610043828261006c60201b6103341760201c565b60008281526001602090815260409091206100679183906103b861010a821b17901c565b505050565b6000828152602081815260408083206001600160a01b038516845290915290205460ff1661002b576000828152602081815260408083206001600160a01b03851684529091529020805460ff191660011790556100c63390565b6001600160a01b0316816001600160a01b0316837f2f8788117e7eff1d82e926ec794901d17c78024a50270940304540a733656f0d60405160405180910390a45050565b600061011f836001600160a01b038416610128565b90505b92915050565b600081815260018301602052604081205461016f57508154600181810184556000848152602080822090930184905584548482528286019093526040902091909155610122565b506000610122565b610af9806101866000396000f3fe608060405234801561001057600080fd5b50600436106100a95760003560e01c80634b9304a4116100715780634b9304a4146101425780639010d07c1461015557806391d1485414610180578063a217fddf14610193578063ca15c8731461019b578063d547741f146101ae57600080fd5b806301ffc9a7146100ae5780631e4e0091146100d6578063248a9ca3146100eb5780632f2ff15d1461011c57806336568abe1461012f575b600080fd5b6100c16100bc36600461088d565b6101c1565b60405190151581526020015b60405180910390f35b6100e96100e43660046108b7565b6101ec565b005b61010e6100f93660046108d9565b60009081526020819052604090206001015490565b6040519081526020016100cd565b6100e961012a3660046108f2565b6101fa565b6100e961013d3660046108f2565b610225565b6100e96101503660046108d9565b6102a4565b6101686101633660046108b7565b6102af565b6040516001600160a01b0390911681526020016100cd565b6100c161018e3660046108f2565b6102ce565b61010e600081565b61010e6101a93660046108d9565b6102f7565b6100e96101bc3660046108f2565b61030e565b60006001600160e01b03198216635a05180f60e01b14806101e657506101e6826103cd565b92915050565b6101f68282610402565b5050565b600082815260208190526040902060010154610216813361044d565b61022083836104b1565b505050565b6001600160a01b038116331461029a5760405162461bcd60e51b815260206004820152602f60248201527f416363657373436f6e74726f6c3a2063616e206f6e6c792072656e6f756e636560448201526e103937b632b9903337b91039b2b63360891b60648201526084015b60405180910390fd5b6101f682826104d3565b806101f6813361044d565b60008281526001602052604081206102c790836104f5565b9392505050565b6000918252602082815260408084206001600160a01b0393909316845291905290205460ff1690565b60008181526001602052604081206101e690610501565b60008281526020819052604090206001015461032a813361044d565b61022083836104d3565b61033e82826102ce565b6101f6576000828152602081815260408083206001600160a01b03851684529091529020805460ff191660011790556103743390565b6001600160a01b0316816001600160a01b0316837f2f8788117e7eff1d82e926ec794901d17c78024a50270940304540a733656f0d60405160405180910390a45050565b60006102c7836001600160a01b03841661050b565b60006001600160e01b03198216637965db0b60e01b14806101e657506301ffc9a760e01b6001600160e01b03198316146101e6565b600082815260208190526040808220600101805490849055905190918391839186917fbd79b86ffe0ab8e8776151514217cd7cacd52c909f66475c3af44e129f0b00ff9190a4505050565b61045782826102ce565b6101f65761046f816001600160a01b0316601461055a565b61047a83602061055a565b60405160200161048b92919061095e565b60408051601f198184030181529082905262461bcd60e51b8252610291916004016109d3565b6104bb8282610334565b600082815260016020526040902061022090826103b8565b6104dd82826106f6565b6000828152600160205260409020610220908261075b565b60006102c78383610770565b60006101e6825490565b6000818152600183016020526040812054610552575081546001818101845560008481526020808220909301849055845484825282860190935260409020919091556101e6565b5060006101e6565b60606000610569836002610a1c565b610574906002610a3b565b67ffffffffffffffff81111561058c5761058c610a53565b6040519080825280601f01601f1916602001820160405280156105b6576020820181803683370190505b509050600360fc1b816000815181106105d1576105d1610a69565b60200101906001600160f81b031916908160001a905350600f60fb1b8160018151811061060057610600610a69565b60200101906001600160f81b031916908160001a9053506000610624846002610a1c565b61062f906001610a3b565b90505b60018111156106a7576f181899199a1a9b1b9c1cb0b131b232b360811b85600f166010811061066357610663610a69565b1a60f81b82828151811061067957610679610a69565b60200101906001600160f81b031916908160001a90535060049490941c936106a081610a7f565b9050610632565b5083156102c75760405162461bcd60e51b815260206004820181905260248201527f537472696e67733a20686578206c656e67746820696e73756666696369656e746044820152606401610291565b61070082826102ce565b156101f6576000828152602081815260408083206001600160a01b0385168085529252808320805460ff1916905551339285917ff6391f5c32d9c69d2a47ea670b442974b53935d1edc7fd64eb21e047a839171b9190a45050565b60006102c7836001600160a01b03841661079a565b600082600001828154811061078757610787610a69565b9060005260206000200154905092915050565b600081815260018301602052604081205480156108835760006107be600183610a96565b85549091506000906107d290600190610a96565b90508181146108375760008660000182815481106107f2576107f2610a69565b906000526020600020015490508087600001848154811061081557610815610a69565b6000918252602080832090910192909255918252600188019052604090208390555b855486908061084857610848610aad565b6001900381819060005260206000200160009055905585600101600086815260200190815260200160002060009055600193505050506101e6565b60009150506101e6565b60006020828403121561089f57600080fd5b81356001600160e01b0319811681146102c757600080fd5b600080604083850312156108ca57600080fd5b50508035926020909101359150565b6000602082840312156108eb57600080fd5b5035919050565b6000806040838503121561090557600080fd5b8235915060208301356001600160a01b038116811461092357600080fd5b809150509250929050565b60005b83811015610949578181015183820152602001610931565b83811115610958576000848401525b50505050565b7f416363657373436f6e74726f6c3a206163636f756e742000000000000000000081526000835161099681601785016020880161092e565b7001034b99036b4b9b9b4b733903937b6329607d1b60179184019182015283516109c781602884016020880161092e565b01602801949350505050565b60208152600082518060208401526109f281604085016020870161092e565b601f01601f19169190910160400192915050565b634e487b7160e01b600052601160045260246000fd5b6000816000190483118215151615610a3657610a36610a06565b500290565b60008219821115610a4e57610a4e610a06565b500190565b634e487b7160e01b600052604160045260246000fd5b634e487b7160e01b600052603260045260246000fd5b600081610a8e57610a8e610a06565b506000190190565b600082821015610aa857610aa8610a06565b500390565b634e487b7160e01b600052603160045260246000fdfea2646970667358221220c046c3f2884bfe943a496ed917cd8084e94704fe6e46dc34220e0b2f53c3c86e64736f6c634300080a0033",
    "sourcePath": "d:/Github/new_token/contracts/contracts/mocks/AccessControlEnumerableMock.sol",
    "compiler": {
        "name": "solc",
        "version": "0.8.10+commit.fc410830"
    },
    "functionHashes": {
        "DEFAULT_ADMIN_ROLE()": "a217fddf",
        "getRoleAdmin(bytes32)": "248a9ca3",
        "getRoleMember(bytes32,uint256)": "9010d07c",
        "getRoleMemberCount(bytes32)": "ca15c873",
        "grantRole(bytes32,address)": "2f2ff15d",
        "hasRole(bytes32,address)": "91d14854",
        "renounceRole(bytes32,address)": "36568abe",
        "revokeRole(bytes32,address)": "d547741f",
        "senderProtected(bytes32)": "4b9304a4",
        "setRoleAdmin(bytes32,bytes32)": "1e4e0091",
        "supportsInterface(bytes4)": "01ffc9a7"
    },
    "gasEstimates": {
        "creation": {
            "codeDepositCost": "561800",
            "executionCost": "infinite",
            "totalCost": "infinite"
        },
        "external": {
            "DEFAULT_ADMIN_ROLE()": "261",
            "getRoleAdmin(bytes32)": "2492",
            "getRoleMember(bytes32,uint256)": "infinite",
            "getRoleMemberCount(bytes32)": "infinite",
            "grantRole(bytes32,address)": "infinite",
            "hasRole(bytes32,address)": "2665",
            "renounceRole(bytes32,address)": "infinite",
            "revokeRole(bytes32,address)": "infinite",
            "senderProtected(bytes32)": "infinite",
            "setRoleAdmin(bytes32,bytes32)": "26514",
            "supportsInterface(bytes4)": "infinite"
        }
    }
}