{
    "contractName": "AccessControlMock",
    "abi": [
        {
            "inputs": [],
            "stateMutability": "nonpayable",
            "type": "constructor"
        },
        {
            "anonymous": false,
            "inputs": [
                {
                    "indexed": true,
                    "internalType": "bytes32",
                    "name": "role",
                    "type": "bytes32"
                },
                {
                    "indexed": true,
                    "internalType": "bytes32",
                    "name": "previousAdminRole",
                    "type": "bytes32"
                },
                {
                    "indexed": true,
                    "internalType": "bytes32",
                    "name": "newAdminRole",
                    "type": "bytes32"
                }
            ],
            "name": "RoleAdminChanged",
            "type": "event"
        },
        {
            "anonymous": false,
            "inputs": [
                {
                    "indexed": true,
                    "internalType": "bytes32",
                    "name": "role",
                    "type": "bytes32"
                },
                {
                    "indexed": true,
                    "internalType": "address",
                    "name": "account",
                    "type": "address"
                },
                {
                    "indexed": true,
                    "internalType": "address",
                    "name": "sender",
                    "type": "address"
                }
            ],
            "name": "RoleGranted",
            "type": "event"
        },
        {
            "anonymous": false,
            "inputs": [
                {
                    "indexed": true,
                    "internalType": "bytes32",
                    "name": "role",
                    "type": "bytes32"
                },
                {
                    "indexed": true,
                    "internalType": "address",
                    "name": "account",
                    "type": "address"
                },
                {
                    "indexed": true,
                    "internalType": "address",
                    "name": "sender",
                    "type": "address"
                }
            ],
            "name": "RoleRevoked",
            "type": "event"
        },
        {
            "inputs": [],
            "name": "DEFAULT_ADMIN_ROLE",
            "outputs": [
                {
                    "internalType": "bytes32",
                    "name": "",
                    "type": "bytes32"
                }
            ],
            "stateMutability": "view",
            "type": "function"
        },
        {
            "inputs": [
                {
                    "internalType": "bytes32",
                    "name": "role",
                    "type": "bytes32"
                }
            ],
            "name": "getRoleAdmin",
            "outputs": [
                {
                    "internalType": "bytes32",
                    "name": "",
                    "type": "bytes32"
                }
            ],
            "stateMutability": "view",
            "type": "function"
        },
        {
            "inputs": [
                {
                    "internalType": "bytes32",
                    "name": "role",
                    "type": "bytes32"
                },
                {
                    "internalType": "address",
                    "name": "account",
                    "type": "address"
                }
            ],
            "name": "grantRole",
            "outputs": [],
            "stateMutability": "nonpayable",
            "type": "function"
        },
        {
            "inputs": [
                {
                    "internalType": "bytes32",
                    "name": "role",
                    "type": "bytes32"
                },
                {
                    "internalType": "address",
                    "name": "account",
                    "type": "address"
                }
            ],
            "name": "hasRole",
            "outputs": [
                {
                    "internalType": "bool",
                    "name": "",
                    "type": "bool"
                }
            ],
            "stateMutability": "view",
            "type": "function"
        },
        {
            "inputs": [
                {
                    "internalType": "bytes32",
                    "name": "role",
                    "type": "bytes32"
                },
                {
                    "internalType": "address",
                    "name": "account",
                    "type": "address"
                }
            ],
            "name": "renounceRole",
            "outputs": [],
            "stateMutability": "nonpayable",
            "type": "function"
        },
        {
            "inputs": [
                {
                    "internalType": "bytes32",
                    "name": "role",
                    "type": "bytes32"
                },
                {
                    "internalType": "address",
                    "name": "account",
                    "type": "address"
                }
            ],
            "name": "revokeRole",
            "outputs": [],
            "stateMutability": "nonpayable",
            "type": "function"
        },
        {
            "inputs": [
                {
                    "internalType": "bytes32",
                    "name": "roleId",
                    "type": "bytes32"
                }
            ],
            "name": "senderProtected",
            "outputs": [],
            "stateMutability": "nonpayable",
            "type": "function"
        },
        {
            "inputs": [
                {
                    "internalType": "bytes32",
                    "name": "roleId",
                    "type": "bytes32"
                },
                {
                    "internalType": "bytes32",
                    "name": "adminRoleId",
                    "type": "bytes32"
                }
            ],
            "name": "setRoleAdmin",
            "outputs": [],
            "stateMutability": "nonpayable",
            "type": "function"
        },
        {
            "inputs": [
                {
                    "internalType": "bytes4",
                    "name": "interfaceId",
                    "type": "bytes4"
                }
            ],
            "name": "supportsInterface",
            "outputs": [
                {
                    "internalType": "bool",
                    "name": "",
                    "type": "bool"
                }
            ],
            "stateMutability": "view",
            "type": "function"
        }
    ],
    "bytecode": "608060405234801561001057600080fd5b5061001c600033610021565b6100cd565b61002b828261002f565b5050565b6000828152602081815260408083206001600160a01b038516845290915290205460ff1661002b576000828152602081815260408083206001600160a01b03851684529091529020805460ff191660011790556100893390565b6001600160a01b0316816001600160a01b0316837f2f8788117e7eff1d82e926ec794901d17c78024a50270940304540a733656f0d60405160405180910390a45050565b610830806100dc6000396000f3fe608060405234801561001057600080fd5b50600436106100935760003560e01c806336568abe1161006657806336568abe146101195780634b9304a41461012c57806391d148541461013f578063a217fddf14610152578063d547741f1461015a57600080fd5b806301ffc9a7146100985780631e4e0091146100c0578063248a9ca3146100d55780632f2ff15d14610106575b600080fd5b6100ab6100a63660046105f1565b61016d565b60405190151581526020015b60405180910390f35b6100d36100ce36600461061b565b6101a4565b005b6100f86100e336600461063d565b60009081526020819052604090206001015490565b6040519081526020016100b7565b6100d3610114366004610656565b6101b2565b6100d3610127366004610656565b6101dd565b6100d361013a36600461063d565b61025c565b6100ab61014d366004610656565b610267565b6100f8600081565b6100d3610168366004610656565b610290565b60006001600160e01b03198216637965db0b60e01b148061019e57506301ffc9a760e01b6001600160e01b03198316145b92915050565b6101ae82826102b6565b5050565b6000828152602081905260409020600101546101ce8133610301565b6101d88383610365565b505050565b6001600160a01b03811633146102525760405162461bcd60e51b815260206004820152602f60248201527f416363657373436f6e74726f6c3a2063616e206f6e6c792072656e6f756e636560448201526e103937b632b9903337b91039b2b63360891b60648201526084015b60405180910390fd5b6101ae82826103e9565b806101ae8133610301565b6000918252602082815260408084206001600160a01b0393909316845291905290205460ff1690565b6000828152602081905260409020600101546102ac8133610301565b6101d883836103e9565b600082815260208190526040808220600101805490849055905190918391839186917fbd79b86ffe0ab8e8776151514217cd7cacd52c909f66475c3af44e129f0b00ff9190a4505050565b61030b8282610267565b6101ae57610323816001600160a01b0316601461044e565b61032e83602061044e565b60405160200161033f9291906106c2565b60408051601f198184030181529082905262461bcd60e51b825261024991600401610737565b61036f8282610267565b6101ae576000828152602081815260408083206001600160a01b03851684529091529020805460ff191660011790556103a53390565b6001600160a01b0316816001600160a01b0316837f2f8788117e7eff1d82e926ec794901d17c78024a50270940304540a733656f0d60405160405180910390a45050565b6103f38282610267565b156101ae576000828152602081815260408083206001600160a01b0385168085529252808320805460ff1916905551339285917ff6391f5c32d9c69d2a47ea670b442974b53935d1edc7fd64eb21e047a839171b9190a45050565b6060600061045d836002610780565b61046890600261079f565b67ffffffffffffffff811115610480576104806107b7565b6040519080825280601f01601f1916602001820160405280156104aa576020820181803683370190505b509050600360fc1b816000815181106104c5576104c56107cd565b60200101906001600160f81b031916908160001a905350600f60fb1b816001815181106104f4576104f46107cd565b60200101906001600160f81b031916908160001a9053506000610518846002610780565b61052390600161079f565b90505b600181111561059b576f181899199a1a9b1b9c1cb0b131b232b360811b85600f1660108110610557576105576107cd565b1a60f81b82828151811061056d5761056d6107cd565b60200101906001600160f81b031916908160001a90535060049490941c93610594816107e3565b9050610526565b5083156105ea5760405162461bcd60e51b815260206004820181905260248201527f537472696e67733a20686578206c656e67746820696e73756666696369656e746044820152606401610249565b9392505050565b60006020828403121561060357600080fd5b81356001600160e01b0319811681146105ea57600080fd5b6000806040838503121561062e57600080fd5b50508035926020909101359150565b60006020828403121561064f57600080fd5b5035919050565b6000806040838503121561066957600080fd5b8235915060208301356001600160a01b038116811461068757600080fd5b809150509250929050565b60005b838110156106ad578181015183820152602001610695565b838111156106bc576000848401525b50505050565b7f416363657373436f6e74726f6c3a206163636f756e74200000000000000000008152600083516106fa816017850160208801610692565b7001034b99036b4b9b9b4b733903937b6329607d1b601791840191820152835161072b816028840160208801610692565b01602801949350505050565b6020815260008251806020840152610756816040850160208701610692565b601f01601f19169190910160400192915050565b634e487b7160e01b600052601160045260246000fd5b600081600019048311821515161561079a5761079a61076a565b500290565b600082198211156107b2576107b261076a565b500190565b634e487b7160e01b600052604160045260246000fd5b634e487b7160e01b600052603260045260246000fd5b6000816107f2576107f261076a565b50600019019056fea264697066735822122048474dd1748a13b2e71a8987c1597d877c805727f0df0174d7b637e90045806c64736f6c634300080a0033",
    "sourcePath": "d:/Github/new_token/contracts/contracts/mocks/AccessControlMock.sol",
    "compiler": {
        "name": "solc",
        "version": "0.8.10+commit.fc410830"
    },
    "functionHashes": {
        "DEFAULT_ADMIN_ROLE()": "a217fddf",
        "getRoleAdmin(bytes32)": "248a9ca3",
        "grantRole(bytes32,address)": "2f2ff15d",
        "hasRole(bytes32,address)": "91d14854",
        "renounceRole(bytes32,address)": "36568abe",
        "revokeRole(bytes32,address)": "d547741f",
        "senderProtected(bytes32)": "4b9304a4",
        "setRoleAdmin(bytes32,bytes32)": "1e4e0091",
        "supportsInterface(bytes4)": "01ffc9a7"
    },
    "gasEstimates": {
        "creation": {
            "codeDepositCost": "419200",
            "executionCost": "29147",
            "totalCost": "448347"
        },
        "external": {
            "DEFAULT_ADMIN_ROLE()": "261",
            "getRoleAdmin(bytes32)": "2492",
            "grantRole(bytes32,address)": "infinite",
            "hasRole(bytes32,address)": "2665",
            "renounceRole(bytes32,address)": "28965",
            "revokeRole(bytes32,address)": "infinite",
            "senderProtected(bytes32)": "infinite",
            "setRoleAdmin(bytes32,bytes32)": "26514",
            "supportsInterface(bytes4)": "427"
        }
    }
}