{
    "contractName": "BitMapMock",
    "abi": [
        {
            "inputs": [
                {
                    "internalType": "uint256",
                    "name": "index",
                    "type": "uint256"
                }
            ],
            "name": "get",
            "outputs": [
                {
                    "internalType": "bool",
                    "name": "",
                    "type": "bool"
                }
            ],
            "stateMutability": "view",
            "type": "function"
        },
        {
            "inputs": [
                {
                    "internalType": "uint256",
                    "name": "index",
                    "type": "uint256"
                }
            ],
            "name": "set",
            "outputs": [],
            "stateMutability": "nonpayable",
            "type": "function"
        },
        {
            "inputs": [
                {
                    "internalType": "uint256",
                    "name": "index",
                    "type": "uint256"
                },
                {
                    "internalType": "bool",
                    "name": "value",
                    "type": "bool"
                }
            ],
            "name": "setTo",
            "outputs": [],
            "stateMutability": "nonpayable",
            "type": "function"
        },
        {
            "inputs": [
                {
                    "internalType": "uint256",
                    "name": "index",
                    "type": "uint256"
                }
            ],
            "name": "unset",
            "outputs": [],
            "stateMutability": "nonpayable",
            "type": "function"
        }
    ],
    "bytecode": "608060405234801561001057600080fd5b506101eb806100206000396000f3fe608060405234801561001057600080fd5b506004361061004c5760003560e01c8063088d22551461005157806360fe47b1146100845780639507d39a146100b4578063dcc9d43c146100fa575b600080fd5b61008261005f366004610167565b600881901c60009081526020819052604090208054600160ff84161b1916905550565b005b610082610092366004610167565b600881901c60009081526020819052604090208054600160ff84161b17905550565b6100e66100c2366004610167565b600881901c600090815260208190526040812054600160ff84161b16151592915050565b604051901515815260200160405180910390f35b610082610108366004610180565b61011460008383610118565b5050565b801561014257600882901c60009081526020849052604090208054600160ff85161b179055505050565b600882901c60009081526020849052604090208054600160ff85161b19169055505050565b60006020828403121561017957600080fd5b5035919050565b6000806040838503121561019357600080fd5b82359150602083013580151581146101aa57600080fd5b80915050925092905056fea264697066735822122040dc96ee0c9856cf5b9ca980177c3620ff9a6ae75c690850be06c8b21ba9ff8364736f6c634300080a0033",
    "sourcePath": "d:/Github/new_token/contracts/contracts/mocks/BitmapMock.sol",
    "compiler": {
        "name": "solc",
        "version": "0.8.10+commit.fc410830"
    },
    "functionHashes": {
        "get(uint256)": "9507d39a",
        "set(uint256)": "60fe47b1",
        "setTo(uint256,bool)": "dcc9d43c",
        "unset(uint256)": "088d2255"
    },
    "gasEstimates": {
        "creation": {
            "codeDepositCost": "98200",
            "executionCost": "147",
            "totalCost": "98347"
        },
        "external": {
            "get(uint256)": "2500",
            "set(uint256)": "24519",
            "setTo(uint256,bool)": "24692",
            "unset(uint256)": "24500"
        }
    }
}