{
    "contractName": "ContextMock",
    "abi": [
        {
            "anonymous": false,
            "inputs": [
                {
                    "indexed": false,
                    "internalType": "bytes",
                    "name": "data",
                    "type": "bytes"
                },
                {
                    "indexed": false,
                    "internalType": "uint256",
                    "name": "integerValue",
                    "type": "uint256"
                },
                {
                    "indexed": false,
                    "internalType": "string",
                    "name": "stringValue",
                    "type": "string"
                }
            ],
            "name": "Data",
            "type": "event"
        },
        {
            "anonymous": false,
            "inputs": [
                {
                    "indexed": false,
                    "internalType": "address",
                    "name": "sender",
                    "type": "address"
                }
            ],
            "name": "Sender",
            "type": "event"
        },
        {
            "inputs": [
                {
                    "internalType": "uint256",
                    "name": "integerValue",
                    "type": "uint256"
                },
                {
                    "internalType": "string",
                    "name": "stringValue",
                    "type": "string"
                }
            ],
            "name": "msgData",
            "outputs": [],
            "stateMutability": "nonpayable",
            "type": "function"
        },
        {
            "inputs": [],
            "name": "msgSender",
            "outputs": [],
            "stateMutability": "nonpayable",
            "type": "function"
        }
    ],
    "bytecode": "608060405234801561001057600080fd5b5061025e806100206000396000f3fe608060405234801561001057600080fd5b50600436106100365760003560e01c8063376bf2621461003b578063d737d0c714610050575b600080fd5b61004e6100493660046100e5565b610058565b005b61004e61009a565b7faf235354a0a47c91ee171961326335cb2d1a8e55b8a89859b0e61eb049e50ea0600036848460405161008e94939291906101a0565b60405180910390a15050565b6040805133815290517fd6558c3ed910d959271054471fd1c326679d9fece99c5091b00ed89627cf2bfc9181900360200190a1565b634e487b7160e01b600052604160045260246000fd5b600080604083850312156100f857600080fd5b82359150602083013567ffffffffffffffff8082111561011757600080fd5b818501915085601f83011261012b57600080fd5b81358181111561013d5761013d6100cf565b604051601f8201601f19908116603f01168101908382118183101715610165576101656100cf565b8160405282815288602084870101111561017e57600080fd5b8260208601602083013760006020848301015280955050505050509250929050565b60608152836060820152838560808301376000608085830101526000601f1980601f8701168301602086818601526080858303016040860152855180608084015260005b818110156102005787810183015184820160a0015282016101e4565b8181111561021257600060a083860101525b50601f019092160160a00197965050505050505056fea26469706673582212202dcdaded00ca392c3d4a3586516879feb102b069517a2812aa631bf515a1325d64736f6c634300080a0033",
    "sourcePath": "d:/Github/new_token/contracts/contracts/mocks/ContextMock.sol",
    "compiler": {
        "name": "solc",
        "version": "0.8.10+commit.fc410830"
    },
    "functionHashes": {
        "msgData(uint256,string)": "376bf262",
        "msgSender()": "d737d0c7"
    },
    "gasEstimates": {
        "creation": {
            "codeDepositCost": "121200",
            "executionCost": "165",
            "totalCost": "121365"
        },
        "external": {
            "msgData(uint256,string)": "infinite",
            "msgSender()": "1203"
        }
    }
}