{
    "contractName": "CountersImpl",
    "abi": [
        {
            "inputs": [],
            "name": "current",
            "outputs": [
                {
                    "internalType": "uint256",
                    "name": "",
                    "type": "uint256"
                }
            ],
            "stateMutability": "view",
            "type": "function"
        },
        {
            "inputs": [],
            "name": "decrement",
            "outputs": [],
            "stateMutability": "nonpayable",
            "type": "function"
        },
        {
            "inputs": [],
            "name": "increment",
            "outputs": [],
            "stateMutability": "nonpayable",
            "type": "function"
        },
        {
            "inputs": [],
            "name": "reset",
            "outputs": [],
            "stateMutability": "nonpayable",
            "type": "function"
        }
    ],
    "bytecode": "608060405234801561001057600080fd5b50610123806100206000396000f3fe6080604052348015600f57600080fd5b506004361060465760003560e01c80632baeceb714604b5780639fa6a6e3146053578063d09de08a146068578063d826f88f14606e575b600080fd5b60516074565b005b60005460405190815260200160405180910390f35b6051607e565b6051608b565b607c60006093565b565b607c600080546001019055565b607c60008055565b80548060e55760405162461bcd60e51b815260206004820152601b60248201527f436f756e7465723a2064656372656d656e74206f766572666c6f770000000000604482015260640160405180910390fd5b60001901905556fea264697066735822122042f28cfc3a8bcf24876af278882d540f4b442fd690960b689fbfea1eeca9596f64736f6c634300080a0033",
    "sourcePath": "d:/Github/new_token/contracts/contracts/mocks/CountersImpl.sol",
    "compiler": {
        "name": "solc",
        "version": "0.8.10+commit.fc410830"
    },
    "functionHashes": {
        "current()": "9fa6a6e3",
        "decrement()": "2baeceb7",
        "increment()": "d09de08a",
        "reset()": "d826f88f"
    },
    "gasEstimates": {
        "creation": {
            "codeDepositCost": "58200",
            "executionCost": "111",
            "totalCost": "58311"
        },
        "external": {
            "current()": "2268",
            "decrement()": "24381",
            "increment()": "24393",
            "reset()": "5206"
        }
    }
}