{
    "contractName": "Create2Impl",
    "abi": [
        {
            "inputs": [
                {
                    "internalType": "bytes32",
                    "name": "salt",
                    "type": "bytes32"
                },
                {
                    "internalType": "bytes32",
                    "name": "codeHash",
                    "type": "bytes32"
                }
            ],
            "name": "computeAddress",
            "outputs": [
                {
                    "internalType": "address",
                    "name": "",
                    "type": "address"
                }
            ],
            "stateMutability": "view",
            "type": "function"
        },
        {
            "inputs": [
                {
                    "internalType": "bytes32",
                    "name": "salt",
                    "type": "bytes32"
                },
                {
                    "internalType": "bytes32",
                    "name": "codeHash",
                    "type": "bytes32"
                },
                {
                    "internalType": "address",
                    "name": "deployer",
                    "type": "address"
                }
            ],
            "name": "computeAddressWithDeployer",
            "outputs": [
                {
                    "internalType": "address",
                    "name": "",
                    "type": "address"
                }
            ],
            "stateMutability": "pure",
            "type": "function"
        },
        {
            "inputs": [
                {
                    "internalType": "uint256",
                    "name": "value",
                    "type": "uint256"
                },
                {
                    "internalType": "bytes32",
                    "name": "salt",
                    "type": "bytes32"
                },
                {
                    "internalType": "bytes",
                    "name": "code",
                    "type": "bytes"
                }
            ],
            "name": "deploy",
            "outputs": [],
            "stateMutability": "nonpayable",
            "type": "function"
        },
        {
            "inputs": [
                {
                    "internalType": "uint256",
                    "name": "value",
                    "type": "uint256"
                },
                {
                    "internalType": "bytes32",
                    "name": "salt",
                    "type": "bytes32"
                }
            ],
            "name": "deployERC1820Implementer",
            "outputs": [],
            "stateMutability": "nonpayable",
            "type": "function"
        },
        {
            "stateMutability": "payable",
            "type": "receive"
        }
    ],
    "bytecode": "608060405234801561001057600080fd5b506105b6806100206000396000f3fe6080604052600436106100435760003560e01c8063076c37b21461004f578063481286e61461007157806356299481146100ad57806366cfa057146100cd57600080fd5b3661004a57005b600080fd5b34801561005b57600080fd5b5061006f61006a36600461030b565b6100ed565b005b34801561007d57600080fd5b5061009161008c36600461030b565b61011f565b6040516001600160a01b03909116815260200160405180910390f35b3480156100b957600080fd5b506100916100c836600461032d565b610185565b3480156100d957600080fd5b5061006f6100e8366004610388565b6101e6565b61011a828260405180602001610102906102fe565b601f1982820381018352601f909101166040526101f7565b505050565b600061017e8383604080516001600160f81b03196020808301919091526bffffffffffffffffffffffff193060601b16602183015260358201859052605580830185905283518084039091018152607590920190925280519101206000905b9392505050565b604080516001600160f81b03196020808301919091526bffffffffffffffffffffffff19606085901b16602183015260358201869052605580830186905283518084039091018152607590920190925280519101206000905b949350505050565b6101f18383836101f7565b50505050565b6000808447101561024f5760405162461bcd60e51b815260206004820152601d60248201527f437265617465323a20696e73756666696369656e742062616c616e636500000060448201526064015b60405180910390fd5b825161029d5760405162461bcd60e51b815260206004820181905260248201527f437265617465323a2062797465636f6465206c656e677468206973207a65726f6044820152606401610246565b8383516020850187f590506001600160a01b0381166101de5760405162461bcd60e51b815260206004820152601960248201527f437265617465323a204661696c6564206f6e206465706c6f79000000000000006044820152606401610246565b6101348061044d83390190565b6000806040838503121561031e57600080fd5b50508035926020909101359150565b60008060006060848603121561034257600080fd5b833592506020840135915060408401356001600160a01b038116811461036757600080fd5b809150509250925092565b634e487b7160e01b600052604160045260246000fd5b60008060006060848603121561039d57600080fd5b8335925060208401359150604084013567ffffffffffffffff808211156103c357600080fd5b818601915086601f8301126103d757600080fd5b8135818111156103e9576103e9610372565b604051601f8201601f19908116603f0116810190838211818310171561041157610411610372565b8160405282815289602084870101111561042a57600080fd5b826020860160208301376000602084830101528095505050505050925092509256fe608060405234801561001057600080fd5b50610114806100206000396000f3fe6080604052348015600f57600080fd5b506004361060285760003560e01c8063249cb3fa14602d575b600080fd5b603c603836600460a4565b604e565b60405190815260200160405180910390f35b6000828152602081815260408083206001600160a01b038516845290915281205460ff16607b576000609d565b7fa2ef4600d742022d532d4747cb3547474667d6f13804902513b2ec01c848f4b45b9392505050565b6000806040838503121560b657600080fd5b8235915060208301356001600160a01b038116811460d357600080fd5b80915050925092905056fea2646970667358221220b1f6af7eac7843a5969936f312625c2ba91f12f1a4972805b631ce9a23f4fbbc64736f6c634300080a0033a2646970667358221220a61865f4c9cb267d3607189c18122d05c167f74173ad19f3970b62621a55546464736f6c634300080a0033",
    "sourcePath": "d:/Github/new_token/contracts/contracts/mocks/Create2Impl.sol",
    "compiler": {
        "name": "solc",
        "version": "0.8.10+commit.fc410830"
    },
    "functionHashes": {
        "computeAddress(bytes32,bytes32)": "481286e6",
        "computeAddressWithDeployer(bytes32,bytes32,address)": "56299481",
        "deploy(uint256,bytes32,bytes)": "66cfa057",
        "deployERC1820Implementer(uint256,bytes32)": "076c37b2"
    },
    "gasEstimates": {
        "creation": {
            "codeDepositCost": "292400",
            "executionCost": "331",
            "totalCost": "292731"
        },
        "external": {
            "computeAddress(bytes32,bytes32)": "infinite",
            "computeAddressWithDeployer(bytes32,bytes32,address)": "673",
            "deploy(uint256,bytes32,bytes)": "infinite",
            "deployERC1820Implementer(uint256,bytes32)": "infinite"
        }
    }
}