{
    "contractName": "ERC1155BurnableMock",
    "abi": [
        {
            "inputs": [
                {
                    "internalType": "string",
                    "name": "uri",
                    "type": "string"
                }
            ],
            "stateMutability": "nonpayable",
            "type": "constructor"
        },
        {
            "anonymous": false,
            "inputs": [
                {
                    "indexed": true,
                    "internalType": "address",
                    "name": "account",
                    "type": "address"
                },
                {
                    "indexed": true,
                    "internalType": "address",
                    "name": "operator",
                    "type": "address"
                },
                {
                    "indexed": false,
                    "internalType": "bool",
                    "name": "approved",
                    "type": "bool"
                }
            ],
            "name": "ApprovalForAll",
            "type": "event"
        },
        {
            "anonymous": false,
            "inputs": [
                {
                    "indexed": true,
                    "internalType": "address",
                    "name": "operator",
                    "type": "address"
                },
                {
                    "indexed": true,
                    "internalType": "address",
                    "name": "from",
                    "type": "address"
                },
                {
                    "indexed": true,
                    "internalType": "address",
                    "name": "to",
                    "type": "address"
                },
                {
                    "indexed": false,
                    "internalType": "uint256[]",
                    "name": "ids",
                    "type": "uint256[]"
                },
                {
                    "indexed": false,
                    "internalType": "uint256[]",
                    "name": "values",
                    "type": "uint256[]"
                }
            ],
            "name": "TransferBatch",
            "type": "event"
        },
        {
            "anonymous": false,
            "inputs": [
                {
                    "indexed": true,
                    "internalType": "address",
                    "name": "operator",
                    "type": "address"
                },
                {
                    "indexed": true,
                    "internalType": "address",
                    "name": "from",
                    "type": "address"
                },
                {
                    "indexed": true,
                    "internalType": "address",
                    "name": "to",
                    "type": "address"
                },
                {
                    "indexed": false,
                    "internalType": "uint256",
                    "name": "id",
                    "type": "uint256"
                },
                {
                    "indexed": false,
                    "internalType": "uint256",
                    "name": "value",
                    "type": "uint256"
                }
            ],
            "name": "TransferSingle",
            "type": "event"
        },
        {
            "anonymous": false,
            "inputs": [
                {
                    "indexed": false,
                    "internalType": "string",
                    "name": "value",
                    "type": "string"
                },
                {
                    "indexed": true,
                    "internalType": "uint256",
                    "name": "id",
                    "type": "uint256"
                }
            ],
            "name": "URI",
            "type": "event"
        },
        {
            "inputs": [
                {
                    "internalType": "address",
                    "name": "account",
                    "type": "address"
                },
                {
                    "internalType": "uint256",
                    "name": "id",
                    "type": "uint256"
                }
            ],
            "name": "balanceOf",
            "outputs": [
                {
                    "internalType": "uint256",
                    "name": "",
                    "type": "uint256"
                }
            ],
            "stateMutability": "view",
            "type": "function"
        },
        {
            "inputs": [
                {
                    "internalType": "address[]",
                    "name": "accounts",
                    "type": "address[]"
                },
                {
                    "internalType": "uint256[]",
                    "name": "ids",
                    "type": "uint256[]"
                }
            ],
            "name": "balanceOfBatch",
            "outputs": [
                {
                    "internalType": "uint256[]",
                    "name": "",
                    "type": "uint256[]"
                }
            ],
            "stateMutability": "view",
            "type": "function"
        },
        {
            "inputs": [
                {
                    "internalType": "address",
                    "name": "account",
                    "type": "address"
                },
                {
                    "internalType": "uint256",
                    "name": "id",
                    "type": "uint256"
                },
                {
                    "internalType": "uint256",
                    "name": "value",
                    "type": "uint256"
                }
            ],
            "name": "burn",
            "outputs": [],
            "stateMutability": "nonpayable",
            "type": "function"
        },
        {
            "inputs": [
                {
                    "internalType": "address",
                    "name": "account",
                    "type": "address"
                },
                {
                    "internalType": "uint256[]",
                    "name": "ids",
                    "type": "uint256[]"
                },
                {
                    "internalType": "uint256[]",
                    "name": "values",
                    "type": "uint256[]"
                }
            ],
            "name": "burnBatch",
            "outputs": [],
            "stateMutability": "nonpayable",
            "type": "function"
        },
        {
            "inputs": [
                {
                    "internalType": "address",
                    "name": "account",
                    "type": "address"
                },
                {
                    "internalType": "address",
                    "name": "operator",
                    "type": "address"
                }
            ],
            "name": "isApprovedForAll",
            "outputs": [
                {
                    "internalType": "bool",
                    "name": "",
                    "type": "bool"
                }
            ],
            "stateMutability": "view",
            "type": "function"
        },
        {
            "inputs": [
                {
                    "internalType": "address",
                    "name": "to",
                    "type": "address"
                },
                {
                    "internalType": "uint256",
                    "name": "id",
                    "type": "uint256"
                },
                {
                    "internalType": "uint256",
                    "name": "value",
                    "type": "uint256"
                },
                {
                    "internalType": "bytes",
                    "name": "data",
                    "type": "bytes"
                }
            ],
            "name": "mint",
            "outputs": [],
            "stateMutability": "nonpayable",
            "type": "function"
        },
        {
            "inputs": [
                {
                    "internalType": "address",
                    "name": "from",
                    "type": "address"
                },
                {
                    "internalType": "address",
                    "name": "to",
                    "type": "address"
                },
                {
                    "internalType": "uint256[]",
                    "name": "ids",
                    "type": "uint256[]"
                },
                {
                    "internalType": "uint256[]",
                    "name": "amounts",
                    "type": "uint256[]"
                },
                {
                    "internalType": "bytes",
                    "name": "data",
                    "type": "bytes"
                }
            ],
            "name": "safeBatchTransferFrom",
            "outputs": [],
            "stateMutability": "nonpayable",
            "type": "function"
        },
        {
            "inputs": [
                {
                    "internalType": "address",
                    "name": "from",
                    "type": "address"
                },
                {
                    "internalType": "address",
                    "name": "to",
                    "type": "address"
                },
                {
                    "internalType": "uint256",
                    "name": "id",
                    "type": "uint256"
                },
                {
                    "internalType": "uint256",
                    "name": "amount",
                    "type": "uint256"
                },
                {
                    "internalType": "bytes",
                    "name": "data",
                    "type": "bytes"
                }
            ],
            "name": "safeTransferFrom",
            "outputs": [],
            "stateMutability": "nonpayable",
            "type": "function"
        },
        {
            "inputs": [
                {
                    "internalType": "address",
                    "name": "operator",
                    "type": "address"
                },
                {
                    "internalType": "bool",
                    "name": "approved",
                    "type": "bool"
                }
            ],
            "name": "setApprovalForAll",
            "outputs": [],
            "stateMutability": "nonpayable",
            "type": "function"
        },
        {
            "inputs": [
                {
                    "internalType": "bytes4",
                    "name": "interfaceId",
                    "type": "bytes4"
                }
            ],
            "name": "supportsInterface",
            "outputs": [
                {
                    "internalType": "bool",
                    "name": "",
                    "type": "bool"
                }
            ],
            "stateMutability": "view",
            "type": "function"
        },
        {
            "inputs": [
                {
                    "internalType": "uint256",
                    "name": "",
                    "type": "uint256"
                }
            ],
            "name": "uri",
            "outputs": [
                {
                    "internalType": "string",
                    "name": "",
                    "type": "string"
                }
            ],
            "stateMutability": "view",
            "type": "function"
        }
    ],
    "bytecode": "60806040523480156200001157600080fd5b5060405162001c1938038062001c1983398101604081905262000034916200011d565b80620000408162000048565b505062000236565b80516200005d90600290602084019062000061565b5050565b8280546200006f90620001f9565b90600052602060002090601f016020900481019282620000935760008555620000de565b82601f10620000ae57805160ff1916838001178555620000de565b82800160010185558215620000de579182015b82811115620000de578251825591602001919060010190620000c1565b50620000ec929150620000f0565b5090565b5b80821115620000ec5760008155600101620000f1565b634e487b7160e01b600052604160045260246000fd5b600060208083850312156200013157600080fd5b82516001600160401b03808211156200014957600080fd5b818501915085601f8301126200015e57600080fd5b81518181111562000173576200017362000107565b604051601f8201601f19908116603f011681019083821181831017156200019e576200019e62000107565b816040528281528886848701011115620001b757600080fd5b600093505b82841015620001db5784840186015181850187015292850192620001bc565b82841115620001ed5760008684830101525b98975050505050505050565b600181811c908216806200020e57607f821691505b602082108114156200023057634e487b7160e01b600052602260045260246000fd5b50919050565b6119d380620002466000396000f3fe608060405234801561001057600080fd5b50600436106100a85760003560e01c80636b20c454116100715780636b20c4541461014b578063731133e91461015e578063a22cb46514610171578063e985e9c514610184578063f242432a146101c0578063f5298aca146101d357600080fd5b8062fdd58e146100ad57806301ffc9a7146100d35780630e89341c146100f65780632eb2c2d6146101165780634e1273f41461012b575b600080fd5b6100c06100bb366004610fb5565b6101e6565b6040519081526020015b60405180910390f35b6100e66100e1366004610ff8565b61027d565b60405190151581526020016100ca565b61010961010436600461101c565b6102cf565b6040516100ca9190611082565b6101296101243660046111e1565b610363565b005b61013e61013936600461128b565b6103fa565b6040516100ca9190611391565b6101296101593660046113a4565b610524565b61012961016c366004611418565b61056c565b61012961017f366004611479565b61057e565b6100e66101923660046114b5565b6001600160a01b03918216600090815260016020908152604080832093909416825291909152205460ff1690565b6101296101ce3660046114e8565b61058d565b6101296101e136600461154d565b6105d2565b60006001600160a01b0383166102575760405162461bcd60e51b815260206004820152602b60248201527f455243313135353a2062616c616e636520717565727920666f7220746865207a60448201526a65726f206164647265737360a81b60648201526084015b60405180910390fd5b506000908152602081815260408083206001600160a01b03949094168352929052205490565b60006001600160e01b03198216636cdb3d1360e11b14806102ae57506001600160e01b031982166303a24d0760e21b145b806102c957506301ffc9a760e01b6001600160e01b03198316145b92915050565b6060600280546102de90611580565b80601f016020809104026020016040519081016040528092919081815260200182805461030a90611580565b80156103575780601f1061032c57610100808354040283529160200191610357565b820191906000526020600020905b81548152906001019060200180831161033a57829003601f168201915b50505050509050919050565b6001600160a01b03851633148061037f575061037f8533610192565b6103e65760405162461bcd60e51b815260206004820152603260248201527f455243313135353a207472616e736665722063616c6c6572206973206e6f74206044820152711bdddb995c881b9bdc88185c1c1c9bdd995960721b606482015260840161024e565b6103f38585858585610615565b5050505050565b6060815183511461045f5760405162461bcd60e51b815260206004820152602960248201527f455243313135353a206163636f756e747320616e6420696473206c656e677468604482015268040dad2e6dac2e8c6d60bb1b606482015260840161024e565b6000835167ffffffffffffffff81111561047b5761047b611095565b6040519080825280602002602001820160405280156104a4578160200160208202803683370190505b50905060005b845181101561051c576104ef8582815181106104c8576104c86115bb565b60200260200101518583815181106104e2576104e26115bb565b60200260200101516101e6565b828281518110610501576105016115bb565b6020908102919091010152610515816115e7565b90506104aa565b509392505050565b6001600160a01b03831633148061054057506105408333610192565b61055c5760405162461bcd60e51b815260040161024e90611602565b6105678383836107b1565b505050565b6105788484848461092d565b50505050565b610589338383610a37565b5050565b6001600160a01b0385163314806105a957506105a98533610192565b6105c55760405162461bcd60e51b815260040161024e90611602565b6103f38585858585610b18565b6001600160a01b0383163314806105ee57506105ee8333610192565b61060a5760405162461bcd60e51b815260040161024e90611602565b610567838383610c35565b81518351146106365760405162461bcd60e51b815260040161024e9061164b565b6001600160a01b03841661065c5760405162461bcd60e51b815260040161024e90611693565b3360005b845181101561074357600085828151811061067d5761067d6115bb565b60200260200101519050600085838151811061069b5761069b6115bb565b602090810291909101810151600084815280835260408082206001600160a01b038e1683529093529190912054909150818110156106eb5760405162461bcd60e51b815260040161024e906116d8565b6000838152602081815260408083206001600160a01b038e8116855292528083208585039055908b16825281208054849290610728908490611722565b925050819055505050508061073c906115e7565b9050610660565b50846001600160a01b0316866001600160a01b0316826001600160a01b03167f4a39dc06d4c0dbc64b70af90fd698a233a518aa5d07e595d983b8c0526c8f7fb878760405161079392919061173a565b60405180910390a46107a9818787878787610d37565b505050505050565b6001600160a01b0383166107d75760405162461bcd60e51b815260040161024e90611768565b80518251146107f85760405162461bcd60e51b815260040161024e9061164b565b604080516020810190915260009081905233905b83518110156108ce576000848281518110610829576108296115bb565b602002602001015190506000848381518110610847576108476115bb565b602090810291909101810151600084815280835260408082206001600160a01b038c1683529093529190912054909150818110156108975760405162461bcd60e51b815260040161024e906117ab565b6000928352602083815260408085206001600160a01b038b16865290915290922091039055806108c6816115e7565b91505061080c565b5060006001600160a01b0316846001600160a01b0316826001600160a01b03167f4a39dc06d4c0dbc64b70af90fd698a233a518aa5d07e595d983b8c0526c8f7fb868660405161091f92919061173a565b60405180910390a450505050565b6001600160a01b03841661098d5760405162461bcd60e51b815260206004820152602160248201527f455243313135353a206d696e7420746f20746865207a65726f206164647265736044820152607360f81b606482015260840161024e565b336109a78160008761099e88610e93565b6103f388610e93565b6000848152602081815260408083206001600160a01b0389168452909152812080548592906109d7908490611722565b909155505060408051858152602081018590526001600160a01b0380881692600092918516917fc3d58168c5ae7397731d063d5bbf3d657854427343f4c083240f7aacaa2d0f62910160405180910390a46103f381600087878787610ede565b816001600160a01b0316836001600160a01b03161415610aab5760405162461bcd60e51b815260206004820152602960248201527f455243313135353a2073657474696e6720617070726f76616c20737461747573604482015268103337b91039b2b63360b91b606482015260840161024e565b6001600160a01b03838116600081815260016020908152604080832094871680845294825291829020805460ff191686151590811790915591519182527f17307eab39ab6107e8899845ad3d59bd9653f200f220920489ca2b5937696c31910160405180910390a3505050565b6001600160a01b038416610b3e5760405162461bcd60e51b815260040161024e90611693565b33610b4e81878761099e88610e93565b6000848152602081815260408083206001600160a01b038a16845290915290205483811015610b8f5760405162461bcd60e51b815260040161024e906116d8565b6000858152602081815260408083206001600160a01b038b8116855292528083208785039055908816825281208054869290610bcc908490611722565b909155505060408051868152602081018690526001600160a01b03808916928a821692918616917fc3d58168c5ae7397731d063d5bbf3d657854427343f4c083240f7aacaa2d0f62910160405180910390a4610c2c828888888888610ede565b50505050505050565b6001600160a01b038316610c5b5760405162461bcd60e51b815260040161024e90611768565b33610c8b81856000610c6c87610e93565b610c7587610e93565b5050604080516020810190915260009052505050565b6000838152602081815260408083206001600160a01b038816845290915290205482811015610ccc5760405162461bcd60e51b815260040161024e906117ab565b6000848152602081815260408083206001600160a01b03898116808652918452828520888703905582518981529384018890529092908616917fc3d58168c5ae7397731d063d5bbf3d657854427343f4c083240f7aacaa2d0f62910160405180910390a45050505050565b6001600160a01b0384163b156107a95760405163bc197c8160e01b81526001600160a01b0385169063bc197c8190610d7b90899089908890889088906004016117ef565b6020604051808303816000875af1925050508015610db6575060408051601f3d908101601f19168201909252610db39181019061184d565b60015b610e6357610dc261186a565b806308c379a01415610dfc5750610dd7611886565b80610de25750610dfe565b8060405162461bcd60e51b815260040161024e9190611082565b505b60405162461bcd60e51b815260206004820152603460248201527f455243313135353a207472616e7366657220746f206e6f6e20455243313135356044820152732932b1b2b4bb32b91034b6b83632b6b2b73a32b960611b606482015260840161024e565b6001600160e01b0319811663bc197c8160e01b14610c2c5760405162461bcd60e51b815260040161024e90611910565b60408051600180825281830190925260609160009190602080830190803683370190505090508281600081518110610ecd57610ecd6115bb565b602090810291909101015292915050565b6001600160a01b0384163b156107a95760405163f23a6e6160e01b81526001600160a01b0385169063f23a6e6190610f229089908990889088908890600401611958565b6020604051808303816000875af1925050508015610f5d575060408051601f3d908101601f19168201909252610f5a9181019061184d565b60015b610f6957610dc261186a565b6001600160e01b0319811663f23a6e6160e01b14610c2c5760405162461bcd60e51b815260040161024e90611910565b80356001600160a01b0381168114610fb057600080fd5b919050565b60008060408385031215610fc857600080fd5b610fd183610f99565b946020939093013593505050565b6001600160e01b031981168114610ff557600080fd5b50565b60006020828403121561100a57600080fd5b813561101581610fdf565b9392505050565b60006020828403121561102e57600080fd5b5035919050565b6000815180845260005b8181101561105b5760208185018101518683018201520161103f565b8181111561106d576000602083870101525b50601f01601f19169290920160200192915050565b6020815260006110156020830184611035565b634e487b7160e01b600052604160045260246000fd5b601f8201601f1916810167ffffffffffffffff811182821017156110d1576110d1611095565b6040525050565b600067ffffffffffffffff8211156110f2576110f2611095565b5060051b60200190565b600082601f83011261110d57600080fd5b8135602061111a826110d8565b60405161112782826110ab565b83815260059390931b850182019282810191508684111561114757600080fd5b8286015b84811015611162578035835291830191830161114b565b509695505050505050565b600082601f83011261117e57600080fd5b813567ffffffffffffffff81111561119857611198611095565b6040516111af601f8301601f1916602001826110ab565b8181528460208386010111156111c457600080fd5b816020850160208301376000918101602001919091529392505050565b600080600080600060a086880312156111f957600080fd5b61120286610f99565b945061121060208701610f99565b9350604086013567ffffffffffffffff8082111561122d57600080fd5b61123989838a016110fc565b9450606088013591508082111561124f57600080fd5b61125b89838a016110fc565b9350608088013591508082111561127157600080fd5b5061127e8882890161116d565b9150509295509295909350565b6000806040838503121561129e57600080fd5b823567ffffffffffffffff808211156112b657600080fd5b818501915085601f8301126112ca57600080fd5b813560206112d7826110d8565b6040516112e482826110ab565b83815260059390931b850182019282810191508984111561130457600080fd5b948201945b838610156113295761131a86610f99565b82529482019490820190611309565b9650508601359250508082111561133f57600080fd5b5061134c858286016110fc565b9150509250929050565b600081518084526020808501945080840160005b838110156113865781518752958201959082019060010161136a565b509495945050505050565b6020815260006110156020830184611356565b6000806000606084860312156113b957600080fd5b6113c284610f99565b9250602084013567ffffffffffffffff808211156113df57600080fd5b6113eb878388016110fc565b9350604086013591508082111561140157600080fd5b5061140e868287016110fc565b9150509250925092565b6000806000806080858703121561142e57600080fd5b61143785610f99565b93506020850135925060408501359150606085013567ffffffffffffffff81111561146157600080fd5b61146d8782880161116d565b91505092959194509250565b6000806040838503121561148c57600080fd5b61149583610f99565b9150602083013580151581146114aa57600080fd5b809150509250929050565b600080604083850312156114c857600080fd5b6114d183610f99565b91506114df60208401610f99565b90509250929050565b600080600080600060a0868803121561150057600080fd5b61150986610f99565b945061151760208701610f99565b93506040860135925060608601359150608086013567ffffffffffffffff81111561154157600080fd5b61127e8882890161116d565b60008060006060848603121561156257600080fd5b61156b84610f99565b95602085013595506040909401359392505050565b600181811c9082168061159457607f821691505b602082108114156115b557634e487b7160e01b600052602260045260246000fd5b50919050565b634e487b7160e01b600052603260045260246000fd5b634e487b7160e01b600052601160045260246000fd5b60006000198214156115fb576115fb6115d1565b5060010190565b60208082526029908201527f455243313135353a2063616c6c6572206973206e6f74206f776e6572206e6f7260408201526808185c1c1c9bdd995960ba1b606082015260800190565b60208082526028908201527f455243313135353a2069647320616e6420616d6f756e7473206c656e677468206040820152670dad2e6dac2e8c6d60c31b606082015260800190565b60208082526025908201527f455243313135353a207472616e7366657220746f20746865207a65726f206164604082015264647265737360d81b606082015260800190565b6020808252602a908201527f455243313135353a20696e73756666696369656e742062616c616e636520666f60408201526939103a3930b739b332b960b11b606082015260800190565b60008219821115611735576117356115d1565b500190565b60408152600061174d6040830185611356565b828103602084015261175f8185611356565b95945050505050565b60208082526023908201527f455243313135353a206275726e2066726f6d20746865207a65726f206164647260408201526265737360e81b606082015260800190565b60208082526024908201527f455243313135353a206275726e20616d6f756e7420657863656564732062616c604082015263616e636560e01b606082015260800190565b6001600160a01b0386811682528516602082015260a06040820181905260009061181b90830186611356565b828103606084015261182d8186611356565b905082810360808401526118418185611035565b98975050505050505050565b60006020828403121561185f57600080fd5b815161101581610fdf565b600060033d11156118835760046000803e5060005160e01c5b90565b600060443d10156118945790565b6040516003193d81016004833e81513d67ffffffffffffffff81602484011181841117156118c457505050505090565b82850191508151818111156118dc5750505050505090565b843d87010160208285010111156118f65750505050505090565b611905602082860101876110ab565b509095945050505050565b60208082526028908201527f455243313135353a204552433131353552656365697665722072656a656374656040820152676420746f6b656e7360c01b606082015260800190565b6001600160a01b03868116825285166020820152604081018490526060810183905260a06080820181905260009061199290830184611035565b97965050505050505056fea2646970667358221220dd15fe8f9c02e8dff889963f37a5f9f5bc516ef2065feac2e67f55c6bc7e341264736f6c634300080a0033",
    "sourcePath": "d:/Github/new_token/contracts/contracts/mocks/ERC1155BurnableMock.sol",
    "compiler": {
        "name": "solc",
        "version": "0.8.10+commit.fc410830"
    },
    "functionHashes": {
        "balanceOf(address,uint256)": "00fdd58e",
        "balanceOfBatch(address[],uint256[])": "4e1273f4",
        "burn(address,uint256,uint256)": "f5298aca",
        "burnBatch(address,uint256[],uint256[])": "6b20c454",
        "isApprovedForAll(address,address)": "e985e9c5",
        "mint(address,uint256,uint256,bytes)": "731133e9",
        "safeBatchTransferFrom(address,address,uint256[],uint256[],bytes)": "2eb2c2d6",
        "safeTransferFrom(address,address,uint256,uint256,bytes)": "f242432a",
        "setApprovalForAll(address,bool)": "a22cb465",
        "supportsInterface(bytes4)": "01ffc9a7",
        "uri(uint256)": "0e89341c"
    },
    "gasEstimates": {
        "creation": {
            "codeDepositCost": "1322200",
            "executionCost": "infinite",
            "totalCost": "infinite"
        },
        "external": {
            "balanceOf(address,uint256)": "2672",
            "balanceOfBatch(address[],uint256[])": "infinite",
            "burn(address,uint256,uint256)": "infinite",
            "burnBatch(address,uint256[],uint256[])": "infinite",
            "isApprovedForAll(address,address)": "infinite",
            "mint(address,uint256,uint256,bytes)": "infinite",
            "safeBatchTransferFrom(address,address,uint256[],uint256[],bytes)": "infinite",
            "safeTransferFrom(address,address,uint256,uint256,bytes)": "infinite",
            "setApprovalForAll(address,bool)": "26730",
            "supportsInterface(bytes4)": "544",
            "uri(uint256)": "infinite"
        }
    }
}