{
    "contractName": "ERC1155SupplyMock",
    "abi": [
        {
            "inputs": [
                {
                    "internalType": "string",
                    "name": "uri",
                    "type": "string"
                }
            ],
            "stateMutability": "nonpayable",
            "type": "constructor"
        },
        {
            "anonymous": false,
            "inputs": [
                {
                    "indexed": true,
                    "internalType": "address",
                    "name": "account",
                    "type": "address"
                },
                {
                    "indexed": true,
                    "internalType": "address",
                    "name": "operator",
                    "type": "address"
                },
                {
                    "indexed": false,
                    "internalType": "bool",
                    "name": "approved",
                    "type": "bool"
                }
            ],
            "name": "ApprovalForAll",
            "type": "event"
        },
        {
            "anonymous": false,
            "inputs": [
                {
                    "indexed": true,
                    "internalType": "address",
                    "name": "operator",
                    "type": "address"
                },
                {
                    "indexed": true,
                    "internalType": "address",
                    "name": "from",
                    "type": "address"
                },
                {
                    "indexed": true,
                    "internalType": "address",
                    "name": "to",
                    "type": "address"
                },
                {
                    "indexed": false,
                    "internalType": "uint256[]",
                    "name": "ids",
                    "type": "uint256[]"
                },
                {
                    "indexed": false,
                    "internalType": "uint256[]",
                    "name": "values",
                    "type": "uint256[]"
                }
            ],
            "name": "TransferBatch",
            "type": "event"
        },
        {
            "anonymous": false,
            "inputs": [
                {
                    "indexed": true,
                    "internalType": "address",
                    "name": "operator",
                    "type": "address"
                },
                {
                    "indexed": true,
                    "internalType": "address",
                    "name": "from",
                    "type": "address"
                },
                {
                    "indexed": true,
                    "internalType": "address",
                    "name": "to",
                    "type": "address"
                },
                {
                    "indexed": false,
                    "internalType": "uint256",
                    "name": "id",
                    "type": "uint256"
                },
                {
                    "indexed": false,
                    "internalType": "uint256",
                    "name": "value",
                    "type": "uint256"
                }
            ],
            "name": "TransferSingle",
            "type": "event"
        },
        {
            "anonymous": false,
            "inputs": [
                {
                    "indexed": false,
                    "internalType": "string",
                    "name": "value",
                    "type": "string"
                },
                {
                    "indexed": true,
                    "internalType": "uint256",
                    "name": "id",
                    "type": "uint256"
                }
            ],
            "name": "URI",
            "type": "event"
        },
        {
            "inputs": [
                {
                    "internalType": "address",
                    "name": "account",
                    "type": "address"
                },
                {
                    "internalType": "uint256",
                    "name": "id",
                    "type": "uint256"
                }
            ],
            "name": "balanceOf",
            "outputs": [
                {
                    "internalType": "uint256",
                    "name": "",
                    "type": "uint256"
                }
            ],
            "stateMutability": "view",
            "type": "function"
        },
        {
            "inputs": [
                {
                    "internalType": "address[]",
                    "name": "accounts",
                    "type": "address[]"
                },
                {
                    "internalType": "uint256[]",
                    "name": "ids",
                    "type": "uint256[]"
                }
            ],
            "name": "balanceOfBatch",
            "outputs": [
                {
                    "internalType": "uint256[]",
                    "name": "",
                    "type": "uint256[]"
                }
            ],
            "stateMutability": "view",
            "type": "function"
        },
        {
            "inputs": [
                {
                    "internalType": "address",
                    "name": "owner",
                    "type": "address"
                },
                {
                    "internalType": "uint256",
                    "name": "id",
                    "type": "uint256"
                },
                {
                    "internalType": "uint256",
                    "name": "value",
                    "type": "uint256"
                }
            ],
            "name": "burn",
            "outputs": [],
            "stateMutability": "nonpayable",
            "type": "function"
        },
        {
            "inputs": [
                {
                    "internalType": "address",
                    "name": "owner",
                    "type": "address"
                },
                {
                    "internalType": "uint256[]",
                    "name": "ids",
                    "type": "uint256[]"
                },
                {
                    "internalType": "uint256[]",
                    "name": "values",
                    "type": "uint256[]"
                }
            ],
            "name": "burnBatch",
            "outputs": [],
            "stateMutability": "nonpayable",
            "type": "function"
        },
        {
            "inputs": [
                {
                    "internalType": "uint256",
                    "name": "id",
                    "type": "uint256"
                }
            ],
            "name": "exists",
            "outputs": [
                {
                    "internalType": "bool",
                    "name": "",
                    "type": "bool"
                }
            ],
            "stateMutability": "view",
            "type": "function"
        },
        {
            "inputs": [
                {
                    "internalType": "address",
                    "name": "account",
                    "type": "address"
                },
                {
                    "internalType": "address",
                    "name": "operator",
                    "type": "address"
                }
            ],
            "name": "isApprovedForAll",
            "outputs": [
                {
                    "internalType": "bool",
                    "name": "",
                    "type": "bool"
                }
            ],
            "stateMutability": "view",
            "type": "function"
        },
        {
            "inputs": [
                {
                    "internalType": "address",
                    "name": "to",
                    "type": "address"
                },
                {
                    "internalType": "uint256",
                    "name": "id",
                    "type": "uint256"
                },
                {
                    "internalType": "uint256",
                    "name": "value",
                    "type": "uint256"
                },
                {
                    "internalType": "bytes",
                    "name": "data",
                    "type": "bytes"
                }
            ],
            "name": "mint",
            "outputs": [],
            "stateMutability": "nonpayable",
            "type": "function"
        },
        {
            "inputs": [
                {
                    "internalType": "address",
                    "name": "to",
                    "type": "address"
                },
                {
                    "internalType": "uint256[]",
                    "name": "ids",
                    "type": "uint256[]"
                },
                {
                    "internalType": "uint256[]",
                    "name": "values",
                    "type": "uint256[]"
                },
                {
                    "internalType": "bytes",
                    "name": "data",
                    "type": "bytes"
                }
            ],
            "name": "mintBatch",
            "outputs": [],
            "stateMutability": "nonpayable",
            "type": "function"
        },
        {
            "inputs": [
                {
                    "internalType": "address",
                    "name": "from",
                    "type": "address"
                },
                {
                    "internalType": "address",
                    "name": "to",
                    "type": "address"
                },
                {
                    "internalType": "uint256[]",
                    "name": "ids",
                    "type": "uint256[]"
                },
                {
                    "internalType": "uint256[]",
                    "name": "amounts",
                    "type": "uint256[]"
                },
                {
                    "internalType": "bytes",
                    "name": "data",
                    "type": "bytes"
                }
            ],
            "name": "safeBatchTransferFrom",
            "outputs": [],
            "stateMutability": "nonpayable",
            "type": "function"
        },
        {
            "inputs": [
                {
                    "internalType": "address",
                    "name": "from",
                    "type": "address"
                },
                {
                    "internalType": "address",
                    "name": "to",
                    "type": "address"
                },
                {
                    "internalType": "uint256",
                    "name": "id",
                    "type": "uint256"
                },
                {
                    "internalType": "uint256",
                    "name": "amount",
                    "type": "uint256"
                },
                {
                    "internalType": "bytes",
                    "name": "data",
                    "type": "bytes"
                }
            ],
            "name": "safeTransferFrom",
            "outputs": [],
            "stateMutability": "nonpayable",
            "type": "function"
        },
        {
            "inputs": [
                {
                    "internalType": "address",
                    "name": "operator",
                    "type": "address"
                },
                {
                    "internalType": "bool",
                    "name": "approved",
                    "type": "bool"
                }
            ],
            "name": "setApprovalForAll",
            "outputs": [],
            "stateMutability": "nonpayable",
            "type": "function"
        },
        {
            "inputs": [
                {
                    "internalType": "string",
                    "name": "newuri",
                    "type": "string"
                }
            ],
            "name": "setURI",
            "outputs": [],
            "stateMutability": "nonpayable",
            "type": "function"
        },
        {
            "inputs": [
                {
                    "internalType": "bytes4",
                    "name": "interfaceId",
                    "type": "bytes4"
                }
            ],
            "name": "supportsInterface",
            "outputs": [
                {
                    "internalType": "bool",
                    "name": "",
                    "type": "bool"
                }
            ],
            "stateMutability": "view",
            "type": "function"
        },
        {
            "inputs": [
                {
                    "internalType": "uint256",
                    "name": "id",
                    "type": "uint256"
                }
            ],
            "name": "totalSupply",
            "outputs": [
                {
                    "internalType": "uint256",
                    "name": "",
                    "type": "uint256"
                }
            ],
            "stateMutability": "view",
            "type": "function"
        },
        {
            "inputs": [
                {
                    "internalType": "uint256",
                    "name": "",
                    "type": "uint256"
                }
            ],
            "name": "uri",
            "outputs": [
                {
                    "internalType": "string",
                    "name": "",
                    "type": "string"
                }
            ],
            "stateMutability": "view",
            "type": "function"
        }
    ],
    "bytecode": "60806040523480156200001157600080fd5b50604051620020b8380380620020b883398101604081905262000034916200011f565b808062000041816200004a565b50505062000238565b80516200005f90600290602084019062000063565b5050565b8280546200007190620001fb565b90600052602060002090601f016020900481019282620000955760008555620000e0565b82601f10620000b057805160ff1916838001178555620000e0565b82800160010185558215620000e0579182015b82811115620000e0578251825591602001919060010190620000c3565b50620000ee929150620000f2565b5090565b5b80821115620000ee5760008155600101620000f3565b634e487b7160e01b600052604160045260246000fd5b600060208083850312156200013357600080fd5b82516001600160401b03808211156200014b57600080fd5b818501915085601f8301126200016057600080fd5b81518181111562000175576200017562000109565b604051601f8201601f19908116603f01168101908382118183101715620001a057620001a062000109565b816040528281528886848701011115620001b957600080fd5b600093505b82841015620001dd5784840186015181850187015292850192620001be565b82841115620001ef5760008684830101525b98975050505050505050565b600181811c908216806200021057607f821691505b602082108114156200023257634e487b7160e01b600052602260045260246000fd5b50919050565b611e7080620002486000396000f3fe608060405234801561001057600080fd5b50600436106100f45760003560e01c80634f558e7911610097578063bd85b03911610066578063bd85b03914610218578063e985e9c514610238578063f242432a14610274578063f5298aca1461028757600080fd5b80634f558e79146101bd5780636b20c454146101df578063731133e9146101f2578063a22cb4651461020557600080fd5b80630e89341c116100d35780630e89341c146101575780631f7fdffa146101775780632eb2c2d61461018a5780634e1273f41461019d57600080fd5b8062fdd58e146100f957806301ffc9a71461011f57806302fe530514610142575b600080fd5b61010c61010736600461135e565b61029a565b6040519081526020015b60405180910390f35b61013261012d36600461139e565b610331565b6040519015158152602001610116565b610155610150366004611463565b610383565b005b61016a6101653660046114b4565b61038f565b604051610116919061151a565b6101556101853660046115e2565b610423565b61015561019836600461167b565b610435565b6101b06101ab366004611725565b6104cc565b604051610116919061182b565b6101326101cb3660046114b4565b600090815260036020526040902054151590565b6101556101ed36600461183e565b6105f6565b6101556102003660046118b2565b610606565b610155610213366004611907565b610612565b61010c6102263660046114b4565b60009081526003602052604090205490565b610132610246366004611943565b6001600160a01b03918216600090815260016020908152604080832093909416825291909152205460ff1690565b610155610282366004611976565b610621565b6101556102953660046119db565b6106a8565b60006001600160a01b03831661030b5760405162461bcd60e51b815260206004820152602b60248201527f455243313135353a2062616c616e636520717565727920666f7220746865207a60448201526a65726f206164647265737360a81b60648201526084015b60405180910390fd5b506000908152602081815260408083206001600160a01b03949094168352929052205490565b60006001600160e01b03198216636cdb3d1360e11b148061036257506001600160e01b031982166303a24d0760e21b145b8061037d57506301ffc9a760e01b6001600160e01b03198316145b92915050565b61038c816106b3565b50565b60606002805461039e90611a0e565b80601f01602080910402602001604051908101604052809291908181526020018280546103ca90611a0e565b80156104175780601f106103ec57610100808354040283529160200191610417565b820191906000526020600020905b8154815290600101906020018083116103fa57829003601f168201915b50505050509050919050565b61042f848484846106c6565b50505050565b6001600160a01b03851633148061045157506104518533610246565b6104b85760405162461bcd60e51b815260206004820152603260248201527f455243313135353a207472616e736665722063616c6c6572206973206e6f74206044820152711bdddb995c881b9bdc88185c1c1c9bdd995960721b6064820152608401610302565b6104c58585858585610820565b5050505050565b606081518351146105315760405162461bcd60e51b815260206004820152602960248201527f455243313135353a206163636f756e747320616e6420696473206c656e677468604482015268040dad2e6dac2e8c6d60bb1b6064820152608401610302565b6000835167ffffffffffffffff81111561054d5761054d6113c2565b604051908082528060200260200182016040528015610576578160200160208202803683370190505b50905060005b84518110156105ee576105c185828151811061059a5761059a611a49565b60200260200101518583815181106105b4576105b4611a49565b602002602001015161029a565b8282815181106105d3576105d3611a49565b60209081029190910101526105e781611a75565b905061057c565b509392505050565b6106018383836109ca565b505050565b61042f84848484610b58565b61061d338383610c2e565b5050565b6001600160a01b03851633148061063d575061063d8533610246565b61069b5760405162461bcd60e51b815260206004820152602960248201527f455243313135353a2063616c6c6572206973206e6f74206f776e6572206e6f7260448201526808185c1c1c9bdd995960ba1b6064820152608401610302565b6104c58585858585610d0f565b610601838383610e2c565b805161061d9060029060208401906112a9565b6001600160a01b0384166106ec5760405162461bcd60e51b815260040161030290611a90565b815183511461070d5760405162461bcd60e51b815260040161030290611ad1565b3361071d81600087878787610f2d565b60005b84518110156107b85783818151811061073b5761073b611a49565b602002602001015160008087848151811061075857610758611a49565b602002602001015181526020019081526020016000206000886001600160a01b03166001600160a01b0316815260200190815260200160002060008282546107a09190611b19565b909155508190506107b081611a75565b915050610720565b50846001600160a01b031660006001600160a01b0316826001600160a01b03167f4a39dc06d4c0dbc64b70af90fd698a233a518aa5d07e595d983b8c0526c8f7fb8787604051610809929190611b31565b60405180910390a46104c581600087878787610f3b565b81518351146108415760405162461bcd60e51b815260040161030290611ad1565b6001600160a01b0384166108675760405162461bcd60e51b815260040161030290611b5f565b33610876818787878787610f2d565b60005b845181101561095c57600085828151811061089657610896611a49565b6020026020010151905060008583815181106108b4576108b4611a49565b602090810291909101810151600084815280835260408082206001600160a01b038e1683529093529190912054909150818110156109045760405162461bcd60e51b815260040161030290611ba4565b6000838152602081815260408083206001600160a01b038e8116855292528083208585039055908b16825281208054849290610941908490611b19565b925050819055505050508061095590611a75565b9050610879565b50846001600160a01b0316866001600160a01b0316826001600160a01b03167f4a39dc06d4c0dbc64b70af90fd698a233a518aa5d07e595d983b8c0526c8f7fb87876040516109ac929190611b31565b60405180910390a46109c2818787878787610f3b565b505050505050565b6001600160a01b0383166109f05760405162461bcd60e51b815260040161030290611bee565b8051825114610a115760405162461bcd60e51b815260040161030290611ad1565b6000339050610a3481856000868660405180602001604052806000815250610f2d565b60005b8351811015610af9576000848281518110610a5457610a54611a49565b602002602001015190506000848381518110610a7257610a72611a49565b602090810291909101810151600084815280835260408082206001600160a01b038c168352909352919091205490915081811015610ac25760405162461bcd60e51b815260040161030290611c31565b6000928352602083815260408085206001600160a01b038b1686529091529092209103905580610af181611a75565b915050610a37565b5060006001600160a01b0316846001600160a01b0316826001600160a01b03167f4a39dc06d4c0dbc64b70af90fd698a233a518aa5d07e595d983b8c0526c8f7fb8686604051610b4a929190611b31565b60405180910390a450505050565b6001600160a01b038416610b7e5760405162461bcd60e51b815260040161030290611a90565b33610b9e81600087610b8f88611097565b610b9888611097565b87610f2d565b6000848152602081815260408083206001600160a01b038916845290915281208054859290610bce908490611b19565b909155505060408051858152602081018590526001600160a01b0380881692600092918516917fc3d58168c5ae7397731d063d5bbf3d657854427343f4c083240f7aacaa2d0f62910160405180910390a46104c5816000878787876110e2565b816001600160a01b0316836001600160a01b03161415610ca25760405162461bcd60e51b815260206004820152602960248201527f455243313135353a2073657474696e6720617070726f76616c20737461747573604482015268103337b91039b2b63360b91b6064820152608401610302565b6001600160a01b03838116600081815260016020908152604080832094871680845294825291829020805460ff191686151590811790915591519182527f17307eab39ab6107e8899845ad3d59bd9653f200f220920489ca2b5937696c31910160405180910390a3505050565b6001600160a01b038416610d355760405162461bcd60e51b815260040161030290611b5f565b33610d45818787610b8f88611097565b6000848152602081815260408083206001600160a01b038a16845290915290205483811015610d865760405162461bcd60e51b815260040161030290611ba4565b6000858152602081815260408083206001600160a01b038b8116855292528083208785039055908816825281208054869290610dc3908490611b19565b909155505060408051868152602081018690526001600160a01b03808916928a821692918616917fc3d58168c5ae7397731d063d5bbf3d657854427343f4c083240f7aacaa2d0f62910160405180910390a4610e238288888888886110e2565b50505050505050565b6001600160a01b038316610e525760405162461bcd60e51b815260040161030290611bee565b33610e8181856000610e6387611097565b610e6c87611097565b60405180602001604052806000815250610f2d565b6000838152602081815260408083206001600160a01b038816845290915290205482811015610ec25760405162461bcd60e51b815260040161030290611c31565b6000848152602081815260408083206001600160a01b03898116808652918452828520888703905582518981529384018890529092908616917fc3d58168c5ae7397731d063d5bbf3d657854427343f4c083240f7aacaa2d0f62910160405180910390a45050505050565b6109c286868686868661119d565b6001600160a01b0384163b156109c25760405163bc197c8160e01b81526001600160a01b0385169063bc197c8190610f7f9089908990889088908890600401611c75565b6020604051808303816000875af1925050508015610fba575060408051601f3d908101601f19168201909252610fb791810190611cd3565b60015b61106757610fc6611cf0565b806308c379a014156110005750610fdb611d0c565b80610fe65750611002565b8060405162461bcd60e51b8152600401610302919061151a565b505b60405162461bcd60e51b815260206004820152603460248201527f455243313135353a207472616e7366657220746f206e6f6e20455243313135356044820152732932b1b2b4bb32b91034b6b83632b6b2b73a32b960611b6064820152608401610302565b6001600160e01b0319811663bc197c8160e01b14610e235760405162461bcd60e51b815260040161030290611d96565b604080516001808252818301909252606091600091906020808301908036833701905050905082816000815181106110d1576110d1611a49565b602090810291909101015292915050565b6001600160a01b0384163b156109c25760405163f23a6e6160e01b81526001600160a01b0385169063f23a6e61906111269089908990889088908890600401611dde565b6020604051808303816000875af1925050508015611161575060408051601f3d908101601f1916820190925261115e91810190611cd3565b60015b61116d57610fc6611cf0565b6001600160e01b0319811663f23a6e6160e01b14610e235760405162461bcd60e51b815260040161030290611d96565b6001600160a01b0385166112245760005b8351811015611222578281815181106111c9576111c9611a49565b6020026020010151600360008684815181106111e7576111e7611a49565b60200260200101518152602001908152602001600020600082825461120c9190611b19565b9091555061121b905081611a75565b90506111ae565b505b6001600160a01b0384166109c25760005b8351811015610e235782818151811061125057611250611a49565b60200260200101516003600086848151811061126e5761126e611a49565b6020026020010151815260200190815260200160002060008282546112939190611e23565b909155506112a2905081611a75565b9050611235565b8280546112b590611a0e565b90600052602060002090601f0160209004810192826112d7576000855561131d565b82601f106112f057805160ff191683800117855561131d565b8280016001018555821561131d579182015b8281111561131d578251825591602001919060010190611302565b5061132992915061132d565b5090565b5b80821115611329576000815560010161132e565b80356001600160a01b038116811461135957600080fd5b919050565b6000806040838503121561137157600080fd5b61137a83611342565b946020939093013593505050565b6001600160e01b03198116811461038c57600080fd5b6000602082840312156113b057600080fd5b81356113bb81611388565b9392505050565b634e487b7160e01b600052604160045260246000fd5b601f8201601f1916810167ffffffffffffffff811182821017156113fe576113fe6113c2565b6040525050565b600067ffffffffffffffff83111561141f5761141f6113c2565b604051611436601f8501601f1916602001826113d8565b80915083815284848401111561144b57600080fd5b83836020830137600060208583010152509392505050565b60006020828403121561147557600080fd5b813567ffffffffffffffff81111561148c57600080fd5b8201601f8101841361149d57600080fd5b6114ac84823560208401611405565b949350505050565b6000602082840312156114c657600080fd5b5035919050565b6000815180845260005b818110156114f3576020818501810151868301820152016114d7565b81811115611505576000602083870101525b50601f01601f19169290920160200192915050565b6020815260006113bb60208301846114cd565b600067ffffffffffffffff821115611547576115476113c2565b5060051b60200190565b600082601f83011261156257600080fd5b8135602061156f8261152d565b60405161157c82826113d8565b83815260059390931b850182019282810191508684111561159c57600080fd5b8286015b848110156115b757803583529183019183016115a0565b509695505050505050565b600082601f8301126115d357600080fd5b6113bb83833560208501611405565b600080600080608085870312156115f857600080fd5b61160185611342565b9350602085013567ffffffffffffffff8082111561161e57600080fd5b61162a88838901611551565b9450604087013591508082111561164057600080fd5b61164c88838901611551565b9350606087013591508082111561166257600080fd5b5061166f878288016115c2565b91505092959194509250565b600080600080600060a0868803121561169357600080fd5b61169c86611342565b94506116aa60208701611342565b9350604086013567ffffffffffffffff808211156116c757600080fd5b6116d389838a01611551565b945060608801359150808211156116e957600080fd5b6116f589838a01611551565b9350608088013591508082111561170b57600080fd5b50611718888289016115c2565b9150509295509295909350565b6000806040838503121561173857600080fd5b823567ffffffffffffffff8082111561175057600080fd5b818501915085601f83011261176457600080fd5b813560206117718261152d565b60405161177e82826113d8565b83815260059390931b850182019282810191508984111561179e57600080fd5b948201945b838610156117c3576117b486611342565b825294820194908201906117a3565b965050860135925050808211156117d957600080fd5b506117e685828601611551565b9150509250929050565b600081518084526020808501945080840160005b8381101561182057815187529582019590820190600101611804565b509495945050505050565b6020815260006113bb60208301846117f0565b60008060006060848603121561185357600080fd5b61185c84611342565b9250602084013567ffffffffffffffff8082111561187957600080fd5b61188587838801611551565b9350604086013591508082111561189b57600080fd5b506118a886828701611551565b9150509250925092565b600080600080608085870312156118c857600080fd5b6118d185611342565b93506020850135925060408501359150606085013567ffffffffffffffff8111156118fb57600080fd5b61166f878288016115c2565b6000806040838503121561191a57600080fd5b61192383611342565b91506020830135801515811461193857600080fd5b809150509250929050565b6000806040838503121561195657600080fd5b61195f83611342565b915061196d60208401611342565b90509250929050565b600080600080600060a0868803121561198e57600080fd5b61199786611342565b94506119a560208701611342565b93506040860135925060608601359150608086013567ffffffffffffffff8111156119cf57600080fd5b611718888289016115c2565b6000806000606084860312156119f057600080fd5b6119f984611342565b95602085013595506040909401359392505050565b600181811c90821680611a2257607f821691505b60208210811415611a4357634e487b7160e01b600052602260045260246000fd5b50919050565b634e487b7160e01b600052603260045260246000fd5b634e487b7160e01b600052601160045260246000fd5b6000600019821415611a8957611a89611a5f565b5060010190565b60208082526021908201527f455243313135353a206d696e7420746f20746865207a65726f206164647265736040820152607360f81b606082015260800190565b60208082526028908201527f455243313135353a2069647320616e6420616d6f756e7473206c656e677468206040820152670dad2e6dac2e8c6d60c31b606082015260800190565b60008219821115611b2c57611b2c611a5f565b500190565b604081526000611b4460408301856117f0565b8281036020840152611b5681856117f0565b95945050505050565b60208082526025908201527f455243313135353a207472616e7366657220746f20746865207a65726f206164604082015264647265737360d81b606082015260800190565b6020808252602a908201527f455243313135353a20696e73756666696369656e742062616c616e636520666f60408201526939103a3930b739b332b960b11b606082015260800190565b60208082526023908201527f455243313135353a206275726e2066726f6d20746865207a65726f206164647260408201526265737360e81b606082015260800190565b60208082526024908201527f455243313135353a206275726e20616d6f756e7420657863656564732062616c604082015263616e636560e01b606082015260800190565b6001600160a01b0386811682528516602082015260a060408201819052600090611ca1908301866117f0565b8281036060840152611cb381866117f0565b90508281036080840152611cc781856114cd565b98975050505050505050565b600060208284031215611ce557600080fd5b81516113bb81611388565b600060033d1115611d095760046000803e5060005160e01c5b90565b600060443d1015611d1a5790565b6040516003193d81016004833e81513d67ffffffffffffffff8160248401118184111715611d4a57505050505090565b8285019150815181811115611d625750505050505090565b843d8701016020828501011115611d7c5750505050505090565b611d8b602082860101876113d8565b509095945050505050565b60208082526028908201527f455243313135353a204552433131353552656365697665722072656a656374656040820152676420746f6b656e7360c01b606082015260800190565b6001600160a01b03868116825285166020820152604081018490526060810183905260a060808201819052600090611e18908301846114cd565b979650505050505050565b600082821015611e3557611e35611a5f565b50039056fea264697066735822122073f72f0adce4ce3707ae9b58568fadc1dc94fb54fd369d4d395af1f8d461284664736f6c634300080a0033",
    "sourcePath": "d:/Github/new_token/contracts/contracts/mocks/ERC1155SupplyMock.sol",
    "compiler": {
        "name": "solc",
        "version": "0.8.10+commit.fc410830"
    },
    "functionHashes": {
        "balanceOf(address,uint256)": "00fdd58e",
        "balanceOfBatch(address[],uint256[])": "4e1273f4",
        "burn(address,uint256,uint256)": "f5298aca",
        "burnBatch(address,uint256[],uint256[])": "6b20c454",
        "exists(uint256)": "4f558e79",
        "isApprovedForAll(address,address)": "e985e9c5",
        "mint(address,uint256,uint256,bytes)": "731133e9",
        "mintBatch(address,uint256[],uint256[],bytes)": "1f7fdffa",
        "safeBatchTransferFrom(address,address,uint256[],uint256[],bytes)": "2eb2c2d6",
        "safeTransferFrom(address,address,uint256,uint256,bytes)": "f242432a",
        "setApprovalForAll(address,bool)": "a22cb465",
        "setURI(string)": "02fe5305",
        "supportsInterface(bytes4)": "01ffc9a7",
        "totalSupply(uint256)": "bd85b039",
        "uri(uint256)": "0e89341c"
    },
    "gasEstimates": {
        "creation": {
            "codeDepositCost": "1558400",
            "executionCost": "infinite",
            "totalCost": "infinite"
        },
        "external": {
            "balanceOf(address,uint256)": "2695",
            "balanceOfBatch(address[],uint256[])": "infinite",
            "burn(address,uint256,uint256)": "infinite",
            "burnBatch(address,uint256[],uint256[])": "infinite",
            "exists(uint256)": "2473",
            "isApprovedForAll(address,address)": "infinite",
            "mint(address,uint256,uint256,bytes)": "infinite",
            "mintBatch(address,uint256[],uint256[],bytes)": "infinite",
            "safeBatchTransferFrom(address,address,uint256[],uint256[],bytes)": "infinite",
            "safeTransferFrom(address,address,uint256,uint256,bytes)": "infinite",
            "setApprovalForAll(address,bool)": "26775",
            "setURI(string)": "infinite",
            "supportsInterface(bytes4)": "567",
            "totalSupply(uint256)": "2449",
            "uri(uint256)": "infinite"
        },
        "internal": {
            "_beforeTokenTransfer(address,address,address,uint256[] memory,uint256[] memory,bytes memory)": "infinite"
        }
    }
}