{
    "contractName": "ERC1155PausableMock",
    "abi": [
        {
            "inputs": [
                {
                    "internalType": "string",
                    "name": "uri",
                    "type": "string"
                }
            ],
            "stateMutability": "nonpayable",
            "type": "constructor"
        },
        {
            "anonymous": false,
            "inputs": [
                {
                    "indexed": true,
                    "internalType": "address",
                    "name": "account",
                    "type": "address"
                },
                {
                    "indexed": true,
                    "internalType": "address",
                    "name": "operator",
                    "type": "address"
                },
                {
                    "indexed": false,
                    "internalType": "bool",
                    "name": "approved",
                    "type": "bool"
                }
            ],
            "name": "ApprovalForAll",
            "type": "event"
        },
        {
            "anonymous": false,
            "inputs": [
                {
                    "indexed": false,
                    "internalType": "address",
                    "name": "account",
                    "type": "address"
                }
            ],
            "name": "Paused",
            "type": "event"
        },
        {
            "anonymous": false,
            "inputs": [
                {
                    "indexed": true,
                    "internalType": "address",
                    "name": "operator",
                    "type": "address"
                },
                {
                    "indexed": true,
                    "internalType": "address",
                    "name": "from",
                    "type": "address"
                },
                {
                    "indexed": true,
                    "internalType": "address",
                    "name": "to",
                    "type": "address"
                },
                {
                    "indexed": false,
                    "internalType": "uint256[]",
                    "name": "ids",
                    "type": "uint256[]"
                },
                {
                    "indexed": false,
                    "internalType": "uint256[]",
                    "name": "values",
                    "type": "uint256[]"
                }
            ],
            "name": "TransferBatch",
            "type": "event"
        },
        {
            "anonymous": false,
            "inputs": [
                {
                    "indexed": true,
                    "internalType": "address",
                    "name": "operator",
                    "type": "address"
                },
                {
                    "indexed": true,
                    "internalType": "address",
                    "name": "from",
                    "type": "address"
                },
                {
                    "indexed": true,
                    "internalType": "address",
                    "name": "to",
                    "type": "address"
                },
                {
                    "indexed": false,
                    "internalType": "uint256",
                    "name": "id",
                    "type": "uint256"
                },
                {
                    "indexed": false,
                    "internalType": "uint256",
                    "name": "value",
                    "type": "uint256"
                }
            ],
            "name": "TransferSingle",
            "type": "event"
        },
        {
            "anonymous": false,
            "inputs": [
                {
                    "indexed": false,
                    "internalType": "string",
                    "name": "value",
                    "type": "string"
                },
                {
                    "indexed": true,
                    "internalType": "uint256",
                    "name": "id",
                    "type": "uint256"
                }
            ],
            "name": "URI",
            "type": "event"
        },
        {
            "anonymous": false,
            "inputs": [
                {
                    "indexed": false,
                    "internalType": "address",
                    "name": "account",
                    "type": "address"
                }
            ],
            "name": "Unpaused",
            "type": "event"
        },
        {
            "inputs": [
                {
                    "internalType": "address",
                    "name": "account",
                    "type": "address"
                },
                {
                    "internalType": "uint256",
                    "name": "id",
                    "type": "uint256"
                }
            ],
            "name": "balanceOf",
            "outputs": [
                {
                    "internalType": "uint256",
                    "name": "",
                    "type": "uint256"
                }
            ],
            "stateMutability": "view",
            "type": "function"
        },
        {
            "inputs": [
                {
                    "internalType": "address[]",
                    "name": "accounts",
                    "type": "address[]"
                },
                {
                    "internalType": "uint256[]",
                    "name": "ids",
                    "type": "uint256[]"
                }
            ],
            "name": "balanceOfBatch",
            "outputs": [
                {
                    "internalType": "uint256[]",
                    "name": "",
                    "type": "uint256[]"
                }
            ],
            "stateMutability": "view",
            "type": "function"
        },
        {
            "inputs": [
                {
                    "internalType": "address",
                    "name": "owner",
                    "type": "address"
                },
                {
                    "internalType": "uint256",
                    "name": "id",
                    "type": "uint256"
                },
                {
                    "internalType": "uint256",
                    "name": "value",
                    "type": "uint256"
                }
            ],
            "name": "burn",
            "outputs": [],
            "stateMutability": "nonpayable",
            "type": "function"
        },
        {
            "inputs": [
                {
                    "internalType": "address",
                    "name": "owner",
                    "type": "address"
                },
                {
                    "internalType": "uint256[]",
                    "name": "ids",
                    "type": "uint256[]"
                },
                {
                    "internalType": "uint256[]",
                    "name": "values",
                    "type": "uint256[]"
                }
            ],
            "name": "burnBatch",
            "outputs": [],
            "stateMutability": "nonpayable",
            "type": "function"
        },
        {
            "inputs": [
                {
                    "internalType": "address",
                    "name": "account",
                    "type": "address"
                },
                {
                    "internalType": "address",
                    "name": "operator",
                    "type": "address"
                }
            ],
            "name": "isApprovedForAll",
            "outputs": [
                {
                    "internalType": "bool",
                    "name": "",
                    "type": "bool"
                }
            ],
            "stateMutability": "view",
            "type": "function"
        },
        {
            "inputs": [
                {
                    "internalType": "address",
                    "name": "to",
                    "type": "address"
                },
                {
                    "internalType": "uint256",
                    "name": "id",
                    "type": "uint256"
                },
                {
                    "internalType": "uint256",
                    "name": "value",
                    "type": "uint256"
                },
                {
                    "internalType": "bytes",
                    "name": "data",
                    "type": "bytes"
                }
            ],
            "name": "mint",
            "outputs": [],
            "stateMutability": "nonpayable",
            "type": "function"
        },
        {
            "inputs": [
                {
                    "internalType": "address",
                    "name": "to",
                    "type": "address"
                },
                {
                    "internalType": "uint256[]",
                    "name": "ids",
                    "type": "uint256[]"
                },
                {
                    "internalType": "uint256[]",
                    "name": "values",
                    "type": "uint256[]"
                },
                {
                    "internalType": "bytes",
                    "name": "data",
                    "type": "bytes"
                }
            ],
            "name": "mintBatch",
            "outputs": [],
            "stateMutability": "nonpayable",
            "type": "function"
        },
        {
            "inputs": [],
            "name": "pause",
            "outputs": [],
            "stateMutability": "nonpayable",
            "type": "function"
        },
        {
            "inputs": [],
            "name": "paused",
            "outputs": [
                {
                    "internalType": "bool",
                    "name": "",
                    "type": "bool"
                }
            ],
            "stateMutability": "view",
            "type": "function"
        },
        {
            "inputs": [
                {
                    "internalType": "address",
                    "name": "from",
                    "type": "address"
                },
                {
                    "internalType": "address",
                    "name": "to",
                    "type": "address"
                },
                {
                    "internalType": "uint256[]",
                    "name": "ids",
                    "type": "uint256[]"
                },
                {
                    "internalType": "uint256[]",
                    "name": "amounts",
                    "type": "uint256[]"
                },
                {
                    "internalType": "bytes",
                    "name": "data",
                    "type": "bytes"
                }
            ],
            "name": "safeBatchTransferFrom",
            "outputs": [],
            "stateMutability": "nonpayable",
            "type": "function"
        },
        {
            "inputs": [
                {
                    "internalType": "address",
                    "name": "from",
                    "type": "address"
                },
                {
                    "internalType": "address",
                    "name": "to",
                    "type": "address"
                },
                {
                    "internalType": "uint256",
                    "name": "id",
                    "type": "uint256"
                },
                {
                    "internalType": "uint256",
                    "name": "amount",
                    "type": "uint256"
                },
                {
                    "internalType": "bytes",
                    "name": "data",
                    "type": "bytes"
                }
            ],
            "name": "safeTransferFrom",
            "outputs": [],
            "stateMutability": "nonpayable",
            "type": "function"
        },
        {
            "inputs": [
                {
                    "internalType": "address",
                    "name": "operator",
                    "type": "address"
                },
                {
                    "internalType": "bool",
                    "name": "approved",
                    "type": "bool"
                }
            ],
            "name": "setApprovalForAll",
            "outputs": [],
            "stateMutability": "nonpayable",
            "type": "function"
        },
        {
            "inputs": [
                {
                    "internalType": "string",
                    "name": "newuri",
                    "type": "string"
                }
            ],
            "name": "setURI",
            "outputs": [],
            "stateMutability": "nonpayable",
            "type": "function"
        },
        {
            "inputs": [
                {
                    "internalType": "bytes4",
                    "name": "interfaceId",
                    "type": "bytes4"
                }
            ],
            "name": "supportsInterface",
            "outputs": [
                {
                    "internalType": "bool",
                    "name": "",
                    "type": "bool"
                }
            ],
            "stateMutability": "view",
            "type": "function"
        },
        {
            "inputs": [],
            "name": "unpause",
            "outputs": [],
            "stateMutability": "nonpayable",
            "type": "function"
        },
        {
            "inputs": [
                {
                    "internalType": "uint256",
                    "name": "",
                    "type": "uint256"
                }
            ],
            "name": "uri",
            "outputs": [
                {
                    "internalType": "string",
                    "name": "",
                    "type": "string"
                }
            ],
            "stateMutability": "view",
            "type": "function"
        }
    ],
    "bytecode": "60806040523480156200001157600080fd5b506040516200210b3803806200210b833981016040819052620000349162000129565b8080620000418162000054565b50506003805460ff191690555062000242565b8051620000699060029060208401906200006d565b5050565b8280546200007b9062000205565b90600052602060002090601f0160209004810192826200009f5760008555620000ea565b82601f10620000ba57805160ff1916838001178555620000ea565b82800160010185558215620000ea579182015b82811115620000ea578251825591602001919060010190620000cd565b50620000f8929150620000fc565b5090565b5b80821115620000f85760008155600101620000fd565b634e487b7160e01b600052604160045260246000fd5b600060208083850312156200013d57600080fd5b82516001600160401b03808211156200015557600080fd5b818501915085601f8301126200016a57600080fd5b8151818111156200017f576200017f62000113565b604051601f8201601f19908116603f01168101908382118183101715620001aa57620001aa62000113565b816040528281528886848701011115620001c357600080fd5b600093505b82841015620001e75784840186015181850187015292850192620001c8565b82841115620001f95760008684830101525b98975050505050505050565b600181811c908216806200021a57607f821691505b602082108114156200023c57634e487b7160e01b600052602260045260246000fd5b50919050565b611eb980620002526000396000f3fe608060405234801561001057600080fd5b50600436106100ff5760003560e01c80635c975abb11610097578063a22cb46511610066578063a22cb46514610209578063e985e9c51461021c578063f242432a14610258578063f5298aca1461026b57600080fd5b80635c975abb146101d05780636b20c454146101db578063731133e9146101ee5780638456cb591461020157600080fd5b80631f7fdffa116100d35780631f7fdffa146101825780632eb2c2d6146101955780633f4ba83a146101a85780634e1273f4146101b057600080fd5b8062fdd58e1461010457806301ffc9a71461012a57806302fe53051461014d5780630e89341c14610162575b600080fd5b6101176101123660046113be565b61027e565b6040519081526020015b60405180910390f35b61013d6101383660046113fe565b610315565b6040519015158152602001610121565b61016061015b3660046114c3565b610367565b005b610175610170366004611514565b610373565b604051610121919061157a565b610160610190366004611642565b610407565b6101606101a33660046116db565b610419565b6101606104b0565b6101c36101be366004611785565b6104ba565b604051610121919061188b565b60035460ff1661013d565b6101606101e936600461189e565b6105e4565b6101606101fc366004611912565b6105f4565b610160610600565b610160610217366004611967565b610608565b61013d61022a3660046119a3565b6001600160a01b03918216600090815260016020908152604080832093909416825291909152205460ff1690565b6101606102663660046119d6565b610617565b610160610279366004611a3b565b61069e565b60006001600160a01b0383166102ef5760405162461bcd60e51b815260206004820152602b60248201527f455243313135353a2062616c616e636520717565727920666f7220746865207a60448201526a65726f206164647265737360a81b60648201526084015b60405180910390fd5b506000908152602081815260408083206001600160a01b03949094168352929052205490565b60006001600160e01b03198216636cdb3d1360e11b148061034657506001600160e01b031982166303a24d0760e21b145b8061036157506301ffc9a760e01b6001600160e01b03198316145b92915050565b610370816106a9565b50565b60606002805461038290611a6e565b80601f01602080910402602001604051908101604052809291908181526020018280546103ae90611a6e565b80156103fb5780601f106103d0576101008083540402835291602001916103fb565b820191906000526020600020905b8154815290600101906020018083116103de57829003601f168201915b50505050509050919050565b610413848484846106bc565b50505050565b6001600160a01b0385163314806104355750610435853361022a565b61049c5760405162461bcd60e51b815260206004820152603260248201527f455243313135353a207472616e736665722063616c6c6572206973206e6f74206044820152711bdddb995c881b9bdc88185c1c1c9bdd995960721b60648201526084016102e6565b6104a98585858585610816565b5050505050565b6104b86109c0565b565b6060815183511461051f5760405162461bcd60e51b815260206004820152602960248201527f455243313135353a206163636f756e747320616e6420696473206c656e677468604482015268040dad2e6dac2e8c6d60bb1b60648201526084016102e6565b6000835167ffffffffffffffff81111561053b5761053b611422565b604051908082528060200260200182016040528015610564578160200160208202803683370190505b50905060005b84518110156105dc576105af85828151811061058857610588611aa9565b60200260200101518583815181106105a2576105a2611aa9565b602002602001015161027e565b8282815181106105c1576105c1611aa9565b60209081029190910101526105d581611ad5565b905061056a565b509392505050565b6105ef838383610a53565b505050565b61041384848484610be1565b6104b8610cb7565b610613338383610d32565b5050565b6001600160a01b0385163314806106335750610633853361022a565b6106915760405162461bcd60e51b815260206004820152602960248201527f455243313135353a2063616c6c6572206973206e6f74206f776e6572206e6f7260448201526808185c1c1c9bdd995960ba1b60648201526084016102e6565b6104a98585858585610e13565b6105ef838383610f30565b8051610613906002906020840190611309565b6001600160a01b0384166106e25760405162461bcd60e51b81526004016102e690611af0565b81518351146107035760405162461bcd60e51b81526004016102e690611b31565b3361071381600087878787611031565b60005b84518110156107ae5783818151811061073157610731611aa9565b602002602001015160008087848151811061074e5761074e611aa9565b602002602001015181526020019081526020016000206000886001600160a01b03166001600160a01b0316815260200190815260200160002060008282546107969190611b79565b909155508190506107a681611ad5565b915050610716565b50846001600160a01b031660006001600160a01b0316826001600160a01b03167f4a39dc06d4c0dbc64b70af90fd698a233a518aa5d07e595d983b8c0526c8f7fb87876040516107ff929190611b91565b60405180910390a46104a98160008787878761103f565b81518351146108375760405162461bcd60e51b81526004016102e690611b31565b6001600160a01b03841661085d5760405162461bcd60e51b81526004016102e690611bbf565b3361086c818787878787611031565b60005b845181101561095257600085828151811061088c5761088c611aa9565b6020026020010151905060008583815181106108aa576108aa611aa9565b602090810291909101810151600084815280835260408082206001600160a01b038e1683529093529190912054909150818110156108fa5760405162461bcd60e51b81526004016102e690611c04565b6000838152602081815260408083206001600160a01b038e8116855292528083208585039055908b16825281208054849290610937908490611b79565b925050819055505050508061094b90611ad5565b905061086f565b50846001600160a01b0316866001600160a01b0316826001600160a01b03167f4a39dc06d4c0dbc64b70af90fd698a233a518aa5d07e595d983b8c0526c8f7fb87876040516109a2929190611b91565b60405180910390a46109b881878787878761103f565b505050505050565b60035460ff16610a095760405162461bcd60e51b815260206004820152601460248201527314185d5cd8589b194e881b9bdd081c185d5cd95960621b60448201526064016102e6565b6003805460ff191690557f5db9ee0a495bf2e6ff9c91a7834c1ba4fdd244a5e8aa4e537bd38aeae4b073aa335b6040516001600160a01b03909116815260200160405180910390a1565b6001600160a01b038316610a795760405162461bcd60e51b81526004016102e690611c4e565b8051825114610a9a5760405162461bcd60e51b81526004016102e690611b31565b6000339050610abd81856000868660405180602001604052806000815250611031565b60005b8351811015610b82576000848281518110610add57610add611aa9565b602002602001015190506000848381518110610afb57610afb611aa9565b602090810291909101810151600084815280835260408082206001600160a01b038c168352909352919091205490915081811015610b4b5760405162461bcd60e51b81526004016102e690611c91565b6000928352602083815260408085206001600160a01b038b1686529091529092209103905580610b7a81611ad5565b915050610ac0565b5060006001600160a01b0316846001600160a01b0316826001600160a01b03167f4a39dc06d4c0dbc64b70af90fd698a233a518aa5d07e595d983b8c0526c8f7fb8686604051610bd3929190611b91565b60405180910390a450505050565b6001600160a01b038416610c075760405162461bcd60e51b81526004016102e690611af0565b33610c2781600087610c188861119b565b610c218861119b565b87611031565b6000848152602081815260408083206001600160a01b038916845290915281208054859290610c57908490611b79565b909155505060408051858152602081018590526001600160a01b0380881692600092918516917fc3d58168c5ae7397731d063d5bbf3d657854427343f4c083240f7aacaa2d0f62910160405180910390a46104a9816000878787876111e6565b60035460ff1615610cfd5760405162461bcd60e51b815260206004820152601060248201526f14185d5cd8589b194e881c185d5cd95960821b60448201526064016102e6565b6003805460ff191660011790557f62e78cea01bee320cd4e420270b5ea74000d11b0c9f74754ebdbfc544b05a258610a363390565b816001600160a01b0316836001600160a01b03161415610da65760405162461bcd60e51b815260206004820152602960248201527f455243313135353a2073657474696e6720617070726f76616c20737461747573604482015268103337b91039b2b63360b91b60648201526084016102e6565b6001600160a01b03838116600081815260016020908152604080832094871680845294825291829020805460ff191686151590811790915591519182527f17307eab39ab6107e8899845ad3d59bd9653f200f220920489ca2b5937696c31910160405180910390a3505050565b6001600160a01b038416610e395760405162461bcd60e51b81526004016102e690611bbf565b33610e49818787610c188861119b565b6000848152602081815260408083206001600160a01b038a16845290915290205483811015610e8a5760405162461bcd60e51b81526004016102e690611c04565b6000858152602081815260408083206001600160a01b038b8116855292528083208785039055908816825281208054869290610ec7908490611b79565b909155505060408051868152602081018690526001600160a01b03808916928a821692918616917fc3d58168c5ae7397731d063d5bbf3d657854427343f4c083240f7aacaa2d0f62910160405180910390a4610f278288888888886111e6565b50505050505050565b6001600160a01b038316610f565760405162461bcd60e51b81526004016102e690611c4e565b33610f8581856000610f678761119b565b610f708761119b565b60405180602001604052806000815250611031565b6000838152602081815260408083206001600160a01b038816845290915290205482811015610fc65760405162461bcd60e51b81526004016102e690611c91565b6000848152602081815260408083206001600160a01b03898116808652918452828520888703905582518981529384018890529092908616917fc3d58168c5ae7397731d063d5bbf3d657854427343f4c083240f7aacaa2d0f62910160405180910390a45050505050565b6109b88686868686866112a1565b6001600160a01b0384163b156109b85760405163bc197c8160e01b81526001600160a01b0385169063bc197c81906110839089908990889088908890600401611cd5565b6020604051808303816000875af19250505080156110be575060408051601f3d908101601f191682019092526110bb91810190611d33565b60015b61116b576110ca611d50565b806308c379a0141561110457506110df611d6c565b806110ea5750611106565b8060405162461bcd60e51b81526004016102e6919061157a565b505b60405162461bcd60e51b815260206004820152603460248201527f455243313135353a207472616e7366657220746f206e6f6e20455243313135356044820152732932b1b2b4bb32b91034b6b83632b6b2b73a32b960611b60648201526084016102e6565b6001600160e01b0319811663bc197c8160e01b14610f275760405162461bcd60e51b81526004016102e690611df6565b604080516001808252818301909252606091600091906020808301908036833701905050905082816000815181106111d5576111d5611aa9565b602090810291909101015292915050565b6001600160a01b0384163b156109b85760405163f23a6e6160e01b81526001600160a01b0385169063f23a6e619061122a9089908990889088908890600401611e3e565b6020604051808303816000875af1925050508015611265575060408051601f3d908101601f1916820190925261126291810190611d33565b60015b611271576110ca611d50565b6001600160e01b0319811663f23a6e6160e01b14610f275760405162461bcd60e51b81526004016102e690611df6565b60035460ff16156109b85760405162461bcd60e51b815260206004820152602c60248201527f455243313135355061757361626c653a20746f6b656e207472616e736665722060448201526b1dda1a5b19481c185d5cd95960a21b60648201526084016102e6565b82805461131590611a6e565b90600052602060002090601f016020900481019282611337576000855561137d565b82601f1061135057805160ff191683800117855561137d565b8280016001018555821561137d579182015b8281111561137d578251825591602001919060010190611362565b5061138992915061138d565b5090565b5b80821115611389576000815560010161138e565b80356001600160a01b03811681146113b957600080fd5b919050565b600080604083850312156113d157600080fd5b6113da836113a2565b946020939093013593505050565b6001600160e01b03198116811461037057600080fd5b60006020828403121561141057600080fd5b813561141b816113e8565b9392505050565b634e487b7160e01b600052604160045260246000fd5b601f8201601f1916810167ffffffffffffffff8111828210171561145e5761145e611422565b6040525050565b600067ffffffffffffffff83111561147f5761147f611422565b604051611496601f8501601f191660200182611438565b8091508381528484840111156114ab57600080fd5b83836020830137600060208583010152509392505050565b6000602082840312156114d557600080fd5b813567ffffffffffffffff8111156114ec57600080fd5b8201601f810184136114fd57600080fd5b61150c84823560208401611465565b949350505050565b60006020828403121561152657600080fd5b5035919050565b6000815180845260005b8181101561155357602081850181015186830182015201611537565b81811115611565576000602083870101525b50601f01601f19169290920160200192915050565b60208152600061141b602083018461152d565b600067ffffffffffffffff8211156115a7576115a7611422565b5060051b60200190565b600082601f8301126115c257600080fd5b813560206115cf8261158d565b6040516115dc8282611438565b83815260059390931b85018201928281019150868411156115fc57600080fd5b8286015b848110156116175780358352918301918301611600565b509695505050505050565b600082601f83011261163357600080fd5b61141b83833560208501611465565b6000806000806080858703121561165857600080fd5b611661856113a2565b9350602085013567ffffffffffffffff8082111561167e57600080fd5b61168a888389016115b1565b945060408701359150808211156116a057600080fd5b6116ac888389016115b1565b935060608701359150808211156116c257600080fd5b506116cf87828801611622565b91505092959194509250565b600080600080600060a086880312156116f357600080fd5b6116fc866113a2565b945061170a602087016113a2565b9350604086013567ffffffffffffffff8082111561172757600080fd5b61173389838a016115b1565b9450606088013591508082111561174957600080fd5b61175589838a016115b1565b9350608088013591508082111561176b57600080fd5b5061177888828901611622565b9150509295509295909350565b6000806040838503121561179857600080fd5b823567ffffffffffffffff808211156117b057600080fd5b818501915085601f8301126117c457600080fd5b813560206117d18261158d565b6040516117de8282611438565b83815260059390931b85018201928281019150898411156117fe57600080fd5b948201945b8386101561182357611814866113a2565b82529482019490820190611803565b9650508601359250508082111561183957600080fd5b50611846858286016115b1565b9150509250929050565b600081518084526020808501945080840160005b8381101561188057815187529582019590820190600101611864565b509495945050505050565b60208152600061141b6020830184611850565b6000806000606084860312156118b357600080fd5b6118bc846113a2565b9250602084013567ffffffffffffffff808211156118d957600080fd5b6118e5878388016115b1565b935060408601359150808211156118fb57600080fd5b50611908868287016115b1565b9150509250925092565b6000806000806080858703121561192857600080fd5b611931856113a2565b93506020850135925060408501359150606085013567ffffffffffffffff81111561195b57600080fd5b6116cf87828801611622565b6000806040838503121561197a57600080fd5b611983836113a2565b91506020830135801515811461199857600080fd5b809150509250929050565b600080604083850312156119b657600080fd5b6119bf836113a2565b91506119cd602084016113a2565b90509250929050565b600080600080600060a086880312156119ee57600080fd5b6119f7866113a2565b9450611a05602087016113a2565b93506040860135925060608601359150608086013567ffffffffffffffff811115611a2f57600080fd5b61177888828901611622565b600080600060608486031215611a5057600080fd5b611a59846113a2565b95602085013595506040909401359392505050565b600181811c90821680611a8257607f821691505b60208210811415611aa357634e487b7160e01b600052602260045260246000fd5b50919050565b634e487b7160e01b600052603260045260246000fd5b634e487b7160e01b600052601160045260246000fd5b6000600019821415611ae957611ae9611abf565b5060010190565b60208082526021908201527f455243313135353a206d696e7420746f20746865207a65726f206164647265736040820152607360f81b606082015260800190565b60208082526028908201527f455243313135353a2069647320616e6420616d6f756e7473206c656e677468206040820152670dad2e6dac2e8c6d60c31b606082015260800190565b60008219821115611b8c57611b8c611abf565b500190565b604081526000611ba46040830185611850565b8281036020840152611bb68185611850565b95945050505050565b60208082526025908201527f455243313135353a207472616e7366657220746f20746865207a65726f206164604082015264647265737360d81b606082015260800190565b6020808252602a908201527f455243313135353a20696e73756666696369656e742062616c616e636520666f60408201526939103a3930b739b332b960b11b606082015260800190565b60208082526023908201527f455243313135353a206275726e2066726f6d20746865207a65726f206164647260408201526265737360e81b606082015260800190565b60208082526024908201527f455243313135353a206275726e20616d6f756e7420657863656564732062616c604082015263616e636560e01b606082015260800190565b6001600160a01b0386811682528516602082015260a060408201819052600090611d0190830186611850565b8281036060840152611d138186611850565b90508281036080840152611d27818561152d565b98975050505050505050565b600060208284031215611d4557600080fd5b815161141b816113e8565b600060033d1115611d695760046000803e5060005160e01c5b90565b600060443d1015611d7a5790565b6040516003193d81016004833e81513d67ffffffffffffffff8160248401118184111715611daa57505050505090565b8285019150815181811115611dc25750505050505090565b843d8701016020828501011115611ddc5750505050505090565b611deb60208286010187611438565b509095945050505050565b60208082526028908201527f455243313135353a204552433131353552656365697665722072656a656374656040820152676420746f6b656e7360c01b606082015260800190565b6001600160a01b03868116825285166020820152604081018490526060810183905260a060808201819052600090611e789083018461152d565b97965050505050505056fea264697066735822122019375544cb20e18b25d12d307cc59407f497df720273d58650200f809668b81d64736f6c634300080a0033",
    "sourcePath": "d:/Github/new_token/contracts/contracts/mocks/ERC1155PausableMock.sol",
    "compiler": {
        "name": "solc",
        "version": "0.8.10+commit.fc410830"
    },
    "functionHashes": {
        "balanceOf(address,uint256)": "00fdd58e",
        "balanceOfBatch(address[],uint256[])": "4e1273f4",
        "burn(address,uint256,uint256)": "f5298aca",
        "burnBatch(address,uint256[],uint256[])": "6b20c454",
        "isApprovedForAll(address,address)": "e985e9c5",
        "mint(address,uint256,uint256,bytes)": "731133e9",
        "mintBatch(address,uint256[],uint256[],bytes)": "1f7fdffa",
        "pause()": "8456cb59",
        "paused()": "5c975abb",
        "safeBatchTransferFrom(address,address,uint256[],uint256[],bytes)": "2eb2c2d6",
        "safeTransferFrom(address,address,uint256,uint256,bytes)": "f242432a",
        "setApprovalForAll(address,bool)": "a22cb465",
        "setURI(string)": "02fe5305",
        "supportsInterface(bytes4)": "01ffc9a7",
        "unpause()": "3f4ba83a",
        "uri(uint256)": "0e89341c"
    },
    "gasEstimates": {
        "creation": {
            "codeDepositCost": "1573000",
            "executionCost": "infinite",
            "totalCost": "infinite"
        },
        "external": {
            "balanceOf(address,uint256)": "2695",
            "balanceOfBatch(address[],uint256[])": "infinite",
            "burn(address,uint256,uint256)": "infinite",
            "burnBatch(address,uint256[],uint256[])": "infinite",
            "isApprovedForAll(address,address)": "infinite",
            "mint(address,uint256,uint256,bytes)": "infinite",
            "mintBatch(address,uint256[],uint256[],bytes)": "infinite",
            "pause()": "27699",
            "paused()": "2327",
            "safeBatchTransferFrom(address,address,uint256[],uint256[],bytes)": "infinite",
            "safeTransferFrom(address,address,uint256,uint256,bytes)": "infinite",
            "setApprovalForAll(address,bool)": "26708",
            "setURI(string)": "infinite",
            "supportsInterface(bytes4)": "567",
            "unpause()": "27654",
            "uri(uint256)": "infinite"
        },
        "internal": {
            "_beforeTokenTransfer(address,address,address,uint256[] memory,uint256[] memory,bytes memory)": "infinite"
        }
    }
}