{
    "contractName": "ERC1271WalletMock",
    "abi": [
        {
            "inputs": [
                {
                    "internalType": "address",
                    "name": "originalOwner",
                    "type": "address"
                }
            ],
            "stateMutability": "nonpayable",
            "type": "constructor"
        },
        {
            "anonymous": false,
            "inputs": [
                {
                    "indexed": true,
                    "internalType": "address",
                    "name": "previousOwner",
                    "type": "address"
                },
                {
                    "indexed": true,
                    "internalType": "address",
                    "name": "newOwner",
                    "type": "address"
                }
            ],
            "name": "OwnershipTransferred",
            "type": "event"
        },
        {
            "inputs": [
                {
                    "internalType": "bytes32",
                    "name": "hash",
                    "type": "bytes32"
                },
                {
                    "internalType": "bytes",
                    "name": "signature",
                    "type": "bytes"
                }
            ],
            "name": "isValidSignature",
            "outputs": [
                {
                    "internalType": "bytes4",
                    "name": "magicValue",
                    "type": "bytes4"
                }
            ],
            "stateMutability": "view",
            "type": "function"
        },
        {
            "inputs": [],
            "name": "owner",
            "outputs": [
                {
                    "internalType": "address",
                    "name": "",
                    "type": "address"
                }
            ],
            "stateMutability": "view",
            "type": "function"
        },
        {
            "inputs": [],
            "name": "renounceOwnership",
            "outputs": [],
            "stateMutability": "nonpayable",
            "type": "function"
        },
        {
            "inputs": [
                {
                    "internalType": "address",
                    "name": "newOwner",
                    "type": "address"
                }
            ],
            "name": "transferOwnership",
            "outputs": [],
            "stateMutability": "nonpayable",
            "type": "function"
        }
    ],
    "bytecode": "608060405234801561001057600080fd5b506040516108d33803806108d383398101604081905261002f91610167565b61003833610047565b61004181610097565b50610197565b600080546001600160a01b038381166001600160a01b0319831681178455604051919092169283917f8be0079c531659141344cd1fd0a4f28419497f9722a3daafe3b4186f6b6457e09190a35050565b6000546001600160a01b031633146100f65760405162461bcd60e51b815260206004820181905260248201527f4f776e61626c653a2063616c6c6572206973206e6f7420746865206f776e657260448201526064015b60405180910390fd5b6001600160a01b03811661015b5760405162461bcd60e51b815260206004820152602660248201527f4f776e61626c653a206e6577206f776e657220697320746865207a65726f206160448201526564647265737360d01b60648201526084016100ed565b61016481610047565b50565b60006020828403121561017957600080fd5b81516001600160a01b038116811461019057600080fd5b9392505050565b61072d806101a66000396000f3fe608060405234801561001057600080fd5b506004361061004c5760003560e01c80631626ba7e14610051578063715018a6146100825780638da5cb5b1461008c578063f2fde38b146100a7575b600080fd5b61006461005f3660046105fd565b6100ba565b6040516001600160e01b031990911681526020015b60405180910390f35b61008a6100f6565b005b6000546040516001600160a01b039091168152602001610079565b61008a6100b53660046106b8565b610161565b600080546001600160a01b03166100d1848461022c565b6001600160a01b0316146100e65760006100ef565b630b135d3f60e11b5b9392505050565b6000546001600160a01b031633146101555760405162461bcd60e51b815260206004820181905260248201527f4f776e61626c653a2063616c6c6572206973206e6f7420746865206f776e657260448201526064015b60405180910390fd5b61015f6000610250565b565b6000546001600160a01b031633146101bb5760405162461bcd60e51b815260206004820181905260248201527f4f776e61626c653a2063616c6c6572206973206e6f7420746865206f776e6572604482015260640161014c565b6001600160a01b0381166102205760405162461bcd60e51b815260206004820152602660248201527f4f776e61626c653a206e6577206f776e657220697320746865207a65726f206160448201526564647265737360d01b606482015260840161014c565b61022981610250565b50565b600080600061023b85856102a0565b9150915061024881610310565b509392505050565b600080546001600160a01b038381166001600160a01b0319831681178455604051919092169283917f8be0079c531659141344cd1fd0a4f28419497f9722a3daafe3b4186f6b6457e09190a35050565b6000808251604114156102d75760208301516040840151606085015160001a6102cb878285856104cb565b94509450505050610309565b82516040141561030157602083015160408401516102f68683836105b8565b935093505050610309565b506000905060025b9250929050565b6000816004811115610324576103246106e1565b141561032d5750565b6001816004811115610341576103416106e1565b141561038f5760405162461bcd60e51b815260206004820152601860248201527f45434453413a20696e76616c6964207369676e61747572650000000000000000604482015260640161014c565b60028160048111156103a3576103a36106e1565b14156103f15760405162461bcd60e51b815260206004820152601f60248201527f45434453413a20696e76616c6964207369676e6174757265206c656e67746800604482015260640161014c565b6003816004811115610405576104056106e1565b141561045e5760405162461bcd60e51b815260206004820152602260248201527f45434453413a20696e76616c6964207369676e6174757265202773272076616c604482015261756560f01b606482015260840161014c565b6004816004811115610472576104726106e1565b14156102295760405162461bcd60e51b815260206004820152602260248201527f45434453413a20696e76616c6964207369676e6174757265202776272076616c604482015261756560f01b606482015260840161014c565b6000807f7fffffffffffffffffffffffffffffff5d576e7357a4501ddfe92f46681b20a083111561050257506000905060036105af565b8460ff16601b1415801561051a57508460ff16601c14155b1561052b57506000905060046105af565b6040805160008082526020820180845289905260ff881692820192909252606081018690526080810185905260019060a0016020604051602081039080840390855afa15801561057f573d6000803e3d6000fd5b5050604051601f1901519150506001600160a01b0381166105a8576000600192509250506105af565b9150600090505b94509492505050565b6000806001600160ff1b03831660ff84901c601b016105d9878288856104cb565b935093505050935093915050565b634e487b7160e01b600052604160045260246000fd5b6000806040838503121561061057600080fd5b82359150602083013567ffffffffffffffff8082111561062f57600080fd5b818501915085601f83011261064357600080fd5b813581811115610655576106556105e7565b604051601f8201601f19908116603f0116810190838211818310171561067d5761067d6105e7565b8160405282815288602084870101111561069657600080fd5b8260208601602083013760006020848301015280955050505050509250929050565b6000602082840312156106ca57600080fd5b81356001600160a01b03811681146100ef57600080fd5b634e487b7160e01b600052602160045260246000fdfea26469706673582212207b5152c7bd4ff1cb2a9b6e41969c5ae88e9691fb1f522c637b735ec7475c1fd564736f6c634300080a0033",
    "sourcePath": "d:/Github/new_token/contracts/contracts/mocks/ERC1271WalletMock.sol",
    "compiler": {
        "name": "solc",
        "version": "0.8.10+commit.fc410830"
    },
    "functionHashes": {
        "isValidSignature(bytes32,bytes)": "1626ba7e",
        "owner()": "8da5cb5b",
        "renounceOwnership()": "715018a6",
        "transferOwnership(address)": "f2fde38b"
    },
    "gasEstimates": {
        "creation": {
            "codeDepositCost": "367400",
            "executionCost": "infinite",
            "totalCost": "infinite"
        },
        "external": {
            "isValidSignature(bytes32,bytes)": "infinite",
            "owner()": "2323",
            "renounceOwnership()": "28114",
            "transferOwnership(address)": "28318"
        }
    }
}