{
    "contractName": "ERC1820ImplementerMock",
    "abi": [
        {
            "inputs": [
                {
                    "internalType": "bytes32",
                    "name": "interfaceHash",
                    "type": "bytes32"
                },
                {
                    "internalType": "address",
                    "name": "account",
                    "type": "address"
                }
            ],
            "name": "canImplementInterfaceForAddress",
            "outputs": [
                {
                    "internalType": "bytes32",
                    "name": "",
                    "type": "bytes32"
                }
            ],
            "stateMutability": "view",
            "type": "function"
        },
        {
            "inputs": [
                {
                    "internalType": "bytes32",
                    "name": "interfaceHash",
                    "type": "bytes32"
                },
                {
                    "internalType": "address",
                    "name": "account",
                    "type": "address"
                }
            ],
            "name": "registerInterfaceForAddress",
            "outputs": [],
            "stateMutability": "nonpayable",
            "type": "function"
        }
    ],
    "bytecode": "608060405234801561001057600080fd5b50610169806100206000396000f3fe608060405234801561001057600080fd5b50600436106100365760003560e01c8063249cb3fa1461003b5780635536e45d14610060575b600080fd5b61004e6100493660046100f7565b61009f565b60405190815260200160405180910390f35b61009d61006e3660046100f7565b6000918252602082815260408084206001600160a01b039390931684529190529020805460ff19166001179055565b005b6000828152602081815260408083206001600160a01b038516845290915281205460ff166100ce5760006100f0565b7fa2ef4600d742022d532d4747cb3547474667d6f13804902513b2ec01c848f4b45b9392505050565b6000806040838503121561010a57600080fd5b8235915060208301356001600160a01b038116811461012857600080fd5b80915050925092905056fea26469706673582212200c93231b1b862d118d2e1d312b2f8c34ec39e6b25df73405ff91b4e1b23bc7c064736f6c634300080a0033",
    "sourcePath": "d:/Github/new_token/contracts/contracts/mocks/ERC1820ImplementerMock.sol",
    "compiler": {
        "name": "solc",
        "version": "0.8.10+commit.fc410830"
    },
    "functionHashes": {
        "canImplementInterfaceForAddress(bytes32,address)": "249cb3fa",
        "registerInterfaceForAddress(bytes32,address)": "5536e45d"
    },
    "gasEstimates": {
        "creation": {
            "codeDepositCost": "72200",
            "executionCost": "123",
            "totalCost": "72323"
        },
        "external": {
            "canImplementInterfaceForAddress(bytes32,address)": "2623",
            "registerInterfaceForAddress(bytes32,address)": "24669"
        }
    }
}