{
    "contractName": "ERC20VotesMock",
    "abi": [
        {
            "inputs": [
                {
                    "internalType": "string",
                    "name": "name",
                    "type": "string"
                },
                {
                    "internalType": "string",
                    "name": "symbol",
                    "type": "string"
                }
            ],
            "stateMutability": "nonpayable",
            "type": "constructor"
        },
        {
            "anonymous": false,
            "inputs": [
                {
                    "indexed": true,
                    "internalType": "address",
                    "name": "owner",
                    "type": "address"
                },
                {
                    "indexed": true,
                    "internalType": "address",
                    "name": "spender",
                    "type": "address"
                },
                {
                    "indexed": false,
                    "internalType": "uint256",
                    "name": "value",
                    "type": "uint256"
                }
            ],
            "name": "Approval",
            "type": "event"
        },
        {
            "anonymous": false,
            "inputs": [
                {
                    "indexed": true,
                    "internalType": "address",
                    "name": "delegator",
                    "type": "address"
                },
                {
                    "indexed": true,
                    "internalType": "address",
                    "name": "fromDelegate",
                    "type": "address"
                },
                {
                    "indexed": true,
                    "internalType": "address",
                    "name": "toDelegate",
                    "type": "address"
                }
            ],
            "name": "DelegateChanged",
            "type": "event"
        },
        {
            "anonymous": false,
            "inputs": [
                {
                    "indexed": true,
                    "internalType": "address",
                    "name": "delegate",
                    "type": "address"
                },
                {
                    "indexed": false,
                    "internalType": "uint256",
                    "name": "previousBalance",
                    "type": "uint256"
                },
                {
                    "indexed": false,
                    "internalType": "uint256",
                    "name": "newBalance",
                    "type": "uint256"
                }
            ],
            "name": "DelegateVotesChanged",
            "type": "event"
        },
        {
            "anonymous": false,
            "inputs": [
                {
                    "indexed": true,
                    "internalType": "address",
                    "name": "from",
                    "type": "address"
                },
                {
                    "indexed": true,
                    "internalType": "address",
                    "name": "to",
                    "type": "address"
                },
                {
                    "indexed": false,
                    "internalType": "uint256",
                    "name": "value",
                    "type": "uint256"
                }
            ],
            "name": "Transfer",
            "type": "event"
        },
        {
            "inputs": [],
            "name": "DOMAIN_SEPARATOR",
            "outputs": [
                {
                    "internalType": "bytes32",
                    "name": "",
                    "type": "bytes32"
                }
            ],
            "stateMutability": "view",
            "type": "function"
        },
        {
            "inputs": [
                {
                    "internalType": "address",
                    "name": "owner",
                    "type": "address"
                },
                {
                    "internalType": "address",
                    "name": "spender",
                    "type": "address"
                }
            ],
            "name": "allowance",
            "outputs": [
                {
                    "internalType": "uint256",
                    "name": "",
                    "type": "uint256"
                }
            ],
            "stateMutability": "view",
            "type": "function"
        },
        {
            "inputs": [
                {
                    "internalType": "address",
                    "name": "spender",
                    "type": "address"
                },
                {
                    "internalType": "uint256",
                    "name": "amount",
                    "type": "uint256"
                }
            ],
            "name": "approve",
            "outputs": [
                {
                    "internalType": "bool",
                    "name": "",
                    "type": "bool"
                }
            ],
            "stateMutability": "nonpayable",
            "type": "function"
        },
        {
            "inputs": [
                {
                    "internalType": "address",
                    "name": "account",
                    "type": "address"
                }
            ],
            "name": "balanceOf",
            "outputs": [
                {
                    "internalType": "uint256",
                    "name": "",
                    "type": "uint256"
                }
            ],
            "stateMutability": "view",
            "type": "function"
        },
        {
            "inputs": [
                {
                    "internalType": "address",
                    "name": "account",
                    "type": "address"
                },
                {
                    "internalType": "uint256",
                    "name": "amount",
                    "type": "uint256"
                }
            ],
            "name": "burn",
            "outputs": [],
            "stateMutability": "nonpayable",
            "type": "function"
        },
        {
            "inputs": [
                {
                    "internalType": "address",
                    "name": "account",
                    "type": "address"
                },
                {
                    "internalType": "uint32",
                    "name": "pos",
                    "type": "uint32"
                }
            ],
            "name": "checkpoints",
            "outputs": [
                {
                    "components": [
                        {
                            "internalType": "uint32",
                            "name": "fromBlock",
                            "type": "uint32"
                        },
                        {
                            "internalType": "uint224",
                            "name": "votes",
                            "type": "uint224"
                        }
                    ],
                    "internalType": "struct ERC20Votes.Checkpoint",
                    "name": "",
                    "type": "tuple"
                }
            ],
            "stateMutability": "view",
            "type": "function"
        },
        {
            "inputs": [],
            "name": "decimals",
            "outputs": [
                {
                    "internalType": "uint8",
                    "name": "",
                    "type": "uint8"
                }
            ],
            "stateMutability": "view",
            "type": "function"
        },
        {
            "inputs": [
                {
                    "internalType": "address",
                    "name": "spender",
                    "type": "address"
                },
                {
                    "internalType": "uint256",
                    "name": "subtractedValue",
                    "type": "uint256"
                }
            ],
            "name": "decreaseAllowance",
            "outputs": [
                {
                    "internalType": "bool",
                    "name": "",
                    "type": "bool"
                }
            ],
            "stateMutability": "nonpayable",
            "type": "function"
        },
        {
            "inputs": [
                {
                    "internalType": "address",
                    "name": "delegatee",
                    "type": "address"
                }
            ],
            "name": "delegate",
            "outputs": [],
            "stateMutability": "nonpayable",
            "type": "function"
        },
        {
            "inputs": [
                {
                    "internalType": "address",
                    "name": "delegatee",
                    "type": "address"
                },
                {
                    "internalType": "uint256",
                    "name": "nonce",
                    "type": "uint256"
                },
                {
                    "internalType": "uint256",
                    "name": "expiry",
                    "type": "uint256"
                },
                {
                    "internalType": "uint8",
                    "name": "v",
                    "type": "uint8"
                },
                {
                    "internalType": "bytes32",
                    "name": "r",
                    "type": "bytes32"
                },
                {
                    "internalType": "bytes32",
                    "name": "s",
                    "type": "bytes32"
                }
            ],
            "name": "delegateBySig",
            "outputs": [],
            "stateMutability": "nonpayable",
            "type": "function"
        },
        {
            "inputs": [
                {
                    "internalType": "address",
                    "name": "account",
                    "type": "address"
                }
            ],
            "name": "delegates",
            "outputs": [
                {
                    "internalType": "address",
                    "name": "",
                    "type": "address"
                }
            ],
            "stateMutability": "view",
            "type": "function"
        },
        {
            "inputs": [],
            "name": "getChainId",
            "outputs": [
                {
                    "internalType": "uint256",
                    "name": "",
                    "type": "uint256"
                }
            ],
            "stateMutability": "view",
            "type": "function"
        },
        {
            "inputs": [
                {
                    "internalType": "uint256",
                    "name": "blockNumber",
                    "type": "uint256"
                }
            ],
            "name": "getPastTotalSupply",
            "outputs": [
                {
                    "internalType": "uint256",
                    "name": "",
                    "type": "uint256"
                }
            ],
            "stateMutability": "view",
            "type": "function"
        },
        {
            "inputs": [
                {
                    "internalType": "address",
                    "name": "account",
                    "type": "address"
                },
                {
                    "internalType": "uint256",
                    "name": "blockNumber",
                    "type": "uint256"
                }
            ],
            "name": "getPastVotes",
            "outputs": [
                {
                    "internalType": "uint256",
                    "name": "",
                    "type": "uint256"
                }
            ],
            "stateMutability": "view",
            "type": "function"
        },
        {
            "inputs": [
                {
                    "internalType": "address",
                    "name": "account",
                    "type": "address"
                }
            ],
            "name": "getVotes",
            "outputs": [
                {
                    "internalType": "uint256",
                    "name": "",
                    "type": "uint256"
                }
            ],
            "stateMutability": "view",
            "type": "function"
        },
        {
            "inputs": [
                {
                    "internalType": "address",
                    "name": "spender",
                    "type": "address"
                },
                {
                    "internalType": "uint256",
                    "name": "addedValue",
                    "type": "uint256"
                }
            ],
            "name": "increaseAllowance",
            "outputs": [
                {
                    "internalType": "bool",
                    "name": "",
                    "type": "bool"
                }
            ],
            "stateMutability": "nonpayable",
            "type": "function"
        },
        {
            "inputs": [
                {
                    "internalType": "address",
                    "name": "account",
                    "type": "address"
                },
                {
                    "internalType": "uint256",
                    "name": "amount",
                    "type": "uint256"
                }
            ],
            "name": "mint",
            "outputs": [],
            "stateMutability": "nonpayable",
            "type": "function"
        },
        {
            "inputs": [],
            "name": "name",
            "outputs": [
                {
                    "internalType": "string",
                    "name": "",
                    "type": "string"
                }
            ],
            "stateMutability": "view",
            "type": "function"
        },
        {
            "inputs": [
                {
                    "internalType": "address",
                    "name": "owner",
                    "type": "address"
                }
            ],
            "name": "nonces",
            "outputs": [
                {
                    "internalType": "uint256",
                    "name": "",
                    "type": "uint256"
                }
            ],
            "stateMutability": "view",
            "type": "function"
        },
        {
            "inputs": [
                {
                    "internalType": "address",
                    "name": "account",
                    "type": "address"
                }
            ],
            "name": "numCheckpoints",
            "outputs": [
                {
                    "internalType": "uint32",
                    "name": "",
                    "type": "uint32"
                }
            ],
            "stateMutability": "view",
            "type": "function"
        },
        {
            "inputs": [
                {
                    "internalType": "address",
                    "name": "owner",
                    "type": "address"
                },
                {
                    "internalType": "address",
                    "name": "spender",
                    "type": "address"
                },
                {
                    "internalType": "uint256",
                    "name": "value",
                    "type": "uint256"
                },
                {
                    "internalType": "uint256",
                    "name": "deadline",
                    "type": "uint256"
                },
                {
                    "internalType": "uint8",
                    "name": "v",
                    "type": "uint8"
                },
                {
                    "internalType": "bytes32",
                    "name": "r",
                    "type": "bytes32"
                },
                {
                    "internalType": "bytes32",
                    "name": "s",
                    "type": "bytes32"
                }
            ],
            "name": "permit",
            "outputs": [],
            "stateMutability": "nonpayable",
            "type": "function"
        },
        {
            "inputs": [],
            "name": "symbol",
            "outputs": [
                {
                    "internalType": "string",
                    "name": "",
                    "type": "string"
                }
            ],
            "stateMutability": "view",
            "type": "function"
        },
        {
            "inputs": [],
            "name": "totalSupply",
            "outputs": [
                {
                    "internalType": "uint256",
                    "name": "",
                    "type": "uint256"
                }
            ],
            "stateMutability": "view",
            "type": "function"
        },
        {
            "inputs": [
                {
                    "internalType": "address",
                    "name": "recipient",
                    "type": "address"
                },
                {
                    "internalType": "uint256",
                    "name": "amount",
                    "type": "uint256"
                }
            ],
            "name": "transfer",
            "outputs": [
                {
                    "internalType": "bool",
                    "name": "",
                    "type": "bool"
                }
            ],
            "stateMutability": "nonpayable",
            "type": "function"
        },
        {
            "inputs": [
                {
                    "internalType": "address",
                    "name": "sender",
                    "type": "address"
                },
                {
                    "internalType": "address",
                    "name": "recipient",
                    "type": "address"
                },
                {
                    "internalType": "uint256",
                    "name": "amount",
                    "type": "uint256"
                }
            ],
            "name": "transferFrom",
            "outputs": [
                {
                    "internalType": "bool",
                    "name": "",
                    "type": "bool"
                }
            ],
            "stateMutability": "nonpayable",
            "type": "function"
        }
    ],
    "bytecode": "6101606040527f6e71edae12b1b97f4d1f60370fef10105fa2faae0126114a169c64845d6126c9610140523480156200003757600080fd5b50604051620021aa380380620021aa8339810160408190526200005a91620002b7565b8180604051806040016040528060018152602001603160f81b815250848481600390805190602001906200009092919062000144565b508051620000a690600490602084019062000144565b5050825160208085019190912083518483012060e08290526101008190524660a0818152604080517f8b73c3c69bb8fe3d512ecc4cf759cc79239f7b179b0ffacaa9a75d522b39400f81880181905281830187905260608201869052608082019490945230818401528151808203909301835260c0019052805194019390932091935091906080523060c05261012052506200035e95505050505050565b828054620001529062000321565b90600052602060002090601f016020900481019282620001765760008555620001c1565b82601f106200019157805160ff1916838001178555620001c1565b82800160010185558215620001c1579182015b82811115620001c1578251825591602001919060010190620001a4565b50620001cf929150620001d3565b5090565b5b80821115620001cf5760008155600101620001d4565b634e487b7160e01b600052604160045260246000fd5b600082601f8301126200021257600080fd5b81516001600160401b03808211156200022f576200022f620001ea565b604051601f8301601f19908116603f011681019082821181831017156200025a576200025a620001ea565b816040528381526020925086838588010111156200027757600080fd5b600091505b838210156200029b57858201830151818301840152908201906200027c565b83821115620002ad5760008385830101525b9695505050505050565b60008060408385031215620002cb57600080fd5b82516001600160401b0380821115620002e357600080fd5b620002f18683870162000200565b935060208501519150808211156200030857600080fd5b50620003178582860162000200565b9150509250929050565b600181811c908216806200033657607f821691505b602082108114156200035857634e487b7160e01b600052602260045260246000fd5b50919050565b60805160a05160c05160e051610100516101205161014051611df1620003b9600039600061099d01526000610eb901526000610f0801526000610ee301526000610e3c01526000610e6601526000610e900152611df16000f3fe608060405234801561001057600080fd5b50600436106101735760003560e01c80636fcfff45116100de5780639dc29fac11610097578063c3cda52011610071578063c3cda52014610358578063d505accf1461036b578063dd62ed3e1461037e578063f1127ed8146103b757600080fd5b80639dc29fac1461031f578063a457c2d714610332578063a9059cbb1461034557600080fd5b80636fcfff451461028d57806370a08231146102b55780637ecebe00146102de5780638e539e8c146102f157806395d89b41146103045780639ab24eb01461030c57600080fd5b80633644e515116101305780633644e515146101f357806339509351146101fb5780633a46b1a81461020e57806340c10f1914610221578063587cde1e146102365780635c19a95c1461027a57600080fd5b806306fdde0314610178578063095ea7b31461019657806318160ddd146101b957806323b872dd146101cb578063313ce567146101de5780633408e470146101ed575b600080fd5b6101806103f4565b60405161018d9190611aa2565b60405180910390f35b6101a96101a4366004611b13565b610486565b604051901515815260200161018d565b6002545b60405190815260200161018d565b6101a96101d9366004611b3d565b61049c565b6040516012815260200161018d565b466101bd565b6101bd61054b565b6101a9610209366004611b13565b61055a565b6101bd61021c366004611b13565b610596565b61023461022f366004611b13565b610610565b005b610262610244366004611b79565b6001600160a01b039081166000908152600660205260409020541690565b6040516001600160a01b03909116815260200161018d565b610234610288366004611b79565b61061e565b6102a061029b366004611b79565b61062b565b60405163ffffffff909116815260200161018d565b6101bd6102c3366004611b79565b6001600160a01b031660009081526020819052604090205490565b6101bd6102ec366004611b79565b610653565b6101bd6102ff366004611b94565b610671565b6101806106cd565b6101bd61031a366004611b79565b6106dc565b61023461032d366004611b13565b610763565b6101a9610340366004611b13565b61076d565b6101a9610353366004611b13565b610806565b610234610366366004611bbe565b610813565b610234610379366004611c16565b610949565b6101bd61038c366004611c80565b6001600160a01b03918216600090815260016020908152604080832093909416825291909152205490565b6103ca6103c5366004611cb3565b610aad565b60408051825163ffffffff1681526020928301516001600160e01b0316928101929092520161018d565b60606003805461040390611cf3565b80601f016020809104026020016040519081016040528092919081815260200182805461042f90611cf3565b801561047c5780601f106104515761010080835404028352916020019161047c565b820191906000526020600020905b81548152906001019060200180831161045f57829003601f168201915b5050505050905090565b6000610493338484610b31565b50600192915050565b60006104a9848484610c55565b6001600160a01b0384166000908152600160209081526040808320338452909152902054828110156105335760405162461bcd60e51b815260206004820152602860248201527f45524332303a207472616e7366657220616d6f756e74206578636565647320616044820152676c6c6f77616e636560c01b60648201526084015b60405180910390fd5b6105408533858403610b31565b506001949350505050565b6000610555610e2f565b905090565b3360008181526001602090815260408083206001600160a01b03871684529091528120549091610493918590610591908690611d3e565b610b31565b60004382106105e75760405162461bcd60e51b815260206004820152601f60248201527f4552433230566f7465733a20626c6f636b206e6f7420796574206d696e656400604482015260640161052a565b6001600160a01b03831660009081526007602052604090206106099083610f56565b9392505050565b61061a8282611013565b5050565b610628338261109d565b50565b6001600160a01b03811660009081526007602052604081205461064d90611116565b92915050565b6001600160a01b03811660009081526005602052604081205461064d565b60004382106106c25760405162461bcd60e51b815260206004820152601f60248201527f4552433230566f7465733a20626c6f636b206e6f7420796574206d696e656400604482015260640161052a565b61064d600883610f56565b60606004805461040390611cf3565b6001600160a01b0381166000908152600760205260408120548015610750576001600160a01b038316600090815260076020526040902061071e600183611d56565b8154811061072e5761072e611d6d565b60009182526020909120015464010000000090046001600160e01b0316610753565b60005b6001600160e01b03169392505050565b61061a828261117f565b3360009081526001602090815260408083206001600160a01b0386168452909152812054828110156107ef5760405162461bcd60e51b815260206004820152602560248201527f45524332303a2064656372656173656420616c6c6f77616e63652062656c6f77604482015264207a65726f60d81b606482015260840161052a565b6107fc3385858403610b31565b5060019392505050565b6000610493338484610c55565b834211156108635760405162461bcd60e51b815260206004820152601d60248201527f4552433230566f7465733a207369676e61747572652065787069726564000000604482015260640161052a565b604080517fe48329057bfd03d55e49b547132e39cffd9c1820ad7b9d4c5307691425d15adf60208201526001600160a01b0388169181019190915260608101869052608081018590526000906108dd906108d59060a00160405160208183030381529060405280519060200120611197565b8585856111e5565b90506108e88161120d565b86146109365760405162461bcd60e51b815260206004820152601960248201527f4552433230566f7465733a20696e76616c6964206e6f6e636500000000000000604482015260640161052a565b610940818861109d565b50505050505050565b834211156109995760405162461bcd60e51b815260206004820152601d60248201527f45524332305065726d69743a206578706972656420646561646c696e65000000604482015260640161052a565b60007f00000000000000000000000000000000000000000000000000000000000000008888886109c88c61120d565b6040805160208101969096526001600160a01b0394851690860152929091166060840152608083015260a082015260c0810186905260e0016040516020818303038152906040528051906020012090506000610a2382611197565b90506000610a33828787876111e5565b9050896001600160a01b0316816001600160a01b031614610a965760405162461bcd60e51b815260206004820152601e60248201527f45524332305065726d69743a20696e76616c6964207369676e61747572650000604482015260640161052a565b610aa18a8a8a610b31565b50505050505050505050565b60408051808201909152600080825260208201526001600160a01b0383166000908152600760205260409020805463ffffffff8416908110610af157610af1611d6d565b60009182526020918290206040805180820190915291015463ffffffff8116825264010000000090046001600160e01b0316918101919091529392505050565b6001600160a01b038316610b935760405162461bcd60e51b8152602060048201526024808201527f45524332303a20617070726f76652066726f6d20746865207a65726f206164646044820152637265737360e01b606482015260840161052a565b6001600160a01b038216610bf45760405162461bcd60e51b815260206004820152602260248201527f45524332303a20617070726f766520746f20746865207a65726f206164647265604482015261737360f01b606482015260840161052a565b6001600160a01b0383811660008181526001602090815260408083209487168084529482529182902085905590518481527f8c5be1e5ebec7d5bd14f71427d1e84f3dd0314c0f7b2291e5b200ac8c7c3b925910160405180910390a3505050565b6001600160a01b038316610cb95760405162461bcd60e51b815260206004820152602560248201527f45524332303a207472616e736665722066726f6d20746865207a65726f206164604482015264647265737360d81b606482015260840161052a565b6001600160a01b038216610d1b5760405162461bcd60e51b815260206004820152602360248201527f45524332303a207472616e7366657220746f20746865207a65726f206164647260448201526265737360e81b606482015260840161052a565b6001600160a01b03831660009081526020819052604090205481811015610d935760405162461bcd60e51b815260206004820152602660248201527f45524332303a207472616e7366657220616d6f756e7420657863656564732062604482015265616c616e636560d01b606482015260840161052a565b6001600160a01b03808516600090815260208190526040808220858503905591851681529081208054849290610dca908490611d3e565b92505081905550826001600160a01b0316846001600160a01b03167fddf252ad1be2c89b69c2b068fc378daa952ba7f163c4a11628f55a4df523b3ef84604051610e1691815260200190565b60405180910390a3610e2984848461123a565b50505050565b6000306001600160a01b037f000000000000000000000000000000000000000000000000000000000000000016148015610e8857507f000000000000000000000000000000000000000000000000000000000000000046145b15610eb257507f000000000000000000000000000000000000000000000000000000000000000090565b50604080517f00000000000000000000000000000000000000000000000000000000000000006020808301919091527f0000000000000000000000000000000000000000000000000000000000000000828401527f000000000000000000000000000000000000000000000000000000000000000060608301524660808301523060a0808401919091528351808403909101815260c0909201909252805191012090565b8154600090815b81811015610fba576000610f71828461126c565b905084868281548110610f8657610f86611d6d565b60009182526020909120015463ffffffff161115610fa657809250610fb4565b610fb1816001611d3e565b91505b50610f5d565b8115610ffe5784610fcc600184611d56565b81548110610fdc57610fdc611d6d565b60009182526020909120015464010000000090046001600160e01b0316611001565b60005b6001600160e01b031695945050505050565b61101d8282611287565b6002546001600160e01b03101561108f5760405162461bcd60e51b815260206004820152603060248201527f4552433230566f7465733a20746f74616c20737570706c79207269736b73206f60448201526f766572666c6f77696e6720766f74657360801b606482015260840161052a565b610e29600861136e8361137a565b6001600160a01b038281166000818152600660208181526040808420805485845282862054949093528787166001600160a01b03198416811790915590519190951694919391928592917f3134e8a2e6d97e929a7e54011ea5485d7d196dd5f0ba4d4ef95803e8e3fc257f9190a4610e298284836114f3565b600063ffffffff82111561117b5760405162461bcd60e51b815260206004820152602660248201527f53616665436173743a2076616c756520646f65736e27742066697420696e203360448201526532206269747360d01b606482015260840161052a565b5090565b6111898282611630565b610e2960086117858361137a565b600061064d6111a4610e2f565b8360405161190160f01b6020820152602281018390526042810182905260009060620160405160208183030381529060405280519060200120905092915050565b60008060006111f687878787611791565b915091506112038161187e565b5095945050505050565b6001600160a01b03811660009081526005602052604090208054600181018255905b50919050565b505050565b6001600160a01b03838116600090815260066020526040808220548584168352912054611235929182169116836114f3565b600061127b6002848418611d83565b61060990848416611d3e565b6001600160a01b0382166112dd5760405162461bcd60e51b815260206004820152601f60248201527f45524332303a206d696e7420746f20746865207a65726f206164647265737300604482015260640161052a565b80600260008282546112ef9190611d3e565b90915550506001600160a01b0382166000908152602081905260408120805483929061131c908490611d3e565b90915550506040518181526001600160a01b038316906000907fddf252ad1be2c89b69c2b068fc378daa952ba7f163c4a11628f55a4df523b3ef9060200160405180910390a361061a6000838361123a565b60006106098284611d3e565b8254600090819080156113c55785611393600183611d56565b815481106113a3576113a3611d6d565b60009182526020909120015464010000000090046001600160e01b03166113c8565b60005b6001600160e01b031692506113e183858763ffffffff16565b915060008111801561141f575043866113fb600184611d56565b8154811061140b5761140b611d6d565b60009182526020909120015463ffffffff16145b1561147f5761142d82611a39565b86611439600184611d56565b8154811061144957611449611d6d565b9060005260206000200160000160046101000a8154816001600160e01b0302191690836001600160e01b031602179055506114ea565b85604051806040016040528061149443611116565b63ffffffff1681526020016114a885611a39565b6001600160e01b0390811690915282546001810184556000938452602093849020835194909301519091166401000000000263ffffffff909316929092179101555b50935093915050565b816001600160a01b0316836001600160a01b0316141580156115155750600081115b15611235576001600160a01b038316156115a3576001600160a01b03831660009081526007602052604081208190611550906117858561137a565b91509150846001600160a01b03167fdec2bacdd2f05b59de34da9b523dff8be42e5e38e818c82fdb0bae774387a7248383604051611598929190918252602082015260400190565b60405180910390a250505b6001600160a01b03821615611235576001600160a01b038216600090815260076020526040812081906115d99061136e8561137a565b91509150836001600160a01b03167fdec2bacdd2f05b59de34da9b523dff8be42e5e38e818c82fdb0bae774387a7248383604051611621929190918252602082015260400190565b60405180910390a25050505050565b6001600160a01b0382166116905760405162461bcd60e51b815260206004820152602160248201527f45524332303a206275726e2066726f6d20746865207a65726f206164647265736044820152607360f81b606482015260840161052a565b6001600160a01b038216600090815260208190526040902054818110156117045760405162461bcd60e51b815260206004820152602260248201527f45524332303a206275726e20616d6f756e7420657863656564732062616c616e604482015261636560f01b606482015260840161052a565b6001600160a01b0383166000908152602081905260408120838303905560028054849290611733908490611d56565b90915550506040518281526000906001600160a01b038516907fddf252ad1be2c89b69c2b068fc378daa952ba7f163c4a11628f55a4df523b3ef9060200160405180910390a36112358360008461123a565b60006106098284611d56565b6000807f7fffffffffffffffffffffffffffffff5d576e7357a4501ddfe92f46681b20a08311156117c85750600090506003611875565b8460ff16601b141580156117e057508460ff16601c14155b156117f15750600090506004611875565b6040805160008082526020820180845289905260ff881692820192909252606081018690526080810185905260019060a0016020604051602081039080840390855afa158015611845573d6000803e3d6000fd5b5050604051601f1901519150506001600160a01b03811661186e57600060019250925050611875565b9150600090505b94509492505050565b600081600481111561189257611892611da5565b141561189b5750565b60018160048111156118af576118af611da5565b14156118fd5760405162461bcd60e51b815260206004820152601860248201527f45434453413a20696e76616c6964207369676e61747572650000000000000000604482015260640161052a565b600281600481111561191157611911611da5565b141561195f5760405162461bcd60e51b815260206004820152601f60248201527f45434453413a20696e76616c6964207369676e6174757265206c656e67746800604482015260640161052a565b600381600481111561197357611973611da5565b14156119cc5760405162461bcd60e51b815260206004820152602260248201527f45434453413a20696e76616c6964207369676e6174757265202773272076616c604482015261756560f01b606482015260840161052a565b60048160048111156119e0576119e0611da5565b14156106285760405162461bcd60e51b815260206004820152602260248201527f45434453413a20696e76616c6964207369676e6174757265202776272076616c604482015261756560f01b606482015260840161052a565b60006001600160e01b0382111561117b5760405162461bcd60e51b815260206004820152602760248201527f53616665436173743a2076616c756520646f65736e27742066697420696e20326044820152663234206269747360c81b606482015260840161052a565b600060208083528351808285015260005b81811015611acf57858101830151858201604001528201611ab3565b81811115611ae1576000604083870101525b50601f01601f1916929092016040019392505050565b80356001600160a01b0381168114611b0e57600080fd5b919050565b60008060408385031215611b2657600080fd5b611b2f83611af7565b946020939093013593505050565b600080600060608486031215611b5257600080fd5b611b5b84611af7565b9250611b6960208501611af7565b9150604084013590509250925092565b600060208284031215611b8b57600080fd5b61060982611af7565b600060208284031215611ba657600080fd5b5035919050565b803560ff81168114611b0e57600080fd5b60008060008060008060c08789031215611bd757600080fd5b611be087611af7565b95506020870135945060408701359350611bfc60608801611bad565b92506080870135915060a087013590509295509295509295565b600080600080600080600060e0888a031215611c3157600080fd5b611c3a88611af7565b9650611c4860208901611af7565b95506040880135945060608801359350611c6460808901611bad565b925060a0880135915060c0880135905092959891949750929550565b60008060408385031215611c9357600080fd5b611c9c83611af7565b9150611caa60208401611af7565b90509250929050565b60008060408385031215611cc657600080fd5b611ccf83611af7565b9150602083013563ffffffff81168114611ce857600080fd5b809150509250929050565b600181811c90821680611d0757607f821691505b6020821081141561122f57634e487b7160e01b600052602260045260246000fd5b634e487b7160e01b600052601160045260246000fd5b60008219821115611d5157611d51611d28565b500190565b600082821015611d6857611d68611d28565b500390565b634e487b7160e01b600052603260045260246000fd5b600082611da057634e487b7160e01b600052601260045260246000fd5b500490565b634e487b7160e01b600052602160045260246000fdfea2646970667358221220deb623b1944ee9cae30ebc6c88eb74b73eefda163f7c3b9ed8499cffef02a6f764736f6c634300080a0033",
    "sourcePath": "d:/Github/new_token/contracts/contracts/mocks/ERC20VotesMock.sol",
    "compiler": {
        "name": "solc",
        "version": "0.8.10+commit.fc410830"
    },
    "functionHashes": {
        "DOMAIN_SEPARATOR()": "3644e515",
        "allowance(address,address)": "dd62ed3e",
        "approve(address,uint256)": "095ea7b3",
        "balanceOf(address)": "70a08231",
        "burn(address,uint256)": "9dc29fac",
        "checkpoints(address,uint32)": "f1127ed8",
        "decimals()": "313ce567",
        "decreaseAllowance(address,uint256)": "a457c2d7",
        "delegate(address)": "5c19a95c",
        "delegateBySig(address,uint256,uint256,uint8,bytes32,bytes32)": "c3cda520",
        "delegates(address)": "587cde1e",
        "getChainId()": "3408e470",
        "getPastTotalSupply(uint256)": "8e539e8c",
        "getPastVotes(address,uint256)": "3a46b1a8",
        "getVotes(address)": "9ab24eb0",
        "increaseAllowance(address,uint256)": "39509351",
        "mint(address,uint256)": "40c10f19",
        "name()": "06fdde03",
        "nonces(address)": "7ecebe00",
        "numCheckpoints(address)": "6fcfff45",
        "permit(address,address,uint256,uint256,uint8,bytes32,bytes32)": "d505accf",
        "symbol()": "95d89b41",
        "totalSupply()": "18160ddd",
        "transfer(address,uint256)": "a9059cbb",
        "transferFrom(address,address,uint256)": "23b872dd"
    },
    "gasEstimates": {
        "creation": {
            "codeDepositCost": "1533000",
            "executionCost": "infinite",
            "totalCost": "infinite"
        },
        "external": {
            "DOMAIN_SEPARATOR()": "infinite",
            "allowance(address,address)": "infinite",
            "approve(address,uint256)": "24642",
            "balanceOf(address)": "2585",
            "burn(address,uint256)": "infinite",
            "checkpoints(address,uint32)": "5153",
            "decimals()": "289",
            "decreaseAllowance(address,uint256)": "26955",
            "delegate(address)": "infinite",
            "delegateBySig(address,uint256,uint256,uint8,bytes32,bytes32)": "infinite",
            "delegates(address)": "2678",
            "getChainId()": "325",
            "getPastTotalSupply(uint256)": "infinite",
            "getPastVotes(address,uint256)": "7190",
            "getVotes(address)": "7212",
            "increaseAllowance(address,uint256)": "26979",
            "mint(address,uint256)": "infinite",
            "name()": "infinite",
            "nonces(address)": "2638",
            "numCheckpoints(address)": "2693",
            "permit(address,address,uint256,uint256,uint8,bytes32,bytes32)": "infinite",
            "symbol()": "infinite",
            "totalSupply()": "2349",
            "transfer(address,uint256)": "infinite",
            "transferFrom(address,address,uint256)": "infinite"
        }
    }
}