{
    "contractName": "ERC721URIStorageMock",
    "abi": [
        {
            "inputs": [
                {
                    "internalType": "string",
                    "name": "name",
                    "type": "string"
                },
                {
                    "internalType": "string",
                    "name": "symbol",
                    "type": "string"
                }
            ],
            "stateMutability": "nonpayable",
            "type": "constructor"
        },
        {
            "anonymous": false,
            "inputs": [
                {
                    "indexed": true,
                    "internalType": "address",
                    "name": "owner",
                    "type": "address"
                },
                {
                    "indexed": true,
                    "internalType": "address",
                    "name": "approved",
                    "type": "address"
                },
                {
                    "indexed": true,
                    "internalType": "uint256",
                    "name": "tokenId",
                    "type": "uint256"
                }
            ],
            "name": "Approval",
            "type": "event"
        },
        {
            "anonymous": false,
            "inputs": [
                {
                    "indexed": true,
                    "internalType": "address",
                    "name": "owner",
                    "type": "address"
                },
                {
                    "indexed": true,
                    "internalType": "address",
                    "name": "operator",
                    "type": "address"
                },
                {
                    "indexed": false,
                    "internalType": "bool",
                    "name": "approved",
                    "type": "bool"
                }
            ],
            "name": "ApprovalForAll",
            "type": "event"
        },
        {
            "anonymous": false,
            "inputs": [
                {
                    "indexed": true,
                    "internalType": "address",
                    "name": "from",
                    "type": "address"
                },
                {
                    "indexed": true,
                    "internalType": "address",
                    "name": "to",
                    "type": "address"
                },
                {
                    "indexed": true,
                    "internalType": "uint256",
                    "name": "tokenId",
                    "type": "uint256"
                }
            ],
            "name": "Transfer",
            "type": "event"
        },
        {
            "inputs": [
                {
                    "internalType": "address",
                    "name": "to",
                    "type": "address"
                },
                {
                    "internalType": "uint256",
                    "name": "tokenId",
                    "type": "uint256"
                }
            ],
            "name": "approve",
            "outputs": [],
            "stateMutability": "nonpayable",
            "type": "function"
        },
        {
            "inputs": [
                {
                    "internalType": "address",
                    "name": "owner",
                    "type": "address"
                }
            ],
            "name": "balanceOf",
            "outputs": [
                {
                    "internalType": "uint256",
                    "name": "",
                    "type": "uint256"
                }
            ],
            "stateMutability": "view",
            "type": "function"
        },
        {
            "inputs": [],
            "name": "baseURI",
            "outputs": [
                {
                    "internalType": "string",
                    "name": "",
                    "type": "string"
                }
            ],
            "stateMutability": "view",
            "type": "function"
        },
        {
            "inputs": [
                {
                    "internalType": "uint256",
                    "name": "tokenId",
                    "type": "uint256"
                }
            ],
            "name": "burn",
            "outputs": [],
            "stateMutability": "nonpayable",
            "type": "function"
        },
        {
            "inputs": [
                {
                    "internalType": "uint256",
                    "name": "tokenId",
                    "type": "uint256"
                }
            ],
            "name": "exists",
            "outputs": [
                {
                    "internalType": "bool",
                    "name": "",
                    "type": "bool"
                }
            ],
            "stateMutability": "view",
            "type": "function"
        },
        {
            "inputs": [
                {
                    "internalType": "uint256",
                    "name": "tokenId",
                    "type": "uint256"
                }
            ],
            "name": "getApproved",
            "outputs": [
                {
                    "internalType": "address",
                    "name": "",
                    "type": "address"
                }
            ],
            "stateMutability": "view",
            "type": "function"
        },
        {
            "inputs": [
                {
                    "internalType": "address",
                    "name": "owner",
                    "type": "address"
                },
                {
                    "internalType": "address",
                    "name": "operator",
                    "type": "address"
                }
            ],
            "name": "isApprovedForAll",
            "outputs": [
                {
                    "internalType": "bool",
                    "name": "",
                    "type": "bool"
                }
            ],
            "stateMutability": "view",
            "type": "function"
        },
        {
            "inputs": [
                {
                    "internalType": "address",
                    "name": "to",
                    "type": "address"
                },
                {
                    "internalType": "uint256",
                    "name": "tokenId",
                    "type": "uint256"
                }
            ],
            "name": "mint",
            "outputs": [],
            "stateMutability": "nonpayable",
            "type": "function"
        },
        {
            "inputs": [],
            "name": "name",
            "outputs": [
                {
                    "internalType": "string",
                    "name": "",
                    "type": "string"
                }
            ],
            "stateMutability": "view",
            "type": "function"
        },
        {
            "inputs": [
                {
                    "internalType": "uint256",
                    "name": "tokenId",
                    "type": "uint256"
                }
            ],
            "name": "ownerOf",
            "outputs": [
                {
                    "internalType": "address",
                    "name": "",
                    "type": "address"
                }
            ],
            "stateMutability": "view",
            "type": "function"
        },
        {
            "inputs": [
                {
                    "internalType": "address",
                    "name": "to",
                    "type": "address"
                },
                {
                    "internalType": "uint256",
                    "name": "tokenId",
                    "type": "uint256"
                },
                {
                    "internalType": "bytes",
                    "name": "_data",
                    "type": "bytes"
                }
            ],
            "name": "safeMint",
            "outputs": [],
            "stateMutability": "nonpayable",
            "type": "function"
        },
        {
            "inputs": [
                {
                    "internalType": "address",
                    "name": "to",
                    "type": "address"
                },
                {
                    "internalType": "uint256",
                    "name": "tokenId",
                    "type": "uint256"
                }
            ],
            "name": "safeMint",
            "outputs": [],
            "stateMutability": "nonpayable",
            "type": "function"
        },
        {
            "inputs": [
                {
                    "internalType": "address",
                    "name": "from",
                    "type": "address"
                },
                {
                    "internalType": "address",
                    "name": "to",
                    "type": "address"
                },
                {
                    "internalType": "uint256",
                    "name": "tokenId",
                    "type": "uint256"
                }
            ],
            "name": "safeTransferFrom",
            "outputs": [],
            "stateMutability": "nonpayable",
            "type": "function"
        },
        {
            "inputs": [
                {
                    "internalType": "address",
                    "name": "from",
                    "type": "address"
                },
                {
                    "internalType": "address",
                    "name": "to",
                    "type": "address"
                },
                {
                    "internalType": "uint256",
                    "name": "tokenId",
                    "type": "uint256"
                },
                {
                    "internalType": "bytes",
                    "name": "_data",
                    "type": "bytes"
                }
            ],
            "name": "safeTransferFrom",
            "outputs": [],
            "stateMutability": "nonpayable",
            "type": "function"
        },
        {
            "inputs": [
                {
                    "internalType": "address",
                    "name": "operator",
                    "type": "address"
                },
                {
                    "internalType": "bool",
                    "name": "approved",
                    "type": "bool"
                }
            ],
            "name": "setApprovalForAll",
            "outputs": [],
            "stateMutability": "nonpayable",
            "type": "function"
        },
        {
            "inputs": [
                {
                    "internalType": "string",
                    "name": "newBaseTokenURI",
                    "type": "string"
                }
            ],
            "name": "setBaseURI",
            "outputs": [],
            "stateMutability": "nonpayable",
            "type": "function"
        },
        {
            "inputs": [
                {
                    "internalType": "uint256",
                    "name": "tokenId",
                    "type": "uint256"
                },
                {
                    "internalType": "string",
                    "name": "_tokenURI",
                    "type": "string"
                }
            ],
            "name": "setTokenURI",
            "outputs": [],
            "stateMutability": "nonpayable",
            "type": "function"
        },
        {
            "inputs": [
                {
                    "internalType": "bytes4",
                    "name": "interfaceId",
                    "type": "bytes4"
                }
            ],
            "name": "supportsInterface",
            "outputs": [
                {
                    "internalType": "bool",
                    "name": "",
                    "type": "bool"
                }
            ],
            "stateMutability": "view",
            "type": "function"
        },
        {
            "inputs": [],
            "name": "symbol",
            "outputs": [
                {
                    "internalType": "string",
                    "name": "",
                    "type": "string"
                }
            ],
            "stateMutability": "view",
            "type": "function"
        },
        {
            "inputs": [
                {
                    "internalType": "uint256",
                    "name": "tokenId",
                    "type": "uint256"
                }
            ],
            "name": "tokenURI",
            "outputs": [
                {
                    "internalType": "string",
                    "name": "",
                    "type": "string"
                }
            ],
            "stateMutability": "view",
            "type": "function"
        },
        {
            "inputs": [
                {
                    "internalType": "address",
                    "name": "from",
                    "type": "address"
                },
                {
                    "internalType": "address",
                    "name": "to",
                    "type": "address"
                },
                {
                    "internalType": "uint256",
                    "name": "tokenId",
                    "type": "uint256"
                }
            ],
            "name": "transferFrom",
            "outputs": [],
            "stateMutability": "nonpayable",
            "type": "function"
        }
    ],
    "bytecode": "60806040523480156200001157600080fd5b5060405162001cff38038062001cff8339810160408190526200003491620001e1565b8151829082906200004d9060009060208501906200006e565b508051620000639060019060208401906200006e565b505050505062000288565b8280546200007c906200024b565b90600052602060002090601f016020900481019282620000a05760008555620000eb565b82601f10620000bb57805160ff1916838001178555620000eb565b82800160010185558215620000eb579182015b82811115620000eb578251825591602001919060010190620000ce565b50620000f9929150620000fd565b5090565b5b80821115620000f95760008155600101620000fe565b634e487b7160e01b600052604160045260246000fd5b600082601f8301126200013c57600080fd5b81516001600160401b038082111562000159576200015962000114565b604051601f8301601f19908116603f0116810190828211818310171562000184576200018462000114565b81604052838152602092508683858801011115620001a157600080fd5b600091505b83821015620001c55785820183015181830184015290820190620001a6565b83821115620001d75760008385830101525b9695505050505050565b60008060408385031215620001f557600080fd5b82516001600160401b03808211156200020d57600080fd5b6200021b868387016200012a565b935060208501519150808211156200023257600080fd5b5062000241858286016200012a565b9150509250929050565b600181811c908216806200026057607f821691505b602082108114156200028257634e487b7160e01b600052602260045260246000fd5b50919050565b611a6780620002986000396000f3fe608060405234801561001057600080fd5b50600436106101375760003560e01c806355f804b3116100b857806395d89b411161007c57806395d89b411461028d578063a144819414610295578063a22cb465146102a8578063b88d4fde146102bb578063c87b56dd146102ce578063e985e9c5146102e157600080fd5b806355f804b31461022b5780636352211e1461023e5780636c0360eb1461025157806370a08231146102595780638832e6e31461027a57600080fd5b806323b872dd116100ff57806323b872dd146101cc57806340c10f19146101df57806342842e0e146101f257806342966c68146102055780634f558e791461021857600080fd5b806301ffc9a71461013c57806306fdde0314610164578063081812fc14610179578063095ea7b3146101a4578063162094c4146101b9575b600080fd5b61014f61014a366004611431565b61031d565b60405190151581526020015b60405180910390f35b61016c61036f565b60405161015b91906114a6565b61018c6101873660046114b9565b610401565b6040516001600160a01b03909116815260200161015b565b6101b76101b23660046114ee565b61048e565b005b6101b76101c73660046115a4565b6105a4565b6101b76101da3660046115ff565b6105b2565b6101b76101ed3660046114ee565b6105e3565b6101b76102003660046115ff565b6105ed565b6101b76102133660046114b9565b610608565b61014f6102263660046114b9565b610614565b6101b761023936600461163b565b61061f565b61018c61024c3660046114b9565b61062b565b61016c6106a2565b61026c6102673660046116ad565b6106b1565b60405190815260200161015b565b6101b76102883660046116e8565b610738565b61016c610743565b6101b76102a33660046114ee565b610752565b6101b76102b636600461173f565b61075c565b6101b76102c936600461177b565b610767565b61016c6102dc3660046114b9565b61079f565b61014f6102ef3660046117e3565b6001600160a01b03918216600090815260056020908152604080832093909416825291909152205460ff1690565b60006001600160e01b031982166380ac58cd60e01b148061034e57506001600160e01b03198216635b5e139f60e01b145b8061036957506301ffc9a760e01b6001600160e01b03198316145b92915050565b60606000805461037e90611816565b80601f01602080910402602001604051908101604052809291908181526020018280546103aa90611816565b80156103f75780601f106103cc576101008083540402835291602001916103f7565b820191906000526020600020905b8154815290600101906020018083116103da57829003601f168201915b5050505050905090565b600061040c82610909565b6104725760405162461bcd60e51b815260206004820152602c60248201527f4552433732313a20617070726f76656420717565727920666f72206e6f6e657860448201526b34b9ba32b73a103a37b5b2b760a11b60648201526084015b60405180910390fd5b506000908152600460205260409020546001600160a01b031690565b60006104998261062b565b9050806001600160a01b0316836001600160a01b031614156105075760405162461bcd60e51b815260206004820152602160248201527f4552433732313a20617070726f76616c20746f2063757272656e74206f776e656044820152603960f91b6064820152608401610469565b336001600160a01b0382161480610523575061052381336102ef565b6105955760405162461bcd60e51b815260206004820152603860248201527f4552433732313a20617070726f76652063616c6c6572206973206e6f74206f7760448201527f6e6572206e6f7220617070726f76656420666f7220616c6c00000000000000006064820152608401610469565b61059f8383610926565b505050565b6105ae8282610994565b5050565b6105bc3382610a1f565b6105d85760405162461bcd60e51b815260040161046990611851565b61059f838383610b05565b6105ae8282610ca5565b61059f83838360405180602001604052806000815250610767565b61061181610dd8565b50565b600061036982610909565b61059f600783836112d8565b6000818152600260205260408120546001600160a01b0316806103695760405162461bcd60e51b815260206004820152602960248201527f4552433732313a206f776e657220717565727920666f72206e6f6e657869737460448201526832b73a103a37b5b2b760b91b6064820152608401610469565b60606106ac610e18565b905090565b60006001600160a01b03821661071c5760405162461bcd60e51b815260206004820152602a60248201527f4552433732313a2062616c616e636520717565727920666f7220746865207a65604482015269726f206164647265737360b01b6064820152608401610469565b506001600160a01b031660009081526003602052604090205490565b61059f838383610e27565b60606001805461037e90611816565b6105ae8282610e5a565b6105ae338383610e74565b6107713383610a1f565b61078d5760405162461bcd60e51b815260040161046990611851565b61079984848484610f43565b50505050565b60606107aa82610909565b6108105760405162461bcd60e51b815260206004820152603160248201527f45524337323155524953746f726167653a2055524920717565727920666f72206044820152703737b732bc34b9ba32b73a103a37b5b2b760791b6064820152608401610469565b6000828152600660205260408120805461082990611816565b80601f016020809104026020016040519081016040528092919081815260200182805461085590611816565b80156108a25780601f10610877576101008083540402835291602001916108a2565b820191906000526020600020905b81548152906001019060200180831161088557829003601f168201915b5050505050905060006108b3610e18565b90508051600014156108c6575092915050565b8151156108f85780826040516020016108e09291906118a2565b60405160208183030381529060405292505050919050565b61090184610f76565b949350505050565b6000908152600260205260409020546001600160a01b0316151590565b600081815260046020526040902080546001600160a01b0319166001600160a01b038416908117909155819061095b8261062b565b6001600160a01b03167f8c5be1e5ebec7d5bd14f71427d1e84f3dd0314c0f7b2291e5b200ac8c7c3b92560405160405180910390a45050565b61099d82610909565b610a005760405162461bcd60e51b815260206004820152602e60248201527f45524337323155524953746f726167653a2055524920736574206f66206e6f6e60448201526d32bc34b9ba32b73a103a37b5b2b760911b6064820152608401610469565b6000828152600660209081526040909120825161059f9284019061135c565b6000610a2a82610909565b610a8b5760405162461bcd60e51b815260206004820152602c60248201527f4552433732313a206f70657261746f7220717565727920666f72206e6f6e657860448201526b34b9ba32b73a103a37b5b2b760a11b6064820152608401610469565b6000610a968361062b565b9050806001600160a01b0316846001600160a01b03161480610ad15750836001600160a01b0316610ac684610401565b6001600160a01b0316145b8061090157506001600160a01b0380821660009081526005602090815260408083209388168352929052205460ff16610901565b826001600160a01b0316610b188261062b565b6001600160a01b031614610b805760405162461bcd60e51b815260206004820152602960248201527f4552433732313a207472616e73666572206f6620746f6b656e2074686174206960448201526839903737ba1037bbb760b91b6064820152608401610469565b6001600160a01b038216610be25760405162461bcd60e51b8152602060048201526024808201527f4552433732313a207472616e7366657220746f20746865207a65726f206164646044820152637265737360e01b6064820152608401610469565b610bed600082610926565b6001600160a01b0383166000908152600360205260408120805460019290610c169084906118e7565b90915550506001600160a01b0382166000908152600360205260408120805460019290610c449084906118fe565b909155505060008181526002602052604080822080546001600160a01b0319166001600160a01b0386811691821790925591518493918716917fddf252ad1be2c89b69c2b068fc378daa952ba7f163c4a11628f55a4df523b3ef91a4505050565b6001600160a01b038216610cfb5760405162461bcd60e51b815260206004820181905260248201527f4552433732313a206d696e7420746f20746865207a65726f20616464726573736044820152606401610469565b610d0481610909565b15610d515760405162461bcd60e51b815260206004820152601c60248201527f4552433732313a20746f6b656e20616c7265616479206d696e746564000000006044820152606401610469565b6001600160a01b0382166000908152600360205260408120805460019290610d7a9084906118fe565b909155505060008181526002602052604080822080546001600160a01b0319166001600160a01b03861690811790915590518392907fddf252ad1be2c89b69c2b068fc378daa952ba7f163c4a11628f55a4df523b3ef908290a45050565b610de181611041565b60008181526006602052604090208054610dfa90611816565b159050610611576000818152600660205260408120610611916113d0565b60606007805461037e90611816565b610e318383610ca5565b610e3e60008484846110dc565b61059f5760405162461bcd60e51b815260040161046990611916565b6105ae828260405180602001604052806000815250610e27565b816001600160a01b0316836001600160a01b03161415610ed65760405162461bcd60e51b815260206004820152601960248201527f4552433732313a20617070726f766520746f2063616c6c6572000000000000006044820152606401610469565b6001600160a01b03838116600081815260056020908152604080832094871680845294825291829020805460ff191686151590811790915591519182527f17307eab39ab6107e8899845ad3d59bd9653f200f220920489ca2b5937696c31910160405180910390a3505050565b610f4e848484610b05565b610f5a848484846110dc565b6107995760405162461bcd60e51b815260040161046990611916565b6060610f8182610909565b610fe55760405162461bcd60e51b815260206004820152602f60248201527f4552433732314d657461646174613a2055524920717565727920666f72206e6f60448201526e3732bc34b9ba32b73a103a37b5b2b760891b6064820152608401610469565b6000610fef610e18565b9050600081511161100f576040518060200160405280600081525061103a565b80611019846111da565b60405160200161102a9291906118a2565b6040516020818303038152906040525b9392505050565b600061104c8261062b565b9050611059600083610926565b6001600160a01b03811660009081526003602052604081208054600192906110829084906118e7565b909155505060008281526002602052604080822080546001600160a01b0319169055518391906001600160a01b038416907fddf252ad1be2c89b69c2b068fc378daa952ba7f163c4a11628f55a4df523b3ef908390a45050565b60006001600160a01b0384163b156111cf57604051630a85bd0160e11b81526001600160a01b0385169063150b7a0290611120903390899088908890600401611968565b6020604051808303816000875af192505050801561115b575060408051601f3d908101601f19168201909252611158918101906119a5565b60015b6111b5573d808015611189576040519150601f19603f3d011682016040523d82523d6000602084013e61118e565b606091505b5080516111ad5760405162461bcd60e51b815260040161046990611916565b805181602001fd5b6001600160e01b031916630a85bd0160e11b149050610901565b506001949350505050565b6060816111fe5750506040805180820190915260018152600360fc1b602082015290565b8160005b81156112285780611212816119c2565b91506112219050600a836119f3565b9150611202565b60008167ffffffffffffffff81111561124357611243611518565b6040519080825280601f01601f19166020018201604052801561126d576020820181803683370190505b5090505b8415610901576112826001836118e7565b915061128f600a86611a07565b61129a9060306118fe565b60f81b8183815181106112af576112af611a1b565b60200101906001600160f81b031916908160001a9053506112d1600a866119f3565b9450611271565b8280546112e490611816565b90600052602060002090601f016020900481019282611306576000855561134c565b82601f1061131f5782800160ff1982351617855561134c565b8280016001018555821561134c579182015b8281111561134c578235825591602001919060010190611331565b50611358929150611406565b5090565b82805461136890611816565b90600052602060002090601f01602090048101928261138a576000855561134c565b82601f106113a357805160ff191683800117855561134c565b8280016001018555821561134c579182015b8281111561134c5782518255916020019190600101906113b5565b5080546113dc90611816565b6000825580601f106113ec575050565b601f01602090049060005260206000209081019061061191905b5b808211156113585760008155600101611407565b6001600160e01b03198116811461061157600080fd5b60006020828403121561144357600080fd5b813561103a8161141b565b60005b83811015611469578181015183820152602001611451565b838111156107995750506000910152565b6000815180845261149281602086016020860161144e565b601f01601f19169290920160200192915050565b60208152600061103a602083018461147a565b6000602082840312156114cb57600080fd5b5035919050565b80356001600160a01b03811681146114e957600080fd5b919050565b6000806040838503121561150157600080fd5b61150a836114d2565b946020939093013593505050565b634e487b7160e01b600052604160045260246000fd5b600067ffffffffffffffff8084111561154957611549611518565b604051601f8501601f19908116603f0116810190828211818310171561157157611571611518565b8160405280935085815286868601111561158a57600080fd5b858560208301376000602087830101525050509392505050565b600080604083850312156115b757600080fd5b82359150602083013567ffffffffffffffff8111156115d557600080fd5b8301601f810185136115e657600080fd5b6115f58582356020840161152e565b9150509250929050565b60008060006060848603121561161457600080fd5b61161d846114d2565b925061162b602085016114d2565b9150604084013590509250925092565b6000806020838503121561164e57600080fd5b823567ffffffffffffffff8082111561166657600080fd5b818501915085601f83011261167a57600080fd5b81358181111561168957600080fd5b86602082850101111561169b57600080fd5b60209290920196919550909350505050565b6000602082840312156116bf57600080fd5b61103a826114d2565b600082601f8301126116d957600080fd5b61103a8383356020850161152e565b6000806000606084860312156116fd57600080fd5b611706846114d2565b925060208401359150604084013567ffffffffffffffff81111561172957600080fd5b611735868287016116c8565b9150509250925092565b6000806040838503121561175257600080fd5b61175b836114d2565b91506020830135801515811461177057600080fd5b809150509250929050565b6000806000806080858703121561179157600080fd5b61179a856114d2565b93506117a8602086016114d2565b925060408501359150606085013567ffffffffffffffff8111156117cb57600080fd5b6117d7878288016116c8565b91505092959194509250565b600080604083850312156117f657600080fd5b6117ff836114d2565b915061180d602084016114d2565b90509250929050565b600181811c9082168061182a57607f821691505b6020821081141561184b57634e487b7160e01b600052602260045260246000fd5b50919050565b60208082526031908201527f4552433732313a207472616e736665722063616c6c6572206973206e6f74206f6040820152701ddb995c881b9bdc88185c1c1c9bdd9959607a1b606082015260800190565b600083516118b481846020880161144e565b8351908301906118c881836020880161144e565b01949350505050565b634e487b7160e01b600052601160045260246000fd5b6000828210156118f9576118f96118d1565b500390565b60008219821115611911576119116118d1565b500190565b60208082526032908201527f4552433732313a207472616e7366657220746f206e6f6e20455243373231526560408201527131b2b4bb32b91034b6b83632b6b2b73a32b960711b606082015260800190565b6001600160a01b038581168252841660208201526040810183905260806060820181905260009061199b9083018461147a565b9695505050505050565b6000602082840312156119b757600080fd5b815161103a8161141b565b60006000198214156119d6576119d66118d1565b5060010190565b634e487b7160e01b600052601260045260246000fd5b600082611a0257611a026119dd565b500490565b600082611a1657611a166119dd565b500690565b634e487b7160e01b600052603260045260246000fdfea26469706673582212204340fbbf8dde81f1046a48208e84bd6b0f731132dd5a7087de251b4d9a0c201f64736f6c634300080a0033",
    "sourcePath": "d:/Github/new_token/contracts/contracts/mocks/ERC721URIStorageMock.sol",
    "compiler": {
        "name": "solc",
        "version": "0.8.10+commit.fc410830"
    },
    "functionHashes": {
        "approve(address,uint256)": "095ea7b3",
        "balanceOf(address)": "70a08231",
        "baseURI()": "6c0360eb",
        "burn(uint256)": "42966c68",
        "exists(uint256)": "4f558e79",
        "getApproved(uint256)": "081812fc",
        "isApprovedForAll(address,address)": "e985e9c5",
        "mint(address,uint256)": "40c10f19",
        "name()": "06fdde03",
        "ownerOf(uint256)": "6352211e",
        "safeMint(address,uint256)": "a1448194",
        "safeMint(address,uint256,bytes)": "8832e6e3",
        "safeTransferFrom(address,address,uint256)": "42842e0e",
        "safeTransferFrom(address,address,uint256,bytes)": "b88d4fde",
        "setApprovalForAll(address,bool)": "a22cb465",
        "setBaseURI(string)": "55f804b3",
        "setTokenURI(uint256,string)": "162094c4",
        "supportsInterface(bytes4)": "01ffc9a7",
        "symbol()": "95d89b41",
        "tokenURI(uint256)": "c87b56dd",
        "transferFrom(address,address,uint256)": "23b872dd"
    },
    "gasEstimates": {
        "creation": {
            "codeDepositCost": "1351800",
            "executionCost": "infinite",
            "totalCost": "infinite"
        },
        "external": {
            "approve(address,uint256)": "infinite",
            "balanceOf(address)": "2678",
            "baseURI()": "infinite",
            "burn(uint256)": "infinite",
            "exists(uint256)": "2620",
            "getApproved(uint256)": "4799",
            "isApprovedForAll(address,address)": "infinite",
            "mint(address,uint256)": "53300",
            "name()": "infinite",
            "ownerOf(uint256)": "2601",
            "safeMint(address,uint256)": "infinite",
            "safeMint(address,uint256,bytes)": "infinite",
            "safeTransferFrom(address,address,uint256)": "infinite",
            "safeTransferFrom(address,address,uint256,bytes)": "infinite",
            "setApprovalForAll(address,bool)": "26752",
            "setBaseURI(string)": "infinite",
            "setTokenURI(uint256,string)": "infinite",
            "supportsInterface(bytes4)": "534",
            "symbol()": "infinite",
            "tokenURI(uint256)": "infinite",
            "transferFrom(address,address,uint256)": "infinite"
        },
        "internal": {
            "_baseURI()": "infinite"
        }
    }
}