{
    "contractName": "EtherReceiverMock",
    "abi": [
        {
            "inputs": [
                {
                    "internalType": "bool",
                    "name": "acceptEther",
                    "type": "bool"
                }
            ],
            "name": "setAcceptEther",
            "outputs": [],
            "stateMutability": "nonpayable",
            "type": "function"
        },
        {
            "stateMutability": "payable",
            "type": "receive"
        }
    ],
    "bytecode": "608060405234801561001057600080fd5b5060c08061001f6000396000f3fe60806040526004361060205760003560e01c80634fea120c14603957600080fd5b3660345760005460ff16603257600080fd5b005b600080fd5b348015604457600080fd5b50603260503660046063565b6000805460ff1916911515919091179055565b600060208284031215607457600080fd5b81358015158114608357600080fd5b939250505056fea26469706673582212200d6079ccfed7884485dc35b2afa2ddc585e74c706f475b7bb6924d1bf38f903764736f6c634300080a0033",
    "sourcePath": "d:/Github/new_token/contracts/contracts/mocks/EtherReceiverMock.sol",
    "compiler": {
        "name": "solc",
        "version": "0.8.10+commit.fc410830"
    },
    "functionHashes": {
        "setAcceptEther(bool)": "4fea120c"
    },
    "gasEstimates": {
        "creation": {
            "codeDepositCost": "38400",
            "executionCost": "87",
            "totalCost": "38487"
        },
        "external": {
            "setAcceptEther(bool)": "24460"
        }
    }
}