{
    "contractName": "GovernorTimelockCompoundMock",
    "abi": [
        {
            "inputs": [
                {
                    "internalType": "string",
                    "name": "name_",
                    "type": "string"
                },
                {
                    "internalType": "contract ERC20Votes",
                    "name": "token_",
                    "type": "address"
                },
                {
                    "internalType": "uint256",
                    "name": "votingDelay_",
                    "type": "uint256"
                },
                {
                    "internalType": "uint256",
                    "name": "votingPeriod_",
                    "type": "uint256"
                },
                {
                    "internalType": "contract ICompoundTimelock",
                    "name": "timelock_",
                    "type": "address"
                },
                {
                    "internalType": "uint256",
                    "name": "quorumNumerator_",
                    "type": "uint256"
                }
            ],
            "stateMutability": "nonpayable",
            "type": "constructor"
        },
        {
            "anonymous": false,
            "inputs": [
                {
                    "indexed": false,
                    "internalType": "uint256",
                    "name": "proposalId",
                    "type": "uint256"
                }
            ],
            "name": "ProposalCanceled",
            "type": "event"
        },
        {
            "anonymous": false,
            "inputs": [
                {
                    "indexed": false,
                    "internalType": "uint256",
                    "name": "proposalId",
                    "type": "uint256"
                },
                {
                    "indexed": false,
                    "internalType": "address",
                    "name": "proposer",
                    "type": "address"
                },
                {
                    "indexed": false,
                    "internalType": "address[]",
                    "name": "targets",
                    "type": "address[]"
                },
                {
                    "indexed": false,
                    "internalType": "uint256[]",
                    "name": "values",
                    "type": "uint256[]"
                },
                {
                    "indexed": false,
                    "internalType": "string[]",
                    "name": "signatures",
                    "type": "string[]"
                },
                {
                    "indexed": false,
                    "internalType": "bytes[]",
                    "name": "calldatas",
                    "type": "bytes[]"
                },
                {
                    "indexed": false,
                    "internalType": "uint256",
                    "name": "startBlock",
                    "type": "uint256"
                },
                {
                    "indexed": false,
                    "internalType": "uint256",
                    "name": "endBlock",
                    "type": "uint256"
                },
                {
                    "indexed": false,
                    "internalType": "string",
                    "name": "description",
                    "type": "string"
                }
            ],
            "name": "ProposalCreated",
            "type": "event"
        },
        {
            "anonymous": false,
            "inputs": [
                {
                    "indexed": false,
                    "internalType": "uint256",
                    "name": "proposalId",
                    "type": "uint256"
                }
            ],
            "name": "ProposalExecuted",
            "type": "event"
        },
        {
            "anonymous": false,
            "inputs": [
                {
                    "indexed": false,
                    "internalType": "uint256",
                    "name": "proposalId",
                    "type": "uint256"
                },
                {
                    "indexed": false,
                    "internalType": "uint256",
                    "name": "eta",
                    "type": "uint256"
                }
            ],
            "name": "ProposalQueued",
            "type": "event"
        },
        {
            "anonymous": false,
            "inputs": [
                {
                    "indexed": false,
                    "internalType": "uint256",
                    "name": "oldProposalThreshold",
                    "type": "uint256"
                },
                {
                    "indexed": false,
                    "internalType": "uint256",
                    "name": "newProposalThreshold",
                    "type": "uint256"
                }
            ],
            "name": "ProposalThresholdSet",
            "type": "event"
        },
        {
            "anonymous": false,
            "inputs": [
                {
                    "indexed": false,
                    "internalType": "uint256",
                    "name": "oldQuorumNumerator",
                    "type": "uint256"
                },
                {
                    "indexed": false,
                    "internalType": "uint256",
                    "name": "newQuorumNumerator",
                    "type": "uint256"
                }
            ],
            "name": "QuorumNumeratorUpdated",
            "type": "event"
        },
        {
            "anonymous": false,
            "inputs": [
                {
                    "indexed": false,
                    "internalType": "address",
                    "name": "oldTimelock",
                    "type": "address"
                },
                {
                    "indexed": false,
                    "internalType": "address",
                    "name": "newTimelock",
                    "type": "address"
                }
            ],
            "name": "TimelockChange",
            "type": "event"
        },
        {
            "anonymous": false,
            "inputs": [
                {
                    "indexed": true,
                    "internalType": "address",
                    "name": "voter",
                    "type": "address"
                },
                {
                    "indexed": false,
                    "internalType": "uint256",
                    "name": "proposalId",
                    "type": "uint256"
                },
                {
                    "indexed": false,
                    "internalType": "uint8",
                    "name": "support",
                    "type": "uint8"
                },
                {
                    "indexed": false,
                    "internalType": "uint256",
                    "name": "weight",
                    "type": "uint256"
                },
                {
                    "indexed": false,
                    "internalType": "string",
                    "name": "reason",
                    "type": "string"
                }
            ],
            "name": "VoteCast",
            "type": "event"
        },
        {
            "anonymous": false,
            "inputs": [
                {
                    "indexed": false,
                    "internalType": "uint256",
                    "name": "oldVotingDelay",
                    "type": "uint256"
                },
                {
                    "indexed": false,
                    "internalType": "uint256",
                    "name": "newVotingDelay",
                    "type": "uint256"
                }
            ],
            "name": "VotingDelaySet",
            "type": "event"
        },
        {
            "anonymous": false,
            "inputs": [
                {
                    "indexed": false,
                    "internalType": "uint256",
                    "name": "oldVotingPeriod",
                    "type": "uint256"
                },
                {
                    "indexed": false,
                    "internalType": "uint256",
                    "name": "newVotingPeriod",
                    "type": "uint256"
                }
            ],
            "name": "VotingPeriodSet",
            "type": "event"
        },
        {
            "inputs": [],
            "name": "BALLOT_TYPEHASH",
            "outputs": [
                {
                    "internalType": "bytes32",
                    "name": "",
                    "type": "bytes32"
                }
            ],
            "stateMutability": "view",
            "type": "function"
        },
        {
            "inputs": [],
            "name": "COUNTING_MODE",
            "outputs": [
                {
                    "internalType": "string",
                    "name": "",
                    "type": "string"
                }
            ],
            "stateMutability": "pure",
            "type": "function"
        },
        {
            "inputs": [],
            "name": "__acceptAdmin",
            "outputs": [],
            "stateMutability": "nonpayable",
            "type": "function"
        },
        {
            "inputs": [
                {
                    "internalType": "address[]",
                    "name": "targets",
                    "type": "address[]"
                },
                {
                    "internalType": "uint256[]",
                    "name": "values",
                    "type": "uint256[]"
                },
                {
                    "internalType": "bytes[]",
                    "name": "calldatas",
                    "type": "bytes[]"
                },
                {
                    "internalType": "bytes32",
                    "name": "salt",
                    "type": "bytes32"
                }
            ],
            "name": "cancel",
            "outputs": [
                {
                    "internalType": "uint256",
                    "name": "proposalId",
                    "type": "uint256"
                }
            ],
            "stateMutability": "nonpayable",
            "type": "function"
        },
        {
            "inputs": [
                {
                    "internalType": "uint256",
                    "name": "proposalId",
                    "type": "uint256"
                },
                {
                    "internalType": "uint8",
                    "name": "support",
                    "type": "uint8"
                }
            ],
            "name": "castVote",
            "outputs": [
                {
                    "internalType": "uint256",
                    "name": "",
                    "type": "uint256"
                }
            ],
            "stateMutability": "nonpayable",
            "type": "function"
        },
        {
            "inputs": [
                {
                    "internalType": "uint256",
                    "name": "proposalId",
                    "type": "uint256"
                },
                {
                    "internalType": "uint8",
                    "name": "support",
                    "type": "uint8"
                },
                {
                    "internalType": "uint8",
                    "name": "v",
                    "type": "uint8"
                },
                {
                    "internalType": "bytes32",
                    "name": "r",
                    "type": "bytes32"
                },
                {
                    "internalType": "bytes32",
                    "name": "s",
                    "type": "bytes32"
                }
            ],
            "name": "castVoteBySig",
            "outputs": [
                {
                    "internalType": "uint256",
                    "name": "",
                    "type": "uint256"
                }
            ],
            "stateMutability": "nonpayable",
            "type": "function"
        },
        {
            "inputs": [
                {
                    "internalType": "uint256",
                    "name": "proposalId",
                    "type": "uint256"
                },
                {
                    "internalType": "uint8",
                    "name": "support",
                    "type": "uint8"
                },
                {
                    "internalType": "string",
                    "name": "reason",
                    "type": "string"
                }
            ],
            "name": "castVoteWithReason",
            "outputs": [
                {
                    "internalType": "uint256",
                    "name": "",
                    "type": "uint256"
                }
            ],
            "stateMutability": "nonpayable",
            "type": "function"
        },
        {
            "inputs": [
                {
                    "internalType": "address[]",
                    "name": "targets",
                    "type": "address[]"
                },
                {
                    "internalType": "uint256[]",
                    "name": "values",
                    "type": "uint256[]"
                },
                {
                    "internalType": "bytes[]",
                    "name": "calldatas",
                    "type": "bytes[]"
                },
                {
                    "internalType": "bytes32",
                    "name": "descriptionHash",
                    "type": "bytes32"
                }
            ],
            "name": "execute",
            "outputs": [
                {
                    "internalType": "uint256",
                    "name": "",
                    "type": "uint256"
                }
            ],
            "stateMutability": "payable",
            "type": "function"
        },
        {
            "inputs": [
                {
                    "internalType": "address",
                    "name": "account",
                    "type": "address"
                },
                {
                    "internalType": "uint256",
                    "name": "blockNumber",
                    "type": "uint256"
                }
            ],
            "name": "getVotes",
            "outputs": [
                {
                    "internalType": "uint256",
                    "name": "",
                    "type": "uint256"
                }
            ],
            "stateMutability": "view",
            "type": "function"
        },
        {
            "inputs": [
                {
                    "internalType": "uint256",
                    "name": "proposalId",
                    "type": "uint256"
                },
                {
                    "internalType": "address",
                    "name": "account",
                    "type": "address"
                }
            ],
            "name": "hasVoted",
            "outputs": [
                {
                    "internalType": "bool",
                    "name": "",
                    "type": "bool"
                }
            ],
            "stateMutability": "view",
            "type": "function"
        },
        {
            "inputs": [
                {
                    "internalType": "address[]",
                    "name": "targets",
                    "type": "address[]"
                },
                {
                    "internalType": "uint256[]",
                    "name": "values",
                    "type": "uint256[]"
                },
                {
                    "internalType": "bytes[]",
                    "name": "calldatas",
                    "type": "bytes[]"
                },
                {
                    "internalType": "bytes32",
                    "name": "descriptionHash",
                    "type": "bytes32"
                }
            ],
            "name": "hashProposal",
            "outputs": [
                {
                    "internalType": "uint256",
                    "name": "",
                    "type": "uint256"
                }
            ],
            "stateMutability": "pure",
            "type": "function"
        },
        {
            "inputs": [],
            "name": "name",
            "outputs": [
                {
                    "internalType": "string",
                    "name": "",
                    "type": "string"
                }
            ],
            "stateMutability": "view",
            "type": "function"
        },
        {
            "inputs": [
                {
                    "internalType": "uint256",
                    "name": "proposalId",
                    "type": "uint256"
                }
            ],
            "name": "proposalDeadline",
            "outputs": [
                {
                    "internalType": "uint256",
                    "name": "",
                    "type": "uint256"
                }
            ],
            "stateMutability": "view",
            "type": "function"
        },
        {
            "inputs": [
                {
                    "internalType": "uint256",
                    "name": "proposalId",
                    "type": "uint256"
                }
            ],
            "name": "proposalEta",
            "outputs": [
                {
                    "internalType": "uint256",
                    "name": "",
                    "type": "uint256"
                }
            ],
            "stateMutability": "view",
            "type": "function"
        },
        {
            "inputs": [
                {
                    "internalType": "uint256",
                    "name": "proposalId",
                    "type": "uint256"
                }
            ],
            "name": "proposalSnapshot",
            "outputs": [
                {
                    "internalType": "uint256",
                    "name": "",
                    "type": "uint256"
                }
            ],
            "stateMutability": "view",
            "type": "function"
        },
        {
            "inputs": [],
            "name": "proposalThreshold",
            "outputs": [
                {
                    "internalType": "uint256",
                    "name": "",
                    "type": "uint256"
                }
            ],
            "stateMutability": "view",
            "type": "function"
        },
        {
            "inputs": [
                {
                    "internalType": "uint256",
                    "name": "proposalId",
                    "type": "uint256"
                }
            ],
            "name": "proposalVotes",
            "outputs": [
                {
                    "internalType": "uint256",
                    "name": "againstVotes",
                    "type": "uint256"
                },
                {
                    "internalType": "uint256",
                    "name": "forVotes",
                    "type": "uint256"
                },
                {
                    "internalType": "uint256",
                    "name": "abstainVotes",
                    "type": "uint256"
                }
            ],
            "stateMutability": "view",
            "type": "function"
        },
        {
            "inputs": [
                {
                    "internalType": "address[]",
                    "name": "targets",
                    "type": "address[]"
                },
                {
                    "internalType": "uint256[]",
                    "name": "values",
                    "type": "uint256[]"
                },
                {
                    "internalType": "bytes[]",
                    "name": "calldatas",
                    "type": "bytes[]"
                },
                {
                    "internalType": "string",
                    "name": "description",
                    "type": "string"
                }
            ],
            "name": "propose",
            "outputs": [
                {
                    "internalType": "uint256",
                    "name": "",
                    "type": "uint256"
                }
            ],
            "stateMutability": "nonpayable",
            "type": "function"
        },
        {
            "inputs": [
                {
                    "internalType": "address[]",
                    "name": "targets",
                    "type": "address[]"
                },
                {
                    "internalType": "uint256[]",
                    "name": "values",
                    "type": "uint256[]"
                },
                {
                    "internalType": "bytes[]",
                    "name": "calldatas",
                    "type": "bytes[]"
                },
                {
                    "internalType": "bytes32",
                    "name": "descriptionHash",
                    "type": "bytes32"
                }
            ],
            "name": "queue",
            "outputs": [
                {
                    "internalType": "uint256",
                    "name": "",
                    "type": "uint256"
                }
            ],
            "stateMutability": "nonpayable",
            "type": "function"
        },
        {
            "inputs": [
                {
                    "internalType": "uint256",
                    "name": "blockNumber",
                    "type": "uint256"
                }
            ],
            "name": "quorum",
            "outputs": [
                {
                    "internalType": "uint256",
                    "name": "",
                    "type": "uint256"
                }
            ],
            "stateMutability": "view",
            "type": "function"
        },
        {
            "inputs": [],
            "name": "quorumDenominator",
            "outputs": [
                {
                    "internalType": "uint256",
                    "name": "",
                    "type": "uint256"
                }
            ],
            "stateMutability": "view",
            "type": "function"
        },
        {
            "inputs": [],
            "name": "quorumNumerator",
            "outputs": [
                {
                    "internalType": "uint256",
                    "name": "",
                    "type": "uint256"
                }
            ],
            "stateMutability": "view",
            "type": "function"
        },
        {
            "inputs": [
                {
                    "internalType": "uint256",
                    "name": "newProposalThreshold",
                    "type": "uint256"
                }
            ],
            "name": "setProposalThreshold",
            "outputs": [],
            "stateMutability": "nonpayable",
            "type": "function"
        },
        {
            "inputs": [
                {
                    "internalType": "uint256",
                    "name": "newVotingDelay",
                    "type": "uint256"
                }
            ],
            "name": "setVotingDelay",
            "outputs": [],
            "stateMutability": "nonpayable",
            "type": "function"
        },
        {
            "inputs": [
                {
                    "internalType": "uint256",
                    "name": "newVotingPeriod",
                    "type": "uint256"
                }
            ],
            "name": "setVotingPeriod",
            "outputs": [],
            "stateMutability": "nonpayable",
            "type": "function"
        },
        {
            "inputs": [
                {
                    "internalType": "uint256",
                    "name": "proposalId",
                    "type": "uint256"
                }
            ],
            "name": "state",
            "outputs": [
                {
                    "internalType": "enum IGovernor.ProposalState",
                    "name": "",
                    "type": "uint8"
                }
            ],
            "stateMutability": "view",
            "type": "function"
        },
        {
            "inputs": [
                {
                    "internalType": "bytes4",
                    "name": "interfaceId",
                    "type": "bytes4"
                }
            ],
            "name": "supportsInterface",
            "outputs": [
                {
                    "internalType": "bool",
                    "name": "",
                    "type": "bool"
                }
            ],
            "stateMutability": "view",
            "type": "function"
        },
        {
            "inputs": [],
            "name": "timelock",
            "outputs": [
                {
                    "internalType": "address",
                    "name": "",
                    "type": "address"
                }
            ],
            "stateMutability": "view",
            "type": "function"
        },
        {
            "inputs": [],
            "name": "token",
            "outputs": [
                {
                    "internalType": "contract ERC20Votes",
                    "name": "",
                    "type": "address"
                }
            ],
            "stateMutability": "view",
            "type": "function"
        },
        {
            "inputs": [
                {
                    "internalType": "uint256",
                    "name": "newQuorumNumerator",
                    "type": "uint256"
                }
            ],
            "name": "updateQuorumNumerator",
            "outputs": [],
            "stateMutability": "nonpayable",
            "type": "function"
        },
        {
            "inputs": [
                {
                    "internalType": "contract ICompoundTimelock",
                    "name": "newTimelock",
                    "type": "address"
                }
            ],
            "name": "updateTimelock",
            "outputs": [],
            "stateMutability": "nonpayable",
            "type": "function"
        },
        {
            "inputs": [],
            "name": "version",
            "outputs": [
                {
                    "internalType": "string",
                    "name": "",
                    "type": "string"
                }
            ],
            "stateMutability": "view",
            "type": "function"
        },
        {
            "inputs": [],
            "name": "votingDelay",
            "outputs": [
                {
                    "internalType": "uint256",
                    "name": "",
                    "type": "uint256"
                }
            ],
            "stateMutability": "view",
            "type": "function"
        },
        {
            "inputs": [],
            "name": "votingPeriod",
            "outputs": [
                {
                    "internalType": "uint256",
                    "name": "",
                    "type": "uint256"
                }
            ],
            "stateMutability": "view",
            "type": "function"
        },
        {
            "stateMutability": "payable",
            "type": "receive"
        }
    ],
    "bytecode": "6101606040523480156200001257600080fd5b50604051620036ff380380620036ff833981016040819052620000359162000496565b808583868660008b806200005d6040805180820190915260018152603160f81b602082015290565b815160208084019190912082518383012060e08290526101008190524660a0818152604080517f8b73c3c69bb8fe3d512ecc4cf759cc79239f7b179b0ffacaa9a75d522b39400f81880181905281830187905260608201869052608082019490945230818401528151808203909301835260c00190528051940193909320919290916080523060c0526101205250508251620001039250600091506020840190620003bd565b506200011190508362000161565b6200011c82620001a2565b620001278162000249565b5050506200013b816200028a60201b60201c565b506001600160a01b0316610140526200015481620002f3565b50505050505050620005f2565b60025460408051918252602082018390527fc565b045403dc03c2eea82b81a0465edad9e2e7fc4d97e11421c209da93d7a93910160405180910390a1600255565b60008111620002085760405162461bcd60e51b815260206004820152602760248201527f476f7665726e6f7253657474696e67733a20766f74696e6720706572696f6420604482015266746f6f206c6f7760c81b60648201526084015b60405180910390fd5b60035460408051918252602082018390527f7e3f7f0708a84de9203036abaa450dccc85ad5ff52f78c170f3edb55cf5e8828910160405180910390a1600355565b60045460408051918252602082018390527fccb45da8d5717e6c4544694297c4ba5cf151d455c9bb0ed4fc7a38411bc05461910160405180910390a1600455565b600554604080516001600160a01b03928316815291831660208301527f08f74ea46ef7894f65eabfb5e6e695de773a000b47c529ab559178069b226401910160405180910390a1600580546001600160a01b0319166001600160a01b0392909216919091179055565b6064811115620003785760405162461bcd60e51b815260206004820152604360248201527f476f7665726e6f72566f74657351756f72756d4672616374696f6e3a2071756f60448201527f72756d4e756d657261746f72206f7665722071756f72756d44656e6f6d696e616064820152623a37b960e91b608482015260a401620001ff565b600780549082905560408051828152602081018490527f0553476bf02ef2726e8ce5ced78d63e26e602e4a2257b1f559418e24b4633997910160405180910390a15050565b828054620003cb90620005b5565b90600052602060002090601f016020900481019282620003ef57600085556200043a565b82601f106200040a57805160ff19168380011785556200043a565b828001600101855582156200043a579182015b828111156200043a5782518255916020019190600101906200041d565b50620004489291506200044c565b5090565b5b808211156200044857600081556001016200044d565b634e487b7160e01b600052604160045260246000fd5b80516001600160a01b03811681146200049157600080fd5b919050565b60008060008060008060c08789031215620004b057600080fd5b86516001600160401b0380821115620004c857600080fd5b818901915089601f830112620004dd57600080fd5b815181811115620004f257620004f262000463565b604051601f8201601f19908116603f011681019083821181831017156200051d576200051d62000463565b81604052828152602093508c848487010111156200053a57600080fd5b600091505b828210156200055e57848201840151818301850152908301906200053f565b82821115620005705760008484830101525b99506200058291505089820162000479565b965050506040870151935060608701519250620005a26080880162000479565b915060a087015190509295509295509295565b600181811c90821680620005ca57607f821691505b60208210811415620005ec57634e487b7160e01b600052602260045260246000fd5b50919050565b60805160a05160c05160e0516101005161012051610140516130a46200065b600039600081816106ea0152818161181701526118e201526000611ba701526000611bf601526000611bd101526000611b2a01526000611b5401526000611b7e01526130a46000f3fe6080604052600436106101fd5760003560e01c80637d5e81e21161010d578063c59057e4116100a0578063ea0217cf1161006f578063ea0217cf14610658578063eb9019d414610678578063ece40cc114610698578063f8ce560a146106b8578063fc0c546a146106d857600080fd5b8063c59057e41461058c578063d33219b4146105ac578063dd4e2ba5146105de578063deaaa7cc1461062457600080fd5b8063ab58fb8e116100dc578063ab58fb8e14610522578063b58131b014610542578063b9a6196114610557578063c01f9e371461056c57600080fd5b80637d5e81e2146104b957806397c3d334146104d9578063a7713a70146104ed578063a890c9101461050257600080fd5b80633bccf4fd11610190578063544ffc9c1161015f578063544ffc9c146103da57806354fd4d501461042f578063567813881461045957806370b0f660146104795780637b3c71d31461049957600080fd5b80633bccf4fd146103235780633e4f49e6146103435780634385963214610370578063452115d6146103ba57600080fd5b8063160cbed7116101cc578063160cbed7146102bb5780632656227d146102db5780632d63f693146102ee5780633932abb11461030e57600080fd5b806301ffc9a71461022557806302a251a31461025a57806306f3f9e61461027957806306fdde031461029957600080fd5b36610220573061020b61070c565b6001600160a01b03161461021e57600080fd5b005b600080fd5b34801561023157600080fd5b5061024561024036600461257a565b610725565b60405190151581526020015b60405180910390f35b34801561026657600080fd5b506003545b604051908152602001610251565b34801561028557600080fd5b5061021e6102943660046125a4565b610736565b3480156102a557600080fd5b506102ae610783565b6040516102519190612615565b3480156102c757600080fd5b5061026b6102d6366004612869565b610815565b61026b6102e9366004612869565b610b8f565b3480156102fa57600080fd5b5061026b6103093660046125a4565b610c62565b34801561031a57600080fd5b5060025461026b565b34801561032f57600080fd5b5061026b61033e36600461290e565b610c99565b34801561034f57600080fd5b5061036361035e3660046125a4565b610d2d565b6040516102519190612972565b34801561037c57600080fd5b5061024561038b36600461299a565b60008281526008602090815260408083206001600160a01b038516845260030190915290205460ff1692915050565b3480156103c657600080fd5b5061026b6103d5366004612869565b610d38565b3480156103e657600080fd5b506104146103f53660046125a4565b6000908152600860205260409020805460018201546002909201549092565b60408051938452602084019290925290820152606001610251565b34801561043b57600080fd5b506040805180820190915260018152603160f81b60208201526102ae565b34801561046557600080fd5b5061026b6104743660046129ca565b610d4f565b34801561048557600080fd5b5061021e6104943660046125a4565b610d78565b3480156104a557600080fd5b5061026b6104b43660046129f6565b610db9565b3480156104c557600080fd5b5061026b6104d4366004612a7c565b610e0b565b3480156104e557600080fd5b50606461026b565b3480156104f957600080fd5b5060075461026b565b34801561050e57600080fd5b5061021e61051d366004612b3c565b6110c7565b34801561052e57600080fd5b5061026b61053d3660046125a4565b611108565b34801561054e57600080fd5b5061026b611134565b34801561056357600080fd5b5061021e61113f565b34801561057857600080fd5b5061026b6105873660046125a4565b6111a9565b34801561059857600080fd5b5061026b6105a7366004612869565b6111d8565b3480156105b857600080fd5b506005546001600160a01b03165b6040516001600160a01b039091168152602001610251565b3480156105ea57600080fd5b506040805180820190915260208082527f737570706f72743d627261766f2671756f72756d3d666f722c6162737461696e908201526102ae565b34801561063057600080fd5b5061026b7f150214d74d59b7d1e90c73fc22ef3d991dd0a76b046543d4d80ab92d2a50328f81565b34801561066457600080fd5b5061021e6106733660046125a4565b611212565b34801561068457600080fd5b5061026b610693366004612b59565b611253565b3480156106a457600080fd5b5061021e6106b33660046125a4565b611266565b3480156106c457600080fd5b5061026b6106d33660046125a4565b6112a7565b3480156106e457600080fd5b506105c67f000000000000000000000000000000000000000000000000000000000000000081565b60006107206005546001600160a01b031690565b905090565b6000610730826112b2565b92915050565b61073e61070c565b6001600160a01b0316336001600160a01b0316146107775760405162461bcd60e51b815260040161076e90612b85565b60405180910390fd5b610780816112d7565b50565b60606000805461079290612bbc565b80601f01602080910402602001604051908101604052809291908181526020018280546107be90612bbc565b801561080b5780601f106107e05761010080835404028352916020019161080b565b820191906000526020600020905b8154815290600101906020018083116107ee57829003601f168201915b5050505050905090565b600080610824868686866111d8565b9050600461083182610d2d565b60078111156108425761084261295c565b1461085f5760405162461bcd60e51b815260040161076e90612bf1565b60055460408051630d48571f60e31b815290516000926001600160a01b031691636a42b8f89160048083019260209291908290030181865afa1580156108a9573d6000803e3d6000fd5b505050506040513d601f19601f820116820180604052508101906108cd9190612c32565b6108d79042612c61565b90506108f96108e58261139f565b60008481526006602052604090209061140b565b60005b8751811015610b4a5760055488516001600160a01b039091169063f2b06537908a908490811061092e5761092e612c79565b602002602001015189848151811061094857610948612c79565b602002602001015189858151811061096257610962612c79565b60200260200101518660405160200161097e9493929190612c8f565b604051602081830303815290604052805190602001206040518263ffffffff1660e01b81526004016109b291815260200190565b602060405180830381865afa1580156109cf573d6000803e3d6000fd5b505050506040513d601f19601f820116820180604052508101906109f39190612cd5565b15610a715760405162461bcd60e51b815260206004820152604260248201527f476f7665726e6f7254696d656c6f636b436f6d706f756e643a206964656e746960448201527f63616c2070726f706f73616c20616374696f6e20616c72656164792071756575606482015261195960f21b608482015260a40161076e565b60055488516001600160a01b0390911690633a66f901908a9084908110610a9a57610a9a612c79565b6020026020010151898481518110610ab457610ab4612c79565b6020026020010151898581518110610ace57610ace612c79565b6020026020010151866040518563ffffffff1660e01b8152600401610af69493929190612c8f565b6020604051808303816000875af1158015610b15573d6000803e3d6000fd5b505050506040513d601f19601f82011682018060405250810190610b399190612c32565b50610b4381612cf7565b90506108fc565b5060408051838152602081018390527f9a2e42fd6722813d69113e7d0079d3d940171428df7373df9c7f7617cfda289291015b60405180910390a15095945050505050565b600080610b9e868686866111d8565b90506000610bab82610d2d565b90506004816007811115610bc157610bc161295c565b1480610bde57506005816007811115610bdc57610bdc61295c565b145b610bfa5760405162461bcd60e51b815260040161076e90612bf1565b600082815260016020818152604092839020600201805460ff191690921790915590518381527f712ae1383f79ac853f8d882153778e0260ef8f03b504e2866e0593e04d2b291f910160405180910390a1610c588288888888611429565b5095945050505050565b60008181526001602090815260408083208151928301909152546001600160401b0316908190525b6001600160401b031692915050565b604080517f150214d74d59b7d1e90c73fc22ef3d991dd0a76b046543d4d80ab92d2a50328f602082015290810186905260ff851660608201526000908190610d0590610cfd906080016040516020818303038152906040528051906020012061143d565b86868661148b565b9050610d22878288604051806020016040528060008152506114a9565b979650505050505050565b6000610730826115b4565b6000610d4685858585611695565b95945050505050565b600080339050610d70848285604051806020016040528060008152506114a9565b949350505050565b610d8061070c565b6001600160a01b0316336001600160a01b031614610db05760405162461bcd60e51b815260040161076e90612b85565b610780816116a3565b600080339050610e0186828787878080601f0160208091040260200160405190810160405280939291908181526020018383808284376000920191909152506114a992505050565b9695505050505050565b6000610e15611134565b610e2433610693600143612d12565b1015610ea45760405162461bcd60e51b815260206004820152604360248201527f476f7665726e6f72436f6d7061746962696c697479427261766f3a2070726f7060448201527f6f73657220766f7465732062656c6f772070726f706f73616c207468726573686064820152621bdb1960ea1b608482015260a40161076e565b6000610eb986868686805190602001206111d8565b90508451865114610edc5760405162461bcd60e51b815260040161076e90612d29565b8351865114610efd5760405162461bcd60e51b815260040161076e90612d29565b6000865111610f4e5760405162461bcd60e51b815260206004820152601860248201527f476f7665726e6f723a20656d7074792070726f706f73616c0000000000000000604482015260640161076e565b600081815260016020908152604091829020825191820190925281546001600160401b03169081905215610fce5760405162461bcd60e51b815260206004820152602160248201527f476f7665726e6f723a2070726f706f73616c20616c72656164792065786973746044820152607360f81b606482015260840161076e565b6000610fe1610fdc60025490565b61139f565b610fea4361139f565b610ff49190612d6a565b90506000611004610fdc60035490565b61100e9083612d6a565b905061101a838361140b565b611027600184018261140b565b7f7d84a6263ae0d98d3329bd7b46bb4e8d6f98cd35a7adb45c274c8b7fd5ebd5e084338b8b8d516001600160401b0381111561106557611065612628565b60405190808252806020026020018201604052801561109857816020015b60608152602001906001900390816110835790505b508c88888e6040516110b299989796959493929190612e5e565b60405180910390a15091979650505050505050565b6110cf61070c565b6001600160a01b0316336001600160a01b0316146110ff5760405162461bcd60e51b815260040161076e90612b85565b610780816116e4565b60008181526006602090815260408083208151928301909152546001600160401b031690819052610c8a565b600061072060045490565b600560009054906101000a90046001600160a01b03166001600160a01b0316630e18b6816040518163ffffffff1660e01b8152600401600060405180830381600087803b15801561118f57600080fd5b505af11580156111a3573d6000803e3d6000fd5b50505050565b60008181526001602081815260408084208151928301909152909101546001600160401b031690819052610c8a565b6000848484846040516020016111f19493929190612f4d565b60408051601f19818403018152919052805160209091012095945050505050565b61121a61070c565b6001600160a01b0316336001600160a01b03161461124a5760405162461bcd60e51b815260040161076e90612b85565b6107808161174d565b600061125f83836117ee565b9392505050565b61126e61070c565b6001600160a01b0316336001600160a01b03161461129e5760405162461bcd60e51b815260040161076e90612b85565b61078081611884565b6000610730826118c5565b60006001600160e01b03198216636e665ced60e01b1480610730575061073082611969565b606481111561135a5760405162461bcd60e51b815260206004820152604360248201527f476f7665726e6f72566f74657351756f72756d4672616374696f6e3a2071756f60448201527f72756d4e756d657261746f72206f7665722071756f72756d44656e6f6d696e616064820152623a37b960e91b608482015260a40161076e565b600780549082905560408051828152602081018490527f0553476bf02ef2726e8ce5ced78d63e26e602e4a2257b1f559418e24b4633997910160405180910390a15050565b60006001600160401b038211156114075760405162461bcd60e51b815260206004820152602660248201527f53616665436173743a2076616c756520646f65736e27742066697420696e203660448201526534206269747360d01b606482015260840161076e565b5090565b815467ffffffffffffffff19166001600160401b0391909116179055565b611436858585858561199e565b5050505050565b600061073061144a611b1d565b8360405161190160f01b6020820152602281018390526042810182905260009060620160405160208183030381529060405280519060200120905092915050565b600080600061149c87878787611c44565b91509150610c5881611d31565b60008481526001602081905260408220906114c387610d2d565b60078111156114d4576114d461295c565b1461152d5760405162461bcd60e51b815260206004820152602360248201527f476f7665726e6f723a20766f7465206e6f742063757272656e746c792061637460448201526269766560e81b606482015260840161076e565b604080516020810190915281546001600160401b031690819052600090611555908790611253565b905061156387878784611eec565b856001600160a01b03167fb8e138887d0aa13bab447e82de9d5c1777041ecd21ca36ba824ff1e6c07ddda4888784886040516115a29493929190612f98565b60405180910390a29695505050505050565b6000806115c08361206b565b905060048160078111156115d6576115d661295c565b146115e15792915050565b60006115ec84611108565b9050806115fa575092915050565b600560009054906101000a90046001600160a01b03166001600160a01b031663c1a287e26040518163ffffffff1660e01b8152600401602060405180830381865afa15801561164d573d6000803e3d6000fd5b505050506040513d601f19601f820116820180604052508101906116719190612c32565b61167b9082612c61565b421061168b575060069392505050565b5060059392505050565b6000610d46858585856121cf565b60025460408051918252602082018390527fc565b045403dc03c2eea82b81a0465edad9e2e7fc4d97e11421c209da93d7a93910160405180910390a1600255565b600554604080516001600160a01b03928316815291831660208301527f08f74ea46ef7894f65eabfb5e6e695de773a000b47c529ab559178069b226401910160405180910390a1600580546001600160a01b0319166001600160a01b0392909216919091179055565b600081116117ad5760405162461bcd60e51b815260206004820152602760248201527f476f7665726e6f7253657474696e67733a20766f74696e6720706572696f6420604482015266746f6f206c6f7760c81b606482015260840161076e565b60035460408051918252602082018390527f7e3f7f0708a84de9203036abaa450dccc85ad5ff52f78c170f3edb55cf5e8828910160405180910390a1600355565b604051630748d63560e31b81526001600160a01b038381166004830152602482018390526000917f000000000000000000000000000000000000000000000000000000000000000090911690633a46b1a890604401602060405180830381865afa158015611860573d6000803e3d6000fd5b505050506040513d601f19601f8201168201806040525081019061125f9190612c32565b60045460408051918252602082018390527fccb45da8d5717e6c4544694297c4ba5cf151d455c9bb0ed4fc7a38411bc05461910160405180910390a1600455565b60006064600754604051632394e7a360e21b8152600481018590527f00000000000000000000000000000000000000000000000000000000000000006001600160a01b031690638e539e8c90602401602060405180830381865afa158015611931573d6000803e3d6000fd5b505050506040513d601f19601f820116820180604052508101906119559190612c32565b61195f9190612fc0565b6107309190612fdf565b60006001600160e01b0319821663bf26d89760e01b148061073057506301ffc9a760e01b6001600160e01b0319831614610730565b60006119a986611108565b905060008111611a155760405162461bcd60e51b815260206004820152603160248201527f476f7665726e6f7254696d656c6f636b436f6d706f756e643a2070726f706f73604482015270185b081b9bdd081e595d081c5d595d5959607a1b606482015260840161076e565b600554611a2b906001600160a01b0316346122ea565b60005b8551811015611b145760055486516001600160a01b0390911690630825f38f90889084908110611a6057611a60612c79565b6020026020010151878481518110611a7a57611a7a612c79565b6020026020010151878581518110611a9457611a94612c79565b6020026020010151866040518563ffffffff1660e01b8152600401611abc9493929190612c8f565b6000604051808303816000875af1158015611adb573d6000803e3d6000fd5b505050506040513d6000823e601f3d908101601f19168201604052611b039190810190613001565b50611b0d81612cf7565b9050611a2e565b50505050505050565b6000306001600160a01b037f000000000000000000000000000000000000000000000000000000000000000016148015611b7657507f000000000000000000000000000000000000000000000000000000000000000046145b15611ba057507f000000000000000000000000000000000000000000000000000000000000000090565b50604080517f00000000000000000000000000000000000000000000000000000000000000006020808301919091527f0000000000000000000000000000000000000000000000000000000000000000828401527f000000000000000000000000000000000000000000000000000000000000000060608301524660808301523060a0808401919091528351808403909101815260c0909201909252805191012090565b6000807f7fffffffffffffffffffffffffffffff5d576e7357a4501ddfe92f46681b20a0831115611c7b5750600090506003611d28565b8460ff16601b14158015611c9357508460ff16601c14155b15611ca45750600090506004611d28565b6040805160008082526020820180845289905260ff881692820192909252606081018690526080810185905260019060a0016020604051602081039080840390855afa158015611cf8573d6000803e3d6000fd5b5050604051601f1901519150506001600160a01b038116611d2157600060019250925050611d28565b9150600090505b94509492505050565b6000816004811115611d4557611d4561295c565b1415611d4e5750565b6001816004811115611d6257611d6261295c565b1415611db05760405162461bcd60e51b815260206004820152601860248201527f45434453413a20696e76616c6964207369676e61747572650000000000000000604482015260640161076e565b6002816004811115611dc457611dc461295c565b1415611e125760405162461bcd60e51b815260206004820152601f60248201527f45434453413a20696e76616c6964207369676e6174757265206c656e67746800604482015260640161076e565b6003816004811115611e2657611e2661295c565b1415611e7f5760405162461bcd60e51b815260206004820152602260248201527f45434453413a20696e76616c6964207369676e6174757265202773272076616c604482015261756560f01b606482015260840161076e565b6004816004811115611e9357611e9361295c565b14156107805760405162461bcd60e51b815260206004820152602260248201527f45434453413a20696e76616c6964207369676e6174757265202776272076616c604482015261756560f01b606482015260840161076e565b60008481526008602090815260408083206001600160a01b0387168452600381019092529091205460ff1615611f745760405162461bcd60e51b815260206004820152602760248201527f476f7665726e6f72566f74696e6753696d706c653a20766f746520616c726561604482015266191e4818d85cdd60ca1b606482015260840161076e565b6001600160a01b03841660009081526003820160205260408120805460ff1916600117905560ff168360ff161415611fc55781816000016000828254611fba9190612c61565b909155506114369050565b60ff831660011415611fe55781816001016000828254611fba9190612c61565b60ff8316600214156120055781816002016000828254611fba9190612c61565b60405162461bcd60e51b815260206004820152603560248201527f476f7665726e6f72566f74696e6753696d706c653a20696e76616c69642076616044820152746c756520666f7220656e756d20566f74655479706560581b606482015260840161076e565b6000818152600160208181526040808420815160a08101835281546001600160401b0390811660808301908152825283518086018552958301541685529283019390935260029092015460ff808216158015948401949094526101009091041615156060820152906120e05750600792915050565b8060600151156120f35750600292915050565b80515143906001600160401b03161061210f5750600092915050565b4361211c82602001515190565b6001600160401b0316106121335750600192915050565b6121408160200151612408565b156121815761214e83612437565b801561216d575060008381526008602052604090208054600190910154115b61217857600361125f565b60049392505050565b60405162461bcd60e51b815260206004820152601d60248201527f476f7665726e6f723a20756e6b6e6f776e2070726f706f73616c206964000000604482015260640161076e565b50919050565b6000806121de8686868661246e565b905060006121eb82611108565b90508015610c585760005b87518110156122c75760055488516001600160a01b039091169063591fcdfe908a908490811061222857612228612c79565b602002602001015189848151811061224257612242612c79565b602002602001015189858151811061225c5761225c612c79565b6020026020010151866040518563ffffffff1660e01b81526004016122849493929190612c8f565b600060405180830381600087803b15801561229e57600080fd5b505af11580156122b2573d6000803e3d6000fd5b50505050806122c090612cf7565b90506121f6565b506000828152600660205260409020805467ffffffffffffffff19169055610c58565b8047101561233a5760405162461bcd60e51b815260206004820152601d60248201527f416464726573733a20696e73756666696369656e742062616c616e6365000000604482015260640161076e565b6000826001600160a01b03168260405160006040518083038185875af1925050503d8060008114612387576040519150601f19603f3d011682016040523d82523d6000602084013e61238c565b606091505b50509050806124035760405162461bcd60e51b815260206004820152603a60248201527f416464726573733a20756e61626c6520746f2073656e642076616c75652c207260448201527f6563697069656e74206d61792068617665207265766572746564000000000000606482015260840161076e565b505050565b600061241d82516001600160401b0316151590565b801561073057505051436001600160401b03909116111590565b6000818152600860205260408120600281015460018201546124599190612c61565b6124656106d385610c62565b11159392505050565b60008061247d868686866111d8565b9050600061248a82610d2d565b905060028160078111156124a0576124a061295c565b141580156124c0575060068160078111156124bd576124bd61295c565b14155b80156124de575060078160078111156124db576124db61295c565b14155b61252a5760405162461bcd60e51b815260206004820152601d60248201527f476f7665726e6f723a2070726f706f73616c206e6f7420616374697665000000604482015260640161076e565b60008281526001602052604090819020600201805461ff001916610100179055517f789cf55be980739dad1d0699b93b58e806b51c9d96619bfa8fe0a28abaa7b30c90610b7d9084815260200190565b60006020828403121561258c57600080fd5b81356001600160e01b03198116811461125f57600080fd5b6000602082840312156125b657600080fd5b5035919050565b60005b838110156125d85781810151838201526020016125c0565b838111156111a35750506000910152565b600081518084526126018160208601602086016125bd565b601f01601f19169290920160200192915050565b60208152600061125f60208301846125e9565b634e487b7160e01b600052604160045260246000fd5b604051601f8201601f191681016001600160401b038111828210171561266657612666612628565b604052919050565b60006001600160401b0382111561268757612687612628565b5060051b60200190565b6001600160a01b038116811461078057600080fd5b600082601f8301126126b757600080fd5b813560206126cc6126c78361266e565b61263e565b82815260059290921b840181019181810190868411156126eb57600080fd5b8286015b8481101561270f57803561270281612691565b83529183019183016126ef565b509695505050505050565b600082601f83011261272b57600080fd5b8135602061273b6126c78361266e565b82815260059290921b8401810191818101908684111561275a57600080fd5b8286015b8481101561270f578035835291830191830161275e565b60006001600160401b0382111561278e5761278e612628565b50601f01601f191660200190565b60006127aa6126c784612775565b90508281528383830111156127be57600080fd5b828260208301376000602084830101529392505050565b600082601f8301126127e657600080fd5b813560206127f66126c78361266e565b82815260059290921b8401810191818101908684111561281557600080fd5b8286015b8481101561270f5780356001600160401b038111156128385760008081fd5b8701603f8101891361284a5760008081fd5b61285b89868301356040840161279c565b845250918301918301612819565b6000806000806080858703121561287f57600080fd5b84356001600160401b038082111561289657600080fd5b6128a2888389016126a6565b955060208701359150808211156128b857600080fd5b6128c48883890161271a565b945060408701359150808211156128da57600080fd5b506128e7878288016127d5565b949793965093946060013593505050565b803560ff8116811461290957600080fd5b919050565b600080600080600060a0868803121561292657600080fd5b85359450612936602087016128f8565b9350612944604087016128f8565b94979396509394606081013594506080013592915050565b634e487b7160e01b600052602160045260246000fd5b602081016008831061299457634e487b7160e01b600052602160045260246000fd5b91905290565b600080604083850312156129ad57600080fd5b8235915060208301356129bf81612691565b809150509250929050565b600080604083850312156129dd57600080fd5b823591506129ed602084016128f8565b90509250929050565b60008060008060608587031215612a0c57600080fd5b84359350612a1c602086016128f8565b925060408501356001600160401b0380821115612a3857600080fd5b818701915087601f830112612a4c57600080fd5b813581811115612a5b57600080fd5b886020828501011115612a6d57600080fd5b95989497505060200194505050565b60008060008060808587031215612a9257600080fd5b84356001600160401b0380821115612aa957600080fd5b612ab5888389016126a6565b95506020870135915080821115612acb57600080fd5b612ad78883890161271a565b94506040870135915080821115612aed57600080fd5b612af9888389016127d5565b93506060870135915080821115612b0f57600080fd5b508501601f81018713612b2157600080fd5b612b308782356020840161279c565b91505092959194509250565b600060208284031215612b4e57600080fd5b813561125f81612691565b60008060408385031215612b6c57600080fd5b8235612b7781612691565b946020939093013593505050565b60208082526018908201527f476f7665726e6f723a206f6e6c79476f7665726e616e63650000000000000000604082015260600190565b600181811c90821680612bd057607f821691505b602082108114156121c957634e487b7160e01b600052602260045260246000fd5b60208082526021908201527f476f7665726e6f723a2070726f706f73616c206e6f74207375636365737366756040820152601b60fa1b606082015260800190565b600060208284031215612c4457600080fd5b5051919050565b634e487b7160e01b600052601160045260246000fd5b60008219821115612c7457612c74612c4b565b500190565b634e487b7160e01b600052603260045260246000fd5b60018060a01b038516815283602082015260a06040820152600060a082015260c060608201526000612cc460c08301856125e9565b905082608083015295945050505050565b600060208284031215612ce757600080fd5b8151801515811461125f57600080fd5b6000600019821415612d0b57612d0b612c4b565b5060010190565b600082821015612d2457612d24612c4b565b500390565b60208082526021908201527f476f7665726e6f723a20696e76616c69642070726f706f73616c206c656e67746040820152600d60fb1b606082015260800190565b60006001600160401b03808316818516808303821115612d8c57612d8c612c4b565b01949350505050565b600081518084526020808501945080840160005b83811015612dce5781516001600160a01b031687529582019590820190600101612da9565b509495945050505050565b600081518084526020808501945080840160005b83811015612dce57815187529582019590820190600101612ded565b600081518084526020808501808196508360051b8101915082860160005b85811015612e51578284038952612e3f8483516125e9565b98850198935090840190600101612e27565b5091979650505050505050565b60006101208b8352602060018060a01b038c1681850152816040850152612e878285018c612d95565b91508382036060850152612e9b828b612dd9565b915083820360808501528189518084528284019150828160051b850101838c0160005b83811015612eec57601f19878403018552612eda8383516125e9565b94860194925090850190600101612ebe565b505086810360a0880152612f00818c612e09565b945050505050612f1b60c08401876001600160401b03169052565b6001600160401b03851660e0840152828103610100840152612f3d81856125e9565b9c9b505050505050505050505050565b608081526000612f606080830187612d95565b8281036020840152612f728187612dd9565b90508281036040840152612f868186612e09565b91505082606083015295945050505050565b84815260ff84166020820152826040820152608060608201526000610e0160808301846125e9565b6000816000190483118215151615612fda57612fda612c4b565b500290565b600082612ffc57634e487b7160e01b600052601260045260246000fd5b500490565b60006020828403121561301357600080fd5b81516001600160401b0381111561302957600080fd5b8201601f8101841361303a57600080fd5b80516130486126c782612775565b81815285602083850101111561305d57600080fd5b610d468260208301602086016125bd56fea26469706673582212205987eae0e3c88fc3671c9d8a0a4d906ad1b9e9dbf4d9ca248c45789c7fd0b7db64736f6c634300080a0033",
    "sourcePath": "d:/Github/new_token/contracts/contracts/mocks/GovernorTimelockCompoundMock.sol",
    "compiler": {
        "name": "solc",
        "version": "0.8.10+commit.fc410830"
    },
    "functionHashes": {
        "BALLOT_TYPEHASH()": "deaaa7cc",
        "COUNTING_MODE()": "dd4e2ba5",
        "__acceptAdmin()": "b9a61961",
        "cancel(address[],uint256[],bytes[],bytes32)": "452115d6",
        "castVote(uint256,uint8)": "56781388",
        "castVoteBySig(uint256,uint8,uint8,bytes32,bytes32)": "3bccf4fd",
        "castVoteWithReason(uint256,uint8,string)": "7b3c71d3",
        "execute(address[],uint256[],bytes[],bytes32)": "2656227d",
        "getVotes(address,uint256)": "eb9019d4",
        "hasVoted(uint256,address)": "43859632",
        "hashProposal(address[],uint256[],bytes[],bytes32)": "c59057e4",
        "name()": "06fdde03",
        "proposalDeadline(uint256)": "c01f9e37",
        "proposalEta(uint256)": "ab58fb8e",
        "proposalSnapshot(uint256)": "2d63f693",
        "proposalThreshold()": "b58131b0",
        "proposalVotes(uint256)": "544ffc9c",
        "propose(address[],uint256[],bytes[],string)": "7d5e81e2",
        "queue(address[],uint256[],bytes[],bytes32)": "160cbed7",
        "quorum(uint256)": "f8ce560a",
        "quorumDenominator()": "97c3d334",
        "quorumNumerator()": "a7713a70",
        "setProposalThreshold(uint256)": "ece40cc1",
        "setVotingDelay(uint256)": "70b0f660",
        "setVotingPeriod(uint256)": "ea0217cf",
        "state(uint256)": "3e4f49e6",
        "supportsInterface(bytes4)": "01ffc9a7",
        "timelock()": "d33219b4",
        "token()": "fc0c546a",
        "updateQuorumNumerator(uint256)": "06f3f9e6",
        "updateTimelock(address)": "a890c910",
        "version()": "54fd4d50",
        "votingDelay()": "3932abb1",
        "votingPeriod()": "02a251a3"
    },
    "gasEstimates": {
        "creation": {
            "codeDepositCost": "2490400",
            "executionCost": "infinite",
            "totalCost": "infinite"
        },
        "external": {
            "BALLOT_TYPEHASH()": "306",
            "COUNTING_MODE()": "infinite",
            "__acceptAdmin()": "infinite",
            "cancel(address[],uint256[],bytes[],bytes32)": "infinite",
            "castVote(uint256,uint8)": "infinite",
            "castVoteBySig(uint256,uint8,uint8,bytes32,bytes32)": "infinite",
            "castVoteWithReason(uint256,uint8,string)": "infinite",
            "execute(address[],uint256[],bytes[],bytes32)": "infinite",
            "getVotes(address,uint256)": "infinite",
            "hasVoted(uint256,address)": "2738",
            "hashProposal(address[],uint256[],bytes[],bytes32)": "infinite",
            "name()": "infinite",
            "proposalDeadline(uint256)": "2673",
            "proposalEta(uint256)": "2598",
            "proposalSnapshot(uint256)": "2632",
            "proposalThreshold()": "2397",
            "proposalVotes(uint256)": "6752",
            "propose(address[],uint256[],bytes[],string)": "infinite",
            "queue(address[],uint256[],bytes[],bytes32)": "infinite",
            "quorum(uint256)": "infinite",
            "quorumDenominator()": "260",
            "quorumNumerator()": "2382",
            "setProposalThreshold(uint256)": "28104",
            "setVotingDelay(uint256)": "28127",
            "setVotingPeriod(uint256)": "28083",
            "state(uint256)": "infinite",
            "supportsInterface(bytes4)": "infinite",
            "timelock()": "2387",
            "token()": "infinite",
            "updateQuorumNumerator(uint256)": "28146",
            "updateTimelock(address)": "infinite",
            "version()": "infinite",
            "votingDelay()": "2404",
            "votingPeriod()": "2350"
        },
        "internal": {
            "_cancel(address[] memory,uint256[] memory,bytes memory[] memory,bytes32)": "infinite",
            "_execute(uint256,address[] memory,uint256[] memory,bytes memory[] memory,bytes32)": "infinite",
            "_executor()": "2156"
        }
    }
}