{
    "contractName": "GovernorMock",
    "abi": [
        {
            "inputs": [
                {
                    "internalType": "string",
                    "name": "name_",
                    "type": "string"
                },
                {
                    "internalType": "contract ERC20Votes",
                    "name": "token_",
                    "type": "address"
                },
                {
                    "internalType": "uint256",
                    "name": "votingDelay_",
                    "type": "uint256"
                },
                {
                    "internalType": "uint256",
                    "name": "votingPeriod_",
                    "type": "uint256"
                },
                {
                    "internalType": "uint256",
                    "name": "quorumNumerator_",
                    "type": "uint256"
                }
            ],
            "stateMutability": "nonpayable",
            "type": "constructor"
        },
        {
            "anonymous": false,
            "inputs": [
                {
                    "indexed": false,
                    "internalType": "uint256",
                    "name": "proposalId",
                    "type": "uint256"
                }
            ],
            "name": "ProposalCanceled",
            "type": "event"
        },
        {
            "anonymous": false,
            "inputs": [
                {
                    "indexed": false,
                    "internalType": "uint256",
                    "name": "proposalId",
                    "type": "uint256"
                },
                {
                    "indexed": false,
                    "internalType": "address",
                    "name": "proposer",
                    "type": "address"
                },
                {
                    "indexed": false,
                    "internalType": "address[]",
                    "name": "targets",
                    "type": "address[]"
                },
                {
                    "indexed": false,
                    "internalType": "uint256[]",
                    "name": "values",
                    "type": "uint256[]"
                },
                {
                    "indexed": false,
                    "internalType": "string[]",
                    "name": "signatures",
                    "type": "string[]"
                },
                {
                    "indexed": false,
                    "internalType": "bytes[]",
                    "name": "calldatas",
                    "type": "bytes[]"
                },
                {
                    "indexed": false,
                    "internalType": "uint256",
                    "name": "startBlock",
                    "type": "uint256"
                },
                {
                    "indexed": false,
                    "internalType": "uint256",
                    "name": "endBlock",
                    "type": "uint256"
                },
                {
                    "indexed": false,
                    "internalType": "string",
                    "name": "description",
                    "type": "string"
                }
            ],
            "name": "ProposalCreated",
            "type": "event"
        },
        {
            "anonymous": false,
            "inputs": [
                {
                    "indexed": false,
                    "internalType": "uint256",
                    "name": "proposalId",
                    "type": "uint256"
                }
            ],
            "name": "ProposalExecuted",
            "type": "event"
        },
        {
            "anonymous": false,
            "inputs": [
                {
                    "indexed": false,
                    "internalType": "uint256",
                    "name": "oldProposalThreshold",
                    "type": "uint256"
                },
                {
                    "indexed": false,
                    "internalType": "uint256",
                    "name": "newProposalThreshold",
                    "type": "uint256"
                }
            ],
            "name": "ProposalThresholdSet",
            "type": "event"
        },
        {
            "anonymous": false,
            "inputs": [
                {
                    "indexed": false,
                    "internalType": "uint256",
                    "name": "oldQuorumNumerator",
                    "type": "uint256"
                },
                {
                    "indexed": false,
                    "internalType": "uint256",
                    "name": "newQuorumNumerator",
                    "type": "uint256"
                }
            ],
            "name": "QuorumNumeratorUpdated",
            "type": "event"
        },
        {
            "anonymous": false,
            "inputs": [
                {
                    "indexed": true,
                    "internalType": "address",
                    "name": "voter",
                    "type": "address"
                },
                {
                    "indexed": false,
                    "internalType": "uint256",
                    "name": "proposalId",
                    "type": "uint256"
                },
                {
                    "indexed": false,
                    "internalType": "uint8",
                    "name": "support",
                    "type": "uint8"
                },
                {
                    "indexed": false,
                    "internalType": "uint256",
                    "name": "weight",
                    "type": "uint256"
                },
                {
                    "indexed": false,
                    "internalType": "string",
                    "name": "reason",
                    "type": "string"
                }
            ],
            "name": "VoteCast",
            "type": "event"
        },
        {
            "anonymous": false,
            "inputs": [
                {
                    "indexed": false,
                    "internalType": "uint256",
                    "name": "oldVotingDelay",
                    "type": "uint256"
                },
                {
                    "indexed": false,
                    "internalType": "uint256",
                    "name": "newVotingDelay",
                    "type": "uint256"
                }
            ],
            "name": "VotingDelaySet",
            "type": "event"
        },
        {
            "anonymous": false,
            "inputs": [
                {
                    "indexed": false,
                    "internalType": "uint256",
                    "name": "oldVotingPeriod",
                    "type": "uint256"
                },
                {
                    "indexed": false,
                    "internalType": "uint256",
                    "name": "newVotingPeriod",
                    "type": "uint256"
                }
            ],
            "name": "VotingPeriodSet",
            "type": "event"
        },
        {
            "inputs": [],
            "name": "BALLOT_TYPEHASH",
            "outputs": [
                {
                    "internalType": "bytes32",
                    "name": "",
                    "type": "bytes32"
                }
            ],
            "stateMutability": "view",
            "type": "function"
        },
        {
            "inputs": [],
            "name": "COUNTING_MODE",
            "outputs": [
                {
                    "internalType": "string",
                    "name": "",
                    "type": "string"
                }
            ],
            "stateMutability": "pure",
            "type": "function"
        },
        {
            "inputs": [
                {
                    "internalType": "address[]",
                    "name": "targets",
                    "type": "address[]"
                },
                {
                    "internalType": "uint256[]",
                    "name": "values",
                    "type": "uint256[]"
                },
                {
                    "internalType": "bytes[]",
                    "name": "calldatas",
                    "type": "bytes[]"
                },
                {
                    "internalType": "bytes32",
                    "name": "salt",
                    "type": "bytes32"
                }
            ],
            "name": "cancel",
            "outputs": [
                {
                    "internalType": "uint256",
                    "name": "proposalId",
                    "type": "uint256"
                }
            ],
            "stateMutability": "nonpayable",
            "type": "function"
        },
        {
            "inputs": [
                {
                    "internalType": "uint256",
                    "name": "proposalId",
                    "type": "uint256"
                },
                {
                    "internalType": "uint8",
                    "name": "support",
                    "type": "uint8"
                }
            ],
            "name": "castVote",
            "outputs": [
                {
                    "internalType": "uint256",
                    "name": "",
                    "type": "uint256"
                }
            ],
            "stateMutability": "nonpayable",
            "type": "function"
        },
        {
            "inputs": [
                {
                    "internalType": "uint256",
                    "name": "proposalId",
                    "type": "uint256"
                },
                {
                    "internalType": "uint8",
                    "name": "support",
                    "type": "uint8"
                },
                {
                    "internalType": "uint8",
                    "name": "v",
                    "type": "uint8"
                },
                {
                    "internalType": "bytes32",
                    "name": "r",
                    "type": "bytes32"
                },
                {
                    "internalType": "bytes32",
                    "name": "s",
                    "type": "bytes32"
                }
            ],
            "name": "castVoteBySig",
            "outputs": [
                {
                    "internalType": "uint256",
                    "name": "",
                    "type": "uint256"
                }
            ],
            "stateMutability": "nonpayable",
            "type": "function"
        },
        {
            "inputs": [
                {
                    "internalType": "uint256",
                    "name": "proposalId",
                    "type": "uint256"
                },
                {
                    "internalType": "uint8",
                    "name": "support",
                    "type": "uint8"
                },
                {
                    "internalType": "string",
                    "name": "reason",
                    "type": "string"
                }
            ],
            "name": "castVoteWithReason",
            "outputs": [
                {
                    "internalType": "uint256",
                    "name": "",
                    "type": "uint256"
                }
            ],
            "stateMutability": "nonpayable",
            "type": "function"
        },
        {
            "inputs": [
                {
                    "internalType": "address[]",
                    "name": "targets",
                    "type": "address[]"
                },
                {
                    "internalType": "uint256[]",
                    "name": "values",
                    "type": "uint256[]"
                },
                {
                    "internalType": "bytes[]",
                    "name": "calldatas",
                    "type": "bytes[]"
                },
                {
                    "internalType": "bytes32",
                    "name": "descriptionHash",
                    "type": "bytes32"
                }
            ],
            "name": "execute",
            "outputs": [
                {
                    "internalType": "uint256",
                    "name": "",
                    "type": "uint256"
                }
            ],
            "stateMutability": "payable",
            "type": "function"
        },
        {
            "inputs": [
                {
                    "internalType": "address",
                    "name": "account",
                    "type": "address"
                },
                {
                    "internalType": "uint256",
                    "name": "blockNumber",
                    "type": "uint256"
                }
            ],
            "name": "getVotes",
            "outputs": [
                {
                    "internalType": "uint256",
                    "name": "",
                    "type": "uint256"
                }
            ],
            "stateMutability": "view",
            "type": "function"
        },
        {
            "inputs": [
                {
                    "internalType": "uint256",
                    "name": "proposalId",
                    "type": "uint256"
                },
                {
                    "internalType": "address",
                    "name": "account",
                    "type": "address"
                }
            ],
            "name": "hasVoted",
            "outputs": [
                {
                    "internalType": "bool",
                    "name": "",
                    "type": "bool"
                }
            ],
            "stateMutability": "view",
            "type": "function"
        },
        {
            "inputs": [
                {
                    "internalType": "address[]",
                    "name": "targets",
                    "type": "address[]"
                },
                {
                    "internalType": "uint256[]",
                    "name": "values",
                    "type": "uint256[]"
                },
                {
                    "internalType": "bytes[]",
                    "name": "calldatas",
                    "type": "bytes[]"
                },
                {
                    "internalType": "bytes32",
                    "name": "descriptionHash",
                    "type": "bytes32"
                }
            ],
            "name": "hashProposal",
            "outputs": [
                {
                    "internalType": "uint256",
                    "name": "",
                    "type": "uint256"
                }
            ],
            "stateMutability": "pure",
            "type": "function"
        },
        {
            "inputs": [],
            "name": "name",
            "outputs": [
                {
                    "internalType": "string",
                    "name": "",
                    "type": "string"
                }
            ],
            "stateMutability": "view",
            "type": "function"
        },
        {
            "inputs": [
                {
                    "internalType": "uint256",
                    "name": "proposalId",
                    "type": "uint256"
                }
            ],
            "name": "proposalDeadline",
            "outputs": [
                {
                    "internalType": "uint256",
                    "name": "",
                    "type": "uint256"
                }
            ],
            "stateMutability": "view",
            "type": "function"
        },
        {
            "inputs": [
                {
                    "internalType": "uint256",
                    "name": "proposalId",
                    "type": "uint256"
                }
            ],
            "name": "proposalSnapshot",
            "outputs": [
                {
                    "internalType": "uint256",
                    "name": "",
                    "type": "uint256"
                }
            ],
            "stateMutability": "view",
            "type": "function"
        },
        {
            "inputs": [],
            "name": "proposalThreshold",
            "outputs": [
                {
                    "internalType": "uint256",
                    "name": "",
                    "type": "uint256"
                }
            ],
            "stateMutability": "view",
            "type": "function"
        },
        {
            "inputs": [
                {
                    "internalType": "uint256",
                    "name": "proposalId",
                    "type": "uint256"
                }
            ],
            "name": "proposalVotes",
            "outputs": [
                {
                    "internalType": "uint256",
                    "name": "againstVotes",
                    "type": "uint256"
                },
                {
                    "internalType": "uint256",
                    "name": "forVotes",
                    "type": "uint256"
                },
                {
                    "internalType": "uint256",
                    "name": "abstainVotes",
                    "type": "uint256"
                }
            ],
            "stateMutability": "view",
            "type": "function"
        },
        {
            "inputs": [
                {
                    "internalType": "address[]",
                    "name": "targets",
                    "type": "address[]"
                },
                {
                    "internalType": "uint256[]",
                    "name": "values",
                    "type": "uint256[]"
                },
                {
                    "internalType": "bytes[]",
                    "name": "calldatas",
                    "type": "bytes[]"
                },
                {
                    "internalType": "string",
                    "name": "description",
                    "type": "string"
                }
            ],
            "name": "propose",
            "outputs": [
                {
                    "internalType": "uint256",
                    "name": "",
                    "type": "uint256"
                }
            ],
            "stateMutability": "nonpayable",
            "type": "function"
        },
        {
            "inputs": [
                {
                    "internalType": "uint256",
                    "name": "blockNumber",
                    "type": "uint256"
                }
            ],
            "name": "quorum",
            "outputs": [
                {
                    "internalType": "uint256",
                    "name": "",
                    "type": "uint256"
                }
            ],
            "stateMutability": "view",
            "type": "function"
        },
        {
            "inputs": [],
            "name": "quorumDenominator",
            "outputs": [
                {
                    "internalType": "uint256",
                    "name": "",
                    "type": "uint256"
                }
            ],
            "stateMutability": "view",
            "type": "function"
        },
        {
            "inputs": [],
            "name": "quorumNumerator",
            "outputs": [
                {
                    "internalType": "uint256",
                    "name": "",
                    "type": "uint256"
                }
            ],
            "stateMutability": "view",
            "type": "function"
        },
        {
            "inputs": [
                {
                    "internalType": "uint256",
                    "name": "newProposalThreshold",
                    "type": "uint256"
                }
            ],
            "name": "setProposalThreshold",
            "outputs": [],
            "stateMutability": "nonpayable",
            "type": "function"
        },
        {
            "inputs": [
                {
                    "internalType": "uint256",
                    "name": "newVotingDelay",
                    "type": "uint256"
                }
            ],
            "name": "setVotingDelay",
            "outputs": [],
            "stateMutability": "nonpayable",
            "type": "function"
        },
        {
            "inputs": [
                {
                    "internalType": "uint256",
                    "name": "newVotingPeriod",
                    "type": "uint256"
                }
            ],
            "name": "setVotingPeriod",
            "outputs": [],
            "stateMutability": "nonpayable",
            "type": "function"
        },
        {
            "inputs": [
                {
                    "internalType": "uint256",
                    "name": "proposalId",
                    "type": "uint256"
                }
            ],
            "name": "state",
            "outputs": [
                {
                    "internalType": "enum IGovernor.ProposalState",
                    "name": "",
                    "type": "uint8"
                }
            ],
            "stateMutability": "view",
            "type": "function"
        },
        {
            "inputs": [
                {
                    "internalType": "bytes4",
                    "name": "interfaceId",
                    "type": "bytes4"
                }
            ],
            "name": "supportsInterface",
            "outputs": [
                {
                    "internalType": "bool",
                    "name": "",
                    "type": "bool"
                }
            ],
            "stateMutability": "view",
            "type": "function"
        },
        {
            "inputs": [],
            "name": "token",
            "outputs": [
                {
                    "internalType": "contract ERC20Votes",
                    "name": "",
                    "type": "address"
                }
            ],
            "stateMutability": "view",
            "type": "function"
        },
        {
            "inputs": [
                {
                    "internalType": "uint256",
                    "name": "newQuorumNumerator",
                    "type": "uint256"
                }
            ],
            "name": "updateQuorumNumerator",
            "outputs": [],
            "stateMutability": "nonpayable",
            "type": "function"
        },
        {
            "inputs": [],
            "name": "version",
            "outputs": [
                {
                    "internalType": "string",
                    "name": "",
                    "type": "string"
                }
            ],
            "stateMutability": "view",
            "type": "function"
        },
        {
            "inputs": [],
            "name": "votingDelay",
            "outputs": [
                {
                    "internalType": "uint256",
                    "name": "",
                    "type": "uint256"
                }
            ],
            "stateMutability": "view",
            "type": "function"
        },
        {
            "inputs": [],
            "name": "votingPeriod",
            "outputs": [
                {
                    "internalType": "uint256",
                    "name": "",
                    "type": "uint256"
                }
            ],
            "stateMutability": "view",
            "type": "function"
        },
        {
            "stateMutability": "payable",
            "type": "receive"
        }
    ],
    "bytecode": "6101606040523480156200001257600080fd5b5060405162002bf838038062002bf8833981016040819052620000359162000419565b80848484600089806200005c6040805180820190915260018152603160f81b602082015290565b815160208084019190912082518383012060e08290526101008190524660a0818152604080517f8b73c3c69bb8fe3d512ecc4cf759cc79239f7b179b0ffacaa9a75d522b39400f81880181905281830187905260608201869052608082019490945230818401528151808203909301835260c00190528051940193909320919290916080523060c052610120525050825162000102925060009150602084019062000340565b50620001109050836200014d565b6200011b826200018e565b620001268162000235565b5050506001600160a01b031661014052620001418162000276565b50505050505062000562565b60025460408051918252602082018390527fc565b045403dc03c2eea82b81a0465edad9e2e7fc4d97e11421c209da93d7a93910160405180910390a1600255565b60008111620001f45760405162461bcd60e51b815260206004820152602760248201527f476f7665726e6f7253657474696e67733a20766f74696e6720706572696f6420604482015266746f6f206c6f7760c81b60648201526084015b60405180910390fd5b60035460408051918252602082018390527f7e3f7f0708a84de9203036abaa450dccc85ad5ff52f78c170f3edb55cf5e8828910160405180910390a1600355565b60045460408051918252602082018390527fccb45da8d5717e6c4544694297c4ba5cf151d455c9bb0ed4fc7a38411bc05461910160405180910390a1600455565b6064811115620002fb5760405162461bcd60e51b815260206004820152604360248201527f476f7665726e6f72566f74657351756f72756d4672616374696f6e3a2071756f60448201527f72756d4e756d657261746f72206f7665722071756f72756d44656e6f6d696e616064820152623a37b960e91b608482015260a401620001eb565b600580549082905560408051828152602081018490527f0553476bf02ef2726e8ce5ced78d63e26e602e4a2257b1f559418e24b4633997910160405180910390a15050565b8280546200034e9062000525565b90600052602060002090601f016020900481019282620003725760008555620003bd565b82601f106200038d57805160ff1916838001178555620003bd565b82800160010185558215620003bd579182015b82811115620003bd578251825591602001919060010190620003a0565b50620003cb929150620003cf565b5090565b5b80821115620003cb5760008155600101620003d0565b634e487b7160e01b600052604160045260246000fd5b80516001600160a01b03811681146200041457600080fd5b919050565b600080600080600060a086880312156200043257600080fd5b85516001600160401b03808211156200044a57600080fd5b818801915088601f8301126200045f57600080fd5b815181811115620004745762000474620003e6565b604051601f8201601f19908116603f011681019083821181831017156200049f576200049f620003e6565b81604052828152602093508b84848701011115620004bc57600080fd5b600091505b82821015620004e05784820184015181830185015290830190620004c1565b82821115620004f25760008484830101525b985062000504915050888201620003fc565b604089015160608a01516080909a0151989b919a5098979650945050505050565b600181811c908216806200053a57607f821691505b602082108114156200055c57634e487b7160e01b600052602260045260246000fd5b50919050565b60805160a05160c05160e05161010051610120516101405161262d620005cb600039600081816105f201528181610c200152611282015260006113f3015260006114420152600061141d01526000611376015260006113a0015260006113ca015261262d6000f3fe6080604052600436106101c65760003560e01c806370b0f660116100f7578063c59057e411610095578063eb9019d411610064578063eb9019d414610580578063ece40cc1146105a0578063f8ce560a146105c0578063fc0c546a146105e057600080fd5b8063c59057e4146104c6578063dd4e2ba5146104e6578063deaaa7cc1461052c578063ea0217cf1461056057600080fd5b806397c3d334116100d157806397c3d33414610468578063a7713a701461047c578063b58131b014610491578063c01f9e37146104a657600080fd5b806370b0f660146104085780637b3c71d3146104285780637d5e81e21461044857600080fd5b80633bccf4fd11610164578063452115d61161013e578063452115d614610349578063544ffc9c1461036957806354fd4d50146103be57806356781388146103e857600080fd5b80633bccf4fd146102b25780633e4f49e6146102d257806343859632146102ff57600080fd5b806306fdde03116101a057806306fdde03146102485780632656227d1461026a5780632d63f6931461027d5780633932abb11461029d57600080fd5b806301ffc9a7146101d457806302a251a31461020957806306f3f9e61461022857600080fd5b366101cf57005b005b600080fd5b3480156101e057600080fd5b506101f46101ef366004611c07565b61062c565b60405190151581526020015b60405180910390f35b34801561021557600080fd5b506003545b604051908152602001610200565b34801561023457600080fd5b506101cd610243366004611c31565b610663565b34801561025457600080fd5b5061025d610697565b6040516102009190611ca6565b61021a610278366004611ef6565b610729565b34801561028957600080fd5b5061021a610298366004611c31565b610836565b3480156102a957600080fd5b5060025461021a565b3480156102be57600080fd5b5061021a6102cd366004611f96565b61086d565b3480156102de57600080fd5b506102f26102ed366004611c31565b610901565b6040516102009190611ffa565b34801561030b57600080fd5b506101f461031a366004612022565b60008281526006602090815260408083206001600160a01b038516845260030190915290205460ff1692915050565b34801561035557600080fd5b5061021a610364366004611ef6565b610a66565b34801561037557600080fd5b506103a3610384366004611c31565b6000908152600660205260409020805460018201546002909201549092565b60408051938452602084019290925290820152606001610200565b3480156103ca57600080fd5b506040805180820190915260018152603160f81b602082015261025d565b3480156103f457600080fd5b5061021a61040336600461204e565b610a7d565b34801561041457600080fd5b506101cd610423366004611c31565b610aa6565b34801561043457600080fd5b5061021a610443366004612071565b610ace565b34801561045457600080fd5b5061021a6104633660046120f7565b610b20565b34801561047457600080fd5b50606461021a565b34801561048857600080fd5b5060055461021a565b34801561049d57600080fd5b5061021a610b2e565b3480156104b257600080fd5b5061021a6104c1366004611c31565b610b3e565b3480156104d257600080fd5b5061021a6104e1366004611ef6565b610b6d565b3480156104f257600080fd5b506040805180820190915260208082527f737570706f72743d627261766f2671756f72756d3d666f722c6162737461696e9082015261025d565b34801561053857600080fd5b5061021a7f150214d74d59b7d1e90c73fc22ef3d991dd0a76b046543d4d80ab92d2a50328f81565b34801561056c57600080fd5b506101cd61057b366004611c31565b610ba7565b34801561058c57600080fd5b5061021a61059b3660046121b7565b610bcf565b3480156105ac57600080fd5b506101cd6105bb366004611c31565b610bdb565b3480156105cc57600080fd5b5061021a6105db366004611c31565b610c03565b3480156105ec57600080fd5b506106147f000000000000000000000000000000000000000000000000000000000000000081565b6040516001600160a01b039091168152602001610200565b60006001600160e01b0319821663bf26d89760e01b148061065d57506301ffc9a760e01b6001600160e01b03198316145b92915050565b33301461068b5760405162461bcd60e51b8152600401610682906121e1565b60405180910390fd5b61069481610ca7565b50565b6060600080546106a690612218565b80601f01602080910402602001604051908101604052809291908181526020018280546106d290612218565b801561071f5780601f106106f45761010080835404028352916020019161071f565b820191906000526020600020905b81548152906001019060200180831161070257829003601f168201915b5050505050905090565b60008061073886868686610b6d565b9050600061074582610901565b9050600481600781111561075b5761075b611fe4565b14806107785750600581600781111561077657610776611fe4565b145b6107ce5760405162461bcd60e51b815260206004820152602160248201527f476f7665726e6f723a2070726f706f73616c206e6f74207375636365737366756044820152601b60fa1b6064820152608401610682565b600082815260016020818152604092839020600201805460ff191690921790915590518381527f712ae1383f79ac853f8d882153778e0260ef8f03b504e2866e0593e04d2b291f910160405180910390a161082c8288888888610d6f565b5095945050505050565b60008181526001602090815260408083208151928301909152546001600160401b0316908190525b6001600160401b031692915050565b604080517f150214d74d59b7d1e90c73fc22ef3d991dd0a76b046543d4d80ab92d2a50328f602082015290810186905260ff8516606082015260009081906108d9906108d19060800160405160208183030381529060405280519060200120610e6e565b868686610ebc565b90506108f687828860405180602001604052806000815250610eda565b979650505050505050565b6000818152600160208181526040808420815160a08101835281546001600160401b0390811660808301908152825283518086018552958301541685529283019390935260029092015460ff808216158015948401949094526101009091041615156060820152906109765750600792915050565b8060600151156109895750600292915050565b80515143906001600160401b0316106109a55750600092915050565b436109b282602001515190565b6001600160401b0316106109c95750600192915050565b6109d68160200151610fe5565b15610a18576109e483611014565b8015610a03575060008381526006602052604090208054600190910154115b610a0e576003610a11565b60045b9392505050565b60405162461bcd60e51b815260206004820152601d60248201527f476f7665726e6f723a20756e6b6e6f776e2070726f706f73616c2069640000006044820152606401610682565b50919050565b6000610a748585858561104b565b95945050505050565b600080339050610a9e84828560405180602001604052806000815250610eda565b949350505050565b333014610ac55760405162461bcd60e51b8152600401610682906121e1565b61069481611169565b600080339050610b1686828787878080601f016020809104026020016040519081016040528093929190818152602001838380828437600092019190915250610eda92505050565b9695505050505050565b6000610a74858585856111aa565b6000610b3960045490565b905090565b60008181526001602081815260408084208151928301909152909101546001600160401b03169081905261085e565b600084848484604051602001610b869493929190612316565b60408051601f19818403018152919052805160209091012095945050505050565b333014610bc65760405162461bcd60e51b8152600401610682906121e1565b610694816111b8565b6000610a118383611259565b333014610bfa5760405162461bcd60e51b8152600401610682906121e1565b610694816112ef565b60006064600554604051632394e7a360e21b8152600481018590527f00000000000000000000000000000000000000000000000000000000000000006001600160a01b031690638e539e8c90602401602060405180830381865afa158015610c6f573d6000803e3d6000fd5b505050506040513d601f19601f82011682018060405250810190610c939190612361565b610c9d9190612390565b61065d91906123af565b6064811115610d2a5760405162461bcd60e51b815260206004820152604360248201527f476f7665726e6f72566f74657351756f72756d4672616374696f6e3a2071756f60448201527f72756d4e756d657261746f72206f7665722071756f72756d44656e6f6d696e616064820152623a37b960e91b608482015260a401610682565b600580549082905560408051828152602081018490527f0553476bf02ef2726e8ce5ced78d63e26e602e4a2257b1f559418e24b4633997910160405180910390a15050565b60006040518060600160405280602781526020016125d160279139905060005b8551811015610e6557600080878381518110610dad57610dad6123d1565b60200260200101516001600160a01b0316878481518110610dd057610dd06123d1565b6020026020010151878581518110610dea57610dea6123d1565b6020026020010151604051610dff91906123e7565b60006040518083038185875af1925050503d8060008114610e3c576040519150601f19603f3d011682016040523d82523d6000602084013e610e41565b606091505b5091509150610e51828286611330565b50505080610e5e90612403565b9050610d8f565b50505050505050565b600061065d610e7b611369565b8360405161190160f01b6020820152602281018390526042810182905260009060620160405160208183030381529060405280519060200120905092915050565b6000806000610ecd87878787611490565b9150915061082c8161157d565b6000848152600160208190526040822090610ef487610901565b6007811115610f0557610f05611fe4565b14610f5e5760405162461bcd60e51b815260206004820152602360248201527f476f7665726e6f723a20766f7465206e6f742063757272656e746c792061637460448201526269766560e81b6064820152608401610682565b604080516020810190915281546001600160401b031690819052600090610f86908790610bcf565b9050610f9487878784611738565b856001600160a01b03167fb8e138887d0aa13bab447e82de9d5c1777041ecd21ca36ba824ff1e6c07ddda488878488604051610fd3949392919061241e565b60405180910390a29695505050505050565b6000610ffa82516001600160401b0316151590565b801561065d57505051436001600160401b03909116111590565b6000818152600660205260408120600281015460018201546110369190612446565b6110426105db85610836565b11159392505050565b60008061105a86868686610b6d565b9050600061106782610901565b9050600281600781111561107d5761107d611fe4565b1415801561109d5750600681600781111561109a5761109a611fe4565b14155b80156110bb575060078160078111156110b8576110b8611fe4565b14155b6111075760405162461bcd60e51b815260206004820152601d60248201527f476f7665726e6f723a2070726f706f73616c206e6f74206163746976650000006044820152606401610682565b60008281526001602052604090819020600201805461ff001916610100179055517f789cf55be980739dad1d0699b93b58e806b51c9d96619bfa8fe0a28abaa7b30c906111579084815260200190565b60405180910390a15095945050505050565b60025460408051918252602082018390527fc565b045403dc03c2eea82b81a0465edad9e2e7fc4d97e11421c209da93d7a93910160405180910390a1600255565b6000610a74858585856118be565b600081116112185760405162461bcd60e51b815260206004820152602760248201527f476f7665726e6f7253657474696e67733a20766f74696e6720706572696f6420604482015266746f6f206c6f7760c81b6064820152608401610682565b60035460408051918252602082018390527f7e3f7f0708a84de9203036abaa450dccc85ad5ff52f78c170f3edb55cf5e8828910160405180910390a1600355565b604051630748d63560e31b81526001600160a01b038381166004830152602482018390526000917f000000000000000000000000000000000000000000000000000000000000000090911690633a46b1a890604401602060405180830381865afa1580156112cb573d6000803e3d6000fd5b505050506040513d601f19601f82011682018060405250810190610a119190612361565b60045460408051918252602082018390527fccb45da8d5717e6c4544694297c4ba5cf151d455c9bb0ed4fc7a38411bc05461910160405180910390a1600455565b6060831561133f575081610a11565b82511561134f5782518084602001fd5b8160405162461bcd60e51b81526004016106829190611ca6565b6000306001600160a01b037f0000000000000000000000000000000000000000000000000000000000000000161480156113c257507f000000000000000000000000000000000000000000000000000000000000000046145b156113ec57507f000000000000000000000000000000000000000000000000000000000000000090565b50604080517f00000000000000000000000000000000000000000000000000000000000000006020808301919091527f0000000000000000000000000000000000000000000000000000000000000000828401527f000000000000000000000000000000000000000000000000000000000000000060608301524660808301523060a0808401919091528351808403909101815260c0909201909252805191012090565b6000807f7fffffffffffffffffffffffffffffff5d576e7357a4501ddfe92f46681b20a08311156114c75750600090506003611574565b8460ff16601b141580156114df57508460ff16601c14155b156114f05750600090506004611574565b6040805160008082526020820180845289905260ff881692820192909252606081018690526080810185905260019060a0016020604051602081039080840390855afa158015611544573d6000803e3d6000fd5b5050604051601f1901519150506001600160a01b03811661156d57600060019250925050611574565b9150600090505b94509492505050565b600081600481111561159157611591611fe4565b141561159a5750565b60018160048111156115ae576115ae611fe4565b14156115fc5760405162461bcd60e51b815260206004820152601860248201527f45434453413a20696e76616c6964207369676e617475726500000000000000006044820152606401610682565b600281600481111561161057611610611fe4565b141561165e5760405162461bcd60e51b815260206004820152601f60248201527f45434453413a20696e76616c6964207369676e6174757265206c656e677468006044820152606401610682565b600381600481111561167257611672611fe4565b14156116cb5760405162461bcd60e51b815260206004820152602260248201527f45434453413a20696e76616c6964207369676e6174757265202773272076616c604482015261756560f01b6064820152608401610682565b60048160048111156116df576116df611fe4565b14156106945760405162461bcd60e51b815260206004820152602260248201527f45434453413a20696e76616c6964207369676e6174757265202776272076616c604482015261756560f01b6064820152608401610682565b60008481526006602090815260408083206001600160a01b0387168452600381019092529091205460ff16156117c05760405162461bcd60e51b815260206004820152602760248201527f476f7665726e6f72566f74696e6753696d706c653a20766f746520616c726561604482015266191e4818d85cdd60ca1b6064820152608401610682565b6001600160a01b03841660009081526003820160205260408120805460ff1916600117905560ff168360ff16141561181157818160000160008282546118069190612446565b909155506118b79050565b60ff83166001141561183157818160010160008282546118069190612446565b60ff83166002141561185157818160020160008282546118069190612446565b60405162461bcd60e51b815260206004820152603560248201527f476f7665726e6f72566f74696e6753696d706c653a20696e76616c69642076616044820152746c756520666f7220656e756d20566f74655479706560581b6064820152608401610682565b5050505050565b60006118c8610b2e565b6118d73361059b60014361245e565b10156119575760405162461bcd60e51b815260206004820152604360248201527f476f7665726e6f72436f6d7061746962696c697479427261766f3a2070726f7060448201527f6f73657220766f7465732062656c6f772070726f706f73616c207468726573686064820152621bdb1960ea1b608482015260a401610682565b600061196c8686868680519060200120610b6d565b9050845186511461198f5760405162461bcd60e51b815260040161068290612475565b83518651146119b05760405162461bcd60e51b815260040161068290612475565b6000865111611a015760405162461bcd60e51b815260206004820152601860248201527f476f7665726e6f723a20656d7074792070726f706f73616c00000000000000006044820152606401610682565b600081815260016020908152604091829020825191820190925281546001600160401b03169081905215611a815760405162461bcd60e51b815260206004820152602160248201527f476f7665726e6f723a2070726f706f73616c20616c72656164792065786973746044820152607360f81b6064820152608401610682565b6000611a94611a8f60025490565b611b9b565b611a9d43611b9b565b611aa791906124b6565b90506000611ab7611a8f60035490565b611ac190836124b6565b835467ffffffffffffffff19166001600160401b038416178455905060018301805467ffffffffffffffff19166001600160401b0383161790557f7d84a6263ae0d98d3329bd7b46bb4e8d6f98cd35a7adb45c274c8b7fd5ebd5e084338b8b8d516001600160401b03811115611b3957611b39611cb9565b604051908082528060200260200182016040528015611b6c57816020015b6060815260200190600190039081611b575790505b508c88888e604051611b86999897969594939291906124e1565b60405180910390a15091979650505050505050565b60006001600160401b03821115611c035760405162461bcd60e51b815260206004820152602660248201527f53616665436173743a2076616c756520646f65736e27742066697420696e203660448201526534206269747360d01b6064820152608401610682565b5090565b600060208284031215611c1957600080fd5b81356001600160e01b031981168114610a1157600080fd5b600060208284031215611c4357600080fd5b5035919050565b60005b83811015611c65578181015183820152602001611c4d565b83811115611c74576000848401525b50505050565b60008151808452611c92816020860160208601611c4a565b601f01601f19169290920160200192915050565b602081526000610a116020830184611c7a565b634e487b7160e01b600052604160045260246000fd5b604051601f8201601f191681016001600160401b0381118282101715611cf757611cf7611cb9565b604052919050565b60006001600160401b03821115611d1857611d18611cb9565b5060051b60200190565b80356001600160a01b0381168114611d3957600080fd5b919050565b600082601f830112611d4f57600080fd5b81356020611d64611d5f83611cff565b611ccf565b82815260059290921b84018101918181019086841115611d8357600080fd5b8286015b84811015611da557611d9881611d22565b8352918301918301611d87565b509695505050505050565b600082601f830112611dc157600080fd5b81356020611dd1611d5f83611cff565b82815260059290921b84018101918181019086841115611df057600080fd5b8286015b84811015611da55780358352918301918301611df4565b60006001600160401b03831115611e2457611e24611cb9565b611e37601f8401601f1916602001611ccf565b9050828152838383011115611e4b57600080fd5b828260208301376000602084830101529392505050565b600082601f830112611e7357600080fd5b81356020611e83611d5f83611cff565b82815260059290921b84018101918181019086841115611ea257600080fd5b8286015b84811015611da55780356001600160401b03811115611ec55760008081fd5b8701603f81018913611ed75760008081fd5b611ee8898683013560408401611e0b565b845250918301918301611ea6565b60008060008060808587031215611f0c57600080fd5b84356001600160401b0380821115611f2357600080fd5b611f2f88838901611d3e565b95506020870135915080821115611f4557600080fd5b611f5188838901611db0565b94506040870135915080821115611f6757600080fd5b50611f7487828801611e62565b949793965093946060013593505050565b803560ff81168114611d3957600080fd5b600080600080600060a08688031215611fae57600080fd5b85359450611fbe60208701611f85565b9350611fcc60408701611f85565b94979396509394606081013594506080013592915050565b634e487b7160e01b600052602160045260246000fd5b602081016008831061201c57634e487b7160e01b600052602160045260246000fd5b91905290565b6000806040838503121561203557600080fd5b8235915061204560208401611d22565b90509250929050565b6000806040838503121561206157600080fd5b8235915061204560208401611f85565b6000806000806060858703121561208757600080fd5b8435935061209760208601611f85565b925060408501356001600160401b03808211156120b357600080fd5b818701915087601f8301126120c757600080fd5b8135818111156120d657600080fd5b8860208285010111156120e857600080fd5b95989497505060200194505050565b6000806000806080858703121561210d57600080fd5b84356001600160401b038082111561212457600080fd5b61213088838901611d3e565b9550602087013591508082111561214657600080fd5b61215288838901611db0565b9450604087013591508082111561216857600080fd5b61217488838901611e62565b9350606087013591508082111561218a57600080fd5b508501601f8101871361219c57600080fd5b6121ab87823560208401611e0b565b91505092959194509250565b600080604083850312156121ca57600080fd5b6121d383611d22565b946020939093013593505050565b60208082526018908201527f476f7665726e6f723a206f6e6c79476f7665726e616e63650000000000000000604082015260600190565b600181811c9082168061222c57607f821691505b60208210811415610a6057634e487b7160e01b600052602260045260246000fd5b600081518084526020808501945080840160005b838110156122865781516001600160a01b031687529582019590820190600101612261565b509495945050505050565b600081518084526020808501945080840160005b83811015612286578151875295820195908201906001016122a5565b600081518084526020808501808196508360051b8101915082860160005b858110156123095782840389526122f7848351611c7a565b988501989350908401906001016122df565b5091979650505050505050565b608081526000612329608083018761224d565b828103602084015261233b8187612291565b9050828103604084015261234f81866122c1565b91505082606083015295945050505050565b60006020828403121561237357600080fd5b5051919050565b634e487b7160e01b600052601160045260246000fd5b60008160001904831182151516156123aa576123aa61237a565b500290565b6000826123cc57634e487b7160e01b600052601260045260246000fd5b500490565b634e487b7160e01b600052603260045260246000fd5b600082516123f9818460208701611c4a565b9190910192915050565b60006000198214156124175761241761237a565b5060010190565b84815260ff84166020820152826040820152608060608201526000610b166080830184611c7a565b600082198211156124595761245961237a565b500190565b6000828210156124705761247061237a565b500390565b60208082526021908201527f476f7665726e6f723a20696e76616c69642070726f706f73616c206c656e67746040820152600d60fb1b606082015260800190565b60006001600160401b038083168185168083038211156124d8576124d861237a565b01949350505050565b60006101208b8352602060018060a01b038c168185015281604085015261250a8285018c61224d565b9150838203606085015261251e828b612291565b915083820360808501528189518084528284019150828160051b850101838c0160005b8381101561256f57601f1987840301855261255d838351611c7a565b94860194925090850190600101612541565b505086810360a0880152612583818c6122c1565b94505050505061259e60c08401876001600160401b03169052565b6001600160401b03851660e08401528281036101008401526125c08185611c7a565b9c9b50505050505050505050505056fe476f7665726e6f723a2063616c6c20726576657274656420776974686f7574206d657373616765a2646970667358221220a75173a7c8043450f55fbb58e6c27bb1068a83f7544aaeb43f698d888673d2a064736f6c634300080a0033",
    "sourcePath": "d:/Github/new_token/contracts/contracts/mocks/GovernorMock.sol",
    "compiler": {
        "name": "solc",
        "version": "0.8.10+commit.fc410830"
    },
    "functionHashes": {
        "BALLOT_TYPEHASH()": "deaaa7cc",
        "COUNTING_MODE()": "dd4e2ba5",
        "cancel(address[],uint256[],bytes[],bytes32)": "452115d6",
        "castVote(uint256,uint8)": "56781388",
        "castVoteBySig(uint256,uint8,uint8,bytes32,bytes32)": "3bccf4fd",
        "castVoteWithReason(uint256,uint8,string)": "7b3c71d3",
        "execute(address[],uint256[],bytes[],bytes32)": "2656227d",
        "getVotes(address,uint256)": "eb9019d4",
        "hasVoted(uint256,address)": "43859632",
        "hashProposal(address[],uint256[],bytes[],bytes32)": "c59057e4",
        "name()": "06fdde03",
        "proposalDeadline(uint256)": "c01f9e37",
        "proposalSnapshot(uint256)": "2d63f693",
        "proposalThreshold()": "b58131b0",
        "proposalVotes(uint256)": "544ffc9c",
        "propose(address[],uint256[],bytes[],string)": "7d5e81e2",
        "quorum(uint256)": "f8ce560a",
        "quorumDenominator()": "97c3d334",
        "quorumNumerator()": "a7713a70",
        "setProposalThreshold(uint256)": "ece40cc1",
        "setVotingDelay(uint256)": "70b0f660",
        "setVotingPeriod(uint256)": "ea0217cf",
        "state(uint256)": "3e4f49e6",
        "supportsInterface(bytes4)": "01ffc9a7",
        "token()": "fc0c546a",
        "updateQuorumNumerator(uint256)": "06f3f9e6",
        "version()": "54fd4d50",
        "votingDelay()": "3932abb1",
        "votingPeriod()": "02a251a3"
    },
    "gasEstimates": {
        "creation": {
            "codeDepositCost": "1954600",
            "executionCost": "infinite",
            "totalCost": "infinite"
        },
        "external": {
            "BALLOT_TYPEHASH()": "284",
            "COUNTING_MODE()": "infinite",
            "cancel(address[],uint256[],bytes[],bytes32)": "infinite",
            "castVote(uint256,uint8)": "infinite",
            "castVoteBySig(uint256,uint8,uint8,bytes32,bytes32)": "infinite",
            "castVoteWithReason(uint256,uint8,string)": "infinite",
            "execute(address[],uint256[],bytes[],bytes32)": "infinite",
            "getVotes(address,uint256)": "infinite",
            "hasVoted(uint256,address)": "2739",
            "hashProposal(address[],uint256[],bytes[],bytes32)": "infinite",
            "name()": "infinite",
            "proposalDeadline(uint256)": "2673",
            "proposalSnapshot(uint256)": "2632",
            "proposalThreshold()": "2419",
            "proposalVotes(uint256)": "6774",
            "propose(address[],uint256[],bytes[],string)": "infinite",
            "quorum(uint256)": "infinite",
            "quorumDenominator()": "237",
            "quorumNumerator()": "2359",
            "setProposalThreshold(uint256)": "25877",
            "setVotingDelay(uint256)": "25857",
            "setVotingPeriod(uint256)": "25945",
            "state(uint256)": "infinite",
            "supportsInterface(bytes4)": "473",
            "token()": "infinite",
            "updateQuorumNumerator(uint256)": "25941",
            "version()": "infinite",
            "votingDelay()": "2404",
            "votingPeriod()": "2350"
        }
    }
}