{
    "contractName": "GovernorTimelockControlMock",
    "abi": [
        {
            "inputs": [
                {
                    "internalType": "string",
                    "name": "name_",
                    "type": "string"
                },
                {
                    "internalType": "contract ERC20Votes",
                    "name": "token_",
                    "type": "address"
                },
                {
                    "internalType": "uint256",
                    "name": "votingDelay_",
                    "type": "uint256"
                },
                {
                    "internalType": "uint256",
                    "name": "votingPeriod_",
                    "type": "uint256"
                },
                {
                    "internalType": "contract TimelockController",
                    "name": "timelock_",
                    "type": "address"
                },
                {
                    "internalType": "uint256",
                    "name": "quorumNumerator_",
                    "type": "uint256"
                }
            ],
            "stateMutability": "nonpayable",
            "type": "constructor"
        },
        {
            "anonymous": false,
            "inputs": [
                {
                    "indexed": false,
                    "internalType": "uint256",
                    "name": "proposalId",
                    "type": "uint256"
                }
            ],
            "name": "ProposalCanceled",
            "type": "event"
        },
        {
            "anonymous": false,
            "inputs": [
                {
                    "indexed": false,
                    "internalType": "uint256",
                    "name": "proposalId",
                    "type": "uint256"
                },
                {
                    "indexed": false,
                    "internalType": "address",
                    "name": "proposer",
                    "type": "address"
                },
                {
                    "indexed": false,
                    "internalType": "address[]",
                    "name": "targets",
                    "type": "address[]"
                },
                {
                    "indexed": false,
                    "internalType": "uint256[]",
                    "name": "values",
                    "type": "uint256[]"
                },
                {
                    "indexed": false,
                    "internalType": "string[]",
                    "name": "signatures",
                    "type": "string[]"
                },
                {
                    "indexed": false,
                    "internalType": "bytes[]",
                    "name": "calldatas",
                    "type": "bytes[]"
                },
                {
                    "indexed": false,
                    "internalType": "uint256",
                    "name": "startBlock",
                    "type": "uint256"
                },
                {
                    "indexed": false,
                    "internalType": "uint256",
                    "name": "endBlock",
                    "type": "uint256"
                },
                {
                    "indexed": false,
                    "internalType": "string",
                    "name": "description",
                    "type": "string"
                }
            ],
            "name": "ProposalCreated",
            "type": "event"
        },
        {
            "anonymous": false,
            "inputs": [
                {
                    "indexed": false,
                    "internalType": "uint256",
                    "name": "proposalId",
                    "type": "uint256"
                }
            ],
            "name": "ProposalExecuted",
            "type": "event"
        },
        {
            "anonymous": false,
            "inputs": [
                {
                    "indexed": false,
                    "internalType": "uint256",
                    "name": "proposalId",
                    "type": "uint256"
                },
                {
                    "indexed": false,
                    "internalType": "uint256",
                    "name": "eta",
                    "type": "uint256"
                }
            ],
            "name": "ProposalQueued",
            "type": "event"
        },
        {
            "anonymous": false,
            "inputs": [
                {
                    "indexed": false,
                    "internalType": "uint256",
                    "name": "oldProposalThreshold",
                    "type": "uint256"
                },
                {
                    "indexed": false,
                    "internalType": "uint256",
                    "name": "newProposalThreshold",
                    "type": "uint256"
                }
            ],
            "name": "ProposalThresholdSet",
            "type": "event"
        },
        {
            "anonymous": false,
            "inputs": [
                {
                    "indexed": false,
                    "internalType": "uint256",
                    "name": "oldQuorumNumerator",
                    "type": "uint256"
                },
                {
                    "indexed": false,
                    "internalType": "uint256",
                    "name": "newQuorumNumerator",
                    "type": "uint256"
                }
            ],
            "name": "QuorumNumeratorUpdated",
            "type": "event"
        },
        {
            "anonymous": false,
            "inputs": [
                {
                    "indexed": false,
                    "internalType": "address",
                    "name": "oldTimelock",
                    "type": "address"
                },
                {
                    "indexed": false,
                    "internalType": "address",
                    "name": "newTimelock",
                    "type": "address"
                }
            ],
            "name": "TimelockChange",
            "type": "event"
        },
        {
            "anonymous": false,
            "inputs": [
                {
                    "indexed": true,
                    "internalType": "address",
                    "name": "voter",
                    "type": "address"
                },
                {
                    "indexed": false,
                    "internalType": "uint256",
                    "name": "proposalId",
                    "type": "uint256"
                },
                {
                    "indexed": false,
                    "internalType": "uint8",
                    "name": "support",
                    "type": "uint8"
                },
                {
                    "indexed": false,
                    "internalType": "uint256",
                    "name": "weight",
                    "type": "uint256"
                },
                {
                    "indexed": false,
                    "internalType": "string",
                    "name": "reason",
                    "type": "string"
                }
            ],
            "name": "VoteCast",
            "type": "event"
        },
        {
            "anonymous": false,
            "inputs": [
                {
                    "indexed": false,
                    "internalType": "uint256",
                    "name": "oldVotingDelay",
                    "type": "uint256"
                },
                {
                    "indexed": false,
                    "internalType": "uint256",
                    "name": "newVotingDelay",
                    "type": "uint256"
                }
            ],
            "name": "VotingDelaySet",
            "type": "event"
        },
        {
            "anonymous": false,
            "inputs": [
                {
                    "indexed": false,
                    "internalType": "uint256",
                    "name": "oldVotingPeriod",
                    "type": "uint256"
                },
                {
                    "indexed": false,
                    "internalType": "uint256",
                    "name": "newVotingPeriod",
                    "type": "uint256"
                }
            ],
            "name": "VotingPeriodSet",
            "type": "event"
        },
        {
            "inputs": [],
            "name": "BALLOT_TYPEHASH",
            "outputs": [
                {
                    "internalType": "bytes32",
                    "name": "",
                    "type": "bytes32"
                }
            ],
            "stateMutability": "view",
            "type": "function"
        },
        {
            "inputs": [],
            "name": "COUNTING_MODE",
            "outputs": [
                {
                    "internalType": "string",
                    "name": "",
                    "type": "string"
                }
            ],
            "stateMutability": "pure",
            "type": "function"
        },
        {
            "inputs": [
                {
                    "internalType": "address[]",
                    "name": "targets",
                    "type": "address[]"
                },
                {
                    "internalType": "uint256[]",
                    "name": "values",
                    "type": "uint256[]"
                },
                {
                    "internalType": "bytes[]",
                    "name": "calldatas",
                    "type": "bytes[]"
                },
                {
                    "internalType": "bytes32",
                    "name": "descriptionHash",
                    "type": "bytes32"
                }
            ],
            "name": "cancel",
            "outputs": [
                {
                    "internalType": "uint256",
                    "name": "proposalId",
                    "type": "uint256"
                }
            ],
            "stateMutability": "nonpayable",
            "type": "function"
        },
        {
            "inputs": [
                {
                    "internalType": "uint256",
                    "name": "proposalId",
                    "type": "uint256"
                },
                {
                    "internalType": "uint8",
                    "name": "support",
                    "type": "uint8"
                }
            ],
            "name": "castVote",
            "outputs": [
                {
                    "internalType": "uint256",
                    "name": "",
                    "type": "uint256"
                }
            ],
            "stateMutability": "nonpayable",
            "type": "function"
        },
        {
            "inputs": [
                {
                    "internalType": "uint256",
                    "name": "proposalId",
                    "type": "uint256"
                },
                {
                    "internalType": "uint8",
                    "name": "support",
                    "type": "uint8"
                },
                {
                    "internalType": "uint8",
                    "name": "v",
                    "type": "uint8"
                },
                {
                    "internalType": "bytes32",
                    "name": "r",
                    "type": "bytes32"
                },
                {
                    "internalType": "bytes32",
                    "name": "s",
                    "type": "bytes32"
                }
            ],
            "name": "castVoteBySig",
            "outputs": [
                {
                    "internalType": "uint256",
                    "name": "",
                    "type": "uint256"
                }
            ],
            "stateMutability": "nonpayable",
            "type": "function"
        },
        {
            "inputs": [
                {
                    "internalType": "uint256",
                    "name": "proposalId",
                    "type": "uint256"
                },
                {
                    "internalType": "uint8",
                    "name": "support",
                    "type": "uint8"
                },
                {
                    "internalType": "string",
                    "name": "reason",
                    "type": "string"
                }
            ],
            "name": "castVoteWithReason",
            "outputs": [
                {
                    "internalType": "uint256",
                    "name": "",
                    "type": "uint256"
                }
            ],
            "stateMutability": "nonpayable",
            "type": "function"
        },
        {
            "inputs": [
                {
                    "internalType": "address[]",
                    "name": "targets",
                    "type": "address[]"
                },
                {
                    "internalType": "uint256[]",
                    "name": "values",
                    "type": "uint256[]"
                },
                {
                    "internalType": "bytes[]",
                    "name": "calldatas",
                    "type": "bytes[]"
                },
                {
                    "internalType": "bytes32",
                    "name": "descriptionHash",
                    "type": "bytes32"
                }
            ],
            "name": "execute",
            "outputs": [
                {
                    "internalType": "uint256",
                    "name": "",
                    "type": "uint256"
                }
            ],
            "stateMutability": "payable",
            "type": "function"
        },
        {
            "inputs": [
                {
                    "internalType": "address",
                    "name": "account",
                    "type": "address"
                },
                {
                    "internalType": "uint256",
                    "name": "blockNumber",
                    "type": "uint256"
                }
            ],
            "name": "getVotes",
            "outputs": [
                {
                    "internalType": "uint256",
                    "name": "",
                    "type": "uint256"
                }
            ],
            "stateMutability": "view",
            "type": "function"
        },
        {
            "inputs": [
                {
                    "internalType": "uint256",
                    "name": "proposalId",
                    "type": "uint256"
                },
                {
                    "internalType": "address",
                    "name": "account",
                    "type": "address"
                }
            ],
            "name": "hasVoted",
            "outputs": [
                {
                    "internalType": "bool",
                    "name": "",
                    "type": "bool"
                }
            ],
            "stateMutability": "view",
            "type": "function"
        },
        {
            "inputs": [
                {
                    "internalType": "address[]",
                    "name": "targets",
                    "type": "address[]"
                },
                {
                    "internalType": "uint256[]",
                    "name": "values",
                    "type": "uint256[]"
                },
                {
                    "internalType": "bytes[]",
                    "name": "calldatas",
                    "type": "bytes[]"
                },
                {
                    "internalType": "bytes32",
                    "name": "descriptionHash",
                    "type": "bytes32"
                }
            ],
            "name": "hashProposal",
            "outputs": [
                {
                    "internalType": "uint256",
                    "name": "",
                    "type": "uint256"
                }
            ],
            "stateMutability": "pure",
            "type": "function"
        },
        {
            "inputs": [],
            "name": "name",
            "outputs": [
                {
                    "internalType": "string",
                    "name": "",
                    "type": "string"
                }
            ],
            "stateMutability": "view",
            "type": "function"
        },
        {
            "inputs": [
                {
                    "internalType": "uint256",
                    "name": "proposalId",
                    "type": "uint256"
                }
            ],
            "name": "proposalDeadline",
            "outputs": [
                {
                    "internalType": "uint256",
                    "name": "",
                    "type": "uint256"
                }
            ],
            "stateMutability": "view",
            "type": "function"
        },
        {
            "inputs": [
                {
                    "internalType": "uint256",
                    "name": "proposalId",
                    "type": "uint256"
                }
            ],
            "name": "proposalEta",
            "outputs": [
                {
                    "internalType": "uint256",
                    "name": "",
                    "type": "uint256"
                }
            ],
            "stateMutability": "view",
            "type": "function"
        },
        {
            "inputs": [
                {
                    "internalType": "uint256",
                    "name": "proposalId",
                    "type": "uint256"
                }
            ],
            "name": "proposalSnapshot",
            "outputs": [
                {
                    "internalType": "uint256",
                    "name": "",
                    "type": "uint256"
                }
            ],
            "stateMutability": "view",
            "type": "function"
        },
        {
            "inputs": [],
            "name": "proposalThreshold",
            "outputs": [
                {
                    "internalType": "uint256",
                    "name": "",
                    "type": "uint256"
                }
            ],
            "stateMutability": "view",
            "type": "function"
        },
        {
            "inputs": [
                {
                    "internalType": "uint256",
                    "name": "proposalId",
                    "type": "uint256"
                }
            ],
            "name": "proposalVotes",
            "outputs": [
                {
                    "internalType": "uint256",
                    "name": "againstVotes",
                    "type": "uint256"
                },
                {
                    "internalType": "uint256",
                    "name": "forVotes",
                    "type": "uint256"
                },
                {
                    "internalType": "uint256",
                    "name": "abstainVotes",
                    "type": "uint256"
                }
            ],
            "stateMutability": "view",
            "type": "function"
        },
        {
            "inputs": [
                {
                    "internalType": "address[]",
                    "name": "targets",
                    "type": "address[]"
                },
                {
                    "internalType": "uint256[]",
                    "name": "values",
                    "type": "uint256[]"
                },
                {
                    "internalType": "bytes[]",
                    "name": "calldatas",
                    "type": "bytes[]"
                },
                {
                    "internalType": "string",
                    "name": "description",
                    "type": "string"
                }
            ],
            "name": "propose",
            "outputs": [
                {
                    "internalType": "uint256",
                    "name": "",
                    "type": "uint256"
                }
            ],
            "stateMutability": "nonpayable",
            "type": "function"
        },
        {
            "inputs": [
                {
                    "internalType": "address[]",
                    "name": "targets",
                    "type": "address[]"
                },
                {
                    "internalType": "uint256[]",
                    "name": "values",
                    "type": "uint256[]"
                },
                {
                    "internalType": "bytes[]",
                    "name": "calldatas",
                    "type": "bytes[]"
                },
                {
                    "internalType": "bytes32",
                    "name": "descriptionHash",
                    "type": "bytes32"
                }
            ],
            "name": "queue",
            "outputs": [
                {
                    "internalType": "uint256",
                    "name": "",
                    "type": "uint256"
                }
            ],
            "stateMutability": "nonpayable",
            "type": "function"
        },
        {
            "inputs": [
                {
                    "internalType": "uint256",
                    "name": "blockNumber",
                    "type": "uint256"
                }
            ],
            "name": "quorum",
            "outputs": [
                {
                    "internalType": "uint256",
                    "name": "",
                    "type": "uint256"
                }
            ],
            "stateMutability": "view",
            "type": "function"
        },
        {
            "inputs": [],
            "name": "quorumDenominator",
            "outputs": [
                {
                    "internalType": "uint256",
                    "name": "",
                    "type": "uint256"
                }
            ],
            "stateMutability": "view",
            "type": "function"
        },
        {
            "inputs": [],
            "name": "quorumNumerator",
            "outputs": [
                {
                    "internalType": "uint256",
                    "name": "",
                    "type": "uint256"
                }
            ],
            "stateMutability": "view",
            "type": "function"
        },
        {
            "inputs": [
                {
                    "internalType": "uint256",
                    "name": "newProposalThreshold",
                    "type": "uint256"
                }
            ],
            "name": "setProposalThreshold",
            "outputs": [],
            "stateMutability": "nonpayable",
            "type": "function"
        },
        {
            "inputs": [
                {
                    "internalType": "uint256",
                    "name": "newVotingDelay",
                    "type": "uint256"
                }
            ],
            "name": "setVotingDelay",
            "outputs": [],
            "stateMutability": "nonpayable",
            "type": "function"
        },
        {
            "inputs": [
                {
                    "internalType": "uint256",
                    "name": "newVotingPeriod",
                    "type": "uint256"
                }
            ],
            "name": "setVotingPeriod",
            "outputs": [],
            "stateMutability": "nonpayable",
            "type": "function"
        },
        {
            "inputs": [
                {
                    "internalType": "uint256",
                    "name": "proposalId",
                    "type": "uint256"
                }
            ],
            "name": "state",
            "outputs": [
                {
                    "internalType": "enum IGovernor.ProposalState",
                    "name": "",
                    "type": "uint8"
                }
            ],
            "stateMutability": "view",
            "type": "function"
        },
        {
            "inputs": [
                {
                    "internalType": "bytes4",
                    "name": "interfaceId",
                    "type": "bytes4"
                }
            ],
            "name": "supportsInterface",
            "outputs": [
                {
                    "internalType": "bool",
                    "name": "",
                    "type": "bool"
                }
            ],
            "stateMutability": "view",
            "type": "function"
        },
        {
            "inputs": [],
            "name": "timelock",
            "outputs": [
                {
                    "internalType": "address",
                    "name": "",
                    "type": "address"
                }
            ],
            "stateMutability": "view",
            "type": "function"
        },
        {
            "inputs": [],
            "name": "token",
            "outputs": [
                {
                    "internalType": "contract ERC20Votes",
                    "name": "",
                    "type": "address"
                }
            ],
            "stateMutability": "view",
            "type": "function"
        },
        {
            "inputs": [
                {
                    "internalType": "uint256",
                    "name": "newQuorumNumerator",
                    "type": "uint256"
                }
            ],
            "name": "updateQuorumNumerator",
            "outputs": [],
            "stateMutability": "nonpayable",
            "type": "function"
        },
        {
            "inputs": [
                {
                    "internalType": "contract TimelockController",
                    "name": "newTimelock",
                    "type": "address"
                }
            ],
            "name": "updateTimelock",
            "outputs": [],
            "stateMutability": "nonpayable",
            "type": "function"
        },
        {
            "inputs": [],
            "name": "version",
            "outputs": [
                {
                    "internalType": "string",
                    "name": "",
                    "type": "string"
                }
            ],
            "stateMutability": "view",
            "type": "function"
        },
        {
            "inputs": [],
            "name": "votingDelay",
            "outputs": [
                {
                    "internalType": "uint256",
                    "name": "",
                    "type": "uint256"
                }
            ],
            "stateMutability": "view",
            "type": "function"
        },
        {
            "inputs": [],
            "name": "votingPeriod",
            "outputs": [
                {
                    "internalType": "uint256",
                    "name": "",
                    "type": "uint256"
                }
            ],
            "stateMutability": "view",
            "type": "function"
        },
        {
            "stateMutability": "payable",
            "type": "receive"
        }
    ],
    "bytecode": "6101606040523480156200001257600080fd5b50604051620032e9380380620032e9833981016040819052620000359162000496565b808583868660008b806200005d6040805180820190915260018152603160f81b602082015290565b815160208084019190912082518383012060e08290526101008190524660a0818152604080517f8b73c3c69bb8fe3d512ecc4cf759cc79239f7b179b0ffacaa9a75d522b39400f81880181905281830187905260608201869052608082019490945230818401528151808203909301835260c00190528051940193909320919290916080523060c0526101205250508251620001039250600091506020840190620003bd565b506200011190508362000161565b6200011c82620001a2565b620001278162000249565b5050506200013b816200028a60201b60201c565b506001600160a01b0316610140526200015481620002f3565b50505050505050620005f2565b60025460408051918252602082018390527fc565b045403dc03c2eea82b81a0465edad9e2e7fc4d97e11421c209da93d7a93910160405180910390a1600255565b60008111620002085760405162461bcd60e51b815260206004820152602760248201527f476f7665726e6f7253657474696e67733a20766f74696e6720706572696f6420604482015266746f6f206c6f7760c81b60648201526084015b60405180910390fd5b60035460408051918252602082018390527f7e3f7f0708a84de9203036abaa450dccc85ad5ff52f78c170f3edb55cf5e8828910160405180910390a1600355565b60045460408051918252602082018390527fccb45da8d5717e6c4544694297c4ba5cf151d455c9bb0ed4fc7a38411bc05461910160405180910390a1600455565b600554604080516001600160a01b03928316815291831660208301527f08f74ea46ef7894f65eabfb5e6e695de773a000b47c529ab559178069b226401910160405180910390a1600580546001600160a01b0319166001600160a01b0392909216919091179055565b6064811115620003785760405162461bcd60e51b815260206004820152604360248201527f476f7665726e6f72566f74657351756f72756d4672616374696f6e3a2071756f60448201527f72756d4e756d657261746f72206f7665722071756f72756d44656e6f6d696e616064820152623a37b960e91b608482015260a401620001ff565b600780549082905560408051828152602081018490527f0553476bf02ef2726e8ce5ced78d63e26e602e4a2257b1f559418e24b4633997910160405180910390a15050565b828054620003cb90620005b5565b90600052602060002090601f016020900481019282620003ef57600085556200043a565b82601f106200040a57805160ff19168380011785556200043a565b828001600101855582156200043a579182015b828111156200043a5782518255916020019190600101906200041d565b50620004489291506200044c565b5090565b5b808211156200044857600081556001016200044d565b634e487b7160e01b600052604160045260246000fd5b80516001600160a01b03811681146200049157600080fd5b919050565b60008060008060008060c08789031215620004b057600080fd5b86516001600160401b0380821115620004c857600080fd5b818901915089601f830112620004dd57600080fd5b815181811115620004f257620004f262000463565b604051601f8201601f19908116603f011681019083821181831017156200051d576200051d62000463565b81604052828152602093508c848487010111156200053a57600080fd5b600091505b828210156200055e57848201840151818301850152908301906200053f565b82821115620005705760008484830101525b99506200058291505089820162000479565b965050506040870151935060608701519250620005a26080880162000479565b915060a087015190509295509295509295565b600181811c90821680620005ca57607f821691505b60208210811415620005ec57634e487b7160e01b600052602260045260246000fd5b50919050565b60805160a05160c05160e051610100516101205161014051612c8e6200065b600039600081816106ca015281816116e801526117b30152600061196d015260006119bc01526000611997015260006118f00152600061191a015260006119440152612c8e6000f3fe6080604052600436106101f25760003560e01c80637b3c71d31161010d578063c59057e4116100a0578063ea0217cf1161006f578063ea0217cf14610638578063eb9019d414610658578063ece40cc114610678578063f8ce560a14610698578063fc0c546a146106b857600080fd5b8063c59057e41461056c578063d33219b41461058c578063dd4e2ba5146105be578063deaaa7cc1461060457600080fd5b8063a890c910116100dc578063a890c910146104f7578063ab58fb8e14610517578063b58131b014610537578063c01f9e371461054c57600080fd5b80637b3c71d31461048e5780637d5e81e2146104ae57806397c3d334146104ce578063a7713a70146104e257600080fd5b80633bccf4fd11610185578063544ffc9c11610154578063544ffc9c146103cf57806354fd4d5014610424578063567813881461044e57806370b0f6601461046e57600080fd5b80633bccf4fd146103185780633e4f49e6146103385780634385963214610365578063452115d6146103af57600080fd5b8063160cbed7116101c1578063160cbed7146102b05780632656227d146102d05780632d63f693146102e35780633932abb11461030357600080fd5b806301ffc9a71461021a57806302a251a31461024f57806306f3f9e61461026e57806306fdde031461028e57600080fd5b3661021557306102006106ec565b6001600160a01b03161461021357600080fd5b005b600080fd5b34801561022657600080fd5b5061023a6102353660046121b9565b610705565b60405190151581526020015b60405180910390f35b34801561025b57600080fd5b506003545b604051908152602001610246565b34801561027a57600080fd5b506102136102893660046121e3565b610716565b34801561029a57600080fd5b506102a3610763565b6040516102469190612249565b3480156102bc57600080fd5b506102606102cb366004612494565b6107f5565b6102606102de366004612494565b6109f6565b3480156102ef57600080fd5b506102606102fe3660046121e3565b610ac9565b34801561030f57600080fd5b50600254610260565b34801561032457600080fd5b50610260610333366004612539565b610b00565b34801561034457600080fd5b506103586103533660046121e3565b610b94565b604051610246919061259d565b34801561037157600080fd5b5061023a6103803660046125c5565b60008281526008602090815260408083206001600160a01b038516845260030190915290205460ff1692915050565b3480156103bb57600080fd5b506102606103ca366004612494565b610b9f565b3480156103db57600080fd5b506104096103ea3660046121e3565b6000908152600860205260409020805460018201546002909201549092565b60408051938452602084019290925290820152606001610246565b34801561043057600080fd5b506040805180820190915260018152603160f81b60208201526102a3565b34801561045a57600080fd5b506102606104693660046125f5565b610bb6565b34801561047a57600080fd5b506102136104893660046121e3565b610bdf565b34801561049a57600080fd5b506102606104a9366004612621565b610c20565b3480156104ba57600080fd5b506102606104c93660046126a7565b610c72565b3480156104da57600080fd5b506064610260565b3480156104ee57600080fd5b50600754610260565b34801561050357600080fd5b50610213610512366004612767565b610f4f565b34801561052357600080fd5b506102606105323660046121e3565b610f90565b34801561054357600080fd5b5061026061102b565b34801561055857600080fd5b506102606105673660046121e3565b611036565b34801561057857600080fd5b50610260610587366004612494565b611065565b34801561059857600080fd5b506005546001600160a01b03165b6040516001600160a01b039091168152602001610246565b3480156105ca57600080fd5b506040805180820190915260208082527f737570706f72743d627261766f2671756f72756d3d666f722c6162737461696e908201526102a3565b34801561061057600080fd5b506102607f150214d74d59b7d1e90c73fc22ef3d991dd0a76b046543d4d80ab92d2a50328f81565b34801561064457600080fd5b506102136106533660046121e3565b61109f565b34801561066457600080fd5b50610260610673366004612784565b6110e0565b34801561068457600080fd5b506102136106933660046121e3565b6110ec565b3480156106a457600080fd5b506102606106b33660046121e3565b61112d565b3480156106c457600080fd5b506105a67f000000000000000000000000000000000000000000000000000000000000000081565b60006107006005546001600160a01b031690565b905090565b600061071082611138565b92915050565b61071e6106ec565b6001600160a01b0316336001600160a01b0316146107575760405162461bcd60e51b815260040161074e906127b0565b60405180910390fd5b6107608161115d565b50565b606060008054610772906127e7565b80601f016020809104026020016040519081016040528092919081815260200182805461079e906127e7565b80156107eb5780601f106107c0576101008083540402835291602001916107eb565b820191906000526020600020905b8154815290600101906020018083116107ce57829003601f168201915b5050505050905090565b60008061080486868686611065565b9050600461081182610b94565b600781111561082257610822612587565b1461083f5760405162461bcd60e51b815260040161074e9061281c565b6005546040805163793d064960e11b815290516000926001600160a01b03169163f27a0c929160048083019260209291908290030181865afa158015610889573d6000803e3d6000fd5b505050506040513d601f19601f820116820180604052508101906108ad919061285d565b60055460405163b1c5f42760e01b81529192506001600160a01b03169063b1c5f427906108e7908a908a908a906000908b9060040161293c565b602060405180830381865afa158015610904573d6000803e3d6000fd5b505050506040513d601f19601f82011682018060405250810190610928919061285d565b6000838152600660205260408082209290925560055491516308f2a0bb60e41b81526001600160a01b0390921691638f2a0bb091610973918b918b918b91908b90899060040161298a565b600060405180830381600087803b15801561098d57600080fd5b505af11580156109a1573d6000803e3d6000fd5b505050507f9a2e42fd6722813d69113e7d0079d3d940171428df7373df9c7f7617cfda28928282426109d391906129f8565b604080519283526020830191909152015b60405180910390a15095945050505050565b600080610a0586868686611065565b90506000610a1282610b94565b90506004816007811115610a2857610a28612587565b1480610a4557506005816007811115610a4357610a43612587565b145b610a615760405162461bcd60e51b815260040161074e9061281c565b600082815260016020818152604092839020600201805460ff191690921790915590518381527f712ae1383f79ac853f8d882153778e0260ef8f03b504e2866e0593e04d2b291f910160405180910390a1610abf8288888888611225565b5095945050505050565b60008181526001602090815260408083208151928301909152546001600160401b0316908190525b6001600160401b031692915050565b604080517f150214d74d59b7d1e90c73fc22ef3d991dd0a76b046543d4d80ab92d2a50328f602082015290810186905260ff851660608201526000908190610b6c90610b649060800160405160208183030381529060405280519060200120611239565b868686611287565b9050610b89878288604051806020016040528060008152506112a5565b979650505050505050565b6000610710826113b0565b6000610bad858585856114fa565b95945050505050565b600080339050610bd7848285604051806020016040528060008152506112a5565b949350505050565b610be76106ec565b6001600160a01b0316336001600160a01b031614610c175760405162461bcd60e51b815260040161074e906127b0565b61076081611508565b600080339050610c6886828787878080601f0160208091040260200160405190810160405280939291908181526020018383808284376000920191909152506112a592505050565b9695505050505050565b6000610c7c61102b565b610c8b33610673600143612a10565b1015610d0b5760405162461bcd60e51b815260206004820152604360248201527f476f7665726e6f72436f6d7061746962696c697479427261766f3a2070726f7060448201527f6f73657220766f7465732062656c6f772070726f706f73616c207468726573686064820152621bdb1960ea1b608482015260a40161074e565b6000610d208686868680519060200120611065565b90508451865114610d435760405162461bcd60e51b815260040161074e90612a27565b8351865114610d645760405162461bcd60e51b815260040161074e90612a27565b6000865111610db55760405162461bcd60e51b815260206004820152601860248201527f476f7665726e6f723a20656d7074792070726f706f73616c0000000000000000604482015260640161074e565b600081815260016020908152604091829020825191820190925281546001600160401b03169081905215610e355760405162461bcd60e51b815260206004820152602160248201527f476f7665726e6f723a2070726f706f73616c20616c72656164792065786973746044820152607360f81b606482015260840161074e565b6000610e48610e4360025490565b611549565b610e5143611549565b610e5b9190612a68565b90506000610e6b610e4360035490565b610e759083612a68565b835467ffffffffffffffff19166001600160401b038416178455905060018301805467ffffffffffffffff19166001600160401b0383161790557f7d84a6263ae0d98d3329bd7b46bb4e8d6f98cd35a7adb45c274c8b7fd5ebd5e084338b8b8d516001600160401b03811115610eed57610eed61225c565b604051908082528060200260200182016040528015610f2057816020015b6060815260200190600190039081610f0b5790505b508c88888e604051610f3a99989796959493929190612a93565b60405180910390a15091979650505050505050565b610f576106ec565b6001600160a01b0316336001600160a01b031614610f875760405162461bcd60e51b815260040161074e906127b0565b610760816115b5565b60055460008281526006602052604080822054905163d45c443560e01b81526004810191909152909182916001600160a01b039091169063d45c443590602401602060405180830381865afa158015610fed573d6000803e3d6000fd5b505050506040513d601f19601f82011682018060405250810190611011919061285d565b9050806001146110215780611024565b60005b9392505050565b600061070060045490565b60008181526001602081815260408084208151928301909152909101546001600160401b031690819052610af1565b60008484848460405160200161107e9493929190612b82565b60408051601f19818403018152919052805160209091012095945050505050565b6110a76106ec565b6001600160a01b0316336001600160a01b0316146110d75760405162461bcd60e51b815260040161074e906127b0565b6107608161161e565b600061102483836116bf565b6110f46106ec565b6001600160a01b0316336001600160a01b0316146111245760405162461bcd60e51b815260040161074e906127b0565b61076081611755565b600061071082611796565b60006001600160e01b03198216636e665ced60e01b148061071057506107108261183a565b60648111156111e05760405162461bcd60e51b815260206004820152604360248201527f476f7665726e6f72566f74657351756f72756d4672616374696f6e3a2071756f60448201527f72756d4e756d657261746f72206f7665722071756f72756d44656e6f6d696e616064820152623a37b960e91b608482015260a40161074e565b600780549082905560408051828152602081018490527f0553476bf02ef2726e8ce5ced78d63e26e602e4a2257b1f559418e24b4633997910160405180910390a15050565b611232858585858561186f565b5050505050565b60006107106112466118e3565b8360405161190160f01b6020820152602281018390526042810182905260009060620160405160208183030381529060405280519060200120905092915050565b600080600061129887878787611a0a565b91509150610abf81611af7565b60008481526001602081905260408220906112bf87610b94565b60078111156112d0576112d0612587565b146113295760405162461bcd60e51b815260206004820152602360248201527f476f7665726e6f723a20766f7465206e6f742063757272656e746c792061637460448201526269766560e81b606482015260840161074e565b604080516020810190915281546001600160401b0316908190526000906113519087906110e0565b905061135f87878784611cb2565b856001600160a01b03167fb8e138887d0aa13bab447e82de9d5c1777041ecd21ca36ba824ff1e6c07ddda48887848860405161139e9493929190612bcd565b60405180910390a29695505050505050565b6000806113bc83611e31565b905060048160078111156113d2576113d2612587565b146113dd5792915050565b600083815260066020526040902054806113f8575092915050565b600554604051632ab0f52960e01b8152600481018390526001600160a01b0390911690632ab0f52990602401602060405180830381865afa158015611441573d6000803e3d6000fd5b505050506040513d601f19601f820116820180604052508101906114659190612bf5565b15611474575060079392505050565b600554604051632c258a9f60e11b8152600481018390526001600160a01b039091169063584b153e90602401602060405180830381865afa1580156114bd573d6000803e3d6000fd5b505050506040513d601f19601f820116820180604052508101906114e19190612bf5565b156114f0575060059392505050565b5060029392505050565b6000610bad85858585611f95565b60025460408051918252602082018390527fc565b045403dc03c2eea82b81a0465edad9e2e7fc4d97e11421c209da93d7a93910160405180910390a1600255565b60006001600160401b038211156115b15760405162461bcd60e51b815260206004820152602660248201527f53616665436173743a2076616c756520646f65736e27742066697420696e203660448201526534206269747360d01b606482015260840161074e565b5090565b600554604080516001600160a01b03928316815291831660208301527f08f74ea46ef7894f65eabfb5e6e695de773a000b47c529ab559178069b226401910160405180910390a1600580546001600160a01b0319166001600160a01b0392909216919091179055565b6000811161167e5760405162461bcd60e51b815260206004820152602760248201527f476f7665726e6f7253657474696e67733a20766f74696e6720706572696f6420604482015266746f6f206c6f7760c81b606482015260840161074e565b60035460408051918252602082018390527f7e3f7f0708a84de9203036abaa450dccc85ad5ff52f78c170f3edb55cf5e8828910160405180910390a1600355565b604051630748d63560e31b81526001600160a01b038381166004830152602482018390526000917f000000000000000000000000000000000000000000000000000000000000000090911690633a46b1a890604401602060405180830381865afa158015611731573d6000803e3d6000fd5b505050506040513d601f19601f82011682018060405250810190611024919061285d565b60045460408051918252602082018390527fccb45da8d5717e6c4544694297c4ba5cf151d455c9bb0ed4fc7a38411bc05461910160405180910390a1600455565b60006064600754604051632394e7a360e21b8152600481018590527f00000000000000000000000000000000000000000000000000000000000000006001600160a01b031690638e539e8c90602401602060405180830381865afa158015611802573d6000803e3d6000fd5b505050506040513d601f19601f82011682018060405250810190611826919061285d565b6118309190612c17565b6107109190612c36565b60006001600160e01b0319821663bf26d89760e01b148061071057506301ffc9a760e01b6001600160e01b0319831614610710565b60055460405163e38335e560e01b81526001600160a01b039091169063e38335e59034906118aa90889088908890600090899060040161293c565b6000604051808303818588803b1580156118c357600080fd5b505af11580156118d7573d6000803e3d6000fd5b50505050505050505050565b6000306001600160a01b037f00000000000000000000000000000000000000000000000000000000000000001614801561193c57507f000000000000000000000000000000000000000000000000000000000000000046145b1561196657507f000000000000000000000000000000000000000000000000000000000000000090565b50604080517f00000000000000000000000000000000000000000000000000000000000000006020808301919091527f0000000000000000000000000000000000000000000000000000000000000000828401527f000000000000000000000000000000000000000000000000000000000000000060608301524660808301523060a0808401919091528351808403909101815260c0909201909252805191012090565b6000807f7fffffffffffffffffffffffffffffff5d576e7357a4501ddfe92f46681b20a0831115611a415750600090506003611aee565b8460ff16601b14158015611a5957508460ff16601c14155b15611a6a5750600090506004611aee565b6040805160008082526020820180845289905260ff881692820192909252606081018690526080810185905260019060a0016020604051602081039080840390855afa158015611abe573d6000803e3d6000fd5b5050604051601f1901519150506001600160a01b038116611ae757600060019250925050611aee565b9150600090505b94509492505050565b6000816004811115611b0b57611b0b612587565b1415611b145750565b6001816004811115611b2857611b28612587565b1415611b765760405162461bcd60e51b815260206004820152601860248201527f45434453413a20696e76616c6964207369676e61747572650000000000000000604482015260640161074e565b6002816004811115611b8a57611b8a612587565b1415611bd85760405162461bcd60e51b815260206004820152601f60248201527f45434453413a20696e76616c6964207369676e6174757265206c656e67746800604482015260640161074e565b6003816004811115611bec57611bec612587565b1415611c455760405162461bcd60e51b815260206004820152602260248201527f45434453413a20696e76616c6964207369676e6174757265202773272076616c604482015261756560f01b606482015260840161074e565b6004816004811115611c5957611c59612587565b14156107605760405162461bcd60e51b815260206004820152602260248201527f45434453413a20696e76616c6964207369676e6174757265202776272076616c604482015261756560f01b606482015260840161074e565b60008481526008602090815260408083206001600160a01b0387168452600381019092529091205460ff1615611d3a5760405162461bcd60e51b815260206004820152602760248201527f476f7665726e6f72566f74696e6753696d706c653a20766f746520616c726561604482015266191e4818d85cdd60ca1b606482015260840161074e565b6001600160a01b03841660009081526003820160205260408120805460ff1916600117905560ff168360ff161415611d8b5781816000016000828254611d8091906129f8565b909155506112329050565b60ff831660011415611dab5781816001016000828254611d8091906129f8565b60ff831660021415611dcb5781816002016000828254611d8091906129f8565b60405162461bcd60e51b815260206004820152603560248201527f476f7665726e6f72566f74696e6753696d706c653a20696e76616c69642076616044820152746c756520666f7220656e756d20566f74655479706560581b606482015260840161074e565b6000818152600160208181526040808420815160a08101835281546001600160401b0390811660808301908152825283518086018552958301541685529283019390935260029092015460ff80821615801594840194909452610100909104161515606082015290611ea65750600792915050565b806060015115611eb95750600292915050565b80515143906001600160401b031610611ed55750600092915050565b43611ee282602001515190565b6001600160401b031610611ef95750600192915050565b611f068160200151612047565b15611f4757611f1483612076565b8015611f33575060008381526008602052604090208054600190910154115b611f3e576003611024565b60049392505050565b60405162461bcd60e51b815260206004820152601d60248201527f476f7665726e6f723a20756e6b6e6f776e2070726f706f73616c206964000000604482015260640161074e565b50919050565b600080611fa4868686866120ad565b60008181526006602052604090205490915015610bad576005546000828152600660205260409081902054905163c4d252f560e01b81526001600160a01b039092169163c4d252f591611ffd9160040190815260200190565b600060405180830381600087803b15801561201757600080fd5b505af115801561202b573d6000803e3d6000fd5b5050506000828152600660205260408120555095945050505050565b600061205c82516001600160401b0316151590565b801561071057505051436001600160401b03909116111590565b60008181526008602052604081206002810154600182015461209891906129f8565b6120a46106b385610ac9565b11159392505050565b6000806120bc86868686611065565b905060006120c982610b94565b905060028160078111156120df576120df612587565b141580156120ff575060068160078111156120fc576120fc612587565b14155b801561211d5750600781600781111561211a5761211a612587565b14155b6121695760405162461bcd60e51b815260206004820152601d60248201527f476f7665726e6f723a2070726f706f73616c206e6f7420616374697665000000604482015260640161074e565b60008281526001602052604090819020600201805461ff001916610100179055517f789cf55be980739dad1d0699b93b58e806b51c9d96619bfa8fe0a28abaa7b30c906109e49084815260200190565b6000602082840312156121cb57600080fd5b81356001600160e01b03198116811461102457600080fd5b6000602082840312156121f557600080fd5b5035919050565b6000815180845260005b8181101561222257602081850181015186830182015201612206565b81811115612234576000602083870101525b50601f01601f19169290920160200192915050565b60208152600061102460208301846121fc565b634e487b7160e01b600052604160045260246000fd5b604051601f8201601f191681016001600160401b038111828210171561229a5761229a61225c565b604052919050565b60006001600160401b038211156122bb576122bb61225c565b5060051b60200190565b6001600160a01b038116811461076057600080fd5b600082601f8301126122eb57600080fd5b813560206123006122fb836122a2565b612272565b82815260059290921b8401810191818101908684111561231f57600080fd5b8286015b84811015612343578035612336816122c5565b8352918301918301612323565b509695505050505050565b600082601f83011261235f57600080fd5b8135602061236f6122fb836122a2565b82815260059290921b8401810191818101908684111561238e57600080fd5b8286015b848110156123435780358352918301918301612392565b60006001600160401b038311156123c2576123c261225c565b6123d5601f8401601f1916602001612272565b90508281528383830111156123e957600080fd5b828260208301376000602084830101529392505050565b600082601f83011261241157600080fd5b813560206124216122fb836122a2565b82815260059290921b8401810191818101908684111561244057600080fd5b8286015b848110156123435780356001600160401b038111156124635760008081fd5b8701603f810189136124755760008081fd5b6124868986830135604084016123a9565b845250918301918301612444565b600080600080608085870312156124aa57600080fd5b84356001600160401b03808211156124c157600080fd5b6124cd888389016122da565b955060208701359150808211156124e357600080fd5b6124ef8883890161234e565b9450604087013591508082111561250557600080fd5b5061251287828801612400565b949793965093946060013593505050565b803560ff8116811461253457600080fd5b919050565b600080600080600060a0868803121561255157600080fd5b8535945061256160208701612523565b935061256f60408701612523565b94979396509394606081013594506080013592915050565b634e487b7160e01b600052602160045260246000fd5b60208101600883106125bf57634e487b7160e01b600052602160045260246000fd5b91905290565b600080604083850312156125d857600080fd5b8235915060208301356125ea816122c5565b809150509250929050565b6000806040838503121561260857600080fd5b8235915061261860208401612523565b90509250929050565b6000806000806060858703121561263757600080fd5b8435935061264760208601612523565b925060408501356001600160401b038082111561266357600080fd5b818701915087601f83011261267757600080fd5b81358181111561268657600080fd5b88602082850101111561269857600080fd5b95989497505060200194505050565b600080600080608085870312156126bd57600080fd5b84356001600160401b03808211156126d457600080fd5b6126e0888389016122da565b955060208701359150808211156126f657600080fd5b6127028883890161234e565b9450604087013591508082111561271857600080fd5b61272488838901612400565b9350606087013591508082111561273a57600080fd5b508501601f8101871361274c57600080fd5b61275b878235602084016123a9565b91505092959194509250565b60006020828403121561277957600080fd5b8135611024816122c5565b6000806040838503121561279757600080fd5b82356127a2816122c5565b946020939093013593505050565b60208082526018908201527f476f7665726e6f723a206f6e6c79476f7665726e616e63650000000000000000604082015260600190565b600181811c908216806127fb57607f821691505b60208210811415611f8f57634e487b7160e01b600052602260045260246000fd5b60208082526021908201527f476f7665726e6f723a2070726f706f73616c206e6f74207375636365737366756040820152601b60fa1b606082015260800190565b60006020828403121561286f57600080fd5b5051919050565b600081518084526020808501945080840160005b838110156128af5781516001600160a01b03168752958201959082019060010161288a565b509495945050505050565b600081518084526020808501945080840160005b838110156128af578151875295820195908201906001016128ce565b6000815180845260208085019450848260051b860182860160005b8581101561292f57838303895261291d8383516121fc565b98850198925090840190600101612905565b5090979650505050505050565b60a08152600061294f60a0830188612876565b828103602084015261296181886128ba565b9050828103604084015261297581876128ea565b60608401959095525050608001529392505050565b60c08152600061299d60c0830189612876565b82810360208401526129af81896128ba565b905082810360408401526129c381886128ea565b60608401969096525050608081019290925260a0909101529392505050565b634e487b7160e01b600052601160045260246000fd5b60008219821115612a0b57612a0b6129e2565b500190565b600082821015612a2257612a226129e2565b500390565b60208082526021908201527f476f7665726e6f723a20696e76616c69642070726f706f73616c206c656e67746040820152600d60fb1b606082015260800190565b60006001600160401b03808316818516808303821115612a8a57612a8a6129e2565b01949350505050565b60006101208b8352602060018060a01b038c1681850152816040850152612abc8285018c612876565b91508382036060850152612ad0828b6128ba565b915083820360808501528189518084528284019150828160051b850101838c0160005b83811015612b2157601f19878403018552612b0f8383516121fc565b94860194925090850190600101612af3565b505086810360a0880152612b35818c6128ea565b945050505050612b5060c08401876001600160401b03169052565b6001600160401b03851660e0840152828103610100840152612b7281856121fc565b9c9b505050505050505050505050565b608081526000612b956080830187612876565b8281036020840152612ba781876128ba565b90508281036040840152612bbb81866128ea565b91505082606083015295945050505050565b84815260ff84166020820152826040820152608060608201526000610c6860808301846121fc565b600060208284031215612c0757600080fd5b8151801515811461102457600080fd5b6000816000190483118215151615612c3157612c316129e2565b500290565b600082612c5357634e487b7160e01b600052601260045260246000fd5b50049056fea2646970667358221220f61727a784f15aee720bf9820a4f0908dccf46b45c23595a14dfd0d039bf7ba464736f6c634300080a0033",
    "sourcePath": "d:/Github/new_token/contracts/contracts/mocks/GovernorTimelockControlMock.sol",
    "compiler": {
        "name": "solc",
        "version": "0.8.10+commit.fc410830"
    },
    "functionHashes": {
        "BALLOT_TYPEHASH()": "deaaa7cc",
        "COUNTING_MODE()": "dd4e2ba5",
        "cancel(address[],uint256[],bytes[],bytes32)": "452115d6",
        "castVote(uint256,uint8)": "56781388",
        "castVoteBySig(uint256,uint8,uint8,bytes32,bytes32)": "3bccf4fd",
        "castVoteWithReason(uint256,uint8,string)": "7b3c71d3",
        "execute(address[],uint256[],bytes[],bytes32)": "2656227d",
        "getVotes(address,uint256)": "eb9019d4",
        "hasVoted(uint256,address)": "43859632",
        "hashProposal(address[],uint256[],bytes[],bytes32)": "c59057e4",
        "name()": "06fdde03",
        "proposalDeadline(uint256)": "c01f9e37",
        "proposalEta(uint256)": "ab58fb8e",
        "proposalSnapshot(uint256)": "2d63f693",
        "proposalThreshold()": "b58131b0",
        "proposalVotes(uint256)": "544ffc9c",
        "propose(address[],uint256[],bytes[],string)": "7d5e81e2",
        "queue(address[],uint256[],bytes[],bytes32)": "160cbed7",
        "quorum(uint256)": "f8ce560a",
        "quorumDenominator()": "97c3d334",
        "quorumNumerator()": "a7713a70",
        "setProposalThreshold(uint256)": "ece40cc1",
        "setVotingDelay(uint256)": "70b0f660",
        "setVotingPeriod(uint256)": "ea0217cf",
        "state(uint256)": "3e4f49e6",
        "supportsInterface(bytes4)": "01ffc9a7",
        "timelock()": "d33219b4",
        "token()": "fc0c546a",
        "updateQuorumNumerator(uint256)": "06f3f9e6",
        "updateTimelock(address)": "a890c910",
        "version()": "54fd4d50",
        "votingDelay()": "3932abb1",
        "votingPeriod()": "02a251a3"
    },
    "gasEstimates": {
        "creation": {
            "codeDepositCost": "2281200",
            "executionCost": "infinite",
            "totalCost": "infinite"
        },
        "external": {
            "BALLOT_TYPEHASH()": "306",
            "COUNTING_MODE()": "infinite",
            "cancel(address[],uint256[],bytes[],bytes32)": "infinite",
            "castVote(uint256,uint8)": "infinite",
            "castVoteBySig(uint256,uint8,uint8,bytes32,bytes32)": "infinite",
            "castVoteWithReason(uint256,uint8,string)": "infinite",
            "execute(address[],uint256[],bytes[],bytes32)": "infinite",
            "getVotes(address,uint256)": "infinite",
            "hasVoted(uint256,address)": "2738",
            "hashProposal(address[],uint256[],bytes[],bytes32)": "infinite",
            "name()": "infinite",
            "proposalDeadline(uint256)": "2673",
            "proposalEta(uint256)": "infinite",
            "proposalSnapshot(uint256)": "2632",
            "proposalThreshold()": "2419",
            "proposalVotes(uint256)": "6752",
            "propose(address[],uint256[],bytes[],string)": "infinite",
            "queue(address[],uint256[],bytes[],bytes32)": "infinite",
            "quorum(uint256)": "infinite",
            "quorumDenominator()": "282",
            "quorumNumerator()": "2404",
            "setProposalThreshold(uint256)": "28104",
            "setVotingDelay(uint256)": "28127",
            "setVotingPeriod(uint256)": "28083",
            "state(uint256)": "infinite",
            "supportsInterface(bytes4)": "infinite",
            "timelock()": "2387",
            "token()": "infinite",
            "updateQuorumNumerator(uint256)": "28146",
            "updateTimelock(address)": "infinite",
            "version()": "infinite",
            "votingDelay()": "2404",
            "votingPeriod()": "2350"
        },
        "internal": {
            "_cancel(address[] memory,uint256[] memory,bytes memory[] memory,bytes32)": "infinite",
            "_execute(uint256,address[] memory,uint256[] memory,bytes memory[] memory,bytes32)": "infinite",
            "_executor()": "2156"
        }
    }
}