{
    "contractName": "GovernorCompMock",
    "abi": [
        {
            "inputs": [
                {
                    "internalType": "string",
                    "name": "name_",
                    "type": "string"
                },
                {
                    "internalType": "contract ERC20VotesComp",
                    "name": "token_",
                    "type": "address"
                }
            ],
            "stateMutability": "nonpayable",
            "type": "constructor"
        },
        {
            "anonymous": false,
            "inputs": [
                {
                    "indexed": false,
                    "internalType": "uint256",
                    "name": "proposalId",
                    "type": "uint256"
                }
            ],
            "name": "ProposalCanceled",
            "type": "event"
        },
        {
            "anonymous": false,
            "inputs": [
                {
                    "indexed": false,
                    "internalType": "uint256",
                    "name": "proposalId",
                    "type": "uint256"
                },
                {
                    "indexed": false,
                    "internalType": "address",
                    "name": "proposer",
                    "type": "address"
                },
                {
                    "indexed": false,
                    "internalType": "address[]",
                    "name": "targets",
                    "type": "address[]"
                },
                {
                    "indexed": false,
                    "internalType": "uint256[]",
                    "name": "values",
                    "type": "uint256[]"
                },
                {
                    "indexed": false,
                    "internalType": "string[]",
                    "name": "signatures",
                    "type": "string[]"
                },
                {
                    "indexed": false,
                    "internalType": "bytes[]",
                    "name": "calldatas",
                    "type": "bytes[]"
                },
                {
                    "indexed": false,
                    "internalType": "uint256",
                    "name": "startBlock",
                    "type": "uint256"
                },
                {
                    "indexed": false,
                    "internalType": "uint256",
                    "name": "endBlock",
                    "type": "uint256"
                },
                {
                    "indexed": false,
                    "internalType": "string",
                    "name": "description",
                    "type": "string"
                }
            ],
            "name": "ProposalCreated",
            "type": "event"
        },
        {
            "anonymous": false,
            "inputs": [
                {
                    "indexed": false,
                    "internalType": "uint256",
                    "name": "proposalId",
                    "type": "uint256"
                }
            ],
            "name": "ProposalExecuted",
            "type": "event"
        },
        {
            "anonymous": false,
            "inputs": [
                {
                    "indexed": true,
                    "internalType": "address",
                    "name": "voter",
                    "type": "address"
                },
                {
                    "indexed": false,
                    "internalType": "uint256",
                    "name": "proposalId",
                    "type": "uint256"
                },
                {
                    "indexed": false,
                    "internalType": "uint8",
                    "name": "support",
                    "type": "uint8"
                },
                {
                    "indexed": false,
                    "internalType": "uint256",
                    "name": "weight",
                    "type": "uint256"
                },
                {
                    "indexed": false,
                    "internalType": "string",
                    "name": "reason",
                    "type": "string"
                }
            ],
            "name": "VoteCast",
            "type": "event"
        },
        {
            "inputs": [],
            "name": "BALLOT_TYPEHASH",
            "outputs": [
                {
                    "internalType": "bytes32",
                    "name": "",
                    "type": "bytes32"
                }
            ],
            "stateMutability": "view",
            "type": "function"
        },
        {
            "inputs": [],
            "name": "COUNTING_MODE",
            "outputs": [
                {
                    "internalType": "string",
                    "name": "",
                    "type": "string"
                }
            ],
            "stateMutability": "pure",
            "type": "function"
        },
        {
            "inputs": [
                {
                    "internalType": "address[]",
                    "name": "targets",
                    "type": "address[]"
                },
                {
                    "internalType": "uint256[]",
                    "name": "values",
                    "type": "uint256[]"
                },
                {
                    "internalType": "bytes[]",
                    "name": "calldatas",
                    "type": "bytes[]"
                },
                {
                    "internalType": "bytes32",
                    "name": "salt",
                    "type": "bytes32"
                }
            ],
            "name": "cancel",
            "outputs": [
                {
                    "internalType": "uint256",
                    "name": "proposalId",
                    "type": "uint256"
                }
            ],
            "stateMutability": "nonpayable",
            "type": "function"
        },
        {
            "inputs": [
                {
                    "internalType": "uint256",
                    "name": "proposalId",
                    "type": "uint256"
                },
                {
                    "internalType": "uint8",
                    "name": "support",
                    "type": "uint8"
                }
            ],
            "name": "castVote",
            "outputs": [
                {
                    "internalType": "uint256",
                    "name": "",
                    "type": "uint256"
                }
            ],
            "stateMutability": "nonpayable",
            "type": "function"
        },
        {
            "inputs": [
                {
                    "internalType": "uint256",
                    "name": "proposalId",
                    "type": "uint256"
                },
                {
                    "internalType": "uint8",
                    "name": "support",
                    "type": "uint8"
                },
                {
                    "internalType": "uint8",
                    "name": "v",
                    "type": "uint8"
                },
                {
                    "internalType": "bytes32",
                    "name": "r",
                    "type": "bytes32"
                },
                {
                    "internalType": "bytes32",
                    "name": "s",
                    "type": "bytes32"
                }
            ],
            "name": "castVoteBySig",
            "outputs": [
                {
                    "internalType": "uint256",
                    "name": "",
                    "type": "uint256"
                }
            ],
            "stateMutability": "nonpayable",
            "type": "function"
        },
        {
            "inputs": [
                {
                    "internalType": "uint256",
                    "name": "proposalId",
                    "type": "uint256"
                },
                {
                    "internalType": "uint8",
                    "name": "support",
                    "type": "uint8"
                },
                {
                    "internalType": "string",
                    "name": "reason",
                    "type": "string"
                }
            ],
            "name": "castVoteWithReason",
            "outputs": [
                {
                    "internalType": "uint256",
                    "name": "",
                    "type": "uint256"
                }
            ],
            "stateMutability": "nonpayable",
            "type": "function"
        },
        {
            "inputs": [
                {
                    "internalType": "address[]",
                    "name": "targets",
                    "type": "address[]"
                },
                {
                    "internalType": "uint256[]",
                    "name": "values",
                    "type": "uint256[]"
                },
                {
                    "internalType": "bytes[]",
                    "name": "calldatas",
                    "type": "bytes[]"
                },
                {
                    "internalType": "bytes32",
                    "name": "descriptionHash",
                    "type": "bytes32"
                }
            ],
            "name": "execute",
            "outputs": [
                {
                    "internalType": "uint256",
                    "name": "",
                    "type": "uint256"
                }
            ],
            "stateMutability": "payable",
            "type": "function"
        },
        {
            "inputs": [
                {
                    "internalType": "address",
                    "name": "account",
                    "type": "address"
                },
                {
                    "internalType": "uint256",
                    "name": "blockNumber",
                    "type": "uint256"
                }
            ],
            "name": "getVotes",
            "outputs": [
                {
                    "internalType": "uint256",
                    "name": "",
                    "type": "uint256"
                }
            ],
            "stateMutability": "view",
            "type": "function"
        },
        {
            "inputs": [
                {
                    "internalType": "uint256",
                    "name": "proposalId",
                    "type": "uint256"
                },
                {
                    "internalType": "address",
                    "name": "account",
                    "type": "address"
                }
            ],
            "name": "hasVoted",
            "outputs": [
                {
                    "internalType": "bool",
                    "name": "",
                    "type": "bool"
                }
            ],
            "stateMutability": "view",
            "type": "function"
        },
        {
            "inputs": [
                {
                    "internalType": "address[]",
                    "name": "targets",
                    "type": "address[]"
                },
                {
                    "internalType": "uint256[]",
                    "name": "values",
                    "type": "uint256[]"
                },
                {
                    "internalType": "bytes[]",
                    "name": "calldatas",
                    "type": "bytes[]"
                },
                {
                    "internalType": "bytes32",
                    "name": "descriptionHash",
                    "type": "bytes32"
                }
            ],
            "name": "hashProposal",
            "outputs": [
                {
                    "internalType": "uint256",
                    "name": "",
                    "type": "uint256"
                }
            ],
            "stateMutability": "pure",
            "type": "function"
        },
        {
            "inputs": [],
            "name": "name",
            "outputs": [
                {
                    "internalType": "string",
                    "name": "",
                    "type": "string"
                }
            ],
            "stateMutability": "view",
            "type": "function"
        },
        {
            "inputs": [
                {
                    "internalType": "uint256",
                    "name": "proposalId",
                    "type": "uint256"
                }
            ],
            "name": "proposalDeadline",
            "outputs": [
                {
                    "internalType": "uint256",
                    "name": "",
                    "type": "uint256"
                }
            ],
            "stateMutability": "view",
            "type": "function"
        },
        {
            "inputs": [
                {
                    "internalType": "uint256",
                    "name": "proposalId",
                    "type": "uint256"
                }
            ],
            "name": "proposalSnapshot",
            "outputs": [
                {
                    "internalType": "uint256",
                    "name": "",
                    "type": "uint256"
                }
            ],
            "stateMutability": "view",
            "type": "function"
        },
        {
            "inputs": [],
            "name": "proposalThreshold",
            "outputs": [
                {
                    "internalType": "uint256",
                    "name": "",
                    "type": "uint256"
                }
            ],
            "stateMutability": "view",
            "type": "function"
        },
        {
            "inputs": [
                {
                    "internalType": "uint256",
                    "name": "proposalId",
                    "type": "uint256"
                }
            ],
            "name": "proposalVotes",
            "outputs": [
                {
                    "internalType": "uint256",
                    "name": "againstVotes",
                    "type": "uint256"
                },
                {
                    "internalType": "uint256",
                    "name": "forVotes",
                    "type": "uint256"
                },
                {
                    "internalType": "uint256",
                    "name": "abstainVotes",
                    "type": "uint256"
                }
            ],
            "stateMutability": "view",
            "type": "function"
        },
        {
            "inputs": [
                {
                    "internalType": "address[]",
                    "name": "targets",
                    "type": "address[]"
                },
                {
                    "internalType": "uint256[]",
                    "name": "values",
                    "type": "uint256[]"
                },
                {
                    "internalType": "bytes[]",
                    "name": "calldatas",
                    "type": "bytes[]"
                },
                {
                    "internalType": "string",
                    "name": "description",
                    "type": "string"
                }
            ],
            "name": "propose",
            "outputs": [
                {
                    "internalType": "uint256",
                    "name": "",
                    "type": "uint256"
                }
            ],
            "stateMutability": "nonpayable",
            "type": "function"
        },
        {
            "inputs": [
                {
                    "internalType": "uint256",
                    "name": "",
                    "type": "uint256"
                }
            ],
            "name": "quorum",
            "outputs": [
                {
                    "internalType": "uint256",
                    "name": "",
                    "type": "uint256"
                }
            ],
            "stateMutability": "pure",
            "type": "function"
        },
        {
            "inputs": [
                {
                    "internalType": "uint256",
                    "name": "proposalId",
                    "type": "uint256"
                }
            ],
            "name": "state",
            "outputs": [
                {
                    "internalType": "enum IGovernor.ProposalState",
                    "name": "",
                    "type": "uint8"
                }
            ],
            "stateMutability": "view",
            "type": "function"
        },
        {
            "inputs": [
                {
                    "internalType": "bytes4",
                    "name": "interfaceId",
                    "type": "bytes4"
                }
            ],
            "name": "supportsInterface",
            "outputs": [
                {
                    "internalType": "bool",
                    "name": "",
                    "type": "bool"
                }
            ],
            "stateMutability": "view",
            "type": "function"
        },
        {
            "inputs": [],
            "name": "token",
            "outputs": [
                {
                    "internalType": "contract ERC20VotesComp",
                    "name": "",
                    "type": "address"
                }
            ],
            "stateMutability": "view",
            "type": "function"
        },
        {
            "inputs": [],
            "name": "version",
            "outputs": [
                {
                    "internalType": "string",
                    "name": "",
                    "type": "string"
                }
            ],
            "stateMutability": "view",
            "type": "function"
        },
        {
            "inputs": [],
            "name": "votingDelay",
            "outputs": [
                {
                    "internalType": "uint256",
                    "name": "",
                    "type": "uint256"
                }
            ],
            "stateMutability": "pure",
            "type": "function"
        },
        {
            "inputs": [],
            "name": "votingPeriod",
            "outputs": [
                {
                    "internalType": "uint256",
                    "name": "",
                    "type": "uint256"
                }
            ],
            "stateMutability": "pure",
            "type": "function"
        },
        {
            "stateMutability": "payable",
            "type": "receive"
        }
    ],
    "bytecode": "6101606040523480156200001257600080fd5b50604051620024c5380380620024c58339810160408190526200003591620001ee565b808280620000576040805180820190915260018152603160f81b602082015290565b815160208084019190912082518383012060e08290526101008190524660a0818152604080517f8b73c3c69bb8fe3d512ecc4cf759cc79239f7b179b0ffacaa9a75d522b39400f81880181905281830187905260608201869052608082019490945230818401528151808203909301835260c00190528051940193909320919290916080523060c0526101205250508251620000fd925060009150602084019062000115565b50506001600160a01b031661014052506200031c9050565b8280546200012390620002df565b90600052602060002090601f01602090048101928262000147576000855562000192565b82601f106200016257805160ff191683800117855562000192565b8280016001018555821562000192579182015b828111156200019257825182559160200191906001019062000175565b50620001a0929150620001a4565b5090565b5b80821115620001a05760008155600101620001a5565b634e487b7160e01b600052604160045260246000fd5b80516001600160a01b0381168114620001e957600080fd5b919050565b600080604083850312156200020257600080fd5b82516001600160401b03808211156200021a57600080fd5b818501915085601f8301126200022f57600080fd5b815181811115620002445762000244620001bb565b604051601f8201601f19908116603f011681019083821181831017156200026f576200026f620001bb565b816040528281526020935088848487010111156200028c57600080fd5b600091505b82821015620002b0578482018401518183018501529083019062000291565b82821115620002c25760008484830101525b9550620002d4915050858201620001d1565b925050509250929050565b600181811c90821680620002f457607f821691505b602082108114156200031657634e487b7160e01b600052602260045260246000fd5b50919050565b60805160a05160c05160e0516101005161012051610140516121476200037e600039600081816104c80152611171015260006112b601526000611305015260006112e001526000611239015260006112630152600061128d01526121476000f3fe6080604052600436106101445760003560e01c806354fd4d50116100b6578063c59057e41161006f578063c59057e4146103db578063dd4e2ba5146103fb578063deaaa7cc14610441578063eb9019d414610475578063f8ce560a14610495578063fc0c546a146104b657600080fd5b806354fd4d501461031d57806356781388146103475780637b3c71d3146103675780637d5e81e214610387578063b58131b0146103a7578063c01f9e37146103bb57600080fd5b80633932abb1116101085780633932abb1146101f85780633bccf4fd1461020c5780633e4f49e61461022c5780634385963214610259578063452115d6146102a3578063544ffc9c146102c357600080fd5b806301ffc9a71461015057806302a251a31461018557806306fdde03146101a35780632656227d146101c55780632d63f693146101d857600080fd5b3661014b57005b600080fd5b34801561015c57600080fd5b5061017061016b366004611784565b610502565b60405190151581526020015b60405180910390f35b34801561019157600080fd5b5060105b60405190815260200161017c565b3480156101af57600080fd5b506101b8610539565b60405161017c919061180a565b6101956101d3366004611a5a565b6105cb565b3480156101e457600080fd5b506101956101f3366004611ae9565b6106dd565b34801561020457600080fd5b506004610195565b34801561021857600080fd5b50610195610227366004611b13565b610714565b34801561023857600080fd5b5061024c610247366004611ae9565b6107a8565b60405161017c9190611b77565b34801561026557600080fd5b50610170610274366004611b9f565b60008281526002602090815260408083206001600160a01b038516845260030190915290205460ff1692915050565b3480156102af57600080fd5b506101956102be366004611a5a565b61090d565b3480156102cf57600080fd5b506103026102de366004611ae9565b60008181526002602081905260409091208054600182015491909201549193909250565b6040805193845260208401929092529082015260600161017c565b34801561032957600080fd5b506040805180820190915260018152603160f81b60208201526101b8565b34801561035357600080fd5b50610195610362366004611bcb565b610924565b34801561037357600080fd5b50610195610382366004611bee565b61094d565b34801561039357600080fd5b506101956103a2366004611c74565b61099f565b3480156103b357600080fd5b506000610195565b3480156103c757600080fd5b506101956103d6366004611ae9565b610c6c565b3480156103e757600080fd5b506101956103f6366004611a5a565b610c9b565b34801561040757600080fd5b506040805180820190915260208082527f737570706f72743d627261766f2671756f72756d3d666f722c6162737461696e908201526101b8565b34801561044d57600080fd5b506101957f150214d74d59b7d1e90c73fc22ef3d991dd0a76b046543d4d80ab92d2a50328f81565b34801561048157600080fd5b50610195610490366004611d34565b610cd5565b3480156104a157600080fd5b506101956104b0366004611ae9565b50600090565b3480156104c257600080fd5b506104ea7f000000000000000000000000000000000000000000000000000000000000000081565b6040516001600160a01b03909116815260200161017c565b60006001600160e01b0319821663bf26d89760e01b148061053357506301ffc9a760e01b6001600160e01b03198316145b92915050565b60606000805461054890611d5e565b80601f016020809104026020016040519081016040528092919081815260200182805461057490611d5e565b80156105c15780601f10610596576101008083540402835291602001916105c1565b820191906000526020600020905b8154815290600101906020018083116105a457829003601f168201915b5050505050905090565b6000806105da86868686610c9b565b905060006105e7826107a8565b905060048160078111156105fd576105fd611b61565b148061061a5750600581600781111561061857610618611b61565b145b6106755760405162461bcd60e51b815260206004820152602160248201527f476f7665726e6f723a2070726f706f73616c206e6f74207375636365737366756044820152601b60fa1b60648201526084015b60405180910390fd5b600082815260016020818152604092839020600201805460ff191690921790915590518381527f712ae1383f79ac853f8d882153778e0260ef8f03b504e2866e0593e04d2b291f910160405180910390a16106d38288888888610ce1565b5095945050505050565b60008181526001602090815260408083208151928301909152546001600160401b0316908190525b6001600160401b031692915050565b604080517f150214d74d59b7d1e90c73fc22ef3d991dd0a76b046543d4d80ab92d2a50328f602082015290810186905260ff851660608201526000908190610780906107789060800160405160208183030381529060405280519060200120610de0565b868686610e2e565b905061079d87828860405180602001604052806000815250610e4c565b979650505050505050565b6000818152600160208181526040808420815160a08101835281546001600160401b0390811660808301908152825283518086018552958301541685529283019390935260029092015460ff8082161580159484019490945261010090910416151560608201529061081d5750600792915050565b8060600151156108305750600292915050565b80515143906001600160401b03161061084c5750600092915050565b4361085982602001515190565b6001600160401b0316106108705750600192915050565b61087d8160200151610f57565b156108bf5761088b83610f86565b80156108aa575060008381526002602052604090208054600190910154115b6108b55760036108b8565b60045b9392505050565b60405162461bcd60e51b815260206004820152601d60248201527f476f7665726e6f723a20756e6b6e6f776e2070726f706f73616c206964000000604482015260640161066c565b50919050565b600061091b85858585610fbe565b95945050505050565b60008033905061094584828560405180602001604052806000815250610e4c565b949350505050565b60008033905061099586828787878080601f016020809104026020016040519081016040528093929190818152602001838380828437600092019190915250610e4c92505050565b9695505050505050565b6000806109b133610490600143611da9565b1015610a315760405162461bcd60e51b815260206004820152604360248201527f476f7665726e6f72436f6d7061746962696c697479427261766f3a2070726f7060448201527f6f73657220766f7465732062656c6f772070726f706f73616c207468726573686064820152621bdb1960ea1b608482015260a40161066c565b6000610a468686868680519060200120610c9b565b90508451865114610a695760405162461bcd60e51b815260040161066c90611dc0565b8351865114610a8a5760405162461bcd60e51b815260040161066c90611dc0565b6000865111610adb5760405162461bcd60e51b815260206004820152601860248201527f476f7665726e6f723a20656d7074792070726f706f73616c0000000000000000604482015260640161066c565b600081815260016020908152604091829020825191820190925281546001600160401b03169081905215610b5b5760405162461bcd60e51b815260206004820152602160248201527f476f7665726e6f723a2070726f706f73616c20616c72656164792065786973746044820152607360f81b606482015260840161066c565b6000610b6760046110dc565b610b70436110dc565b610b7a9190611e01565b90506000610b8860106110dc565b610b929083611e01565b835467ffffffffffffffff19166001600160401b038416178455905060018301805467ffffffffffffffff19166001600160401b0383161790557f7d84a6263ae0d98d3329bd7b46bb4e8d6f98cd35a7adb45c274c8b7fd5ebd5e084338b8b8d516001600160401b03811115610c0a57610c0a61181d565b604051908082528060200260200182016040528015610c3d57816020015b6060815260200190600190039081610c285790505b508c88888e604051610c5799989796959493929190611ef5565b60405180910390a15091979650505050505050565b60008181526001602081815260408084208151928301909152909101546001600160401b031690819052610705565b600084848484604051602001610cb49493929190611fe4565b60408051601f19818403018152919052805160209091012095945050505050565b60006108b88383611148565b60006040518060600160405280602781526020016120eb60279139905060005b8551811015610dd757600080878381518110610d1f57610d1f61202f565b60200260200101516001600160a01b0316878481518110610d4257610d4261202f565b6020026020010151878581518110610d5c57610d5c61202f565b6020026020010151604051610d719190612045565b60006040518083038185875af1925050503d8060008114610dae576040519150601f19603f3d011682016040523d82523d6000602084013e610db3565b606091505b5091509150610dc38282866111f3565b50505080610dd090612061565b9050610d01565b50505050505050565b6000610533610ded61122c565b8360405161190160f01b6020820152602281018390526042810182905260009060620160405160208183030381529060405280519060200120905092915050565b6000806000610e3f87878787611353565b915091506106d381611440565b6000848152600160208190526040822090610e66876107a8565b6007811115610e7757610e77611b61565b14610ed05760405162461bcd60e51b815260206004820152602360248201527f476f7665726e6f723a20766f7465206e6f742063757272656e746c792061637460448201526269766560e81b606482015260840161066c565b604080516020810190915281546001600160401b031690819052600090610ef8908790610cd5565b9050610f06878787846115fe565b856001600160a01b03167fb8e138887d0aa13bab447e82de9d5c1777041ecd21ca36ba824ff1e6c07ddda488878488604051610f45949392919061207c565b60405180910390a29695505050505050565b6000610f6c82516001600160401b0316151590565b801561053357505051436001600160401b03909116111590565b60008181526002602081905260408220908101546001820154610fa991906120a4565b610fb56104b0856106dd565b11159392505050565b600080610fcd86868686610c9b565b90506000610fda826107a8565b90506002816007811115610ff057610ff0611b61565b141580156110105750600681600781111561100d5761100d611b61565b14155b801561102e5750600781600781111561102b5761102b611b61565b14155b61107a5760405162461bcd60e51b815260206004820152601d60248201527f476f7665726e6f723a2070726f706f73616c206e6f7420616374697665000000604482015260640161066c565b60008281526001602052604090819020600201805461ff001916610100179055517f789cf55be980739dad1d0699b93b58e806b51c9d96619bfa8fe0a28abaa7b30c906110ca9084815260200190565b60405180910390a15095945050505050565b60006001600160401b038211156111445760405162461bcd60e51b815260206004820152602660248201527f53616665436173743a2076616c756520646f65736e27742066697420696e203660448201526534206269747360d01b606482015260840161066c565b5090565b60405163782d6fe160e01b81526001600160a01b038381166004830152602482018390526000917f00000000000000000000000000000000000000000000000000000000000000009091169063782d6fe190604401602060405180830381865afa1580156111ba573d6000803e3d6000fd5b505050506040513d601f19601f820116820180604052508101906111de91906120bc565b6bffffffffffffffffffffffff169392505050565b606083156112025750816108b8565b8251156112125782518084602001fd5b8160405162461bcd60e51b815260040161066c919061180a565b6000306001600160a01b037f00000000000000000000000000000000000000000000000000000000000000001614801561128557507f000000000000000000000000000000000000000000000000000000000000000046145b156112af57507f000000000000000000000000000000000000000000000000000000000000000090565b50604080517f00000000000000000000000000000000000000000000000000000000000000006020808301919091527f0000000000000000000000000000000000000000000000000000000000000000828401527f000000000000000000000000000000000000000000000000000000000000000060608301524660808301523060a0808401919091528351808403909101815260c0909201909252805191012090565b6000807f7fffffffffffffffffffffffffffffff5d576e7357a4501ddfe92f46681b20a083111561138a5750600090506003611437565b8460ff16601b141580156113a257508460ff16601c14155b156113b35750600090506004611437565b6040805160008082526020820180845289905260ff881692820192909252606081018690526080810185905260019060a0016020604051602081039080840390855afa158015611407573d6000803e3d6000fd5b5050604051601f1901519150506001600160a01b03811661143057600060019250925050611437565b9150600090505b94509492505050565b600081600481111561145457611454611b61565b141561145d5750565b600181600481111561147157611471611b61565b14156114bf5760405162461bcd60e51b815260206004820152601860248201527f45434453413a20696e76616c6964207369676e61747572650000000000000000604482015260640161066c565b60028160048111156114d3576114d3611b61565b14156115215760405162461bcd60e51b815260206004820152601f60248201527f45434453413a20696e76616c6964207369676e6174757265206c656e67746800604482015260640161066c565b600381600481111561153557611535611b61565b141561158e5760405162461bcd60e51b815260206004820152602260248201527f45434453413a20696e76616c6964207369676e6174757265202773272076616c604482015261756560f01b606482015260840161066c565b60048160048111156115a2576115a2611b61565b14156115fb5760405162461bcd60e51b815260206004820152602260248201527f45434453413a20696e76616c6964207369676e6174757265202776272076616c604482015261756560f01b606482015260840161066c565b50565b60008481526002602090815260408083206001600160a01b0387168452600381019092529091205460ff16156116865760405162461bcd60e51b815260206004820152602760248201527f476f7665726e6f72566f74696e6753696d706c653a20766f746520616c726561604482015266191e4818d85cdd60ca1b606482015260840161066c565b6001600160a01b03841660009081526003820160205260408120805460ff1916600117905560ff168360ff1614156116d757818160000160008282546116cc91906120a4565b9091555061177d9050565b60ff8316600114156116f757818160010160008282546116cc91906120a4565b60ff83166002141561171757818160020160008282546116cc91906120a4565b60405162461bcd60e51b815260206004820152603560248201527f476f7665726e6f72566f74696e6753696d706c653a20696e76616c69642076616044820152746c756520666f7220656e756d20566f74655479706560581b606482015260840161066c565b5050505050565b60006020828403121561179657600080fd5b81356001600160e01b0319811681146108b857600080fd5b60005b838110156117c95781810151838201526020016117b1565b838111156117d8576000848401525b50505050565b600081518084526117f68160208601602086016117ae565b601f01601f19169290920160200192915050565b6020815260006108b860208301846117de565b634e487b7160e01b600052604160045260246000fd5b604051601f8201601f191681016001600160401b038111828210171561185b5761185b61181d565b604052919050565b60006001600160401b0382111561187c5761187c61181d565b5060051b60200190565b80356001600160a01b038116811461189d57600080fd5b919050565b600082601f8301126118b357600080fd5b813560206118c86118c383611863565b611833565b82815260059290921b840181019181810190868411156118e757600080fd5b8286015b84811015611909576118fc81611886565b83529183019183016118eb565b509695505050505050565b600082601f83011261192557600080fd5b813560206119356118c383611863565b82815260059290921b8401810191818101908684111561195457600080fd5b8286015b848110156119095780358352918301918301611958565b60006001600160401b038311156119885761198861181d565b61199b601f8401601f1916602001611833565b90508281528383830111156119af57600080fd5b828260208301376000602084830101529392505050565b600082601f8301126119d757600080fd5b813560206119e76118c383611863565b82815260059290921b84018101918181019086841115611a0657600080fd5b8286015b848110156119095780356001600160401b03811115611a295760008081fd5b8701603f81018913611a3b5760008081fd5b611a4c89868301356040840161196f565b845250918301918301611a0a565b60008060008060808587031215611a7057600080fd5b84356001600160401b0380821115611a8757600080fd5b611a93888389016118a2565b95506020870135915080821115611aa957600080fd5b611ab588838901611914565b94506040870135915080821115611acb57600080fd5b50611ad8878288016119c6565b949793965093946060013593505050565b600060208284031215611afb57600080fd5b5035919050565b803560ff8116811461189d57600080fd5b600080600080600060a08688031215611b2b57600080fd5b85359450611b3b60208701611b02565b9350611b4960408701611b02565b94979396509394606081013594506080013592915050565b634e487b7160e01b600052602160045260246000fd5b6020810160088310611b9957634e487b7160e01b600052602160045260246000fd5b91905290565b60008060408385031215611bb257600080fd5b82359150611bc260208401611886565b90509250929050565b60008060408385031215611bde57600080fd5b82359150611bc260208401611b02565b60008060008060608587031215611c0457600080fd5b84359350611c1460208601611b02565b925060408501356001600160401b0380821115611c3057600080fd5b818701915087601f830112611c4457600080fd5b813581811115611c5357600080fd5b886020828501011115611c6557600080fd5b95989497505060200194505050565b60008060008060808587031215611c8a57600080fd5b84356001600160401b0380821115611ca157600080fd5b611cad888389016118a2565b95506020870135915080821115611cc357600080fd5b611ccf88838901611914565b94506040870135915080821115611ce557600080fd5b611cf1888389016119c6565b93506060870135915080821115611d0757600080fd5b508501601f81018713611d1957600080fd5b611d288782356020840161196f565b91505092959194509250565b60008060408385031215611d4757600080fd5b611d5083611886565b946020939093013593505050565b600181811c90821680611d7257607f821691505b6020821081141561090757634e487b7160e01b600052602260045260246000fd5b634e487b7160e01b600052601160045260246000fd5b600082821015611dbb57611dbb611d93565b500390565b60208082526021908201527f476f7665726e6f723a20696e76616c69642070726f706f73616c206c656e67746040820152600d60fb1b606082015260800190565b60006001600160401b03808316818516808303821115611e2357611e23611d93565b01949350505050565b600081518084526020808501945080840160005b83811015611e655781516001600160a01b031687529582019590820190600101611e40565b509495945050505050565b600081518084526020808501945080840160005b83811015611e6557815187529582019590820190600101611e84565b600081518084526020808501808196508360051b8101915082860160005b85811015611ee8578284038952611ed68483516117de565b98850198935090840190600101611ebe565b5091979650505050505050565b60006101208b8352602060018060a01b038c1681850152816040850152611f1e8285018c611e2c565b91508382036060850152611f32828b611e70565b915083820360808501528189518084528284019150828160051b850101838c0160005b83811015611f8357601f19878403018552611f718383516117de565b94860194925090850190600101611f55565b505086810360a0880152611f97818c611ea0565b945050505050611fb260c08401876001600160401b03169052565b6001600160401b03851660e0840152828103610100840152611fd481856117de565b9c9b505050505050505050505050565b608081526000611ff76080830187611e2c565b82810360208401526120098187611e70565b9050828103604084015261201d8186611ea0565b91505082606083015295945050505050565b634e487b7160e01b600052603260045260246000fd5b600082516120578184602087016117ae565b9190910192915050565b600060001982141561207557612075611d93565b5060010190565b84815260ff8416602082015282604082015260806060820152600061099560808301846117de565b600082198211156120b7576120b7611d93565b500190565b6000602082840312156120ce57600080fd5b81516bffffffffffffffffffffffff811681146108b857600080fdfe476f7665726e6f723a2063616c6c20726576657274656420776974686f7574206d657373616765a264697066735822122009338184e9fe7a31bb042979931bed77dfd61e39ed4101a1ef1f8c9db260213c64736f6c634300080a0033",
    "sourcePath": "d:/Github/new_token/contracts/contracts/mocks/GovernorCompMock.sol",
    "compiler": {
        "name": "solc",
        "version": "0.8.10+commit.fc410830"
    },
    "functionHashes": {
        "BALLOT_TYPEHASH()": "deaaa7cc",
        "COUNTING_MODE()": "dd4e2ba5",
        "cancel(address[],uint256[],bytes[],bytes32)": "452115d6",
        "castVote(uint256,uint8)": "56781388",
        "castVoteBySig(uint256,uint8,uint8,bytes32,bytes32)": "3bccf4fd",
        "castVoteWithReason(uint256,uint8,string)": "7b3c71d3",
        "execute(address[],uint256[],bytes[],bytes32)": "2656227d",
        "getVotes(address,uint256)": "eb9019d4",
        "hasVoted(uint256,address)": "43859632",
        "hashProposal(address[],uint256[],bytes[],bytes32)": "c59057e4",
        "name()": "06fdde03",
        "proposalDeadline(uint256)": "c01f9e37",
        "proposalSnapshot(uint256)": "2d63f693",
        "proposalThreshold()": "b58131b0",
        "proposalVotes(uint256)": "544ffc9c",
        "propose(address[],uint256[],bytes[],string)": "7d5e81e2",
        "quorum(uint256)": "f8ce560a",
        "state(uint256)": "3e4f49e6",
        "supportsInterface(bytes4)": "01ffc9a7",
        "token()": "fc0c546a",
        "version()": "54fd4d50",
        "votingDelay()": "3932abb1",
        "votingPeriod()": "02a251a3"
    },
    "gasEstimates": {
        "creation": {
            "codeDepositCost": "1703800",
            "executionCost": "infinite",
            "totalCost": "infinite"
        },
        "external": {
            "BALLOT_TYPEHASH()": "261",
            "COUNTING_MODE()": "infinite",
            "cancel(address[],uint256[],bytes[],bytes32)": "infinite",
            "castVote(uint256,uint8)": "infinite",
            "castVoteBySig(uint256,uint8,uint8,bytes32,bytes32)": "infinite",
            "castVoteWithReason(uint256,uint8,string)": "infinite",
            "execute(address[],uint256[],bytes[],bytes32)": "infinite",
            "getVotes(address,uint256)": "infinite",
            "hasVoted(uint256,address)": "2738",
            "hashProposal(address[],uint256[],bytes[],bytes32)": "infinite",
            "name()": "infinite",
            "proposalDeadline(uint256)": "2695",
            "proposalSnapshot(uint256)": "2654",
            "proposalThreshold()": "303",
            "proposalVotes(uint256)": "6857",
            "propose(address[],uint256[],bytes[],string)": "infinite",
            "quorum(uint256)": "384",
            "state(uint256)": "18400",
            "supportsInterface(bytes4)": "450",
            "token()": "infinite",
            "version()": "infinite",
            "votingDelay()": "215",
            "votingPeriod()": "227"
        }
    }
}