{
    "contractName": "GovernorCompatibilityBravoMock",
    "abi": [
        {
            "inputs": [
                {
                    "internalType": "string",
                    "name": "name_",
                    "type": "string"
                },
                {
                    "internalType": "contract ERC20VotesComp",
                    "name": "token_",
                    "type": "address"
                },
                {
                    "internalType": "uint256",
                    "name": "votingDelay_",
                    "type": "uint256"
                },
                {
                    "internalType": "uint256",
                    "name": "votingPeriod_",
                    "type": "uint256"
                },
                {
                    "internalType": "uint256",
                    "name": "proposalThreshold_",
                    "type": "uint256"
                },
                {
                    "internalType": "contract ICompoundTimelock",
                    "name": "timelock_",
                    "type": "address"
                }
            ],
            "stateMutability": "nonpayable",
            "type": "constructor"
        },
        {
            "anonymous": false,
            "inputs": [
                {
                    "indexed": false,
                    "internalType": "uint256",
                    "name": "proposalId",
                    "type": "uint256"
                }
            ],
            "name": "ProposalCanceled",
            "type": "event"
        },
        {
            "anonymous": false,
            "inputs": [
                {
                    "indexed": false,
                    "internalType": "uint256",
                    "name": "proposalId",
                    "type": "uint256"
                },
                {
                    "indexed": false,
                    "internalType": "address",
                    "name": "proposer",
                    "type": "address"
                },
                {
                    "indexed": false,
                    "internalType": "address[]",
                    "name": "targets",
                    "type": "address[]"
                },
                {
                    "indexed": false,
                    "internalType": "uint256[]",
                    "name": "values",
                    "type": "uint256[]"
                },
                {
                    "indexed": false,
                    "internalType": "string[]",
                    "name": "signatures",
                    "type": "string[]"
                },
                {
                    "indexed": false,
                    "internalType": "bytes[]",
                    "name": "calldatas",
                    "type": "bytes[]"
                },
                {
                    "indexed": false,
                    "internalType": "uint256",
                    "name": "startBlock",
                    "type": "uint256"
                },
                {
                    "indexed": false,
                    "internalType": "uint256",
                    "name": "endBlock",
                    "type": "uint256"
                },
                {
                    "indexed": false,
                    "internalType": "string",
                    "name": "description",
                    "type": "string"
                }
            ],
            "name": "ProposalCreated",
            "type": "event"
        },
        {
            "anonymous": false,
            "inputs": [
                {
                    "indexed": false,
                    "internalType": "uint256",
                    "name": "proposalId",
                    "type": "uint256"
                }
            ],
            "name": "ProposalExecuted",
            "type": "event"
        },
        {
            "anonymous": false,
            "inputs": [
                {
                    "indexed": false,
                    "internalType": "uint256",
                    "name": "proposalId",
                    "type": "uint256"
                },
                {
                    "indexed": false,
                    "internalType": "uint256",
                    "name": "eta",
                    "type": "uint256"
                }
            ],
            "name": "ProposalQueued",
            "type": "event"
        },
        {
            "anonymous": false,
            "inputs": [
                {
                    "indexed": false,
                    "internalType": "uint256",
                    "name": "oldProposalThreshold",
                    "type": "uint256"
                },
                {
                    "indexed": false,
                    "internalType": "uint256",
                    "name": "newProposalThreshold",
                    "type": "uint256"
                }
            ],
            "name": "ProposalThresholdSet",
            "type": "event"
        },
        {
            "anonymous": false,
            "inputs": [
                {
                    "indexed": false,
                    "internalType": "address",
                    "name": "oldTimelock",
                    "type": "address"
                },
                {
                    "indexed": false,
                    "internalType": "address",
                    "name": "newTimelock",
                    "type": "address"
                }
            ],
            "name": "TimelockChange",
            "type": "event"
        },
        {
            "anonymous": false,
            "inputs": [
                {
                    "indexed": true,
                    "internalType": "address",
                    "name": "voter",
                    "type": "address"
                },
                {
                    "indexed": false,
                    "internalType": "uint256",
                    "name": "proposalId",
                    "type": "uint256"
                },
                {
                    "indexed": false,
                    "internalType": "uint8",
                    "name": "support",
                    "type": "uint8"
                },
                {
                    "indexed": false,
                    "internalType": "uint256",
                    "name": "weight",
                    "type": "uint256"
                },
                {
                    "indexed": false,
                    "internalType": "string",
                    "name": "reason",
                    "type": "string"
                }
            ],
            "name": "VoteCast",
            "type": "event"
        },
        {
            "anonymous": false,
            "inputs": [
                {
                    "indexed": false,
                    "internalType": "uint256",
                    "name": "oldVotingDelay",
                    "type": "uint256"
                },
                {
                    "indexed": false,
                    "internalType": "uint256",
                    "name": "newVotingDelay",
                    "type": "uint256"
                }
            ],
            "name": "VotingDelaySet",
            "type": "event"
        },
        {
            "anonymous": false,
            "inputs": [
                {
                    "indexed": false,
                    "internalType": "uint256",
                    "name": "oldVotingPeriod",
                    "type": "uint256"
                },
                {
                    "indexed": false,
                    "internalType": "uint256",
                    "name": "newVotingPeriod",
                    "type": "uint256"
                }
            ],
            "name": "VotingPeriodSet",
            "type": "event"
        },
        {
            "inputs": [],
            "name": "BALLOT_TYPEHASH",
            "outputs": [
                {
                    "internalType": "bytes32",
                    "name": "",
                    "type": "bytes32"
                }
            ],
            "stateMutability": "view",
            "type": "function"
        },
        {
            "inputs": [],
            "name": "COUNTING_MODE",
            "outputs": [
                {
                    "internalType": "string",
                    "name": "",
                    "type": "string"
                }
            ],
            "stateMutability": "pure",
            "type": "function"
        },
        {
            "inputs": [],
            "name": "__acceptAdmin",
            "outputs": [],
            "stateMutability": "nonpayable",
            "type": "function"
        },
        {
            "inputs": [
                {
                    "internalType": "uint256",
                    "name": "proposalId",
                    "type": "uint256"
                }
            ],
            "name": "cancel",
            "outputs": [],
            "stateMutability": "nonpayable",
            "type": "function"
        },
        {
            "inputs": [
                {
                    "internalType": "address[]",
                    "name": "targets",
                    "type": "address[]"
                },
                {
                    "internalType": "uint256[]",
                    "name": "values",
                    "type": "uint256[]"
                },
                {
                    "internalType": "bytes[]",
                    "name": "calldatas",
                    "type": "bytes[]"
                },
                {
                    "internalType": "bytes32",
                    "name": "salt",
                    "type": "bytes32"
                }
            ],
            "name": "cancel",
            "outputs": [
                {
                    "internalType": "uint256",
                    "name": "proposalId",
                    "type": "uint256"
                }
            ],
            "stateMutability": "nonpayable",
            "type": "function"
        },
        {
            "inputs": [
                {
                    "internalType": "uint256",
                    "name": "proposalId",
                    "type": "uint256"
                },
                {
                    "internalType": "uint8",
                    "name": "support",
                    "type": "uint8"
                }
            ],
            "name": "castVote",
            "outputs": [
                {
                    "internalType": "uint256",
                    "name": "",
                    "type": "uint256"
                }
            ],
            "stateMutability": "nonpayable",
            "type": "function"
        },
        {
            "inputs": [
                {
                    "internalType": "uint256",
                    "name": "proposalId",
                    "type": "uint256"
                },
                {
                    "internalType": "uint8",
                    "name": "support",
                    "type": "uint8"
                },
                {
                    "internalType": "uint8",
                    "name": "v",
                    "type": "uint8"
                },
                {
                    "internalType": "bytes32",
                    "name": "r",
                    "type": "bytes32"
                },
                {
                    "internalType": "bytes32",
                    "name": "s",
                    "type": "bytes32"
                }
            ],
            "name": "castVoteBySig",
            "outputs": [
                {
                    "internalType": "uint256",
                    "name": "",
                    "type": "uint256"
                }
            ],
            "stateMutability": "nonpayable",
            "type": "function"
        },
        {
            "inputs": [
                {
                    "internalType": "uint256",
                    "name": "proposalId",
                    "type": "uint256"
                },
                {
                    "internalType": "uint8",
                    "name": "support",
                    "type": "uint8"
                },
                {
                    "internalType": "string",
                    "name": "reason",
                    "type": "string"
                }
            ],
            "name": "castVoteWithReason",
            "outputs": [
                {
                    "internalType": "uint256",
                    "name": "",
                    "type": "uint256"
                }
            ],
            "stateMutability": "nonpayable",
            "type": "function"
        },
        {
            "inputs": [
                {
                    "internalType": "address[]",
                    "name": "targets",
                    "type": "address[]"
                },
                {
                    "internalType": "uint256[]",
                    "name": "values",
                    "type": "uint256[]"
                },
                {
                    "internalType": "bytes[]",
                    "name": "calldatas",
                    "type": "bytes[]"
                },
                {
                    "internalType": "bytes32",
                    "name": "salt",
                    "type": "bytes32"
                }
            ],
            "name": "execute",
            "outputs": [
                {
                    "internalType": "uint256",
                    "name": "",
                    "type": "uint256"
                }
            ],
            "stateMutability": "payable",
            "type": "function"
        },
        {
            "inputs": [
                {
                    "internalType": "uint256",
                    "name": "proposalId",
                    "type": "uint256"
                }
            ],
            "name": "execute",
            "outputs": [],
            "stateMutability": "payable",
            "type": "function"
        },
        {
            "inputs": [
                {
                    "internalType": "uint256",
                    "name": "proposalId",
                    "type": "uint256"
                }
            ],
            "name": "getActions",
            "outputs": [
                {
                    "internalType": "address[]",
                    "name": "targets",
                    "type": "address[]"
                },
                {
                    "internalType": "uint256[]",
                    "name": "values",
                    "type": "uint256[]"
                },
                {
                    "internalType": "string[]",
                    "name": "signatures",
                    "type": "string[]"
                },
                {
                    "internalType": "bytes[]",
                    "name": "calldatas",
                    "type": "bytes[]"
                }
            ],
            "stateMutability": "view",
            "type": "function"
        },
        {
            "inputs": [
                {
                    "internalType": "uint256",
                    "name": "proposalId",
                    "type": "uint256"
                },
                {
                    "internalType": "address",
                    "name": "voter",
                    "type": "address"
                }
            ],
            "name": "getReceipt",
            "outputs": [
                {
                    "components": [
                        {
                            "internalType": "bool",
                            "name": "hasVoted",
                            "type": "bool"
                        },
                        {
                            "internalType": "uint8",
                            "name": "support",
                            "type": "uint8"
                        },
                        {
                            "internalType": "uint96",
                            "name": "votes",
                            "type": "uint96"
                        }
                    ],
                    "internalType": "struct IGovernorCompatibilityBravo.Receipt",
                    "name": "",
                    "type": "tuple"
                }
            ],
            "stateMutability": "view",
            "type": "function"
        },
        {
            "inputs": [
                {
                    "internalType": "address",
                    "name": "account",
                    "type": "address"
                },
                {
                    "internalType": "uint256",
                    "name": "blockNumber",
                    "type": "uint256"
                }
            ],
            "name": "getVotes",
            "outputs": [
                {
                    "internalType": "uint256",
                    "name": "",
                    "type": "uint256"
                }
            ],
            "stateMutability": "view",
            "type": "function"
        },
        {
            "inputs": [
                {
                    "internalType": "uint256",
                    "name": "proposalId",
                    "type": "uint256"
                },
                {
                    "internalType": "address",
                    "name": "account",
                    "type": "address"
                }
            ],
            "name": "hasVoted",
            "outputs": [
                {
                    "internalType": "bool",
                    "name": "",
                    "type": "bool"
                }
            ],
            "stateMutability": "view",
            "type": "function"
        },
        {
            "inputs": [
                {
                    "internalType": "address[]",
                    "name": "targets",
                    "type": "address[]"
                },
                {
                    "internalType": "uint256[]",
                    "name": "values",
                    "type": "uint256[]"
                },
                {
                    "internalType": "bytes[]",
                    "name": "calldatas",
                    "type": "bytes[]"
                },
                {
                    "internalType": "bytes32",
                    "name": "descriptionHash",
                    "type": "bytes32"
                }
            ],
            "name": "hashProposal",
            "outputs": [
                {
                    "internalType": "uint256",
                    "name": "",
                    "type": "uint256"
                }
            ],
            "stateMutability": "pure",
            "type": "function"
        },
        {
            "inputs": [],
            "name": "name",
            "outputs": [
                {
                    "internalType": "string",
                    "name": "",
                    "type": "string"
                }
            ],
            "stateMutability": "view",
            "type": "function"
        },
        {
            "inputs": [
                {
                    "internalType": "uint256",
                    "name": "proposalId",
                    "type": "uint256"
                }
            ],
            "name": "proposalDeadline",
            "outputs": [
                {
                    "internalType": "uint256",
                    "name": "",
                    "type": "uint256"
                }
            ],
            "stateMutability": "view",
            "type": "function"
        },
        {
            "inputs": [
                {
                    "internalType": "uint256",
                    "name": "proposalId",
                    "type": "uint256"
                }
            ],
            "name": "proposalEta",
            "outputs": [
                {
                    "internalType": "uint256",
                    "name": "",
                    "type": "uint256"
                }
            ],
            "stateMutability": "view",
            "type": "function"
        },
        {
            "inputs": [
                {
                    "internalType": "uint256",
                    "name": "proposalId",
                    "type": "uint256"
                }
            ],
            "name": "proposalSnapshot",
            "outputs": [
                {
                    "internalType": "uint256",
                    "name": "",
                    "type": "uint256"
                }
            ],
            "stateMutability": "view",
            "type": "function"
        },
        {
            "inputs": [],
            "name": "proposalThreshold",
            "outputs": [
                {
                    "internalType": "uint256",
                    "name": "",
                    "type": "uint256"
                }
            ],
            "stateMutability": "view",
            "type": "function"
        },
        {
            "inputs": [
                {
                    "internalType": "uint256",
                    "name": "proposalId",
                    "type": "uint256"
                }
            ],
            "name": "proposals",
            "outputs": [
                {
                    "internalType": "uint256",
                    "name": "id",
                    "type": "uint256"
                },
                {
                    "internalType": "address",
                    "name": "proposer",
                    "type": "address"
                },
                {
                    "internalType": "uint256",
                    "name": "eta",
                    "type": "uint256"
                },
                {
                    "internalType": "uint256",
                    "name": "startBlock",
                    "type": "uint256"
                },
                {
                    "internalType": "uint256",
                    "name": "endBlock",
                    "type": "uint256"
                },
                {
                    "internalType": "uint256",
                    "name": "forVotes",
                    "type": "uint256"
                },
                {
                    "internalType": "uint256",
                    "name": "againstVotes",
                    "type": "uint256"
                },
                {
                    "internalType": "uint256",
                    "name": "abstainVotes",
                    "type": "uint256"
                },
                {
                    "internalType": "bool",
                    "name": "canceled",
                    "type": "bool"
                },
                {
                    "internalType": "bool",
                    "name": "executed",
                    "type": "bool"
                }
            ],
            "stateMutability": "view",
            "type": "function"
        },
        {
            "inputs": [
                {
                    "internalType": "address[]",
                    "name": "targets",
                    "type": "address[]"
                },
                {
                    "internalType": "uint256[]",
                    "name": "values",
                    "type": "uint256[]"
                },
                {
                    "internalType": "bytes[]",
                    "name": "calldatas",
                    "type": "bytes[]"
                },
                {
                    "internalType": "string",
                    "name": "description",
                    "type": "string"
                }
            ],
            "name": "propose",
            "outputs": [
                {
                    "internalType": "uint256",
                    "name": "",
                    "type": "uint256"
                }
            ],
            "stateMutability": "nonpayable",
            "type": "function"
        },
        {
            "inputs": [
                {
                    "internalType": "address[]",
                    "name": "targets",
                    "type": "address[]"
                },
                {
                    "internalType": "uint256[]",
                    "name": "values",
                    "type": "uint256[]"
                },
                {
                    "internalType": "string[]",
                    "name": "signatures",
                    "type": "string[]"
                },
                {
                    "internalType": "bytes[]",
                    "name": "calldatas",
                    "type": "bytes[]"
                },
                {
                    "internalType": "string",
                    "name": "description",
                    "type": "string"
                }
            ],
            "name": "propose",
            "outputs": [
                {
                    "internalType": "uint256",
                    "name": "",
                    "type": "uint256"
                }
            ],
            "stateMutability": "nonpayable",
            "type": "function"
        },
        {
            "inputs": [
                {
                    "internalType": "address[]",
                    "name": "targets",
                    "type": "address[]"
                },
                {
                    "internalType": "uint256[]",
                    "name": "values",
                    "type": "uint256[]"
                },
                {
                    "internalType": "bytes[]",
                    "name": "calldatas",
                    "type": "bytes[]"
                },
                {
                    "internalType": "bytes32",
                    "name": "salt",
                    "type": "bytes32"
                }
            ],
            "name": "queue",
            "outputs": [
                {
                    "internalType": "uint256",
                    "name": "",
                    "type": "uint256"
                }
            ],
            "stateMutability": "nonpayable",
            "type": "function"
        },
        {
            "inputs": [
                {
                    "internalType": "uint256",
                    "name": "proposalId",
                    "type": "uint256"
                }
            ],
            "name": "queue",
            "outputs": [],
            "stateMutability": "nonpayable",
            "type": "function"
        },
        {
            "inputs": [
                {
                    "internalType": "uint256",
                    "name": "",
                    "type": "uint256"
                }
            ],
            "name": "quorum",
            "outputs": [
                {
                    "internalType": "uint256",
                    "name": "",
                    "type": "uint256"
                }
            ],
            "stateMutability": "pure",
            "type": "function"
        },
        {
            "inputs": [],
            "name": "quorumVotes",
            "outputs": [
                {
                    "internalType": "uint256",
                    "name": "",
                    "type": "uint256"
                }
            ],
            "stateMutability": "view",
            "type": "function"
        },
        {
            "inputs": [
                {
                    "internalType": "uint256",
                    "name": "newProposalThreshold",
                    "type": "uint256"
                }
            ],
            "name": "setProposalThreshold",
            "outputs": [],
            "stateMutability": "nonpayable",
            "type": "function"
        },
        {
            "inputs": [
                {
                    "internalType": "uint256",
                    "name": "newVotingDelay",
                    "type": "uint256"
                }
            ],
            "name": "setVotingDelay",
            "outputs": [],
            "stateMutability": "nonpayable",
            "type": "function"
        },
        {
            "inputs": [
                {
                    "internalType": "uint256",
                    "name": "newVotingPeriod",
                    "type": "uint256"
                }
            ],
            "name": "setVotingPeriod",
            "outputs": [],
            "stateMutability": "nonpayable",
            "type": "function"
        },
        {
            "inputs": [
                {
                    "internalType": "uint256",
                    "name": "proposalId",
                    "type": "uint256"
                }
            ],
            "name": "state",
            "outputs": [
                {
                    "internalType": "enum IGovernor.ProposalState",
                    "name": "",
                    "type": "uint8"
                }
            ],
            "stateMutability": "view",
            "type": "function"
        },
        {
            "inputs": [
                {
                    "internalType": "bytes4",
                    "name": "interfaceId",
                    "type": "bytes4"
                }
            ],
            "name": "supportsInterface",
            "outputs": [
                {
                    "internalType": "bool",
                    "name": "",
                    "type": "bool"
                }
            ],
            "stateMutability": "view",
            "type": "function"
        },
        {
            "inputs": [],
            "name": "timelock",
            "outputs": [
                {
                    "internalType": "address",
                    "name": "",
                    "type": "address"
                }
            ],
            "stateMutability": "view",
            "type": "function"
        },
        {
            "inputs": [],
            "name": "token",
            "outputs": [
                {
                    "internalType": "contract ERC20VotesComp",
                    "name": "",
                    "type": "address"
                }
            ],
            "stateMutability": "view",
            "type": "function"
        },
        {
            "inputs": [
                {
                    "internalType": "contract ICompoundTimelock",
                    "name": "newTimelock",
                    "type": "address"
                }
            ],
            "name": "updateTimelock",
            "outputs": [],
            "stateMutability": "nonpayable",
            "type": "function"
        },
        {
            "inputs": [],
            "name": "version",
            "outputs": [
                {
                    "internalType": "string",
                    "name": "",
                    "type": "string"
                }
            ],
            "stateMutability": "view",
            "type": "function"
        },
        {
            "inputs": [],
            "name": "votingDelay",
            "outputs": [
                {
                    "internalType": "uint256",
                    "name": "",
                    "type": "uint256"
                }
            ],
            "stateMutability": "view",
            "type": "function"
        },
        {
            "inputs": [],
            "name": "votingPeriod",
            "outputs": [
                {
                    "internalType": "uint256",
                    "name": "",
                    "type": "uint256"
                }
            ],
            "stateMutability": "view",
            "type": "function"
        },
        {
            "stateMutability": "payable",
            "type": "receive"
        }
    ],
    "bytecode": "6101606040523480156200001257600080fd5b506040516200483d3803806200483d8339810160408190526200003591620003be565b84818585858a806200005b6040805180820190915260018152603160f81b602082015290565b815160208084019190912082518383012060e08290526101008190524660a0818152604080517f8b73c3c69bb8fe3d512ecc4cf759cc79239f7b179b0ffacaa9a75d522b39400f81880181905281830187905260608201869052608082019490945230818401528151808203909301835260c00190528051940193909320919290916080523060c0526101205250508251620001019250600091506020840190620002e5565b506200010f90508362000154565b6200011a8262000195565b62000125816200023b565b50505062000139816200027c60201b60201c565b506001600160a01b031661014052506200051a945050505050565b60035460408051918252602082018390527fc565b045403dc03c2eea82b81a0465edad9e2e7fc4d97e11421c209da93d7a93910160405180910390a1600355565b60008111620001fa5760405162461bcd60e51b815260206004820152602760248201527f476f7665726e6f7253657474696e67733a20766f74696e6720706572696f6420604482015266746f6f206c6f7760c81b606482015260840160405180910390fd5b60045460408051918252602082018390527f7e3f7f0708a84de9203036abaa450dccc85ad5ff52f78c170f3edb55cf5e8828910160405180910390a1600455565b60055460408051918252602082018390527fccb45da8d5717e6c4544694297c4ba5cf151d455c9bb0ed4fc7a38411bc05461910160405180910390a1600555565b600654604080516001600160a01b03928316815291831660208301527f08f74ea46ef7894f65eabfb5e6e695de773a000b47c529ab559178069b226401910160405180910390a1600680546001600160a01b0319166001600160a01b0392909216919091179055565b828054620002f390620004dd565b90600052602060002090601f01602090048101928262000317576000855562000362565b82601f106200033257805160ff191683800117855562000362565b8280016001018555821562000362579182015b828111156200036257825182559160200191906001019062000345565b506200037092915062000374565b5090565b5b8082111562000370576000815560010162000375565b634e487b7160e01b600052604160045260246000fd5b80516001600160a01b0381168114620003b957600080fd5b919050565b60008060008060008060c08789031215620003d857600080fd5b86516001600160401b0380821115620003f057600080fd5b818901915089601f8301126200040557600080fd5b8151818111156200041a576200041a6200038b565b604051601f8201601f19908116603f011681019083821181831017156200044557620004456200038b565b81604052828152602093508c848487010111156200046257600080fd5b600091505b8282101562000486578482018401518183018501529083019062000467565b82821115620004985760008484830101525b9950620004aa915050898201620003a1565b96505050604087015193506060870151925060808701519150620004d160a08801620003a1565b90509295509295509295565b600181811c90821680620004f257607f821691505b602082108114156200051457634e487b7160e01b600052602260045260246000fd5b50919050565b60805160a05160c05160e0516101005161012051610140516142c16200057c6000396000818161085e015261234901526000612564015260006125b30152600061258e015260006124e7015260006125110152600061253b01526142c16000f3fe6080604052600436106102295760003560e01c80637d5e81e211610123578063dd4e2ba5116100ab578063eb9019d41161006f578063eb9019d4146107eb578063ece40cc11461080b578063f8ce560a1461082b578063fc0c546a1461084c578063fe0d94c11461088057600080fd5b8063dd4e2ba514610667578063ddf0b009146106ad578063deaaa7cc146106cd578063e23a9a5214610701578063ea0217cf146107cb57600080fd5b8063b9a61961116100f2578063b9a61961146105c0578063c01f9e37146105d5578063c59057e4146105f5578063d33219b414610615578063da95691a1461064757600080fd5b80637d5e81e21461054b578063a890c9101461056b578063ab58fb8e1461058b578063b58131b0146105ab57600080fd5b80633932abb1116101b1578063452115d611610175578063452115d6146104a157806354fd4d50146104c157806356781388146104eb57806370b0f6601461050b5780637b3c71d31461052b57600080fd5b80633932abb1146103d55780633bccf4fd146103ea5780633e4f49e61461040a57806340e58ee514610437578063438596321461045757600080fd5b8063160cbed7116101f8578063160cbed71461033d57806324bc1a641461035d5780632656227d146103725780632d63f69314610385578063328dd982146103a557600080fd5b8063013cf08b1461025157806301ffc9a7146102cc57806302a251a3146102fc57806306fdde031461031b57600080fd5b3661024c5730610237610893565b6001600160a01b03161461024a57600080fd5b005b600080fd5b34801561025d57600080fd5b5061027161026c366004613639565b6108ac565b604080519a8b526001600160a01b0390991660208b0152978901969096526060880194909452608087019290925260a086015260c085015260e084015215156101008301521515610120820152610140015b60405180910390f35b3480156102d857600080fd5b506102ec6102e7366004613652565b610955565b60405190151581526020016102c3565b34801561030857600080fd5b506004545b6040519081526020016102c3565b34801561032757600080fd5b50610330610966565b6040516102c391906136d4565b34801561034957600080fd5b5061030d610358366004613928565b6109f8565b34801561036957600080fd5b5061030d610a0f565b61030d610380366004613928565b610a1f565b34801561039157600080fd5b5061030d6103a0366004613639565b610a2d565b3480156103b157600080fd5b506103c56103c0366004613639565b610a64565b6040516102c39493929190613a7d565b3480156103e157600080fd5b5060035461030d565b3480156103f657600080fd5b5061030d610405366004613ae0565b610cf5565b34801561041657600080fd5b5061042a610425366004613639565b610d89565b6040516102c39190613b44565b34801561044357600080fd5b5061024a610452366004613639565b610d94565b34801561046357600080fd5b506102ec610472366004613b6c565b60008281526002602090815260408083206001600160a01b038516845260080190915290205460ff1692915050565b3480156104ad57600080fd5b5061030d6104bc366004613928565b6110b1565b3480156104cd57600080fd5b506040805180820190915260018152603160f81b6020820152610330565b3480156104f757600080fd5b5061030d610506366004613b9c565b6110bf565b34801561051757600080fd5b5061024a610526366004613639565b6110e8565b34801561053757600080fd5b5061030d610546366004613bc8565b61112c565b34801561055757600080fd5b5061030d610566366004613c6e565b61117e565b34801561057757600080fd5b5061024a610586366004613d1a565b61118c565b34801561059757600080fd5b5061030d6105a6366004613639565b6111cd565b3480156105b757600080fd5b5061030d6111d8565b3480156105cc57600080fd5b5061024a6111e3565b3480156105e157600080fd5b5061030d6105f0366004613639565b61124d565b34801561060157600080fd5b5061030d610610366004613928565b61127c565b34801561062157600080fd5b506006546001600160a01b03165b6040516001600160a01b0390911681526020016102c3565b34801561065357600080fd5b5061030d610662366004613db6565b6112b6565b34801561067357600080fd5b5060408051808201909152601a81527f737570706f72743d627261766f2671756f72756d3d627261766f0000000000006020820152610330565b3480156106b957600080fd5b5061024a6106c8366004613639565b6112db565b3480156106d957600080fd5b5061030d7f150214d74d59b7d1e90c73fc22ef3d991dd0a76b046543d4d80ab92d2a50328f81565b34801561070d57600080fd5b5061079b61071c366004613b6c565b60408051606081018252600080825260208201819052918101919091525060009182526002602090815260408084206001600160a01b0393909316845260089092018152918190208151606081018352905460ff8082161515835261010082041693820193909352620100009092046001600160601b03169082015290565b6040805182511515815260208084015160ff1690820152918101516001600160601b0316908201526060016102c3565b3480156107d757600080fd5b5061024a6107e6366004613639565b611549565b3480156107f757600080fd5b5061030d610806366004613e87565b61158a565b34801561081757600080fd5b5061024a610826366004613639565b61159d565b34801561083757600080fd5b5061030d610846366004613639565b50600090565b34801561085857600080fd5b5061062f7f000000000000000000000000000000000000000000000000000000000000000081565b61024a61088e366004613639565b6115de565b60006108a76006546001600160a01b031690565b905090565b80600080808080808080806108c08a6111cd565b97506108cb8b610a2d565b96506108d68b61124d565b60008c815260026020526040812080546005820154600683015460078401546001600160a01b039093169e50949a5098509296509194506109168d610d89565b9050600281600781111561092c5761092c613b2e565b149350600781600781111561094357610943613b2e565b14925050509193959799509193959799565b60006109608261184c565b92915050565b60606000805461097590613eb3565b80601f01602080910402602001604051908101604052809291908181526020018280546109a190613eb3565b80156109ee5780601f106109c3576101008083540402835291602001916109ee565b820191906000526020600020905b8154815290600101906020018083116109d157829003601f168201915b5050505050905090565b6000610a0685858585611871565b95945050505050565b60006108a7610846600143613efe565b6000610a0685858585611beb565b60008181526001602090815260408083208151928301909152546001600160401b0316908190525b6001600160401b031692915050565b60608060608060006002600087815260200190815260200160002090508060010181600201826003018360040183805480602002602001604051908101604052809291908181526020018280548015610ae657602002820191906000526020600020905b81546001600160a01b03168152600190910190602001808311610ac8575b5050505050935082805480602002602001604051908101604052809291908181526020018280548015610b3857602002820191906000526020600020905b815481526020019060010190808311610b24575b5050505050925081805480602002602001604051908101604052809291908181526020016000905b82821015610c0c578382906000526020600020018054610b7f90613eb3565b80601f0160208091040260200160405190810160405280929190818152602001828054610bab90613eb3565b8015610bf85780601f10610bcd57610100808354040283529160200191610bf8565b820191906000526020600020905b815481529060010190602001808311610bdb57829003601f168201915b505050505081526020019060010190610b60565b50505050915080805480602002602001604051908101604052809291908181526020016000905b82821015610cdf578382906000526020600020018054610c5290613eb3565b80601f0160208091040260200160405190810160405280929190818152602001828054610c7e90613eb3565b8015610ccb5780601f10610ca057610100808354040283529160200191610ccb565b820191906000526020600020905b815481529060010190602001808311610cae57829003601f168201915b505050505081526020019060010190610c33565b5050505090509450945094509450509193509193565b604080517f150214d74d59b7d1e90c73fc22ef3d991dd0a76b046543d4d80ab92d2a50328f602082015290810186905260ff851660608201526000908190610d6190610d599060800160405160208183030381529060405280519060200120611cbe565b868686611d0c565b9050610d7e87828860405180602001604052806000815250611d2a565b979650505050505050565b600061096082611e35565b600081815260026020526040902080546001600160a01b0316336001600160a01b03161480610de25750610dc66111d8565b8154610de0906001600160a01b0316610806600143613efe565b105b610e435760405162461bcd60e51b815260206004820152602760248201527f476f7665726e6f72427261766f3a2070726f706f7365722061626f76652074686044820152661c995cda1bdb1960ca1b60648201526084015b60405180910390fd5b6110ac81600101805480602002602001604051908101604052809291908181526020018280548015610e9e57602002820191906000526020600020905b81546001600160a01b03168152600190910190602001808311610e80575b505050505082600201805480602002602001604051908101604052809291908181526020018280548015610ef157602002820191906000526020600020905b815481526020019060010190808311610edd575b50505050506110a284600301805480602002602001604051908101604052809291908181526020016000905b82821015610fc9578382906000526020600020018054610f3c90613eb3565b80601f0160208091040260200160405190810160405280929190818152602001828054610f6890613eb3565b8015610fb55780601f10610f8a57610100808354040283529160200191610fb5565b820191906000526020600020905b815481529060010190602001808311610f9857829003601f168201915b505050505081526020019060010190610f1d565b50505060048701805460408051602080840282018101909252828152935060009084015b8282101561109957838290600052602060002001805461100c90613eb3565b80601f016020809104026020016040519081016040528092919081815260200182805461103890613eb3565b80156110855780601f1061105a57610100808354040283529160200191611085565b820191906000526020600020905b81548152906001019060200180831161106857829003601f168201915b505050505081526020019060010190610fed565b50505050611f16565b8460090154612076565b505050565b6000610a0685858585612076565b6000803390506110e084828560405180602001604052806000815250611d2a565b949350505050565b6110f0610893565b6001600160a01b0316336001600160a01b0316146111205760405162461bcd60e51b8152600401610e3a90613f15565b61112981612084565b50565b60008033905061117486828787878080601f016020809104026020016040519081016040528093929190818152602001838380828437600092019190915250611d2a92505050565b9695505050505050565b6000610a06858585856120c5565b611194610893565b6001600160a01b0316336001600160a01b0316146111c45760405162461bcd60e51b8152600401610e3a90613f15565b6111298161212d565b600061096082612196565b60006108a760055490565b600660009054906101000a90046001600160a01b03166001600160a01b0316630e18b6816040518163ffffffff1660e01b8152600401600060405180830381600087803b15801561123357600080fd5b505af1158015611247573d6000803e3d6000fd5b50505050565b60008181526001602081815260408084208151928301909152909101546001600160401b031690819052610a55565b6000848484846040516020016112959493929190613f4c565b60408051601f19818403018152919052805160209091012095945050505050565b60006112c63387878787876121c2565b61117486866112d58787611f16565b8561117e565b60008181526002602090815260409182902060018101805484518185028101850190955280855291936110ac9390929083018282801561134457602002820191906000526020600020905b81546001600160a01b03168152600190910190602001808311611326575b50505050508260020180548060200260200160405190810160405280929190818152602001828054801561139757602002820191906000526020600020905b815481526020019060010190808311611383575b505050505061153f84600301805480602002602001604051908101604052809291908181526020016000905b8282101561146f5783829060005260206000200180546113e290613eb3565b80601f016020809104026020016040519081016040528092919081815260200182805461140e90613eb3565b801561145b5780601f106114305761010080835404028352916020019161145b565b820191906000526020600020905b81548152906001019060200180831161143e57829003601f168201915b5050505050815260200190600101906113c3565b50505060048701805460408051602080840282018101909252828152935060009084015b828210156110995783829060005260206000200180546114b290613eb3565b80601f01602080910402602001604051908101604052809291908181526020018280546114de90613eb3565b801561152b5780601f106115005761010080835404028352916020019161152b565b820191906000526020600020905b81548152906001019060200180831161150e57829003601f168201915b505050505081526020019060010190611493565b84600901546109f8565b611551610893565b6001600160a01b0316336001600160a01b0316146115815760405162461bcd60e51b8152600401610e3a90613f15565b6111298161227f565b60006115968383612320565b9392505050565b6115a5610893565b6001600160a01b0316336001600160a01b0316146115d55760405162461bcd60e51b8152600401610e3a90613f15565b611129816123c6565b60008181526002602090815260409182902060018101805484518185028101850190955280855291936110ac9390929083018282801561164757602002820191906000526020600020905b81546001600160a01b03168152600190910190602001808311611629575b50505050508260020180548060200260200160405190810160405280929190818152602001828054801561169a57602002820191906000526020600020905b815481526020019060010190808311611686575b505050505061184284600301805480602002602001604051908101604052809291908181526020016000905b828210156117725783829060005260206000200180546116e590613eb3565b80601f016020809104026020016040519081016040528092919081815260200182805461171190613eb3565b801561175e5780601f106117335761010080835404028352916020019161175e565b820191906000526020600020905b81548152906001019060200180831161174157829003601f168201915b5050505050815260200190600101906116c6565b50505060048701805460408051602080840282018101909252828152935060009084015b828210156110995783829060005260206000200180546117b590613eb3565b80601f01602080910402602001604051908101604052809291908181526020018280546117e190613eb3565b801561182e5780601f106118035761010080835404028352916020019161182e565b820191906000526020600020905b81548152906001019060200180831161181157829003601f168201915b505050505081526020019060010190611796565b8460090154610a1f565b60006001600160e01b03198216636e665ced60e01b1480610960575061096082612407565b6000806118808686868661127c565b9050600461188d82610d89565b600781111561189e5761189e613b2e565b146118bb5760405162461bcd60e51b8152600401610e3a90613f97565b60065460408051630d48571f60e31b815290516000926001600160a01b031691636a42b8f89160048083019260209291908290030181865afa158015611905573d6000803e3d6000fd5b505050506040513d601f19601f820116820180604052508101906119299190613fd8565b6119339042613ff1565b90506119556119418261243c565b6000848152600760205260409020906124a8565b60005b8751811015611ba65760065488516001600160a01b039091169063f2b06537908a908490811061198a5761198a614009565b60200260200101518984815181106119a4576119a4614009565b60200260200101518985815181106119be576119be614009565b6020026020010151866040516020016119da949392919061401f565b604051602081830303815290604052805190602001206040518263ffffffff1660e01b8152600401611a0e91815260200190565b602060405180830381865afa158015611a2b573d6000803e3d6000fd5b505050506040513d601f19601f82011682018060405250810190611a4f9190614065565b15611acd5760405162461bcd60e51b815260206004820152604260248201527f476f7665726e6f7254696d656c6f636b436f6d706f756e643a206964656e746960448201527f63616c2070726f706f73616c20616374696f6e20616c72656164792071756575606482015261195960f21b608482015260a401610e3a565b60065488516001600160a01b0390911690633a66f901908a9084908110611af657611af6614009565b6020026020010151898481518110611b1057611b10614009565b6020026020010151898581518110611b2a57611b2a614009565b6020026020010151866040518563ffffffff1660e01b8152600401611b52949392919061401f565b6020604051808303816000875af1158015611b71573d6000803e3d6000fd5b505050506040513d601f19601f82011682018060405250810190611b959190613fd8565b50611b9f81614087565b9050611958565b5060408051838152602081018390527f9a2e42fd6722813d69113e7d0079d3d940171428df7373df9c7f7617cfda289291015b60405180910390a15095945050505050565b600080611bfa8686868661127c565b90506000611c0782610d89565b90506004816007811115611c1d57611c1d613b2e565b1480611c3a57506005816007811115611c3857611c38613b2e565b145b611c565760405162461bcd60e51b8152600401610e3a90613f97565b600082815260016020818152604092839020600201805460ff191690921790915590518381527f712ae1383f79ac853f8d882153778e0260ef8f03b504e2866e0593e04d2b291f910160405180910390a1611cb482888888886124c6565b5095945050505050565b6000610960611ccb6124da565b8360405161190160f01b6020820152602281018390526042810182905260009060620160405160208183030381529060405280519060200120905092915050565b6000806000611d1d87878787612601565b91509150611cb4816126ee565b6000848152600160208190526040822090611d4487610d89565b6007811115611d5557611d55613b2e565b14611dae5760405162461bcd60e51b815260206004820152602360248201527f476f7665726e6f723a20766f7465206e6f742063757272656e746c792061637460448201526269766560e81b6064820152608401610e3a565b604080516020810190915281546001600160401b031690819052600090611dd690879061158a565b9050611de4878787846128a9565b856001600160a01b03167fb8e138887d0aa13bab447e82de9d5c1777041ecd21ca36ba824ff1e6c07ddda488878488604051611e2394939291906140a2565b60405180910390a29695505050505050565b600080611e4183612a4e565b90506004816007811115611e5757611e57613b2e565b14611e625792915050565b6000611e6d846111cd565b905080611e7b575092915050565b600660009054906101000a90046001600160a01b03166001600160a01b031663c1a287e26040518163ffffffff1660e01b8152600401602060405180830381865afa158015611ece573d6000803e3d6000fd5b505050506040513d601f19601f82011682018060405250810190611ef29190613fd8565b611efc9082613ff1565b4210611f0c575060069392505050565b5060059392505050565b6060600082516001600160401b03811115611f3357611f336136e7565b604051908082528060200260200182016040528015611f6657816020015b6060815260200190600190039081611f515790505b50905060005b845181101561206e57848181518110611f8757611f87614009565b60200260200101515160001461202557848181518110611fa957611fa9614009565b6020026020010151848281518110611fc357611fc3614009565b6020026020010151604051602401611fdb91906136d4565b60408051601f198184030181529082905291611ff6916140ca565b6040519081900390206020820180516001600160e01b03166001600160e01b0319909216919091179052612040565b83818151811061203757612037614009565b60200260200101515b82828151811061205257612052614009565b60200260200101819052508061206790614087565b9050611f6c565b509392505050565b6000610a0685858585612bb5565b60035460408051918252602082018390527fc565b045403dc03c2eea82b81a0465edad9e2e7fc4d97e11421c209da93d7a93910160405180910390a1600355565b600061212133868686516001600160401b038111156120e6576120e66136e7565b60405190808252806020026020018201604052801561211957816020015b60608152602001906001900390816121045790505b5087876121c2565b610a0685858585612cd0565b600654604080516001600160a01b03928316815291831660208301527f08f74ea46ef7894f65eabfb5e6e695de773a000b47c529ab559178069b226401910160405180910390a1600680546001600160a01b0319166001600160a01b0392909216919091179055565b60008181526007602090815260408083208151928301909152546001600160401b031690819052610a55565b8051602082012060006121e087876121da8888611f16565b8561127c565b60008181526002602052604090206009810154919250906122745780546001600160a01b0319166001600160a01b038a16178155875161222990600183019060208b01906133ef565b50865161223f90600283019060208a0190613450565b508551612255906003830190602089019061348b565b50845161226b90600483019060208801906134e4565b50600981018390555b505050505050505050565b600081116122df5760405162461bcd60e51b815260206004820152602760248201527f476f7665726e6f7253657474696e67733a20766f74696e6720706572696f6420604482015266746f6f206c6f7760c81b6064820152608401610e3a565b60045460408051918252602082018390527f7e3f7f0708a84de9203036abaa450dccc85ad5ff52f78c170f3edb55cf5e8828910160405180910390a1600455565b60405163782d6fe160e01b81526001600160a01b038381166004830152602482018390526000917f00000000000000000000000000000000000000000000000000000000000000009091169063782d6fe190604401602060405180830381865afa158015612392573d6000803e3d6000fd5b505050506040513d601f19601f820116820180604052508101906123b691906140e6565b6001600160601b03169392505050565b60055460408051918252602082018390527fccb45da8d5717e6c4544694297c4ba5cf151d455c9bb0ed4fc7a38411bc05461910160405180910390a1600555565b60006001600160e01b0319821663bf26d89760e01b148061096057506301ffc9a760e01b6001600160e01b0319831614610960565b60006001600160401b038211156124a45760405162461bcd60e51b815260206004820152602660248201527f53616665436173743a2076616c756520646f65736e27742066697420696e203660448201526534206269747360d01b6064820152608401610e3a565b5090565b815467ffffffffffffffff19166001600160401b0391909116179055565b6124d38585858585612f8c565b5050505050565b6000306001600160a01b037f00000000000000000000000000000000000000000000000000000000000000001614801561253357507f000000000000000000000000000000000000000000000000000000000000000046145b1561255d57507f000000000000000000000000000000000000000000000000000000000000000090565b50604080517f00000000000000000000000000000000000000000000000000000000000000006020808301919091527f0000000000000000000000000000000000000000000000000000000000000000828401527f000000000000000000000000000000000000000000000000000000000000000060608301524660808301523060a0808401919091528351808403909101815260c0909201909252805191012090565b6000807f7fffffffffffffffffffffffffffffff5d576e7357a4501ddfe92f46681b20a083111561263857506000905060036126e5565b8460ff16601b1415801561265057508460ff16601c14155b1561266157506000905060046126e5565b6040805160008082526020820180845289905260ff881692820192909252606081018690526080810185905260019060a0016020604051602081039080840390855afa1580156126b5573d6000803e3d6000fd5b5050604051601f1901519150506001600160a01b0381166126de576000600192509250506126e5565b9150600090505b94509492505050565b600081600481111561270257612702613b2e565b141561270b5750565b600181600481111561271f5761271f613b2e565b141561276d5760405162461bcd60e51b815260206004820152601860248201527f45434453413a20696e76616c6964207369676e617475726500000000000000006044820152606401610e3a565b600281600481111561278157612781613b2e565b14156127cf5760405162461bcd60e51b815260206004820152601f60248201527f45434453413a20696e76616c6964207369676e6174757265206c656e677468006044820152606401610e3a565b60038160048111156127e3576127e3613b2e565b141561283c5760405162461bcd60e51b815260206004820152602260248201527f45434453413a20696e76616c6964207369676e6174757265202773272076616c604482015261756560f01b6064820152608401610e3a565b600481600481111561285057612850613b2e565b14156111295760405162461bcd60e51b815260206004820152602260248201527f45434453413a20696e76616c6964207369676e6174757265202776272076616c604482015261756560f01b6064820152608401610e3a565b60008481526002602090815260408083206001600160a01b038716845260088101909252909120805460ff16156129385760405162461bcd60e51b815260206004820152602d60248201527f476f7665726e6f72436f6d7061746962696c697479427261766f3a20766f746560448201526c08185b1c9958591e4818d85cdd609a1b6064820152608401610e3a565b805460ff85166101000261ffff199091161760011781556129588361310b565b81546001600160601b039190911662010000026dffffffffffffffffffffffff00001990911617815560ff84166129a8578282600601600082825461299d9190613ff1565b90915550612a469050565b60ff8416600114156129c8578282600501600082825461299d9190613ff1565b60ff8416600214156129e8578282600701600082825461299d9190613ff1565b60405162461bcd60e51b815260206004820152602d60248201527f476f7665726e6f72436f6d7061746962696c697479427261766f3a20696e766160448201526c6c696420766f7465207479706560981b6064820152608401610e3a565b505050505050565b6000818152600160208181526040808420815160a08101835281546001600160401b0390811660808301908152825283518086018552958301541685529283019390935260029092015460ff80821615801594840194909452610100909104161515606082015290612ac35750600792915050565b806060015115612ad65750600292915050565b80515143906001600160401b031610612af25750600092915050565b43612aff82602001515190565b6001600160401b031610612b165750600192915050565b612b238160200151613173565b15612b6757612b31836131a2565b8015612b53575060008381526002602052604090206006810154600590910154115b612b5e576003611596565b60049392505050565b60405162461bcd60e51b815260206004820152601d60248201527f476f7665726e6f723a20756e6b6e6f776e2070726f706f73616c2069640000006044820152606401610e3a565b50919050565b600080612bc4868686866131ca565b90506000612bd1826111cd565b90508015611cb45760005b8751811015612cad5760065488516001600160a01b039091169063591fcdfe908a9084908110612c0e57612c0e614009565b6020026020010151898481518110612c2857612c28614009565b6020026020010151898581518110612c4257612c42614009565b6020026020010151866040518563ffffffff1660e01b8152600401612c6a949392919061401f565b600060405180830381600087803b158015612c8457600080fd5b505af1158015612c98573d6000803e3d6000fd5b5050505080612ca690614087565b9050612bdc565b506000828152600760205260409020805467ffffffffffffffff19169055611cb4565b6000612cda6111d8565b612ce933610806600143613efe565b1015612d695760405162461bcd60e51b815260206004820152604360248201527f476f7665726e6f72436f6d7061746962696c697479427261766f3a2070726f7060448201527f6f73657220766f7465732062656c6f772070726f706f73616c207468726573686064820152621bdb1960ea1b608482015260a401610e3a565b6000612d7e868686868051906020012061127c565b90508451865114612da15760405162461bcd60e51b8152600401610e3a9061410f565b8351865114612dc25760405162461bcd60e51b8152600401610e3a9061410f565b6000865111612e135760405162461bcd60e51b815260206004820152601860248201527f476f7665726e6f723a20656d7074792070726f706f73616c00000000000000006044820152606401610e3a565b600081815260016020908152604091829020825191820190925281546001600160401b03169081905215612e935760405162461bcd60e51b815260206004820152602160248201527f476f7665726e6f723a2070726f706f73616c20616c72656164792065786973746044820152607360f81b6064820152608401610e3a565b6000612ea6612ea160035490565b61243c565b612eaf4361243c565b612eb99190614150565b90506000612ec9612ea160045490565b612ed39083614150565b9050612edf83836124a8565b612eec60018401826124a8565b7f7d84a6263ae0d98d3329bd7b46bb4e8d6f98cd35a7adb45c274c8b7fd5ebd5e084338b8b8d516001600160401b03811115612f2a57612f2a6136e7565b604051908082528060200260200182016040528015612f5d57816020015b6060815260200190600190039081612f485790505b508c88888e604051612f779998979695949392919061417b565b60405180910390a15091979650505050505050565b6000612f97866111cd565b9050600081116130035760405162461bcd60e51b815260206004820152603160248201527f476f7665726e6f7254696d656c6f636b436f6d706f756e643a2070726f706f73604482015270185b081b9bdd081e595d081c5d595d5959607a1b6064820152608401610e3a565b600654613019906001600160a01b0316346132d6565b60005b85518110156131025760065486516001600160a01b0390911690630825f38f9088908490811061304e5761304e614009565b602002602001015187848151811061306857613068614009565b602002602001015187858151811061308257613082614009565b6020026020010151866040518563ffffffff1660e01b81526004016130aa949392919061401f565b6000604051808303816000875af11580156130c9573d6000803e3d6000fd5b505050506040513d6000823e601f3d908101601f191682016040526130f1919081019061421e565b506130fb81614087565b905061301c565b50505050505050565b60006001600160601b038211156124a45760405162461bcd60e51b815260206004820152602660248201527f53616665436173743a2076616c756520646f65736e27742066697420696e203960448201526536206269747360d01b6064820152608401610e3a565b600061318882516001600160401b0316151590565b801561096057505051436001600160401b03909116111590565b600081815260026020526040812060058101546131c161084685610a2d565b11159392505050565b6000806131d98686868661127c565b905060006131e682610d89565b905060028160078111156131fc576131fc613b2e565b1415801561321c5750600681600781111561321957613219613b2e565b14155b801561323a5750600781600781111561323757613237613b2e565b14155b6132865760405162461bcd60e51b815260206004820152601d60248201527f476f7665726e6f723a2070726f706f73616c206e6f74206163746976650000006044820152606401610e3a565b60008281526001602052604090819020600201805461ff001916610100179055517f789cf55be980739dad1d0699b93b58e806b51c9d96619bfa8fe0a28abaa7b30c90611bd99084815260200190565b804710156133265760405162461bcd60e51b815260206004820152601d60248201527f416464726573733a20696e73756666696369656e742062616c616e63650000006044820152606401610e3a565b6000826001600160a01b03168260405160006040518083038185875af1925050503d8060008114613373576040519150601f19603f3d011682016040523d82523d6000602084013e613378565b606091505b50509050806110ac5760405162461bcd60e51b815260206004820152603a60248201527f416464726573733a20756e61626c6520746f2073656e642076616c75652c207260448201527f6563697069656e74206d617920686176652072657665727465640000000000006064820152608401610e3a565b828054828255906000526020600020908101928215613444579160200282015b8281111561344457825182546001600160a01b0319166001600160a01b0390911617825560209092019160019091019061340f565b506124a492915061353d565b828054828255906000526020600020908101928215613444579160200282015b82811115613444578251825591602001919060010190613470565b8280548282559060005260206000209081019282156134d8579160200282015b828111156134d857825180516134c8918491602090910190613552565b50916020019190600101906134ab565b506124a49291506135c5565b828054828255906000526020600020908101928215613531579160200282015b828111156135315782518051613521918491602090910190613552565b5091602001919060010190613504565b506124a49291506135e2565b5b808211156124a4576000815560010161353e565b82805461355e90613eb3565b90600052602060002090601f0160209004810192826135805760008555613444565b82601f1061359957805160ff1916838001178555613444565b828001600101855582156134445791820182811115613444578251825591602001919060010190613470565b808211156124a45760006135d982826135ff565b506001016135c5565b808211156124a45760006135f682826135ff565b506001016135e2565b50805461360b90613eb3565b6000825580601f1061361b575050565b601f016020900490600052602060002090810190611129919061353d565b60006020828403121561364b57600080fd5b5035919050565b60006020828403121561366457600080fd5b81356001600160e01b03198116811461159657600080fd5b60005b8381101561369757818101518382015260200161367f565b838111156112475750506000910152565b600081518084526136c081602086016020860161367c565b601f01601f19169290920160200192915050565b60208152600061159660208301846136a8565b634e487b7160e01b600052604160045260246000fd5b604051601f8201601f191681016001600160401b0381118282101715613725576137256136e7565b604052919050565b60006001600160401b03821115613746576137466136e7565b5060051b60200190565b6001600160a01b038116811461112957600080fd5b600082601f83011261377657600080fd5b8135602061378b6137868361372d565b6136fd565b82815260059290921b840181019181810190868411156137aa57600080fd5b8286015b848110156137ce5780356137c181613750565b83529183019183016137ae565b509695505050505050565b600082601f8301126137ea57600080fd5b813560206137fa6137868361372d565b82815260059290921b8401810191818101908684111561381957600080fd5b8286015b848110156137ce578035835291830191830161381d565b60006001600160401b0382111561384d5761384d6136e7565b50601f01601f191660200190565b600061386961378684613834565b905082815283838301111561387d57600080fd5b828260208301376000602084830101529392505050565b600082601f8301126138a557600080fd5b813560206138b56137868361372d565b82815260059290921b840181019181810190868411156138d457600080fd5b8286015b848110156137ce5780356001600160401b038111156138f75760008081fd5b8701603f810189136139095760008081fd5b61391a89868301356040840161385b565b8452509183019183016138d8565b6000806000806080858703121561393e57600080fd5b84356001600160401b038082111561395557600080fd5b61396188838901613765565b9550602087013591508082111561397757600080fd5b613983888389016137d9565b9450604087013591508082111561399957600080fd5b506139a687828801613894565b949793965093946060013593505050565b600081518084526020808501945080840160005b838110156139f05781516001600160a01b0316875295820195908201906001016139cb565b509495945050505050565b600081518084526020808501945080840160005b838110156139f057815187529582019590820190600101613a0f565b6000815180845260208085019450848260051b860182860160005b85811015613a70578383038952613a5e8383516136a8565b98850198925090840190600101613a46565b5090979650505050505050565b608081526000613a9060808301876139b7565b8281036020840152613aa281876139fb565b90508281036040840152613ab68186613a2b565b90508281036060840152610d7e8185613a2b565b803560ff81168114613adb57600080fd5b919050565b600080600080600060a08688031215613af857600080fd5b85359450613b0860208701613aca565b9350613b1660408701613aca565b94979396509394606081013594506080013592915050565b634e487b7160e01b600052602160045260246000fd5b6020810160088310613b6657634e487b7160e01b600052602160045260246000fd5b91905290565b60008060408385031215613b7f57600080fd5b823591506020830135613b9181613750565b809150509250929050565b60008060408385031215613baf57600080fd5b82359150613bbf60208401613aca565b90509250929050565b60008060008060608587031215613bde57600080fd5b84359350613bee60208601613aca565b925060408501356001600160401b0380821115613c0a57600080fd5b818701915087601f830112613c1e57600080fd5b813581811115613c2d57600080fd5b886020828501011115613c3f57600080fd5b95989497505060200194505050565b600082601f830112613c5f57600080fd5b6115968383356020850161385b565b60008060008060808587031215613c8457600080fd5b84356001600160401b0380821115613c9b57600080fd5b613ca788838901613765565b95506020870135915080821115613cbd57600080fd5b613cc9888389016137d9565b94506040870135915080821115613cdf57600080fd5b613ceb88838901613894565b93506060870135915080821115613d0157600080fd5b50613d0e87828801613c4e565b91505092959194509250565b600060208284031215613d2c57600080fd5b813561159681613750565b600082601f830112613d4857600080fd5b81356020613d586137868361372d565b82815260059290921b84018101918181019086841115613d7757600080fd5b8286015b848110156137ce5780356001600160401b03811115613d9a5760008081fd5b613da88986838b0101613c4e565b845250918301918301613d7b565b600080600080600060a08688031215613dce57600080fd5b85356001600160401b0380821115613de557600080fd5b613df189838a01613765565b96506020880135915080821115613e0757600080fd5b613e1389838a016137d9565b95506040880135915080821115613e2957600080fd5b613e3589838a01613d37565b94506060880135915080821115613e4b57600080fd5b613e5789838a01613894565b93506080880135915080821115613e6d57600080fd5b50613e7a88828901613c4e565b9150509295509295909350565b60008060408385031215613e9a57600080fd5b8235613ea581613750565b946020939093013593505050565b600181811c90821680613ec757607f821691505b60208210811415612baf57634e487b7160e01b600052602260045260246000fd5b634e487b7160e01b600052601160045260246000fd5b600082821015613f1057613f10613ee8565b500390565b60208082526018908201527f476f7665726e6f723a206f6e6c79476f7665726e616e63650000000000000000604082015260600190565b608081526000613f5f60808301876139b7565b8281036020840152613f7181876139fb565b90508281036040840152613f858186613a2b565b91505082606083015295945050505050565b60208082526021908201527f476f7665726e6f723a2070726f706f73616c206e6f74207375636365737366756040820152601b60fa1b606082015260800190565b600060208284031215613fea57600080fd5b5051919050565b6000821982111561400457614004613ee8565b500190565b634e487b7160e01b600052603260045260246000fd5b60018060a01b038516815283602082015260a06040820152600060a082015260c06060820152600061405460c08301856136a8565b905082608083015295945050505050565b60006020828403121561407757600080fd5b8151801515811461159657600080fd5b600060001982141561409b5761409b613ee8565b5060010190565b84815260ff8416602082015282604082015260806060820152600061117460808301846136a8565b600082516140dc81846020870161367c565b9190910192915050565b6000602082840312156140f857600080fd5b81516001600160601b038116811461159657600080fd5b60208082526021908201527f476f7665726e6f723a20696e76616c69642070726f706f73616c206c656e67746040820152600d60fb1b606082015260800190565b60006001600160401b0380831681851680830382111561417257614172613ee8565b01949350505050565b8981526001600160a01b0389166020820152610120604082018190526000906141a68382018b6139b7565b905082810360608401526141ba818a6139fb565b905082810360808401526141ce8189613a2b565b905082810360a08401526141e28188613a2b565b6001600160401b0387811660c0860152861660e0850152838103610100850152905061420e81856136a8565b9c9b505050505050505050505050565b60006020828403121561423057600080fd5b81516001600160401b0381111561424657600080fd5b8201601f8101841361425757600080fd5b805161426561378682613834565b81815285602083850101111561427a57600080fd5b610a0682602083016020860161367c56fea2646970667358221220adc2c8eb76b6e55af3ba953606c2869cd7d5329de4d2227be0930f84e5fa6c5664736f6c634300080a0033",
    "sourcePath": "d:/Github/new_token/contracts/contracts/mocks/GovernorCompatibilityBravoMock.sol",
    "compiler": {
        "name": "solc",
        "version": "0.8.10+commit.fc410830"
    },
    "functionHashes": {
        "BALLOT_TYPEHASH()": "deaaa7cc",
        "COUNTING_MODE()": "dd4e2ba5",
        "__acceptAdmin()": "b9a61961",
        "cancel(address[],uint256[],bytes[],bytes32)": "452115d6",
        "cancel(uint256)": "40e58ee5",
        "castVote(uint256,uint8)": "56781388",
        "castVoteBySig(uint256,uint8,uint8,bytes32,bytes32)": "3bccf4fd",
        "castVoteWithReason(uint256,uint8,string)": "7b3c71d3",
        "execute(address[],uint256[],bytes[],bytes32)": "2656227d",
        "execute(uint256)": "fe0d94c1",
        "getActions(uint256)": "328dd982",
        "getReceipt(uint256,address)": "e23a9a52",
        "getVotes(address,uint256)": "eb9019d4",
        "hasVoted(uint256,address)": "43859632",
        "hashProposal(address[],uint256[],bytes[],bytes32)": "c59057e4",
        "name()": "06fdde03",
        "proposalDeadline(uint256)": "c01f9e37",
        "proposalEta(uint256)": "ab58fb8e",
        "proposalSnapshot(uint256)": "2d63f693",
        "proposalThreshold()": "b58131b0",
        "proposals(uint256)": "013cf08b",
        "propose(address[],uint256[],bytes[],string)": "7d5e81e2",
        "propose(address[],uint256[],string[],bytes[],string)": "da95691a",
        "queue(address[],uint256[],bytes[],bytes32)": "160cbed7",
        "queue(uint256)": "ddf0b009",
        "quorum(uint256)": "f8ce560a",
        "quorumVotes()": "24bc1a64",
        "setProposalThreshold(uint256)": "ece40cc1",
        "setVotingDelay(uint256)": "70b0f660",
        "setVotingPeriod(uint256)": "ea0217cf",
        "state(uint256)": "3e4f49e6",
        "supportsInterface(bytes4)": "01ffc9a7",
        "timelock()": "d33219b4",
        "token()": "fc0c546a",
        "updateTimelock(address)": "a890c910",
        "version()": "54fd4d50",
        "votingDelay()": "3932abb1",
        "votingPeriod()": "02a251a3"
    },
    "gasEstimates": {
        "creation": {
            "codeDepositCost": "3417800",
            "executionCost": "infinite",
            "totalCost": "infinite"
        },
        "external": {
            "BALLOT_TYPEHASH()": "284",
            "COUNTING_MODE()": "infinite",
            "__acceptAdmin()": "infinite",
            "cancel(address[],uint256[],bytes[],bytes32)": "infinite",
            "cancel(uint256)": "infinite",
            "castVote(uint256,uint8)": "infinite",
            "castVoteBySig(uint256,uint8,uint8,bytes32,bytes32)": "infinite",
            "castVoteWithReason(uint256,uint8,string)": "infinite",
            "execute(address[],uint256[],bytes[],bytes32)": "infinite",
            "execute(uint256)": "infinite",
            "getActions(uint256)": "infinite",
            "getReceipt(uint256,address)": "3081",
            "getVotes(address,uint256)": "infinite",
            "hasVoted(uint256,address)": "2793",
            "hashProposal(address[],uint256[],bytes[],bytes32)": "infinite",
            "name()": "infinite",
            "proposalDeadline(uint256)": "2629",
            "proposalEta(uint256)": "2683",
            "proposalSnapshot(uint256)": "2654",
            "proposalThreshold()": "2442",
            "proposals(uint256)": "infinite",
            "propose(address[],uint256[],bytes[],string)": "infinite",
            "propose(address[],uint256[],string[],bytes[],string)": "infinite",
            "queue(address[],uint256[],bytes[],bytes32)": "infinite",
            "queue(uint256)": "infinite",
            "quorum(uint256)": "362",
            "quorumVotes()": "366",
            "setProposalThreshold(uint256)": "28082",
            "setVotingDelay(uint256)": "28127",
            "setVotingPeriod(uint256)": "28172",
            "state(uint256)": "infinite",
            "supportsInterface(bytes4)": "infinite",
            "timelock()": "2431",
            "token()": "infinite",
            "updateTimelock(address)": "infinite",
            "version()": "infinite",
            "votingDelay()": "2338",
            "votingPeriod()": "2372"
        },
        "internal": {
            "_cancel(address[] memory,uint256[] memory,bytes memory[] memory,bytes32)": "infinite",
            "_execute(uint256,address[] memory,uint256[] memory,bytes memory[] memory,bytes32)": "infinite",
            "_executor()": "2156"
        }
    }
}