{
    "contractName": "MathMock",
    "abi": [
        {
            "inputs": [
                {
                    "internalType": "int256",
                    "name": "n",
                    "type": "int256"
                }
            ],
            "name": "abs",
            "outputs": [
                {
                    "internalType": "uint256",
                    "name": "",
                    "type": "uint256"
                }
            ],
            "stateMutability": "pure",
            "type": "function"
        },
        {
            "inputs": [
                {
                    "internalType": "uint256",
                    "name": "a",
                    "type": "uint256"
                },
                {
                    "internalType": "uint256",
                    "name": "b",
                    "type": "uint256"
                }
            ],
            "name": "average",
            "outputs": [
                {
                    "internalType": "uint256",
                    "name": "",
                    "type": "uint256"
                }
            ],
            "stateMutability": "pure",
            "type": "function"
        },
        {
            "inputs": [
                {
                    "internalType": "uint256",
                    "name": "a",
                    "type": "uint256"
                },
                {
                    "internalType": "uint256",
                    "name": "b",
                    "type": "uint256"
                }
            ],
            "name": "ceilDiv",
            "outputs": [
                {
                    "internalType": "uint256",
                    "name": "",
                    "type": "uint256"
                }
            ],
            "stateMutability": "pure",
            "type": "function"
        },
        {
            "inputs": [
                {
                    "internalType": "uint256",
                    "name": "a",
                    "type": "uint256"
                },
                {
                    "internalType": "uint256",
                    "name": "b",
                    "type": "uint256"
                }
            ],
            "name": "max",
            "outputs": [
                {
                    "internalType": "uint256",
                    "name": "",
                    "type": "uint256"
                }
            ],
            "stateMutability": "pure",
            "type": "function"
        },
        {
            "inputs": [
                {
                    "internalType": "uint256",
                    "name": "a",
                    "type": "uint256"
                },
                {
                    "internalType": "uint256",
                    "name": "b",
                    "type": "uint256"
                }
            ],
            "name": "min",
            "outputs": [
                {
                    "internalType": "uint256",
                    "name": "",
                    "type": "uint256"
                }
            ],
            "stateMutability": "pure",
            "type": "function"
        }
    ],
    "bytecode": "608060405234801561001057600080fd5b50610274806100206000396000f3fe608060405234801561001057600080fd5b50600436106100575760003560e01c80631b5ac4b51461005c5780632b7423ab146100815780636d5433e6146100945780637ae2b5c7146100a75780639cb35327146100ba575b600080fd5b61006f61006a36600461019f565b6100cd565b60405190815260200160405180910390f35b61006f61008f3660046101b8565b6100de565b61006f6100a23660046101b8565b6100f1565b61006f6100b53660046101b8565b6100fd565b61006f6100c83660046101b8565b610109565b60006100d882610115565b92915050565b60006100ea838361012c565b9392505050565b60006100ea8383610147565b60006100ea838361015e565b60006100ea838361016d565b60008082121561012857816000036100d8565b5090565b600061013b60028484186101f0565b6100ea90848416610204565b60008183101561015757816100ea565b5090919050565b600081831061015757816100ea565b6000610179828461022a565b15610185576001610188565b60005b60ff1661019583856101f0565b6100ea9190610204565b6000602082840312156101b157600080fd5b5035919050565b600080604083850312156101cb57600080fd5b50508035926020909101359150565b634e487b7160e01b600052601260045260246000fd5b6000826101ff576101ff6101da565b500490565b6000821982111561022557634e487b7160e01b600052601160045260246000fd5b500190565b600082610239576102396101da565b50069056fea2646970667358221220fb8f5c1356337915bd857260f9d256688bc95607f6652f87178efe4a0c76d4a064736f6c634300080a0033",
    "sourcePath": "d:/Github/new_token/contracts/contracts/mocks/MathMock.sol",
    "compiler": {
        "name": "solc",
        "version": "0.8.10+commit.fc410830"
    },
    "functionHashes": {
        "abs(int256)": "1b5ac4b5",
        "average(uint256,uint256)": "2b7423ab",
        "ceilDiv(uint256,uint256)": "9cb35327",
        "max(uint256,uint256)": "6d5433e6",
        "min(uint256,uint256)": "7ae2b5c7"
    },
    "gasEstimates": {
        "creation": {
            "codeDepositCost": "125600",
            "executionCost": "171",
            "totalCost": "125771"
        },
        "external": {
            "abs(int256)": "infinite",
            "average(uint256,uint256)": "infinite",
            "ceilDiv(uint256,uint256)": "infinite",
            "max(uint256,uint256)": "398",
            "min(uint256,uint256)": "417"
        }
    }
}