{
    "contractName": "MerkleProofWrapper",
    "abi": [
        {
            "inputs": [
                {
                    "internalType": "bytes32[]",
                    "name": "proof",
                    "type": "bytes32[]"
                },
                {
                    "internalType": "bytes32",
                    "name": "leaf",
                    "type": "bytes32"
                }
            ],
            "name": "processProof",
            "outputs": [
                {
                    "internalType": "bytes32",
                    "name": "",
                    "type": "bytes32"
                }
            ],
            "stateMutability": "pure",
            "type": "function"
        },
        {
            "inputs": [
                {
                    "internalType": "bytes32[]",
                    "name": "proof",
                    "type": "bytes32[]"
                },
                {
                    "internalType": "bytes32",
                    "name": "root",
                    "type": "bytes32"
                },
                {
                    "internalType": "bytes32",
                    "name": "leaf",
                    "type": "bytes32"
                }
            ],
            "name": "verify",
            "outputs": [
                {
                    "internalType": "bool",
                    "name": "",
                    "type": "bool"
                }
            ],
            "stateMutability": "pure",
            "type": "function"
        }
    ],
    "bytecode": "608060405234801561001057600080fd5b50610327806100206000396000f3fe608060405234801561001057600080fd5b50600436106100365760003560e01c80635a9a49c71461003b57806362702a6b14610063575b600080fd5b61004e61004936600461021f565b610084565b60405190151581526020015b60405180910390f35b61007661007136600461026d565b610099565b60405190815260200161005a565b60006100918484846100ac565b949350505050565b60006100a583836100c2565b9392505050565b6000826100b985846100c2565b14949350505050565b600081815b84518110156101665760008582815181106100e4576100e46102b2565b60200260200101519050808311610126576040805160208101859052908101829052606001604051602081830303815290604052805190602001209250610153565b60408051602081018390529081018490526060016040516020818303038152906040528051906020012092505b508061015e816102c8565b9150506100c7565b509392505050565b634e487b7160e01b600052604160045260246000fd5b600082601f83011261019557600080fd5b8135602067ffffffffffffffff808311156101b2576101b261016e565b8260051b604051601f19603f830116810181811084821117156101d7576101d761016e565b6040529384528581018301938381019250878511156101f557600080fd5b83870191505b84821015610214578135835291830191908301906101fb565b979650505050505050565b60008060006060848603121561023457600080fd5b833567ffffffffffffffff81111561024b57600080fd5b61025786828701610184565b9660208601359650604090950135949350505050565b6000806040838503121561028057600080fd5b823567ffffffffffffffff81111561029757600080fd5b6102a385828601610184565b95602094909401359450505050565b634e487b7160e01b600052603260045260246000fd5b60006000198214156102ea57634e487b7160e01b600052601160045260246000fd5b506001019056fea264697066735822122070d5ea1ca4b444f730d0d80899440b1819fa1712826ae9b1c0345a534e96b15064736f6c634300080a0033",
    "sourcePath": "d:/Github/new_token/contracts/contracts/mocks/MerkleProofWrapper.sol",
    "compiler": {
        "name": "solc",
        "version": "0.8.10+commit.fc410830"
    },
    "functionHashes": {
        "processProof(bytes32[],bytes32)": "62702a6b",
        "verify(bytes32[],bytes32,bytes32)": "5a9a49c7"
    },
    "gasEstimates": {
        "creation": {
            "codeDepositCost": "161400",
            "executionCost": "208",
            "totalCost": "161608"
        },
        "external": {
            "processProof(bytes32[],bytes32)": "infinite",
            "verify(bytes32[],bytes32,bytes32)": "infinite"
        }
    }
}