{
    "contractName": "MulticallTest",
    "abi": [
        {
            "inputs": [
                {
                    "internalType": "contract MulticallTokenMock",
                    "name": "multicallToken",
                    "type": "address"
                },
                {
                    "internalType": "address[]",
                    "name": "recipients",
                    "type": "address[]"
                },
                {
                    "internalType": "uint256[]",
                    "name": "amounts",
                    "type": "uint256[]"
                }
            ],
            "name": "testReturnValues",
            "outputs": [],
            "stateMutability": "nonpayable",
            "type": "function"
        }
    ],
    "bytecode": "608060405234801561001057600080fd5b506105da806100206000396000f3fe608060405234801561001057600080fd5b506004361061002b5760003560e01c8063bc548f7614610030575b600080fd5b61004361003e366004610295565b610045565b005b60008367ffffffffffffffff81111561006057610060610318565b60405190808252806020026020018201604052801561009357816020015b606081526020019060019003908161007e5790505b50905060005b8481101561015a578585828181106100b3576100b361032e565b90506020020160208101906100c89190610344565b8484838181106100da576100da61032e565b6040516001600160a01b039094166024850152602002919091013560448301525060640160408051601f198184030181529190526020810180516001600160e01b031663a9059cbb60e01b179052825183908390811061013c5761013c61032e565b6020026020010181905250808061015290610368565b915050610099565b50604051631592ca1b60e31b81526000906001600160a01b0388169063ac9650d89061018a9085906004016103c1565b6000604051808303816000875af11580156101a9573d6000803e3d6000fd5b505050506040513d6000823e601f3d908101601f191682016040526101d1919081019061046c565b905060005b8151811015610227578181815181106101f1576101f161032e565b602002602001015180602001905181019061020c9190610582565b61021557600080fd5b8061021f81610368565b9150506101d6565b5050505050505050565b6001600160a01b038116811461024657600080fd5b50565b60008083601f84011261025b57600080fd5b50813567ffffffffffffffff81111561027357600080fd5b6020830191508360208260051b850101111561028e57600080fd5b9250929050565b6000806000806000606086880312156102ad57600080fd5b85356102b881610231565b9450602086013567ffffffffffffffff808211156102d557600080fd5b6102e189838a01610249565b909650945060408801359150808211156102fa57600080fd5b5061030788828901610249565b969995985093965092949392505050565b634e487b7160e01b600052604160045260246000fd5b634e487b7160e01b600052603260045260246000fd5b60006020828403121561035657600080fd5b813561036181610231565b9392505050565b600060001982141561038a57634e487b7160e01b600052601160045260246000fd5b5060010190565b60005b838110156103ac578181015183820152602001610394565b838111156103bb576000848401525b50505050565b6000602080830181845280855180835260408601915060408160051b870101925083870160005b8281101561042e57878503603f190184528151805180875261040f818989018a8501610391565b601f01601f1916959095018601945092850192908501906001016103e8565b5092979650505050505050565b604051601f8201601f1916810167ffffffffffffffff8111828210171561046457610464610318565b604052919050565b6000602080838503121561047f57600080fd5b825167ffffffffffffffff8082111561049757600080fd5b8185019150601f86818401126104ac57600080fd5b8251828111156104be576104be610318565b8060051b6104cd86820161043b565b918252848101860191868101908a8411156104e757600080fd5b87870192505b83831015610574578251868111156105055760008081fd5b8701603f81018c136105175760008081fd5b8881015160408882111561052d5761052d610318565b61053e828901601f19168c0161043b565b8281528e828486010111156105535760008081fd5b610562838d8301848701610391565b855250505091870191908701906104ed565b9a9950505050505050505050565b60006020828403121561059457600080fd5b8151801515811461036157600080fdfea2646970667358221220f909b8768a538801bb2930a3e946750faa71e332c14eac54c2794f94d207b0f764736f6c634300080a0033",
    "sourcePath": "d:/Github/new_token/contracts/contracts/mocks/MulticallTest.sol",
    "compiler": {
        "name": "solc",
        "version": "0.8.10+commit.fc410830"
    },
    "functionHashes": {
        "testReturnValues(address,address[],uint256[])": "bc548f76"
    },
    "gasEstimates": {
        "creation": {
            "codeDepositCost": "299600",
            "executionCost": "337",
            "totalCost": "299937"
        },
        "external": {
            "testReturnValues(address,address[],uint256[])": "infinite"
        }
    }
}