{
    "contractName": "PausableMock",
    "abi": [
        {
            "inputs": [],
            "stateMutability": "nonpayable",
            "type": "constructor"
        },
        {
            "anonymous": false,
            "inputs": [
                {
                    "indexed": false,
                    "internalType": "address",
                    "name": "account",
                    "type": "address"
                }
            ],
            "name": "Paused",
            "type": "event"
        },
        {
            "anonymous": false,
            "inputs": [
                {
                    "indexed": false,
                    "internalType": "address",
                    "name": "account",
                    "type": "address"
                }
            ],
            "name": "Unpaused",
            "type": "event"
        },
        {
            "inputs": [],
            "name": "count",
            "outputs": [
                {
                    "internalType": "uint256",
                    "name": "",
                    "type": "uint256"
                }
            ],
            "stateMutability": "view",
            "type": "function"
        },
        {
            "inputs": [],
            "name": "drasticMeasure",
            "outputs": [],
            "stateMutability": "nonpayable",
            "type": "function"
        },
        {
            "inputs": [],
            "name": "drasticMeasureTaken",
            "outputs": [
                {
                    "internalType": "bool",
                    "name": "",
                    "type": "bool"
                }
            ],
            "stateMutability": "view",
            "type": "function"
        },
        {
            "inputs": [],
            "name": "normalProcess",
            "outputs": [],
            "stateMutability": "nonpayable",
            "type": "function"
        },
        {
            "inputs": [],
            "name": "pause",
            "outputs": [],
            "stateMutability": "nonpayable",
            "type": "function"
        },
        {
            "inputs": [],
            "name": "paused",
            "outputs": [
                {
                    "internalType": "bool",
                    "name": "",
                    "type": "bool"
                }
            ],
            "stateMutability": "view",
            "type": "function"
        },
        {
            "inputs": [],
            "name": "unpause",
            "outputs": [],
            "stateMutability": "nonpayable",
            "type": "function"
        }
    ],
    "bytecode": "608060405234801561001057600080fd5b506000805461ffff191681556001556103248061002e6000396000f3fe608060405234801561001057600080fd5b506004361061007d5760003560e01c806376657b8e1161005b57806376657b8e146100bf5780638456cb59146100d15780639958f045146100d9578063e7651d7a146100e157600080fd5b806306661abd146100825780633f4ba83a1461009e5780635c975abb146100a8575b600080fd5b61008b60015481565b6040519081526020015b60405180910390f35b6100a66100e9565b005b60005460ff165b6040519015158152602001610095565b6000546100af90610100900460ff1681565b6100a66100f3565b6100a66100fb565b6100a661015a565b6100f16101b7565b565b6100f161024a565b60005460ff166101495760405162461bcd60e51b815260206004820152601460248201527314185d5cd8589b194e881b9bdd081c185d5cd95960621b60448201526064015b60405180910390fd5b6000805461ff001916610100179055565b60005460ff16156101a05760405162461bcd60e51b815260206004820152601060248201526f14185d5cd8589b194e881c185d5cd95960821b6044820152606401610140565b600180549060006101b0836102c5565b9190505550565b60005460ff166102005760405162461bcd60e51b815260206004820152601460248201527314185d5cd8589b194e881b9bdd081c185d5cd95960621b6044820152606401610140565b6000805460ff191690557f5db9ee0a495bf2e6ff9c91a7834c1ba4fdd244a5e8aa4e537bd38aeae4b073aa335b6040516001600160a01b03909116815260200160405180910390a1565b60005460ff16156102905760405162461bcd60e51b815260206004820152601060248201526f14185d5cd8589b194e881c185d5cd95960821b6044820152606401610140565b6000805460ff191660011790557f62e78cea01bee320cd4e420270b5ea74000d11b0c9f74754ebdbfc544b05a25861022d3390565b60006000198214156102e757634e487b7160e01b600052601160045260246000fd5b506001019056fea264697066735822122045c821227141e951e04d3b16fc98f26ae26bcc150dddfe144ebcfd1db69bf67564736f6c634300080a0033",
    "sourcePath": "d:/Github/new_token/contracts/contracts/mocks/PausableMock.sol",
    "compiler": {
        "name": "solc",
        "version": "0.8.10+commit.fc410830"
    },
    "functionHashes": {
        "count()": "06661abd",
        "drasticMeasure()": "9958f045",
        "drasticMeasureTaken()": "76657b8e",
        "normalProcess()": "e7651d7a",
        "pause()": "8456cb59",
        "paused()": "5c975abb",
        "unpause()": "3f4ba83a"
    },
    "gasEstimates": {
        "creation": {
            "codeDepositCost": "160800",
            "executionCost": "29429",
            "totalCost": "190229"
        },
        "external": {
            "count()": "2285",
            "drasticMeasure()": "26535",
            "drasticMeasureTaken()": "2321",
            "normalProcess()": "26628",
            "pause()": "27632",
            "paused()": "2338",
            "unpause()": "27610"
        }
    }
}