{
    "contractName": "ReentrancyMock",
    "abi": [
        {
            "inputs": [],
            "stateMutability": "nonpayable",
            "type": "constructor"
        },
        {
            "inputs": [],
            "name": "callback",
            "outputs": [],
            "stateMutability": "nonpayable",
            "type": "function"
        },
        {
            "inputs": [
                {
                    "internalType": "contract ReentrancyAttack",
                    "name": "attacker",
                    "type": "address"
                }
            ],
            "name": "countAndCall",
            "outputs": [],
            "stateMutability": "nonpayable",
            "type": "function"
        },
        {
            "inputs": [
                {
                    "internalType": "uint256",
                    "name": "n",
                    "type": "uint256"
                }
            ],
            "name": "countLocalRecursive",
            "outputs": [],
            "stateMutability": "nonpayable",
            "type": "function"
        },
        {
            "inputs": [
                {
                    "internalType": "uint256",
                    "name": "n",
                    "type": "uint256"
                }
            ],
            "name": "countThisRecursive",
            "outputs": [],
            "stateMutability": "nonpayable",
            "type": "function"
        },
        {
            "inputs": [],
            "name": "counter",
            "outputs": [
                {
                    "internalType": "uint256",
                    "name": "",
                    "type": "uint256"
                }
            ],
            "stateMutability": "view",
            "type": "function"
        }
    ],
    "bytecode": "608060405234801561001057600080fd5b50600160008181559055610470806100296000396000f3fe608060405234801561001057600080fd5b50600436106100575760003560e01c8063083b27321461005c57806361bc221a146100665780638c5344fa1461008157806396ffa69014610094578063b672ad8b146100a7575b600080fd5b6100646100ba565b005b61006f60015481565b60405190815260200160405180910390f35b61006461008f36600461033a565b6100fa565b6100646100a236600461033a565b610222565b6100646100b5366004610353565b610266565b600260005414156100e65760405162461bcd60e51b81526004016100dd90610383565b60405180910390fd5b60026000556100f3610321565b6001600055565b6002600054141561011d5760405162461bcd60e51b81526004016100dd90610383565b6002600055801561021a57610130610321565b60003061013e6001846103d0565b60405160240161015091815260200190565b60408051601f198184030181529181526020820180516001600160e01b0316634629a27d60e11b1790525161018591906103e7565b6000604051808303816000865af19150503d80600081146101c2576040519150601f19603f3d011682016040523d82523d6000602084013e6101c7565b606091505b50509050806102185760405162461bcd60e51b815260206004820152601b60248201527f5265656e7472616e63794d6f636b3a206661696c65642063616c6c000000000060448201526064016100dd565b505b506001600055565b600260005414156102455760405162461bcd60e51b81526004016100dd90610383565b6002600055801561021a57610258610321565b61021a6100a26001836103d0565b600260005414156102895760405162461bcd60e51b81526004016100dd90610383565b6002600055610296610321565b604051630a2df1ed60e01b815263041d939960e11b60048201527f083b2732f78169bfaad6b407fa338cc97d697ed69d3915a18239cc111d51a402906001600160a01b03831690630a2df1ed90602401600060405180830381600087803b15801561030057600080fd5b505af1158015610314573d6000803e3d6000fd5b5050600160005550505050565b60018060008282546103339190610422565b9091555050565b60006020828403121561034c57600080fd5b5035919050565b60006020828403121561036557600080fd5b81356001600160a01b038116811461037c57600080fd5b9392505050565b6020808252601f908201527f5265656e7472616e637947756172643a207265656e7472616e742063616c6c00604082015260600190565b634e487b7160e01b600052601160045260246000fd5b6000828210156103e2576103e26103ba565b500390565b6000825160005b8181101561040857602081860181015185830152016103ee565b81811115610417576000828501525b509190910192915050565b60008219821115610435576104356103ba565b50019056fea2646970667358221220f67196c84c84e231de271ed176b38e60f544ef4c125ce15a8cd3d3ddab462f6764736f6c634300080a0033",
    "sourcePath": "d:/Github/new_token/contracts/contracts/mocks/ReentrancyMock.sol",
    "compiler": {
        "name": "solc",
        "version": "0.8.10+commit.fc410830"
    },
    "functionHashes": {
        "callback()": "083b2732",
        "countAndCall(address)": "b672ad8b",
        "countLocalRecursive(uint256)": "96ffa690",
        "countThisRecursive(uint256)": "8c5344fa",
        "counter()": "61bc221a"
    },
    "gasEstimates": {
        "creation": {
            "codeDepositCost": "227200",
            "executionCost": "27384",
            "totalCost": "254584"
        },
        "external": {
            "callback()": "53679",
            "countAndCall(address)": "infinite",
            "countLocalRecursive(uint256)": "infinite",
            "countThisRecursive(uint256)": "infinite",
            "counter()": "2283"
        },
        "internal": {
            "_count()": "24304"
        }
    }
}