{
    "contractName": "SafeMathMock",
    "abi": [
        {
            "inputs": [],
            "name": "addMemoryCheck",
            "outputs": [
                {
                    "internalType": "uint256",
                    "name": "mem",
                    "type": "uint256"
                }
            ],
            "stateMutability": "pure",
            "type": "function"
        },
        {
            "inputs": [],
            "name": "divMemoryCheck",
            "outputs": [
                {
                    "internalType": "uint256",
                    "name": "mem",
                    "type": "uint256"
                }
            ],
            "stateMutability": "pure",
            "type": "function"
        },
        {
            "inputs": [
                {
                    "internalType": "uint256",
                    "name": "a",
                    "type": "uint256"
                },
                {
                    "internalType": "uint256",
                    "name": "b",
                    "type": "uint256"
                },
                {
                    "internalType": "string",
                    "name": "errorMessage",
                    "type": "string"
                }
            ],
            "name": "divWithMessage",
            "outputs": [
                {
                    "internalType": "uint256",
                    "name": "",
                    "type": "uint256"
                }
            ],
            "stateMutability": "pure",
            "type": "function"
        },
        {
            "inputs": [
                {
                    "internalType": "uint256",
                    "name": "a",
                    "type": "uint256"
                },
                {
                    "internalType": "uint256",
                    "name": "b",
                    "type": "uint256"
                }
            ],
            "name": "doAdd",
            "outputs": [
                {
                    "internalType": "uint256",
                    "name": "",
                    "type": "uint256"
                }
            ],
            "stateMutability": "pure",
            "type": "function"
        },
        {
            "inputs": [
                {
                    "internalType": "uint256",
                    "name": "a",
                    "type": "uint256"
                },
                {
                    "internalType": "uint256",
                    "name": "b",
                    "type": "uint256"
                }
            ],
            "name": "doDiv",
            "outputs": [
                {
                    "internalType": "uint256",
                    "name": "",
                    "type": "uint256"
                }
            ],
            "stateMutability": "pure",
            "type": "function"
        },
        {
            "inputs": [
                {
                    "internalType": "uint256",
                    "name": "a",
                    "type": "uint256"
                },
                {
                    "internalType": "uint256",
                    "name": "b",
                    "type": "uint256"
                }
            ],
            "name": "doMod",
            "outputs": [
                {
                    "internalType": "uint256",
                    "name": "",
                    "type": "uint256"
                }
            ],
            "stateMutability": "pure",
            "type": "function"
        },
        {
            "inputs": [
                {
                    "internalType": "uint256",
                    "name": "a",
                    "type": "uint256"
                },
                {
                    "internalType": "uint256",
                    "name": "b",
                    "type": "uint256"
                }
            ],
            "name": "doMul",
            "outputs": [
                {
                    "internalType": "uint256",
                    "name": "",
                    "type": "uint256"
                }
            ],
            "stateMutability": "pure",
            "type": "function"
        },
        {
            "inputs": [
                {
                    "internalType": "uint256",
                    "name": "a",
                    "type": "uint256"
                },
                {
                    "internalType": "uint256",
                    "name": "b",
                    "type": "uint256"
                }
            ],
            "name": "doSub",
            "outputs": [
                {
                    "internalType": "uint256",
                    "name": "",
                    "type": "uint256"
                }
            ],
            "stateMutability": "pure",
            "type": "function"
        },
        {
            "inputs": [],
            "name": "modMemoryCheck",
            "outputs": [
                {
                    "internalType": "uint256",
                    "name": "mem",
                    "type": "uint256"
                }
            ],
            "stateMutability": "pure",
            "type": "function"
        },
        {
            "inputs": [
                {
                    "internalType": "uint256",
                    "name": "a",
                    "type": "uint256"
                },
                {
                    "internalType": "uint256",
                    "name": "b",
                    "type": "uint256"
                },
                {
                    "internalType": "string",
                    "name": "errorMessage",
                    "type": "string"
                }
            ],
            "name": "modWithMessage",
            "outputs": [
                {
                    "internalType": "uint256",
                    "name": "",
                    "type": "uint256"
                }
            ],
            "stateMutability": "pure",
            "type": "function"
        },
        {
            "inputs": [],
            "name": "mulMemoryCheck",
            "outputs": [
                {
                    "internalType": "uint256",
                    "name": "mem",
                    "type": "uint256"
                }
            ],
            "stateMutability": "pure",
            "type": "function"
        },
        {
            "inputs": [],
            "name": "subMemoryCheck",
            "outputs": [
                {
                    "internalType": "uint256",
                    "name": "mem",
                    "type": "uint256"
                }
            ],
            "stateMutability": "pure",
            "type": "function"
        },
        {
            "inputs": [
                {
                    "internalType": "uint256",
                    "name": "a",
                    "type": "uint256"
                },
                {
                    "internalType": "uint256",
                    "name": "b",
                    "type": "uint256"
                },
                {
                    "internalType": "string",
                    "name": "errorMessage",
                    "type": "string"
                }
            ],
            "name": "subWithMessage",
            "outputs": [
                {
                    "internalType": "uint256",
                    "name": "",
                    "type": "uint256"
                }
            ],
            "stateMutability": "pure",
            "type": "function"
        },
        {
            "inputs": [
                {
                    "internalType": "uint256",
                    "name": "a",
                    "type": "uint256"
                },
                {
                    "internalType": "uint256",
                    "name": "b",
                    "type": "uint256"
                }
            ],
            "name": "tryAdd",
            "outputs": [
                {
                    "internalType": "bool",
                    "name": "flag",
                    "type": "bool"
                },
                {
                    "internalType": "uint256",
                    "name": "value",
                    "type": "uint256"
                }
            ],
            "stateMutability": "pure",
            "type": "function"
        },
        {
            "inputs": [
                {
                    "internalType": "uint256",
                    "name": "a",
                    "type": "uint256"
                },
                {
                    "internalType": "uint256",
                    "name": "b",
                    "type": "uint256"
                }
            ],
            "name": "tryDiv",
            "outputs": [
                {
                    "internalType": "bool",
                    "name": "flag",
                    "type": "bool"
                },
                {
                    "internalType": "uint256",
                    "name": "value",
                    "type": "uint256"
                }
            ],
            "stateMutability": "pure",
            "type": "function"
        },
        {
            "inputs": [
                {
                    "internalType": "uint256",
                    "name": "a",
                    "type": "uint256"
                },
                {
                    "internalType": "uint256",
                    "name": "b",
                    "type": "uint256"
                }
            ],
            "name": "tryMod",
            "outputs": [
                {
                    "internalType": "bool",
                    "name": "flag",
                    "type": "bool"
                },
                {
                    "internalType": "uint256",
                    "name": "value",
                    "type": "uint256"
                }
            ],
            "stateMutability": "pure",
            "type": "function"
        },
        {
            "inputs": [
                {
                    "internalType": "uint256",
                    "name": "a",
                    "type": "uint256"
                },
                {
                    "internalType": "uint256",
                    "name": "b",
                    "type": "uint256"
                }
            ],
            "name": "tryMul",
            "outputs": [
                {
                    "internalType": "bool",
                    "name": "flag",
                    "type": "bool"
                },
                {
                    "internalType": "uint256",
                    "name": "value",
                    "type": "uint256"
                }
            ],
            "stateMutability": "pure",
            "type": "function"
        },
        {
            "inputs": [
                {
                    "internalType": "uint256",
                    "name": "a",
                    "type": "uint256"
                },
                {
                    "internalType": "uint256",
                    "name": "b",
                    "type": "uint256"
                }
            ],
            "name": "trySub",
            "outputs": [
                {
                    "internalType": "bool",
                    "name": "flag",
                    "type": "bool"
                },
                {
                    "internalType": "uint256",
                    "name": "value",
                    "type": "uint256"
                }
            ],
            "stateMutability": "pure",
            "type": "function"
        }
    ],
    "bytecode": "608060405234801561001057600080fd5b50610814806100206000396000f3fe608060405234801561001057600080fd5b50600436106101165760003560e01c80639f5cec89116100a2578063dcc721d211610071578063dcc721d21461021b578063fb1191981461022e578063fb24c86014610241578063fb999ded14610249578063fc0ce5031461025157600080fd5b80639f5cec89146101da578063a155bd62146101ed578063a29962b114610200578063c460ae041461021357600080fd5b80636f91e802116100e95780636f91e80214610191578063736ecb18146101995780637e86d25c146101ac578063869f602f146101b4578063884557bf146101c757600080fd5b80633449b5fb1461011b57806338dc0867146101415780636281efa41461016b5780636c7ac6371461017e575b600080fd5b61012e6101293660046105e6565b610264565b6040519081526020015b60405180910390f35b61015461014f3660046106aa565b610279565b604080519215158352602083019190915201610138565b6101546101793660046106aa565b610292565b61012e61018c3660046106aa565b61029f565b61012e6102b2565b6101546101a73660046106aa565b6102e7565b61012e6102f4565b61012e6101c23660046106aa565b610320565b6101546101d53660046106aa565b61032c565b61012e6101e83660046105e6565b610339565b61012e6101fb3660046105e6565b610346565b61015461020e3660046106aa565b610353565b61012e610360565b61012e6102293660046106aa565b61038c565b61012e61023c3660046106aa565b610398565b61012e6103a4565b61012e6103d0565b61012e61025f3660046106aa565b6103fc565b6000610271848484610408565b949350505050565b600080610286848461044b565b915091505b9250929050565b600080610286848461047b565b60006102ab83836104c1565b9392505050565b604051602060005b818110156102de576102cd6001806104cd565b506102d7816106e2565b90506102ba565b50506040510390565b60008061028684846104d9565b604051602060005b818110156102de5761030f600180610509565b50610319816106e2565b90506102fc565b60006102ab83836104cd565b6000806102868484610515565b6000610271848484610530565b600061027184848461055c565b6000806102868484610596565b604051602060005b818110156102de5761037b6001806105b8565b50610385816106e2565b9050610368565b60006102ab83836105c4565b60006102ab8383610509565b604051602060005b818110156102de576103bf6001806105c4565b506103c9816106e2565b90506103ac565b604051602060005b818110156102de576103eb6001806104c1565b506103f5816106e2565b90506103d8565b60006102ab83836105b8565b600081836104325760405162461bcd60e51b815260040161042991906106fd565b60405180910390fd5b5082848161044257610442610752565b04949350505050565b6000808261045e5750600090508061028b565b600183858161046f5761046f610752565b06915091509250929050565b6000808361048f575060019050600061028b565b838302838582816104a2576104a2610752565b04146104b557600080925092505061028b565b60019590945092505050565b60006102ab8284610768565b60006102ab828461077f565b600080826104ec5750600090508061028b565b60018385816104fd576104fd610752565b04915091509250929050565b60006102ab8284610793565b600080838301848110156104b557600080925092505061028b565b600081848411156105545760405162461bcd60e51b815260040161042991906106fd565b505050900390565b6000818361057d5760405162461bcd60e51b815260040161042991906106fd565b5082848161058d5761058d610752565b06949350505050565b600080838311156105ac5750600090508061028b565b50600193919092039150565b60006102ab82846107b2565b60006102ab82846107c6565b634e487b7160e01b600052604160045260246000fd5b6000806000606084860312156105fb57600080fd5b8335925060208401359150604084013567ffffffffffffffff8082111561062157600080fd5b818601915086601f83011261063557600080fd5b813581811115610647576106476105d0565b604051601f8201601f19908116603f0116810190838211818310171561066f5761066f6105d0565b8160405282815289602084870101111561068857600080fd5b8260208601602083013760006020848301015280955050505050509250925092565b600080604083850312156106bd57600080fd5b50508035926020909101359150565b634e487b7160e01b600052601160045260246000fd5b60006000198214156106f6576106f66106cc565b5060010190565b600060208083528351808285015260005b8181101561072a5785810183015185820160400152820161070e565b8181111561073c576000604083870101525b50601f01601f1916929092016040019392505050565b634e487b7160e01b600052601260045260246000fd5b60008282101561077a5761077a6106cc565b500390565b60008261078e5761078e610752565b500690565b60008160001904831182151516156107ad576107ad6106cc565b500290565b6000826107c1576107c1610752565b500490565b600082198211156107d9576107d96106cc565b50019056fea2646970667358221220db080da8cd8ee970cecfdeb3790f5641b805cd65a1527577b74d2868a58b970c64736f6c634300080a0033",
    "sourcePath": "d:/Github/new_token/contracts/contracts/mocks/SafeMathMock.sol",
    "compiler": {
        "name": "solc",
        "version": "0.8.10+commit.fc410830"
    },
    "functionHashes": {
        "addMemoryCheck()": "fb24c860",
        "divMemoryCheck()": "c460ae04",
        "divWithMessage(uint256,uint256,string)": "3449b5fb",
        "doAdd(uint256,uint256)": "dcc721d2",
        "doDiv(uint256,uint256)": "fc0ce503",
        "doMod(uint256,uint256)": "869f602f",
        "doMul(uint256,uint256)": "fb119198",
        "doSub(uint256,uint256)": "6c7ac637",
        "modMemoryCheck()": "6f91e802",
        "modWithMessage(uint256,uint256,string)": "a155bd62",
        "mulMemoryCheck()": "7e86d25c",
        "subMemoryCheck()": "fb999ded",
        "subWithMessage(uint256,uint256,string)": "9f5cec89",
        "tryAdd(uint256,uint256)": "884557bf",
        "tryDiv(uint256,uint256)": "736ecb18",
        "tryMod(uint256,uint256)": "38dc0867",
        "tryMul(uint256,uint256)": "6281efa4",
        "trySub(uint256,uint256)": "a29962b1"
    },
    "gasEstimates": {
        "creation": {
            "codeDepositCost": "413600",
            "executionCost": "449",
            "totalCost": "414049"
        },
        "external": {
            "addMemoryCheck()": "infinite",
            "divMemoryCheck()": "infinite",
            "divWithMessage(uint256,uint256,string)": "infinite",
            "doAdd(uint256,uint256)": "infinite",
            "doDiv(uint256,uint256)": "infinite",
            "doMod(uint256,uint256)": "infinite",
            "doMul(uint256,uint256)": "infinite",
            "doSub(uint256,uint256)": "infinite",
            "modMemoryCheck()": "infinite",
            "modWithMessage(uint256,uint256,string)": "infinite",
            "mulMemoryCheck()": "infinite",
            "subMemoryCheck()": "infinite",
            "subWithMessage(uint256,uint256,string)": "infinite",
            "tryAdd(uint256,uint256)": "infinite",
            "tryDiv(uint256,uint256)": "513",
            "tryMod(uint256,uint256)": "514",
            "tryMul(uint256,uint256)": "infinite",
            "trySub(uint256,uint256)": "infinite"
        }
    }
}