{
    "contractName": "SafeERC20Wrapper",
    "abi": [
        {
            "inputs": [
                {
                    "internalType": "contract IERC20",
                    "name": "token",
                    "type": "address"
                }
            ],
            "stateMutability": "nonpayable",
            "type": "constructor"
        },
        {
            "inputs": [],
            "name": "allowance",
            "outputs": [
                {
                    "internalType": "uint256",
                    "name": "",
                    "type": "uint256"
                }
            ],
            "stateMutability": "view",
            "type": "function"
        },
        {
            "inputs": [
                {
                    "internalType": "uint256",
                    "name": "amount",
                    "type": "uint256"
                }
            ],
            "name": "approve",
            "outputs": [],
            "stateMutability": "nonpayable",
            "type": "function"
        },
        {
            "inputs": [
                {
                    "internalType": "uint256",
                    "name": "amount",
                    "type": "uint256"
                }
            ],
            "name": "decreaseAllowance",
            "outputs": [],
            "stateMutability": "nonpayable",
            "type": "function"
        },
        {
            "inputs": [
                {
                    "internalType": "uint256",
                    "name": "amount",
                    "type": "uint256"
                }
            ],
            "name": "increaseAllowance",
            "outputs": [],
            "stateMutability": "nonpayable",
            "type": "function"
        },
        {
            "inputs": [
                {
                    "internalType": "uint256",
                    "name": "allowance_",
                    "type": "uint256"
                }
            ],
            "name": "setAllowance",
            "outputs": [],
            "stateMutability": "nonpayable",
            "type": "function"
        },
        {
            "inputs": [],
            "name": "transfer",
            "outputs": [],
            "stateMutability": "nonpayable",
            "type": "function"
        },
        {
            "inputs": [],
            "name": "transferFrom",
            "outputs": [],
            "stateMutability": "nonpayable",
            "type": "function"
        }
    ],
    "bytecode": "608060405234801561001057600080fd5b506040516109e53803806109e583398101604081905261002f91610054565b600080546001600160a01b0319166001600160a01b0392909216919091179055610084565b60006020828403121561006657600080fd5b81516001600160a01b038116811461007d57600080fd5b9392505050565b610952806100936000396000f3fe608060405234801561001057600080fd5b506004361061007d5760003560e01c8063811c34d31161005b578063811c34d3146100bd5780638a4068dd146100c5578063b759f954146100cd578063de242ff4146100e057600080fd5b806310bad4cf1461008257806311e330b2146100975780633ba93f26146100aa575b600080fd5b610095610090366004610827565b6100fa565b005b6100956100a5366004610827565b610117565b6100956100b8366004610827565b610131565b610095610192565b6100956101af565b6100956100db366004610827565b6101c9565b6100e86101e3565b60405190815260200160405180910390f35b60008054610114916001600160a01b03909116908361025d565b50565b60008054610114916001600160a01b0390911690836103a1565b600054604051631dd49f9360e11b8152600481018390526001600160a01b0390911690633ba93f2690602401600060405180830381600087803b15801561017757600080fd5b505af115801561018b573d6000803e3d6000fd5b5050505050565b600080546101ad916001600160a01b03909116908080610459565b565b600080546101ad916001600160a01b039091169080610491565b60008054610114916001600160a01b0390911690836104c6565b60008054604051636eb1769f60e11b815260048101839052602481018390526001600160a01b039091169063dd62ed3e90604401602060405180830381865afa158015610234573d6000803e3d6000fd5b505050506040513d601f19601f820116820180604052508101906102589190610840565b905090565b604051636eb1769f60e11b81523060048201526001600160a01b0383811660248301526000919085169063dd62ed3e90604401602060405180830381865afa1580156102ad573d6000803e3d6000fd5b505050506040513d601f19601f820116820180604052508101906102d19190610840565b90508181101561033a5760405162461bcd60e51b815260206004820152602960248201527f5361666545524332303a2064656372656173656420616c6c6f77616e63652062604482015268656c6f77207a65726f60b81b60648201526084015b60405180910390fd5b6040516001600160a01b0384166024820152828203604482018190529061018b90869063095ea7b360e01b906064015b60408051601f198184030181529190526020810180516001600160e01b03166001600160e01b0319909316929092179091526105db565b604051636eb1769f60e11b81523060048201526001600160a01b038381166024830152600091839186169063dd62ed3e90604401602060405180830381865afa1580156103f2573d6000803e3d6000fd5b505050506040513d601f19601f820116820180604052508101906104169190610840565b6104209190610859565b6040516001600160a01b03851660248201526044810182905290915061045390859063095ea7b360e01b9060640161036a565b50505050565b6040516001600160a01b03808516602483015283166044820152606481018290526104539085906323b872dd60e01b9060840161036a565b6040516001600160a01b0383166024820152604481018290526104c190849063a9059cbb60e01b9060640161036a565b505050565b8015806105405750604051636eb1769f60e11b81523060048201526001600160a01b03838116602483015284169063dd62ed3e90604401602060405180830381865afa15801561051a573d6000803e3d6000fd5b505050506040513d601f19601f8201168201806040525081019061053e9190610840565b155b6105ab5760405162461bcd60e51b815260206004820152603660248201527f5361666545524332303a20617070726f76652066726f6d206e6f6e2d7a65726f60448201527520746f206e6f6e2d7a65726f20616c6c6f77616e636560501b6064820152608401610331565b6040516001600160a01b0383166024820152604481018290526104c190849063095ea7b360e01b9060640161036a565b6000610630826040518060400160405280602081526020017f5361666545524332303a206c6f772d6c6576656c2063616c6c206661696c6564815250856001600160a01b03166106ad9092919063ffffffff16565b8051909150156104c1578080602001905181019061064e919061087f565b6104c15760405162461bcd60e51b815260206004820152602a60248201527f5361666545524332303a204552433230206f7065726174696f6e20646964206e6044820152691bdd081cdd58d8d9595960b21b6064820152608401610331565b60606106bc84846000856106c6565b90505b9392505050565b6060824710156107275760405162461bcd60e51b815260206004820152602660248201527f416464726573733a20696e73756666696369656e742062616c616e636520666f6044820152651c8818d85b1b60d21b6064820152608401610331565b843b6107755760405162461bcd60e51b815260206004820152601d60248201527f416464726573733a2063616c6c20746f206e6f6e2d636f6e74726163740000006044820152606401610331565b600080866001600160a01b0316858760405161079191906108cd565b60006040518083038185875af1925050503d80600081146107ce576040519150601f19603f3d011682016040523d82523d6000602084013e6107d3565b606091505b50915091506107e38282866107ee565b979650505050505050565b606083156107fd5750816106bf565b82511561080d5782518084602001fd5b8160405162461bcd60e51b815260040161033191906108e9565b60006020828403121561083957600080fd5b5035919050565b60006020828403121561085257600080fd5b5051919050565b6000821982111561087a57634e487b7160e01b600052601160045260246000fd5b500190565b60006020828403121561089157600080fd5b815180151581146106bf57600080fd5b60005b838110156108bc5781810151838201526020016108a4565b838111156104535750506000910152565b600082516108df8184602087016108a1565b9190910192915050565b60208152600082518060208401526109088160408501602087016108a1565b601f01601f1916919091016040019291505056fea264697066735822122059bcc515d6e95d9a98eaaeebb27b6baa66870eac82350cdb00fd2ecae7811ff064736f6c634300080a0033",
    "sourcePath": "d:/Github/new_token/contracts/contracts/mocks/SafeERC20Helper.sol",
    "compiler": {
        "name": "solc",
        "version": "0.8.10+commit.fc410830"
    },
    "functionHashes": {
        "allowance()": "de242ff4",
        "approve(uint256)": "b759f954",
        "decreaseAllowance(uint256)": "10bad4cf",
        "increaseAllowance(uint256)": "11e330b2",
        "setAllowance(uint256)": "3ba93f26",
        "transfer()": "8a4068dd",
        "transferFrom()": "811c34d3"
    },
    "gasEstimates": {
        "creation": {
            "codeDepositCost": "477200",
            "executionCost": "infinite",
            "totalCost": "infinite"
        },
        "external": {
            "allowance()": "infinite",
            "approve(uint256)": "infinite",
            "decreaseAllowance(uint256)": "infinite",
            "increaseAllowance(uint256)": "infinite",
            "setAllowance(uint256)": "infinite",
            "transfer()": "infinite",
            "transferFrom()": "infinite"
        }
    }
}