{
    "contractName": "SignatureCheckerMock",
    "abi": [
        {
            "inputs": [
                {
                    "internalType": "address",
                    "name": "signer",
                    "type": "address"
                },
                {
                    "internalType": "bytes32",
                    "name": "hash",
                    "type": "bytes32"
                },
                {
                    "internalType": "bytes",
                    "name": "signature",
                    "type": "bytes"
                }
            ],
            "name": "isValidSignatureNow",
            "outputs": [
                {
                    "internalType": "bool",
                    "name": "",
                    "type": "bool"
                }
            ],
            "stateMutability": "view",
            "type": "function"
        }
    ],
    "bytecode": "608060405234801561001057600080fd5b5061053a806100206000396000f3fe608060405234801561001057600080fd5b506004361061002b5760003560e01c80636ccea65214610030575b600080fd5b61004361003e366004610365565b610057565b604051901515815260200160405180910390f35b600061006d6001600160a01b0385168484610077565b90505b9392505050565b600080600061008685856101c3565b9092509050600081600481111561009f5761009f61043e565b1480156100bd5750856001600160a01b0316826001600160a01b0316145b156100cd57600192505050610070565b600080876001600160a01b0316631626ba7e60e01b88886040516024016100f5929190610484565b60408051601f198184030181529181526020820180516001600160e01b03166001600160e01b031990941693909317909252905161013391906104be565b600060405180830381855afa9150503d806000811461016e576040519150601f19603f3d011682016040523d82523d6000602084013e610173565b606091505b5091509150818015610186575080516020145b80156101b757508051630b135d3f60e11b906101ab90830160209081019084016104da565b6001600160e01b031916145b98975050505050505050565b6000808251604114156101fa5760208301516040840151606085015160001a6101ee87828585610233565b9450945050505061022c565b8251604014156102245760208301516040840151610219868383610320565b93509350505061022c565b506000905060025b9250929050565b6000807f7fffffffffffffffffffffffffffffff5d576e7357a4501ddfe92f46681b20a083111561026a5750600090506003610317565b8460ff16601b1415801561028257508460ff16601c14155b156102935750600090506004610317565b6040805160008082526020820180845289905260ff881692820192909252606081018690526080810185905260019060a0016020604051602081039080840390855afa1580156102e7573d6000803e3d6000fd5b5050604051601f1901519150506001600160a01b03811661031057600060019250925050610317565b9150600090505b94509492505050565b6000806001600160ff1b03831660ff84901c601b0161034187828885610233565b935093505050935093915050565b634e487b7160e01b600052604160045260246000fd5b60008060006060848603121561037a57600080fd5b83356001600160a01b038116811461039157600080fd5b925060208401359150604084013567ffffffffffffffff808211156103b557600080fd5b818601915086601f8301126103c957600080fd5b8135818111156103db576103db61034f565b604051601f8201601f19908116603f011681019083821181831017156104035761040361034f565b8160405282815289602084870101111561041c57600080fd5b8260208601602083013760006020848301015280955050505050509250925092565b634e487b7160e01b600052602160045260246000fd5b60005b8381101561046f578181015183820152602001610457565b8381111561047e576000848401525b50505050565b82815260406020820152600082518060408401526104a9816060850160208701610454565b601f01601f1916919091016060019392505050565b600082516104d0818460208701610454565b9190910192915050565b6000602082840312156104ec57600080fd5b81516001600160e01b03198116811461007057600080fdfea264697066735822122039aec6d8de6cd4474fada33acbd7cf0fccfc85eb317db14b3ed9f1796fa2dc6964736f6c634300080a0033",
    "sourcePath": "d:/Github/new_token/contracts/contracts/mocks/SignatureCheckerMock.sol",
    "compiler": {
        "name": "solc",
        "version": "0.8.10+commit.fc410830"
    },
    "functionHashes": {
        "isValidSignatureNow(address,bytes32,bytes)": "6ccea652"
    },
    "gasEstimates": {
        "creation": {
            "codeDepositCost": "267600",
            "executionCost": "306",
            "totalCost": "267906"
        },
        "external": {
            "isValidSignatureNow(address,bytes32,bytes)": "infinite"
        }
    }
}