{
    "contractName": "StorageSlotMock",
    "abi": [
        {
            "inputs": [
                {
                    "internalType": "bytes32",
                    "name": "slot",
                    "type": "bytes32"
                }
            ],
            "name": "getAddress",
            "outputs": [
                {
                    "internalType": "address",
                    "name": "",
                    "type": "address"
                }
            ],
            "stateMutability": "view",
            "type": "function"
        },
        {
            "inputs": [
                {
                    "internalType": "bytes32",
                    "name": "slot",
                    "type": "bytes32"
                }
            ],
            "name": "getBoolean",
            "outputs": [
                {
                    "internalType": "bool",
                    "name": "",
                    "type": "bool"
                }
            ],
            "stateMutability": "view",
            "type": "function"
        },
        {
            "inputs": [
                {
                    "internalType": "bytes32",
                    "name": "slot",
                    "type": "bytes32"
                }
            ],
            "name": "getBytes32",
            "outputs": [
                {
                    "internalType": "bytes32",
                    "name": "",
                    "type": "bytes32"
                }
            ],
            "stateMutability": "view",
            "type": "function"
        },
        {
            "inputs": [
                {
                    "internalType": "bytes32",
                    "name": "slot",
                    "type": "bytes32"
                }
            ],
            "name": "getUint256",
            "outputs": [
                {
                    "internalType": "uint256",
                    "name": "",
                    "type": "uint256"
                }
            ],
            "stateMutability": "view",
            "type": "function"
        },
        {
            "inputs": [
                {
                    "internalType": "bytes32",
                    "name": "slot",
                    "type": "bytes32"
                },
                {
                    "internalType": "address",
                    "name": "value",
                    "type": "address"
                }
            ],
            "name": "setAddress",
            "outputs": [],
            "stateMutability": "nonpayable",
            "type": "function"
        },
        {
            "inputs": [
                {
                    "internalType": "bytes32",
                    "name": "slot",
                    "type": "bytes32"
                },
                {
                    "internalType": "bool",
                    "name": "value",
                    "type": "bool"
                }
            ],
            "name": "setBoolean",
            "outputs": [],
            "stateMutability": "nonpayable",
            "type": "function"
        },
        {
            "inputs": [
                {
                    "internalType": "bytes32",
                    "name": "slot",
                    "type": "bytes32"
                },
                {
                    "internalType": "bytes32",
                    "name": "value",
                    "type": "bytes32"
                }
            ],
            "name": "setBytes32",
            "outputs": [],
            "stateMutability": "nonpayable",
            "type": "function"
        },
        {
            "inputs": [
                {
                    "internalType": "bytes32",
                    "name": "slot",
                    "type": "bytes32"
                },
                {
                    "internalType": "uint256",
                    "name": "value",
                    "type": "uint256"
                }
            ],
            "name": "setUint256",
            "outputs": [],
            "stateMutability": "nonpayable",
            "type": "function"
        }
    ],
    "bytecode": "608060405234801561001057600080fd5b5061023c806100206000396000f3fe608060405234801561001057600080fd5b50600436106100885760003560e01c80634f3029c21161005b5780634f3029c21461010a578063a6ed563e146100c5578063ca446dd91461011e578063f8715b3e1461014957600080fd5b806321f8a7211461008d57806333598b00146100c55780633848207a146100e55780634e91db081461010a575b600080fd5b6100a861009b366004610165565b546001600160a01b031690565b6040516001600160a01b0390911681526020015b60405180910390f35b6100d76100d3366004610165565b5490565b6040519081526020016100bc565b6100fa6100f3366004610165565b5460ff1690565b60405190151581526020016100bc565b61011c61011836600461017e565b9055565b005b61011c61012c3660046101a0565b81546001600160a01b0319166001600160a01b0391909116179055565b61011c6101573660046101dc565b815460ff1916901515179055565b60006020828403121561017757600080fd5b5035919050565b6000806040838503121561019157600080fd5b50508035926020909101359150565b600080604083850312156101b357600080fd5b8235915060208301356001600160a01b03811681146101d157600080fd5b809150509250929050565b600080604083850312156101ef57600080fd5b82359150602083013580151581146101d157600080fdfea26469706673582212205d1df02520c73a06fadc22c53fbc866676ec7985d51b786673dea255398e238664736f6c634300080a0033",
    "sourcePath": "d:/Github/new_token/contracts/contracts/mocks/StorageSlotMock.sol",
    "compiler": {
        "name": "solc",
        "version": "0.8.10+commit.fc410830"
    },
    "functionHashes": {
        "getAddress(bytes32)": "21f8a721",
        "getBoolean(bytes32)": "3848207a",
        "getBytes32(bytes32)": "a6ed563e",
        "getUint256(bytes32)": "33598b00",
        "setAddress(bytes32,address)": "ca446dd9",
        "setBoolean(bytes32,bool)": "f8715b3e",
        "setBytes32(bytes32,bytes32)": "4e91db08",
        "setUint256(bytes32,uint256)": "4f3029c2"
    },
    "gasEstimates": {
        "creation": {
            "codeDepositCost": "114400",
            "executionCost": "159",
            "totalCost": "114559"
        },
        "external": {
            "getAddress(bytes32)": "2398",
            "getBoolean(bytes32)": "2426",
            "getBytes32(bytes32)": "2391",
            "getUint256(bytes32)": "2392",
            "setAddress(bytes32,address)": "24587",
            "setBoolean(bytes32,bool)": "24567",
            "setBytes32(bytes32,bytes32)": "22402",
            "setUint256(bytes32,uint256)": "22335"
        }
    }
}