{
    "contractName": "StringsMock",
    "abi": [
        {
            "inputs": [
                {
                    "internalType": "uint256",
                    "name": "value",
                    "type": "uint256"
                }
            ],
            "name": "fromUint256",
            "outputs": [
                {
                    "internalType": "string",
                    "name": "",
                    "type": "string"
                }
            ],
            "stateMutability": "pure",
            "type": "function"
        },
        {
            "inputs": [
                {
                    "internalType": "uint256",
                    "name": "value",
                    "type": "uint256"
                }
            ],
            "name": "fromUint256Hex",
            "outputs": [
                {
                    "internalType": "string",
                    "name": "",
                    "type": "string"
                }
            ],
            "stateMutability": "pure",
            "type": "function"
        },
        {
            "inputs": [
                {
                    "internalType": "uint256",
                    "name": "value",
                    "type": "uint256"
                },
                {
                    "internalType": "uint256",
                    "name": "length",
                    "type": "uint256"
                }
            ],
            "name": "fromUint256HexFixed",
            "outputs": [
                {
                    "internalType": "string",
                    "name": "",
                    "type": "string"
                }
            ],
            "stateMutability": "pure",
            "type": "function"
        }
    ],
    "bytecode": "608060405234801561001057600080fd5b50610584806100206000396000f3fe608060405234801561001057600080fd5b50600436106100415760003560e01c806302c5b75f1461004657806392b0ed1a1461006f578063a2bd364414610082575b600080fd5b6100596100543660046103be565b610095565b60405161006691906103d7565b60405180910390f35b61005961007d36600461042c565b6100a6565b6100596100903660046103be565b6100b9565b60606100a0826100c4565b92915050565b60606100b28383610120565b9392505050565b60606100a0826102c0565b6060816100eb5750506040805180820190915260048152630307830360e41b602082015290565b8160005b811561010e57806100ff81610464565b915050600882901c91506100ef565b6101188482610120565b949350505050565b6060600061012f83600261047f565b61013a90600261049e565b67ffffffffffffffff811115610152576101526104b6565b6040519080825280601f01601f19166020018201604052801561017c576020820181803683370190505b509050600360fc1b81600081518110610197576101976104cc565b60200101906001600160f81b031916908160001a905350600f60fb1b816001815181106101c6576101c66104cc565b60200101906001600160f81b031916908160001a90535060006101ea84600261047f565b6101f590600161049e565b90505b600181111561026d576f181899199a1a9b1b9c1cb0b131b232b360811b85600f1660108110610229576102296104cc565b1a60f81b82828151811061023f5761023f6104cc565b60200101906001600160f81b031916908160001a90535060049490941c93610266816104e2565b90506101f8565b5083156100b25760405162461bcd60e51b815260206004820181905260248201527f537472696e67733a20686578206c656e67746820696e73756666696369656e74604482015260640160405180910390fd5b6060816102e45750506040805180820190915260018152600360fc1b602082015290565b8160005b811561030e57806102f881610464565b91506103079050600a8361050f565b91506102e8565b60008167ffffffffffffffff811115610329576103296104b6565b6040519080825280601f01601f191660200182016040528015610353576020820181803683370190505b5090505b841561011857610368600183610523565b9150610375600a8661053a565b61038090603061049e565b60f81b818381518110610395576103956104cc565b60200101906001600160f81b031916908160001a9053506103b7600a8661050f565b9450610357565b6000602082840312156103d057600080fd5b5035919050565b600060208083528351808285015260005b81811015610404578581018301518582016040015282016103e8565b81811115610416576000604083870101525b50601f01601f1916929092016040019392505050565b6000806040838503121561043f57600080fd5b50508035926020909101359150565b634e487b7160e01b600052601160045260246000fd5b60006000198214156104785761047861044e565b5060010190565b60008160001904831182151516156104995761049961044e565b500290565b600082198211156104b1576104b161044e565b500190565b634e487b7160e01b600052604160045260246000fd5b634e487b7160e01b600052603260045260246000fd5b6000816104f1576104f161044e565b506000190190565b634e487b7160e01b600052601260045260246000fd5b60008261051e5761051e6104f9565b500490565b6000828210156105355761053561044e565b500390565b600082610549576105496104f9565b50069056fea26469706673582212200bca0ec7e3404c14d98bac7cb78af7ddce3cfefa0d31a20d18769514f26ae3cf64736f6c634300080a0033",
    "sourcePath": "d:/Github/new_token/contracts/contracts/mocks/StringsMock.sol",
    "compiler": {
        "name": "solc",
        "version": "0.8.10+commit.fc410830"
    },
    "functionHashes": {
        "fromUint256(uint256)": "a2bd3644",
        "fromUint256Hex(uint256)": "02c5b75f",
        "fromUint256HexFixed(uint256,uint256)": "92b0ed1a"
    },
    "gasEstimates": {
        "creation": {
            "codeDepositCost": "282400",
            "executionCost": "324",
            "totalCost": "282724"
        },
        "external": {
            "fromUint256(uint256)": "infinite",
            "fromUint256Hex(uint256)": "infinite",
            "fromUint256HexFixed(uint256,uint256)": "infinite"
        }
    }
}