{
    "contractName": "TimersBlockNumberImpl",
    "abi": [
        {
            "inputs": [],
            "name": "getDeadline",
            "outputs": [
                {
                    "internalType": "uint64",
                    "name": "",
                    "type": "uint64"
                }
            ],
            "stateMutability": "view",
            "type": "function"
        },
        {
            "inputs": [],
            "name": "isExpired",
            "outputs": [
                {
                    "internalType": "bool",
                    "name": "",
                    "type": "bool"
                }
            ],
            "stateMutability": "view",
            "type": "function"
        },
        {
            "inputs": [],
            "name": "isPending",
            "outputs": [
                {
                    "internalType": "bool",
                    "name": "",
                    "type": "bool"
                }
            ],
            "stateMutability": "view",
            "type": "function"
        },
        {
            "inputs": [],
            "name": "isStarted",
            "outputs": [
                {
                    "internalType": "bool",
                    "name": "",
                    "type": "bool"
                }
            ],
            "stateMutability": "view",
            "type": "function"
        },
        {
            "inputs": [],
            "name": "isUnset",
            "outputs": [
                {
                    "internalType": "bool",
                    "name": "",
                    "type": "bool"
                }
            ],
            "stateMutability": "view",
            "type": "function"
        },
        {
            "inputs": [],
            "name": "reset",
            "outputs": [],
            "stateMutability": "nonpayable",
            "type": "function"
        },
        {
            "inputs": [
                {
                    "internalType": "uint64",
                    "name": "timestamp",
                    "type": "uint64"
                }
            ],
            "name": "setDeadline",
            "outputs": [],
            "stateMutability": "nonpayable",
            "type": "function"
        }
    ],
    "bytecode": "608060405234801561001057600080fd5b50610243806100206000396000f3fe608060405234801561001057600080fd5b506004361061007d5760003560e01c80635f8d96de1161005b5780635f8d96de146100e05780639c30ad7e14610107578063aebc04831461012a578063d826f88f1461015c57600080fd5b80632260fe3a146100825780632f13b60c146100b5578063544736e6146100bd575b600080fd5b604080516020810190915260005467ffffffffffffffff1690819052155b60405190151581526020015b60405180910390f35b6100a0610169565b604080516020810190915260005467ffffffffffffffff169081905215156100a0565b604080516020808201835260005467ffffffffffffffff16918290529151908152016100ac565b604080516020810190915260005467ffffffffffffffff169081905243106100a0565b61015a6101383660046101dc565b6000805467ffffffffffffffff831667ffffffffffffffff1990911617905550565b005b61015a61018e565b905090565b60408051602081019091526000805467ffffffffffffffff16825290610164906101a6565b6101a46000805467ffffffffffffffff19169055565b565b60006101bc825167ffffffffffffffff16151590565b80156101d6575043826000015167ffffffffffffffff1611155b92915050565b6000602082840312156101ee57600080fd5b813567ffffffffffffffff8116811461020657600080fd5b939250505056fea2646970667358221220703e2ae1b7a49e8cbf51d2a7a5eb04ceed6b5c22af72031bfc0363b75a4214bc64736f6c634300080a0033",
    "sourcePath": "d:/Github/new_token/contracts/contracts/mocks/TimersBlockNumberImpl.sol",
    "compiler": {
        "name": "solc",
        "version": "0.8.10+commit.fc410830"
    },
    "functionHashes": {
        "getDeadline()": "5f8d96de",
        "isExpired()": "2f13b60c",
        "isPending()": "9c30ad7e",
        "isStarted()": "544736e6",
        "isUnset()": "2260fe3a",
        "reset()": "d826f88f",
        "setDeadline(uint64)": "aebc0483"
    },
    "gasEstimates": {
        "creation": {
            "codeDepositCost": "115800",
            "executionCost": "165",
            "totalCost": "115965"
        },
        "external": {
            "getDeadline()": "2325",
            "isExpired()": "2499",
            "isPending()": "2362",
            "isStarted()": "2386",
            "isUnset()": "2328",
            "reset()": "24440",
            "setDeadline(uint64)": "24525"
        }
    }
}