{
    "contractName": "VestingWallet",
    "abi": [
        {
            "inputs": [
                {
                    "internalType": "address",
                    "name": "beneficiaryAddress",
                    "type": "address"
                },
                {
                    "internalType": "uint64",
                    "name": "startTimestamp",
                    "type": "uint64"
                },
                {
                    "internalType": "uint64",
                    "name": "durationSeconds",
                    "type": "uint64"
                }
            ],
            "stateMutability": "nonpayable",
            "type": "constructor"
        },
        {
            "anonymous": false,
            "inputs": [
                {
                    "indexed": false,
                    "internalType": "address",
                    "name": "token",
                    "type": "address"
                },
                {
                    "indexed": false,
                    "internalType": "uint256",
                    "name": "amount",
                    "type": "uint256"
                }
            ],
            "name": "ERC20Released",
            "type": "event"
        },
        {
            "anonymous": false,
            "inputs": [
                {
                    "indexed": false,
                    "internalType": "uint256",
                    "name": "amount",
                    "type": "uint256"
                }
            ],
            "name": "EtherReleased",
            "type": "event"
        },
        {
            "inputs": [],
            "name": "beneficiary",
            "outputs": [
                {
                    "internalType": "address",
                    "name": "",
                    "type": "address"
                }
            ],
            "stateMutability": "view",
            "type": "function"
        },
        {
            "inputs": [],
            "name": "duration",
            "outputs": [
                {
                    "internalType": "uint256",
                    "name": "",
                    "type": "uint256"
                }
            ],
            "stateMutability": "view",
            "type": "function"
        },
        {
            "inputs": [
                {
                    "internalType": "address",
                    "name": "token",
                    "type": "address"
                }
            ],
            "name": "release",
            "outputs": [],
            "stateMutability": "nonpayable",
            "type": "function"
        },
        {
            "inputs": [],
            "name": "release",
            "outputs": [],
            "stateMutability": "nonpayable",
            "type": "function"
        },
        {
            "inputs": [],
            "name": "released",
            "outputs": [
                {
                    "internalType": "uint256",
                    "name": "",
                    "type": "uint256"
                }
            ],
            "stateMutability": "view",
            "type": "function"
        },
        {
            "inputs": [
                {
                    "internalType": "address",
                    "name": "token",
                    "type": "address"
                }
            ],
            "name": "released",
            "outputs": [
                {
                    "internalType": "uint256",
                    "name": "",
                    "type": "uint256"
                }
            ],
            "stateMutability": "view",
            "type": "function"
        },
        {
            "inputs": [],
            "name": "start",
            "outputs": [
                {
                    "internalType": "uint256",
                    "name": "",
                    "type": "uint256"
                }
            ],
            "stateMutability": "view",
            "type": "function"
        },
        {
            "inputs": [
                {
                    "internalType": "uint64",
                    "name": "timestamp",
                    "type": "uint64"
                }
            ],
            "name": "vestedAmount",
            "outputs": [
                {
                    "internalType": "uint256",
                    "name": "",
                    "type": "uint256"
                }
            ],
            "stateMutability": "view",
            "type": "function"
        },
        {
            "inputs": [
                {
                    "internalType": "address",
                    "name": "token",
                    "type": "address"
                },
                {
                    "internalType": "uint64",
                    "name": "timestamp",
                    "type": "uint64"
                }
            ],
            "name": "vestedAmount",
            "outputs": [
                {
                    "internalType": "uint256",
                    "name": "",
                    "type": "uint256"
                }
            ],
            "stateMutability": "view",
            "type": "function"
        },
        {
            "stateMutability": "payable",
            "type": "receive"
        }
    ],
    "bytecode": "60e060405234801561001057600080fd5b50604051610c6c380380610c6c83398101604081905261002f916100dd565b6001600160a01b03831661009c5760405162461bcd60e51b815260206004820152602a60248201527f56657374696e6757616c6c65743a2062656e6566696369617279206973207a65604482015269726f206164647265737360b01b606482015260840160405180910390fd5b6001600160a01b039092166080526001600160401b0390811660a0521660c05261012e565b80516001600160401b03811681146100d857600080fd5b919050565b6000806000606084860312156100f257600080fd5b83516001600160a01b038116811461010957600080fd5b9250610117602085016100c1565b9150610125604085016100c1565b90509250925092565b60805160a05160c051610af46101786000396000818160d80152818161046d01526104c201526000610425015260008181610142015281816102cc01526103f20152610af46000f3fe60806040526004361061008a5760003560e01c8063810ec23b11610059578063810ec23b1461016c57806386d1a69f1461018c57806396132521146101a15780639852595c146101b6578063be9a6555146101ec57600080fd5b80630a17b06b146100965780630fb5a6b4146100c9578063191655871461010657806338af3eed1461012857600080fd5b3661009157005b600080fd5b3480156100a257600080fd5b506100b66100b13660046108fe565b610201565b6040519081526020015b60405180910390f35b3480156100d557600080fd5b507f000000000000000000000000000000000000000000000000000000000000000067ffffffffffffffff166100b6565b34801561011257600080fd5b50610126610121366004610930565b610225565b005b34801561013457600080fd5b506040516001600160a01b037f00000000000000000000000000000000000000000000000000000000000000001681526020016100c0565b34801561017857600080fd5b506100b661018736600461094b565b6102f5565b34801561019857600080fd5b5061012661038b565b3480156101ad57600080fd5b506000546100b6565b3480156101c257600080fd5b506100b66101d1366004610930565b6001600160a01b031660009081526001602052604090205490565b3480156101f857600080fd5b506100b661041a565b600061021f61020f60005490565b6102199047610994565b83610448565b92915050565b6001600160a01b03811660009081526001602052604081205461024883426102f5565b61025291906109ac565b6001600160a01b03831660009081526001602052604081208054929350839290919061027f908490610994565b9091555050604080516001600160a01b0384168152602081018390527fc0e523490dd523c33b1878c9eb14ff46991e3f5b2cd33710918618f2a39cba1b910160405180910390a16102f1827f000000000000000000000000000000000000000000000000000000000000000083610522565b5050565b6001600160a01b038216600090815260016020526040812054610384906040516370a0823160e01b81523060048201526001600160a01b038616906370a0823190602401602060405180830381865afa158015610356573d6000803e3d6000fd5b505050506040513d601f19601f8201168201806040525081019061037a91906109c3565b6102199190610994565b9392505050565b6000805461039842610201565b6103a291906109ac565b9050806000808282546103b59190610994565b90915550506040518181527fda9d4e5f101b8b9b1c5b76d0c5a9f7923571acfc02376aa076b75a8c080c956b9060200160405180910390a16104177f000000000000000000000000000000000000000000000000000000000000000082610579565b50565b67ffffffffffffffff7f00000000000000000000000000000000000000000000000000000000000000001690565b600061045261041a565b8267ffffffffffffffff16101561046b5750600061021f565b7f000000000000000000000000000000000000000000000000000000000000000067ffffffffffffffff1661049e61041a565b6104a89190610994565b8267ffffffffffffffff1611156104c057508161021f565b7f000000000000000000000000000000000000000000000000000000000000000067ffffffffffffffff166104f361041a565b6105079067ffffffffffffffff85166109ac565b61051190856109dc565b61051b91906109fb565b905061021f565b604080516001600160a01b038416602482015260448082018490528251808303909101815260649091019091526020810180516001600160e01b031663a9059cbb60e01b179052610574908490610697565b505050565b804710156105ce5760405162461bcd60e51b815260206004820152601d60248201527f416464726573733a20696e73756666696369656e742062616c616e636500000060448201526064015b60405180910390fd5b6000826001600160a01b03168260405160006040518083038185875af1925050503d806000811461061b576040519150601f19603f3d011682016040523d82523d6000602084013e610620565b606091505b50509050806105745760405162461bcd60e51b815260206004820152603a60248201527f416464726573733a20756e61626c6520746f2073656e642076616c75652c207260448201527f6563697069656e74206d6179206861766520726576657274656400000000000060648201526084016105c5565b60006106ec826040518060400160405280602081526020017f5361666545524332303a206c6f772d6c6576656c2063616c6c206661696c6564815250856001600160a01b03166107699092919063ffffffff16565b805190915015610574578080602001905181019061070a9190610a1d565b6105745760405162461bcd60e51b815260206004820152602a60248201527f5361666545524332303a204552433230206f7065726174696f6e20646964206e6044820152691bdd081cdd58d8d9595960b21b60648201526084016105c5565b60606107788484600085610780565b949350505050565b6060824710156107e15760405162461bcd60e51b815260206004820152602660248201527f416464726573733a20696e73756666696369656e742062616c616e636520666f6044820152651c8818d85b1b60d21b60648201526084016105c5565b843b61082f5760405162461bcd60e51b815260206004820152601d60248201527f416464726573733a2063616c6c20746f206e6f6e2d636f6e747261637400000060448201526064016105c5565b600080866001600160a01b0316858760405161084b9190610a6f565b60006040518083038185875af1925050503d8060008114610888576040519150601f19603f3d011682016040523d82523d6000602084013e61088d565b606091505b509150915061089d8282866108a8565b979650505050505050565b606083156108b7575081610384565b8251156108c75782518084602001fd5b8160405162461bcd60e51b81526004016105c59190610a8b565b803567ffffffffffffffff811681146108f957600080fd5b919050565b60006020828403121561091057600080fd5b610384826108e1565b80356001600160a01b03811681146108f957600080fd5b60006020828403121561094257600080fd5b61038482610919565b6000806040838503121561095e57600080fd5b61096783610919565b9150610975602084016108e1565b90509250929050565b634e487b7160e01b600052601160045260246000fd5b600082198211156109a7576109a761097e565b500190565b6000828210156109be576109be61097e565b500390565b6000602082840312156109d557600080fd5b5051919050565b60008160001904831182151516156109f6576109f661097e565b500290565b600082610a1857634e487b7160e01b600052601260045260246000fd5b500490565b600060208284031215610a2f57600080fd5b8151801515811461038457600080fd5b60005b83811015610a5a578181015183820152602001610a42565b83811115610a69576000848401525b50505050565b60008251610a81818460208701610a3f565b9190910192915050565b6020815260008251806020840152610aaa816040850160208701610a3f565b601f01601f1916919091016040019291505056fea264697066735822122037b7d44cb9a23f1daa3d45c037a45d930763f2edfffee8ccc9566ac5fc0e2e6a64736f6c634300080a0033",
    "sourcePath": "d:/Github/new_token/contracts/contracts/finance/VestingWallet.sol",
    "compiler": {
        "name": "solc",
        "version": "0.8.10+commit.fc410830"
    },
    "functionHashes": {
        "beneficiary()": "38af3eed",
        "duration()": "0fb5a6b4",
        "release()": "86d1a69f",
        "release(address)": "19165587",
        "released()": "96132521",
        "released(address)": "9852595c",
        "start()": "be9a6555",
        "vestedAmount(address,uint64)": "810ec23b",
        "vestedAmount(uint64)": "0a17b06b"
    },
    "gasEstimates": {
        "creation": {
            "codeDepositCost": "560800",
            "executionCost": "infinite",
            "totalCost": "infinite"
        },
        "external": {
            "beneficiary()": "infinite",
            "duration()": "infinite",
            "release()": "infinite",
            "release(address)": "infinite",
            "released()": "2325",
            "released(address)": "2592",
            "start()": "infinite",
            "vestedAmount(address,uint64)": "infinite",
            "vestedAmount(uint64)": "infinite"
        },
        "internal": {
            "_vestingSchedule(uint256,uint64)": "infinite"
        }
    }
}