{
    "contractName": "MyGovernor",
    "abi": [
        {
            "inputs": [
                {
                    "internalType": "contract ERC20Votes",
                    "name": "_token",
                    "type": "address"
                },
                {
                    "internalType": "contract TimelockController",
                    "name": "_timelock",
                    "type": "address"
                }
            ],
            "stateMutability": "nonpayable",
            "type": "constructor"
        },
        {
            "anonymous": false,
            "inputs": [
                {
                    "indexed": false,
                    "internalType": "uint256",
                    "name": "proposalId",
                    "type": "uint256"
                }
            ],
            "name": "ProposalCanceled",
            "type": "event"
        },
        {
            "anonymous": false,
            "inputs": [
                {
                    "indexed": false,
                    "internalType": "uint256",
                    "name": "proposalId",
                    "type": "uint256"
                },
                {
                    "indexed": false,
                    "internalType": "address",
                    "name": "proposer",
                    "type": "address"
                },
                {
                    "indexed": false,
                    "internalType": "address[]",
                    "name": "targets",
                    "type": "address[]"
                },
                {
                    "indexed": false,
                    "internalType": "uint256[]",
                    "name": "values",
                    "type": "uint256[]"
                },
                {
                    "indexed": false,
                    "internalType": "string[]",
                    "name": "signatures",
                    "type": "string[]"
                },
                {
                    "indexed": false,
                    "internalType": "bytes[]",
                    "name": "calldatas",
                    "type": "bytes[]"
                },
                {
                    "indexed": false,
                    "internalType": "uint256",
                    "name": "startBlock",
                    "type": "uint256"
                },
                {
                    "indexed": false,
                    "internalType": "uint256",
                    "name": "endBlock",
                    "type": "uint256"
                },
                {
                    "indexed": false,
                    "internalType": "string",
                    "name": "description",
                    "type": "string"
                }
            ],
            "name": "ProposalCreated",
            "type": "event"
        },
        {
            "anonymous": false,
            "inputs": [
                {
                    "indexed": false,
                    "internalType": "uint256",
                    "name": "proposalId",
                    "type": "uint256"
                }
            ],
            "name": "ProposalExecuted",
            "type": "event"
        },
        {
            "anonymous": false,
            "inputs": [
                {
                    "indexed": false,
                    "internalType": "uint256",
                    "name": "proposalId",
                    "type": "uint256"
                },
                {
                    "indexed": false,
                    "internalType": "uint256",
                    "name": "eta",
                    "type": "uint256"
                }
            ],
            "name": "ProposalQueued",
            "type": "event"
        },
        {
            "anonymous": false,
            "inputs": [
                {
                    "indexed": false,
                    "internalType": "uint256",
                    "name": "oldQuorumNumerator",
                    "type": "uint256"
                },
                {
                    "indexed": false,
                    "internalType": "uint256",
                    "name": "newQuorumNumerator",
                    "type": "uint256"
                }
            ],
            "name": "QuorumNumeratorUpdated",
            "type": "event"
        },
        {
            "anonymous": false,
            "inputs": [
                {
                    "indexed": false,
                    "internalType": "address",
                    "name": "oldTimelock",
                    "type": "address"
                },
                {
                    "indexed": false,
                    "internalType": "address",
                    "name": "newTimelock",
                    "type": "address"
                }
            ],
            "name": "TimelockChange",
            "type": "event"
        },
        {
            "anonymous": false,
            "inputs": [
                {
                    "indexed": true,
                    "internalType": "address",
                    "name": "voter",
                    "type": "address"
                },
                {
                    "indexed": false,
                    "internalType": "uint256",
                    "name": "proposalId",
                    "type": "uint256"
                },
                {
                    "indexed": false,
                    "internalType": "uint8",
                    "name": "support",
                    "type": "uint8"
                },
                {
                    "indexed": false,
                    "internalType": "uint256",
                    "name": "weight",
                    "type": "uint256"
                },
                {
                    "indexed": false,
                    "internalType": "string",
                    "name": "reason",
                    "type": "string"
                }
            ],
            "name": "VoteCast",
            "type": "event"
        },
        {
            "inputs": [],
            "name": "BALLOT_TYPEHASH",
            "outputs": [
                {
                    "internalType": "bytes32",
                    "name": "",
                    "type": "bytes32"
                }
            ],
            "stateMutability": "view",
            "type": "function"
        },
        {
            "inputs": [],
            "name": "COUNTING_MODE",
            "outputs": [
                {
                    "internalType": "string",
                    "name": "",
                    "type": "string"
                }
            ],
            "stateMutability": "pure",
            "type": "function"
        },
        {
            "inputs": [
                {
                    "internalType": "uint256",
                    "name": "proposalId",
                    "type": "uint256"
                }
            ],
            "name": "cancel",
            "outputs": [],
            "stateMutability": "nonpayable",
            "type": "function"
        },
        {
            "inputs": [
                {
                    "internalType": "uint256",
                    "name": "proposalId",
                    "type": "uint256"
                },
                {
                    "internalType": "uint8",
                    "name": "support",
                    "type": "uint8"
                }
            ],
            "name": "castVote",
            "outputs": [
                {
                    "internalType": "uint256",
                    "name": "",
                    "type": "uint256"
                }
            ],
            "stateMutability": "nonpayable",
            "type": "function"
        },
        {
            "inputs": [
                {
                    "internalType": "uint256",
                    "name": "proposalId",
                    "type": "uint256"
                },
                {
                    "internalType": "uint8",
                    "name": "support",
                    "type": "uint8"
                },
                {
                    "internalType": "uint8",
                    "name": "v",
                    "type": "uint8"
                },
                {
                    "internalType": "bytes32",
                    "name": "r",
                    "type": "bytes32"
                },
                {
                    "internalType": "bytes32",
                    "name": "s",
                    "type": "bytes32"
                }
            ],
            "name": "castVoteBySig",
            "outputs": [
                {
                    "internalType": "uint256",
                    "name": "",
                    "type": "uint256"
                }
            ],
            "stateMutability": "nonpayable",
            "type": "function"
        },
        {
            "inputs": [
                {
                    "internalType": "uint256",
                    "name": "proposalId",
                    "type": "uint256"
                },
                {
                    "internalType": "uint8",
                    "name": "support",
                    "type": "uint8"
                },
                {
                    "internalType": "string",
                    "name": "reason",
                    "type": "string"
                }
            ],
            "name": "castVoteWithReason",
            "outputs": [
                {
                    "internalType": "uint256",
                    "name": "",
                    "type": "uint256"
                }
            ],
            "stateMutability": "nonpayable",
            "type": "function"
        },
        {
            "inputs": [
                {
                    "internalType": "address[]",
                    "name": "targets",
                    "type": "address[]"
                },
                {
                    "internalType": "uint256[]",
                    "name": "values",
                    "type": "uint256[]"
                },
                {
                    "internalType": "bytes[]",
                    "name": "calldatas",
                    "type": "bytes[]"
                },
                {
                    "internalType": "bytes32",
                    "name": "descriptionHash",
                    "type": "bytes32"
                }
            ],
            "name": "execute",
            "outputs": [
                {
                    "internalType": "uint256",
                    "name": "",
                    "type": "uint256"
                }
            ],
            "stateMutability": "payable",
            "type": "function"
        },
        {
            "inputs": [
                {
                    "internalType": "uint256",
                    "name": "proposalId",
                    "type": "uint256"
                }
            ],
            "name": "execute",
            "outputs": [],
            "stateMutability": "payable",
            "type": "function"
        },
        {
            "inputs": [
                {
                    "internalType": "uint256",
                    "name": "proposalId",
                    "type": "uint256"
                }
            ],
            "name": "getActions",
            "outputs": [
                {
                    "internalType": "address[]",
                    "name": "targets",
                    "type": "address[]"
                },
                {
                    "internalType": "uint256[]",
                    "name": "values",
                    "type": "uint256[]"
                },
                {
                    "internalType": "string[]",
                    "name": "signatures",
                    "type": "string[]"
                },
                {
                    "internalType": "bytes[]",
                    "name": "calldatas",
                    "type": "bytes[]"
                }
            ],
            "stateMutability": "view",
            "type": "function"
        },
        {
            "inputs": [
                {
                    "internalType": "uint256",
                    "name": "proposalId",
                    "type": "uint256"
                },
                {
                    "internalType": "address",
                    "name": "voter",
                    "type": "address"
                }
            ],
            "name": "getReceipt",
            "outputs": [
                {
                    "components": [
                        {
                            "internalType": "bool",
                            "name": "hasVoted",
                            "type": "bool"
                        },
                        {
                            "internalType": "uint8",
                            "name": "support",
                            "type": "uint8"
                        },
                        {
                            "internalType": "uint96",
                            "name": "votes",
                            "type": "uint96"
                        }
                    ],
                    "internalType": "struct IGovernorCompatibilityBravo.Receipt",
                    "name": "",
                    "type": "tuple"
                }
            ],
            "stateMutability": "view",
            "type": "function"
        },
        {
            "inputs": [
                {
                    "internalType": "address",
                    "name": "account",
                    "type": "address"
                },
                {
                    "internalType": "uint256",
                    "name": "blockNumber",
                    "type": "uint256"
                }
            ],
            "name": "getVotes",
            "outputs": [
                {
                    "internalType": "uint256",
                    "name": "",
                    "type": "uint256"
                }
            ],
            "stateMutability": "view",
            "type": "function"
        },
        {
            "inputs": [
                {
                    "internalType": "uint256",
                    "name": "proposalId",
                    "type": "uint256"
                },
                {
                    "internalType": "address",
                    "name": "account",
                    "type": "address"
                }
            ],
            "name": "hasVoted",
            "outputs": [
                {
                    "internalType": "bool",
                    "name": "",
                    "type": "bool"
                }
            ],
            "stateMutability": "view",
            "type": "function"
        },
        {
            "inputs": [
                {
                    "internalType": "address[]",
                    "name": "targets",
                    "type": "address[]"
                },
                {
                    "internalType": "uint256[]",
                    "name": "values",
                    "type": "uint256[]"
                },
                {
                    "internalType": "bytes[]",
                    "name": "calldatas",
                    "type": "bytes[]"
                },
                {
                    "internalType": "bytes32",
                    "name": "descriptionHash",
                    "type": "bytes32"
                }
            ],
            "name": "hashProposal",
            "outputs": [
                {
                    "internalType": "uint256",
                    "name": "",
                    "type": "uint256"
                }
            ],
            "stateMutability": "pure",
            "type": "function"
        },
        {
            "inputs": [],
            "name": "name",
            "outputs": [
                {
                    "internalType": "string",
                    "name": "",
                    "type": "string"
                }
            ],
            "stateMutability": "view",
            "type": "function"
        },
        {
            "inputs": [
                {
                    "internalType": "uint256",
                    "name": "proposalId",
                    "type": "uint256"
                }
            ],
            "name": "proposalDeadline",
            "outputs": [
                {
                    "internalType": "uint256",
                    "name": "",
                    "type": "uint256"
                }
            ],
            "stateMutability": "view",
            "type": "function"
        },
        {
            "inputs": [
                {
                    "internalType": "uint256",
                    "name": "proposalId",
                    "type": "uint256"
                }
            ],
            "name": "proposalEta",
            "outputs": [
                {
                    "internalType": "uint256",
                    "name": "",
                    "type": "uint256"
                }
            ],
            "stateMutability": "view",
            "type": "function"
        },
        {
            "inputs": [
                {
                    "internalType": "uint256",
                    "name": "proposalId",
                    "type": "uint256"
                }
            ],
            "name": "proposalSnapshot",
            "outputs": [
                {
                    "internalType": "uint256",
                    "name": "",
                    "type": "uint256"
                }
            ],
            "stateMutability": "view",
            "type": "function"
        },
        {
            "inputs": [],
            "name": "proposalThreshold",
            "outputs": [
                {
                    "internalType": "uint256",
                    "name": "",
                    "type": "uint256"
                }
            ],
            "stateMutability": "pure",
            "type": "function"
        },
        {
            "inputs": [
                {
                    "internalType": "uint256",
                    "name": "proposalId",
                    "type": "uint256"
                }
            ],
            "name": "proposals",
            "outputs": [
                {
                    "internalType": "uint256",
                    "name": "id",
                    "type": "uint256"
                },
                {
                    "internalType": "address",
                    "name": "proposer",
                    "type": "address"
                },
                {
                    "internalType": "uint256",
                    "name": "eta",
                    "type": "uint256"
                },
                {
                    "internalType": "uint256",
                    "name": "startBlock",
                    "type": "uint256"
                },
                {
                    "internalType": "uint256",
                    "name": "endBlock",
                    "type": "uint256"
                },
                {
                    "internalType": "uint256",
                    "name": "forVotes",
                    "type": "uint256"
                },
                {
                    "internalType": "uint256",
                    "name": "againstVotes",
                    "type": "uint256"
                },
                {
                    "internalType": "uint256",
                    "name": "abstainVotes",
                    "type": "uint256"
                },
                {
                    "internalType": "bool",
                    "name": "canceled",
                    "type": "bool"
                },
                {
                    "internalType": "bool",
                    "name": "executed",
                    "type": "bool"
                }
            ],
            "stateMutability": "view",
            "type": "function"
        },
        {
            "inputs": [
                {
                    "internalType": "address[]",
                    "name": "targets",
                    "type": "address[]"
                },
                {
                    "internalType": "uint256[]",
                    "name": "values",
                    "type": "uint256[]"
                },
                {
                    "internalType": "bytes[]",
                    "name": "calldatas",
                    "type": "bytes[]"
                },
                {
                    "internalType": "string",
                    "name": "description",
                    "type": "string"
                }
            ],
            "name": "propose",
            "outputs": [
                {
                    "internalType": "uint256",
                    "name": "",
                    "type": "uint256"
                }
            ],
            "stateMutability": "nonpayable",
            "type": "function"
        },
        {
            "inputs": [
                {
                    "internalType": "address[]",
                    "name": "targets",
                    "type": "address[]"
                },
                {
                    "internalType": "uint256[]",
                    "name": "values",
                    "type": "uint256[]"
                },
                {
                    "internalType": "string[]",
                    "name": "signatures",
                    "type": "string[]"
                },
                {
                    "internalType": "bytes[]",
                    "name": "calldatas",
                    "type": "bytes[]"
                },
                {
                    "internalType": "string",
                    "name": "description",
                    "type": "string"
                }
            ],
            "name": "propose",
            "outputs": [
                {
                    "internalType": "uint256",
                    "name": "",
                    "type": "uint256"
                }
            ],
            "stateMutability": "nonpayable",
            "type": "function"
        },
        {
            "inputs": [
                {
                    "internalType": "address[]",
                    "name": "targets",
                    "type": "address[]"
                },
                {
                    "internalType": "uint256[]",
                    "name": "values",
                    "type": "uint256[]"
                },
                {
                    "internalType": "bytes[]",
                    "name": "calldatas",
                    "type": "bytes[]"
                },
                {
                    "internalType": "bytes32",
                    "name": "descriptionHash",
                    "type": "bytes32"
                }
            ],
            "name": "queue",
            "outputs": [
                {
                    "internalType": "uint256",
                    "name": "",
                    "type": "uint256"
                }
            ],
            "stateMutability": "nonpayable",
            "type": "function"
        },
        {
            "inputs": [
                {
                    "internalType": "uint256",
                    "name": "proposalId",
                    "type": "uint256"
                }
            ],
            "name": "queue",
            "outputs": [],
            "stateMutability": "nonpayable",
            "type": "function"
        },
        {
            "inputs": [
                {
                    "internalType": "uint256",
                    "name": "blockNumber",
                    "type": "uint256"
                }
            ],
            "name": "quorum",
            "outputs": [
                {
                    "internalType": "uint256",
                    "name": "",
                    "type": "uint256"
                }
            ],
            "stateMutability": "view",
            "type": "function"
        },
        {
            "inputs": [],
            "name": "quorumDenominator",
            "outputs": [
                {
                    "internalType": "uint256",
                    "name": "",
                    "type": "uint256"
                }
            ],
            "stateMutability": "view",
            "type": "function"
        },
        {
            "inputs": [],
            "name": "quorumNumerator",
            "outputs": [
                {
                    "internalType": "uint256",
                    "name": "",
                    "type": "uint256"
                }
            ],
            "stateMutability": "view",
            "type": "function"
        },
        {
            "inputs": [],
            "name": "quorumVotes",
            "outputs": [
                {
                    "internalType": "uint256",
                    "name": "",
                    "type": "uint256"
                }
            ],
            "stateMutability": "view",
            "type": "function"
        },
        {
            "inputs": [
                {
                    "internalType": "uint256",
                    "name": "proposalId",
                    "type": "uint256"
                }
            ],
            "name": "state",
            "outputs": [
                {
                    "internalType": "enum IGovernor.ProposalState",
                    "name": "",
                    "type": "uint8"
                }
            ],
            "stateMutability": "view",
            "type": "function"
        },
        {
            "inputs": [
                {
                    "internalType": "bytes4",
                    "name": "interfaceId",
                    "type": "bytes4"
                }
            ],
            "name": "supportsInterface",
            "outputs": [
                {
                    "internalType": "bool",
                    "name": "",
                    "type": "bool"
                }
            ],
            "stateMutability": "view",
            "type": "function"
        },
        {
            "inputs": [],
            "name": "timelock",
            "outputs": [
                {
                    "internalType": "address",
                    "name": "",
                    "type": "address"
                }
            ],
            "stateMutability": "view",
            "type": "function"
        },
        {
            "inputs": [],
            "name": "token",
            "outputs": [
                {
                    "internalType": "contract ERC20Votes",
                    "name": "",
                    "type": "address"
                }
            ],
            "stateMutability": "view",
            "type": "function"
        },
        {
            "inputs": [
                {
                    "internalType": "uint256",
                    "name": "newQuorumNumerator",
                    "type": "uint256"
                }
            ],
            "name": "updateQuorumNumerator",
            "outputs": [],
            "stateMutability": "nonpayable",
            "type": "function"
        },
        {
            "inputs": [
                {
                    "internalType": "contract TimelockController",
                    "name": "newTimelock",
                    "type": "address"
                }
            ],
            "name": "updateTimelock",
            "outputs": [],
            "stateMutability": "nonpayable",
            "type": "function"
        },
        {
            "inputs": [],
            "name": "version",
            "outputs": [
                {
                    "internalType": "string",
                    "name": "",
                    "type": "string"
                }
            ],
            "stateMutability": "view",
            "type": "function"
        },
        {
            "inputs": [],
            "name": "votingDelay",
            "outputs": [
                {
                    "internalType": "uint256",
                    "name": "",
                    "type": "uint256"
                }
            ],
            "stateMutability": "pure",
            "type": "function"
        },
        {
            "inputs": [],
            "name": "votingPeriod",
            "outputs": [
                {
                    "internalType": "uint256",
                    "name": "",
                    "type": "uint256"
                }
            ],
            "stateMutability": "pure",
            "type": "function"
        },
        {
            "stateMutability": "payable",
            "type": "receive"
        }
    ],
    "bytecode": "6101606040523480156200001257600080fd5b50604051620042a6380380620042a6833981016040819052620000359162000353565b600482826040518060400160405280600a81526020016926bca3b7bb32b93737b960b11b815250806200006d6200014360201b60201c565b815160208084019190912082518383012060e08290526101008190524660a0818152604080517f8b73c3c69bb8fe3d512ecc4cf759cc79239f7b179b0ffacaa9a75d522b39400f81880181905281830187905260608201869052608082019490945230818401528151808203909301835260c00190528051940193909320919290916080523060c052610120525050825162000113925060009150602084019062000294565b50620001219050816200015e565b506001600160a01b0316610140526200013a81620001c7565b505050620003cf565b6040805180820190915260018152603160f81b602082015290565b600254604080516001600160a01b03928316815291831660208301527f08f74ea46ef7894f65eabfb5e6e695de773a000b47c529ab559178069b226401910160405180910390a1600280546001600160a01b0319166001600160a01b0392909216919091179055565b60648111156200024f5760405162461bcd60e51b815260206004820152604360248201527f476f7665726e6f72566f74657351756f72756d4672616374696f6e3a2071756f60448201527f72756d4e756d657261746f72206f7665722071756f72756d44656e6f6d696e616064820152623a37b960e91b608482015260a40160405180910390fd5b600580549082905560408051828152602081018490527f0553476bf02ef2726e8ce5ced78d63e26e602e4a2257b1f559418e24b4633997910160405180910390a15050565b828054620002a29062000392565b90600052602060002090601f016020900481019282620002c6576000855562000311565b82601f10620002e157805160ff191683800117855562000311565b8280016001018555821562000311579182015b8281111562000311578251825591602001919060010190620002f4565b506200031f92915062000323565b5090565b5b808211156200031f576000815560010162000324565b6001600160a01b03811681146200035057600080fd5b50565b600080604083850312156200036757600080fd5b825162000374816200033a565b602084015190925062000387816200033a565b809150509250929050565b600181811c90821680620003a757607f821691505b60208210811415620003c957634e487b7160e01b600052602260045260246000fd5b50919050565b60805160a05160c05160e051610100516101205161014051613e6e62000438600039600081816108010152818161217501526121ff015260006123b901526000612408015260006123e30152600061233c01526000612366015260006123900152613e6e6000f3fe6080604052600436106102135760003560e01c80637d5e81e211610118578063da95691a116100a0578063e23a9a521161006f578063e23a9a52146106e5578063eb9019d4146107af578063f8ce560a146107cf578063fc0c546a146107ef578063fe0d94c11461082357600080fd5b8063da95691a1461062b578063dd4e2ba51461064b578063ddf0b00914610691578063deaaa7cc146106b157600080fd5b8063ab58fb8e116100e7578063ab58fb8e1461057d578063b58131b01461059d578063c01f9e37146105b9578063c59057e4146105d9578063d33219b4146105f957600080fd5b80637d5e81e21461051457806397c3d33414610534578063a7713a7014610548578063a890c9101461055d57600080fd5b8063328dd9821161019b57806340e58ee51161016a57806340e58ee514610440578063438596321461046057806354fd4d50146104aa57806356781388146104d45780637b3c71d3146104f457600080fd5b8063328dd982146103af5780633932abb1146103df5780633bccf4fd146103f35780633e4f49e61461041357600080fd5b806306fdde03116101e257806306fdde0314610325578063160cbed71461034757806324bc1a64146103675780632656227d1461037c5780632d63f6931461038f57600080fd5b8063013cf08b1461023b57806301ffc9a7146102b657806302a251a3146102e657806306f3f9e61461030557600080fd5b366102365730610221610836565b6001600160a01b03161461023457600080fd5b005b600080fd5b34801561024757600080fd5b5061025b610256366004613214565b61084f565b604080519a8b526001600160a01b0390991660208b0152978901969096526060880194909452608087019290925260a086015260c085015260e084015215156101008301521515610120820152610140015b60405180910390f35b3480156102c257600080fd5b506102d66102d136600461322d565b6108f8565b60405190151581526020016102ad565b3480156102f257600080fd5b5061b2fa5b6040519081526020016102ad565b34801561031157600080fd5b50610234610320366004613214565b610909565b34801561033157600080fd5b5061033a61097d565b6040516102ad91906132b3565b34801561035357600080fd5b506102f76103623660046134fe565b610a0f565b34801561037357600080fd5b506102f7610c10565b6102f761038a3660046134fe565b610c20565b34801561039b57600080fd5b506102f76103aa366004613214565b610cf3565b3480156103bb57600080fd5b506103cf6103ca366004613214565b610d2a565b6040516102ad9493929190613656565b3480156103eb57600080fd5b5060016102f7565b3480156103ff57600080fd5b506102f761040e3660046136b9565b610fbb565b34801561041f57600080fd5b5061043361042e366004613214565b61104f565b6040516102ad919061371d565b34801561044c57600080fd5b5061023461045b366004613214565b61105a565b34801561046c57600080fd5b506102d661047b366004613745565b60008281526004602090815260408083206001600160a01b038516845260080190915290205460ff1692915050565b3480156104b657600080fd5b506040805180820190915260018152603160f81b602082015261033a565b3480156104e057600080fd5b506102f76104ef366004613775565b611374565b34801561050057600080fd5b506102f761050f3660046137a1565b61139d565b34801561052057600080fd5b506102f761052f366004613847565b6113ef565b34801561054057600080fd5b5060646102f7565b34801561055457600080fd5b506005546102f7565b34801561056957600080fd5b506102346105783660046138f3565b611406565b34801561058957600080fd5b506102f7610598366004613214565b611472565b3480156105a957600080fd5b50683635c9adc5dea000006102f7565b3480156105c557600080fd5b506102f76105d4366004613214565b61150d565b3480156105e557600080fd5b506102f76105f43660046134fe565b61153c565b34801561060557600080fd5b506002546001600160a01b03165b6040516001600160a01b0390911681526020016102ad565b34801561063757600080fd5b506102f761064636600461398f565b611576565b34801561065757600080fd5b5060408051808201909152601a81527f737570706f72743d627261766f2671756f72756d3d627261766f000000000000602082015261033a565b34801561069d57600080fd5b506102346106ac366004613214565b61159b565b3480156106bd57600080fd5b506102f77f150214d74d59b7d1e90c73fc22ef3d991dd0a76b046543d4d80ab92d2a50328f81565b3480156106f157600080fd5b5061077f610700366004613745565b60408051606081018252600080825260208201819052918101919091525060009182526004602090815260408084206001600160a01b0393909316845260089092018152918190208151606081018352905460ff8082161515835261010082041693820193909352620100009092046001600160601b03169082015290565b6040805182511515815260208084015160ff1690820152918101516001600160601b0316908201526060016102ad565b3480156107bb57600080fd5b506102f76107ca366004613a60565b611809565b3480156107db57600080fd5b506102f76107ea366004613214565b611815565b3480156107fb57600080fd5b506106137f000000000000000000000000000000000000000000000000000000000000000081565b610234610831366004613214565b611820565b600061084a6002546001600160a01b031690565b905090565b80600080808080808080806108638a611472565b975061086e8b610cf3565b96506108798b61150d565b60008c815260046020526040812080546005820154600683015460078401546001600160a01b039093169e50949a5098509296509194506108b98d61104f565b905060028160078111156108cf576108cf613707565b14935060078160078111156108e6576108e6613707565b14925050509193959799509193959799565b600061090382611a8e565b92915050565b610911610836565b6001600160a01b0316336001600160a01b0316146109715760405162461bcd60e51b8152602060048201526018602482015277476f7665726e6f723a206f6e6c79476f7665726e616e636560401b60448201526064015b60405180910390fd5b61097a81611ab3565b50565b60606000805461098c90613a8c565b80601f01602080910402602001604051908101604052809291908181526020018280546109b890613a8c565b8015610a055780601f106109da57610100808354040283529160200191610a05565b820191906000526020600020905b8154815290600101906020018083116109e857829003601f168201915b5050505050905090565b600080610a1e8686868661153c565b90506004610a2b8261104f565b6007811115610a3c57610a3c613707565b14610a595760405162461bcd60e51b815260040161096890613ac1565b6002546040805163793d064960e11b815290516000926001600160a01b03169163f27a0c929160048083019260209291908290030181865afa158015610aa3573d6000803e3d6000fd5b505050506040513d601f19601f82011682018060405250810190610ac79190613b02565b60025460405163b1c5f42760e01b81529192506001600160a01b03169063b1c5f42790610b01908a908a908a906000908b90600401613b1b565b602060405180830381865afa158015610b1e573d6000803e3d6000fd5b505050506040513d601f19601f82011682018060405250810190610b429190613b02565b6000838152600360205260408082209290925560025491516308f2a0bb60e41b81526001600160a01b0390921691638f2a0bb091610b8d918b918b918b91908b908990600401613b69565b600060405180830381600087803b158015610ba757600080fd5b505af1158015610bbb573d6000803e3d6000fd5b505050507f9a2e42fd6722813d69113e7d0079d3d940171428df7373df9c7f7617cfda2892828242610bed9190613bd7565b604080519283526020830191909152015b60405180910390a15095945050505050565b600061084a6107ea600143613bef565b600080610c2f8686868661153c565b90506000610c3c8261104f565b90506004816007811115610c5257610c52613707565b1480610c6f57506005816007811115610c6d57610c6d613707565b145b610c8b5760405162461bcd60e51b815260040161096890613ac1565b600082815260016020818152604092839020600201805460ff191690921790915590518381527f712ae1383f79ac853f8d882153778e0260ef8f03b504e2866e0593e04d2b291f910160405180910390a1610ce98288888888611b7b565b5095945050505050565b60008181526001602090815260408083208151928301909152546001600160401b0316908190525b6001600160401b031692915050565b60608060608060006004600087815260200190815260200160002090508060010181600201826003018360040183805480602002602001604051908101604052809291908181526020018280548015610dac57602002820191906000526020600020905b81546001600160a01b03168152600190910190602001808311610d8e575b5050505050935082805480602002602001604051908101604052809291908181526020018280548015610dfe57602002820191906000526020600020905b815481526020019060010190808311610dea575b5050505050925081805480602002602001604051908101604052809291908181526020016000905b82821015610ed2578382906000526020600020018054610e4590613a8c565b80601f0160208091040260200160405190810160405280929190818152602001828054610e7190613a8c565b8015610ebe5780601f10610e9357610100808354040283529160200191610ebe565b820191906000526020600020905b815481529060010190602001808311610ea157829003601f168201915b505050505081526020019060010190610e26565b50505050915080805480602002602001604051908101604052809291908181526020016000905b82821015610fa5578382906000526020600020018054610f1890613a8c565b80601f0160208091040260200160405190810160405280929190818152602001828054610f4490613a8c565b8015610f915780601f10610f6657610100808354040283529160200191610f91565b820191906000526020600020905b815481529060010190602001808311610f7457829003601f168201915b505050505081526020019060010190610ef9565b5050505090509450945094509450509193509193565b604080517f150214d74d59b7d1e90c73fc22ef3d991dd0a76b046543d4d80ab92d2a50328f602082015290810186905260ff8516606082015260009081906110279061101f9060800160405160208183030381529060405280519060200120611b8f565b868686611bdd565b905061104487828860405180602001604052806000815250611bfb565b979650505050505050565b600061090382611d06565b600081815260046020526040902080546001600160a01b0316336001600160a01b031614806110aa5750683635c9adc5dea0000081546110a8906001600160a01b03166107ca600143613bef565b105b6111065760405162461bcd60e51b815260206004820152602760248201527f476f7665726e6f72427261766f3a2070726f706f7365722061626f76652074686044820152661c995cda1bdb1960ca1b6064820152608401610968565b61136f8160010180548060200260200160405190810160405280929190818152602001828054801561116157602002820191906000526020600020905b81546001600160a01b03168152600190910190602001808311611143575b5050505050826002018054806020026020016040519081016040528092919081815260200182805480156111b457602002820191906000526020600020905b8154815260200190600101908083116111a0575b505050505061136584600301805480602002602001604051908101604052809291908181526020016000905b8282101561128c5783829060005260206000200180546111ff90613a8c565b80601f016020809104026020016040519081016040528092919081815260200182805461122b90613a8c565b80156112785780601f1061124d57610100808354040283529160200191611278565b820191906000526020600020905b81548152906001019060200180831161125b57829003601f168201915b5050505050815260200190600101906111e0565b50505060048701805460408051602080840282018101909252828152935060009084015b8282101561135c5783829060005260206000200180546112cf90613a8c565b80601f01602080910402602001604051908101604052809291908181526020018280546112fb90613a8c565b80156113485780601f1061131d57610100808354040283529160200191611348565b820191906000526020600020905b81548152906001019060200180831161132b57829003601f168201915b5050505050815260200190600101906112b0565b50505050611e50565b8460090154611fb0565b505050565b60008033905061139584828560405180602001604052806000815250611bfb565b949350505050565b6000803390506113e586828787878080601f016020809104026020016040519081016040528093929190818152602001838380828437600092019190915250611bfb92505050565b9695505050505050565b60006113fd85858585611fbe565b95945050505050565b61140e610836565b6001600160a01b0316336001600160a01b0316146114695760405162461bcd60e51b8152602060048201526018602482015277476f7665726e6f723a206f6e6c79476f7665726e616e636560401b6044820152606401610968565b61097a81612026565b60025460008281526003602052604080822054905163d45c443560e01b81526004810191909152909182916001600160a01b039091169063d45c443590602401602060405180830381865afa1580156114cf573d6000803e3d6000fd5b505050506040513d601f19601f820116820180604052508101906114f39190613b02565b9050806001146115035780611506565b60005b9392505050565b60008181526001602081815260408084208151928301909152909101546001600160401b031690819052610d1b565b6000848484846040516020016115559493929190613c06565b60408051601f19818403018152919052805160209091012095945050505050565b600061158633878787878761208f565b6113e586866115958787611e50565b856113ef565b600081815260046020908152604091829020600181018054845181850281018501909552808552919361136f9390929083018282801561160457602002820191906000526020600020905b81546001600160a01b031681526001909101906020018083116115e6575b50505050508260020180548060200260200160405190810160405280929190818152602001828054801561165757602002820191906000526020600020905b815481526020019060010190808311611643575b50505050506117ff84600301805480602002602001604051908101604052809291908181526020016000905b8282101561172f5783829060005260206000200180546116a290613a8c565b80601f01602080910402602001604051908101604052809291908181526020018280546116ce90613a8c565b801561171b5780601f106116f05761010080835404028352916020019161171b565b820191906000526020600020905b8154815290600101906020018083116116fe57829003601f168201915b505050505081526020019060010190611683565b50505060048701805460408051602080840282018101909252828152935060009084015b8282101561135c57838290600052602060002001805461177290613a8c565b80601f016020809104026020016040519081016040528092919081815260200182805461179e90613a8c565b80156117eb5780601f106117c0576101008083540402835291602001916117eb565b820191906000526020600020905b8154815290600101906020018083116117ce57829003601f168201915b505050505081526020019060010190611753565b8460090154610a0f565b6000611506838361214c565b6000610903826121e2565b600081815260046020908152604091829020600181018054845181850281018501909552808552919361136f9390929083018282801561188957602002820191906000526020600020905b81546001600160a01b0316815260019091019060200180831161186b575b5050505050826002018054806020026020016040519081016040528092919081815260200182805480156118dc57602002820191906000526020600020905b8154815260200190600101908083116118c8575b5050505050611a8484600301805480602002602001604051908101604052809291908181526020016000905b828210156119b457838290600052602060002001805461192790613a8c565b80601f016020809104026020016040519081016040528092919081815260200182805461195390613a8c565b80156119a05780601f10611975576101008083540402835291602001916119a0565b820191906000526020600020905b81548152906001019060200180831161198357829003601f168201915b505050505081526020019060010190611908565b50505060048701805460408051602080840282018101909252828152935060009084015b8282101561135c5783829060005260206000200180546119f790613a8c565b80601f0160208091040260200160405190810160405280929190818152602001828054611a2390613a8c565b8015611a705780601f10611a4557610100808354040283529160200191611a70565b820191906000526020600020905b815481529060010190602001808311611a5357829003601f168201915b5050505050815260200190600101906119d8565b8460090154610c20565b60006001600160e01b03198216636e665ced60e01b1480610903575061090382612286565b6064811115611b365760405162461bcd60e51b815260206004820152604360248201527f476f7665726e6f72566f74657351756f72756d4672616374696f6e3a2071756f60448201527f72756d4e756d657261746f72206f7665722071756f72756d44656e6f6d696e616064820152623a37b960e91b608482015260a401610968565b600580549082905560408051828152602081018490527f0553476bf02ef2726e8ce5ced78d63e26e602e4a2257b1f559418e24b4633997910160405180910390a15050565b611b8885858585856122bb565b5050505050565b6000610903611b9c61232f565b8360405161190160f01b6020820152602281018390526042810182905260009060620160405160208183030381529060405280519060200120905092915050565b6000806000611bee87878787612456565b91509150610ce981612543565b6000848152600160208190526040822090611c158761104f565b6007811115611c2657611c26613707565b14611c7f5760405162461bcd60e51b815260206004820152602360248201527f476f7665726e6f723a20766f7465206e6f742063757272656e746c792061637460448201526269766560e81b6064820152608401610968565b604080516020810190915281546001600160401b031690819052600090611ca7908790611809565b9050611cb5878787846126fe565b856001600160a01b03167fb8e138887d0aa13bab447e82de9d5c1777041ecd21ca36ba824ff1e6c07ddda488878488604051611cf49493929190613c51565b60405180910390a29695505050505050565b600080611d12836128a3565b90506004816007811115611d2857611d28613707565b14611d335792915050565b60008381526003602052604090205480611d4e575092915050565b600254604051632ab0f52960e01b8152600481018390526001600160a01b0390911690632ab0f52990602401602060405180830381865afa158015611d97573d6000803e3d6000fd5b505050506040513d601f19601f82011682018060405250810190611dbb9190613c79565b15611dca575060079392505050565b600254604051632c258a9f60e11b8152600481018390526001600160a01b039091169063584b153e90602401602060405180830381865afa158015611e13573d6000803e3d6000fd5b505050506040513d601f19601f82011682018060405250810190611e379190613c79565b15611e46575060059392505050565b5060029392505050565b6060600082516001600160401b03811115611e6d57611e6d6132c6565b604051908082528060200260200182016040528015611ea057816020015b6060815260200190600190039081611e8b5790505b50905060005b8451811015611fa857848181518110611ec157611ec1613c9b565b602002602001015151600014611f5f57848181518110611ee357611ee3613c9b565b6020026020010151848281518110611efd57611efd613c9b565b6020026020010151604051602401611f1591906132b3565b60408051601f198184030181529082905291611f3091613cb1565b6040519081900390206020820180516001600160e01b03166001600160e01b0319909216919091179052611f7a565b838181518110611f7157611f71613c9b565b60200260200101515b828281518110611f8c57611f8c613c9b565b602002602001018190525080611fa190613ccd565b9050611ea6565b509392505050565b60006113fd85858585612a0a565b600061201a33868686516001600160401b03811115611fdf57611fdf6132c6565b60405190808252806020026020018201604052801561201257816020015b6060815260200190600190039081611ffd5790505b50878761208f565b6113fd85858585612abc565b600254604080516001600160a01b03928316815291831660208301527f08f74ea46ef7894f65eabfb5e6e695de773a000b47c529ab559178069b226401910160405180910390a1600280546001600160a01b0319166001600160a01b0392909216919091179055565b8051602082012060006120ad87876120a78888611e50565b8561153c565b60008181526004602052604090206009810154919250906121415780546001600160a01b0319166001600160a01b038a1617815587516120f690600183019060208b0190612fca565b50865161210c90600283019060208a019061302b565b5085516121229060038301906020890190613066565b50845161213890600483019060208801906130bf565b50600981018390555b505050505050505050565b604051630748d63560e31b81526001600160a01b038381166004830152602482018390526000917f000000000000000000000000000000000000000000000000000000000000000090911690633a46b1a890604401602060405180830381865afa1580156121be573d6000803e3d6000fd5b505050506040513d601f19601f820116820180604052508101906115069190613b02565b60006064600554604051632394e7a360e21b8152600481018590527f00000000000000000000000000000000000000000000000000000000000000006001600160a01b031690638e539e8c90602401602060405180830381865afa15801561224e573d6000803e3d6000fd5b505050506040513d601f19601f820116820180604052508101906122729190613b02565b61227c9190613ce8565b6109039190613d07565b60006001600160e01b0319821663bf26d89760e01b148061090357506301ffc9a760e01b6001600160e01b0319831614610903565b60025460405163e38335e560e01b81526001600160a01b039091169063e38335e59034906122f6908890889088906000908990600401613b1b565b6000604051808303818588803b15801561230f57600080fd5b505af1158015612323573d6000803e3d6000fd5b50505050505050505050565b6000306001600160a01b037f00000000000000000000000000000000000000000000000000000000000000001614801561238857507f000000000000000000000000000000000000000000000000000000000000000046145b156123b257507f000000000000000000000000000000000000000000000000000000000000000090565b50604080517f00000000000000000000000000000000000000000000000000000000000000006020808301919091527f0000000000000000000000000000000000000000000000000000000000000000828401527f000000000000000000000000000000000000000000000000000000000000000060608301524660808301523060a0808401919091528351808403909101815260c0909201909252805191012090565b6000807f7fffffffffffffffffffffffffffffff5d576e7357a4501ddfe92f46681b20a083111561248d575060009050600361253a565b8460ff16601b141580156124a557508460ff16601c14155b156124b6575060009050600461253a565b6040805160008082526020820180845289905260ff881692820192909252606081018690526080810185905260019060a0016020604051602081039080840390855afa15801561250a573d6000803e3d6000fd5b5050604051601f1901519150506001600160a01b0381166125335760006001925092505061253a565b9150600090505b94509492505050565b600081600481111561255757612557613707565b14156125605750565b600181600481111561257457612574613707565b14156125c25760405162461bcd60e51b815260206004820152601860248201527f45434453413a20696e76616c6964207369676e617475726500000000000000006044820152606401610968565b60028160048111156125d6576125d6613707565b14156126245760405162461bcd60e51b815260206004820152601f60248201527f45434453413a20696e76616c6964207369676e6174757265206c656e677468006044820152606401610968565b600381600481111561263857612638613707565b14156126915760405162461bcd60e51b815260206004820152602260248201527f45434453413a20696e76616c6964207369676e6174757265202773272076616c604482015261756560f01b6064820152608401610968565b60048160048111156126a5576126a5613707565b141561097a5760405162461bcd60e51b815260206004820152602260248201527f45434453413a20696e76616c6964207369676e6174757265202776272076616c604482015261756560f01b6064820152608401610968565b60008481526004602090815260408083206001600160a01b038716845260088101909252909120805460ff161561278d5760405162461bcd60e51b815260206004820152602d60248201527f476f7665726e6f72436f6d7061746962696c697479427261766f3a20766f746560448201526c08185b1c9958591e4818d85cdd609a1b6064820152608401610968565b805460ff85166101000261ffff199091161760011781556127ad83612d93565b81546001600160601b039190911662010000026dffffffffffffffffffffffff00001990911617815560ff84166127fd57828260060160008282546127f29190613bd7565b9091555061289b9050565b60ff84166001141561281d57828260050160008282546127f29190613bd7565b60ff84166002141561283d57828260070160008282546127f29190613bd7565b60405162461bcd60e51b815260206004820152602d60248201527f476f7665726e6f72436f6d7061746962696c697479427261766f3a20696e766160448201526c6c696420766f7465207479706560981b6064820152608401610968565b505050505050565b6000818152600160208181526040808420815160a08101835281546001600160401b0390811660808301908152825283518086018552958301541685529283019390935260029092015460ff808216158015948401949094526101009091041615156060820152906129185750600792915050565b80606001511561292b5750600292915050565b80515143906001600160401b0316106129475750600092915050565b4361295482602001515190565b6001600160401b03161061296b5750600192915050565b6129788160200151612dff565b156129bc5761298683612e2e565b80156129a8575060008381526004602052604090206006810154600590910154115b6129b3576003611506565b60049392505050565b60405162461bcd60e51b815260206004820152601d60248201527f476f7665726e6f723a20756e6b6e6f776e2070726f706f73616c2069640000006044820152606401610968565b50919050565b600080612a1986868686612e56565b600081815260036020526040902054909150156113fd576002546000828152600360205260409081902054905163c4d252f560e01b81526001600160a01b039092169163c4d252f591612a729160040190815260200190565b600060405180830381600087803b158015612a8c57600080fd5b505af1158015612aa0573d6000803e3d6000fd5b5050506000828152600360205260408120555095945050505050565b6000683635c9adc5dea00000612ad7336107ca600143613bef565b1015612b575760405162461bcd60e51b815260206004820152604360248201527f476f7665726e6f72436f6d7061746962696c697479427261766f3a2070726f7060448201527f6f73657220766f7465732062656c6f772070726f706f73616c207468726573686064820152621bdb1960ea1b608482015260a401610968565b6000612b6c868686868051906020012061153c565b90508451865114612b8f5760405162461bcd60e51b815260040161096890613d29565b8351865114612bb05760405162461bcd60e51b815260040161096890613d29565b6000865111612c015760405162461bcd60e51b815260206004820152601860248201527f476f7665726e6f723a20656d7074792070726f706f73616c00000000000000006044820152606401610968565b600081815260016020908152604091829020825191820190925281546001600160401b03169081905215612c815760405162461bcd60e51b815260206004820152602160248201527f476f7665726e6f723a2070726f706f73616c20616c72656164792065786973746044820152607360f81b6064820152608401610968565b6000612c8d6001612f62565b612c9643612f62565b612ca09190613d6a565b90506000612caf61b2fa612f62565b612cb99083613d6a565b835467ffffffffffffffff19166001600160401b038416178455905060018301805467ffffffffffffffff19166001600160401b0383161790557f7d84a6263ae0d98d3329bd7b46bb4e8d6f98cd35a7adb45c274c8b7fd5ebd5e084338b8b8d516001600160401b03811115612d3157612d316132c6565b604051908082528060200260200182016040528015612d6457816020015b6060815260200190600190039081612d4f5790505b508c88888e604051612d7e99989796959493929190613d95565b60405180910390a15091979650505050505050565b60006001600160601b03821115612dfb5760405162461bcd60e51b815260206004820152602660248201527f53616665436173743a2076616c756520646f65736e27742066697420696e203960448201526536206269747360d01b6064820152608401610968565b5090565b6000612e1482516001600160401b0316151590565b801561090357505051436001600160401b03909116111590565b60008181526004602052604081206005810154612e4d6107ea85610cf3565b11159392505050565b600080612e658686868661153c565b90506000612e728261104f565b90506002816007811115612e8857612e88613707565b14158015612ea857506006816007811115612ea557612ea5613707565b14155b8015612ec657506007816007811115612ec357612ec3613707565b14155b612f125760405162461bcd60e51b815260206004820152601d60248201527f476f7665726e6f723a2070726f706f73616c206e6f74206163746976650000006044820152606401610968565b60008281526001602052604090819020600201805461ff001916610100179055517f789cf55be980739dad1d0699b93b58e806b51c9d96619bfa8fe0a28abaa7b30c90610bfe9084815260200190565b60006001600160401b03821115612dfb5760405162461bcd60e51b815260206004820152602660248201527f53616665436173743a2076616c756520646f65736e27742066697420696e203660448201526534206269747360d01b6064820152608401610968565b82805482825590600052602060002090810192821561301f579160200282015b8281111561301f57825182546001600160a01b0319166001600160a01b03909116178255602090920191600190910190612fea565b50612dfb929150613118565b82805482825590600052602060002090810192821561301f579160200282015b8281111561301f57825182559160200191906001019061304b565b8280548282559060005260206000209081019282156130b3579160200282015b828111156130b357825180516130a391849160209091019061312d565b5091602001919060010190613086565b50612dfb9291506131a0565b82805482825590600052602060002090810192821561310c579160200282015b8281111561310c57825180516130fc91849160209091019061312d565b50916020019190600101906130df565b50612dfb9291506131bd565b5b80821115612dfb5760008155600101613119565b82805461313990613a8c565b90600052602060002090601f01602090048101928261315b576000855561301f565b82601f1061317457805160ff191683800117855561301f565b8280016001018555821561301f579182018281111561301f57825182559160200191906001019061304b565b80821115612dfb5760006131b482826131da565b506001016131a0565b80821115612dfb5760006131d182826131da565b506001016131bd565b5080546131e690613a8c565b6000825580601f106131f6575050565b601f01602090049060005260206000209081019061097a9190613118565b60006020828403121561322657600080fd5b5035919050565b60006020828403121561323f57600080fd5b81356001600160e01b03198116811461150657600080fd5b60005b8381101561327257818101518382015260200161325a565b83811115613281576000848401525b50505050565b6000815180845261329f816020860160208601613257565b601f01601f19169290920160200192915050565b6020815260006115066020830184613287565b634e487b7160e01b600052604160045260246000fd5b604051601f8201601f191681016001600160401b0381118282101715613304576133046132c6565b604052919050565b60006001600160401b03821115613325576133256132c6565b5060051b60200190565b6001600160a01b038116811461097a57600080fd5b600082601f83011261335557600080fd5b8135602061336a6133658361330c565b6132dc565b82815260059290921b8401810191818101908684111561338957600080fd5b8286015b848110156133ad5780356133a08161332f565b835291830191830161338d565b509695505050505050565b600082601f8301126133c957600080fd5b813560206133d96133658361330c565b82815260059290921b840181019181810190868411156133f857600080fd5b8286015b848110156133ad57803583529183019183016133fc565b60006001600160401b0383111561342c5761342c6132c6565b61343f601f8401601f19166020016132dc565b905082815283838301111561345357600080fd5b828260208301376000602084830101529392505050565b600082601f83011261347b57600080fd5b8135602061348b6133658361330c565b82815260059290921b840181019181810190868411156134aa57600080fd5b8286015b848110156133ad5780356001600160401b038111156134cd5760008081fd5b8701603f810189136134df5760008081fd5b6134f0898683013560408401613413565b8452509183019183016134ae565b6000806000806080858703121561351457600080fd5b84356001600160401b038082111561352b57600080fd5b61353788838901613344565b9550602087013591508082111561354d57600080fd5b613559888389016133b8565b9450604087013591508082111561356f57600080fd5b5061357c8782880161346a565b949793965093946060013593505050565b600081518084526020808501945080840160005b838110156135c65781516001600160a01b0316875295820195908201906001016135a1565b509495945050505050565b600081518084526020808501945080840160005b838110156135c6578151875295820195908201906001016135e5565b600081518084526020808501808196508360051b8101915082860160005b85811015613649578284038952613637848351613287565b9885019893509084019060010161361f565b5091979650505050505050565b608081526000613669608083018761358d565b828103602084015261367b81876135d1565b9050828103604084015261368f8186613601565b905082810360608401526110448185613601565b803560ff811681146136b457600080fd5b919050565b600080600080600060a086880312156136d157600080fd5b853594506136e1602087016136a3565b93506136ef604087016136a3565b94979396509394606081013594506080013592915050565b634e487b7160e01b600052602160045260246000fd5b602081016008831061373f57634e487b7160e01b600052602160045260246000fd5b91905290565b6000806040838503121561375857600080fd5b82359150602083013561376a8161332f565b809150509250929050565b6000806040838503121561378857600080fd5b82359150613798602084016136a3565b90509250929050565b600080600080606085870312156137b757600080fd5b843593506137c7602086016136a3565b925060408501356001600160401b03808211156137e357600080fd5b818701915087601f8301126137f757600080fd5b81358181111561380657600080fd5b88602082850101111561381857600080fd5b95989497505060200194505050565b600082601f83011261383857600080fd5b61150683833560208501613413565b6000806000806080858703121561385d57600080fd5b84356001600160401b038082111561387457600080fd5b61388088838901613344565b9550602087013591508082111561389657600080fd5b6138a2888389016133b8565b945060408701359150808211156138b857600080fd5b6138c48883890161346a565b935060608701359150808211156138da57600080fd5b506138e787828801613827565b91505092959194509250565b60006020828403121561390557600080fd5b81356115068161332f565b600082601f83011261392157600080fd5b813560206139316133658361330c565b82815260059290921b8401810191818101908684111561395057600080fd5b8286015b848110156133ad5780356001600160401b038111156139735760008081fd5b6139818986838b0101613827565b845250918301918301613954565b600080600080600060a086880312156139a757600080fd5b85356001600160401b03808211156139be57600080fd5b6139ca89838a01613344565b965060208801359150808211156139e057600080fd5b6139ec89838a016133b8565b95506040880135915080821115613a0257600080fd5b613a0e89838a01613910565b94506060880135915080821115613a2457600080fd5b613a3089838a0161346a565b93506080880135915080821115613a4657600080fd5b50613a5388828901613827565b9150509295509295909350565b60008060408385031215613a7357600080fd5b8235613a7e8161332f565b946020939093013593505050565b600181811c90821680613aa057607f821691505b60208210811415612a0457634e487b7160e01b600052602260045260246000fd5b60208082526021908201527f476f7665726e6f723a2070726f706f73616c206e6f74207375636365737366756040820152601b60fa1b606082015260800190565b600060208284031215613b1457600080fd5b5051919050565b60a081526000613b2e60a083018861358d565b8281036020840152613b4081886135d1565b90508281036040840152613b548187613601565b60608401959095525050608001529392505050565b60c081526000613b7c60c083018961358d565b8281036020840152613b8e81896135d1565b90508281036040840152613ba28188613601565b60608401969096525050608081019290925260a0909101529392505050565b634e487b7160e01b600052601160045260246000fd5b60008219821115613bea57613bea613bc1565b500190565b600082821015613c0157613c01613bc1565b500390565b608081526000613c19608083018761358d565b8281036020840152613c2b81876135d1565b90508281036040840152613c3f8186613601565b91505082606083015295945050505050565b84815260ff841660208201528260408201526080606082015260006113e56080830184613287565b600060208284031215613c8b57600080fd5b8151801515811461150657600080fd5b634e487b7160e01b600052603260045260246000fd5b60008251613cc3818460208701613257565b9190910192915050565b6000600019821415613ce157613ce1613bc1565b5060010190565b6000816000190483118215151615613d0257613d02613bc1565b500290565b600082613d2457634e487b7160e01b600052601260045260246000fd5b500490565b60208082526021908201527f476f7665726e6f723a20696e76616c69642070726f706f73616c206c656e67746040820152600d60fb1b606082015260800190565b60006001600160401b03808316818516808303821115613d8c57613d8c613bc1565b01949350505050565b8981526001600160a01b038916602082015261012060408201819052600090613dc08382018b61358d565b90508281036060840152613dd4818a6135d1565b90508281036080840152613de88189613601565b905082810360a0840152613dfc8188613601565b6001600160401b0387811660c0860152861660e08501528381036101008501529050613e288185613287565b9c9b50505050505050505050505056fea2646970667358221220fd157dfd60fd95665a1a0dca2708107d0dd0202d332223d18ac1c4679f46996064736f6c634300080a0033",
    "sourcePath": "d:/Github/new_token/contracts/contracts/mocks/wizard/MyGovernor3.sol",
    "compiler": {
        "name": "solc",
        "version": "0.8.10+commit.fc410830"
    },
    "functionHashes": {
        "BALLOT_TYPEHASH()": "deaaa7cc",
        "COUNTING_MODE()": "dd4e2ba5",
        "cancel(uint256)": "40e58ee5",
        "castVote(uint256,uint8)": "56781388",
        "castVoteBySig(uint256,uint8,uint8,bytes32,bytes32)": "3bccf4fd",
        "castVoteWithReason(uint256,uint8,string)": "7b3c71d3",
        "execute(address[],uint256[],bytes[],bytes32)": "2656227d",
        "execute(uint256)": "fe0d94c1",
        "getActions(uint256)": "328dd982",
        "getReceipt(uint256,address)": "e23a9a52",
        "getVotes(address,uint256)": "eb9019d4",
        "hasVoted(uint256,address)": "43859632",
        "hashProposal(address[],uint256[],bytes[],bytes32)": "c59057e4",
        "name()": "06fdde03",
        "proposalDeadline(uint256)": "c01f9e37",
        "proposalEta(uint256)": "ab58fb8e",
        "proposalSnapshot(uint256)": "2d63f693",
        "proposalThreshold()": "b58131b0",
        "proposals(uint256)": "013cf08b",
        "propose(address[],uint256[],bytes[],string)": "7d5e81e2",
        "propose(address[],uint256[],string[],bytes[],string)": "da95691a",
        "queue(address[],uint256[],bytes[],bytes32)": "160cbed7",
        "queue(uint256)": "ddf0b009",
        "quorum(uint256)": "f8ce560a",
        "quorumDenominator()": "97c3d334",
        "quorumNumerator()": "a7713a70",
        "quorumVotes()": "24bc1a64",
        "state(uint256)": "3e4f49e6",
        "supportsInterface(bytes4)": "01ffc9a7",
        "timelock()": "d33219b4",
        "token()": "fc0c546a",
        "updateQuorumNumerator(uint256)": "06f3f9e6",
        "updateTimelock(address)": "a890c910",
        "version()": "54fd4d50",
        "votingDelay()": "3932abb1",
        "votingPeriod()": "02a251a3"
    },
    "gasEstimates": {
        "creation": {
            "codeDepositCost": "3196400",
            "executionCost": "infinite",
            "totalCost": "infinite"
        },
        "external": {
            "BALLOT_TYPEHASH()": "306",
            "COUNTING_MODE()": "infinite",
            "cancel(uint256)": "infinite",
            "castVote(uint256,uint8)": "infinite",
            "castVoteBySig(uint256,uint8,uint8,bytes32,bytes32)": "infinite",
            "castVoteWithReason(uint256,uint8,string)": "infinite",
            "execute(address[],uint256[],bytes[],bytes32)": "infinite",
            "execute(uint256)": "infinite",
            "getActions(uint256)": "infinite",
            "getReceipt(uint256,address)": "3014",
            "getVotes(address,uint256)": "infinite",
            "hasVoted(uint256,address)": "2726",
            "hashProposal(address[],uint256[],bytes[],bytes32)": "infinite",
            "name()": "infinite",
            "proposalDeadline(uint256)": "2651",
            "proposalEta(uint256)": "infinite",
            "proposalSnapshot(uint256)": "2676",
            "proposalThreshold()": "259",
            "proposals(uint256)": "infinite",
            "propose(address[],uint256[],bytes[],string)": "infinite",
            "propose(address[],uint256[],string[],bytes[],string)": "infinite",
            "queue(address[],uint256[],bytes[],bytes32)": "infinite",
            "queue(uint256)": "infinite",
            "quorum(uint256)": "infinite",
            "quorumDenominator()": "260",
            "quorumNumerator()": "2382",
            "quorumVotes()": "infinite",
            "state(uint256)": "infinite",
            "supportsInterface(bytes4)": "infinite",
            "timelock()": "2453",
            "token()": "infinite",
            "updateQuorumNumerator(uint256)": "28168",
            "updateTimelock(address)": "infinite",
            "version()": "infinite",
            "votingDelay()": "260",
            "votingPeriod()": "272"
        },
        "internal": {
            "_cancel(address[] memory,uint256[] memory,bytes memory[] memory,bytes32)": "infinite",
            "_execute(uint256,address[] memory,uint256[] memory,bytes memory[] memory,bytes32)": "infinite",
            "_executor()": "2156"
        }
    }
}