{
    "contractName": "MyGovernor2",
    "abi": [
        {
            "inputs": [
                {
                    "internalType": "contract ERC20Votes",
                    "name": "_token",
                    "type": "address"
                },
                {
                    "internalType": "contract TimelockController",
                    "name": "_timelock",
                    "type": "address"
                }
            ],
            "stateMutability": "nonpayable",
            "type": "constructor"
        },
        {
            "anonymous": false,
            "inputs": [
                {
                    "indexed": false,
                    "internalType": "uint256",
                    "name": "proposalId",
                    "type": "uint256"
                }
            ],
            "name": "ProposalCanceled",
            "type": "event"
        },
        {
            "anonymous": false,
            "inputs": [
                {
                    "indexed": false,
                    "internalType": "uint256",
                    "name": "proposalId",
                    "type": "uint256"
                },
                {
                    "indexed": false,
                    "internalType": "address",
                    "name": "proposer",
                    "type": "address"
                },
                {
                    "indexed": false,
                    "internalType": "address[]",
                    "name": "targets",
                    "type": "address[]"
                },
                {
                    "indexed": false,
                    "internalType": "uint256[]",
                    "name": "values",
                    "type": "uint256[]"
                },
                {
                    "indexed": false,
                    "internalType": "string[]",
                    "name": "signatures",
                    "type": "string[]"
                },
                {
                    "indexed": false,
                    "internalType": "bytes[]",
                    "name": "calldatas",
                    "type": "bytes[]"
                },
                {
                    "indexed": false,
                    "internalType": "uint256",
                    "name": "startBlock",
                    "type": "uint256"
                },
                {
                    "indexed": false,
                    "internalType": "uint256",
                    "name": "endBlock",
                    "type": "uint256"
                },
                {
                    "indexed": false,
                    "internalType": "string",
                    "name": "description",
                    "type": "string"
                }
            ],
            "name": "ProposalCreated",
            "type": "event"
        },
        {
            "anonymous": false,
            "inputs": [
                {
                    "indexed": false,
                    "internalType": "uint256",
                    "name": "proposalId",
                    "type": "uint256"
                }
            ],
            "name": "ProposalExecuted",
            "type": "event"
        },
        {
            "anonymous": false,
            "inputs": [
                {
                    "indexed": false,
                    "internalType": "uint256",
                    "name": "proposalId",
                    "type": "uint256"
                },
                {
                    "indexed": false,
                    "internalType": "uint256",
                    "name": "eta",
                    "type": "uint256"
                }
            ],
            "name": "ProposalQueued",
            "type": "event"
        },
        {
            "anonymous": false,
            "inputs": [
                {
                    "indexed": false,
                    "internalType": "uint256",
                    "name": "oldQuorumNumerator",
                    "type": "uint256"
                },
                {
                    "indexed": false,
                    "internalType": "uint256",
                    "name": "newQuorumNumerator",
                    "type": "uint256"
                }
            ],
            "name": "QuorumNumeratorUpdated",
            "type": "event"
        },
        {
            "anonymous": false,
            "inputs": [
                {
                    "indexed": false,
                    "internalType": "address",
                    "name": "oldTimelock",
                    "type": "address"
                },
                {
                    "indexed": false,
                    "internalType": "address",
                    "name": "newTimelock",
                    "type": "address"
                }
            ],
            "name": "TimelockChange",
            "type": "event"
        },
        {
            "anonymous": false,
            "inputs": [
                {
                    "indexed": true,
                    "internalType": "address",
                    "name": "voter",
                    "type": "address"
                },
                {
                    "indexed": false,
                    "internalType": "uint256",
                    "name": "proposalId",
                    "type": "uint256"
                },
                {
                    "indexed": false,
                    "internalType": "uint8",
                    "name": "support",
                    "type": "uint8"
                },
                {
                    "indexed": false,
                    "internalType": "uint256",
                    "name": "weight",
                    "type": "uint256"
                },
                {
                    "indexed": false,
                    "internalType": "string",
                    "name": "reason",
                    "type": "string"
                }
            ],
            "name": "VoteCast",
            "type": "event"
        },
        {
            "inputs": [],
            "name": "BALLOT_TYPEHASH",
            "outputs": [
                {
                    "internalType": "bytes32",
                    "name": "",
                    "type": "bytes32"
                }
            ],
            "stateMutability": "view",
            "type": "function"
        },
        {
            "inputs": [],
            "name": "COUNTING_MODE",
            "outputs": [
                {
                    "internalType": "string",
                    "name": "",
                    "type": "string"
                }
            ],
            "stateMutability": "pure",
            "type": "function"
        },
        {
            "inputs": [
                {
                    "internalType": "uint256",
                    "name": "proposalId",
                    "type": "uint256"
                },
                {
                    "internalType": "uint8",
                    "name": "support",
                    "type": "uint8"
                }
            ],
            "name": "castVote",
            "outputs": [
                {
                    "internalType": "uint256",
                    "name": "",
                    "type": "uint256"
                }
            ],
            "stateMutability": "nonpayable",
            "type": "function"
        },
        {
            "inputs": [
                {
                    "internalType": "uint256",
                    "name": "proposalId",
                    "type": "uint256"
                },
                {
                    "internalType": "uint8",
                    "name": "support",
                    "type": "uint8"
                },
                {
                    "internalType": "uint8",
                    "name": "v",
                    "type": "uint8"
                },
                {
                    "internalType": "bytes32",
                    "name": "r",
                    "type": "bytes32"
                },
                {
                    "internalType": "bytes32",
                    "name": "s",
                    "type": "bytes32"
                }
            ],
            "name": "castVoteBySig",
            "outputs": [
                {
                    "internalType": "uint256",
                    "name": "",
                    "type": "uint256"
                }
            ],
            "stateMutability": "nonpayable",
            "type": "function"
        },
        {
            "inputs": [
                {
                    "internalType": "uint256",
                    "name": "proposalId",
                    "type": "uint256"
                },
                {
                    "internalType": "uint8",
                    "name": "support",
                    "type": "uint8"
                },
                {
                    "internalType": "string",
                    "name": "reason",
                    "type": "string"
                }
            ],
            "name": "castVoteWithReason",
            "outputs": [
                {
                    "internalType": "uint256",
                    "name": "",
                    "type": "uint256"
                }
            ],
            "stateMutability": "nonpayable",
            "type": "function"
        },
        {
            "inputs": [
                {
                    "internalType": "address[]",
                    "name": "targets",
                    "type": "address[]"
                },
                {
                    "internalType": "uint256[]",
                    "name": "values",
                    "type": "uint256[]"
                },
                {
                    "internalType": "bytes[]",
                    "name": "calldatas",
                    "type": "bytes[]"
                },
                {
                    "internalType": "bytes32",
                    "name": "descriptionHash",
                    "type": "bytes32"
                }
            ],
            "name": "execute",
            "outputs": [
                {
                    "internalType": "uint256",
                    "name": "",
                    "type": "uint256"
                }
            ],
            "stateMutability": "payable",
            "type": "function"
        },
        {
            "inputs": [
                {
                    "internalType": "address",
                    "name": "account",
                    "type": "address"
                },
                {
                    "internalType": "uint256",
                    "name": "blockNumber",
                    "type": "uint256"
                }
            ],
            "name": "getVotes",
            "outputs": [
                {
                    "internalType": "uint256",
                    "name": "",
                    "type": "uint256"
                }
            ],
            "stateMutability": "view",
            "type": "function"
        },
        {
            "inputs": [
                {
                    "internalType": "uint256",
                    "name": "proposalId",
                    "type": "uint256"
                },
                {
                    "internalType": "address",
                    "name": "account",
                    "type": "address"
                }
            ],
            "name": "hasVoted",
            "outputs": [
                {
                    "internalType": "bool",
                    "name": "",
                    "type": "bool"
                }
            ],
            "stateMutability": "view",
            "type": "function"
        },
        {
            "inputs": [
                {
                    "internalType": "address[]",
                    "name": "targets",
                    "type": "address[]"
                },
                {
                    "internalType": "uint256[]",
                    "name": "values",
                    "type": "uint256[]"
                },
                {
                    "internalType": "bytes[]",
                    "name": "calldatas",
                    "type": "bytes[]"
                },
                {
                    "internalType": "bytes32",
                    "name": "descriptionHash",
                    "type": "bytes32"
                }
            ],
            "name": "hashProposal",
            "outputs": [
                {
                    "internalType": "uint256",
                    "name": "",
                    "type": "uint256"
                }
            ],
            "stateMutability": "pure",
            "type": "function"
        },
        {
            "inputs": [],
            "name": "name",
            "outputs": [
                {
                    "internalType": "string",
                    "name": "",
                    "type": "string"
                }
            ],
            "stateMutability": "view",
            "type": "function"
        },
        {
            "inputs": [
                {
                    "internalType": "uint256",
                    "name": "proposalId",
                    "type": "uint256"
                }
            ],
            "name": "proposalDeadline",
            "outputs": [
                {
                    "internalType": "uint256",
                    "name": "",
                    "type": "uint256"
                }
            ],
            "stateMutability": "view",
            "type": "function"
        },
        {
            "inputs": [
                {
                    "internalType": "uint256",
                    "name": "proposalId",
                    "type": "uint256"
                }
            ],
            "name": "proposalEta",
            "outputs": [
                {
                    "internalType": "uint256",
                    "name": "",
                    "type": "uint256"
                }
            ],
            "stateMutability": "view",
            "type": "function"
        },
        {
            "inputs": [
                {
                    "internalType": "uint256",
                    "name": "proposalId",
                    "type": "uint256"
                }
            ],
            "name": "proposalSnapshot",
            "outputs": [
                {
                    "internalType": "uint256",
                    "name": "",
                    "type": "uint256"
                }
            ],
            "stateMutability": "view",
            "type": "function"
        },
        {
            "inputs": [],
            "name": "proposalThreshold",
            "outputs": [
                {
                    "internalType": "uint256",
                    "name": "",
                    "type": "uint256"
                }
            ],
            "stateMutability": "pure",
            "type": "function"
        },
        {
            "inputs": [
                {
                    "internalType": "uint256",
                    "name": "proposalId",
                    "type": "uint256"
                }
            ],
            "name": "proposalVotes",
            "outputs": [
                {
                    "internalType": "uint256",
                    "name": "againstVotes",
                    "type": "uint256"
                },
                {
                    "internalType": "uint256",
                    "name": "forVotes",
                    "type": "uint256"
                },
                {
                    "internalType": "uint256",
                    "name": "abstainVotes",
                    "type": "uint256"
                }
            ],
            "stateMutability": "view",
            "type": "function"
        },
        {
            "inputs": [
                {
                    "internalType": "address[]",
                    "name": "targets",
                    "type": "address[]"
                },
                {
                    "internalType": "uint256[]",
                    "name": "values",
                    "type": "uint256[]"
                },
                {
                    "internalType": "bytes[]",
                    "name": "calldatas",
                    "type": "bytes[]"
                },
                {
                    "internalType": "string",
                    "name": "description",
                    "type": "string"
                }
            ],
            "name": "propose",
            "outputs": [
                {
                    "internalType": "uint256",
                    "name": "",
                    "type": "uint256"
                }
            ],
            "stateMutability": "nonpayable",
            "type": "function"
        },
        {
            "inputs": [
                {
                    "internalType": "address[]",
                    "name": "targets",
                    "type": "address[]"
                },
                {
                    "internalType": "uint256[]",
                    "name": "values",
                    "type": "uint256[]"
                },
                {
                    "internalType": "bytes[]",
                    "name": "calldatas",
                    "type": "bytes[]"
                },
                {
                    "internalType": "bytes32",
                    "name": "descriptionHash",
                    "type": "bytes32"
                }
            ],
            "name": "queue",
            "outputs": [
                {
                    "internalType": "uint256",
                    "name": "",
                    "type": "uint256"
                }
            ],
            "stateMutability": "nonpayable",
            "type": "function"
        },
        {
            "inputs": [
                {
                    "internalType": "uint256",
                    "name": "blockNumber",
                    "type": "uint256"
                }
            ],
            "name": "quorum",
            "outputs": [
                {
                    "internalType": "uint256",
                    "name": "",
                    "type": "uint256"
                }
            ],
            "stateMutability": "view",
            "type": "function"
        },
        {
            "inputs": [],
            "name": "quorumDenominator",
            "outputs": [
                {
                    "internalType": "uint256",
                    "name": "",
                    "type": "uint256"
                }
            ],
            "stateMutability": "view",
            "type": "function"
        },
        {
            "inputs": [],
            "name": "quorumNumerator",
            "outputs": [
                {
                    "internalType": "uint256",
                    "name": "",
                    "type": "uint256"
                }
            ],
            "stateMutability": "view",
            "type": "function"
        },
        {
            "inputs": [
                {
                    "internalType": "uint256",
                    "name": "proposalId",
                    "type": "uint256"
                }
            ],
            "name": "state",
            "outputs": [
                {
                    "internalType": "enum IGovernor.ProposalState",
                    "name": "",
                    "type": "uint8"
                }
            ],
            "stateMutability": "view",
            "type": "function"
        },
        {
            "inputs": [
                {
                    "internalType": "bytes4",
                    "name": "interfaceId",
                    "type": "bytes4"
                }
            ],
            "name": "supportsInterface",
            "outputs": [
                {
                    "internalType": "bool",
                    "name": "",
                    "type": "bool"
                }
            ],
            "stateMutability": "view",
            "type": "function"
        },
        {
            "inputs": [],
            "name": "timelock",
            "outputs": [
                {
                    "internalType": "address",
                    "name": "",
                    "type": "address"
                }
            ],
            "stateMutability": "view",
            "type": "function"
        },
        {
            "inputs": [],
            "name": "token",
            "outputs": [
                {
                    "internalType": "contract ERC20Votes",
                    "name": "",
                    "type": "address"
                }
            ],
            "stateMutability": "view",
            "type": "function"
        },
        {
            "inputs": [
                {
                    "internalType": "uint256",
                    "name": "newQuorumNumerator",
                    "type": "uint256"
                }
            ],
            "name": "updateQuorumNumerator",
            "outputs": [],
            "stateMutability": "nonpayable",
            "type": "function"
        },
        {
            "inputs": [
                {
                    "internalType": "contract TimelockController",
                    "name": "newTimelock",
                    "type": "address"
                }
            ],
            "name": "updateTimelock",
            "outputs": [],
            "stateMutability": "nonpayable",
            "type": "function"
        },
        {
            "inputs": [],
            "name": "version",
            "outputs": [
                {
                    "internalType": "string",
                    "name": "",
                    "type": "string"
                }
            ],
            "stateMutability": "view",
            "type": "function"
        },
        {
            "inputs": [],
            "name": "votingDelay",
            "outputs": [
                {
                    "internalType": "uint256",
                    "name": "",
                    "type": "uint256"
                }
            ],
            "stateMutability": "pure",
            "type": "function"
        },
        {
            "inputs": [],
            "name": "votingPeriod",
            "outputs": [
                {
                    "internalType": "uint256",
                    "name": "",
                    "type": "uint256"
                }
            ],
            "stateMutability": "pure",
            "type": "function"
        },
        {
            "stateMutability": "payable",
            "type": "receive"
        }
    ],
    "bytecode": "6101606040523480156200001257600080fd5b5060405162002c8838038062002c88833981016040819052620000359162000353565b600482826040518060400160405280600a81526020016926bca3b7bb32b93737b960b11b815250806200006d6200014360201b60201c565b815160208084019190912082518383012060e08290526101008190524660a0818152604080517f8b73c3c69bb8fe3d512ecc4cf759cc79239f7b179b0ffacaa9a75d522b39400f81880181905281830187905260608201869052608082019490945230818401528151808203909301835260c00190528051940193909320919290916080523060c052610120525050825162000113925060009150602084019062000294565b50620001219050816200015e565b506001600160a01b0316610140526200013a81620001c7565b505050620003cf565b6040805180820190915260018152603160f81b602082015290565b600254604080516001600160a01b03928316815291831660208301527f08f74ea46ef7894f65eabfb5e6e695de773a000b47c529ab559178069b226401910160405180910390a1600280546001600160a01b0319166001600160a01b0392909216919091179055565b60648111156200024f5760405162461bcd60e51b815260206004820152604360248201527f476f7665726e6f72566f74657351756f72756d4672616374696f6e3a2071756f60448201527f72756d4e756d657261746f72206f7665722071756f72756d44656e6f6d696e616064820152623a37b960e91b608482015260a40160405180910390fd5b600480549082905560408051828152602081018490527f0553476bf02ef2726e8ce5ced78d63e26e602e4a2257b1f559418e24b4633997910160405180910390a15050565b828054620002a29062000392565b90600052602060002090601f016020900481019282620002c6576000855562000311565b82601f10620002e157805160ff191683800117855562000311565b8280016001018555821562000311579182015b8281111562000311578251825591602001919060010190620002f4565b506200031f92915062000323565b5090565b5b808211156200031f576000815560010162000324565b6001600160a01b03811681146200035057600080fd5b50565b600080604083850312156200036757600080fd5b825162000374816200033a565b602084015190925062000387816200033a565b809150509250929050565b600181811c90821680620003a757607f821691505b60208210811415620003c957634e487b7160e01b600052602260045260246000fd5b50919050565b60805160a05160c05160e05161010051610120516101405161285062000438600039600081816106240152818161119a0152611224015260006113de0152600061142d01526000611408015260006113610152600061138b015260006113b501526128506000f3fe6080604052600436106101c65760003560e01c80637b3c71d3116100f7578063c01f9e3711610095578063deaaa7cc11610064578063deaaa7cc1461059e578063eb9019d4146105d2578063f8ce560a146105f2578063fc0c546a1461061257600080fd5b8063c01f9e37146104e6578063c59057e414610506578063d33219b414610526578063dd4e2ba51461055857600080fd5b8063a7713a70116100d1578063a7713a7014610475578063a890c9101461048a578063ab58fb8e146104aa578063b58131b0146104ca57600080fd5b80637b3c71d3146104215780637d5e81e21461044157806397c3d3341461046157600080fd5b80633932abb111610164578063438596321161013e5780634385963214610338578063544ffc9c1461038257806354fd4d50146103d7578063567813881461040157600080fd5b80633932abb1146102d75780633bccf4fd146102eb5780633e4f49e61461030b57600080fd5b806306fdde03116101a057806306fdde0314610262578063160cbed7146102845780632656227d146102a45780632d63f693146102b757600080fd5b806301ffc9a7146101ee57806302a251a31461022357806306f3f9e61461024257600080fd5b366101e957306101d4610646565b6001600160a01b0316146101e757600080fd5b005b600080fd5b3480156101fa57600080fd5b5061020e610209366004611daf565b61065f565b60405190151581526020015b60405180910390f35b34801561022f57600080fd5b5061b2fa5b60405190815260200161021a565b34801561024e57600080fd5b506101e761025d366004611dd9565b610670565b34801561026e57600080fd5b506102776106e4565b60405161021a9190611e3f565b34801561029057600080fd5b5061023461029f36600461208a565b610776565b6102346102b236600461208a565b610976565b3480156102c357600080fd5b506102346102d2366004611dd9565b610a49565b3480156102e357600080fd5b506001610234565b3480156102f757600080fd5b5061023461030636600461212f565b610a80565b34801561031757600080fd5b5061032b610326366004611dd9565b610b14565b60405161021a9190612193565b34801561034457600080fd5b5061020e6103533660046121bb565b60008281526005602090815260408083206001600160a01b038516845260030190915290205460ff1692915050565b34801561038e57600080fd5b506103bc61039d366004611dd9565b6000908152600560205260409020805460018201546002909201549092565b6040805193845260208401929092529082015260600161021a565b3480156103e357600080fd5b506040805180820190915260018152603160f81b6020820152610277565b34801561040d57600080fd5b5061023461041c3660046121eb565b610b1f565b34801561042d57600080fd5b5061023461043c366004612217565b610b48565b34801561044d57600080fd5b5061023461045c36600461229d565b610b9a565b34801561046d57600080fd5b506064610234565b34801561048157600080fd5b50600454610234565b34801561049657600080fd5b506101e76104a536600461235d565b610bb1565b3480156104b657600080fd5b506102346104c5366004611dd9565b610c1d565b3480156104d657600080fd5b50683635c9adc5dea00000610234565b3480156104f257600080fd5b50610234610501366004611dd9565b610cb8565b34801561051257600080fd5b5061023461052136600461208a565b610ce7565b34801561053257600080fd5b506002546001600160a01b03165b6040516001600160a01b03909116815260200161021a565b34801561056457600080fd5b506040805180820190915260208082527f737570706f72743d627261766f2671756f72756d3d666f722c6162737461696e90820152610277565b3480156105aa57600080fd5b506102347f150214d74d59b7d1e90c73fc22ef3d991dd0a76b046543d4d80ab92d2a50328f81565b3480156105de57600080fd5b506102346105ed36600461237a565b610d21565b3480156105fe57600080fd5b5061023461060d366004611dd9565b610d2d565b34801561061e57600080fd5b506105407f000000000000000000000000000000000000000000000000000000000000000081565b600061065a6002546001600160a01b031690565b905090565b600061066a82610d38565b92915050565b610678610646565b6001600160a01b0316336001600160a01b0316146106d85760405162461bcd60e51b8152602060048201526018602482015277476f7665726e6f723a206f6e6c79476f7665726e616e636560401b60448201526064015b60405180910390fd5b6106e181610d5d565b50565b6060600080546106f3906123a6565b80601f016020809104026020016040519081016040528092919081815260200182805461071f906123a6565b801561076c5780601f106107415761010080835404028352916020019161076c565b820191906000526020600020905b81548152906001019060200180831161074f57829003601f168201915b5050505050905090565b60008061078586868686610ce7565b9050600461079282610b14565b60078111156107a3576107a361217d565b146107c05760405162461bcd60e51b81526004016106cf906123db565b6002546040805163793d064960e11b815290516000926001600160a01b03169163f27a0c929160048083019260209291908290030181865afa15801561080a573d6000803e3d6000fd5b505050506040513d601f19601f8201168201806040525081019061082e919061241c565b60025460405163b1c5f42760e01b81529192506001600160a01b03169063b1c5f42790610868908a908a908a906000908b906004016124fe565b602060405180830381865afa158015610885573d6000803e3d6000fd5b505050506040513d601f19601f820116820180604052508101906108a9919061241c565b6000838152600360205260408082209290925560025491516308f2a0bb60e41b81526001600160a01b0390921691638f2a0bb0916108f4918b918b918b91908b90899060040161254c565b600060405180830381600087803b15801561090e57600080fd5b505af1158015610922573d6000803e3d6000fd5b505050507f9a2e42fd6722813d69113e7d0079d3d940171428df7373df9c7f7617cfda289282824261095491906125ba565b6040805192835260208301919091520160405180910390a15095945050505050565b60008061098586868686610ce7565b9050600061099282610b14565b905060048160078111156109a8576109a861217d565b14806109c5575060058160078111156109c3576109c361217d565b145b6109e15760405162461bcd60e51b81526004016106cf906123db565b600082815260016020818152604092839020600201805460ff191690921790915590518381527f712ae1383f79ac853f8d882153778e0260ef8f03b504e2866e0593e04d2b291f910160405180910390a1610a3f8288888888610e25565b5095945050505050565b60008181526001602090815260408083208151928301909152546001600160401b0316908190525b6001600160401b031692915050565b604080517f150214d74d59b7d1e90c73fc22ef3d991dd0a76b046543d4d80ab92d2a50328f602082015290810186905260ff851660608201526000908190610aec90610ae49060800160405160208183030381529060405280519060200120610e39565b868686610e87565b9050610b0987828860405180602001604052806000815250610ea5565b979650505050505050565b600061066a82610fb0565b600080339050610b4084828560405180602001604052806000815250610ea5565b949350505050565b600080339050610b9086828787878080601f016020809104026020016040519081016040528093929190818152602001838380828437600092019190915250610ea592505050565b9695505050505050565b6000610ba8858585856110fa565b95945050505050565b610bb9610646565b6001600160a01b0316336001600160a01b031614610c145760405162461bcd60e51b8152602060048201526018602482015277476f7665726e6f723a206f6e6c79476f7665726e616e636560401b60448201526064016106cf565b6106e181611108565b60025460008281526003602052604080822054905163d45c443560e01b81526004810191909152909182916001600160a01b039091169063d45c443590602401602060405180830381865afa158015610c7a573d6000803e3d6000fd5b505050506040513d601f19601f82011682018060405250810190610c9e919061241c565b905080600114610cae5780610cb1565b60005b9392505050565b60008181526001602081815260408084208151928301909152909101546001600160401b031690819052610a71565b600084848484604051602001610d0094939291906125d2565b60408051601f19818403018152919052805160209091012095945050505050565b6000610cb18383611171565b600061066a82611207565b60006001600160e01b03198216636e665ced60e01b148061066a575061066a826112ab565b6064811115610de05760405162461bcd60e51b815260206004820152604360248201527f476f7665726e6f72566f74657351756f72756d4672616374696f6e3a2071756f60448201527f72756d4e756d657261746f72206f7665722071756f72756d44656e6f6d696e616064820152623a37b960e91b608482015260a4016106cf565b600480549082905560408051828152602081018490527f0553476bf02ef2726e8ce5ced78d63e26e602e4a2257b1f559418e24b4633997910160405180910390a15050565b610e3285858585856112e0565b5050505050565b600061066a610e46611354565b8360405161190160f01b6020820152602281018390526042810182905260009060620160405160208183030381529060405280519060200120905092915050565b6000806000610e988787878761147b565b91509150610a3f81611568565b6000848152600160208190526040822090610ebf87610b14565b6007811115610ed057610ed061217d565b14610f295760405162461bcd60e51b815260206004820152602360248201527f476f7665726e6f723a20766f7465206e6f742063757272656e746c792061637460448201526269766560e81b60648201526084016106cf565b604080516020810190915281546001600160401b031690819052600090610f51908790610d21565b9050610f5f87878784611723565b856001600160a01b03167fb8e138887d0aa13bab447e82de9d5c1777041ecd21ca36ba824ff1e6c07ddda488878488604051610f9e949392919061261d565b60405180910390a29695505050505050565b600080610fbc836118a2565b90506004816007811115610fd257610fd261217d565b14610fdd5792915050565b60008381526003602052604090205480610ff8575092915050565b600254604051632ab0f52960e01b8152600481018390526001600160a01b0390911690632ab0f52990602401602060405180830381865afa158015611041573d6000803e3d6000fd5b505050506040513d601f19601f820116820180604052508101906110659190612645565b15611074575060079392505050565b600254604051632c258a9f60e11b8152600481018390526001600160a01b039091169063584b153e90602401602060405180830381865afa1580156110bd573d6000803e3d6000fd5b505050506040513d601f19601f820116820180604052508101906110e19190612645565b156110f0575060059392505050565b5060029392505050565b6000610ba885858585611a06565b600254604080516001600160a01b03928316815291831660208301527f08f74ea46ef7894f65eabfb5e6e695de773a000b47c529ab559178069b226401910160405180910390a1600280546001600160a01b0319166001600160a01b0392909216919091179055565b604051630748d63560e31b81526001600160a01b038381166004830152602482018390526000917f000000000000000000000000000000000000000000000000000000000000000090911690633a46b1a890604401602060405180830381865afa1580156111e3573d6000803e3d6000fd5b505050506040513d601f19601f82011682018060405250810190610cb1919061241c565b60006064600454604051632394e7a360e21b8152600481018590527f00000000000000000000000000000000000000000000000000000000000000006001600160a01b031690638e539e8c90602401602060405180830381865afa158015611273573d6000803e3d6000fd5b505050506040513d601f19601f82011682018060405250810190611297919061241c565b6112a19190612667565b61066a9190612686565b60006001600160e01b0319821663bf26d89760e01b148061066a57506301ffc9a760e01b6001600160e01b031983161461066a565b60025460405163e38335e560e01b81526001600160a01b039091169063e38335e590349061131b9088908890889060009089906004016124fe565b6000604051808303818588803b15801561133457600080fd5b505af1158015611348573d6000803e3d6000fd5b50505050505050505050565b6000306001600160a01b037f0000000000000000000000000000000000000000000000000000000000000000161480156113ad57507f000000000000000000000000000000000000000000000000000000000000000046145b156113d757507f000000000000000000000000000000000000000000000000000000000000000090565b50604080517f00000000000000000000000000000000000000000000000000000000000000006020808301919091527f0000000000000000000000000000000000000000000000000000000000000000828401527f000000000000000000000000000000000000000000000000000000000000000060608301524660808301523060a0808401919091528351808403909101815260c0909201909252805191012090565b6000807f7fffffffffffffffffffffffffffffff5d576e7357a4501ddfe92f46681b20a08311156114b2575060009050600361155f565b8460ff16601b141580156114ca57508460ff16601c14155b156114db575060009050600461155f565b6040805160008082526020820180845289905260ff881692820192909252606081018690526080810185905260019060a0016020604051602081039080840390855afa15801561152f573d6000803e3d6000fd5b5050604051601f1901519150506001600160a01b0381166115585760006001925092505061155f565b9150600090505b94509492505050565b600081600481111561157c5761157c61217d565b14156115855750565b60018160048111156115995761159961217d565b14156115e75760405162461bcd60e51b815260206004820152601860248201527f45434453413a20696e76616c6964207369676e6174757265000000000000000060448201526064016106cf565b60028160048111156115fb576115fb61217d565b14156116495760405162461bcd60e51b815260206004820152601f60248201527f45434453413a20696e76616c6964207369676e6174757265206c656e6774680060448201526064016106cf565b600381600481111561165d5761165d61217d565b14156116b65760405162461bcd60e51b815260206004820152602260248201527f45434453413a20696e76616c6964207369676e6174757265202773272076616c604482015261756560f01b60648201526084016106cf565b60048160048111156116ca576116ca61217d565b14156106e15760405162461bcd60e51b815260206004820152602260248201527f45434453413a20696e76616c6964207369676e6174757265202776272076616c604482015261756560f01b60648201526084016106cf565b60008481526005602090815260408083206001600160a01b0387168452600381019092529091205460ff16156117ab5760405162461bcd60e51b815260206004820152602760248201527f476f7665726e6f72566f74696e6753696d706c653a20766f746520616c726561604482015266191e4818d85cdd60ca1b60648201526084016106cf565b6001600160a01b03841660009081526003820160205260408120805460ff1916600117905560ff168360ff1614156117fc57818160000160008282546117f191906125ba565b90915550610e329050565b60ff83166001141561181c57818160010160008282546117f191906125ba565b60ff83166002141561183c57818160020160008282546117f191906125ba565b60405162461bcd60e51b815260206004820152603560248201527f476f7665726e6f72566f74696e6753696d706c653a20696e76616c69642076616044820152746c756520666f7220656e756d20566f74655479706560581b60648201526084016106cf565b6000818152600160208181526040808420815160a08101835281546001600160401b0390811660808301908152825283518086018552958301541685529283019390935260029092015460ff808216158015948401949094526101009091041615156060820152906119175750600792915050565b80606001511561192a5750600292915050565b80515143906001600160401b0316106119465750600092915050565b4361195382602001515190565b6001600160401b03161061196a5750600192915050565b6119778160200151611cdd565b156119b85761198583611d0c565b80156119a4575060008381526005602052604090208054600190910154115b6119af576003610cb1565b60049392505050565b60405162461bcd60e51b815260206004820152601d60248201527f476f7665726e6f723a20756e6b6e6f776e2070726f706f73616c20696400000060448201526064016106cf565b50919050565b6000683635c9adc5dea00000611a21336105ed6001436126a8565b1015611aa15760405162461bcd60e51b815260206004820152604360248201527f476f7665726e6f72436f6d7061746962696c697479427261766f3a2070726f7060448201527f6f73657220766f7465732062656c6f772070726f706f73616c207468726573686064820152621bdb1960ea1b608482015260a4016106cf565b6000611ab68686868680519060200120610ce7565b90508451865114611ad95760405162461bcd60e51b81526004016106cf906126bf565b8351865114611afa5760405162461bcd60e51b81526004016106cf906126bf565b6000865111611b4b5760405162461bcd60e51b815260206004820152601860248201527f476f7665726e6f723a20656d7074792070726f706f73616c000000000000000060448201526064016106cf565b600081815260016020908152604091829020825191820190925281546001600160401b03169081905215611bcb5760405162461bcd60e51b815260206004820152602160248201527f476f7665726e6f723a2070726f706f73616c20616c72656164792065786973746044820152607360f81b60648201526084016106cf565b6000611bd76001611d43565b611be043611d43565b611bea9190612700565b90506000611bf961b2fa611d43565b611c039083612700565b835467ffffffffffffffff19166001600160401b038416178455905060018301805467ffffffffffffffff19166001600160401b0383161790557f7d84a6263ae0d98d3329bd7b46bb4e8d6f98cd35a7adb45c274c8b7fd5ebd5e084338b8b8d516001600160401b03811115611c7b57611c7b611e52565b604051908082528060200260200182016040528015611cae57816020015b6060815260200190600190039081611c995790505b508c88888e604051611cc89998979695949392919061272b565b60405180910390a15091979650505050505050565b6000611cf282516001600160401b0316151590565b801561066a57505051436001600160401b03909116111590565b600081815260056020526040812060028101546001820154611d2e91906125ba565b611d3a61060d85610a49565b11159392505050565b60006001600160401b03821115611dab5760405162461bcd60e51b815260206004820152602660248201527f53616665436173743a2076616c756520646f65736e27742066697420696e203660448201526534206269747360d01b60648201526084016106cf565b5090565b600060208284031215611dc157600080fd5b81356001600160e01b031981168114610cb157600080fd5b600060208284031215611deb57600080fd5b5035919050565b6000815180845260005b81811015611e1857602081850181015186830182015201611dfc565b81811115611e2a576000602083870101525b50601f01601f19169290920160200192915050565b602081526000610cb16020830184611df2565b634e487b7160e01b600052604160045260246000fd5b604051601f8201601f191681016001600160401b0381118282101715611e9057611e90611e52565b604052919050565b60006001600160401b03821115611eb157611eb1611e52565b5060051b60200190565b6001600160a01b03811681146106e157600080fd5b600082601f830112611ee157600080fd5b81356020611ef6611ef183611e98565b611e68565b82815260059290921b84018101918181019086841115611f1557600080fd5b8286015b84811015611f39578035611f2c81611ebb565b8352918301918301611f19565b509695505050505050565b600082601f830112611f5557600080fd5b81356020611f65611ef183611e98565b82815260059290921b84018101918181019086841115611f8457600080fd5b8286015b84811015611f395780358352918301918301611f88565b60006001600160401b03831115611fb857611fb8611e52565b611fcb601f8401601f1916602001611e68565b9050828152838383011115611fdf57600080fd5b828260208301376000602084830101529392505050565b600082601f83011261200757600080fd5b81356020612017611ef183611e98565b82815260059290921b8401810191818101908684111561203657600080fd5b8286015b84811015611f395780356001600160401b038111156120595760008081fd5b8701603f8101891361206b5760008081fd5b61207c898683013560408401611f9f565b84525091830191830161203a565b600080600080608085870312156120a057600080fd5b84356001600160401b03808211156120b757600080fd5b6120c388838901611ed0565b955060208701359150808211156120d957600080fd5b6120e588838901611f44565b945060408701359150808211156120fb57600080fd5b5061210887828801611ff6565b949793965093946060013593505050565b803560ff8116811461212a57600080fd5b919050565b600080600080600060a0868803121561214757600080fd5b8535945061215760208701612119565b935061216560408701612119565b94979396509394606081013594506080013592915050565b634e487b7160e01b600052602160045260246000fd5b60208101600883106121b557634e487b7160e01b600052602160045260246000fd5b91905290565b600080604083850312156121ce57600080fd5b8235915060208301356121e081611ebb565b809150509250929050565b600080604083850312156121fe57600080fd5b8235915061220e60208401612119565b90509250929050565b6000806000806060858703121561222d57600080fd5b8435935061223d60208601612119565b925060408501356001600160401b038082111561225957600080fd5b818701915087601f83011261226d57600080fd5b81358181111561227c57600080fd5b88602082850101111561228e57600080fd5b95989497505060200194505050565b600080600080608085870312156122b357600080fd5b84356001600160401b03808211156122ca57600080fd5b6122d688838901611ed0565b955060208701359150808211156122ec57600080fd5b6122f888838901611f44565b9450604087013591508082111561230e57600080fd5b61231a88838901611ff6565b9350606087013591508082111561233057600080fd5b508501601f8101871361234257600080fd5b61235187823560208401611f9f565b91505092959194509250565b60006020828403121561236f57600080fd5b8135610cb181611ebb565b6000806040838503121561238d57600080fd5b823561239881611ebb565b946020939093013593505050565b600181811c908216806123ba57607f821691505b60208210811415611a0057634e487b7160e01b600052602260045260246000fd5b60208082526021908201527f476f7665726e6f723a2070726f706f73616c206e6f74207375636365737366756040820152601b60fa1b606082015260800190565b60006020828403121561242e57600080fd5b5051919050565b600081518084526020808501945080840160005b8381101561246e5781516001600160a01b031687529582019590820190600101612449565b509495945050505050565b600081518084526020808501945080840160005b8381101561246e5781518752958201959082019060010161248d565b600081518084526020808501808196508360051b8101915082860160005b858110156124f15782840389526124df848351611df2565b988501989350908401906001016124c7565b5091979650505050505050565b60a08152600061251160a0830188612435565b82810360208401526125238188612479565b9050828103604084015261253781876124a9565b60608401959095525050608001529392505050565b60c08152600061255f60c0830189612435565b82810360208401526125718189612479565b9050828103604084015261258581886124a9565b60608401969096525050608081019290925260a0909101529392505050565b634e487b7160e01b600052601160045260246000fd5b600082198211156125cd576125cd6125a4565b500190565b6080815260006125e56080830187612435565b82810360208401526125f78187612479565b9050828103604084015261260b81866124a9565b91505082606083015295945050505050565b84815260ff84166020820152826040820152608060608201526000610b906080830184611df2565b60006020828403121561265757600080fd5b81518015158114610cb157600080fd5b6000816000190483118215151615612681576126816125a4565b500290565b6000826126a357634e487b7160e01b600052601260045260246000fd5b500490565b6000828210156126ba576126ba6125a4565b500390565b60208082526021908201527f476f7665726e6f723a20696e76616c69642070726f706f73616c206c656e67746040820152600d60fb1b606082015260800190565b60006001600160401b03808316818516808303821115612722576127226125a4565b01949350505050565b60006101208b8352602060018060a01b038c16818501528160408501526127548285018c612435565b91508382036060850152612768828b612479565b915083820360808501528189518084528284019150828160051b850101838c0160005b838110156127b957601f198784030185526127a7838351611df2565b9486019492509085019060010161278b565b505086810360a08801526127cd818c6124a9565b9450505050506127e860c08401876001600160401b03169052565b6001600160401b03851660e084015282810361010084015261280a8185611df2565b9c9b50505050505050505050505056fea264697066735822122005eea54540e0ef886963337493958a16b1f582f5dda3d99388cea1d2e0a7d0cb64736f6c634300080a0033",
    "sourcePath": "d:/Github/new_token/contracts/contracts/mocks/wizard/MyGovernor2.sol",
    "compiler": {
        "name": "solc",
        "version": "0.8.10+commit.fc410830"
    },
    "functionHashes": {
        "BALLOT_TYPEHASH()": "deaaa7cc",
        "COUNTING_MODE()": "dd4e2ba5",
        "castVote(uint256,uint8)": "56781388",
        "castVoteBySig(uint256,uint8,uint8,bytes32,bytes32)": "3bccf4fd",
        "castVoteWithReason(uint256,uint8,string)": "7b3c71d3",
        "execute(address[],uint256[],bytes[],bytes32)": "2656227d",
        "getVotes(address,uint256)": "eb9019d4",
        "hasVoted(uint256,address)": "43859632",
        "hashProposal(address[],uint256[],bytes[],bytes32)": "c59057e4",
        "name()": "06fdde03",
        "proposalDeadline(uint256)": "c01f9e37",
        "proposalEta(uint256)": "ab58fb8e",
        "proposalSnapshot(uint256)": "2d63f693",
        "proposalThreshold()": "b58131b0",
        "proposalVotes(uint256)": "544ffc9c",
        "propose(address[],uint256[],bytes[],string)": "7d5e81e2",
        "queue(address[],uint256[],bytes[],bytes32)": "160cbed7",
        "quorum(uint256)": "f8ce560a",
        "quorumDenominator()": "97c3d334",
        "quorumNumerator()": "a7713a70",
        "state(uint256)": "3e4f49e6",
        "supportsInterface(bytes4)": "01ffc9a7",
        "timelock()": "d33219b4",
        "token()": "fc0c546a",
        "updateQuorumNumerator(uint256)": "06f3f9e6",
        "updateTimelock(address)": "a890c910",
        "version()": "54fd4d50",
        "votingDelay()": "3932abb1",
        "votingPeriod()": "02a251a3"
    },
    "gasEstimates": {
        "creation": {
            "codeDepositCost": "2064000",
            "executionCost": "infinite",
            "totalCost": "infinite"
        },
        "external": {
            "BALLOT_TYPEHASH()": "239",
            "COUNTING_MODE()": "infinite",
            "castVote(uint256,uint8)": "infinite",
            "castVoteBySig(uint256,uint8,uint8,bytes32,bytes32)": "infinite",
            "castVoteWithReason(uint256,uint8,string)": "infinite",
            "execute(address[],uint256[],bytes[],bytes32)": "infinite",
            "getVotes(address,uint256)": "infinite",
            "hasVoted(uint256,address)": "2693",
            "hashProposal(address[],uint256[],bytes[],bytes32)": "infinite",
            "name()": "infinite",
            "proposalDeadline(uint256)": "2607",
            "proposalEta(uint256)": "infinite",
            "proposalSnapshot(uint256)": "2654",
            "proposalThreshold()": "303",
            "proposalVotes(uint256)": "6774",
            "propose(address[],uint256[],bytes[],string)": "infinite",
            "queue(address[],uint256[],bytes[],bytes32)": "infinite",
            "quorum(uint256)": "infinite",
            "quorumDenominator()": "282",
            "quorumNumerator()": "2337",
            "state(uint256)": "infinite",
            "supportsInterface(bytes4)": "infinite",
            "timelock()": "2409",
            "token()": "infinite",
            "updateQuorumNumerator(uint256)": "28146",
            "updateTimelock(address)": "infinite",
            "version()": "infinite",
            "votingDelay()": "238",
            "votingPeriod()": "250"
        },
        "internal": {
            "_cancel(address[] memory,uint256[] memory,bytes memory[] memory,bytes32)": "infinite",
            "_execute(uint256,address[] memory,uint256[] memory,bytes memory[] memory,bytes32)": "infinite",
            "_executor()": "2156"
        }
    }
}