{
    "contractName": "MyGovernor1",
    "abi": [
        {
            "inputs": [
                {
                    "internalType": "contract ERC20Votes",
                    "name": "_token",
                    "type": "address"
                },
                {
                    "internalType": "contract TimelockController",
                    "name": "_timelock",
                    "type": "address"
                }
            ],
            "stateMutability": "nonpayable",
            "type": "constructor"
        },
        {
            "anonymous": false,
            "inputs": [
                {
                    "indexed": false,
                    "internalType": "uint256",
                    "name": "proposalId",
                    "type": "uint256"
                }
            ],
            "name": "ProposalCanceled",
            "type": "event"
        },
        {
            "anonymous": false,
            "inputs": [
                {
                    "indexed": false,
                    "internalType": "uint256",
                    "name": "proposalId",
                    "type": "uint256"
                },
                {
                    "indexed": false,
                    "internalType": "address",
                    "name": "proposer",
                    "type": "address"
                },
                {
                    "indexed": false,
                    "internalType": "address[]",
                    "name": "targets",
                    "type": "address[]"
                },
                {
                    "indexed": false,
                    "internalType": "uint256[]",
                    "name": "values",
                    "type": "uint256[]"
                },
                {
                    "indexed": false,
                    "internalType": "string[]",
                    "name": "signatures",
                    "type": "string[]"
                },
                {
                    "indexed": false,
                    "internalType": "bytes[]",
                    "name": "calldatas",
                    "type": "bytes[]"
                },
                {
                    "indexed": false,
                    "internalType": "uint256",
                    "name": "startBlock",
                    "type": "uint256"
                },
                {
                    "indexed": false,
                    "internalType": "uint256",
                    "name": "endBlock",
                    "type": "uint256"
                },
                {
                    "indexed": false,
                    "internalType": "string",
                    "name": "description",
                    "type": "string"
                }
            ],
            "name": "ProposalCreated",
            "type": "event"
        },
        {
            "anonymous": false,
            "inputs": [
                {
                    "indexed": false,
                    "internalType": "uint256",
                    "name": "proposalId",
                    "type": "uint256"
                }
            ],
            "name": "ProposalExecuted",
            "type": "event"
        },
        {
            "anonymous": false,
            "inputs": [
                {
                    "indexed": false,
                    "internalType": "uint256",
                    "name": "proposalId",
                    "type": "uint256"
                },
                {
                    "indexed": false,
                    "internalType": "uint256",
                    "name": "eta",
                    "type": "uint256"
                }
            ],
            "name": "ProposalQueued",
            "type": "event"
        },
        {
            "anonymous": false,
            "inputs": [
                {
                    "indexed": false,
                    "internalType": "uint256",
                    "name": "oldQuorumNumerator",
                    "type": "uint256"
                },
                {
                    "indexed": false,
                    "internalType": "uint256",
                    "name": "newQuorumNumerator",
                    "type": "uint256"
                }
            ],
            "name": "QuorumNumeratorUpdated",
            "type": "event"
        },
        {
            "anonymous": false,
            "inputs": [
                {
                    "indexed": false,
                    "internalType": "address",
                    "name": "oldTimelock",
                    "type": "address"
                },
                {
                    "indexed": false,
                    "internalType": "address",
                    "name": "newTimelock",
                    "type": "address"
                }
            ],
            "name": "TimelockChange",
            "type": "event"
        },
        {
            "anonymous": false,
            "inputs": [
                {
                    "indexed": true,
                    "internalType": "address",
                    "name": "voter",
                    "type": "address"
                },
                {
                    "indexed": false,
                    "internalType": "uint256",
                    "name": "proposalId",
                    "type": "uint256"
                },
                {
                    "indexed": false,
                    "internalType": "uint8",
                    "name": "support",
                    "type": "uint8"
                },
                {
                    "indexed": false,
                    "internalType": "uint256",
                    "name": "weight",
                    "type": "uint256"
                },
                {
                    "indexed": false,
                    "internalType": "string",
                    "name": "reason",
                    "type": "string"
                }
            ],
            "name": "VoteCast",
            "type": "event"
        },
        {
            "inputs": [],
            "name": "BALLOT_TYPEHASH",
            "outputs": [
                {
                    "internalType": "bytes32",
                    "name": "",
                    "type": "bytes32"
                }
            ],
            "stateMutability": "view",
            "type": "function"
        },
        {
            "inputs": [],
            "name": "COUNTING_MODE",
            "outputs": [
                {
                    "internalType": "string",
                    "name": "",
                    "type": "string"
                }
            ],
            "stateMutability": "pure",
            "type": "function"
        },
        {
            "inputs": [
                {
                    "internalType": "uint256",
                    "name": "proposalId",
                    "type": "uint256"
                },
                {
                    "internalType": "uint8",
                    "name": "support",
                    "type": "uint8"
                }
            ],
            "name": "castVote",
            "outputs": [
                {
                    "internalType": "uint256",
                    "name": "",
                    "type": "uint256"
                }
            ],
            "stateMutability": "nonpayable",
            "type": "function"
        },
        {
            "inputs": [
                {
                    "internalType": "uint256",
                    "name": "proposalId",
                    "type": "uint256"
                },
                {
                    "internalType": "uint8",
                    "name": "support",
                    "type": "uint8"
                },
                {
                    "internalType": "uint8",
                    "name": "v",
                    "type": "uint8"
                },
                {
                    "internalType": "bytes32",
                    "name": "r",
                    "type": "bytes32"
                },
                {
                    "internalType": "bytes32",
                    "name": "s",
                    "type": "bytes32"
                }
            ],
            "name": "castVoteBySig",
            "outputs": [
                {
                    "internalType": "uint256",
                    "name": "",
                    "type": "uint256"
                }
            ],
            "stateMutability": "nonpayable",
            "type": "function"
        },
        {
            "inputs": [
                {
                    "internalType": "uint256",
                    "name": "proposalId",
                    "type": "uint256"
                },
                {
                    "internalType": "uint8",
                    "name": "support",
                    "type": "uint8"
                },
                {
                    "internalType": "string",
                    "name": "reason",
                    "type": "string"
                }
            ],
            "name": "castVoteWithReason",
            "outputs": [
                {
                    "internalType": "uint256",
                    "name": "",
                    "type": "uint256"
                }
            ],
            "stateMutability": "nonpayable",
            "type": "function"
        },
        {
            "inputs": [
                {
                    "internalType": "address[]",
                    "name": "targets",
                    "type": "address[]"
                },
                {
                    "internalType": "uint256[]",
                    "name": "values",
                    "type": "uint256[]"
                },
                {
                    "internalType": "bytes[]",
                    "name": "calldatas",
                    "type": "bytes[]"
                },
                {
                    "internalType": "bytes32",
                    "name": "descriptionHash",
                    "type": "bytes32"
                }
            ],
            "name": "execute",
            "outputs": [
                {
                    "internalType": "uint256",
                    "name": "",
                    "type": "uint256"
                }
            ],
            "stateMutability": "payable",
            "type": "function"
        },
        {
            "inputs": [
                {
                    "internalType": "address",
                    "name": "account",
                    "type": "address"
                },
                {
                    "internalType": "uint256",
                    "name": "blockNumber",
                    "type": "uint256"
                }
            ],
            "name": "getVotes",
            "outputs": [
                {
                    "internalType": "uint256",
                    "name": "",
                    "type": "uint256"
                }
            ],
            "stateMutability": "view",
            "type": "function"
        },
        {
            "inputs": [
                {
                    "internalType": "uint256",
                    "name": "proposalId",
                    "type": "uint256"
                },
                {
                    "internalType": "address",
                    "name": "account",
                    "type": "address"
                }
            ],
            "name": "hasVoted",
            "outputs": [
                {
                    "internalType": "bool",
                    "name": "",
                    "type": "bool"
                }
            ],
            "stateMutability": "view",
            "type": "function"
        },
        {
            "inputs": [
                {
                    "internalType": "address[]",
                    "name": "targets",
                    "type": "address[]"
                },
                {
                    "internalType": "uint256[]",
                    "name": "values",
                    "type": "uint256[]"
                },
                {
                    "internalType": "bytes[]",
                    "name": "calldatas",
                    "type": "bytes[]"
                },
                {
                    "internalType": "bytes32",
                    "name": "descriptionHash",
                    "type": "bytes32"
                }
            ],
            "name": "hashProposal",
            "outputs": [
                {
                    "internalType": "uint256",
                    "name": "",
                    "type": "uint256"
                }
            ],
            "stateMutability": "pure",
            "type": "function"
        },
        {
            "inputs": [],
            "name": "name",
            "outputs": [
                {
                    "internalType": "string",
                    "name": "",
                    "type": "string"
                }
            ],
            "stateMutability": "view",
            "type": "function"
        },
        {
            "inputs": [
                {
                    "internalType": "uint256",
                    "name": "proposalId",
                    "type": "uint256"
                }
            ],
            "name": "proposalDeadline",
            "outputs": [
                {
                    "internalType": "uint256",
                    "name": "",
                    "type": "uint256"
                }
            ],
            "stateMutability": "view",
            "type": "function"
        },
        {
            "inputs": [
                {
                    "internalType": "uint256",
                    "name": "proposalId",
                    "type": "uint256"
                }
            ],
            "name": "proposalEta",
            "outputs": [
                {
                    "internalType": "uint256",
                    "name": "",
                    "type": "uint256"
                }
            ],
            "stateMutability": "view",
            "type": "function"
        },
        {
            "inputs": [
                {
                    "internalType": "uint256",
                    "name": "proposalId",
                    "type": "uint256"
                }
            ],
            "name": "proposalSnapshot",
            "outputs": [
                {
                    "internalType": "uint256",
                    "name": "",
                    "type": "uint256"
                }
            ],
            "stateMutability": "view",
            "type": "function"
        },
        {
            "inputs": [],
            "name": "proposalThreshold",
            "outputs": [
                {
                    "internalType": "uint256",
                    "name": "",
                    "type": "uint256"
                }
            ],
            "stateMutability": "view",
            "type": "function"
        },
        {
            "inputs": [
                {
                    "internalType": "uint256",
                    "name": "proposalId",
                    "type": "uint256"
                }
            ],
            "name": "proposalVotes",
            "outputs": [
                {
                    "internalType": "uint256",
                    "name": "againstVotes",
                    "type": "uint256"
                },
                {
                    "internalType": "uint256",
                    "name": "forVotes",
                    "type": "uint256"
                },
                {
                    "internalType": "uint256",
                    "name": "abstainVotes",
                    "type": "uint256"
                }
            ],
            "stateMutability": "view",
            "type": "function"
        },
        {
            "inputs": [
                {
                    "internalType": "address[]",
                    "name": "targets",
                    "type": "address[]"
                },
                {
                    "internalType": "uint256[]",
                    "name": "values",
                    "type": "uint256[]"
                },
                {
                    "internalType": "bytes[]",
                    "name": "calldatas",
                    "type": "bytes[]"
                },
                {
                    "internalType": "string",
                    "name": "description",
                    "type": "string"
                }
            ],
            "name": "propose",
            "outputs": [
                {
                    "internalType": "uint256",
                    "name": "",
                    "type": "uint256"
                }
            ],
            "stateMutability": "nonpayable",
            "type": "function"
        },
        {
            "inputs": [
                {
                    "internalType": "address[]",
                    "name": "targets",
                    "type": "address[]"
                },
                {
                    "internalType": "uint256[]",
                    "name": "values",
                    "type": "uint256[]"
                },
                {
                    "internalType": "bytes[]",
                    "name": "calldatas",
                    "type": "bytes[]"
                },
                {
                    "internalType": "bytes32",
                    "name": "descriptionHash",
                    "type": "bytes32"
                }
            ],
            "name": "queue",
            "outputs": [
                {
                    "internalType": "uint256",
                    "name": "",
                    "type": "uint256"
                }
            ],
            "stateMutability": "nonpayable",
            "type": "function"
        },
        {
            "inputs": [
                {
                    "internalType": "uint256",
                    "name": "blockNumber",
                    "type": "uint256"
                }
            ],
            "name": "quorum",
            "outputs": [
                {
                    "internalType": "uint256",
                    "name": "",
                    "type": "uint256"
                }
            ],
            "stateMutability": "view",
            "type": "function"
        },
        {
            "inputs": [],
            "name": "quorumDenominator",
            "outputs": [
                {
                    "internalType": "uint256",
                    "name": "",
                    "type": "uint256"
                }
            ],
            "stateMutability": "view",
            "type": "function"
        },
        {
            "inputs": [],
            "name": "quorumNumerator",
            "outputs": [
                {
                    "internalType": "uint256",
                    "name": "",
                    "type": "uint256"
                }
            ],
            "stateMutability": "view",
            "type": "function"
        },
        {
            "inputs": [
                {
                    "internalType": "uint256",
                    "name": "proposalId",
                    "type": "uint256"
                }
            ],
            "name": "state",
            "outputs": [
                {
                    "internalType": "enum IGovernor.ProposalState",
                    "name": "",
                    "type": "uint8"
                }
            ],
            "stateMutability": "view",
            "type": "function"
        },
        {
            "inputs": [
                {
                    "internalType": "bytes4",
                    "name": "interfaceId",
                    "type": "bytes4"
                }
            ],
            "name": "supportsInterface",
            "outputs": [
                {
                    "internalType": "bool",
                    "name": "",
                    "type": "bool"
                }
            ],
            "stateMutability": "view",
            "type": "function"
        },
        {
            "inputs": [],
            "name": "timelock",
            "outputs": [
                {
                    "internalType": "address",
                    "name": "",
                    "type": "address"
                }
            ],
            "stateMutability": "view",
            "type": "function"
        },
        {
            "inputs": [],
            "name": "token",
            "outputs": [
                {
                    "internalType": "contract ERC20Votes",
                    "name": "",
                    "type": "address"
                }
            ],
            "stateMutability": "view",
            "type": "function"
        },
        {
            "inputs": [
                {
                    "internalType": "uint256",
                    "name": "newQuorumNumerator",
                    "type": "uint256"
                }
            ],
            "name": "updateQuorumNumerator",
            "outputs": [],
            "stateMutability": "nonpayable",
            "type": "function"
        },
        {
            "inputs": [
                {
                    "internalType": "contract TimelockController",
                    "name": "newTimelock",
                    "type": "address"
                }
            ],
            "name": "updateTimelock",
            "outputs": [],
            "stateMutability": "nonpayable",
            "type": "function"
        },
        {
            "inputs": [],
            "name": "version",
            "outputs": [
                {
                    "internalType": "string",
                    "name": "",
                    "type": "string"
                }
            ],
            "stateMutability": "view",
            "type": "function"
        },
        {
            "inputs": [],
            "name": "votingDelay",
            "outputs": [
                {
                    "internalType": "uint256",
                    "name": "",
                    "type": "uint256"
                }
            ],
            "stateMutability": "pure",
            "type": "function"
        },
        {
            "inputs": [],
            "name": "votingPeriod",
            "outputs": [
                {
                    "internalType": "uint256",
                    "name": "",
                    "type": "uint256"
                }
            ],
            "stateMutability": "pure",
            "type": "function"
        },
        {
            "stateMutability": "payable",
            "type": "receive"
        }
    ],
    "bytecode": "6101606040523480156200001257600080fd5b5060405162002c6938038062002c69833981016040819052620000359162000353565b600482826040518060400160405280600a81526020016926bca3b7bb32b93737b960b11b815250806200006d6200014360201b60201c565b815160208084019190912082518383012060e08290526101008190524660a0818152604080517f8b73c3c69bb8fe3d512ecc4cf759cc79239f7b179b0ffacaa9a75d522b39400f81880181905281830187905260608201869052608082019490945230818401528151808203909301835260c00190528051940193909320919290916080523060c052610120525050825162000113925060009150602084019062000294565b50620001219050816200015e565b506001600160a01b0316610140526200013a81620001c7565b505050620003cf565b6040805180820190915260018152603160f81b602082015290565b600254604080516001600160a01b03928316815291831660208301527f08f74ea46ef7894f65eabfb5e6e695de773a000b47c529ab559178069b226401910160405180910390a1600280546001600160a01b0319166001600160a01b0392909216919091179055565b60648111156200024f5760405162461bcd60e51b815260206004820152604360248201527f476f7665726e6f72566f74657351756f72756d4672616374696f6e3a2071756f60448201527f72756d4e756d657261746f72206f7665722071756f72756d44656e6f6d696e616064820152623a37b960e91b608482015260a40160405180910390fd5b600480549082905560408051828152602081018490527f0553476bf02ef2726e8ce5ced78d63e26e602e4a2257b1f559418e24b4633997910160405180910390a15050565b828054620002a29062000392565b90600052602060002090601f016020900481019282620002c6576000855562000311565b82601f10620002e157805160ff191683800117855562000311565b8280016001018555821562000311579182015b8281111562000311578251825591602001919060010190620002f4565b506200031f92915062000323565b5090565b5b808211156200031f576000815560010162000324565b6001600160a01b03811681146200035057600080fd5b50565b600080604083850312156200036757600080fd5b825162000374816200033a565b602084015190925062000387816200033a565b809150509250929050565b600181811c90821680620003a757607f821691505b60208210811415620003c957634e487b7160e01b600052602260045260246000fd5b50919050565b60805160a05160c05160e051610100516101205161014051612831620004386000396000818161061c0152818161145201526114dc01526000611696015260006116e5015260006116c001526000611619015260006116430152600061166d01526128316000f3fe6080604052600436106101c65760003560e01c80637b3c71d3116100f7578063c01f9e3711610095578063deaaa7cc11610064578063deaaa7cc14610596578063eb9019d4146105ca578063f8ce560a146105ea578063fc0c546a1461060a57600080fd5b8063c01f9e37146104de578063c59057e4146104fe578063d33219b41461051e578063dd4e2ba51461055057600080fd5b8063a7713a70116100d1578063a7713a7014610475578063a890c9101461048a578063ab58fb8e146104aa578063b58131b0146104ca57600080fd5b80637b3c71d3146104215780637d5e81e21461044157806397c3d3341461046157600080fd5b80633932abb111610164578063438596321161013e5780634385963214610338578063544ffc9c1461038257806354fd4d50146103d7578063567813881461040157600080fd5b80633932abb1146102d75780633bccf4fd146102eb5780633e4f49e61461030b57600080fd5b806306fdde03116101a057806306fdde0314610262578063160cbed7146102845780632656227d146102a45780632d63f693146102b757600080fd5b806301ffc9a7146101ee57806302a251a31461022357806306f3f9e61461024257600080fd5b366101e957306101d461063e565b6001600160a01b0316146101e757600080fd5b005b600080fd5b3480156101fa57600080fd5b5061020e610209366004611d90565b610657565b60405190151581526020015b60405180910390f35b34801561022f57600080fd5b5061b2fa5b60405190815260200161021a565b34801561024e57600080fd5b506101e761025d366004611dba565b610668565b34801561026e57600080fd5b506102776106dc565b60405161021a9190611e20565b34801561029057600080fd5b5061023461029f36600461206b565b61076e565b6102346102b236600461206b565b61096e565b3480156102c357600080fd5b506102346102d2366004611dba565b610a41565b3480156102e357600080fd5b506001610234565b3480156102f757600080fd5b50610234610306366004612110565b610a78565b34801561031757600080fd5b5061032b610326366004611dba565b610b0c565b60405161021a9190612174565b34801561034457600080fd5b5061020e61035336600461219c565b60008281526005602090815260408083206001600160a01b038516845260030190915290205460ff1692915050565b34801561038e57600080fd5b506103bc61039d366004611dba565b6000908152600560205260409020805460018201546002909201549092565b6040805193845260208401929092529082015260600161021a565b3480156103e357600080fd5b506040805180820190915260018152603160f81b6020820152610277565b34801561040d57600080fd5b5061023461041c3660046121cc565b610b17565b34801561042d57600080fd5b5061023461043c3660046121f8565b610b40565b34801561044d57600080fd5b5061023461045c36600461227e565b610b92565b34801561046d57600080fd5b506064610234565b34801561048157600080fd5b50600454610234565b34801561049657600080fd5b506101e76104a536600461233e565b610ba9565b3480156104b657600080fd5b506102346104c5366004611dba565b610c15565b3480156104d657600080fd5b506000610234565b3480156104ea57600080fd5b506102346104f9366004611dba565b610cb0565b34801561050a57600080fd5b5061023461051936600461206b565b610cdf565b34801561052a57600080fd5b506002546001600160a01b03165b6040516001600160a01b03909116815260200161021a565b34801561055c57600080fd5b506040805180820190915260208082527f737570706f72743d627261766f2671756f72756d3d666f722c6162737461696e90820152610277565b3480156105a257600080fd5b506102347f150214d74d59b7d1e90c73fc22ef3d991dd0a76b046543d4d80ab92d2a50328f81565b3480156105d657600080fd5b506102346105e536600461235b565b610d19565b3480156105f657600080fd5b50610234610605366004611dba565b610d25565b34801561061657600080fd5b506105387f000000000000000000000000000000000000000000000000000000000000000081565b60006106526002546001600160a01b031690565b905090565b600061066282610d30565b92915050565b61067061063e565b6001600160a01b0316336001600160a01b0316146106d05760405162461bcd60e51b8152602060048201526018602482015277476f7665726e6f723a206f6e6c79476f7665726e616e636560401b60448201526064015b60405180910390fd5b6106d981610d55565b50565b6060600080546106eb90612387565b80601f016020809104026020016040519081016040528092919081815260200182805461071790612387565b80156107645780601f1061073957610100808354040283529160200191610764565b820191906000526020600020905b81548152906001019060200180831161074757829003601f168201915b5050505050905090565b60008061077d86868686610cdf565b9050600461078a82610b0c565b600781111561079b5761079b61215e565b146107b85760405162461bcd60e51b81526004016106c7906123bc565b6002546040805163793d064960e11b815290516000926001600160a01b03169163f27a0c929160048083019260209291908290030181865afa158015610802573d6000803e3d6000fd5b505050506040513d601f19601f8201168201806040525081019061082691906123fd565b60025460405163b1c5f42760e01b81529192506001600160a01b03169063b1c5f42790610860908a908a908a906000908b906004016124df565b602060405180830381865afa15801561087d573d6000803e3d6000fd5b505050506040513d601f19601f820116820180604052508101906108a191906123fd565b6000838152600360205260408082209290925560025491516308f2a0bb60e41b81526001600160a01b0390921691638f2a0bb0916108ec918b918b918b91908b90899060040161252d565b600060405180830381600087803b15801561090657600080fd5b505af115801561091a573d6000803e3d6000fd5b505050507f9a2e42fd6722813d69113e7d0079d3d940171428df7373df9c7f7617cfda289282824261094c919061259b565b6040805192835260208301919091520160405180910390a15095945050505050565b60008061097d86868686610cdf565b9050600061098a82610b0c565b905060048160078111156109a0576109a061215e565b14806109bd575060058160078111156109bb576109bb61215e565b145b6109d95760405162461bcd60e51b81526004016106c7906123bc565b600082815260016020818152604092839020600201805460ff191690921790915590518381527f712ae1383f79ac853f8d882153778e0260ef8f03b504e2866e0593e04d2b291f910160405180910390a1610a378288888888610e1d565b5095945050505050565b60008181526001602090815260408083208151928301909152546001600160401b0316908190525b6001600160401b031692915050565b604080517f150214d74d59b7d1e90c73fc22ef3d991dd0a76b046543d4d80ab92d2a50328f602082015290810186905260ff851660608201526000908190610ae490610adc9060800160405160208183030381529060405280519060200120610e31565b868686610e7f565b9050610b0187828860405180602001604052806000815250610e9d565b979650505050505050565b600061066282610fa8565b600080339050610b3884828560405180602001604052806000815250610e9d565b949350505050565b600080339050610b8886828787878080601f016020809104026020016040519081016040528093929190818152602001838380828437600092019190915250610e9d92505050565b9695505050505050565b6000610ba0858585856110f2565b95945050505050565b610bb161063e565b6001600160a01b0316336001600160a01b031614610c0c5760405162461bcd60e51b8152602060048201526018602482015277476f7665726e6f723a206f6e6c79476f7665726e616e636560401b60448201526064016106c7565b6106d9816113c0565b60025460008281526003602052604080822054905163d45c443560e01b81526004810191909152909182916001600160a01b039091169063d45c443590602401602060405180830381865afa158015610c72573d6000803e3d6000fd5b505050506040513d601f19601f82011682018060405250810190610c9691906123fd565b905080600114610ca65780610ca9565b60005b9392505050565b60008181526001602081815260408084208151928301909152909101546001600160401b031690819052610a69565b600084848484604051602001610cf894939291906125b3565b60408051601f19818403018152919052805160209091012095945050505050565b6000610ca98383611429565b6000610662826114bf565b60006001600160e01b03198216636e665ced60e01b1480610662575061066282611563565b6064811115610dd85760405162461bcd60e51b815260206004820152604360248201527f476f7665726e6f72566f74657351756f72756d4672616374696f6e3a2071756f60448201527f72756d4e756d657261746f72206f7665722071756f72756d44656e6f6d696e616064820152623a37b960e91b608482015260a4016106c7565b600480549082905560408051828152602081018490527f0553476bf02ef2726e8ce5ced78d63e26e602e4a2257b1f559418e24b4633997910160405180910390a15050565b610e2a8585858585611598565b5050505050565b6000610662610e3e61160c565b8360405161190160f01b6020820152602281018390526042810182905260009060620160405160208183030381529060405280519060200120905092915050565b6000806000610e9087878787611733565b91509150610a3781611820565b6000848152600160208190526040822090610eb787610b0c565b6007811115610ec857610ec861215e565b14610f215760405162461bcd60e51b815260206004820152602360248201527f476f7665726e6f723a20766f7465206e6f742063757272656e746c792061637460448201526269766560e81b60648201526084016106c7565b604080516020810190915281546001600160401b031690819052600090610f49908790610d19565b9050610f57878787846119db565b856001600160a01b03167fb8e138887d0aa13bab447e82de9d5c1777041ecd21ca36ba824ff1e6c07ddda488878488604051610f9694939291906125fe565b60405180910390a29695505050505050565b600080610fb483611b5a565b90506004816007811115610fca57610fca61215e565b14610fd55792915050565b60008381526003602052604090205480610ff0575092915050565b600254604051632ab0f52960e01b8152600481018390526001600160a01b0390911690632ab0f52990602401602060405180830381865afa158015611039573d6000803e3d6000fd5b505050506040513d601f19601f8201168201806040525081019061105d9190612626565b1561106c575060079392505050565b600254604051632c258a9f60e11b8152600481018390526001600160a01b039091169063584b153e90602401602060405180830381865afa1580156110b5573d6000803e3d6000fd5b505050506040513d601f19601f820116820180604052508101906110d99190612626565b156110e8575060059392505050565b5060029392505050565b600080611104336105e5600143612648565b10156111845760405162461bcd60e51b815260206004820152604360248201527f476f7665726e6f72436f6d7061746962696c697479427261766f3a2070726f7060448201527f6f73657220766f7465732062656c6f772070726f706f73616c207468726573686064820152621bdb1960ea1b608482015260a4016106c7565b60006111998686868680519060200120610cdf565b905084518651146111bc5760405162461bcd60e51b81526004016106c79061265f565b83518651146111dd5760405162461bcd60e51b81526004016106c79061265f565b600086511161122e5760405162461bcd60e51b815260206004820152601860248201527f476f7665726e6f723a20656d7074792070726f706f73616c000000000000000060448201526064016106c7565b600081815260016020908152604091829020825191820190925281546001600160401b031690819052156112ae5760405162461bcd60e51b815260206004820152602160248201527f476f7665726e6f723a2070726f706f73616c20616c72656164792065786973746044820152607360f81b60648201526084016106c7565b60006112ba6001611cbe565b6112c343611cbe565b6112cd91906126a0565b905060006112dc61b2fa611cbe565b6112e690836126a0565b835467ffffffffffffffff19166001600160401b038416178455905060018301805467ffffffffffffffff19166001600160401b0383161790557f7d84a6263ae0d98d3329bd7b46bb4e8d6f98cd35a7adb45c274c8b7fd5ebd5e084338b8b8d516001600160401b0381111561135e5761135e611e33565b60405190808252806020026020018201604052801561139157816020015b606081526020019060019003908161137c5790505b508c88888e6040516113ab999897969594939291906126cb565b60405180910390a15091979650505050505050565b600254604080516001600160a01b03928316815291831660208301527f08f74ea46ef7894f65eabfb5e6e695de773a000b47c529ab559178069b226401910160405180910390a1600280546001600160a01b0319166001600160a01b0392909216919091179055565b604051630748d63560e31b81526001600160a01b038381166004830152602482018390526000917f000000000000000000000000000000000000000000000000000000000000000090911690633a46b1a890604401602060405180830381865afa15801561149b573d6000803e3d6000fd5b505050506040513d601f19601f82011682018060405250810190610ca991906123fd565b60006064600454604051632394e7a360e21b8152600481018590527f00000000000000000000000000000000000000000000000000000000000000006001600160a01b031690638e539e8c90602401602060405180830381865afa15801561152b573d6000803e3d6000fd5b505050506040513d601f19601f8201168201806040525081019061154f91906123fd565b61155991906127ba565b61066291906127d9565b60006001600160e01b0319821663bf26d89760e01b148061066257506301ffc9a760e01b6001600160e01b0319831614610662565b60025460405163e38335e560e01b81526001600160a01b039091169063e38335e59034906115d39088908890889060009089906004016124df565b6000604051808303818588803b1580156115ec57600080fd5b505af1158015611600573d6000803e3d6000fd5b50505050505050505050565b6000306001600160a01b037f00000000000000000000000000000000000000000000000000000000000000001614801561166557507f000000000000000000000000000000000000000000000000000000000000000046145b1561168f57507f000000000000000000000000000000000000000000000000000000000000000090565b50604080517f00000000000000000000000000000000000000000000000000000000000000006020808301919091527f0000000000000000000000000000000000000000000000000000000000000000828401527f000000000000000000000000000000000000000000000000000000000000000060608301524660808301523060a0808401919091528351808403909101815260c0909201909252805191012090565b6000807f7fffffffffffffffffffffffffffffff5d576e7357a4501ddfe92f46681b20a083111561176a5750600090506003611817565b8460ff16601b1415801561178257508460ff16601c14155b156117935750600090506004611817565b6040805160008082526020820180845289905260ff881692820192909252606081018690526080810185905260019060a0016020604051602081039080840390855afa1580156117e7573d6000803e3d6000fd5b5050604051601f1901519150506001600160a01b03811661181057600060019250925050611817565b9150600090505b94509492505050565b60008160048111156118345761183461215e565b141561183d5750565b60018160048111156118515761185161215e565b141561189f5760405162461bcd60e51b815260206004820152601860248201527f45434453413a20696e76616c6964207369676e6174757265000000000000000060448201526064016106c7565b60028160048111156118b3576118b361215e565b14156119015760405162461bcd60e51b815260206004820152601f60248201527f45434453413a20696e76616c6964207369676e6174757265206c656e6774680060448201526064016106c7565b60038160048111156119155761191561215e565b141561196e5760405162461bcd60e51b815260206004820152602260248201527f45434453413a20696e76616c6964207369676e6174757265202773272076616c604482015261756560f01b60648201526084016106c7565b60048160048111156119825761198261215e565b14156106d95760405162461bcd60e51b815260206004820152602260248201527f45434453413a20696e76616c6964207369676e6174757265202776272076616c604482015261756560f01b60648201526084016106c7565b60008481526005602090815260408083206001600160a01b0387168452600381019092529091205460ff1615611a635760405162461bcd60e51b815260206004820152602760248201527f476f7665726e6f72566f74696e6753696d706c653a20766f746520616c726561604482015266191e4818d85cdd60ca1b60648201526084016106c7565b6001600160a01b03841660009081526003820160205260408120805460ff1916600117905560ff168360ff161415611ab45781816000016000828254611aa9919061259b565b90915550610e2a9050565b60ff831660011415611ad45781816001016000828254611aa9919061259b565b60ff831660021415611af45781816002016000828254611aa9919061259b565b60405162461bcd60e51b815260206004820152603560248201527f476f7665726e6f72566f74696e6753696d706c653a20696e76616c69642076616044820152746c756520666f7220656e756d20566f74655479706560581b60648201526084016106c7565b6000818152600160208181526040808420815160a08101835281546001600160401b0390811660808301908152825283518086018552958301541685529283019390935260029092015460ff80821615801594840194909452610100909104161515606082015290611bcf5750600792915050565b806060015115611be25750600292915050565b80515143906001600160401b031610611bfe5750600092915050565b43611c0b82602001515190565b6001600160401b031610611c225750600192915050565b611c2f8160200151611d2a565b15611c7057611c3d83611d59565b8015611c5c575060008381526005602052604090208054600190910154115b611c67576003610ca9565b60049392505050565b60405162461bcd60e51b815260206004820152601d60248201527f476f7665726e6f723a20756e6b6e6f776e2070726f706f73616c20696400000060448201526064016106c7565b50919050565b60006001600160401b03821115611d265760405162461bcd60e51b815260206004820152602660248201527f53616665436173743a2076616c756520646f65736e27742066697420696e203660448201526534206269747360d01b60648201526084016106c7565b5090565b6000611d3f82516001600160401b0316151590565b801561066257505051436001600160401b03909116111590565b600081815260056020526040812060028101546001820154611d7b919061259b565b611d8761060585610a41565b11159392505050565b600060208284031215611da257600080fd5b81356001600160e01b031981168114610ca957600080fd5b600060208284031215611dcc57600080fd5b5035919050565b6000815180845260005b81811015611df957602081850181015186830182015201611ddd565b81811115611e0b576000602083870101525b50601f01601f19169290920160200192915050565b602081526000610ca96020830184611dd3565b634e487b7160e01b600052604160045260246000fd5b604051601f8201601f191681016001600160401b0381118282101715611e7157611e71611e33565b604052919050565b60006001600160401b03821115611e9257611e92611e33565b5060051b60200190565b6001600160a01b03811681146106d957600080fd5b600082601f830112611ec257600080fd5b81356020611ed7611ed283611e79565b611e49565b82815260059290921b84018101918181019086841115611ef657600080fd5b8286015b84811015611f1a578035611f0d81611e9c565b8352918301918301611efa565b509695505050505050565b600082601f830112611f3657600080fd5b81356020611f46611ed283611e79565b82815260059290921b84018101918181019086841115611f6557600080fd5b8286015b84811015611f1a5780358352918301918301611f69565b60006001600160401b03831115611f9957611f99611e33565b611fac601f8401601f1916602001611e49565b9050828152838383011115611fc057600080fd5b828260208301376000602084830101529392505050565b600082601f830112611fe857600080fd5b81356020611ff8611ed283611e79565b82815260059290921b8401810191818101908684111561201757600080fd5b8286015b84811015611f1a5780356001600160401b0381111561203a5760008081fd5b8701603f8101891361204c5760008081fd5b61205d898683013560408401611f80565b84525091830191830161201b565b6000806000806080858703121561208157600080fd5b84356001600160401b038082111561209857600080fd5b6120a488838901611eb1565b955060208701359150808211156120ba57600080fd5b6120c688838901611f25565b945060408701359150808211156120dc57600080fd5b506120e987828801611fd7565b949793965093946060013593505050565b803560ff8116811461210b57600080fd5b919050565b600080600080600060a0868803121561212857600080fd5b85359450612138602087016120fa565b9350612146604087016120fa565b94979396509394606081013594506080013592915050565b634e487b7160e01b600052602160045260246000fd5b602081016008831061219657634e487b7160e01b600052602160045260246000fd5b91905290565b600080604083850312156121af57600080fd5b8235915060208301356121c181611e9c565b809150509250929050565b600080604083850312156121df57600080fd5b823591506121ef602084016120fa565b90509250929050565b6000806000806060858703121561220e57600080fd5b8435935061221e602086016120fa565b925060408501356001600160401b038082111561223a57600080fd5b818701915087601f83011261224e57600080fd5b81358181111561225d57600080fd5b88602082850101111561226f57600080fd5b95989497505060200194505050565b6000806000806080858703121561229457600080fd5b84356001600160401b03808211156122ab57600080fd5b6122b788838901611eb1565b955060208701359150808211156122cd57600080fd5b6122d988838901611f25565b945060408701359150808211156122ef57600080fd5b6122fb88838901611fd7565b9350606087013591508082111561231157600080fd5b508501601f8101871361232357600080fd5b61233287823560208401611f80565b91505092959194509250565b60006020828403121561235057600080fd5b8135610ca981611e9c565b6000806040838503121561236e57600080fd5b823561237981611e9c565b946020939093013593505050565b600181811c9082168061239b57607f821691505b60208210811415611cb857634e487b7160e01b600052602260045260246000fd5b60208082526021908201527f476f7665726e6f723a2070726f706f73616c206e6f74207375636365737366756040820152601b60fa1b606082015260800190565b60006020828403121561240f57600080fd5b5051919050565b600081518084526020808501945080840160005b8381101561244f5781516001600160a01b03168752958201959082019060010161242a565b509495945050505050565b600081518084526020808501945080840160005b8381101561244f5781518752958201959082019060010161246e565b600081518084526020808501808196508360051b8101915082860160005b858110156124d25782840389526124c0848351611dd3565b988501989350908401906001016124a8565b5091979650505050505050565b60a0815260006124f260a0830188612416565b8281036020840152612504818861245a565b90508281036040840152612518818761248a565b60608401959095525050608001529392505050565b60c08152600061254060c0830189612416565b8281036020840152612552818961245a565b90508281036040840152612566818861248a565b60608401969096525050608081019290925260a0909101529392505050565b634e487b7160e01b600052601160045260246000fd5b600082198211156125ae576125ae612585565b500190565b6080815260006125c66080830187612416565b82810360208401526125d8818761245a565b905082810360408401526125ec818661248a565b91505082606083015295945050505050565b84815260ff84166020820152826040820152608060608201526000610b886080830184611dd3565b60006020828403121561263857600080fd5b81518015158114610ca957600080fd5b60008282101561265a5761265a612585565b500390565b60208082526021908201527f476f7665726e6f723a20696e76616c69642070726f706f73616c206c656e67746040820152600d60fb1b606082015260800190565b60006001600160401b038083168185168083038211156126c2576126c2612585565b01949350505050565b60006101208b8352602060018060a01b038c16818501528160408501526126f48285018c612416565b91508382036060850152612708828b61245a565b915083820360808501528189518084528284019150828160051b850101838c0160005b8381101561275957601f19878403018552612747838351611dd3565b9486019492509085019060010161272b565b505086810360a088015261276d818c61248a565b94505050505061278860c08401876001600160401b03169052565b6001600160401b03851660e08401528281036101008401526127aa8185611dd3565b9c9b505050505050505050505050565b60008160001904831182151516156127d4576127d4612585565b500290565b6000826127f657634e487b7160e01b600052601260045260246000fd5b50049056fea2646970667358221220047fe43b3e32c055f2365439f37f6a7e9443ae735f6e431d8094cdd989ed702b64736f6c634300080a0033",
    "sourcePath": "d:/Github/new_token/contracts/contracts/mocks/wizard/MyGovernor1.sol",
    "compiler": {
        "name": "solc",
        "version": "0.8.10+commit.fc410830"
    },
    "functionHashes": {
        "BALLOT_TYPEHASH()": "deaaa7cc",
        "COUNTING_MODE()": "dd4e2ba5",
        "castVote(uint256,uint8)": "56781388",
        "castVoteBySig(uint256,uint8,uint8,bytes32,bytes32)": "3bccf4fd",
        "castVoteWithReason(uint256,uint8,string)": "7b3c71d3",
        "execute(address[],uint256[],bytes[],bytes32)": "2656227d",
        "getVotes(address,uint256)": "eb9019d4",
        "hasVoted(uint256,address)": "43859632",
        "hashProposal(address[],uint256[],bytes[],bytes32)": "c59057e4",
        "name()": "06fdde03",
        "proposalDeadline(uint256)": "c01f9e37",
        "proposalEta(uint256)": "ab58fb8e",
        "proposalSnapshot(uint256)": "2d63f693",
        "proposalThreshold()": "b58131b0",
        "proposalVotes(uint256)": "544ffc9c",
        "propose(address[],uint256[],bytes[],string)": "7d5e81e2",
        "queue(address[],uint256[],bytes[],bytes32)": "160cbed7",
        "quorum(uint256)": "f8ce560a",
        "quorumDenominator()": "97c3d334",
        "quorumNumerator()": "a7713a70",
        "state(uint256)": "3e4f49e6",
        "supportsInterface(bytes4)": "01ffc9a7",
        "timelock()": "d33219b4",
        "token()": "fc0c546a",
        "updateQuorumNumerator(uint256)": "06f3f9e6",
        "updateTimelock(address)": "a890c910",
        "version()": "54fd4d50",
        "votingDelay()": "3932abb1",
        "votingPeriod()": "02a251a3"
    },
    "gasEstimates": {
        "creation": {
            "codeDepositCost": "2057800",
            "executionCost": "infinite",
            "totalCost": "infinite"
        },
        "external": {
            "BALLOT_TYPEHASH()": "239",
            "COUNTING_MODE()": "infinite",
            "castVote(uint256,uint8)": "infinite",
            "castVoteBySig(uint256,uint8,uint8,bytes32,bytes32)": "infinite",
            "castVoteWithReason(uint256,uint8,string)": "infinite",
            "execute(address[],uint256[],bytes[],bytes32)": "infinite",
            "getVotes(address,uint256)": "infinite",
            "hasVoted(uint256,address)": "2693",
            "hashProposal(address[],uint256[],bytes[],bytes32)": "infinite",
            "name()": "infinite",
            "proposalDeadline(uint256)": "2607",
            "proposalEta(uint256)": "infinite",
            "proposalSnapshot(uint256)": "2654",
            "proposalThreshold()": "303",
            "proposalVotes(uint256)": "6774",
            "propose(address[],uint256[],bytes[],string)": "infinite",
            "queue(address[],uint256[],bytes[],bytes32)": "infinite",
            "quorum(uint256)": "infinite",
            "quorumDenominator()": "282",
            "quorumNumerator()": "2337",
            "state(uint256)": "infinite",
            "supportsInterface(bytes4)": "infinite",
            "timelock()": "2409",
            "token()": "infinite",
            "updateQuorumNumerator(uint256)": "28146",
            "updateTimelock(address)": "infinite",
            "version()": "infinite",
            "votingDelay()": "238",
            "votingPeriod()": "250"
        },
        "internal": {
            "_cancel(address[] memory,uint256[] memory,bytes memory[] memory,bytes32)": "infinite",
            "_execute(uint256,address[] memory,uint256[] memory,bytes memory[] memory,bytes32)": "infinite",
            "_executor()": "2156"
        }
    }
}